{
	"MasterChef.sol": {
		"MasterChef": {
			"abi": [
				{
					"inputs": [
						{
							"internalType": "contract ISushi",
							"name": "_sushi",
							"type": "address"
						},
						{
							"internalType": "uint256",
							"name": "_sushiPerBlock",
							"type": "uint256"
						},
						{
							"internalType": "uint256",
							"name": "_startBlock",
							"type": "uint256"
						}
					],
					"stateMutability": "nonpayable",
					"type": "constructor"
				},
				{
					"inputs": [
						{
							"internalType": "address",
							"name": "target",
							"type": "address"
						}
					],
					"name": "AddressEmptyCode",
					"type": "error"
				},
				{
					"inputs": [
						{
							"internalType": "address",
							"name": "account",
							"type": "address"
						}
					],
					"name": "AddressInsufficientBalance",
					"type": "error"
				},
				{
					"inputs": [],
					"name": "FailedInnerCall",
					"type": "error"
				},
				{
					"inputs": [
						{
							"internalType": "address",
							"name": "owner",
							"type": "address"
						}
					],
					"name": "OwnableInvalidOwner",
					"type": "error"
				},
				{
					"inputs": [
						{
							"internalType": "address",
							"name": "account",
							"type": "address"
						}
					],
					"name": "OwnableUnauthorizedAccount",
					"type": "error"
				},
				{
					"inputs": [
						{
							"internalType": "address",
							"name": "token",
							"type": "address"
						}
					],
					"name": "SafeERC20FailedOperation",
					"type": "error"
				},
				{
					"anonymous": false,
					"inputs": [
						{
							"indexed": true,
							"internalType": "address",
							"name": "user",
							"type": "address"
						},
						{
							"indexed": true,
							"internalType": "uint256",
							"name": "pid",
							"type": "uint256"
						},
						{
							"indexed": false,
							"internalType": "uint256",
							"name": "amount",
							"type": "uint256"
						}
					],
					"name": "Deposit",
					"type": "event"
				},
				{
					"anonymous": false,
					"inputs": [
						{
							"indexed": true,
							"internalType": "address",
							"name": "user",
							"type": "address"
						},
						{
							"indexed": true,
							"internalType": "uint256",
							"name": "pid",
							"type": "uint256"
						},
						{
							"indexed": false,
							"internalType": "uint256",
							"name": "amount",
							"type": "uint256"
						}
					],
					"name": "EmergencyWithdraw",
					"type": "event"
				},
				{
					"anonymous": false,
					"inputs": [
						{
							"indexed": true,
							"internalType": "address",
							"name": "previousOwner",
							"type": "address"
						},
						{
							"indexed": true,
							"internalType": "address",
							"name": "newOwner",
							"type": "address"
						}
					],
					"name": "OwnershipTransferred",
					"type": "event"
				},
				{
					"anonymous": false,
					"inputs": [
						{
							"indexed": true,
							"internalType": "address",
							"name": "user",
							"type": "address"
						},
						{
							"indexed": true,
							"internalType": "uint256",
							"name": "pid",
							"type": "uint256"
						},
						{
							"indexed": false,
							"internalType": "uint256",
							"name": "amount",
							"type": "uint256"
						}
					],
					"name": "Withdraw",
					"type": "event"
				},
				{
					"inputs": [],
					"name": "BONUS_MULTIPLIER",
					"outputs": [
						{
							"internalType": "uint256",
							"name": "",
							"type": "uint256"
						}
					],
					"stateMutability": "view",
					"type": "function"
				},
				{
					"inputs": [
						{
							"internalType": "uint256",
							"name": "_allocPoint",
							"type": "uint256"
						},
						{
							"internalType": "contract IERC20",
							"name": "_lpToken",
							"type": "address"
						},
						{
							"internalType": "bool",
							"name": "_withUpdate",
							"type": "bool"
						}
					],
					"name": "add",
					"outputs": [],
					"stateMutability": "nonpayable",
					"type": "function"
				},
				{
					"inputs": [],
					"name": "bonusEndBlock",
					"outputs": [
						{
							"internalType": "uint256",
							"name": "",
							"type": "uint256"
						}
					],
					"stateMutability": "view",
					"type": "function"
				},
				{
					"inputs": [
						{
							"internalType": "uint256",
							"name": "_pid",
							"type": "uint256"
						},
						{
							"internalType": "uint256",
							"name": "_amount",
							"type": "uint256"
						}
					],
					"name": "deposit",
					"outputs": [],
					"stateMutability": "nonpayable",
					"type": "function"
				},
				{
					"inputs": [
						{
							"internalType": "uint256",
							"name": "_pid",
							"type": "uint256"
						}
					],
					"name": "emergencyWithdraw",
					"outputs": [],
					"stateMutability": "nonpayable",
					"type": "function"
				},
				{
					"inputs": [
						{
							"internalType": "uint256",
							"name": "_from",
							"type": "uint256"
						},
						{
							"internalType": "uint256",
							"name": "_to",
							"type": "uint256"
						}
					],
					"name": "getMultiplier",
					"outputs": [
						{
							"internalType": "uint256",
							"name": "",
							"type": "uint256"
						}
					],
					"stateMutability": "view",
					"type": "function"
				},
				{
					"inputs": [],
					"name": "massUpdatePools",
					"outputs": [],
					"stateMutability": "nonpayable",
					"type": "function"
				},
				{
					"inputs": [],
					"name": "owner",
					"outputs": [
						{
							"internalType": "address",
							"name": "",
							"type": "address"
						}
					],
					"stateMutability": "view",
					"type": "function"
				},
				{
					"inputs": [
						{
							"internalType": "uint256",
							"name": "_pid",
							"type": "uint256"
						},
						{
							"internalType": "address",
							"name": "_user",
							"type": "address"
						}
					],
					"name": "pendingSushi",
					"outputs": [
						{
							"internalType": "uint256",
							"name": "",
							"type": "uint256"
						}
					],
					"stateMutability": "view",
					"type": "function"
				},
				{
					"inputs": [
						{
							"internalType": "uint256",
							"name": "",
							"type": "uint256"
						}
					],
					"name": "poolInfo",
					"outputs": [
						{
							"internalType": "contract IERC20",
							"name": "lpToken",
							"type": "address"
						},
						{
							"internalType": "uint256",
							"name": "allocPoint",
							"type": "uint256"
						},
						{
							"internalType": "uint256",
							"name": "lastRewardBlock",
							"type": "uint256"
						},
						{
							"internalType": "uint256",
							"name": "accSushiPerShare",
							"type": "uint256"
						}
					],
					"stateMutability": "view",
					"type": "function"
				},
				{
					"inputs": [],
					"name": "poolLength",
					"outputs": [
						{
							"internalType": "uint256",
							"name": "",
							"type": "uint256"
						}
					],
					"stateMutability": "view",
					"type": "function"
				},
				{
					"inputs": [],
					"name": "renounceOwnership",
					"outputs": [],
					"stateMutability": "nonpayable",
					"type": "function"
				},
				{
					"inputs": [
						{
							"internalType": "uint256",
							"name": "_pid",
							"type": "uint256"
						},
						{
							"internalType": "uint256",
							"name": "_allocPoint",
							"type": "uint256"
						},
						{
							"internalType": "bool",
							"name": "_withUpdate",
							"type": "bool"
						}
					],
					"name": "set",
					"outputs": [],
					"stateMutability": "nonpayable",
					"type": "function"
				},
				{
					"inputs": [],
					"name": "startBlock",
					"outputs": [
						{
							"internalType": "uint256",
							"name": "",
							"type": "uint256"
						}
					],
					"stateMutability": "view",
					"type": "function"
				},
				{
					"inputs": [],
					"name": "sushi",
					"outputs": [
						{
							"internalType": "contract ISushi",
							"name": "",
							"type": "address"
						}
					],
					"stateMutability": "view",
					"type": "function"
				},
				{
					"inputs": [],
					"name": "sushiPerBlock",
					"outputs": [
						{
							"internalType": "uint256",
							"name": "",
							"type": "uint256"
						}
					],
					"stateMutability": "view",
					"type": "function"
				},
				{
					"inputs": [],
					"name": "totalAllocPoint",
					"outputs": [
						{
							"internalType": "uint256",
							"name": "",
							"type": "uint256"
						}
					],
					"stateMutability": "view",
					"type": "function"
				},
				{
					"inputs": [
						{
							"internalType": "address",
							"name": "newOwner",
							"type": "address"
						}
					],
					"name": "transferOwnership",
					"outputs": [],
					"stateMutability": "nonpayable",
					"type": "function"
				},
				{
					"inputs": [
						{
							"internalType": "uint256",
							"name": "_pid",
							"type": "uint256"
						}
					],
					"name": "updatePool",
					"outputs": [],
					"stateMutability": "nonpayable",
					"type": "function"
				},
				{
					"inputs": [
						{
							"internalType": "uint256",
							"name": "",
							"type": "uint256"
						},
						{
							"internalType": "address",
							"name": "",
							"type": "address"
						}
					],
					"name": "userInfo",
					"outputs": [
						{
							"internalType": "uint256",
							"name": "amount",
							"type": "uint256"
						},
						{
							"internalType": "uint256",
							"name": "rewardDebt",
							"type": "uint256"
						}
					],
					"stateMutability": "view",
					"type": "function"
				},
				{
					"inputs": [
						{
							"internalType": "uint256",
							"name": "_pid",
							"type": "uint256"
						},
						{
							"internalType": "uint256",
							"name": "_amount",
							"type": "uint256"
						}
					],
					"name": "withdraw",
					"outputs": [],
					"stateMutability": "nonpayable",
					"type": "function"
				}
			],
			"devdoc": {
				"errors": {
					"AddressEmptyCode(address)": [
						{
							"details": "There's no code at `target` (it is not a contract)."
						}
					],
					"AddressInsufficientBalance(address)": [
						{
							"details": "The ETH balance of the account is not enough to perform the operation."
						}
					],
					"FailedInnerCall()": [
						{
							"details": "A call to an address target failed. The target may have reverted."
						}
					],
					"OwnableInvalidOwner(address)": [
						{
							"details": "The owner is not a valid owner account. (eg. `address(0)`)"
						}
					],
					"OwnableUnauthorizedAccount(address)": [
						{
							"details": "The caller account is not authorized to perform an operation."
						}
					],
					"SafeERC20FailedOperation(address)": [
						{
							"details": "An operation with an ERC20 token failed."
						}
					]
				},
				"kind": "dev",
				"methods": {
					"owner()": {
						"details": "Returns the address of the current owner."
					},
					"renounceOwnership()": {
						"details": "Leaves the contract without owner. It will not be possible to call `onlyOwner` functions. Can only be called by the current owner. NOTE: Renouncing ownership will leave the contract without an owner, thereby disabling any functionality that is only available to the owner."
					},
					"transferOwnership(address)": {
						"details": "Transfers ownership of the contract to a new account (`newOwner`). Can only be called by the current owner."
					}
				},
				"version": 1
			},
			"evm": {
				"assembly": "    /* \"MasterChef.sol\":713:9210  contract MasterChef is Ownable(msg.sender) {... */\n  mstore(0x40, 0x80)\n    /* \"MasterChef.sol\":2651:2652  0 */\n  0x00\n    /* \"MasterChef.sol\":2618:2652  uint256 public totalAllocPoint = 0 */\n  0x06\n  sstore\n    /* \"MasterChef.sol\":3026:3248  constructor(... */\n  callvalue\n  dup1\n  iszero\n  tag_1\n  jumpi\n  revert(0x00, 0x00)\ntag_1:\n  pop\n  mload(0x40)\n  sub(codesize, bytecodeSize)\n  dup1\n  bytecodeSize\n  dup4\n  codecopy\n  dup2\n  dup2\n  add\n  0x40\n  mstore\n  dup2\n  add\n  swap1\n  tag_2\n  swap2\n  swap1\n  tag_3\n  jump\t// in\ntag_2:\n    /* \"MasterChef.sol\":744:754  msg.sender */\n  caller\n    /* \"@openzeppelin/contracts/access/Ownable.sol\":1297:1298  0 */\n  0x00\n    /* \"@openzeppelin/contracts/access/Ownable.sol\":1273:1299  initialOwner == address(0) */\n  0xffffffffffffffffffffffffffffffffffffffff\n  and\n    /* \"@openzeppelin/contracts/access/Ownable.sol\":1273:1285  initialOwner */\n  dup2\n    /* \"@openzeppelin/contracts/access/Ownable.sol\":1273:1299  initialOwner == address(0) */\n  0xffffffffffffffffffffffffffffffffffffffff\n  and\n  sub\n    /* \"@openzeppelin/contracts/access/Ownable.sol\":1269:1364  if (initialOwner == address(0)) {... */\n  tag_7\n  jumpi\n    /* \"@openzeppelin/contracts/access/Ownable.sol\":1350:1351  0 */\n  0x00\n    /* \"@openzeppelin/contracts/access/Ownable.sol\":1322:1353  OwnableInvalidOwner(address(0)) */\n  mload(0x40)\n  0x1e4fbdf700000000000000000000000000000000000000000000000000000000\n  dup2\n  mstore\n  0x04\n  add\n  tag_8\n  swap2\n  swap1\n  tag_9\n  jump\t// in\ntag_8:\n  mload(0x40)\n  dup1\n  swap2\n  sub\n  swap1\n  revert\n    /* \"@openzeppelin/contracts/access/Ownable.sol\":1269:1364  if (initialOwner == address(0)) {... */\ntag_7:\n    /* \"@openzeppelin/contracts/access/Ownable.sol\":1373:1405  _transferOwnership(initialOwner) */\n  tag_10\n    /* \"@openzeppelin/contracts/access/Ownable.sol\":1392:1404  initialOwner */\n  dup2\n    /* \"@openzeppelin/contracts/access/Ownable.sol\":1373:1391  _transferOwnership */\n  shl(0x20, tag_11)\n    /* \"@openzeppelin/contracts/access/Ownable.sol\":1373:1405  _transferOwnership(initialOwner) */\n  0x20\n  shr\n  jump\t// in\ntag_10:\n    /* \"@openzeppelin/contracts/access/Ownable.sol\":1225:1412  constructor(address initialOwner) {... */\n  pop\n    /* \"MasterChef.sol\":3158:3164  _sushi */\n  dup3\n    /* \"MasterChef.sol\":3150:3155  sushi */\n  0x01\n  0x00\n    /* \"MasterChef.sol\":3150:3164  sushi = _sushi */\n  0x0100\n  exp\n  dup2\n  sload\n  dup2\n  0xffffffffffffffffffffffffffffffffffffffff\n  mul\n  not\n  and\n  swap1\n  dup4\n  0xffffffffffffffffffffffffffffffffffffffff\n  and\n  mul\n  or\n  swap1\n  sstore\n  pop\n    /* \"MasterChef.sol\":3191:3205  _sushiPerBlock */\n  dup2\n    /* \"MasterChef.sol\":3175:3188  sushiPerBlock */\n  0x03\n    /* \"MasterChef.sol\":3175:3205  sushiPerBlock = _sushiPerBlock */\n  dup2\n  swap1\n  sstore\n  pop\n    /* \"MasterChef.sol\":3229:3240  _startBlock */\n  dup1\n    /* \"MasterChef.sol\":3216:3226  startBlock */\n  0x07\n    /* \"MasterChef.sol\":3216:3240  startBlock = _startBlock */\n  dup2\n  swap1\n  sstore\n  pop\n    /* \"MasterChef.sol\":3026:3248  constructor(... */\n  pop\n  pop\n  pop\n    /* \"MasterChef.sol\":713:9210  contract MasterChef is Ownable(msg.sender) {... */\n  jump(tag_13)\n    /* \"@openzeppelin/contracts/access/Ownable.sol\":2912:3099  function _transferOwnership(address newOwner) internal virtual {... */\ntag_11:\n    /* \"@openzeppelin/contracts/access/Ownable.sol\":2985:3001  address oldOwner */\n  0x00\n    /* \"@openzeppelin/contracts/access/Ownable.sol\":3004:3010  _owner */\n  0x00\n  0x00\n  swap1\n  sload\n  swap1\n  0x0100\n  exp\n  swap1\n  div\n  0xffffffffffffffffffffffffffffffffffffffff\n  and\n    /* \"@openzeppelin/contracts/access/Ownable.sol\":2985:3010  address oldOwner = _owner */\n  swap1\n  pop\n    /* \"@openzeppelin/contracts/access/Ownable.sol\":3029:3037  newOwner */\n  dup2\n    /* \"@openzeppelin/contracts/access/Ownable.sol\":3020:3026  _owner */\n  0x00\n  0x00\n    /* \"@openzeppelin/contracts/access/Ownable.sol\":3020:3037  _owner = newOwner */\n  0x0100\n  exp\n  dup2\n  sload\n  dup2\n  0xffffffffffffffffffffffffffffffffffffffff\n  mul\n  not\n  and\n  swap1\n  dup4\n  0xffffffffffffffffffffffffffffffffffffffff\n  and\n  mul\n  or\n  swap1\n  sstore\n  pop\n    /* \"@openzeppelin/contracts/access/Ownable.sol\":3083:3091  newOwner */\n  dup2\n    /* \"@openzeppelin/contracts/access/Ownable.sol\":3052:3092  OwnershipTransferred(oldOwner, newOwner) */\n  0xffffffffffffffffffffffffffffffffffffffff\n  and\n    /* \"@openzeppelin/contracts/access/Ownable.sol\":3073:3081  oldOwner */\n  dup2\n    /* \"@openzeppelin/contracts/access/Ownable.sol\":3052:3092  OwnershipTransferred(oldOwner, newOwner) */\n  0xffffffffffffffffffffffffffffffffffffffff\n  and\n  0x8be0079c531659141344cd1fd0a4f28419497f9722a3daafe3b4186f6b6457e0\n  mload(0x40)\n  mload(0x40)\n  dup1\n  swap2\n  sub\n  swap1\n  log3\n    /* \"@openzeppelin/contracts/access/Ownable.sol\":2975:3099  {... */\n  pop\n    /* \"@openzeppelin/contracts/access/Ownable.sol\":2912:3099  function _transferOwnership(address newOwner) internal virtual {... */\n  pop\n  jump\t// out\n    /* \"#utility.yul\":88:205   */\ntag_16:\n    /* \"#utility.yul\":197:198   */\n  0x00\n    /* \"#utility.yul\":194:195   */\n  0x00\n    /* \"#utility.yul\":187:199   */\n  revert\n    /* \"#utility.yul\":334:460   */\ntag_18:\n    /* \"#utility.yul\":371:378   */\n  0x00\n    /* \"#utility.yul\":411:453   */\n  0xffffffffffffffffffffffffffffffffffffffff\n    /* \"#utility.yul\":404:409   */\n  dup3\n    /* \"#utility.yul\":400:454   */\n  and\n    /* \"#utility.yul\":389:454   */\n  swap1\n  pop\n    /* \"#utility.yul\":334:460   */\n  swap2\n  swap1\n  pop\n  jump\t// out\n    /* \"#utility.yul\":466:562   */\ntag_19:\n    /* \"#utility.yul\":503:510   */\n  0x00\n    /* \"#utility.yul\":532:556   */\n  tag_33\n    /* \"#utility.yul\":550:555   */\n  dup3\n    /* \"#utility.yul\":532:556   */\n  tag_18\n  jump\t// in\ntag_33:\n    /* \"#utility.yul\":521:556   */\n  swap1\n  pop\n    /* \"#utility.yul\":466:562   */\n  swap2\n  swap1\n  pop\n  jump\t// out\n    /* \"#utility.yul\":568:678   */\ntag_20:\n    /* \"#utility.yul\":619:626   */\n  0x00\n    /* \"#utility.yul\":648:672   */\n  tag_35\n    /* \"#utility.yul\":666:671   */\n  dup3\n    /* \"#utility.yul\":648:672   */\n  tag_19\n  jump\t// in\ntag_35:\n    /* \"#utility.yul\":637:672   */\n  swap1\n  pop\n    /* \"#utility.yul\":568:678   */\n  swap2\n  swap1\n  pop\n  jump\t// out\n    /* \"#utility.yul\":684:834   */\ntag_21:\n    /* \"#utility.yul\":771:809   */\n  tag_37\n    /* \"#utility.yul\":803:808   */\n  dup2\n    /* \"#utility.yul\":771:809   */\n  tag_20\n  jump\t// in\ntag_37:\n    /* \"#utility.yul\":764:769   */\n  dup2\n    /* \"#utility.yul\":761:810   */\n  eq\n    /* \"#utility.yul\":751:828   */\n  tag_38\n  jumpi\n    /* \"#utility.yul\":824:825   */\n  0x00\n    /* \"#utility.yul\":821:822   */\n  0x00\n    /* \"#utility.yul\":814:826   */\n  revert\n    /* \"#utility.yul\":751:828   */\ntag_38:\n    /* \"#utility.yul\":684:834   */\n  pop\n  jump\t// out\n    /* \"#utility.yul\":840:1011   */\ntag_22:\n    /* \"#utility.yul\":911:916   */\n  0x00\n    /* \"#utility.yul\":942:948   */\n  dup2\n    /* \"#utility.yul\":936:949   */\n  mload\n    /* \"#utility.yul\":927:949   */\n  swap1\n  pop\n    /* \"#utility.yul\":958:1005   */\n  tag_40\n    /* \"#utility.yul\":999:1004   */\n  dup2\n    /* \"#utility.yul\":958:1005   */\n  tag_21\n  jump\t// in\ntag_40:\n    /* \"#utility.yul\":840:1011   */\n  swap3\n  swap2\n  pop\n  pop\n  jump\t// out\n    /* \"#utility.yul\":1017:1094   */\ntag_23:\n    /* \"#utility.yul\":1054:1061   */\n  0x00\n    /* \"#utility.yul\":1083:1088   */\n  dup2\n    /* \"#utility.yul\":1072:1088   */\n  swap1\n  pop\n    /* \"#utility.yul\":1017:1094   */\n  swap2\n  swap1\n  pop\n  jump\t// out\n    /* \"#utility.yul\":1100:1222   */\ntag_24:\n    /* \"#utility.yul\":1173:1197   */\n  tag_43\n    /* \"#utility.yul\":1191:1196   */\n  dup2\n    /* \"#utility.yul\":1173:1197   */\n  tag_23\n  jump\t// in\ntag_43:\n    /* \"#utility.yul\":1166:1171   */\n  dup2\n    /* \"#utility.yul\":1163:1198   */\n  eq\n    /* \"#utility.yul\":1153:1216   */\n  tag_44\n  jumpi\n    /* \"#utility.yul\":1212:1213   */\n  0x00\n    /* \"#utility.yul\":1209:1210   */\n  0x00\n    /* \"#utility.yul\":1202:1214   */\n  revert\n    /* \"#utility.yul\":1153:1216   */\ntag_44:\n    /* \"#utility.yul\":1100:1222   */\n  pop\n  jump\t// out\n    /* \"#utility.yul\":1228:1371   */\ntag_25:\n    /* \"#utility.yul\":1285:1290   */\n  0x00\n    /* \"#utility.yul\":1316:1322   */\n  dup2\n    /* \"#utility.yul\":1310:1323   */\n  mload\n    /* \"#utility.yul\":1301:1323   */\n  swap1\n  pop\n    /* \"#utility.yul\":1332:1365   */\n  tag_46\n    /* \"#utility.yul\":1359:1364   */\n  dup2\n    /* \"#utility.yul\":1332:1365   */\n  tag_24\n  jump\t// in\ntag_46:\n    /* \"#utility.yul\":1228:1371   */\n  swap3\n  swap2\n  pop\n  pop\n  jump\t// out\n    /* \"#utility.yul\":1377:2068   */\ntag_3:\n    /* \"#utility.yul\":1479:1485   */\n  0x00\n    /* \"#utility.yul\":1487:1493   */\n  0x00\n    /* \"#utility.yul\":1495:1501   */\n  0x00\n    /* \"#utility.yul\":1544:1546   */\n  0x60\n    /* \"#utility.yul\":1532:1541   */\n  dup5\n    /* \"#utility.yul\":1523:1530   */\n  dup7\n    /* \"#utility.yul\":1519:1542   */\n  sub\n    /* \"#utility.yul\":1515:1547   */\n  slt\n    /* \"#utility.yul\":1512:1631   */\n  iszero\n  tag_48\n  jumpi\n    /* \"#utility.yul\":1550:1629   */\n  tag_49\n  tag_16\n  jump\t// in\ntag_49:\n    /* \"#utility.yul\":1512:1631   */\ntag_48:\n    /* \"#utility.yul\":1670:1671   */\n  0x00\n    /* \"#utility.yul\":1695:1773   */\n  tag_50\n    /* \"#utility.yul\":1765:1772   */\n  dup7\n    /* \"#utility.yul\":1756:1762   */\n  dup3\n    /* \"#utility.yul\":1745:1754   */\n  dup8\n    /* \"#utility.yul\":1741:1763   */\n  add\n    /* \"#utility.yul\":1695:1773   */\n  tag_22\n  jump\t// in\ntag_50:\n    /* \"#utility.yul\":1685:1773   */\n  swap4\n  pop\n    /* \"#utility.yul\":1641:1783   */\n  pop\n    /* \"#utility.yul\":1822:1824   */\n  0x20\n    /* \"#utility.yul\":1848:1912   */\n  tag_51\n    /* \"#utility.yul\":1904:1911   */\n  dup7\n    /* \"#utility.yul\":1895:1901   */\n  dup3\n    /* \"#utility.yul\":1884:1893   */\n  dup8\n    /* \"#utility.yul\":1880:1902   */\n  add\n    /* \"#utility.yul\":1848:1912   */\n  tag_25\n  jump\t// in\ntag_51:\n    /* \"#utility.yul\":1838:1912   */\n  swap3\n  pop\n    /* \"#utility.yul\":1793:1922   */\n  pop\n    /* \"#utility.yul\":1961:1963   */\n  0x40\n    /* \"#utility.yul\":1987:2051   */\n  tag_52\n    /* \"#utility.yul\":2043:2050   */\n  dup7\n    /* \"#utility.yul\":2034:2040   */\n  dup3\n    /* \"#utility.yul\":2023:2032   */\n  dup8\n    /* \"#utility.yul\":2019:2041   */\n  add\n    /* \"#utility.yul\":1987:2051   */\n  tag_25\n  jump\t// in\ntag_52:\n    /* \"#utility.yul\":1977:2051   */\n  swap2\n  pop\n    /* \"#utility.yul\":1932:2061   */\n  pop\n    /* \"#utility.yul\":1377:2068   */\n  swap3\n  pop\n  swap3\n  pop\n  swap3\n  jump\t// out\n    /* \"#utility.yul\":2074:2192   */\ntag_26:\n    /* \"#utility.yul\":2161:2185   */\n  tag_54\n    /* \"#utility.yul\":2179:2184   */\n  dup2\n    /* \"#utility.yul\":2161:2185   */\n  tag_19\n  jump\t// in\ntag_54:\n    /* \"#utility.yul\":2156:2159   */\n  dup3\n    /* \"#utility.yul\":2149:2186   */\n  mstore\n    /* \"#utility.yul\":2074:2192   */\n  pop\n  pop\n  jump\t// out\n    /* \"#utility.yul\":2198:2420   */\ntag_9:\n    /* \"#utility.yul\":2291:2295   */\n  0x00\n    /* \"#utility.yul\":2329:2331   */\n  0x20\n    /* \"#utility.yul\":2318:2327   */\n  dup3\n    /* \"#utility.yul\":2314:2332   */\n  add\n    /* \"#utility.yul\":2306:2332   */\n  swap1\n  pop\n    /* \"#utility.yul\":2342:2413   */\n  tag_56\n    /* \"#utility.yul\":2410:2411   */\n  0x00\n    /* \"#utility.yul\":2399:2408   */\n  dup4\n    /* \"#utility.yul\":2395:2412   */\n  add\n    /* \"#utility.yul\":2386:2392   */\n  dup5\n    /* \"#utility.yul\":2342:2413   */\n  tag_26\n  jump\t// in\ntag_56:\n    /* \"#utility.yul\":2198:2420   */\n  swap3\n  swap2\n  pop\n  pop\n  jump\t// out\n    /* \"MasterChef.sol\":713:9210  contract MasterChef is Ownable(msg.sender) {... */\ntag_13:\n  dataSize(sub_0)\n  dup1\n  dataOffset(sub_0)\n  0x00\n  codecopy\n  0x00\n  return\nstop\n\nsub_0: assembly {\n        /* \"MasterChef.sol\":713:9210  contract MasterChef is Ownable(msg.sender) {... */\n      mstore(0x40, 0x80)\n      callvalue\n      dup1\n      iszero\n      tag_1\n      jumpi\n      revert(0x00, 0x00)\n    tag_1:\n      pop\n      jumpi(tag_2, lt(calldatasize, 0x04))\n      shr(0xe0, calldataload(0x00))\n      dup1\n      0x5312ea8e\n      gt\n      tag_24\n      jumpi\n      dup1\n      0x8da5cb5b\n      gt\n      tag_25\n      jumpi\n      dup1\n      0x8da5cb5b\n      eq\n      tag_18\n      jumpi\n      dup1\n      0x8dbb1e3a\n      eq\n      tag_19\n      jumpi\n      dup1\n      0x93f1a40b\n      eq\n      tag_20\n      jumpi\n      dup1\n      0xb0bcf42a\n      eq\n      tag_21\n      jumpi\n      dup1\n      0xe2bbb158\n      eq\n      tag_22\n      jumpi\n      dup1\n      0xf2fde38b\n      eq\n      tag_23\n      jumpi\n      jump(tag_2)\n    tag_25:\n      dup1\n      0x5312ea8e\n      eq\n      tag_13\n      jumpi\n      dup1\n      0x630b5ba1\n      eq\n      tag_14\n      jumpi\n      dup1\n      0x64482f79\n      eq\n      tag_15\n      jumpi\n      dup1\n      0x715018a6\n      eq\n      tag_16\n      jumpi\n      dup1\n      0x8aa28550\n      eq\n      tag_17\n      jumpi\n      jump(tag_2)\n    tag_24:\n      dup1\n      0x1aed6553\n      gt\n      tag_26\n      jumpi\n      dup1\n      0x1aed6553\n      eq\n      tag_8\n      jumpi\n      dup1\n      0x1eaaa045\n      eq\n      tag_9\n      jumpi\n      dup1\n      0x441a3e70\n      eq\n      tag_10\n      jumpi\n      dup1\n      0x48cd4cb1\n      eq\n      tag_11\n      jumpi\n      dup1\n      0x51eb05a6\n      eq\n      tag_12\n      jumpi\n      jump(tag_2)\n    tag_26:\n      dup1\n      0x081e3eda\n      eq\n      tag_3\n      jumpi\n      dup1\n      0x0a087903\n      eq\n      tag_4\n      jumpi\n      dup1\n      0x1526fe27\n      eq\n      tag_5\n      jumpi\n      dup1\n      0x17caf6f1\n      eq\n      tag_6\n      jumpi\n      dup1\n      0x195426ec\n      eq\n      tag_7\n      jumpi\n    tag_2:\n      revert(0x00, 0x00)\n        /* \"MasterChef.sol\":3256:3351  function poolLength() external view returns (uint256) {... */\n    tag_3:\n      tag_27\n      tag_28\n      jump\t// in\n    tag_27:\n      mload(0x40)\n      tag_29\n      swap2\n      swap1\n      tag_30\n      jump\t// in\n    tag_29:\n      mload(0x40)\n      dup1\n      swap2\n      sub\n      swap1\n      return\n        /* \"MasterChef.sol\":2060:2079  ISushi public sushi */\n    tag_4:\n      tag_31\n      tag_32\n      jump\t// in\n    tag_31:\n      mload(0x40)\n      tag_33\n      swap2\n      swap1\n      tag_34\n      jump\t// in\n    tag_33:\n      mload(0x40)\n      dup1\n      swap2\n      sub\n      swap1\n      return\n        /* \"MasterChef.sol\":2377:2403  PoolInfo[] public poolInfo */\n    tag_5:\n      tag_35\n      0x04\n      dup1\n      calldatasize\n      sub\n      dup2\n      add\n      swap1\n      tag_36\n      swap2\n      swap1\n      tag_37\n      jump\t// in\n    tag_36:\n      tag_38\n      jump\t// in\n    tag_35:\n      mload(0x40)\n      tag_39\n      swap5\n      swap4\n      swap3\n      swap2\n      swap1\n      tag_40\n      jump\t// in\n    tag_39:\n      mload(0x40)\n      dup1\n      swap2\n      sub\n      swap1\n      return\n        /* \"MasterChef.sol\":2618:2652  uint256 public totalAllocPoint = 0 */\n    tag_6:\n      tag_41\n      tag_42\n      jump\t// in\n    tag_41:\n      mload(0x40)\n      tag_43\n      swap2\n      swap1\n      tag_30\n      jump\t// in\n    tag_43:\n      mload(0x40)\n      dup1\n      swap2\n      sub\n      swap1\n      return\n        /* \"MasterChef.sol\":4858:5721  function pendingSushi(uint256 _pid, address _user)... */\n    tag_7:\n      tag_44\n      0x04\n      dup1\n      calldatasize\n      sub\n      dup2\n      add\n      swap1\n      tag_45\n      swap2\n      swap1\n      tag_46\n      jump\t// in\n    tag_45:\n      tag_47\n      jump\t// in\n    tag_44:\n      mload(0x40)\n      tag_48\n      swap2\n      swap1\n      tag_30\n      jump\t// in\n    tag_48:\n      mload(0x40)\n      dup1\n      swap2\n      sub\n      swap1\n      return\n        /* \"MasterChef.sol\":2137:2165  uint256 public bonusEndBlock */\n    tag_8:\n      tag_49\n      tag_50\n      jump\t// in\n    tag_49:\n      mload(0x40)\n      tag_51\n      swap2\n      swap1\n      tag_30\n      jump\t// in\n    tag_51:\n      mload(0x40)\n      dup1\n      swap2\n      sub\n      swap1\n      return\n        /* \"MasterChef.sol\":3520:4122  function add(... */\n    tag_9:\n      tag_52\n      0x04\n      dup1\n      calldatasize\n      sub\n      dup2\n      add\n      swap1\n      tag_53\n      swap2\n      swap1\n      tag_54\n      jump\t// in\n    tag_53:\n      tag_55\n      jump\t// in\n    tag_52:\n      stop\n        /* \"MasterChef.sol\":7694:8377  function withdraw(uint256 _pid, uint256 _amount) public {... */\n    tag_10:\n      tag_56\n      0x04\n      dup1\n      calldatasize\n      sub\n      dup2\n      add\n      swap1\n      tag_57\n      swap2\n      swap1\n      tag_58\n      jump\t// in\n    tag_57:\n      tag_59\n      jump\t// in\n    tag_56:\n      stop\n        /* \"MasterChef.sol\":2710:2735  uint256 public startBlock */\n    tag_11:\n      tag_60\n      tag_61\n      jump\t// in\n    tag_60:\n      mload(0x40)\n      tag_62\n      swap2\n      swap1\n      tag_30\n      jump\t// in\n    tag_62:\n      mload(0x40)\n      dup1\n      swap2\n      sub\n      swap1\n      return\n        /* \"MasterChef.sol\":6060:6841  function updatePool(uint256 _pid) public {... */\n    tag_12:\n      tag_63\n      0x04\n      dup1\n      calldatasize\n      sub\n      dup2\n      add\n      swap1\n      tag_64\n      swap2\n      swap1\n      tag_37\n      jump\t// in\n    tag_64:\n      tag_65\n      jump\t// in\n    tag_63:\n      stop\n        /* \"MasterChef.sol\":8448:8804  function emergencyWithdraw(uint256 _pid) public {... */\n    tag_13:\n      tag_66\n      0x04\n      dup1\n      calldatasize\n      sub\n      dup2\n      add\n      swap1\n      tag_67\n      swap2\n      swap1\n      tag_37\n      jump\t// in\n    tag_67:\n      tag_68\n      jump\t// in\n    tag_66:\n      stop\n        /* \"MasterChef.sol\":5804:5984  function massUpdatePools() public {... */\n    tag_14:\n      tag_69\n      tag_70\n      jump\t// in\n    tag_69:\n      stop\n        /* \"MasterChef.sol\":4219:4565  function set(... */\n    tag_15:\n      tag_71\n      0x04\n      dup1\n      calldatasize\n      sub\n      dup2\n      add\n      swap1\n      tag_72\n      swap2\n      swap1\n      tag_73\n      jump\t// in\n    tag_72:\n      tag_74\n      jump\t// in\n    tag_71:\n      stop\n        /* \"@openzeppelin/contracts/access/Ownable.sol\":2293:2394  function renounceOwnership() public virtual onlyOwner {... */\n    tag_16:\n      tag_75\n      tag_76\n      jump\t// in\n    tag_75:\n      stop\n        /* \"MasterChef.sol\":2296:2341  uint256 public constant BONUS_MULTIPLIER = 10 */\n    tag_17:\n      tag_77\n      tag_78\n      jump\t// in\n    tag_77:\n      mload(0x40)\n      tag_79\n      swap2\n      swap1\n      tag_30\n      jump\t// in\n    tag_79:\n      mload(0x40)\n      dup1\n      swap2\n      sub\n      swap1\n      return\n        /* \"@openzeppelin/contracts/access/Ownable.sol\":1638:1723  function owner() public view virtual returns (address) {... */\n    tag_18:\n      tag_80\n      tag_81\n      jump\t// in\n    tag_80:\n      mload(0x40)\n      tag_82\n      swap2\n      swap1\n      tag_83\n      jump\t// in\n    tag_82:\n      mload(0x40)\n      dup1\n      swap2\n      sub\n      swap1\n      return\n        /* \"MasterChef.sol\":4643:4793  function getMultiplier(uint256 _from, uint256 _to)... */\n    tag_19:\n      tag_84\n      0x04\n      dup1\n      calldatasize\n      sub\n      dup2\n      add\n      swap1\n      tag_85\n      swap2\n      swap1\n      tag_58\n      jump\t// in\n    tag_85:\n      tag_86\n      jump\t// in\n    tag_84:\n      mload(0x40)\n      tag_87\n      swap2\n      swap1\n      tag_30\n      jump\t// in\n    tag_87:\n      mload(0x40)\n      dup1\n      swap2\n      sub\n      swap1\n      return\n        /* \"MasterChef.sol\":2459:2523  mapping(uint256 => mapping(address => UserInfo)) public userInfo */\n    tag_20:\n      tag_88\n      0x04\n      dup1\n      calldatasize\n      sub\n      dup2\n      add\n      swap1\n      tag_89\n      swap2\n      swap1\n      tag_46\n      jump\t// in\n    tag_89:\n      tag_90\n      jump\t// in\n    tag_88:\n      mload(0x40)\n      tag_91\n      swap3\n      swap2\n      swap1\n      tag_92\n      jump\t// in\n    tag_91:\n      mload(0x40)\n      dup1\n      swap2\n      sub\n      swap1\n      return\n        /* \"MasterChef.sol\":2212:2240  uint256 public sushiPerBlock */\n    tag_21:\n      tag_93\n      tag_94\n      jump\t// in\n    tag_93:\n      mload(0x40)\n      tag_95\n      swap2\n      swap1\n      tag_30\n      jump\t// in\n    tag_95:\n      mload(0x40)\n      dup1\n      swap2\n      sub\n      swap1\n      return\n        /* \"MasterChef.sol\":6911:7642  function deposit(uint256 _pid, uint256 _amount) public {... */\n    tag_22:\n      tag_96\n      0x04\n      dup1\n      calldatasize\n      sub\n      dup2\n      add\n      swap1\n      tag_97\n      swap2\n      swap1\n      tag_58\n      jump\t// in\n    tag_97:\n      tag_98\n      jump\t// in\n    tag_96:\n      stop\n        /* \"@openzeppelin/contracts/access/Ownable.sol\":2543:2758  function transferOwnership(address newOwner) public virtual onlyOwner {... */\n    tag_23:\n      tag_99\n      0x04\n      dup1\n      calldatasize\n      sub\n      dup2\n      add\n      swap1\n      tag_100\n      swap2\n      swap1\n      tag_101\n      jump\t// in\n    tag_100:\n      tag_102\n      jump\t// in\n    tag_99:\n      stop\n        /* \"MasterChef.sol\":3256:3351  function poolLength() external view returns (uint256) {... */\n    tag_28:\n        /* \"MasterChef.sol\":3301:3308  uint256 */\n      0x00\n        /* \"MasterChef.sol\":3328:3336  poolInfo */\n      0x04\n        /* \"MasterChef.sol\":3328:3343  poolInfo.length */\n      dup1\n      sload\n      swap1\n      pop\n        /* \"MasterChef.sol\":3321:3343  return poolInfo.length */\n      swap1\n      pop\n        /* \"MasterChef.sol\":3256:3351  function poolLength() external view returns (uint256) {... */\n      swap1\n      jump\t// out\n        /* \"MasterChef.sol\":2060:2079  ISushi public sushi */\n    tag_32:\n      0x01\n      0x00\n      swap1\n      sload\n      swap1\n      0x0100\n      exp\n      swap1\n      div\n      0xffffffffffffffffffffffffffffffffffffffff\n      and\n      dup2\n      jump\t// out\n        /* \"MasterChef.sol\":2377:2403  PoolInfo[] public poolInfo */\n    tag_38:\n      0x04\n      dup2\n      dup2\n      sload\n      dup2\n      lt\n      tag_104\n      jumpi\n      0x00\n      dup1\n      revert\n    tag_104:\n      swap1\n      0x00\n      mstore\n      keccak256(0x00, 0x20)\n      swap1\n      0x04\n      mul\n      add\n      0x00\n      swap2\n      pop\n      swap1\n      pop\n      dup1\n      0x00\n      add\n      0x00\n      swap1\n      sload\n      swap1\n      0x0100\n      exp\n      swap1\n      div\n      0xffffffffffffffffffffffffffffffffffffffff\n      and\n      swap1\n      dup1\n      0x01\n      add\n      sload\n      swap1\n      dup1\n      0x02\n      add\n      sload\n      swap1\n      dup1\n      0x03\n      add\n      sload\n      swap1\n      pop\n      dup5\n      jump\t// out\n        /* \"MasterChef.sol\":2618:2652  uint256 public totalAllocPoint = 0 */\n    tag_42:\n      sload(0x06)\n      dup2\n      jump\t// out\n        /* \"MasterChef.sol\":4858:5721  function pendingSushi(uint256 _pid, address _user)... */\n    tag_47:\n        /* \"MasterChef.sol\":4959:4966  uint256 */\n      0x00\n        /* \"MasterChef.sol\":4984:5005  PoolInfo storage pool */\n      0x00\n        /* \"MasterChef.sol\":5008:5016  poolInfo */\n      0x04\n        /* \"MasterChef.sol\":5017:5021  _pid */\n      dup5\n        /* \"MasterChef.sol\":5008:5022  poolInfo[_pid] */\n      dup2\n      sload\n      dup2\n      lt\n      tag_107\n      jumpi\n      tag_108\n      tag_109\n      jump\t// in\n    tag_108:\n    tag_107:\n      swap1\n      0x00\n      mstore\n      keccak256(0x00, 0x20)\n      swap1\n      0x04\n      mul\n      add\n        /* \"MasterChef.sol\":4984:5022  PoolInfo storage pool = poolInfo[_pid] */\n      swap1\n      pop\n        /* \"MasterChef.sol\":5033:5054  UserInfo storage user */\n      0x00\n        /* \"MasterChef.sol\":5057:5065  userInfo */\n      0x05\n        /* \"MasterChef.sol\":5057:5071  userInfo[_pid] */\n      0x00\n        /* \"MasterChef.sol\":5066:5070  _pid */\n      dup7\n        /* \"MasterChef.sol\":5057:5071  userInfo[_pid] */\n      dup2\n      mstore\n      0x20\n      add\n      swap1\n      dup2\n      mstore\n      0x20\n      add\n      0x00\n      keccak256\n        /* \"MasterChef.sol\":5057:5078  userInfo[_pid][_user] */\n      0x00\n        /* \"MasterChef.sol\":5072:5077  _user */\n      dup6\n        /* \"MasterChef.sol\":5057:5078  userInfo[_pid][_user] */\n      0xffffffffffffffffffffffffffffffffffffffff\n      and\n      0xffffffffffffffffffffffffffffffffffffffff\n      and\n      dup2\n      mstore\n      0x20\n      add\n      swap1\n      dup2\n      mstore\n      0x20\n      add\n      0x00\n      keccak256\n        /* \"MasterChef.sol\":5033:5078  UserInfo storage user = userInfo[_pid][_user] */\n      swap1\n      pop\n        /* \"MasterChef.sol\":5089:5113  uint256 accSushiPerShare */\n      0x00\n        /* \"MasterChef.sol\":5116:5120  pool */\n      dup3\n        /* \"MasterChef.sol\":5116:5137  pool.accSushiPerShare */\n      0x03\n      add\n      sload\n        /* \"MasterChef.sol\":5089:5137  uint256 accSushiPerShare = pool.accSushiPerShare */\n      swap1\n      pop\n        /* \"MasterChef.sol\":5148:5164  uint256 lpSupply */\n      0x00\n        /* \"MasterChef.sol\":5167:5171  pool */\n      dup4\n        /* \"MasterChef.sol\":5167:5179  pool.lpToken */\n      0x00\n      add\n      0x00\n      swap1\n      sload\n      swap1\n      0x0100\n      exp\n      swap1\n      div\n      0xffffffffffffffffffffffffffffffffffffffff\n      and\n        /* \"MasterChef.sol\":5167:5189  pool.lpToken.balanceOf */\n      0xffffffffffffffffffffffffffffffffffffffff\n      and\n      0x70a08231\n        /* \"MasterChef.sol\":5198:5202  this */\n      address\n        /* \"MasterChef.sol\":5167:5204  pool.lpToken.balanceOf(address(this)) */\n      mload(0x40)\n      dup3\n      0xffffffff\n      and\n      0xe0\n      shl\n      dup2\n      mstore\n      0x04\n      add\n      tag_111\n      swap2\n      swap1\n      tag_83\n      jump\t// in\n    tag_111:\n      0x20\n      mload(0x40)\n      dup1\n      dup4\n      sub\n      dup2\n      dup7\n      gas\n      staticcall\n      iszero\n      dup1\n      iszero\n      tag_113\n      jumpi\n      returndatacopy(0x00, 0x00, returndatasize)\n      revert(0x00, returndatasize)\n    tag_113:\n      pop\n      pop\n      pop\n      pop\n      mload(0x40)\n      returndatasize\n      not(0x1f)\n      0x1f\n      dup3\n      add\n      and\n      dup3\n      add\n      dup1\n      0x40\n      mstore\n      pop\n      dup2\n      add\n      swap1\n      tag_114\n      swap2\n      swap1\n      tag_115\n      jump\t// in\n    tag_114:\n        /* \"MasterChef.sol\":5148:5204  uint256 lpSupply = pool.lpToken.balanceOf(address(this)) */\n      swap1\n      pop\n        /* \"MasterChef.sol\":5234:5238  pool */\n      dup4\n        /* \"MasterChef.sol\":5234:5254  pool.lastRewardBlock */\n      0x02\n      add\n      sload\n        /* \"MasterChef.sol\":5219:5231  block.number */\n      number\n        /* \"MasterChef.sol\":5219:5254  block.number > pool.lastRewardBlock */\n      gt\n        /* \"MasterChef.sol\":5219:5271  block.number > pool.lastRewardBlock && lpSupply != 0 */\n      dup1\n      iszero\n      tag_116\n      jumpi\n      pop\n        /* \"MasterChef.sol\":5270:5271  0 */\n      0x00\n        /* \"MasterChef.sol\":5258:5266  lpSupply */\n      dup2\n        /* \"MasterChef.sol\":5258:5271  lpSupply != 0 */\n      eq\n      iszero\n        /* \"MasterChef.sol\":5219:5271  block.number > pool.lastRewardBlock && lpSupply != 0 */\n    tag_116:\n        /* \"MasterChef.sol\":5215:5641  if (block.number > pool.lastRewardBlock && lpSupply != 0) {... */\n      iszero\n      tag_117\n      jumpi\n        /* \"MasterChef.sol\":5288:5306  uint256 multiplier */\n      0x00\n        /* \"MasterChef.sol\":5326:5375  getMultiplier(pool.lastRewardBlock, block.number) */\n      tag_118\n        /* \"MasterChef.sol\":5340:5344  pool */\n      dup6\n        /* \"MasterChef.sol\":5340:5360  pool.lastRewardBlock */\n      0x02\n      add\n      sload\n        /* \"MasterChef.sol\":5362:5374  block.number */\n      number\n        /* \"MasterChef.sol\":5326:5339  getMultiplier */\n      tag_86\n        /* \"MasterChef.sol\":5326:5375  getMultiplier(pool.lastRewardBlock, block.number) */\n      jump\t// in\n    tag_118:\n        /* \"MasterChef.sol\":5288:5375  uint256 multiplier =... */\n      swap1\n      pop\n        /* \"MasterChef.sol\":5390:5409  uint256 sushiReward */\n      0x00\n        /* \"MasterChef.sol\":5497:5512  totalAllocPoint */\n      sload(0x06)\n        /* \"MasterChef.sol\":5458:5462  pool */\n      dup7\n        /* \"MasterChef.sol\":5458:5473  pool.allocPoint */\n      0x01\n      add\n      sload\n        /* \"MasterChef.sol\":5442:5455  sushiPerBlock */\n      sload(0x03)\n        /* \"MasterChef.sol\":5429:5439  multiplier */\n      dup5\n        /* \"MasterChef.sol\":5429:5455  multiplier * sushiPerBlock */\n      tag_119\n      swap2\n      swap1\n      tag_120\n      jump\t// in\n    tag_119:\n        /* \"MasterChef.sol\":5429:5473  multiplier * sushiPerBlock * pool.allocPoint */\n      tag_121\n      swap2\n      swap1\n      tag_120\n      jump\t// in\n    tag_121:\n        /* \"MasterChef.sol\":5429:5512  multiplier * sushiPerBlock * pool.allocPoint /... */\n      tag_122\n      swap2\n      swap1\n      tag_123\n      jump\t// in\n    tag_122:\n        /* \"MasterChef.sol\":5390:5512  uint256 sushiReward =... */\n      swap1\n      pop\n        /* \"MasterChef.sol\":5606:5614  lpSupply */\n      dup3\n        /* \"MasterChef.sol\":5600:5604  1e12 */\n      0xe8d4a51000\n        /* \"MasterChef.sol\":5586:5597  sushiReward */\n      dup3\n        /* \"MasterChef.sol\":5586:5604  sushiReward * 1e12 */\n      tag_124\n      swap2\n      swap1\n      tag_120\n      jump\t// in\n    tag_124:\n        /* \"MasterChef.sol\":5586:5614  sushiReward * 1e12 /lpSupply */\n      tag_125\n      swap2\n      swap1\n      tag_123\n      jump\t// in\n    tag_125:\n        /* \"MasterChef.sol\":5547:5563  accSushiPerShare */\n      dup5\n        /* \"MasterChef.sol\":5547:5629  accSushiPerShare + ( ... */\n      tag_126\n      swap2\n      swap1\n      tag_127\n      jump\t// in\n    tag_126:\n        /* \"MasterChef.sol\":5528:5629  accSushiPerShare = accSushiPerShare + ( ... */\n      swap4\n      pop\n        /* \"MasterChef.sol\":5273:5641  {... */\n      pop\n      pop\n        /* \"MasterChef.sol\":5215:5641  if (block.number > pool.lastRewardBlock && lpSupply != 0) {... */\n    tag_117:\n        /* \"MasterChef.sol\":5698:5702  user */\n      dup3\n        /* \"MasterChef.sol\":5698:5713  user.rewardDebt */\n      0x01\n      add\n      sload\n        /* \"MasterChef.sol\":5691:5695  1e12 */\n      0xe8d4a51000\n        /* \"MasterChef.sol\":5672:5688  accSushiPerShare */\n      dup4\n        /* \"MasterChef.sol\":5658:5662  user */\n      dup6\n        /* \"MasterChef.sol\":5658:5669  user.amount */\n      0x00\n      add\n      sload\n        /* \"MasterChef.sol\":5658:5688  user.amount * accSushiPerShare */\n      tag_128\n      swap2\n      swap1\n      tag_120\n      jump\t// in\n    tag_128:\n        /* \"MasterChef.sol\":5658:5695  user.amount * accSushiPerShare / 1e12 */\n      tag_129\n      swap2\n      swap1\n      tag_123\n      jump\t// in\n    tag_129:\n        /* \"MasterChef.sol\":5658:5713  user.amount * accSushiPerShare / 1e12 - user.rewardDebt */\n      tag_130\n      swap2\n      swap1\n      tag_131\n      jump\t// in\n    tag_130:\n        /* \"MasterChef.sol\":5651:5713  return user.amount * accSushiPerShare / 1e12 - user.rewardDebt */\n      swap5\n      pop\n      pop\n      pop\n      pop\n      pop\n        /* \"MasterChef.sol\":4858:5721  function pendingSushi(uint256 _pid, address _user)... */\n      swap3\n      swap2\n      pop\n      pop\n      jump\t// out\n        /* \"MasterChef.sol\":2137:2165  uint256 public bonusEndBlock */\n    tag_50:\n      sload(0x02)\n      dup2\n      jump\t// out\n        /* \"MasterChef.sol\":3520:4122  function add(... */\n    tag_55:\n        /* \"@openzeppelin/contracts/access/Ownable.sol\":1531:1544  _checkOwner() */\n      tag_133\n        /* \"@openzeppelin/contracts/access/Ownable.sol\":1531:1542  _checkOwner */\n      tag_134\n        /* \"@openzeppelin/contracts/access/Ownable.sol\":1531:1544  _checkOwner() */\n      jump\t// in\n    tag_133:\n        /* \"MasterChef.sol\":3655:3666  _withUpdate */\n      dup1\n        /* \"MasterChef.sol\":3651:3712  if (_withUpdate) {... */\n      iszero\n      tag_136\n      jumpi\n        /* \"MasterChef.sol\":3683:3700  massUpdatePools() */\n      tag_137\n        /* \"MasterChef.sol\":3683:3698  massUpdatePools */\n      tag_70\n        /* \"MasterChef.sol\":3683:3700  massUpdatePools() */\n      jump\t// in\n    tag_137:\n        /* \"MasterChef.sol\":3651:3712  if (_withUpdate) {... */\n    tag_136:\n        /* \"MasterChef.sol\":3722:3745  uint256 lastRewardBlock */\n      0x00\n        /* \"MasterChef.sol\":3776:3786  startBlock */\n      sload(0x07)\n        /* \"MasterChef.sol\":3761:3773  block.number */\n      number\n        /* \"MasterChef.sol\":3761:3786  block.number > startBlock */\n      gt\n        /* \"MasterChef.sol\":3761:3814  block.number > startBlock ? block.number : startBlock */\n      tag_138\n      jumpi\n        /* \"MasterChef.sol\":3804:3814  startBlock */\n      sload(0x07)\n        /* \"MasterChef.sol\":3761:3814  block.number > startBlock ? block.number : startBlock */\n      jump(tag_139)\n    tag_138:\n        /* \"MasterChef.sol\":3789:3801  block.number */\n      number\n        /* \"MasterChef.sol\":3761:3814  block.number > startBlock ? block.number : startBlock */\n    tag_139:\n        /* \"MasterChef.sol\":3722:3814  uint256 lastRewardBlock =... */\n      swap1\n      pop\n        /* \"MasterChef.sol\":3861:3872  _allocPoint */\n      dup4\n        /* \"MasterChef.sol\":3843:3858  totalAllocPoint */\n      sload(0x06)\n        /* \"MasterChef.sol\":3843:3872  totalAllocPoint + _allocPoint */\n      tag_140\n      swap2\n      swap1\n      tag_127\n      jump\t// in\n    tag_140:\n        /* \"MasterChef.sol\":3825:3840  totalAllocPoint */\n      0x06\n        /* \"MasterChef.sol\":3825:3872  totalAllocPoint = totalAllocPoint + _allocPoint */\n      dup2\n      swap1\n      sstore\n      pop\n        /* \"MasterChef.sol\":3883:3891  poolInfo */\n      0x04\n        /* \"MasterChef.sol\":3911:4103  PoolInfo({... */\n      mload(0x40)\n      dup1\n      0x80\n      add\n      0x40\n      mstore\n      dup1\n        /* \"MasterChef.sol\":3948:3956  _lpToken */\n      dup6\n        /* \"MasterChef.sol\":3911:4103  PoolInfo({... */\n      0xffffffffffffffffffffffffffffffffffffffff\n      and\n      dup2\n      mstore\n      0x20\n      add\n        /* \"MasterChef.sol\":3987:3998  _allocPoint */\n      dup7\n        /* \"MasterChef.sol\":3911:4103  PoolInfo({... */\n      dup2\n      mstore\n      0x20\n      add\n        /* \"MasterChef.sol\":4034:4049  lastRewardBlock */\n      dup4\n        /* \"MasterChef.sol\":3911:4103  PoolInfo({... */\n      dup2\n      mstore\n      0x20\n      add\n        /* \"MasterChef.sol\":4086:4087  0 */\n      0x00\n        /* \"MasterChef.sol\":3911:4103  PoolInfo({... */\n      dup2\n      mstore\n      pop\n        /* \"MasterChef.sol\":3883:4114  poolInfo.push(... */\n      swap1\n      dup1\n      0x01\n      dup2\n      sload\n      add\n      dup1\n      dup3\n      sstore\n      dup1\n      swap2\n      pop\n      pop\n      0x01\n      swap1\n      sub\n      swap1\n      0x00\n      mstore\n      keccak256(0x00, 0x20)\n      swap1\n      0x04\n      mul\n      add\n      0x00\n      swap1\n      swap2\n      swap1\n      swap2\n      swap1\n      swap2\n      pop\n      0x00\n      dup3\n      add\n      mload\n      dup2\n      0x00\n      add\n      exp(0x0100, 0x00)\n      dup2\n      sload\n      dup2\n      0xffffffffffffffffffffffffffffffffffffffff\n      mul\n      not\n      and\n      swap1\n      dup4\n      0xffffffffffffffffffffffffffffffffffffffff\n      and\n      mul\n      or\n      swap1\n      sstore\n      pop\n      0x20\n      dup3\n      add\n      mload\n      dup2\n      0x01\n      add\n      sstore\n      0x40\n      dup3\n      add\n      mload\n      dup2\n      0x02\n      add\n      sstore\n      0x60\n      dup3\n      add\n      mload\n      dup2\n      0x03\n      add\n      sstore\n      pop\n      pop\n        /* \"MasterChef.sol\":3640:4122  {... */\n      pop\n        /* \"MasterChef.sol\":3520:4122  function add(... */\n      pop\n      pop\n      pop\n      jump\t// out\n        /* \"MasterChef.sol\":7694:8377  function withdraw(uint256 _pid, uint256 _amount) public {... */\n    tag_59:\n        /* \"MasterChef.sol\":7761:7782  PoolInfo storage pool */\n      0x00\n        /* \"MasterChef.sol\":7785:7793  poolInfo */\n      0x04\n        /* \"MasterChef.sol\":7794:7798  _pid */\n      dup4\n        /* \"MasterChef.sol\":7785:7799  poolInfo[_pid] */\n      dup2\n      sload\n      dup2\n      lt\n      tag_143\n      jumpi\n      tag_144\n      tag_109\n      jump\t// in\n    tag_144:\n    tag_143:\n      swap1\n      0x00\n      mstore\n      keccak256(0x00, 0x20)\n      swap1\n      0x04\n      mul\n      add\n        /* \"MasterChef.sol\":7761:7799  PoolInfo storage pool = poolInfo[_pid] */\n      swap1\n      pop\n        /* \"MasterChef.sol\":7810:7831  UserInfo storage user */\n      0x00\n        /* \"MasterChef.sol\":7834:7842  userInfo */\n      0x05\n        /* \"MasterChef.sol\":7834:7848  userInfo[_pid] */\n      0x00\n        /* \"MasterChef.sol\":7843:7847  _pid */\n      dup6\n        /* \"MasterChef.sol\":7834:7848  userInfo[_pid] */\n      dup2\n      mstore\n      0x20\n      add\n      swap1\n      dup2\n      mstore\n      0x20\n      add\n      0x00\n      keccak256\n        /* \"MasterChef.sol\":7834:7860  userInfo[_pid][msg.sender] */\n      0x00\n        /* \"MasterChef.sol\":7849:7859  msg.sender */\n      caller\n        /* \"MasterChef.sol\":7834:7860  userInfo[_pid][msg.sender] */\n      0xffffffffffffffffffffffffffffffffffffffff\n      and\n      0xffffffffffffffffffffffffffffffffffffffff\n      and\n      dup2\n      mstore\n      0x20\n      add\n      swap1\n      dup2\n      mstore\n      0x20\n      add\n      0x00\n      keccak256\n        /* \"MasterChef.sol\":7810:7860  UserInfo storage user = userInfo[_pid][msg.sender] */\n      swap1\n      pop\n        /* \"MasterChef.sol\":7894:7901  _amount */\n      dup3\n        /* \"MasterChef.sol\":7879:7883  user */\n      dup2\n        /* \"MasterChef.sol\":7879:7890  user.amount */\n      0x00\n      add\n      sload\n        /* \"MasterChef.sol\":7879:7901  user.amount >= _amount */\n      lt\n      iszero\n        /* \"MasterChef.sol\":7871:7924  require(user.amount >= _amount, \"withdraw: not good\") */\n      tag_146\n      jumpi\n      mload(0x40)\n      0x08c379a000000000000000000000000000000000000000000000000000000000\n      dup2\n      mstore\n      0x04\n      add\n      tag_147\n      swap1\n      tag_148\n      jump\t// in\n    tag_147:\n      mload(0x40)\n      dup1\n      swap2\n      sub\n      swap1\n      revert\n    tag_146:\n        /* \"MasterChef.sol\":7935:7951  updatePool(_pid) */\n      tag_149\n        /* \"MasterChef.sol\":7946:7950  _pid */\n      dup5\n        /* \"MasterChef.sol\":7935:7945  updatePool */\n      tag_65\n        /* \"MasterChef.sol\":7935:7951  updatePool(_pid) */\n      jump\t// in\n    tag_149:\n        /* \"MasterChef.sol\":7962:7977  uint256 pending */\n      0x00\n        /* \"MasterChef.sol\":8056:8060  user */\n      dup2\n        /* \"MasterChef.sol\":8056:8071  user.rewardDebt */\n      0x01\n      add\n      sload\n        /* \"MasterChef.sol\":8030:8034  1e12 */\n      0xe8d4a51000\n        /* \"MasterChef.sol\":8007:8011  pool */\n      dup5\n        /* \"MasterChef.sol\":8007:8028  pool.accSushiPerShare */\n      0x03\n      add\n      sload\n        /* \"MasterChef.sol\":7993:7997  user */\n      dup5\n        /* \"MasterChef.sol\":7993:8004  user.amount */\n      0x00\n      add\n      sload\n        /* \"MasterChef.sol\":7993:8028  user.amount * pool.accSushiPerShare */\n      tag_150\n      swap2\n      swap1\n      tag_120\n      jump\t// in\n    tag_150:\n        /* \"MasterChef.sol\":7993:8034  user.amount * pool.accSushiPerShare /1e12 */\n      tag_151\n      swap2\n      swap1\n      tag_123\n      jump\t// in\n    tag_151:\n        /* \"MasterChef.sol\":7993:8071  user.amount * pool.accSushiPerShare /1e12  - ... */\n      tag_152\n      swap2\n      swap1\n      tag_131\n      jump\t// in\n    tag_152:\n        /* \"MasterChef.sol\":7962:8071  uint256 pending =... */\n      swap1\n      pop\n        /* \"MasterChef.sol\":8096:8134  safeSushiTransfer(msg.sender, pending) */\n      tag_153\n        /* \"MasterChef.sol\":8114:8124  msg.sender */\n      caller\n        /* \"MasterChef.sol\":8126:8133  pending */\n      dup3\n        /* \"MasterChef.sol\":8096:8113  safeSushiTransfer */\n      tag_154\n        /* \"MasterChef.sol\":8096:8134  safeSushiTransfer(msg.sender, pending) */\n      jump\t// in\n    tag_153:\n        /* \"MasterChef.sol\":8173:8180  _amount */\n      dup4\n        /* \"MasterChef.sol\":8159:8163  user */\n      dup3\n        /* \"MasterChef.sol\":8159:8170  user.amount */\n      0x00\n      add\n      sload\n        /* \"MasterChef.sol\":8159:8180  user.amount - _amount */\n      tag_155\n      swap2\n      swap1\n      tag_131\n      jump\t// in\n    tag_155:\n        /* \"MasterChef.sol\":8145:8149  user */\n      dup3\n        /* \"MasterChef.sol\":8145:8156  user.amount */\n      0x00\n      add\n        /* \"MasterChef.sol\":8145:8180  user.amount = user.amount - _amount */\n      dup2\n      swap1\n      sstore\n      pop\n        /* \"MasterChef.sol\":8247:8251  1e12 */\n      0xe8d4a51000\n        /* \"MasterChef.sol\":8223:8227  pool */\n      dup4\n        /* \"MasterChef.sol\":8223:8244  pool.accSushiPerShare */\n      0x03\n      add\n      sload\n        /* \"MasterChef.sol\":8209:8213  user */\n      dup4\n        /* \"MasterChef.sol\":8209:8220  user.amount */\n      0x00\n      add\n      sload\n        /* \"MasterChef.sol\":8209:8244  user.amount * pool.accSushiPerShare */\n      tag_156\n      swap2\n      swap1\n      tag_120\n      jump\t// in\n    tag_156:\n        /* \"MasterChef.sol\":8209:8251  user.amount * pool.accSushiPerShare / 1e12 */\n      tag_157\n      swap2\n      swap1\n      tag_123\n      jump\t// in\n    tag_157:\n        /* \"MasterChef.sol\":8191:8195  user */\n      dup3\n        /* \"MasterChef.sol\":8191:8206  user.rewardDebt */\n      0x01\n      add\n        /* \"MasterChef.sol\":8191:8251  user.rewardDebt = user.amount * pool.accSushiPerShare / 1e12 */\n      dup2\n      swap1\n      sstore\n      pop\n        /* \"MasterChef.sol\":8263:8318  pool.lpToken.safeTransfer(address(msg.sender), _amount) */\n      tag_158\n        /* \"MasterChef.sol\":8297:8307  msg.sender */\n      caller\n        /* \"MasterChef.sol\":8310:8317  _amount */\n      dup6\n        /* \"MasterChef.sol\":8263:8267  pool */\n      dup6\n        /* \"MasterChef.sol\":8263:8275  pool.lpToken */\n      0x00\n      add\n      0x00\n      swap1\n      sload\n      swap1\n      0x0100\n      exp\n      swap1\n      div\n      0xffffffffffffffffffffffffffffffffffffffff\n      and\n        /* \"MasterChef.sol\":8263:8288  pool.lpToken.safeTransfer */\n      0xffffffffffffffffffffffffffffffffffffffff\n      and\n      tag_159\n      swap1\n        /* \"MasterChef.sol\":8263:8318  pool.lpToken.safeTransfer(address(msg.sender), _amount) */\n      swap3\n      swap2\n      swap1\n      0xffffffff\n      and\n      jump\t// in\n    tag_158:\n        /* \"MasterChef.sol\":8355:8359  _pid */\n      dup5\n        /* \"MasterChef.sol\":8343:8353  msg.sender */\n      caller\n        /* \"MasterChef.sol\":8334:8369  Withdraw(msg.sender, _pid, _amount) */\n      0xffffffffffffffffffffffffffffffffffffffff\n      and\n      0xf279e6a1f5e320cca91135676d9cb6e44ca8a08c0b88342bcdb1144f6511b568\n        /* \"MasterChef.sol\":8361:8368  _amount */\n      dup7\n        /* \"MasterChef.sol\":8334:8369  Withdraw(msg.sender, _pid, _amount) */\n      mload(0x40)\n      tag_160\n      swap2\n      swap1\n      tag_30\n      jump\t// in\n    tag_160:\n      mload(0x40)\n      dup1\n      swap2\n      sub\n      swap1\n      log3\n        /* \"MasterChef.sol\":7750:8377  {... */\n      pop\n      pop\n      pop\n        /* \"MasterChef.sol\":7694:8377  function withdraw(uint256 _pid, uint256 _amount) public {... */\n      pop\n      pop\n      jump\t// out\n        /* \"MasterChef.sol\":2710:2735  uint256 public startBlock */\n    tag_61:\n      sload(0x07)\n      dup2\n      jump\t// out\n        /* \"MasterChef.sol\":6060:6841  function updatePool(uint256 _pid) public {... */\n    tag_65:\n        /* \"MasterChef.sol\":6112:6133  PoolInfo storage pool */\n      0x00\n        /* \"MasterChef.sol\":6136:6144  poolInfo */\n      0x04\n        /* \"MasterChef.sol\":6145:6149  _pid */\n      dup3\n        /* \"MasterChef.sol\":6136:6150  poolInfo[_pid] */\n      dup2\n      sload\n      dup2\n      lt\n      tag_162\n      jumpi\n      tag_163\n      tag_109\n      jump\t// in\n    tag_163:\n    tag_162:\n      swap1\n      0x00\n      mstore\n      keccak256(0x00, 0x20)\n      swap1\n      0x04\n      mul\n      add\n        /* \"MasterChef.sol\":6112:6150  PoolInfo storage pool = poolInfo[_pid] */\n      swap1\n      pop\n        /* \"MasterChef.sol\":6181:6185  pool */\n      dup1\n        /* \"MasterChef.sol\":6181:6201  pool.lastRewardBlock */\n      0x02\n      add\n      sload\n        /* \"MasterChef.sol\":6165:6177  block.number */\n      number\n        /* \"MasterChef.sol\":6165:6201  block.number <= pool.lastRewardBlock */\n      gt\n        /* \"MasterChef.sol\":6161:6236  if (block.number <= pool.lastRewardBlock) {... */\n      tag_165\n      jumpi\n        /* \"MasterChef.sol\":6218:6225  return; */\n      pop\n      jump(tag_161)\n        /* \"MasterChef.sol\":6161:6236  if (block.number <= pool.lastRewardBlock) {... */\n    tag_165:\n        /* \"MasterChef.sol\":6246:6262  uint256 lpSupply */\n      0x00\n        /* \"MasterChef.sol\":6265:6269  pool */\n      dup2\n        /* \"MasterChef.sol\":6265:6277  pool.lpToken */\n      0x00\n      add\n      0x00\n      swap1\n      sload\n      swap1\n      0x0100\n      exp\n      swap1\n      div\n      0xffffffffffffffffffffffffffffffffffffffff\n      and\n        /* \"MasterChef.sol\":6265:6287  pool.lpToken.balanceOf */\n      0xffffffffffffffffffffffffffffffffffffffff\n      and\n      0x70a08231\n        /* \"MasterChef.sol\":6296:6300  this */\n      address\n        /* \"MasterChef.sol\":6265:6302  pool.lpToken.balanceOf(address(this)) */\n      mload(0x40)\n      dup3\n      0xffffffff\n      and\n      0xe0\n      shl\n      dup2\n      mstore\n      0x04\n      add\n      tag_166\n      swap2\n      swap1\n      tag_83\n      jump\t// in\n    tag_166:\n      0x20\n      mload(0x40)\n      dup1\n      dup4\n      sub\n      dup2\n      dup7\n      gas\n      staticcall\n      iszero\n      dup1\n      iszero\n      tag_168\n      jumpi\n      returndatacopy(0x00, 0x00, returndatasize)\n      revert(0x00, returndatasize)\n    tag_168:\n      pop\n      pop\n      pop\n      pop\n      mload(0x40)\n      returndatasize\n      not(0x1f)\n      0x1f\n      dup3\n      add\n      and\n      dup3\n      add\n      dup1\n      0x40\n      mstore\n      pop\n      dup2\n      add\n      swap1\n      tag_169\n      swap2\n      swap1\n      tag_115\n      jump\t// in\n    tag_169:\n        /* \"MasterChef.sol\":6246:6302  uint256 lpSupply = pool.lpToken.balanceOf(address(this)) */\n      swap1\n      pop\n        /* \"MasterChef.sol\":6329:6330  0 */\n      0x00\n        /* \"MasterChef.sol\":6317:6325  lpSupply */\n      dup2\n        /* \"MasterChef.sol\":6317:6330  lpSupply == 0 */\n      sub\n        /* \"MasterChef.sol\":6313:6415  if (lpSupply == 0) {... */\n      tag_170\n      jumpi\n        /* \"MasterChef.sol\":6370:6382  block.number */\n      number\n        /* \"MasterChef.sol\":6347:6351  pool */\n      dup3\n        /* \"MasterChef.sol\":6347:6367  pool.lastRewardBlock */\n      0x02\n      add\n        /* \"MasterChef.sol\":6347:6382  pool.lastRewardBlock = block.number */\n      dup2\n      swap1\n      sstore\n      pop\n        /* \"MasterChef.sol\":6397:6404  return; */\n      pop\n      pop\n      jump(tag_161)\n        /* \"MasterChef.sol\":6313:6415  if (lpSupply == 0) {... */\n    tag_170:\n        /* \"MasterChef.sol\":6425:6443  uint256 multiplier */\n      0x00\n        /* \"MasterChef.sol\":6446:6495  getMultiplier(pool.lastRewardBlock, block.number) */\n      tag_171\n        /* \"MasterChef.sol\":6460:6464  pool */\n      dup4\n        /* \"MasterChef.sol\":6460:6480  pool.lastRewardBlock */\n      0x02\n      add\n      sload\n        /* \"MasterChef.sol\":6482:6494  block.number */\n      number\n        /* \"MasterChef.sol\":6446:6459  getMultiplier */\n      tag_86\n        /* \"MasterChef.sol\":6446:6495  getMultiplier(pool.lastRewardBlock, block.number) */\n      jump\t// in\n    tag_171:\n        /* \"MasterChef.sol\":6425:6495  uint256 multiplier = getMultiplier(pool.lastRewardBlock, block.number) */\n      swap1\n      pop\n        /* \"MasterChef.sol\":6506:6525  uint256 sushiReward */\n      0x00\n        /* \"MasterChef.sol\":6604:6619  totalAllocPoint */\n      sload(0x06)\n        /* \"MasterChef.sol\":6570:6574  pool */\n      dup5\n        /* \"MasterChef.sol\":6570:6585  pool.allocPoint */\n      0x01\n      add\n      sload\n        /* \"MasterChef.sol\":6554:6567  sushiPerBlock */\n      sload(0x03)\n        /* \"MasterChef.sol\":6541:6551  multiplier */\n      dup5\n        /* \"MasterChef.sol\":6541:6567  multiplier * sushiPerBlock */\n      tag_172\n      swap2\n      swap1\n      tag_120\n      jump\t// in\n    tag_172:\n        /* \"MasterChef.sol\":6541:6585  multiplier * sushiPerBlock * pool.allocPoint */\n      tag_173\n      swap2\n      swap1\n      tag_120\n      jump\t// in\n    tag_173:\n        /* \"MasterChef.sol\":6541:6619  multiplier * sushiPerBlock * pool.allocPoint/... */\n      tag_174\n      swap2\n      swap1\n      tag_123\n      jump\t// in\n    tag_174:\n        /* \"MasterChef.sol\":6506:6619  uint256 sushiReward =... */\n      swap1\n      pop\n        /* \"MasterChef.sol\":6633:6638  sushi */\n      0x01\n      0x00\n      swap1\n      sload\n      swap1\n      0x0100\n      exp\n      swap1\n      div\n      0xffffffffffffffffffffffffffffffffffffffff\n      and\n        /* \"MasterChef.sol\":6633:6643  sushi.mint */\n      0xffffffffffffffffffffffffffffffffffffffff\n      and\n      0x40c10f19\n        /* \"MasterChef.sol\":6652:6656  this */\n      address\n        /* \"MasterChef.sol\":6659:6670  sushiReward */\n      dup4\n        /* \"MasterChef.sol\":6633:6671  sushi.mint(address(this), sushiReward) */\n      mload(0x40)\n      dup4\n      0xffffffff\n      and\n      0xe0\n      shl\n      dup2\n      mstore\n      0x04\n      add\n      tag_175\n      swap3\n      swap2\n      swap1\n      tag_176\n      jump\t// in\n    tag_175:\n      0x00\n      mload(0x40)\n      dup1\n      dup4\n      sub\n      dup2\n      0x00\n      dup8\n      dup1\n      extcodesize\n      iszero\n      dup1\n      iszero\n      tag_177\n      jumpi\n      revert(0x00, 0x00)\n    tag_177:\n      pop\n      gas\n      call\n      iszero\n      dup1\n      iszero\n      tag_179\n      jumpi\n      returndatacopy(0x00, 0x00, returndatasize)\n      revert(0x00, returndatasize)\n    tag_179:\n      pop\n      pop\n      pop\n      pop\n        /* \"MasterChef.sol\":6776:6784  lpSupply */\n      dup3\n        /* \"MasterChef.sol\":6770:6774  1e12 */\n      0xe8d4a51000\n        /* \"MasterChef.sol\":6756:6767  sushiReward */\n      dup3\n        /* \"MasterChef.sol\":6756:6774  sushiReward * 1e12 */\n      tag_180\n      swap2\n      swap1\n      tag_120\n      jump\t// in\n    tag_180:\n        /* \"MasterChef.sol\":6756:6784  sushiReward * 1e12 /lpSupply */\n      tag_181\n      swap2\n      swap1\n      tag_123\n      jump\t// in\n    tag_181:\n        /* \"MasterChef.sol\":6716:6720  pool */\n      dup5\n        /* \"MasterChef.sol\":6716:6737  pool.accSushiPerShare */\n      0x03\n      add\n      sload\n        /* \"MasterChef.sol\":6716:6785  pool.accSushiPerShare + ... */\n      tag_182\n      swap2\n      swap1\n      tag_127\n      jump\t// in\n    tag_182:\n        /* \"MasterChef.sol\":6692:6696  pool */\n      dup5\n        /* \"MasterChef.sol\":6692:6713  pool.accSushiPerShare */\n      0x03\n      add\n        /* \"MasterChef.sol\":6692:6785  pool.accSushiPerShare = pool.accSushiPerShare + ... */\n      dup2\n      swap1\n      sstore\n      pop\n        /* \"MasterChef.sol\":6821:6833  block.number */\n      number\n        /* \"MasterChef.sol\":6798:6802  pool */\n      dup5\n        /* \"MasterChef.sol\":6798:6818  pool.lastRewardBlock */\n      0x02\n      add\n        /* \"MasterChef.sol\":6798:6833  pool.lastRewardBlock = block.number */\n      dup2\n      swap1\n      sstore\n      pop\n        /* \"MasterChef.sol\":6101:6841  {... */\n      pop\n      pop\n      pop\n      pop\n        /* \"MasterChef.sol\":6060:6841  function updatePool(uint256 _pid) public {... */\n    tag_161:\n      pop\n      jump\t// out\n        /* \"MasterChef.sol\":8448:8804  function emergencyWithdraw(uint256 _pid) public {... */\n    tag_68:\n        /* \"MasterChef.sol\":8507:8528  PoolInfo storage pool */\n      0x00\n        /* \"MasterChef.sol\":8531:8539  poolInfo */\n      0x04\n        /* \"MasterChef.sol\":8540:8544  _pid */\n      dup3\n        /* \"MasterChef.sol\":8531:8545  poolInfo[_pid] */\n      dup2\n      sload\n      dup2\n      lt\n      tag_184\n      jumpi\n      tag_185\n      tag_109\n      jump\t// in\n    tag_185:\n    tag_184:\n      swap1\n      0x00\n      mstore\n      keccak256(0x00, 0x20)\n      swap1\n      0x04\n      mul\n      add\n        /* \"MasterChef.sol\":8507:8545  PoolInfo storage pool = poolInfo[_pid] */\n      swap1\n      pop\n        /* \"MasterChef.sol\":8556:8577  UserInfo storage user */\n      0x00\n        /* \"MasterChef.sol\":8580:8588  userInfo */\n      0x05\n        /* \"MasterChef.sol\":8580:8594  userInfo[_pid] */\n      0x00\n        /* \"MasterChef.sol\":8589:8593  _pid */\n      dup5\n        /* \"MasterChef.sol\":8580:8594  userInfo[_pid] */\n      dup2\n      mstore\n      0x20\n      add\n      swap1\n      dup2\n      mstore\n      0x20\n      add\n      0x00\n      keccak256\n        /* \"MasterChef.sol\":8580:8606  userInfo[_pid][msg.sender] */\n      0x00\n        /* \"MasterChef.sol\":8595:8605  msg.sender */\n      caller\n        /* \"MasterChef.sol\":8580:8606  userInfo[_pid][msg.sender] */\n      0xffffffffffffffffffffffffffffffffffffffff\n      and\n      0xffffffffffffffffffffffffffffffffffffffff\n      and\n      dup2\n      mstore\n      0x20\n      add\n      swap1\n      dup2\n      mstore\n      0x20\n      add\n      0x00\n      keccak256\n        /* \"MasterChef.sol\":8556:8606  UserInfo storage user = userInfo[_pid][msg.sender] */\n      swap1\n      pop\n        /* \"MasterChef.sol\":8617:8676  pool.lpToken.safeTransfer(address(msg.sender), user.amount) */\n      tag_187\n        /* \"MasterChef.sol\":8651:8661  msg.sender */\n      caller\n        /* \"MasterChef.sol\":8664:8668  user */\n      dup3\n        /* \"MasterChef.sol\":8664:8675  user.amount */\n      0x00\n      add\n      sload\n        /* \"MasterChef.sol\":8617:8621  pool */\n      dup5\n        /* \"MasterChef.sol\":8617:8629  pool.lpToken */\n      0x00\n      add\n      0x00\n      swap1\n      sload\n      swap1\n      0x0100\n      exp\n      swap1\n      div\n      0xffffffffffffffffffffffffffffffffffffffff\n      and\n        /* \"MasterChef.sol\":8617:8642  pool.lpToken.safeTransfer */\n      0xffffffffffffffffffffffffffffffffffffffff\n      and\n      tag_159\n      swap1\n        /* \"MasterChef.sol\":8617:8676  pool.lpToken.safeTransfer(address(msg.sender), user.amount) */\n      swap3\n      swap2\n      swap1\n      0xffffffff\n      and\n      jump\t// in\n    tag_187:\n        /* \"MasterChef.sol\":8722:8726  _pid */\n      dup3\n        /* \"MasterChef.sol\":8710:8720  msg.sender */\n      caller\n        /* \"MasterChef.sol\":8692:8740  EmergencyWithdraw(msg.sender, _pid, user.amount) */\n      0xffffffffffffffffffffffffffffffffffffffff\n      and\n      0xbb757047c2b5f3974fe26b7c10f732e7bce710b0952a71082702781e62ae0595\n        /* \"MasterChef.sol\":8728:8732  user */\n      dup4\n        /* \"MasterChef.sol\":8728:8739  user.amount */\n      0x00\n      add\n      sload\n        /* \"MasterChef.sol\":8692:8740  EmergencyWithdraw(msg.sender, _pid, user.amount) */\n      mload(0x40)\n      tag_188\n      swap2\n      swap1\n      tag_30\n      jump\t// in\n    tag_188:\n      mload(0x40)\n      dup1\n      swap2\n      sub\n      swap1\n      log3\n        /* \"MasterChef.sol\":8765:8766  0 */\n      0x00\n        /* \"MasterChef.sol\":8751:8755  user */\n      dup2\n        /* \"MasterChef.sol\":8751:8762  user.amount */\n      0x00\n      add\n        /* \"MasterChef.sol\":8751:8766  user.amount = 0 */\n      dup2\n      swap1\n      sstore\n      pop\n        /* \"MasterChef.sol\":8795:8796  0 */\n      0x00\n        /* \"MasterChef.sol\":8777:8781  user */\n      dup2\n        /* \"MasterChef.sol\":8777:8792  user.rewardDebt */\n      0x01\n      add\n        /* \"MasterChef.sol\":8777:8796  user.rewardDebt = 0 */\n      dup2\n      swap1\n      sstore\n      pop\n        /* \"MasterChef.sol\":8496:8804  {... */\n      pop\n      pop\n        /* \"MasterChef.sol\":8448:8804  function emergencyWithdraw(uint256 _pid) public {... */\n      pop\n      jump\t// out\n        /* \"MasterChef.sol\":5804:5984  function massUpdatePools() public {... */\n    tag_70:\n        /* \"MasterChef.sol\":5849:5863  uint256 length */\n      0x00\n        /* \"MasterChef.sol\":5866:5874  poolInfo */\n      0x04\n        /* \"MasterChef.sol\":5866:5881  poolInfo.length */\n      dup1\n      sload\n      swap1\n      pop\n        /* \"MasterChef.sol\":5849:5881  uint256 length = poolInfo.length */\n      swap1\n      pop\n        /* \"MasterChef.sol\":5897:5908  uint256 pid */\n      0x00\n        /* \"MasterChef.sol\":5911:5912  0 */\n      0x00\n        /* \"MasterChef.sol\":5897:5912  uint256 pid = 0 */\n      swap1\n      pop\n        /* \"MasterChef.sol\":5892:5977  for (uint256 pid = 0; pid < length; ++pid) {... */\n    tag_190:\n        /* \"MasterChef.sol\":5920:5926  length */\n      dup2\n        /* \"MasterChef.sol\":5914:5917  pid */\n      dup2\n        /* \"MasterChef.sol\":5914:5926  pid < length */\n      lt\n        /* \"MasterChef.sol\":5892:5977  for (uint256 pid = 0; pid < length; ++pid) {... */\n      iszero\n      tag_191\n      jumpi\n        /* \"MasterChef.sol\":5950:5965  updatePool(pid) */\n      tag_193\n        /* \"MasterChef.sol\":5961:5964  pid */\n      dup2\n        /* \"MasterChef.sol\":5950:5960  updatePool */\n      tag_65\n        /* \"MasterChef.sol\":5950:5965  updatePool(pid) */\n      jump\t// in\n    tag_193:\n        /* \"MasterChef.sol\":5928:5933  ++pid */\n      dup1\n      0x01\n      add\n      swap1\n      pop\n        /* \"MasterChef.sol\":5892:5977  for (uint256 pid = 0; pid < length; ++pid) {... */\n      jump(tag_190)\n    tag_191:\n      pop\n        /* \"MasterChef.sol\":5838:5984  {... */\n      pop\n        /* \"MasterChef.sol\":5804:5984  function massUpdatePools() public {... */\n      jump\t// out\n        /* \"MasterChef.sol\":4219:4565  function set(... */\n    tag_74:\n        /* \"@openzeppelin/contracts/access/Ownable.sol\":1531:1544  _checkOwner() */\n      tag_195\n        /* \"@openzeppelin/contracts/access/Ownable.sol\":1531:1542  _checkOwner */\n      tag_134\n        /* \"@openzeppelin/contracts/access/Ownable.sol\":1531:1544  _checkOwner() */\n      jump\t// in\n    tag_195:\n        /* \"MasterChef.sol\":4351:4362  _withUpdate */\n      dup1\n        /* \"MasterChef.sol\":4347:4408  if (_withUpdate) {... */\n      iszero\n      tag_197\n      jumpi\n        /* \"MasterChef.sol\":4379:4396  massUpdatePools() */\n      tag_198\n        /* \"MasterChef.sol\":4379:4394  massUpdatePools */\n      tag_70\n        /* \"MasterChef.sol\":4379:4396  massUpdatePools() */\n      jump\t// in\n    tag_198:\n        /* \"MasterChef.sol\":4347:4408  if (_withUpdate) {... */\n    tag_197:\n        /* \"MasterChef.sol\":4496:4507  _allocPoint */\n      dup2\n        /* \"MasterChef.sol\":4454:4462  poolInfo */\n      0x04\n        /* \"MasterChef.sol\":4463:4467  _pid */\n      dup5\n        /* \"MasterChef.sol\":4454:4468  poolInfo[_pid] */\n      dup2\n      sload\n      dup2\n      lt\n      tag_199\n      jumpi\n      tag_200\n      tag_109\n      jump\t// in\n    tag_200:\n    tag_199:\n      swap1\n      0x00\n      mstore\n      keccak256(0x00, 0x20)\n      swap1\n      0x04\n      mul\n      add\n        /* \"MasterChef.sol\":4454:4479  poolInfo[_pid].allocPoint */\n      0x01\n      add\n      sload\n        /* \"MasterChef.sol\":4436:4451  totalAllocPoint */\n      sload(0x06)\n        /* \"MasterChef.sol\":4436:4479  totalAllocPoint - poolInfo[_pid].allocPoint */\n      tag_202\n      swap2\n      swap1\n      tag_131\n      jump\t// in\n    tag_202:\n        /* \"MasterChef.sol\":4436:4507  totalAllocPoint - poolInfo[_pid].allocPoint + ... */\n      tag_203\n      swap2\n      swap1\n      tag_127\n      jump\t// in\n    tag_203:\n        /* \"MasterChef.sol\":4418:4433  totalAllocPoint */\n      0x06\n        /* \"MasterChef.sol\":4418:4507  totalAllocPoint = totalAllocPoint - poolInfo[_pid].allocPoint + ... */\n      dup2\n      swap1\n      sstore\n      pop\n        /* \"MasterChef.sol\":4546:4557  _allocPoint */\n      dup2\n        /* \"MasterChef.sol\":4518:4526  poolInfo */\n      0x04\n        /* \"MasterChef.sol\":4527:4531  _pid */\n      dup5\n        /* \"MasterChef.sol\":4518:4532  poolInfo[_pid] */\n      dup2\n      sload\n      dup2\n      lt\n      tag_204\n      jumpi\n      tag_205\n      tag_109\n      jump\t// in\n    tag_205:\n    tag_204:\n      swap1\n      0x00\n      mstore\n      keccak256(0x00, 0x20)\n      swap1\n      0x04\n      mul\n      add\n        /* \"MasterChef.sol\":4518:4543  poolInfo[_pid].allocPoint */\n      0x01\n      add\n        /* \"MasterChef.sol\":4518:4557  poolInfo[_pid].allocPoint = _allocPoint */\n      dup2\n      swap1\n      sstore\n      pop\n        /* \"MasterChef.sol\":4219:4565  function set(... */\n      pop\n      pop\n      pop\n      jump\t// out\n        /* \"@openzeppelin/contracts/access/Ownable.sol\":2293:2394  function renounceOwnership() public virtual onlyOwner {... */\n    tag_76:\n        /* \"@openzeppelin/contracts/access/Ownable.sol\":1531:1544  _checkOwner() */\n      tag_208\n        /* \"@openzeppelin/contracts/access/Ownable.sol\":1531:1542  _checkOwner */\n      tag_134\n        /* \"@openzeppelin/contracts/access/Ownable.sol\":1531:1544  _checkOwner() */\n      jump\t// in\n    tag_208:\n        /* \"@openzeppelin/contracts/access/Ownable.sol\":2357:2387  _transferOwnership(address(0)) */\n      tag_210\n        /* \"@openzeppelin/contracts/access/Ownable.sol\":2384:2385  0 */\n      0x00\n        /* \"@openzeppelin/contracts/access/Ownable.sol\":2357:2375  _transferOwnership */\n      tag_211\n        /* \"@openzeppelin/contracts/access/Ownable.sol\":2357:2387  _transferOwnership(address(0)) */\n      jump\t// in\n    tag_210:\n        /* \"@openzeppelin/contracts/access/Ownable.sol\":2293:2394  function renounceOwnership() public virtual onlyOwner {... */\n      jump\t// out\n        /* \"MasterChef.sol\":2296:2341  uint256 public constant BONUS_MULTIPLIER = 10 */\n    tag_78:\n        /* \"MasterChef.sol\":2339:2341  10 */\n      0x0a\n        /* \"MasterChef.sol\":2296:2341  uint256 public constant BONUS_MULTIPLIER = 10 */\n      dup2\n      jump\t// out\n        /* \"@openzeppelin/contracts/access/Ownable.sol\":1638:1723  function owner() public view virtual returns (address) {... */\n    tag_81:\n        /* \"@openzeppelin/contracts/access/Ownable.sol\":1684:1691  address */\n      0x00\n        /* \"@openzeppelin/contracts/access/Ownable.sol\":1710:1716  _owner */\n      0x00\n      0x00\n      swap1\n      sload\n      swap1\n      0x0100\n      exp\n      swap1\n      div\n      0xffffffffffffffffffffffffffffffffffffffff\n      and\n        /* \"@openzeppelin/contracts/access/Ownable.sol\":1703:1716  return _owner */\n      swap1\n      pop\n        /* \"@openzeppelin/contracts/access/Ownable.sol\":1638:1723  function owner() public view virtual returns (address) {... */\n      swap1\n      jump\t// out\n        /* \"MasterChef.sol\":4643:4793  function getMultiplier(uint256 _from, uint256 _to)... */\n    tag_86:\n        /* \"MasterChef.sol\":4742:4749  uint256 */\n      0x00\n        /* \"MasterChef.sol\":4780:4785  _from */\n      dup3\n        /* \"MasterChef.sol\":4774:4777  _to */\n      dup3\n        /* \"MasterChef.sol\":4774:4785  _to - _from */\n      tag_214\n      swap2\n      swap1\n      tag_131\n      jump\t// in\n    tag_214:\n        /* \"MasterChef.sol\":4767:4785  return _to - _from */\n      swap1\n      pop\n        /* \"MasterChef.sol\":4643:4793  function getMultiplier(uint256 _from, uint256 _to)... */\n      swap3\n      swap2\n      pop\n      pop\n      jump\t// out\n        /* \"MasterChef.sol\":2459:2523  mapping(uint256 => mapping(address => UserInfo)) public userInfo */\n    tag_90:\n      mstore(0x20, 0x05)\n      dup2\n      0x00\n      mstore\n      mstore(0x20, keccak256(0x00, 0x40))\n      dup1\n      0x00\n      mstore\n      keccak256(0x00, 0x40)\n      0x00\n      swap2\n      pop\n      swap2\n      pop\n      pop\n      dup1\n      0x00\n      add\n      sload\n      swap1\n      dup1\n      0x01\n      add\n      sload\n      swap1\n      pop\n      dup3\n      jump\t// out\n        /* \"MasterChef.sol\":2212:2240  uint256 public sushiPerBlock */\n    tag_94:\n      sload(0x03)\n      dup2\n      jump\t// out\n        /* \"MasterChef.sol\":6911:7642  function deposit(uint256 _pid, uint256 _amount) public {... */\n    tag_98:\n        /* \"MasterChef.sol\":6977:6998  PoolInfo storage pool */\n      0x00\n        /* \"MasterChef.sol\":7001:7009  poolInfo */\n      0x04\n        /* \"MasterChef.sol\":7010:7014  _pid */\n      dup4\n        /* \"MasterChef.sol\":7001:7015  poolInfo[_pid] */\n      dup2\n      sload\n      dup2\n      lt\n      tag_216\n      jumpi\n      tag_217\n      tag_109\n      jump\t// in\n    tag_217:\n    tag_216:\n      swap1\n      0x00\n      mstore\n      keccak256(0x00, 0x20)\n      swap1\n      0x04\n      mul\n      add\n        /* \"MasterChef.sol\":6977:7015  PoolInfo storage pool = poolInfo[_pid] */\n      swap1\n      pop\n        /* \"MasterChef.sol\":7026:7047  UserInfo storage user */\n      0x00\n        /* \"MasterChef.sol\":7050:7058  userInfo */\n      0x05\n        /* \"MasterChef.sol\":7050:7064  userInfo[_pid] */\n      0x00\n        /* \"MasterChef.sol\":7059:7063  _pid */\n      dup6\n        /* \"MasterChef.sol\":7050:7064  userInfo[_pid] */\n      dup2\n      mstore\n      0x20\n      add\n      swap1\n      dup2\n      mstore\n      0x20\n      add\n      0x00\n      keccak256\n        /* \"MasterChef.sol\":7050:7076  userInfo[_pid][msg.sender] */\n      0x00\n        /* \"MasterChef.sol\":7065:7075  msg.sender */\n      caller\n        /* \"MasterChef.sol\":7050:7076  userInfo[_pid][msg.sender] */\n      0xffffffffffffffffffffffffffffffffffffffff\n      and\n      0xffffffffffffffffffffffffffffffffffffffff\n      and\n      dup2\n      mstore\n      0x20\n      add\n      swap1\n      dup2\n      mstore\n      0x20\n      add\n      0x00\n      keccak256\n        /* \"MasterChef.sol\":7026:7076  UserInfo storage user = userInfo[_pid][msg.sender] */\n      swap1\n      pop\n        /* \"MasterChef.sol\":7087:7103  updatePool(_pid) */\n      tag_219\n        /* \"MasterChef.sol\":7098:7102  _pid */\n      dup5\n        /* \"MasterChef.sol\":7087:7097  updatePool */\n      tag_65\n        /* \"MasterChef.sol\":7087:7103  updatePool(_pid) */\n      jump\t// in\n    tag_219:\n        /* \"MasterChef.sol\":7132:7133  0 */\n      0x00\n        /* \"MasterChef.sol\":7118:7122  user */\n      dup2\n        /* \"MasterChef.sol\":7118:7129  user.amount */\n      0x00\n      add\n      sload\n        /* \"MasterChef.sol\":7118:7133  user.amount > 0 */\n      gt\n        /* \"MasterChef.sol\":7114:7332  if (user.amount > 0) {... */\n      iszero\n      tag_220\n      jumpi\n        /* \"MasterChef.sol\":7150:7165  uint256 pending */\n      0x00\n        /* \"MasterChef.sol\":7251:7255  user */\n      dup2\n        /* \"MasterChef.sol\":7251:7266  user.rewardDebt */\n      0x01\n      add\n      sload\n        /* \"MasterChef.sol\":7222:7226  1e12 */\n      0xe8d4a51000\n        /* \"MasterChef.sol\":7199:7203  pool */\n      dup5\n        /* \"MasterChef.sol\":7199:7220  pool.accSushiPerShare */\n      0x03\n      add\n      sload\n        /* \"MasterChef.sol\":7185:7189  user */\n      dup5\n        /* \"MasterChef.sol\":7185:7196  user.amount */\n      0x00\n      add\n      sload\n        /* \"MasterChef.sol\":7185:7220  user.amount * pool.accSushiPerShare */\n      tag_221\n      swap2\n      swap1\n      tag_120\n      jump\t// in\n    tag_221:\n        /* \"MasterChef.sol\":7185:7226  user.amount * pool.accSushiPerShare /1e12 */\n      tag_222\n      swap2\n      swap1\n      tag_123\n      jump\t// in\n    tag_222:\n        /* \"MasterChef.sol\":7185:7266  user.amount * pool.accSushiPerShare /1e12 - ... */\n      tag_223\n      swap2\n      swap1\n      tag_131\n      jump\t// in\n    tag_223:\n        /* \"MasterChef.sol\":7150:7266  uint256 pending =... */\n      swap1\n      pop\n        /* \"MasterChef.sol\":7282:7320  safeSushiTransfer(msg.sender, pending) */\n      tag_224\n        /* \"MasterChef.sol\":7300:7310  msg.sender */\n      caller\n        /* \"MasterChef.sol\":7312:7319  pending */\n      dup3\n        /* \"MasterChef.sol\":7282:7299  safeSushiTransfer */\n      tag_154\n        /* \"MasterChef.sol\":7282:7320  safeSushiTransfer(msg.sender, pending) */\n      jump\t// in\n    tag_224:\n        /* \"MasterChef.sol\":7135:7332  {... */\n      pop\n        /* \"MasterChef.sol\":7114:7332  if (user.amount > 0) {... */\n    tag_220:\n        /* \"MasterChef.sol\":7342:7466  pool.lpToken.safeTransferFrom(... */\n      tag_225\n        /* \"MasterChef.sol\":7394:7404  msg.sender */\n      caller\n        /* \"MasterChef.sol\":7428:7432  this */\n      address\n        /* \"MasterChef.sol\":7448:7455  _amount */\n      dup6\n        /* \"MasterChef.sol\":7342:7346  pool */\n      dup6\n        /* \"MasterChef.sol\":7342:7354  pool.lpToken */\n      0x00\n      add\n      0x00\n      swap1\n      sload\n      swap1\n      0x0100\n      exp\n      swap1\n      div\n      0xffffffffffffffffffffffffffffffffffffffff\n      and\n        /* \"MasterChef.sol\":7342:7371  pool.lpToken.safeTransferFrom */\n      0xffffffffffffffffffffffffffffffffffffffff\n      and\n      tag_226\n      swap1\n        /* \"MasterChef.sol\":7342:7466  pool.lpToken.safeTransferFrom(... */\n      swap4\n      swap3\n      swap2\n      swap1\n      0xffffffff\n      and\n      jump\t// in\n    tag_225:\n        /* \"MasterChef.sol\":7505:7512  _amount */\n      dup3\n        /* \"MasterChef.sol\":7491:7495  user */\n      dup2\n        /* \"MasterChef.sol\":7491:7502  user.amount */\n      0x00\n      add\n      sload\n        /* \"MasterChef.sol\":7491:7512  user.amount + _amount */\n      tag_227\n      swap2\n      swap1\n      tag_127\n      jump\t// in\n    tag_227:\n        /* \"MasterChef.sol\":7477:7481  user */\n      dup2\n        /* \"MasterChef.sol\":7477:7488  user.amount */\n      0x00\n      add\n        /* \"MasterChef.sol\":7477:7512  user.amount = user.amount + _amount */\n      dup2\n      swap1\n      sstore\n      pop\n        /* \"MasterChef.sol\":7579:7583  1e12 */\n      0xe8d4a51000\n        /* \"MasterChef.sol\":7555:7559  pool */\n      dup3\n        /* \"MasterChef.sol\":7555:7576  pool.accSushiPerShare */\n      0x03\n      add\n      sload\n        /* \"MasterChef.sol\":7541:7545  user */\n      dup3\n        /* \"MasterChef.sol\":7541:7552  user.amount */\n      0x00\n      add\n      sload\n        /* \"MasterChef.sol\":7541:7576  user.amount * pool.accSushiPerShare */\n      tag_228\n      swap2\n      swap1\n      tag_120\n      jump\t// in\n    tag_228:\n        /* \"MasterChef.sol\":7541:7583  user.amount * pool.accSushiPerShare / 1e12 */\n      tag_229\n      swap2\n      swap1\n      tag_123\n      jump\t// in\n    tag_229:\n        /* \"MasterChef.sol\":7523:7527  user */\n      dup2\n        /* \"MasterChef.sol\":7523:7538  user.rewardDebt */\n      0x01\n      add\n        /* \"MasterChef.sol\":7523:7583  user.rewardDebt = user.amount * pool.accSushiPerShare / 1e12 */\n      dup2\n      swap1\n      sstore\n      pop\n        /* \"MasterChef.sol\":7620:7624  _pid */\n      dup4\n        /* \"MasterChef.sol\":7608:7618  msg.sender */\n      caller\n        /* \"MasterChef.sol\":7600:7634  Deposit(msg.sender, _pid, _amount) */\n      0xffffffffffffffffffffffffffffffffffffffff\n      and\n      0x90890809c654f11d6e72a28fa60149770a0d11ec6c92319d6ceb2bb0a4ea1a15\n        /* \"MasterChef.sol\":7626:7633  _amount */\n      dup6\n        /* \"MasterChef.sol\":7600:7634  Deposit(msg.sender, _pid, _amount) */\n      mload(0x40)\n      tag_230\n      swap2\n      swap1\n      tag_30\n      jump\t// in\n    tag_230:\n      mload(0x40)\n      dup1\n      swap2\n      sub\n      swap1\n      log3\n        /* \"MasterChef.sol\":6966:7642  {... */\n      pop\n      pop\n        /* \"MasterChef.sol\":6911:7642  function deposit(uint256 _pid, uint256 _amount) public {... */\n      pop\n      pop\n      jump\t// out\n        /* \"@openzeppelin/contracts/access/Ownable.sol\":2543:2758  function transferOwnership(address newOwner) public virtual onlyOwner {... */\n    tag_102:\n        /* \"@openzeppelin/contracts/access/Ownable.sol\":1531:1544  _checkOwner() */\n      tag_232\n        /* \"@openzeppelin/contracts/access/Ownable.sol\":1531:1542  _checkOwner */\n      tag_134\n        /* \"@openzeppelin/contracts/access/Ownable.sol\":1531:1544  _checkOwner() */\n      jump\t// in\n    tag_232:\n        /* \"@openzeppelin/contracts/access/Ownable.sol\":2647:2648  0 */\n      0x00\n        /* \"@openzeppelin/contracts/access/Ownable.sol\":2627:2649  newOwner == address(0) */\n      0xffffffffffffffffffffffffffffffffffffffff\n      and\n        /* \"@openzeppelin/contracts/access/Ownable.sol\":2627:2635  newOwner */\n      dup2\n        /* \"@openzeppelin/contracts/access/Ownable.sol\":2627:2649  newOwner == address(0) */\n      0xffffffffffffffffffffffffffffffffffffffff\n      and\n      sub\n        /* \"@openzeppelin/contracts/access/Ownable.sol\":2623:2714  if (newOwner == address(0)) {... */\n      tag_234\n      jumpi\n        /* \"@openzeppelin/contracts/access/Ownable.sol\":2700:2701  0 */\n      0x00\n        /* \"@openzeppelin/contracts/access/Ownable.sol\":2672:2703  OwnableInvalidOwner(address(0)) */\n      mload(0x40)\n      0x1e4fbdf700000000000000000000000000000000000000000000000000000000\n      dup2\n      mstore\n      0x04\n      add\n      tag_235\n      swap2\n      swap1\n      tag_83\n      jump\t// in\n    tag_235:\n      mload(0x40)\n      dup1\n      swap2\n      sub\n      swap1\n      revert\n        /* \"@openzeppelin/contracts/access/Ownable.sol\":2623:2714  if (newOwner == address(0)) {... */\n    tag_234:\n        /* \"@openzeppelin/contracts/access/Ownable.sol\":2723:2751  _transferOwnership(newOwner) */\n      tag_236\n        /* \"@openzeppelin/contracts/access/Ownable.sol\":2742:2750  newOwner */\n      dup2\n        /* \"@openzeppelin/contracts/access/Ownable.sol\":2723:2741  _transferOwnership */\n      tag_211\n        /* \"@openzeppelin/contracts/access/Ownable.sol\":2723:2751  _transferOwnership(newOwner) */\n      jump\t// in\n    tag_236:\n        /* \"@openzeppelin/contracts/access/Ownable.sol\":2543:2758  function transferOwnership(address newOwner) public virtual onlyOwner {... */\n      pop\n      jump\t// out\n        /* \"@openzeppelin/contracts/access/Ownable.sol\":1796:1958  function _checkOwner() internal view virtual {... */\n    tag_134:\n        /* \"@openzeppelin/contracts/access/Ownable.sol\":1866:1878  _msgSender() */\n      tag_238\n        /* \"@openzeppelin/contracts/access/Ownable.sol\":1866:1876  _msgSender */\n      tag_239\n        /* \"@openzeppelin/contracts/access/Ownable.sol\":1866:1878  _msgSender() */\n      jump\t// in\n    tag_238:\n        /* \"@openzeppelin/contracts/access/Ownable.sol\":1855:1878  owner() != _msgSender() */\n      0xffffffffffffffffffffffffffffffffffffffff\n      and\n        /* \"@openzeppelin/contracts/access/Ownable.sol\":1855:1862  owner() */\n      tag_240\n        /* \"@openzeppelin/contracts/access/Ownable.sol\":1855:1860  owner */\n      tag_81\n        /* \"@openzeppelin/contracts/access/Ownable.sol\":1855:1862  owner() */\n      jump\t// in\n    tag_240:\n        /* \"@openzeppelin/contracts/access/Ownable.sol\":1855:1878  owner() != _msgSender() */\n      0xffffffffffffffffffffffffffffffffffffffff\n      and\n      eq\n        /* \"@openzeppelin/contracts/access/Ownable.sol\":1851:1952  if (owner() != _msgSender()) {... */\n      tag_241\n      jumpi\n        /* \"@openzeppelin/contracts/access/Ownable.sol\":1928:1940  _msgSender() */\n      tag_242\n        /* \"@openzeppelin/contracts/access/Ownable.sol\":1928:1938  _msgSender */\n      tag_239\n        /* \"@openzeppelin/contracts/access/Ownable.sol\":1928:1940  _msgSender() */\n      jump\t// in\n    tag_242:\n        /* \"@openzeppelin/contracts/access/Ownable.sol\":1901:1941  OwnableUnauthorizedAccount(_msgSender()) */\n      mload(0x40)\n      0x118cdaa700000000000000000000000000000000000000000000000000000000\n      dup2\n      mstore\n      0x04\n      add\n      tag_243\n      swap2\n      swap1\n      tag_83\n      jump\t// in\n    tag_243:\n      mload(0x40)\n      dup1\n      swap2\n      sub\n      swap1\n      revert\n        /* \"@openzeppelin/contracts/access/Ownable.sol\":1851:1952  if (owner() != _msgSender()) {... */\n    tag_241:\n        /* \"@openzeppelin/contracts/access/Ownable.sol\":1796:1958  function _checkOwner() internal view virtual {... */\n      jump\t// out\n        /* \"MasterChef.sol\":8920:9205  function safeSushiTransfer(address _to, uint256 _amount) internal {... */\n    tag_154:\n        /* \"MasterChef.sol\":8997:9013  uint256 sushiBal */\n      0x00\n        /* \"MasterChef.sol\":9016:9021  sushi */\n      0x01\n      0x00\n      swap1\n      sload\n      swap1\n      0x0100\n      exp\n      swap1\n      div\n      0xffffffffffffffffffffffffffffffffffffffff\n      and\n        /* \"MasterChef.sol\":9016:9031  sushi.balanceOf */\n      0xffffffffffffffffffffffffffffffffffffffff\n      and\n      0x70a08231\n        /* \"MasterChef.sol\":9040:9044  this */\n      address\n        /* \"MasterChef.sol\":9016:9046  sushi.balanceOf(address(this)) */\n      mload(0x40)\n      dup3\n      0xffffffff\n      and\n      0xe0\n      shl\n      dup2\n      mstore\n      0x04\n      add\n      tag_245\n      swap2\n      swap1\n      tag_83\n      jump\t// in\n    tag_245:\n      0x20\n      mload(0x40)\n      dup1\n      dup4\n      sub\n      dup2\n      dup7\n      gas\n      staticcall\n      iszero\n      dup1\n      iszero\n      tag_247\n      jumpi\n      returndatacopy(0x00, 0x00, returndatasize)\n      revert(0x00, returndatasize)\n    tag_247:\n      pop\n      pop\n      pop\n      pop\n      mload(0x40)\n      returndatasize\n      not(0x1f)\n      0x1f\n      dup3\n      add\n      and\n      dup3\n      add\n      dup1\n      0x40\n      mstore\n      pop\n      dup2\n      add\n      swap1\n      tag_248\n      swap2\n      swap1\n      tag_115\n      jump\t// in\n    tag_248:\n        /* \"MasterChef.sol\":8997:9046  uint256 sushiBal = sushi.balanceOf(address(this)) */\n      swap1\n      pop\n        /* \"MasterChef.sol\":9071:9079  sushiBal */\n      dup1\n        /* \"MasterChef.sol\":9061:9068  _amount */\n      dup3\n        /* \"MasterChef.sol\":9061:9079  _amount > sushiBal */\n      gt\n        /* \"MasterChef.sol\":9057:9198  if (_amount > sushiBal) {... */\n      iszero\n      tag_249\n      jumpi\n        /* \"MasterChef.sol\":9096:9101  sushi */\n      0x01\n      0x00\n      swap1\n      sload\n      swap1\n      0x0100\n      exp\n      swap1\n      div\n      0xffffffffffffffffffffffffffffffffffffffff\n      and\n        /* \"MasterChef.sol\":9096:9110  sushi.transfer */\n      0xffffffffffffffffffffffffffffffffffffffff\n      and\n      0xa9059cbb\n        /* \"MasterChef.sol\":9111:9114  _to */\n      dup5\n        /* \"MasterChef.sol\":9116:9124  sushiBal */\n      dup4\n        /* \"MasterChef.sol\":9096:9125  sushi.transfer(_to, sushiBal) */\n      mload(0x40)\n      dup4\n      0xffffffff\n      and\n      0xe0\n      shl\n      dup2\n      mstore\n      0x04\n      add\n      tag_250\n      swap3\n      swap2\n      swap1\n      tag_176\n      jump\t// in\n    tag_250:\n      0x20\n      mload(0x40)\n      dup1\n      dup4\n      sub\n      dup2\n      0x00\n      dup8\n      gas\n      call\n      iszero\n      dup1\n      iszero\n      tag_252\n      jumpi\n      returndatacopy(0x00, 0x00, returndatasize)\n      revert(0x00, returndatasize)\n    tag_252:\n      pop\n      pop\n      pop\n      pop\n      mload(0x40)\n      returndatasize\n      not(0x1f)\n      0x1f\n      dup3\n      add\n      and\n      dup3\n      add\n      dup1\n      0x40\n      mstore\n      pop\n      dup2\n      add\n      swap1\n      tag_253\n      swap2\n      swap1\n      tag_254\n      jump\t// in\n    tag_253:\n      pop\n        /* \"MasterChef.sol\":9057:9198  if (_amount > sushiBal) {... */\n      jump(tag_255)\n    tag_249:\n        /* \"MasterChef.sol\":9158:9163  sushi */\n      0x01\n      0x00\n      swap1\n      sload\n      swap1\n      0x0100\n      exp\n      swap1\n      div\n      0xffffffffffffffffffffffffffffffffffffffff\n      and\n        /* \"MasterChef.sol\":9158:9172  sushi.transfer */\n      0xffffffffffffffffffffffffffffffffffffffff\n      and\n      0xa9059cbb\n        /* \"MasterChef.sol\":9173:9176  _to */\n      dup5\n        /* \"MasterChef.sol\":9178:9185  _amount */\n      dup5\n        /* \"MasterChef.sol\":9158:9186  sushi.transfer(_to, _amount) */\n      mload(0x40)\n      dup4\n      0xffffffff\n      and\n      0xe0\n      shl\n      dup2\n      mstore\n      0x04\n      add\n      tag_256\n      swap3\n      swap2\n      swap1\n      tag_176\n      jump\t// in\n    tag_256:\n      0x20\n      mload(0x40)\n      dup1\n      dup4\n      sub\n      dup2\n      0x00\n      dup8\n      gas\n      call\n      iszero\n      dup1\n      iszero\n      tag_258\n      jumpi\n      returndatacopy(0x00, 0x00, returndatasize)\n      revert(0x00, returndatasize)\n    tag_258:\n      pop\n      pop\n      pop\n      pop\n      mload(0x40)\n      returndatasize\n      not(0x1f)\n      0x1f\n      dup3\n      add\n      and\n      dup3\n      add\n      dup1\n      0x40\n      mstore\n      pop\n      dup2\n      add\n      swap1\n      tag_259\n      swap2\n      swap1\n      tag_254\n      jump\t// in\n    tag_259:\n      pop\n        /* \"MasterChef.sol\":9057:9198  if (_amount > sushiBal) {... */\n    tag_255:\n        /* \"MasterChef.sol\":8986:9205  {... */\n      pop\n        /* \"MasterChef.sol\":8920:9205  function safeSushiTransfer(address _to, uint256 _amount) internal {... */\n      pop\n      pop\n      jump\t// out\n        /* \"@openzeppelin/contracts/token/ERC20/utils/SafeERC20.sol\":1303:1463  function safeTransfer(IERC20 token, address to, uint256 value) internal {... */\n    tag_159:\n        /* \"@openzeppelin/contracts/token/ERC20/utils/SafeERC20.sol\":1385:1456  _callOptionalReturn(token, abi.encodeCall(token.transfer, (to, value))) */\n      tag_261\n        /* \"@openzeppelin/contracts/token/ERC20/utils/SafeERC20.sol\":1405:1410  token */\n      dup4\n        /* \"@openzeppelin/contracts/token/ERC20/utils/SafeERC20.sol\":1427:1432  token */\n      dup5\n        /* \"@openzeppelin/contracts/token/ERC20/utils/SafeERC20.sol\":1427:1441  token.transfer */\n      0xffffffffffffffffffffffffffffffffffffffff\n      and\n      0xa9059cbb\n        /* \"@openzeppelin/contracts/token/ERC20/utils/SafeERC20.sol\":1444:1446  to */\n      dup6\n        /* \"@openzeppelin/contracts/token/ERC20/utils/SafeERC20.sol\":1448:1453  value */\n      dup6\n        /* \"@openzeppelin/contracts/token/ERC20/utils/SafeERC20.sol\":1412:1455  abi.encodeCall(token.transfer, (to, value)) */\n      add(0x24, mload(0x40))\n      tag_262\n      swap3\n      swap2\n      swap1\n      tag_176\n      jump\t// in\n    tag_262:\n      mload(0x40)\n      0x20\n      dup2\n      dup4\n      sub\n      sub\n      dup2\n      mstore\n      swap1\n      0x40\n      mstore\n      swap2\n      pop\n      0xe0\n      shl\n      0x20\n      dup3\n      add\n      dup1\n      mload\n      0xffffffffffffffffffffffffffffffffffffffffffffffffffffffff\n      dup4\n      dup2\n      dup4\n      and\n      or\n      dup4\n      mstore\n      pop\n      pop\n      pop\n      pop\n        /* \"@openzeppelin/contracts/token/ERC20/utils/SafeERC20.sol\":1385:1404  _callOptionalReturn */\n      tag_263\n        /* \"@openzeppelin/contracts/token/ERC20/utils/SafeERC20.sol\":1385:1456  _callOptionalReturn(token, abi.encodeCall(token.transfer, (to, value))) */\n      jump\t// in\n    tag_261:\n        /* \"@openzeppelin/contracts/token/ERC20/utils/SafeERC20.sol\":1303:1463  function safeTransfer(IERC20 token, address to, uint256 value) internal {... */\n      pop\n      pop\n      pop\n      jump\t// out\n        /* \"@openzeppelin/contracts/access/Ownable.sol\":2912:3099  function _transferOwnership(address newOwner) internal virtual {... */\n    tag_211:\n        /* \"@openzeppelin/contracts/access/Ownable.sol\":2985:3001  address oldOwner */\n      0x00\n        /* \"@openzeppelin/contracts/access/Ownable.sol\":3004:3010  _owner */\n      0x00\n      0x00\n      swap1\n      sload\n      swap1\n      0x0100\n      exp\n      swap1\n      div\n      0xffffffffffffffffffffffffffffffffffffffff\n      and\n        /* \"@openzeppelin/contracts/access/Ownable.sol\":2985:3010  address oldOwner = _owner */\n      swap1\n      pop\n        /* \"@openzeppelin/contracts/access/Ownable.sol\":3029:3037  newOwner */\n      dup2\n        /* \"@openzeppelin/contracts/access/Ownable.sol\":3020:3026  _owner */\n      0x00\n      0x00\n        /* \"@openzeppelin/contracts/access/Ownable.sol\":3020:3037  _owner = newOwner */\n      0x0100\n      exp\n      dup2\n      sload\n      dup2\n      0xffffffffffffffffffffffffffffffffffffffff\n      mul\n      not\n      and\n      swap1\n      dup4\n      0xffffffffffffffffffffffffffffffffffffffff\n      and\n      mul\n      or\n      swap1\n      sstore\n      pop\n        /* \"@openzeppelin/contracts/access/Ownable.sol\":3083:3091  newOwner */\n      dup2\n        /* \"@openzeppelin/contracts/access/Ownable.sol\":3052:3092  OwnershipTransferred(oldOwner, newOwner) */\n      0xffffffffffffffffffffffffffffffffffffffff\n      and\n        /* \"@openzeppelin/contracts/access/Ownable.sol\":3073:3081  oldOwner */\n      dup2\n        /* \"@openzeppelin/contracts/access/Ownable.sol\":3052:3092  OwnershipTransferred(oldOwner, newOwner) */\n      0xffffffffffffffffffffffffffffffffffffffff\n      and\n      0x8be0079c531659141344cd1fd0a4f28419497f9722a3daafe3b4186f6b6457e0\n      mload(0x40)\n      mload(0x40)\n      dup1\n      swap2\n      sub\n      swap1\n      log3\n        /* \"@openzeppelin/contracts/access/Ownable.sol\":2975:3099  {... */\n      pop\n        /* \"@openzeppelin/contracts/access/Ownable.sol\":2912:3099  function _transferOwnership(address newOwner) internal virtual {... */\n      pop\n      jump\t// out\n        /* \"@openzeppelin/contracts/token/ERC20/utils/SafeERC20.sol\":1702:1890  function safeTransferFrom(IERC20 token, address from, address to, uint256 value) internal {... */\n    tag_226:\n        /* \"@openzeppelin/contracts/token/ERC20/utils/SafeERC20.sol\":1802:1883  _callOptionalReturn(token, abi.encodeCall(token.transferFrom, (from, to, value))) */\n      tag_266\n        /* \"@openzeppelin/contracts/token/ERC20/utils/SafeERC20.sol\":1822:1827  token */\n      dup5\n        /* \"@openzeppelin/contracts/token/ERC20/utils/SafeERC20.sol\":1844:1849  token */\n      dup6\n        /* \"@openzeppelin/contracts/token/ERC20/utils/SafeERC20.sol\":1844:1862  token.transferFrom */\n      0xffffffffffffffffffffffffffffffffffffffff\n      and\n      0x23b872dd\n        /* \"@openzeppelin/contracts/token/ERC20/utils/SafeERC20.sol\":1865:1869  from */\n      dup7\n        /* \"@openzeppelin/contracts/token/ERC20/utils/SafeERC20.sol\":1871:1873  to */\n      dup7\n        /* \"@openzeppelin/contracts/token/ERC20/utils/SafeERC20.sol\":1875:1880  value */\n      dup7\n        /* \"@openzeppelin/contracts/token/ERC20/utils/SafeERC20.sol\":1829:1882  abi.encodeCall(token.transferFrom, (from, to, value)) */\n      add(0x24, mload(0x40))\n      tag_267\n      swap4\n      swap3\n      swap2\n      swap1\n      tag_268\n      jump\t// in\n    tag_267:\n      mload(0x40)\n      0x20\n      dup2\n      dup4\n      sub\n      sub\n      dup2\n      mstore\n      swap1\n      0x40\n      mstore\n      swap2\n      pop\n      0xe0\n      shl\n      0x20\n      dup3\n      add\n      dup1\n      mload\n      0xffffffffffffffffffffffffffffffffffffffffffffffffffffffff\n      dup4\n      dup2\n      dup4\n      and\n      or\n      dup4\n      mstore\n      pop\n      pop\n      pop\n      pop\n        /* \"@openzeppelin/contracts/token/ERC20/utils/SafeERC20.sol\":1802:1821  _callOptionalReturn */\n      tag_263\n        /* \"@openzeppelin/contracts/token/ERC20/utils/SafeERC20.sol\":1802:1883  _callOptionalReturn(token, abi.encodeCall(token.transferFrom, (from, to, value))) */\n      jump\t// in\n    tag_266:\n        /* \"@openzeppelin/contracts/token/ERC20/utils/SafeERC20.sol\":1702:1890  function safeTransferFrom(IERC20 token, address from, address to, uint256 value) internal {... */\n      pop\n      pop\n      pop\n      pop\n      jump\t// out\n        /* \"@openzeppelin/contracts/utils/Context.sol\":656:752  function _msgSender() internal view virtual returns (address) {... */\n    tag_239:\n        /* \"@openzeppelin/contracts/utils/Context.sol\":709:716  address */\n      0x00\n        /* \"@openzeppelin/contracts/utils/Context.sol\":735:745  msg.sender */\n      caller\n        /* \"@openzeppelin/contracts/utils/Context.sol\":728:745  return msg.sender */\n      swap1\n      pop\n        /* \"@openzeppelin/contracts/utils/Context.sol\":656:752  function _msgSender() internal view virtual returns (address) {... */\n      swap1\n      jump\t// out\n        /* \"@openzeppelin/contracts/token/ERC20/utils/SafeERC20.sol\":4059:4688  function _callOptionalReturn(IERC20 token, bytes memory data) private {... */\n    tag_263:\n        /* \"@openzeppelin/contracts/token/ERC20/utils/SafeERC20.sol\":4478:4501  bytes memory returndata */\n      0x00\n        /* \"@openzeppelin/contracts/token/ERC20/utils/SafeERC20.sol\":4504:4537  address(token).functionCall(data) */\n      tag_271\n        /* \"@openzeppelin/contracts/token/ERC20/utils/SafeERC20.sol\":4532:4536  data */\n      dup3\n        /* \"@openzeppelin/contracts/token/ERC20/utils/SafeERC20.sol\":4512:4517  token */\n      dup5\n        /* \"@openzeppelin/contracts/token/ERC20/utils/SafeERC20.sol\":4504:4531  address(token).functionCall */\n      0xffffffffffffffffffffffffffffffffffffffff\n      and\n      tag_272\n      swap1\n        /* \"@openzeppelin/contracts/token/ERC20/utils/SafeERC20.sol\":4504:4537  address(token).functionCall(data) */\n      swap2\n      swap1\n      0xffffffff\n      and\n      jump\t// in\n    tag_271:\n        /* \"@openzeppelin/contracts/token/ERC20/utils/SafeERC20.sol\":4478:4537  bytes memory returndata = address(token).functionCall(data) */\n      swap1\n      pop\n        /* \"@openzeppelin/contracts/token/ERC20/utils/SafeERC20.sol\":4572:4573  0 */\n      0x00\n        /* \"@openzeppelin/contracts/token/ERC20/utils/SafeERC20.sol\":4551:4561  returndata */\n      dup2\n        /* \"@openzeppelin/contracts/token/ERC20/utils/SafeERC20.sol\":4551:4568  returndata.length */\n      mload\n        /* \"@openzeppelin/contracts/token/ERC20/utils/SafeERC20.sol\":4551:4573  returndata.length != 0 */\n      eq\n      iszero\n        /* \"@openzeppelin/contracts/token/ERC20/utils/SafeERC20.sol\":4551:4608  returndata.length != 0 && !abi.decode(returndata, (bool)) */\n      dup1\n      iszero\n      tag_273\n      jumpi\n      pop\n        /* \"@openzeppelin/contracts/token/ERC20/utils/SafeERC20.sol\":4589:4599  returndata */\n      dup1\n        /* \"@openzeppelin/contracts/token/ERC20/utils/SafeERC20.sol\":4578:4608  abi.decode(returndata, (bool)) */\n      dup1\n      0x20\n      add\n      swap1\n      mload\n      dup2\n      add\n      swap1\n      tag_274\n      swap2\n      swap1\n      tag_254\n      jump\t// in\n    tag_274:\n        /* \"@openzeppelin/contracts/token/ERC20/utils/SafeERC20.sol\":4577:4608  !abi.decode(returndata, (bool)) */\n      iszero\n        /* \"@openzeppelin/contracts/token/ERC20/utils/SafeERC20.sol\":4551:4608  returndata.length != 0 && !abi.decode(returndata, (bool)) */\n    tag_273:\n        /* \"@openzeppelin/contracts/token/ERC20/utils/SafeERC20.sol\":4547:4682  if (returndata.length != 0 && !abi.decode(returndata, (bool))) {... */\n      iszero\n      tag_275\n      jumpi\n        /* \"@openzeppelin/contracts/token/ERC20/utils/SafeERC20.sol\":4664:4669  token */\n      dup3\n        /* \"@openzeppelin/contracts/token/ERC20/utils/SafeERC20.sol\":4631:4671  SafeERC20FailedOperation(address(token)) */\n      mload(0x40)\n      0x5274afe700000000000000000000000000000000000000000000000000000000\n      dup2\n      mstore\n      0x04\n      add\n      tag_276\n      swap2\n      swap1\n      tag_83\n      jump\t// in\n    tag_276:\n      mload(0x40)\n      dup1\n      swap2\n      sub\n      swap1\n      revert\n        /* \"@openzeppelin/contracts/token/ERC20/utils/SafeERC20.sol\":4547:4682  if (returndata.length != 0 && !abi.decode(returndata, (bool))) {... */\n    tag_275:\n        /* \"@openzeppelin/contracts/token/ERC20/utils/SafeERC20.sol\":4129:4688  {... */\n      pop\n        /* \"@openzeppelin/contracts/token/ERC20/utils/SafeERC20.sol\":4059:4688  function _callOptionalReturn(IERC20 token, bytes memory data) private {... */\n      pop\n      pop\n      jump\t// out\n        /* \"@openzeppelin/contracts/utils/Address.sol\":2705:2856  function functionCall(address target, bytes memory data) internal returns (bytes memory) {... */\n    tag_272:\n        /* \"@openzeppelin/contracts/utils/Address.sol\":2780:2792  bytes memory */\n      0x60\n        /* \"@openzeppelin/contracts/utils/Address.sol\":2811:2849  functionCallWithValue(target, data, 0) */\n      tag_278\n        /* \"@openzeppelin/contracts/utils/Address.sol\":2833:2839  target */\n      dup4\n        /* \"@openzeppelin/contracts/utils/Address.sol\":2841:2845  data */\n      dup4\n        /* \"@openzeppelin/contracts/utils/Address.sol\":2847:2848  0 */\n      0x00\n        /* \"@openzeppelin/contracts/utils/Address.sol\":2811:2832  functionCallWithValue */\n      tag_279\n        /* \"@openzeppelin/contracts/utils/Address.sol\":2811:2849  functionCallWithValue(target, data, 0) */\n      jump\t// in\n    tag_278:\n        /* \"@openzeppelin/contracts/utils/Address.sol\":2804:2849  return functionCallWithValue(target, data, 0) */\n      swap1\n      pop\n        /* \"@openzeppelin/contracts/utils/Address.sol\":2705:2856  function functionCall(address target, bytes memory data) internal returns (bytes memory) {... */\n      swap3\n      swap2\n      pop\n      pop\n      jump\t// out\n        /* \"@openzeppelin/contracts/utils/Address.sol\":3180:3572  function functionCallWithValue(address target, bytes memory data, uint256 value) internal returns (bytes memory) {... */\n    tag_279:\n        /* \"@openzeppelin/contracts/utils/Address.sol\":3279:3291  bytes memory */\n      0x60\n        /* \"@openzeppelin/contracts/utils/Address.sol\":3331:3336  value */\n      dup2\n        /* \"@openzeppelin/contracts/utils/Address.sol\":3307:3328  address(this).balance */\n      selfbalance\n        /* \"@openzeppelin/contracts/utils/Address.sol\":3307:3336  address(this).balance < value */\n      lt\n        /* \"@openzeppelin/contracts/utils/Address.sol\":3303:3411  if (address(this).balance < value) {... */\n      iszero\n      tag_281\n      jumpi\n        /* \"@openzeppelin/contracts/utils/Address.sol\":3394:3398  this */\n      address\n        /* \"@openzeppelin/contracts/utils/Address.sol\":3359:3400  AddressInsufficientBalance(address(this)) */\n      mload(0x40)\n      0xcd78605900000000000000000000000000000000000000000000000000000000\n      dup2\n      mstore\n      0x04\n      add\n      tag_282\n      swap2\n      swap1\n      tag_83\n      jump\t// in\n    tag_282:\n      mload(0x40)\n      dup1\n      swap2\n      sub\n      swap1\n      revert\n        /* \"@openzeppelin/contracts/utils/Address.sol\":3303:3411  if (address(this).balance < value) {... */\n    tag_281:\n        /* \"@openzeppelin/contracts/utils/Address.sol\":3421:3433  bool success */\n      0x00\n        /* \"@openzeppelin/contracts/utils/Address.sol\":3435:3458  bytes memory returndata */\n      0x00\n        /* \"@openzeppelin/contracts/utils/Address.sol\":3462:3468  target */\n      dup6\n        /* \"@openzeppelin/contracts/utils/Address.sol\":3462:3473  target.call */\n      0xffffffffffffffffffffffffffffffffffffffff\n      and\n        /* \"@openzeppelin/contracts/utils/Address.sol\":3481:3486  value */\n      dup5\n        /* \"@openzeppelin/contracts/utils/Address.sol\":3488:3492  data */\n      dup7\n        /* \"@openzeppelin/contracts/utils/Address.sol\":3462:3493  target.call{value: value}(data) */\n      mload(0x40)\n      tag_283\n      swap2\n      swap1\n      tag_284\n      jump\t// in\n    tag_283:\n      0x00\n      mload(0x40)\n      dup1\n      dup4\n      sub\n      dup2\n      dup6\n      dup8\n      gas\n      call\n      swap3\n      pop\n      pop\n      pop\n      returndatasize\n      dup1\n      0x00\n      dup2\n      eq\n      tag_287\n      jumpi\n      mload(0x40)\n      swap2\n      pop\n      and(add(returndatasize, 0x3f), not(0x1f))\n      dup3\n      add\n      0x40\n      mstore\n      returndatasize\n      dup3\n      mstore\n      returndatasize\n      0x00\n      0x20\n      dup5\n      add\n      returndatacopy\n      jump(tag_286)\n    tag_287:\n      0x60\n      swap2\n      pop\n    tag_286:\n      pop\n        /* \"@openzeppelin/contracts/utils/Address.sol\":3420:3493  (bool success, bytes memory returndata) = target.call{value: value}(data) */\n      swap2\n      pop\n      swap2\n      pop\n        /* \"@openzeppelin/contracts/utils/Address.sol\":3510:3565  verifyCallResultFromTarget(target, success, returndata) */\n      tag_288\n        /* \"@openzeppelin/contracts/utils/Address.sol\":3537:3543  target */\n      dup7\n        /* \"@openzeppelin/contracts/utils/Address.sol\":3545:3552  success */\n      dup4\n        /* \"@openzeppelin/contracts/utils/Address.sol\":3554:3564  returndata */\n      dup4\n        /* \"@openzeppelin/contracts/utils/Address.sol\":3510:3536  verifyCallResultFromTarget */\n      tag_289\n        /* \"@openzeppelin/contracts/utils/Address.sol\":3510:3565  verifyCallResultFromTarget(target, success, returndata) */\n      jump\t// in\n    tag_288:\n        /* \"@openzeppelin/contracts/utils/Address.sol\":3503:3565  return verifyCallResultFromTarget(target, success, returndata) */\n      swap3\n      pop\n      pop\n      pop\n        /* \"@openzeppelin/contracts/utils/Address.sol\":3180:3572  function functionCallWithValue(address target, bytes memory data, uint256 value) internal returns (bytes memory) {... */\n      swap4\n      swap3\n      pop\n      pop\n      pop\n      jump\t// out\n        /* \"@openzeppelin/contracts/utils/Address.sol\":4625:5207  function verifyCallResultFromTarget(... */\n    tag_289:\n        /* \"@openzeppelin/contracts/utils/Address.sol\":4769:4781  bytes memory */\n      0x60\n        /* \"@openzeppelin/contracts/utils/Address.sol\":4798:4805  success */\n      dup3\n        /* \"@openzeppelin/contracts/utils/Address.sol\":4793:5201  if (!success) {... */\n      tag_291\n      jumpi\n        /* \"@openzeppelin/contracts/utils/Address.sol\":4821:4840  _revert(returndata) */\n      tag_292\n        /* \"@openzeppelin/contracts/utils/Address.sol\":4829:4839  returndata */\n      dup3\n        /* \"@openzeppelin/contracts/utils/Address.sol\":4821:4828  _revert */\n      tag_293\n        /* \"@openzeppelin/contracts/utils/Address.sol\":4821:4840  _revert(returndata) */\n      jump\t// in\n    tag_292:\n        /* \"@openzeppelin/contracts/utils/Address.sol\":4793:5201  if (!success) {... */\n      jump(tag_294)\n    tag_291:\n        /* \"@openzeppelin/contracts/utils/Address.sol\":5066:5067  0 */\n      0x00\n        /* \"@openzeppelin/contracts/utils/Address.sol\":5045:5055  returndata */\n      dup3\n        /* \"@openzeppelin/contracts/utils/Address.sol\":5045:5062  returndata.length */\n      mload\n        /* \"@openzeppelin/contracts/utils/Address.sol\":5045:5067  returndata.length == 0 */\n      eq\n        /* \"@openzeppelin/contracts/utils/Address.sol\":5045:5094  returndata.length == 0 && target.code.length == 0 */\n      dup1\n      iszero\n      tag_295\n      jumpi\n      pop\n        /* \"@openzeppelin/contracts/utils/Address.sol\":5093:5094  0 */\n      0x00\n        /* \"@openzeppelin/contracts/utils/Address.sol\":5071:5077  target */\n      dup5\n        /* \"@openzeppelin/contracts/utils/Address.sol\":5071:5089  target.code.length */\n      0xffffffffffffffffffffffffffffffffffffffff\n      and\n      extcodesize\n        /* \"@openzeppelin/contracts/utils/Address.sol\":5071:5094  target.code.length == 0 */\n      eq\n        /* \"@openzeppelin/contracts/utils/Address.sol\":5045:5094  returndata.length == 0 && target.code.length == 0 */\n    tag_295:\n        /* \"@openzeppelin/contracts/utils/Address.sol\":5041:5160  if (returndata.length == 0 && target.code.length == 0) {... */\n      iszero\n      tag_296\n      jumpi\n        /* \"@openzeppelin/contracts/utils/Address.sol\":5138:5144  target */\n      dup4\n        /* \"@openzeppelin/contracts/utils/Address.sol\":5121:5145  AddressEmptyCode(target) */\n      mload(0x40)\n      0x9996b31500000000000000000000000000000000000000000000000000000000\n      dup2\n      mstore\n      0x04\n      add\n      tag_297\n      swap2\n      swap1\n      tag_83\n      jump\t// in\n    tag_297:\n      mload(0x40)\n      dup1\n      swap2\n      sub\n      swap1\n      revert\n        /* \"@openzeppelin/contracts/utils/Address.sol\":5041:5160  if (returndata.length == 0 && target.code.length == 0) {... */\n    tag_296:\n        /* \"@openzeppelin/contracts/utils/Address.sol\":5180:5190  returndata */\n      dup2\n        /* \"@openzeppelin/contracts/utils/Address.sol\":5173:5190  return returndata */\n      swap1\n      pop\n      jump(tag_290)\n        /* \"@openzeppelin/contracts/utils/Address.sol\":4793:5201  if (!success) {... */\n    tag_294:\n        /* \"@openzeppelin/contracts/utils/Address.sol\":4625:5207  function verifyCallResultFromTarget(... */\n    tag_290:\n      swap4\n      swap3\n      pop\n      pop\n      pop\n      jump\t// out\n        /* \"@openzeppelin/contracts/utils/Address.sol\":5743:6259  function _revert(bytes memory returndata) private pure {... */\n    tag_293:\n        /* \"@openzeppelin/contracts/utils/Address.sol\":5894:5895  0 */\n      0x00\n        /* \"@openzeppelin/contracts/utils/Address.sol\":5874:5884  returndata */\n      dup2\n        /* \"@openzeppelin/contracts/utils/Address.sol\":5874:5891  returndata.length */\n      mload\n        /* \"@openzeppelin/contracts/utils/Address.sol\":5874:5895  returndata.length > 0 */\n      gt\n        /* \"@openzeppelin/contracts/utils/Address.sol\":5870:6253  if (returndata.length > 0) {... */\n      iszero\n      tag_299\n      jumpi\n        /* \"@openzeppelin/contracts/utils/Address.sol\":6102:6112  returndata */\n      dup1\n        /* \"@openzeppelin/contracts/utils/Address.sol\":6096:6113  mload(returndata) */\n      mload\n        /* \"@openzeppelin/contracts/utils/Address.sol\":6158:6173  returndata_size */\n      dup1\n        /* \"@openzeppelin/contracts/utils/Address.sol\":6145:6155  returndata */\n      dup3\n        /* \"@openzeppelin/contracts/utils/Address.sol\":6141:6143  32 */\n      0x20\n        /* \"@openzeppelin/contracts/utils/Address.sol\":6137:6156  add(32, returndata) */\n      add\n        /* \"@openzeppelin/contracts/utils/Address.sol\":6130:6174  revert(add(32, returndata), returndata_size) */\n      revert\n        /* \"@openzeppelin/contracts/utils/Address.sol\":5870:6253  if (returndata.length > 0) {... */\n    tag_299:\n        /* \"@openzeppelin/contracts/utils/Address.sol\":6225:6242  FailedInnerCall() */\n      mload(0x40)\n      0x1425ea4200000000000000000000000000000000000000000000000000000000\n      dup2\n      mstore\n      0x04\n      add\n      mload(0x40)\n      dup1\n      swap2\n      sub\n      swap1\n      revert\n        /* \"#utility.yul\":7:84   */\n    tag_301:\n        /* \"#utility.yul\":44:51   */\n      0x00\n        /* \"#utility.yul\":73:78   */\n      dup2\n        /* \"#utility.yul\":62:78   */\n      swap1\n      pop\n        /* \"#utility.yul\":7:84   */\n      swap2\n      swap1\n      pop\n      jump\t// out\n        /* \"#utility.yul\":90:208   */\n    tag_302:\n        /* \"#utility.yul\":177:201   */\n      tag_340\n        /* \"#utility.yul\":195:200   */\n      dup2\n        /* \"#utility.yul\":177:201   */\n      tag_301\n      jump\t// in\n    tag_340:\n        /* \"#utility.yul\":172:175   */\n      dup3\n        /* \"#utility.yul\":165:202   */\n      mstore\n        /* \"#utility.yul\":90:208   */\n      pop\n      pop\n      jump\t// out\n        /* \"#utility.yul\":214:436   */\n    tag_30:\n        /* \"#utility.yul\":307:311   */\n      0x00\n        /* \"#utility.yul\":345:347   */\n      0x20\n        /* \"#utility.yul\":334:343   */\n      dup3\n        /* \"#utility.yul\":330:348   */\n      add\n        /* \"#utility.yul\":322:348   */\n      swap1\n      pop\n        /* \"#utility.yul\":358:429   */\n      tag_342\n        /* \"#utility.yul\":426:427   */\n      0x00\n        /* \"#utility.yul\":415:424   */\n      dup4\n        /* \"#utility.yul\":411:428   */\n      add\n        /* \"#utility.yul\":402:408   */\n      dup5\n        /* \"#utility.yul\":358:429   */\n      tag_302\n      jump\t// in\n    tag_342:\n        /* \"#utility.yul\":214:436   */\n      swap3\n      swap2\n      pop\n      pop\n      jump\t// out\n        /* \"#utility.yul\":442:568   */\n    tag_303:\n        /* \"#utility.yul\":479:486   */\n      0x00\n        /* \"#utility.yul\":519:561   */\n      0xffffffffffffffffffffffffffffffffffffffff\n        /* \"#utility.yul\":512:517   */\n      dup3\n        /* \"#utility.yul\":508:562   */\n      and\n        /* \"#utility.yul\":497:562   */\n      swap1\n      pop\n        /* \"#utility.yul\":442:568   */\n      swap2\n      swap1\n      pop\n      jump\t// out\n        /* \"#utility.yul\":574:634   */\n    tag_304:\n        /* \"#utility.yul\":602:605   */\n      0x00\n        /* \"#utility.yul\":623:628   */\n      dup2\n        /* \"#utility.yul\":616:628   */\n      swap1\n      pop\n        /* \"#utility.yul\":574:634   */\n      swap2\n      swap1\n      pop\n      jump\t// out\n        /* \"#utility.yul\":640:782   */\n    tag_305:\n        /* \"#utility.yul\":690:699   */\n      0x00\n        /* \"#utility.yul\":723:776   */\n      tag_346\n        /* \"#utility.yul\":741:775   */\n      tag_347\n        /* \"#utility.yul\":750:774   */\n      tag_348\n        /* \"#utility.yul\":768:773   */\n      dup5\n        /* \"#utility.yul\":750:774   */\n      tag_303\n      jump\t// in\n    tag_348:\n        /* \"#utility.yul\":741:775   */\n      tag_304\n      jump\t// in\n    tag_347:\n        /* \"#utility.yul\":723:776   */\n      tag_303\n      jump\t// in\n    tag_346:\n        /* \"#utility.yul\":710:776   */\n      swap1\n      pop\n        /* \"#utility.yul\":640:782   */\n      swap2\n      swap1\n      pop\n      jump\t// out\n        /* \"#utility.yul\":788:914   */\n    tag_306:\n        /* \"#utility.yul\":838:847   */\n      0x00\n        /* \"#utility.yul\":871:908   */\n      tag_350\n        /* \"#utility.yul\":902:907   */\n      dup3\n        /* \"#utility.yul\":871:908   */\n      tag_305\n      jump\t// in\n    tag_350:\n        /* \"#utility.yul\":858:908   */\n      swap1\n      pop\n        /* \"#utility.yul\":788:914   */\n      swap2\n      swap1\n      pop\n      jump\t// out\n        /* \"#utility.yul\":920:1060   */\n    tag_307:\n        /* \"#utility.yul\":984:993   */\n      0x00\n        /* \"#utility.yul\":1017:1054   */\n      tag_352\n        /* \"#utility.yul\":1048:1053   */\n      dup3\n        /* \"#utility.yul\":1017:1054   */\n      tag_306\n      jump\t// in\n    tag_352:\n        /* \"#utility.yul\":1004:1054   */\n      swap1\n      pop\n        /* \"#utility.yul\":920:1060   */\n      swap2\n      swap1\n      pop\n      jump\t// out\n        /* \"#utility.yul\":1066:1225   */\n    tag_308:\n        /* \"#utility.yul\":1167:1218   */\n      tag_354\n        /* \"#utility.yul\":1212:1217   */\n      dup2\n        /* \"#utility.yul\":1167:1218   */\n      tag_307\n      jump\t// in\n    tag_354:\n        /* \"#utility.yul\":1162:1165   */\n      dup3\n        /* \"#utility.yul\":1155:1219   */\n      mstore\n        /* \"#utility.yul\":1066:1225   */\n      pop\n      pop\n      jump\t// out\n        /* \"#utility.yul\":1231:1481   */\n    tag_34:\n        /* \"#utility.yul\":1338:1342   */\n      0x00\n        /* \"#utility.yul\":1376:1378   */\n      0x20\n        /* \"#utility.yul\":1365:1374   */\n      dup3\n        /* \"#utility.yul\":1361:1379   */\n      add\n        /* \"#utility.yul\":1353:1379   */\n      swap1\n      pop\n        /* \"#utility.yul\":1389:1474   */\n      tag_356\n        /* \"#utility.yul\":1471:1472   */\n      0x00\n        /* \"#utility.yul\":1460:1469   */\n      dup4\n        /* \"#utility.yul\":1456:1473   */\n      add\n        /* \"#utility.yul\":1447:1453   */\n      dup5\n        /* \"#utility.yul\":1389:1474   */\n      tag_308\n      jump\t// in\n    tag_356:\n        /* \"#utility.yul\":1231:1481   */\n      swap3\n      swap2\n      pop\n      pop\n      jump\t// out\n        /* \"#utility.yul\":1568:1685   */\n    tag_310:\n        /* \"#utility.yul\":1677:1678   */\n      0x00\n        /* \"#utility.yul\":1674:1675   */\n      0x00\n        /* \"#utility.yul\":1667:1679   */\n      revert\n        /* \"#utility.yul\":1814:1936   */\n    tag_312:\n        /* \"#utility.yul\":1887:1911   */\n      tag_361\n        /* \"#utility.yul\":1905:1910   */\n      dup2\n        /* \"#utility.yul\":1887:1911   */\n      tag_301\n      jump\t// in\n    tag_361:\n        /* \"#utility.yul\":1880:1885   */\n      dup2\n        /* \"#utility.yul\":1877:1912   */\n      eq\n        /* \"#utility.yul\":1867:1930   */\n      tag_362\n      jumpi\n        /* \"#utility.yul\":1926:1927   */\n      0x00\n        /* \"#utility.yul\":1923:1924   */\n      0x00\n        /* \"#utility.yul\":1916:1928   */\n      revert\n        /* \"#utility.yul\":1867:1930   */\n    tag_362:\n        /* \"#utility.yul\":1814:1936   */\n      pop\n      jump\t// out\n        /* \"#utility.yul\":1942:2081   */\n    tag_313:\n        /* \"#utility.yul\":1988:1993   */\n      0x00\n        /* \"#utility.yul\":2026:2032   */\n      dup2\n        /* \"#utility.yul\":2013:2033   */\n      calldataload\n        /* \"#utility.yul\":2004:2033   */\n      swap1\n      pop\n        /* \"#utility.yul\":2042:2075   */\n      tag_364\n        /* \"#utility.yul\":2069:2074   */\n      dup2\n        /* \"#utility.yul\":2042:2075   */\n      tag_312\n      jump\t// in\n    tag_364:\n        /* \"#utility.yul\":1942:2081   */\n      swap3\n      swap2\n      pop\n      pop\n      jump\t// out\n        /* \"#utility.yul\":2087:2416   */\n    tag_37:\n        /* \"#utility.yul\":2146:2152   */\n      0x00\n        /* \"#utility.yul\":2195:2197   */\n      0x20\n        /* \"#utility.yul\":2183:2192   */\n      dup3\n        /* \"#utility.yul\":2174:2181   */\n      dup5\n        /* \"#utility.yul\":2170:2193   */\n      sub\n        /* \"#utility.yul\":2166:2198   */\n      slt\n        /* \"#utility.yul\":2163:2282   */\n      iszero\n      tag_366\n      jumpi\n        /* \"#utility.yul\":2201:2280   */\n      tag_367\n      tag_310\n      jump\t// in\n    tag_367:\n        /* \"#utility.yul\":2163:2282   */\n    tag_366:\n        /* \"#utility.yul\":2321:2322   */\n      0x00\n        /* \"#utility.yul\":2346:2399   */\n      tag_368\n        /* \"#utility.yul\":2391:2398   */\n      dup5\n        /* \"#utility.yul\":2382:2388   */\n      dup3\n        /* \"#utility.yul\":2371:2380   */\n      dup6\n        /* \"#utility.yul\":2367:2389   */\n      add\n        /* \"#utility.yul\":2346:2399   */\n      tag_313\n      jump\t// in\n    tag_368:\n        /* \"#utility.yul\":2336:2399   */\n      swap2\n      pop\n        /* \"#utility.yul\":2292:2409   */\n      pop\n        /* \"#utility.yul\":2087:2416   */\n      swap3\n      swap2\n      pop\n      pop\n      jump\t// out\n        /* \"#utility.yul\":2422:2562   */\n    tag_314:\n        /* \"#utility.yul\":2486:2495   */\n      0x00\n        /* \"#utility.yul\":2519:2556   */\n      tag_370\n        /* \"#utility.yul\":2550:2555   */\n      dup3\n        /* \"#utility.yul\":2519:2556   */\n      tag_306\n      jump\t// in\n    tag_370:\n        /* \"#utility.yul\":2506:2556   */\n      swap1\n      pop\n        /* \"#utility.yul\":2422:2562   */\n      swap2\n      swap1\n      pop\n      jump\t// out\n        /* \"#utility.yul\":2568:2727   */\n    tag_315:\n        /* \"#utility.yul\":2669:2720   */\n      tag_372\n        /* \"#utility.yul\":2714:2719   */\n      dup2\n        /* \"#utility.yul\":2669:2720   */\n      tag_314\n      jump\t// in\n    tag_372:\n        /* \"#utility.yul\":2664:2667   */\n      dup3\n        /* \"#utility.yul\":2657:2721   */\n      mstore\n        /* \"#utility.yul\":2568:2727   */\n      pop\n      pop\n      jump\t// out\n        /* \"#utility.yul\":2733:3314   */\n    tag_40:\n        /* \"#utility.yul\":2924:2928   */\n      0x00\n        /* \"#utility.yul\":2962:2965   */\n      0x80\n        /* \"#utility.yul\":2951:2960   */\n      dup3\n        /* \"#utility.yul\":2947:2966   */\n      add\n        /* \"#utility.yul\":2939:2966   */\n      swap1\n      pop\n        /* \"#utility.yul\":2976:3061   */\n      tag_374\n        /* \"#utility.yul\":3058:3059   */\n      0x00\n        /* \"#utility.yul\":3047:3056   */\n      dup4\n        /* \"#utility.yul\":3043:3060   */\n      add\n        /* \"#utility.yul\":3034:3040   */\n      dup8\n        /* \"#utility.yul\":2976:3061   */\n      tag_315\n      jump\t// in\n    tag_374:\n        /* \"#utility.yul\":3071:3143   */\n      tag_375\n        /* \"#utility.yul\":3139:3141   */\n      0x20\n        /* \"#utility.yul\":3128:3137   */\n      dup4\n        /* \"#utility.yul\":3124:3142   */\n      add\n        /* \"#utility.yul\":3115:3121   */\n      dup7\n        /* \"#utility.yul\":3071:3143   */\n      tag_302\n      jump\t// in\n    tag_375:\n        /* \"#utility.yul\":3153:3225   */\n      tag_376\n        /* \"#utility.yul\":3221:3223   */\n      0x40\n        /* \"#utility.yul\":3210:3219   */\n      dup4\n        /* \"#utility.yul\":3206:3224   */\n      add\n        /* \"#utility.yul\":3197:3203   */\n      dup6\n        /* \"#utility.yul\":3153:3225   */\n      tag_302\n      jump\t// in\n    tag_376:\n        /* \"#utility.yul\":3235:3307   */\n      tag_377\n        /* \"#utility.yul\":3303:3305   */\n      0x60\n        /* \"#utility.yul\":3292:3301   */\n      dup4\n        /* \"#utility.yul\":3288:3306   */\n      add\n        /* \"#utility.yul\":3279:3285   */\n      dup5\n        /* \"#utility.yul\":3235:3307   */\n      tag_302\n      jump\t// in\n    tag_377:\n        /* \"#utility.yul\":2733:3314   */\n      swap6\n      swap5\n      pop\n      pop\n      pop\n      pop\n      pop\n      jump\t// out\n        /* \"#utility.yul\":3320:3416   */\n    tag_316:\n        /* \"#utility.yul\":3357:3364   */\n      0x00\n        /* \"#utility.yul\":3386:3410   */\n      tag_379\n        /* \"#utility.yul\":3404:3409   */\n      dup3\n        /* \"#utility.yul\":3386:3410   */\n      tag_303\n      jump\t// in\n    tag_379:\n        /* \"#utility.yul\":3375:3410   */\n      swap1\n      pop\n        /* \"#utility.yul\":3320:3416   */\n      swap2\n      swap1\n      pop\n      jump\t// out\n        /* \"#utility.yul\":3422:3544   */\n    tag_317:\n        /* \"#utility.yul\":3495:3519   */\n      tag_381\n        /* \"#utility.yul\":3513:3518   */\n      dup2\n        /* \"#utility.yul\":3495:3519   */\n      tag_316\n      jump\t// in\n    tag_381:\n        /* \"#utility.yul\":3488:3493   */\n      dup2\n        /* \"#utility.yul\":3485:3520   */\n      eq\n        /* \"#utility.yul\":3475:3538   */\n      tag_382\n      jumpi\n        /* \"#utility.yul\":3534:3535   */\n      0x00\n        /* \"#utility.yul\":3531:3532   */\n      0x00\n        /* \"#utility.yul\":3524:3536   */\n      revert\n        /* \"#utility.yul\":3475:3538   */\n    tag_382:\n        /* \"#utility.yul\":3422:3544   */\n      pop\n      jump\t// out\n        /* \"#utility.yul\":3550:3689   */\n    tag_318:\n        /* \"#utility.yul\":3596:3601   */\n      0x00\n        /* \"#utility.yul\":3634:3640   */\n      dup2\n        /* \"#utility.yul\":3621:3641   */\n      calldataload\n        /* \"#utility.yul\":3612:3641   */\n      swap1\n      pop\n        /* \"#utility.yul\":3650:3683   */\n      tag_384\n        /* \"#utility.yul\":3677:3682   */\n      dup2\n        /* \"#utility.yul\":3650:3683   */\n      tag_317\n      jump\t// in\n    tag_384:\n        /* \"#utility.yul\":3550:3689   */\n      swap3\n      swap2\n      pop\n      pop\n      jump\t// out\n        /* \"#utility.yul\":3695:4169   */\n    tag_46:\n        /* \"#utility.yul\":3763:3769   */\n      0x00\n        /* \"#utility.yul\":3771:3777   */\n      0x00\n        /* \"#utility.yul\":3820:3822   */\n      0x40\n        /* \"#utility.yul\":3808:3817   */\n      dup4\n        /* \"#utility.yul\":3799:3806   */\n      dup6\n        /* \"#utility.yul\":3795:3818   */\n      sub\n        /* \"#utility.yul\":3791:3823   */\n      slt\n        /* \"#utility.yul\":3788:3907   */\n      iszero\n      tag_386\n      jumpi\n        /* \"#utility.yul\":3826:3905   */\n      tag_387\n      tag_310\n      jump\t// in\n    tag_387:\n        /* \"#utility.yul\":3788:3907   */\n    tag_386:\n        /* \"#utility.yul\":3946:3947   */\n      0x00\n        /* \"#utility.yul\":3971:4024   */\n      tag_388\n        /* \"#utility.yul\":4016:4023   */\n      dup6\n        /* \"#utility.yul\":4007:4013   */\n      dup3\n        /* \"#utility.yul\":3996:4005   */\n      dup7\n        /* \"#utility.yul\":3992:4014   */\n      add\n        /* \"#utility.yul\":3971:4024   */\n      tag_313\n      jump\t// in\n    tag_388:\n        /* \"#utility.yul\":3961:4024   */\n      swap3\n      pop\n        /* \"#utility.yul\":3917:4034   */\n      pop\n        /* \"#utility.yul\":4073:4075   */\n      0x20\n        /* \"#utility.yul\":4099:4152   */\n      tag_389\n        /* \"#utility.yul\":4144:4151   */\n      dup6\n        /* \"#utility.yul\":4135:4141   */\n      dup3\n        /* \"#utility.yul\":4124:4133   */\n      dup7\n        /* \"#utility.yul\":4120:4142   */\n      add\n        /* \"#utility.yul\":4099:4152   */\n      tag_318\n      jump\t// in\n    tag_389:\n        /* \"#utility.yul\":4089:4152   */\n      swap2\n      pop\n        /* \"#utility.yul\":4044:4162   */\n      pop\n        /* \"#utility.yul\":3695:4169   */\n      swap3\n      pop\n      swap3\n      swap1\n      pop\n      jump\t// out\n        /* \"#utility.yul\":4175:4285   */\n    tag_319:\n        /* \"#utility.yul\":4226:4233   */\n      0x00\n        /* \"#utility.yul\":4255:4279   */\n      tag_391\n        /* \"#utility.yul\":4273:4278   */\n      dup3\n        /* \"#utility.yul\":4255:4279   */\n      tag_316\n      jump\t// in\n    tag_391:\n        /* \"#utility.yul\":4244:4279   */\n      swap1\n      pop\n        /* \"#utility.yul\":4175:4285   */\n      swap2\n      swap1\n      pop\n      jump\t// out\n        /* \"#utility.yul\":4291:4441   */\n    tag_320:\n        /* \"#utility.yul\":4378:4416   */\n      tag_393\n        /* \"#utility.yul\":4410:4415   */\n      dup2\n        /* \"#utility.yul\":4378:4416   */\n      tag_319\n      jump\t// in\n    tag_393:\n        /* \"#utility.yul\":4371:4376   */\n      dup2\n        /* \"#utility.yul\":4368:4417   */\n      eq\n        /* \"#utility.yul\":4358:4435   */\n      tag_394\n      jumpi\n        /* \"#utility.yul\":4431:4432   */\n      0x00\n        /* \"#utility.yul\":4428:4429   */\n      0x00\n        /* \"#utility.yul\":4421:4433   */\n      revert\n        /* \"#utility.yul\":4358:4435   */\n    tag_394:\n        /* \"#utility.yul\":4291:4441   */\n      pop\n      jump\t// out\n        /* \"#utility.yul\":4447:4614   */\n    tag_321:\n        /* \"#utility.yul\":4507:4512   */\n      0x00\n        /* \"#utility.yul\":4545:4551   */\n      dup2\n        /* \"#utility.yul\":4532:4552   */\n      calldataload\n        /* \"#utility.yul\":4523:4552   */\n      swap1\n      pop\n        /* \"#utility.yul\":4561:4608   */\n      tag_396\n        /* \"#utility.yul\":4602:4607   */\n      dup2\n        /* \"#utility.yul\":4561:4608   */\n      tag_320\n      jump\t// in\n    tag_396:\n        /* \"#utility.yul\":4447:4614   */\n      swap3\n      swap2\n      pop\n      pop\n      jump\t// out\n        /* \"#utility.yul\":4620:4710   */\n    tag_322:\n        /* \"#utility.yul\":4654:4661   */\n      0x00\n        /* \"#utility.yul\":4697:4702   */\n      dup2\n        /* \"#utility.yul\":4690:4703   */\n      iszero\n        /* \"#utility.yul\":4683:4704   */\n      iszero\n        /* \"#utility.yul\":4672:4704   */\n      swap1\n      pop\n        /* \"#utility.yul\":4620:4710   */\n      swap2\n      swap1\n      pop\n      jump\t// out\n        /* \"#utility.yul\":4716:4832   */\n    tag_323:\n        /* \"#utility.yul\":4786:4807   */\n      tag_399\n        /* \"#utility.yul\":4801:4806   */\n      dup2\n        /* \"#utility.yul\":4786:4807   */\n      tag_322\n      jump\t// in\n    tag_399:\n        /* \"#utility.yul\":4779:4784   */\n      dup2\n        /* \"#utility.yul\":4776:4808   */\n      eq\n        /* \"#utility.yul\":4766:4826   */\n      tag_400\n      jumpi\n        /* \"#utility.yul\":4822:4823   */\n      0x00\n        /* \"#utility.yul\":4819:4820   */\n      0x00\n        /* \"#utility.yul\":4812:4824   */\n      revert\n        /* \"#utility.yul\":4766:4826   */\n    tag_400:\n        /* \"#utility.yul\":4716:4832   */\n      pop\n      jump\t// out\n        /* \"#utility.yul\":4838:4971   */\n    tag_324:\n        /* \"#utility.yul\":4881:4886   */\n      0x00\n        /* \"#utility.yul\":4919:4925   */\n      dup2\n        /* \"#utility.yul\":4906:4926   */\n      calldataload\n        /* \"#utility.yul\":4897:4926   */\n      swap1\n      pop\n        /* \"#utility.yul\":4935:4965   */\n      tag_402\n        /* \"#utility.yul\":4959:4964   */\n      dup2\n        /* \"#utility.yul\":4935:4965   */\n      tag_323\n      jump\t// in\n    tag_402:\n        /* \"#utility.yul\":4838:4971   */\n      swap3\n      swap2\n      pop\n      pop\n      jump\t// out\n        /* \"#utility.yul\":4977:5618   */\n    tag_54:\n        /* \"#utility.yul\":5065:5071   */\n      0x00\n        /* \"#utility.yul\":5073:5079   */\n      0x00\n        /* \"#utility.yul\":5081:5087   */\n      0x00\n        /* \"#utility.yul\":5130:5132   */\n      0x60\n        /* \"#utility.yul\":5118:5127   */\n      dup5\n        /* \"#utility.yul\":5109:5116   */\n      dup7\n        /* \"#utility.yul\":5105:5128   */\n      sub\n        /* \"#utility.yul\":5101:5133   */\n      slt\n        /* \"#utility.yul\":5098:5217   */\n      iszero\n      tag_404\n      jumpi\n        /* \"#utility.yul\":5136:5215   */\n      tag_405\n      tag_310\n      jump\t// in\n    tag_405:\n        /* \"#utility.yul\":5098:5217   */\n    tag_404:\n        /* \"#utility.yul\":5256:5257   */\n      0x00\n        /* \"#utility.yul\":5281:5334   */\n      tag_406\n        /* \"#utility.yul\":5326:5333   */\n      dup7\n        /* \"#utility.yul\":5317:5323   */\n      dup3\n        /* \"#utility.yul\":5306:5315   */\n      dup8\n        /* \"#utility.yul\":5302:5324   */\n      add\n        /* \"#utility.yul\":5281:5334   */\n      tag_313\n      jump\t// in\n    tag_406:\n        /* \"#utility.yul\":5271:5334   */\n      swap4\n      pop\n        /* \"#utility.yul\":5227:5344   */\n      pop\n        /* \"#utility.yul\":5383:5385   */\n      0x20\n        /* \"#utility.yul\":5409:5476   */\n      tag_407\n        /* \"#utility.yul\":5468:5475   */\n      dup7\n        /* \"#utility.yul\":5459:5465   */\n      dup3\n        /* \"#utility.yul\":5448:5457   */\n      dup8\n        /* \"#utility.yul\":5444:5466   */\n      add\n        /* \"#utility.yul\":5409:5476   */\n      tag_321\n      jump\t// in\n    tag_407:\n        /* \"#utility.yul\":5399:5476   */\n      swap3\n      pop\n        /* \"#utility.yul\":5354:5486   */\n      pop\n        /* \"#utility.yul\":5525:5527   */\n      0x40\n        /* \"#utility.yul\":5551:5601   */\n      tag_408\n        /* \"#utility.yul\":5593:5600   */\n      dup7\n        /* \"#utility.yul\":5584:5590   */\n      dup3\n        /* \"#utility.yul\":5573:5582   */\n      dup8\n        /* \"#utility.yul\":5569:5591   */\n      add\n        /* \"#utility.yul\":5551:5601   */\n      tag_324\n      jump\t// in\n    tag_408:\n        /* \"#utility.yul\":5541:5601   */\n      swap2\n      pop\n        /* \"#utility.yul\":5496:5611   */\n      pop\n        /* \"#utility.yul\":4977:5618   */\n      swap3\n      pop\n      swap3\n      pop\n      swap3\n      jump\t// out\n        /* \"#utility.yul\":5624:6098   */\n    tag_58:\n        /* \"#utility.yul\":5692:5698   */\n      0x00\n        /* \"#utility.yul\":5700:5706   */\n      0x00\n        /* \"#utility.yul\":5749:5751   */\n      0x40\n        /* \"#utility.yul\":5737:5746   */\n      dup4\n        /* \"#utility.yul\":5728:5735   */\n      dup6\n        /* \"#utility.yul\":5724:5747   */\n      sub\n        /* \"#utility.yul\":5720:5752   */\n      slt\n        /* \"#utility.yul\":5717:5836   */\n      iszero\n      tag_410\n      jumpi\n        /* \"#utility.yul\":5755:5834   */\n      tag_411\n      tag_310\n      jump\t// in\n    tag_411:\n        /* \"#utility.yul\":5717:5836   */\n    tag_410:\n        /* \"#utility.yul\":5875:5876   */\n      0x00\n        /* \"#utility.yul\":5900:5953   */\n      tag_412\n        /* \"#utility.yul\":5945:5952   */\n      dup6\n        /* \"#utility.yul\":5936:5942   */\n      dup3\n        /* \"#utility.yul\":5925:5934   */\n      dup7\n        /* \"#utility.yul\":5921:5943   */\n      add\n        /* \"#utility.yul\":5900:5953   */\n      tag_313\n      jump\t// in\n    tag_412:\n        /* \"#utility.yul\":5890:5953   */\n      swap3\n      pop\n        /* \"#utility.yul\":5846:5963   */\n      pop\n        /* \"#utility.yul\":6002:6004   */\n      0x20\n        /* \"#utility.yul\":6028:6081   */\n      tag_413\n        /* \"#utility.yul\":6073:6080   */\n      dup6\n        /* \"#utility.yul\":6064:6070   */\n      dup3\n        /* \"#utility.yul\":6053:6062   */\n      dup7\n        /* \"#utility.yul\":6049:6071   */\n      add\n        /* \"#utility.yul\":6028:6081   */\n      tag_313\n      jump\t// in\n    tag_413:\n        /* \"#utility.yul\":6018:6081   */\n      swap2\n      pop\n        /* \"#utility.yul\":5973:6091   */\n      pop\n        /* \"#utility.yul\":5624:6098   */\n      swap3\n      pop\n      swap3\n      swap1\n      pop\n      jump\t// out\n        /* \"#utility.yul\":6104:6717   */\n    tag_73:\n        /* \"#utility.yul\":6178:6184   */\n      0x00\n        /* \"#utility.yul\":6186:6192   */\n      0x00\n        /* \"#utility.yul\":6194:6200   */\n      0x00\n        /* \"#utility.yul\":6243:6245   */\n      0x60\n        /* \"#utility.yul\":6231:6240   */\n      dup5\n        /* \"#utility.yul\":6222:6229   */\n      dup7\n        /* \"#utility.yul\":6218:6241   */\n      sub\n        /* \"#utility.yul\":6214:6246   */\n      slt\n        /* \"#utility.yul\":6211:6330   */\n      iszero\n      tag_415\n      jumpi\n        /* \"#utility.yul\":6249:6328   */\n      tag_416\n      tag_310\n      jump\t// in\n    tag_416:\n        /* \"#utility.yul\":6211:6330   */\n    tag_415:\n        /* \"#utility.yul\":6369:6370   */\n      0x00\n        /* \"#utility.yul\":6394:6447   */\n      tag_417\n        /* \"#utility.yul\":6439:6446   */\n      dup7\n        /* \"#utility.yul\":6430:6436   */\n      dup3\n        /* \"#utility.yul\":6419:6428   */\n      dup8\n        /* \"#utility.yul\":6415:6437   */\n      add\n        /* \"#utility.yul\":6394:6447   */\n      tag_313\n      jump\t// in\n    tag_417:\n        /* \"#utility.yul\":6384:6447   */\n      swap4\n      pop\n        /* \"#utility.yul\":6340:6457   */\n      pop\n        /* \"#utility.yul\":6496:6498   */\n      0x20\n        /* \"#utility.yul\":6522:6575   */\n      tag_418\n        /* \"#utility.yul\":6567:6574   */\n      dup7\n        /* \"#utility.yul\":6558:6564   */\n      dup3\n        /* \"#utility.yul\":6547:6556   */\n      dup8\n        /* \"#utility.yul\":6543:6565   */\n      add\n        /* \"#utility.yul\":6522:6575   */\n      tag_313\n      jump\t// in\n    tag_418:\n        /* \"#utility.yul\":6512:6575   */\n      swap3\n      pop\n        /* \"#utility.yul\":6467:6585   */\n      pop\n        /* \"#utility.yul\":6624:6626   */\n      0x40\n        /* \"#utility.yul\":6650:6700   */\n      tag_419\n        /* \"#utility.yul\":6692:6699   */\n      dup7\n        /* \"#utility.yul\":6683:6689   */\n      dup3\n        /* \"#utility.yul\":6672:6681   */\n      dup8\n        /* \"#utility.yul\":6668:6690   */\n      add\n        /* \"#utility.yul\":6650:6700   */\n      tag_324\n      jump\t// in\n    tag_419:\n        /* \"#utility.yul\":6640:6700   */\n      swap2\n      pop\n        /* \"#utility.yul\":6595:6710   */\n      pop\n        /* \"#utility.yul\":6104:6717   */\n      swap3\n      pop\n      swap3\n      pop\n      swap3\n      jump\t// out\n        /* \"#utility.yul\":6723:6841   */\n    tag_325:\n        /* \"#utility.yul\":6810:6834   */\n      tag_421\n        /* \"#utility.yul\":6828:6833   */\n      dup2\n        /* \"#utility.yul\":6810:6834   */\n      tag_316\n      jump\t// in\n    tag_421:\n        /* \"#utility.yul\":6805:6808   */\n      dup3\n        /* \"#utility.yul\":6798:6835   */\n      mstore\n        /* \"#utility.yul\":6723:6841   */\n      pop\n      pop\n      jump\t// out\n        /* \"#utility.yul\":6847:7069   */\n    tag_83:\n        /* \"#utility.yul\":6940:6944   */\n      0x00\n        /* \"#utility.yul\":6978:6980   */\n      0x20\n        /* \"#utility.yul\":6967:6976   */\n      dup3\n        /* \"#utility.yul\":6963:6981   */\n      add\n        /* \"#utility.yul\":6955:6981   */\n      swap1\n      pop\n        /* \"#utility.yul\":6991:7062   */\n      tag_423\n        /* \"#utility.yul\":7059:7060   */\n      0x00\n        /* \"#utility.yul\":7048:7057   */\n      dup4\n        /* \"#utility.yul\":7044:7061   */\n      add\n        /* \"#utility.yul\":7035:7041   */\n      dup5\n        /* \"#utility.yul\":6991:7062   */\n      tag_325\n      jump\t// in\n    tag_423:\n        /* \"#utility.yul\":6847:7069   */\n      swap3\n      swap2\n      pop\n      pop\n      jump\t// out\n        /* \"#utility.yul\":7075:7407   */\n    tag_92:\n        /* \"#utility.yul\":7196:7200   */\n      0x00\n        /* \"#utility.yul\":7234:7236   */\n      0x40\n        /* \"#utility.yul\":7223:7232   */\n      dup3\n        /* \"#utility.yul\":7219:7237   */\n      add\n        /* \"#utility.yul\":7211:7237   */\n      swap1\n      pop\n        /* \"#utility.yul\":7247:7318   */\n      tag_425\n        /* \"#utility.yul\":7315:7316   */\n      0x00\n        /* \"#utility.yul\":7304:7313   */\n      dup4\n        /* \"#utility.yul\":7300:7317   */\n      add\n        /* \"#utility.yul\":7291:7297   */\n      dup6\n        /* \"#utility.yul\":7247:7318   */\n      tag_302\n      jump\t// in\n    tag_425:\n        /* \"#utility.yul\":7328:7400   */\n      tag_426\n        /* \"#utility.yul\":7396:7398   */\n      0x20\n        /* \"#utility.yul\":7385:7394   */\n      dup4\n        /* \"#utility.yul\":7381:7399   */\n      add\n        /* \"#utility.yul\":7372:7378   */\n      dup5\n        /* \"#utility.yul\":7328:7400   */\n      tag_302\n      jump\t// in\n    tag_426:\n        /* \"#utility.yul\":7075:7407   */\n      swap4\n      swap3\n      pop\n      pop\n      pop\n      jump\t// out\n        /* \"#utility.yul\":7413:7742   */\n    tag_101:\n        /* \"#utility.yul\":7472:7478   */\n      0x00\n        /* \"#utility.yul\":7521:7523   */\n      0x20\n        /* \"#utility.yul\":7509:7518   */\n      dup3\n        /* \"#utility.yul\":7500:7507   */\n      dup5\n        /* \"#utility.yul\":7496:7519   */\n      sub\n        /* \"#utility.yul\":7492:7524   */\n      slt\n        /* \"#utility.yul\":7489:7608   */\n      iszero\n      tag_428\n      jumpi\n        /* \"#utility.yul\":7527:7606   */\n      tag_429\n      tag_310\n      jump\t// in\n    tag_429:\n        /* \"#utility.yul\":7489:7608   */\n    tag_428:\n        /* \"#utility.yul\":7647:7648   */\n      0x00\n        /* \"#utility.yul\":7672:7725   */\n      tag_430\n        /* \"#utility.yul\":7717:7724   */\n      dup5\n        /* \"#utility.yul\":7708:7714   */\n      dup3\n        /* \"#utility.yul\":7697:7706   */\n      dup6\n        /* \"#utility.yul\":7693:7715   */\n      add\n        /* \"#utility.yul\":7672:7725   */\n      tag_318\n      jump\t// in\n    tag_430:\n        /* \"#utility.yul\":7662:7725   */\n      swap2\n      pop\n        /* \"#utility.yul\":7618:7735   */\n      pop\n        /* \"#utility.yul\":7413:7742   */\n      swap3\n      swap2\n      pop\n      pop\n      jump\t// out\n        /* \"#utility.yul\":7748:7928   */\n    tag_109:\n        /* \"#utility.yul\":7796:7873   */\n      0x4e487b7100000000000000000000000000000000000000000000000000000000\n        /* \"#utility.yul\":7793:7794   */\n      0x00\n        /* \"#utility.yul\":7786:7874   */\n      mstore\n        /* \"#utility.yul\":7893:7897   */\n      0x32\n        /* \"#utility.yul\":7890:7891   */\n      0x04\n        /* \"#utility.yul\":7883:7898   */\n      mstore\n        /* \"#utility.yul\":7917:7921   */\n      0x24\n        /* \"#utility.yul\":7914:7915   */\n      0x00\n        /* \"#utility.yul\":7907:7922   */\n      revert\n        /* \"#utility.yul\":7934:8077   */\n    tag_326:\n        /* \"#utility.yul\":7991:7996   */\n      0x00\n        /* \"#utility.yul\":8022:8028   */\n      dup2\n        /* \"#utility.yul\":8016:8029   */\n      mload\n        /* \"#utility.yul\":8007:8029   */\n      swap1\n      pop\n        /* \"#utility.yul\":8038:8071   */\n      tag_433\n        /* \"#utility.yul\":8065:8070   */\n      dup2\n        /* \"#utility.yul\":8038:8071   */\n      tag_312\n      jump\t// in\n    tag_433:\n        /* \"#utility.yul\":7934:8077   */\n      swap3\n      swap2\n      pop\n      pop\n      jump\t// out\n        /* \"#utility.yul\":8083:8434   */\n    tag_115:\n        /* \"#utility.yul\":8153:8159   */\n      0x00\n        /* \"#utility.yul\":8202:8204   */\n      0x20\n        /* \"#utility.yul\":8190:8199   */\n      dup3\n        /* \"#utility.yul\":8181:8188   */\n      dup5\n        /* \"#utility.yul\":8177:8200   */\n      sub\n        /* \"#utility.yul\":8173:8205   */\n      slt\n        /* \"#utility.yul\":8170:8289   */\n      iszero\n      tag_435\n      jumpi\n        /* \"#utility.yul\":8208:8287   */\n      tag_436\n      tag_310\n      jump\t// in\n    tag_436:\n        /* \"#utility.yul\":8170:8289   */\n    tag_435:\n        /* \"#utility.yul\":8328:8329   */\n      0x00\n        /* \"#utility.yul\":8353:8417   */\n      tag_437\n        /* \"#utility.yul\":8409:8416   */\n      dup5\n        /* \"#utility.yul\":8400:8406   */\n      dup3\n        /* \"#utility.yul\":8389:8398   */\n      dup6\n        /* \"#utility.yul\":8385:8407   */\n      add\n        /* \"#utility.yul\":8353:8417   */\n      tag_326\n      jump\t// in\n    tag_437:\n        /* \"#utility.yul\":8343:8417   */\n      swap2\n      pop\n        /* \"#utility.yul\":8299:8427   */\n      pop\n        /* \"#utility.yul\":8083:8434   */\n      swap3\n      swap2\n      pop\n      pop\n      jump\t// out\n        /* \"#utility.yul\":8440:8620   */\n    tag_327:\n        /* \"#utility.yul\":8488:8565   */\n      0x4e487b7100000000000000000000000000000000000000000000000000000000\n        /* \"#utility.yul\":8485:8486   */\n      0x00\n        /* \"#utility.yul\":8478:8566   */\n      mstore\n        /* \"#utility.yul\":8585:8589   */\n      0x11\n        /* \"#utility.yul\":8582:8583   */\n      0x04\n        /* \"#utility.yul\":8575:8590   */\n      mstore\n        /* \"#utility.yul\":8609:8613   */\n      0x24\n        /* \"#utility.yul\":8606:8607   */\n      0x00\n        /* \"#utility.yul\":8599:8614   */\n      revert\n        /* \"#utility.yul\":8626:9036   */\n    tag_120:\n        /* \"#utility.yul\":8666:8673   */\n      0x00\n        /* \"#utility.yul\":8689:8709   */\n      tag_440\n        /* \"#utility.yul\":8707:8708   */\n      dup3\n        /* \"#utility.yul\":8689:8709   */\n      tag_301\n      jump\t// in\n    tag_440:\n        /* \"#utility.yul\":8684:8709   */\n      swap2\n      pop\n        /* \"#utility.yul\":8723:8743   */\n      tag_441\n        /* \"#utility.yul\":8741:8742   */\n      dup4\n        /* \"#utility.yul\":8723:8743   */\n      tag_301\n      jump\t// in\n    tag_441:\n        /* \"#utility.yul\":8718:8743   */\n      swap3\n      pop\n        /* \"#utility.yul\":8778:8779   */\n      dup3\n        /* \"#utility.yul\":8775:8776   */\n      dup3\n        /* \"#utility.yul\":8771:8780   */\n      mul\n        /* \"#utility.yul\":8800:8830   */\n      tag_442\n        /* \"#utility.yul\":8818:8829   */\n      dup2\n        /* \"#utility.yul\":8800:8830   */\n      tag_301\n      jump\t// in\n    tag_442:\n        /* \"#utility.yul\":8789:8830   */\n      swap2\n      pop\n        /* \"#utility.yul\":8979:8980   */\n      dup3\n        /* \"#utility.yul\":8970:8977   */\n      dup3\n        /* \"#utility.yul\":8966:8981   */\n      div\n        /* \"#utility.yul\":8963:8964   */\n      dup5\n        /* \"#utility.yul\":8960:8982   */\n      eq\n        /* \"#utility.yul\":8940:8941   */\n      dup4\n        /* \"#utility.yul\":8933:8942   */\n      iszero\n        /* \"#utility.yul\":8913:8996   */\n      or\n        /* \"#utility.yul\":8890:9029   */\n      tag_443\n      jumpi\n        /* \"#utility.yul\":9009:9027   */\n      tag_444\n      tag_327\n      jump\t// in\n    tag_444:\n        /* \"#utility.yul\":8890:9029   */\n    tag_443:\n        /* \"#utility.yul\":8674:9036   */\n      pop\n        /* \"#utility.yul\":8626:9036   */\n      swap3\n      swap2\n      pop\n      pop\n      jump\t// out\n        /* \"#utility.yul\":9042:9222   */\n    tag_328:\n        /* \"#utility.yul\":9090:9167   */\n      0x4e487b7100000000000000000000000000000000000000000000000000000000\n        /* \"#utility.yul\":9087:9088   */\n      0x00\n        /* \"#utility.yul\":9080:9168   */\n      mstore\n        /* \"#utility.yul\":9187:9191   */\n      0x12\n        /* \"#utility.yul\":9184:9185   */\n      0x04\n        /* \"#utility.yul\":9177:9192   */\n      mstore\n        /* \"#utility.yul\":9211:9215   */\n      0x24\n        /* \"#utility.yul\":9208:9209   */\n      0x00\n        /* \"#utility.yul\":9201:9216   */\n      revert\n        /* \"#utility.yul\":9228:9413   */\n    tag_123:\n        /* \"#utility.yul\":9268:9269   */\n      0x00\n        /* \"#utility.yul\":9285:9305   */\n      tag_447\n        /* \"#utility.yul\":9303:9304   */\n      dup3\n        /* \"#utility.yul\":9285:9305   */\n      tag_301\n      jump\t// in\n    tag_447:\n        /* \"#utility.yul\":9280:9305   */\n      swap2\n      pop\n        /* \"#utility.yul\":9319:9339   */\n      tag_448\n        /* \"#utility.yul\":9337:9338   */\n      dup4\n        /* \"#utility.yul\":9319:9339   */\n      tag_301\n      jump\t// in\n    tag_448:\n        /* \"#utility.yul\":9314:9339   */\n      swap3\n      pop\n        /* \"#utility.yul\":9358:9359   */\n      dup3\n        /* \"#utility.yul\":9348:9383   */\n      tag_449\n      jumpi\n        /* \"#utility.yul\":9363:9381   */\n      tag_450\n      tag_328\n      jump\t// in\n    tag_450:\n        /* \"#utility.yul\":9348:9383   */\n    tag_449:\n        /* \"#utility.yul\":9405:9406   */\n      dup3\n        /* \"#utility.yul\":9402:9403   */\n      dup3\n        /* \"#utility.yul\":9398:9407   */\n      div\n        /* \"#utility.yul\":9393:9407   */\n      swap1\n      pop\n        /* \"#utility.yul\":9228:9413   */\n      swap3\n      swap2\n      pop\n      pop\n      jump\t// out\n        /* \"#utility.yul\":9419:9610   */\n    tag_127:\n        /* \"#utility.yul\":9459:9462   */\n      0x00\n        /* \"#utility.yul\":9478:9498   */\n      tag_452\n        /* \"#utility.yul\":9496:9497   */\n      dup3\n        /* \"#utility.yul\":9478:9498   */\n      tag_301\n      jump\t// in\n    tag_452:\n        /* \"#utility.yul\":9473:9498   */\n      swap2\n      pop\n        /* \"#utility.yul\":9512:9532   */\n      tag_453\n        /* \"#utility.yul\":9530:9531   */\n      dup4\n        /* \"#utility.yul\":9512:9532   */\n      tag_301\n      jump\t// in\n    tag_453:\n        /* \"#utility.yul\":9507:9532   */\n      swap3\n      pop\n        /* \"#utility.yul\":9555:9556   */\n      dup3\n        /* \"#utility.yul\":9552:9553   */\n      dup3\n        /* \"#utility.yul\":9548:9557   */\n      add\n        /* \"#utility.yul\":9541:9557   */\n      swap1\n      pop\n        /* \"#utility.yul\":9576:9579   */\n      dup1\n        /* \"#utility.yul\":9573:9574   */\n      dup3\n        /* \"#utility.yul\":9570:9580   */\n      gt\n        /* \"#utility.yul\":9567:9603   */\n      iszero\n      tag_454\n      jumpi\n        /* \"#utility.yul\":9583:9601   */\n      tag_455\n      tag_327\n      jump\t// in\n    tag_455:\n        /* \"#utility.yul\":9567:9603   */\n    tag_454:\n        /* \"#utility.yul\":9419:9610   */\n      swap3\n      swap2\n      pop\n      pop\n      jump\t// out\n        /* \"#utility.yul\":9616:9810   */\n    tag_131:\n        /* \"#utility.yul\":9656:9660   */\n      0x00\n        /* \"#utility.yul\":9676:9696   */\n      tag_457\n        /* \"#utility.yul\":9694:9695   */\n      dup3\n        /* \"#utility.yul\":9676:9696   */\n      tag_301\n      jump\t// in\n    tag_457:\n        /* \"#utility.yul\":9671:9696   */\n      swap2\n      pop\n        /* \"#utility.yul\":9710:9730   */\n      tag_458\n        /* \"#utility.yul\":9728:9729   */\n      dup4\n        /* \"#utility.yul\":9710:9730   */\n      tag_301\n      jump\t// in\n    tag_458:\n        /* \"#utility.yul\":9705:9730   */\n      swap3\n      pop\n        /* \"#utility.yul\":9754:9755   */\n      dup3\n        /* \"#utility.yul\":9751:9752   */\n      dup3\n        /* \"#utility.yul\":9747:9756   */\n      sub\n        /* \"#utility.yul\":9739:9756   */\n      swap1\n      pop\n        /* \"#utility.yul\":9778:9779   */\n      dup2\n        /* \"#utility.yul\":9772:9776   */\n      dup2\n        /* \"#utility.yul\":9769:9780   */\n      gt\n        /* \"#utility.yul\":9766:9803   */\n      iszero\n      tag_459\n      jumpi\n        /* \"#utility.yul\":9783:9801   */\n      tag_460\n      tag_327\n      jump\t// in\n    tag_460:\n        /* \"#utility.yul\":9766:9803   */\n    tag_459:\n        /* \"#utility.yul\":9616:9810   */\n      swap3\n      swap2\n      pop\n      pop\n      jump\t// out\n        /* \"#utility.yul\":9816:9985   */\n    tag_329:\n        /* \"#utility.yul\":9900:9911   */\n      0x00\n        /* \"#utility.yul\":9934:9940   */\n      dup3\n        /* \"#utility.yul\":9929:9932   */\n      dup3\n        /* \"#utility.yul\":9922:9941   */\n      mstore\n        /* \"#utility.yul\":9974:9978   */\n      0x20\n        /* \"#utility.yul\":9969:9972   */\n      dup3\n        /* \"#utility.yul\":9965:9979   */\n      add\n        /* \"#utility.yul\":9950:9979   */\n      swap1\n      pop\n        /* \"#utility.yul\":9816:9985   */\n      swap3\n      swap2\n      pop\n      pop\n      jump\t// out\n        /* \"#utility.yul\":9991:10159   */\n    tag_330:\n        /* \"#utility.yul\":10131:10151   */\n      0x77697468647261773a206e6f7420676f6f640000000000000000000000000000\n        /* \"#utility.yul\":10127:10128   */\n      0x00\n        /* \"#utility.yul\":10119:10125   */\n      dup3\n        /* \"#utility.yul\":10115:10129   */\n      add\n        /* \"#utility.yul\":10108:10152   */\n      mstore\n        /* \"#utility.yul\":9991:10159   */\n      pop\n      jump\t// out\n        /* \"#utility.yul\":10165:10531   */\n    tag_331:\n        /* \"#utility.yul\":10307:10310   */\n      0x00\n        /* \"#utility.yul\":10328:10395   */\n      tag_464\n        /* \"#utility.yul\":10392:10394   */\n      0x12\n        /* \"#utility.yul\":10387:10390   */\n      dup4\n        /* \"#utility.yul\":10328:10395   */\n      tag_329\n      jump\t// in\n    tag_464:\n        /* \"#utility.yul\":10321:10395   */\n      swap2\n      pop\n        /* \"#utility.yul\":10404:10497   */\n      tag_465\n        /* \"#utility.yul\":10493:10496   */\n      dup3\n        /* \"#utility.yul\":10404:10497   */\n      tag_330\n      jump\t// in\n    tag_465:\n        /* \"#utility.yul\":10522:10524   */\n      0x20\n        /* \"#utility.yul\":10517:10520   */\n      dup3\n        /* \"#utility.yul\":10513:10525   */\n      add\n        /* \"#utility.yul\":10506:10525   */\n      swap1\n      pop\n        /* \"#utility.yul\":10165:10531   */\n      swap2\n      swap1\n      pop\n      jump\t// out\n        /* \"#utility.yul\":10537:10956   */\n    tag_148:\n        /* \"#utility.yul\":10703:10707   */\n      0x00\n        /* \"#utility.yul\":10741:10743   */\n      0x20\n        /* \"#utility.yul\":10730:10739   */\n      dup3\n        /* \"#utility.yul\":10726:10744   */\n      add\n        /* \"#utility.yul\":10718:10744   */\n      swap1\n      pop\n        /* \"#utility.yul\":10790:10799   */\n      dup2\n        /* \"#utility.yul\":10784:10788   */\n      dup2\n        /* \"#utility.yul\":10780:10800   */\n      sub\n        /* \"#utility.yul\":10776:10777   */\n      0x00\n        /* \"#utility.yul\":10765:10774   */\n      dup4\n        /* \"#utility.yul\":10761:10778   */\n      add\n        /* \"#utility.yul\":10754:10801   */\n      mstore\n        /* \"#utility.yul\":10818:10949   */\n      tag_467\n        /* \"#utility.yul\":10944:10948   */\n      dup2\n        /* \"#utility.yul\":10818:10949   */\n      tag_331\n      jump\t// in\n    tag_467:\n        /* \"#utility.yul\":10810:10949   */\n      swap1\n      pop\n        /* \"#utility.yul\":10537:10956   */\n      swap2\n      swap1\n      pop\n      jump\t// out\n        /* \"#utility.yul\":10962:11294   */\n    tag_176:\n        /* \"#utility.yul\":11083:11087   */\n      0x00\n        /* \"#utility.yul\":11121:11123   */\n      0x40\n        /* \"#utility.yul\":11110:11119   */\n      dup3\n        /* \"#utility.yul\":11106:11124   */\n      add\n        /* \"#utility.yul\":11098:11124   */\n      swap1\n      pop\n        /* \"#utility.yul\":11134:11205   */\n      tag_469\n        /* \"#utility.yul\":11202:11203   */\n      0x00\n        /* \"#utility.yul\":11191:11200   */\n      dup4\n        /* \"#utility.yul\":11187:11204   */\n      add\n        /* \"#utility.yul\":11178:11184   */\n      dup6\n        /* \"#utility.yul\":11134:11205   */\n      tag_325\n      jump\t// in\n    tag_469:\n        /* \"#utility.yul\":11215:11287   */\n      tag_470\n        /* \"#utility.yul\":11283:11285   */\n      0x20\n        /* \"#utility.yul\":11272:11281   */\n      dup4\n        /* \"#utility.yul\":11268:11286   */\n      add\n        /* \"#utility.yul\":11259:11265   */\n      dup5\n        /* \"#utility.yul\":11215:11287   */\n      tag_302\n      jump\t// in\n    tag_470:\n        /* \"#utility.yul\":10962:11294   */\n      swap4\n      swap3\n      pop\n      pop\n      pop\n      jump\t// out\n        /* \"#utility.yul\":11300:11437   */\n    tag_332:\n        /* \"#utility.yul\":11354:11359   */\n      0x00\n        /* \"#utility.yul\":11385:11391   */\n      dup2\n        /* \"#utility.yul\":11379:11392   */\n      mload\n        /* \"#utility.yul\":11370:11392   */\n      swap1\n      pop\n        /* \"#utility.yul\":11401:11431   */\n      tag_472\n        /* \"#utility.yul\":11425:11430   */\n      dup2\n        /* \"#utility.yul\":11401:11431   */\n      tag_323\n      jump\t// in\n    tag_472:\n        /* \"#utility.yul\":11300:11437   */\n      swap3\n      swap2\n      pop\n      pop\n      jump\t// out\n        /* \"#utility.yul\":11443:11788   */\n    tag_254:\n        /* \"#utility.yul\":11510:11516   */\n      0x00\n        /* \"#utility.yul\":11559:11561   */\n      0x20\n        /* \"#utility.yul\":11547:11556   */\n      dup3\n        /* \"#utility.yul\":11538:11545   */\n      dup5\n        /* \"#utility.yul\":11534:11557   */\n      sub\n        /* \"#utility.yul\":11530:11562   */\n      slt\n        /* \"#utility.yul\":11527:11646   */\n      iszero\n      tag_474\n      jumpi\n        /* \"#utility.yul\":11565:11644   */\n      tag_475\n      tag_310\n      jump\t// in\n    tag_475:\n        /* \"#utility.yul\":11527:11646   */\n    tag_474:\n        /* \"#utility.yul\":11685:11686   */\n      0x00\n        /* \"#utility.yul\":11710:11771   */\n      tag_476\n        /* \"#utility.yul\":11763:11770   */\n      dup5\n        /* \"#utility.yul\":11754:11760   */\n      dup3\n        /* \"#utility.yul\":11743:11752   */\n      dup6\n        /* \"#utility.yul\":11739:11761   */\n      add\n        /* \"#utility.yul\":11710:11771   */\n      tag_332\n      jump\t// in\n    tag_476:\n        /* \"#utility.yul\":11700:11771   */\n      swap2\n      pop\n        /* \"#utility.yul\":11656:11781   */\n      pop\n        /* \"#utility.yul\":11443:11788   */\n      swap3\n      swap2\n      pop\n      pop\n      jump\t// out\n        /* \"#utility.yul\":11794:12236   */\n    tag_268:\n        /* \"#utility.yul\":11943:11947   */\n      0x00\n        /* \"#utility.yul\":11981:11983   */\n      0x60\n        /* \"#utility.yul\":11970:11979   */\n      dup3\n        /* \"#utility.yul\":11966:11984   */\n      add\n        /* \"#utility.yul\":11958:11984   */\n      swap1\n      pop\n        /* \"#utility.yul\":11994:12065   */\n      tag_478\n        /* \"#utility.yul\":12062:12063   */\n      0x00\n        /* \"#utility.yul\":12051:12060   */\n      dup4\n        /* \"#utility.yul\":12047:12064   */\n      add\n        /* \"#utility.yul\":12038:12044   */\n      dup7\n        /* \"#utility.yul\":11994:12065   */\n      tag_325\n      jump\t// in\n    tag_478:\n        /* \"#utility.yul\":12075:12147   */\n      tag_479\n        /* \"#utility.yul\":12143:12145   */\n      0x20\n        /* \"#utility.yul\":12132:12141   */\n      dup4\n        /* \"#utility.yul\":12128:12146   */\n      add\n        /* \"#utility.yul\":12119:12125   */\n      dup6\n        /* \"#utility.yul\":12075:12147   */\n      tag_325\n      jump\t// in\n    tag_479:\n        /* \"#utility.yul\":12157:12229   */\n      tag_480\n        /* \"#utility.yul\":12225:12227   */\n      0x40\n        /* \"#utility.yul\":12214:12223   */\n      dup4\n        /* \"#utility.yul\":12210:12228   */\n      add\n        /* \"#utility.yul\":12201:12207   */\n      dup5\n        /* \"#utility.yul\":12157:12229   */\n      tag_302\n      jump\t// in\n    tag_480:\n        /* \"#utility.yul\":11794:12236   */\n      swap5\n      swap4\n      pop\n      pop\n      pop\n      pop\n      jump\t// out\n        /* \"#utility.yul\":12242:12340   */\n    tag_333:\n        /* \"#utility.yul\":12293:12299   */\n      0x00\n        /* \"#utility.yul\":12327:12332   */\n      dup2\n        /* \"#utility.yul\":12321:12333   */\n      mload\n        /* \"#utility.yul\":12311:12333   */\n      swap1\n      pop\n        /* \"#utility.yul\":12242:12340   */\n      swap2\n      swap1\n      pop\n      jump\t// out\n        /* \"#utility.yul\":12346:12493   */\n    tag_334:\n        /* \"#utility.yul\":12447:12458   */\n      0x00\n        /* \"#utility.yul\":12484:12487   */\n      dup2\n        /* \"#utility.yul\":12469:12487   */\n      swap1\n      pop\n        /* \"#utility.yul\":12346:12493   */\n      swap3\n      swap2\n      pop\n      pop\n      jump\t// out\n        /* \"#utility.yul\":12499:12638   */\n    tag_335:\n        /* \"#utility.yul\":12588:12594   */\n      dup3\n        /* \"#utility.yul\":12583:12586   */\n      dup2\n        /* \"#utility.yul\":12578:12581   */\n      dup4\n        /* \"#utility.yul\":12572:12595   */\n      mcopy\n        /* \"#utility.yul\":12629:12630   */\n      0x00\n        /* \"#utility.yul\":12620:12626   */\n      dup4\n        /* \"#utility.yul\":12615:12618   */\n      dup4\n        /* \"#utility.yul\":12611:12627   */\n      add\n        /* \"#utility.yul\":12604:12631   */\n      mstore\n        /* \"#utility.yul\":12499:12638   */\n      pop\n      pop\n      pop\n      jump\t// out\n        /* \"#utility.yul\":12644:13030   */\n    tag_336:\n        /* \"#utility.yul\":12748:12751   */\n      0x00\n        /* \"#utility.yul\":12776:12814   */\n      tag_485\n        /* \"#utility.yul\":12808:12813   */\n      dup3\n        /* \"#utility.yul\":12776:12814   */\n      tag_333\n      jump\t// in\n    tag_485:\n        /* \"#utility.yul\":12830:12918   */\n      tag_486\n        /* \"#utility.yul\":12911:12917   */\n      dup2\n        /* \"#utility.yul\":12906:12909   */\n      dup6\n        /* \"#utility.yul\":12830:12918   */\n      tag_334\n      jump\t// in\n    tag_486:\n        /* \"#utility.yul\":12823:12918   */\n      swap4\n      pop\n        /* \"#utility.yul\":12927:12992   */\n      tag_487\n        /* \"#utility.yul\":12985:12991   */\n      dup2\n        /* \"#utility.yul\":12980:12983   */\n      dup6\n        /* \"#utility.yul\":12973:12977   */\n      0x20\n        /* \"#utility.yul\":12966:12971   */\n      dup7\n        /* \"#utility.yul\":12962:12978   */\n      add\n        /* \"#utility.yul\":12927:12992   */\n      tag_335\n      jump\t// in\n    tag_487:\n        /* \"#utility.yul\":13017:13023   */\n      dup1\n        /* \"#utility.yul\":13012:13015   */\n      dup5\n        /* \"#utility.yul\":13008:13024   */\n      add\n        /* \"#utility.yul\":13001:13024   */\n      swap2\n      pop\n        /* \"#utility.yul\":12752:13030   */\n      pop\n        /* \"#utility.yul\":12644:13030   */\n      swap3\n      swap2\n      pop\n      pop\n      jump\t// out\n        /* \"#utility.yul\":13036:13307   */\n    tag_284:\n        /* \"#utility.yul\":13166:13169   */\n      0x00\n        /* \"#utility.yul\":13188:13281   */\n      tag_489\n        /* \"#utility.yul\":13277:13280   */\n      dup3\n        /* \"#utility.yul\":13268:13274   */\n      dup5\n        /* \"#utility.yul\":13188:13281   */\n      tag_336\n      jump\t// in\n    tag_489:\n        /* \"#utility.yul\":13181:13281   */\n      swap2\n      pop\n        /* \"#utility.yul\":13298:13301   */\n      dup2\n        /* \"#utility.yul\":13291:13301   */\n      swap1\n      pop\n        /* \"#utility.yul\":13036:13307   */\n      swap3\n      swap2\n      pop\n      pop\n      jump\t// out\n\n    auxdata: 0xa2646970667358221220b8da0b748cdbac6e174bd8d941477dfe73b216621c116b62b9d457f16492762564736f6c634300081b0033\n}\n",
				"bytecode": {
					"linkReferences": {},
					"object": "60806040525f600655348015610013575f5ffd5b5060405161202a38038061202a8339818101604052810190610035919061026f565b335f73ffffffffffffffffffffffffffffffffffffffff168173ffffffffffffffffffffffffffffffffffffffff16036100a6575f6040517f1e4fbdf700000000000000000000000000000000000000000000000000000000815260040161009d91906102ce565b60405180910390fd5b6100b58161010c60201b60201c565b508260015f6101000a81548173ffffffffffffffffffffffffffffffffffffffff021916908373ffffffffffffffffffffffffffffffffffffffff16021790555081600381905550806007819055505050506102e7565b5f5f5f9054906101000a900473ffffffffffffffffffffffffffffffffffffffff169050815f5f6101000a81548173ffffffffffffffffffffffffffffffffffffffff021916908373ffffffffffffffffffffffffffffffffffffffff1602179055508173ffffffffffffffffffffffffffffffffffffffff168173ffffffffffffffffffffffffffffffffffffffff167f8be0079c531659141344cd1fd0a4f28419497f9722a3daafe3b4186f6b6457e060405160405180910390a35050565b5f5ffd5b5f73ffffffffffffffffffffffffffffffffffffffff82169050919050565b5f6101fa826101d1565b9050919050565b5f61020b826101f0565b9050919050565b61021b81610201565b8114610225575f5ffd5b50565b5f8151905061023681610212565b92915050565b5f819050919050565b61024e8161023c565b8114610258575f5ffd5b50565b5f8151905061026981610245565b92915050565b5f5f5f60608486031215610286576102856101cd565b5b5f61029386828701610228565b93505060206102a48682870161025b565b92505060406102b58682870161025b565b9150509250925092565b6102c8816101f0565b82525050565b5f6020820190506102e15f8301846102bf565b92915050565b611d36806102f45f395ff3fe608060405234801561000f575f5ffd5b5060043610610135575f3560e01c80635312ea8e116100b65780638da5cb5b1161007a5780638da5cb5b146102f05780638dbb1e3a1461030e57806393f1a40b1461033e578063b0bcf42a1461036f578063e2bbb1581461038d578063f2fde38b146103a957610135565b80635312ea8e14610286578063630b5ba1146102a257806364482f79146102ac578063715018a6146102c85780638aa28550146102d257610135565b80631aed6553116100fd5780631aed6553146101f65780631eaaa04514610214578063441a3e701461023057806348cd4cb11461024c57806351eb05a61461026a57610135565b8063081e3eda146101395780630a087903146101575780631526fe271461017557806317caf6f1146101a8578063195426ec146101c6575b5f5ffd5b6101416103c5565b60405161014e919061163f565b60405180910390f35b61015f6103d1565b60405161016c91906116d2565b60405180910390f35b61018f600480360381019061018a9190611719565b6103f6565b60405161019f9493929190611764565b60405180910390f35b6101b0610450565b6040516101bd919061163f565b60405180910390f35b6101e060048036038101906101db91906117e2565b610456565b6040516101ed919061163f565b60405180910390f35b6101fe61062a565b60405161020b919061163f565b60405180910390f35b61022e60048036038101906102299190611890565b610630565b005b61024a600480360381019061024591906118e0565b61073a565b005b61025461091e565b604051610261919061163f565b60405180910390f35b610284600480360381019061027f9190611719565b610924565b005b6102a0600480360381019061029b9190611719565b610b17565b005b6102aa610c41565b005b6102c660048036038101906102c1919061191e565b610c6f565b005b6102d0610cf5565b005b6102da610d08565b6040516102e7919061163f565b60405180910390f35b6102f8610d0d565b604051610305919061197d565b60405180910390f35b610328600480360381019061032391906118e0565b610d34565b604051610335919061163f565b60405180910390f35b610358600480360381019061035391906117e2565b610d49565b604051610366929190611996565b60405180910390f35b610377610d74565b604051610384919061163f565b60405180910390f35b6103a760048036038101906103a291906118e0565b610d7a565b005b6103c360048036038101906103be91906119bd565b610f26565b005b5f600480549050905090565b60015f9054906101000a900473ffffffffffffffffffffffffffffffffffffffff1681565b60048181548110610405575f80fd5b905f5260205f2090600402015f91509050805f015f9054906101000a900473ffffffffffffffffffffffffffffffffffffffff16908060010154908060020154908060030154905084565b60065481565b5f5f6004848154811061046c5761046b6119e8565b5b905f5260205f20906004020190505f60055f8681526020019081526020015f205f8573ffffffffffffffffffffffffffffffffffffffff1673ffffffffffffffffffffffffffffffffffffffff1681526020019081526020015f2090505f826003015490505f835f015f9054906101000a900473ffffffffffffffffffffffffffffffffffffffff1673ffffffffffffffffffffffffffffffffffffffff166370a08231306040518263ffffffff1660e01b815260040161052d919061197d565b602060405180830381865afa158015610548573d5f5f3e3d5ffd5b505050506040513d601f19601f8201168201806040525081019061056c9190611a29565b905083600201544311801561058157505f8114155b156105f0575f610595856002015443610d34565b90505f6006548660010154600354846105ae9190611a81565b6105b89190611a81565b6105c29190611aef565b90508264e8d4a51000826105d69190611a81565b6105e09190611aef565b846105eb9190611b1f565b935050505b826001015464e8d4a5100083855f015461060a9190611a81565b6106149190611aef565b61061e9190611b52565b94505050505092915050565b60025481565b610638610faa565b801561064757610646610c41565b5b5f60075443116106595760075461065b565b435b90508360065461066b9190611b1f565b600681905550600460405180608001604052808573ffffffffffffffffffffffffffffffffffffffff1681526020018681526020018381526020015f815250908060018154018082558091505060019003905f5260205f2090600402015f909190919091505f820151815f015f6101000a81548173ffffffffffffffffffffffffffffffffffffffff021916908373ffffffffffffffffffffffffffffffffffffffff160217905550602082015181600101556040820151816002015560608201518160030155505050505050565b5f6004838154811061074f5761074e6119e8565b5b905f5260205f20906004020190505f60055f8581526020019081526020015f205f3373ffffffffffffffffffffffffffffffffffffffff1673ffffffffffffffffffffffffffffffffffffffff1681526020019081526020015f20905082815f015410156107f2576040517f08c379a00000000000000000000000000000000000000000000000000000000081526004016107e990611bdf565b60405180910390fd5b6107fb84610924565b5f816001015464e8d4a510008460030154845f015461081a9190611a81565b6108249190611aef565b61082e9190611b52565b905061083a3382611031565b83825f01546108499190611b52565b825f018190555064e8d4a510008360030154835f01546108699190611a81565b6108739190611aef565b82600101819055506108c83385855f015f9054906101000a900473ffffffffffffffffffffffffffffffffffffffff1673ffffffffffffffffffffffffffffffffffffffff1661121a9092919063ffffffff16565b843373ffffffffffffffffffffffffffffffffffffffff167ff279e6a1f5e320cca91135676d9cb6e44ca8a08c0b88342bcdb1144f6511b5688660405161090f919061163f565b60405180910390a35050505050565b60075481565b5f60048281548110610939576109386119e8565b5b905f5260205f2090600402019050806002015443116109585750610b14565b5f815f015f9054906101000a900473ffffffffffffffffffffffffffffffffffffffff1673ffffffffffffffffffffffffffffffffffffffff166370a08231306040518263ffffffff1660e01b81526004016109b4919061197d565b602060405180830381865afa1580156109cf573d5f5f3e3d5ffd5b505050506040513d601f19601f820116820180604052508101906109f39190611a29565b90505f8103610a0c574382600201819055505050610b14565b5f610a1b836002015443610d34565b90505f600654846001015460035484610a349190611a81565b610a3e9190611a81565b610a489190611aef565b905060015f9054906101000a900473ffffffffffffffffffffffffffffffffffffffff1673ffffffffffffffffffffffffffffffffffffffff166340c10f1930836040518363ffffffff1660e01b8152600401610aa6929190611bfd565b5f604051808303815f87803b158015610abd575f5ffd5b505af1158015610acf573d5f5f3e3d5ffd5b505050508264e8d4a5100082610ae59190611a81565b610aef9190611aef565b8460030154610afe9190611b1f565b8460030181905550438460020181905550505050505b50565b5f60048281548110610b2c57610b2b6119e8565b5b905f5260205f20906004020190505f60055f8481526020019081526020015f205f3373ffffffffffffffffffffffffffffffffffffffff1673ffffffffffffffffffffffffffffffffffffffff1681526020019081526020015f209050610bd933825f0154845f015f9054906101000a900473ffffffffffffffffffffffffffffffffffffffff1673ffffffffffffffffffffffffffffffffffffffff1661121a9092919063ffffffff16565b823373ffffffffffffffffffffffffffffffffffffffff167fbb757047c2b5f3974fe26b7c10f732e7bce710b0952a71082702781e62ae0595835f0154604051610c23919061163f565b60405180910390a35f815f01819055505f8160010181905550505050565b5f60048054905090505f5f90505b81811015610c6b57610c6081610924565b806001019050610c4f565b5050565b610c77610faa565b8015610c8657610c85610c41565b5b8160048481548110610c9b57610c9a6119e8565b5b905f5260205f20906004020160010154600654610cb89190611b52565b610cc29190611b1f565b6006819055508160048481548110610cdd57610cdc6119e8565b5b905f5260205f20906004020160010181905550505050565b610cfd610faa565b610d065f611299565b565b600a81565b5f5f5f9054906101000a900473ffffffffffffffffffffffffffffffffffffffff16905090565b5f8282610d419190611b52565b905092915050565b6005602052815f5260405f20602052805f5260405f205f9150915050805f0154908060010154905082565b60035481565b5f60048381548110610d8f57610d8e6119e8565b5b905f5260205f20906004020190505f60055f8581526020019081526020015f205f3373ffffffffffffffffffffffffffffffffffffffff1673ffffffffffffffffffffffffffffffffffffffff1681526020019081526020015f209050610df584610924565b5f815f01541115610e41575f816001015464e8d4a510008460030154845f0154610e1f9190611a81565b610e299190611aef565b610e339190611b52565b9050610e3f3382611031565b505b610e90333085855f015f9054906101000a900473ffffffffffffffffffffffffffffffffffffffff1673ffffffffffffffffffffffffffffffffffffffff1661135a909392919063ffffffff16565b82815f0154610e9f9190611b1f565b815f018190555064e8d4a510008260030154825f0154610ebf9190611a81565b610ec99190611aef565b8160010181905550833373ffffffffffffffffffffffffffffffffffffffff167f90890809c654f11d6e72a28fa60149770a0d11ec6c92319d6ceb2bb0a4ea1a1585604051610f18919061163f565b60405180910390a350505050565b610f2e610faa565b5f73ffffffffffffffffffffffffffffffffffffffff168173ffffffffffffffffffffffffffffffffffffffff1603610f9e575f6040517f1e4fbdf7000000000000000000000000000000000000000000000000000000008152600401610f95919061197d565b60405180910390fd5b610fa781611299565b50565b610fb26113dc565b73ffffffffffffffffffffffffffffffffffffffff16610fd0610d0d565b73ffffffffffffffffffffffffffffffffffffffff161461102f57610ff36113dc565b6040517f118cdaa7000000000000000000000000000000000000000000000000000000008152600401611026919061197d565b60405180910390fd5b565b5f60015f9054906101000a900473ffffffffffffffffffffffffffffffffffffffff1673ffffffffffffffffffffffffffffffffffffffff166370a08231306040518263ffffffff1660e01b815260040161108c919061197d565b602060405180830381865afa1580156110a7573d5f5f3e3d5ffd5b505050506040513d601f19601f820116820180604052508101906110cb9190611a29565b9050808211156111775760015f9054906101000a900473ffffffffffffffffffffffffffffffffffffffff1673ffffffffffffffffffffffffffffffffffffffff1663a9059cbb84836040518363ffffffff1660e01b8152600401611131929190611bfd565b6020604051808303815f875af115801561114d573d5f5f3e3d5ffd5b505050506040513d601f19601f820116820180604052508101906111719190611c38565b50611215565b60015f9054906101000a900473ffffffffffffffffffffffffffffffffffffffff1673ffffffffffffffffffffffffffffffffffffffff1663a9059cbb84846040518363ffffffff1660e01b81526004016111d3929190611bfd565b6020604051808303815f875af11580156111ef573d5f5f3e3d5ffd5b505050506040513d601f19601f820116820180604052508101906112139190611c38565b505b505050565b611294838473ffffffffffffffffffffffffffffffffffffffff1663a9059cbb858560405160240161124d929190611bfd565b604051602081830303815290604052915060e01b6020820180517bffffffffffffffffffffffffffffffffffffffffffffffffffffffff83818316178352505050506113e3565b505050565b5f5f5f9054906101000a900473ffffffffffffffffffffffffffffffffffffffff169050815f5f6101000a81548173ffffffffffffffffffffffffffffffffffffffff021916908373ffffffffffffffffffffffffffffffffffffffff1602179055508173ffffffffffffffffffffffffffffffffffffffff168173ffffffffffffffffffffffffffffffffffffffff167f8be0079c531659141344cd1fd0a4f28419497f9722a3daafe3b4186f6b6457e060405160405180910390a35050565b6113d6848573ffffffffffffffffffffffffffffffffffffffff166323b872dd86868660405160240161138f93929190611c63565b604051602081830303815290604052915060e01b6020820180517bffffffffffffffffffffffffffffffffffffffffffffffffffffffff83818316178352505050506113e3565b50505050565b5f33905090565b5f61140d828473ffffffffffffffffffffffffffffffffffffffff1661147890919063ffffffff16565b90505f81511415801561143157508080602001905181019061142f9190611c38565b155b1561147357826040517f5274afe700000000000000000000000000000000000000000000000000000000815260040161146a919061197d565b60405180910390fd5b505050565b606061148583835f61148d565b905092915050565b6060814710156114d457306040517fcd7860590000000000000000000000000000000000000000000000000000000081526004016114cb919061197d565b60405180910390fd5b5f5f8573ffffffffffffffffffffffffffffffffffffffff1684866040516114fc9190611cea565b5f6040518083038185875af1925050503d805f8114611536576040519150601f19603f3d011682016040523d82523d5f602084013e61153b565b606091505b509150915061154b868383611556565b925050509392505050565b60608261156b57611566826115e3565b6115db565b5f825114801561159157505f8473ffffffffffffffffffffffffffffffffffffffff163b145b156115d357836040517f9996b3150000000000000000000000000000000000000000000000000000000081526004016115ca919061197d565b60405180910390fd5b8190506115dc565b5b9392505050565b5f815111156115f55780518082602001fd5b6040517f1425ea4200000000000000000000000000000000000000000000000000000000815260040160405180910390fd5b5f819050919050565b61163981611627565b82525050565b5f6020820190506116525f830184611630565b92915050565b5f73ffffffffffffffffffffffffffffffffffffffff82169050919050565b5f819050919050565b5f61169a61169561169084611658565b611677565b611658565b9050919050565b5f6116ab82611680565b9050919050565b5f6116bc826116a1565b9050919050565b6116cc816116b2565b82525050565b5f6020820190506116e55f8301846116c3565b92915050565b5f5ffd5b6116f881611627565b8114611702575f5ffd5b50565b5f81359050611713816116ef565b92915050565b5f6020828403121561172e5761172d6116eb565b5b5f61173b84828501611705565b91505092915050565b5f61174e826116a1565b9050919050565b61175e81611744565b82525050565b5f6080820190506117775f830187611755565b6117846020830186611630565b6117916040830185611630565b61179e6060830184611630565b95945050505050565b5f6117b182611658565b9050919050565b6117c1816117a7565b81146117cb575f5ffd5b50565b5f813590506117dc816117b8565b92915050565b5f5f604083850312156117f8576117f76116eb565b5b5f61180585828601611705565b9250506020611816858286016117ce565b9150509250929050565b5f61182a826117a7565b9050919050565b61183a81611820565b8114611844575f5ffd5b50565b5f8135905061185581611831565b92915050565b5f8115159050919050565b61186f8161185b565b8114611879575f5ffd5b50565b5f8135905061188a81611866565b92915050565b5f5f5f606084860312156118a7576118a66116eb565b5b5f6118b486828701611705565b93505060206118c586828701611847565b92505060406118d68682870161187c565b9150509250925092565b5f5f604083850312156118f6576118f56116eb565b5b5f61190385828601611705565b925050602061191485828601611705565b9150509250929050565b5f5f5f60608486031215611935576119346116eb565b5b5f61194286828701611705565b935050602061195386828701611705565b92505060406119648682870161187c565b9150509250925092565b611977816117a7565b82525050565b5f6020820190506119905f83018461196e565b92915050565b5f6040820190506119a95f830185611630565b6119b66020830184611630565b9392505050565b5f602082840312156119d2576119d16116eb565b5b5f6119df848285016117ce565b91505092915050565b7f4e487b71000000000000000000000000000000000000000000000000000000005f52603260045260245ffd5b5f81519050611a23816116ef565b92915050565b5f60208284031215611a3e57611a3d6116eb565b5b5f611a4b84828501611a15565b91505092915050565b7f4e487b71000000000000000000000000000000000000000000000000000000005f52601160045260245ffd5b5f611a8b82611627565b9150611a9683611627565b9250828202611aa481611627565b91508282048414831517611abb57611aba611a54565b5b5092915050565b7f4e487b71000000000000000000000000000000000000000000000000000000005f52601260045260245ffd5b5f611af982611627565b9150611b0483611627565b925082611b1457611b13611ac2565b5b828204905092915050565b5f611b2982611627565b9150611b3483611627565b9250828201905080821115611b4c57611b4b611a54565b5b92915050565b5f611b5c82611627565b9150611b6783611627565b9250828203905081811115611b7f57611b7e611a54565b5b92915050565b5f82825260208201905092915050565b7f77697468647261773a206e6f7420676f6f6400000000000000000000000000005f82015250565b5f611bc9601283611b85565b9150611bd482611b95565b602082019050919050565b5f6020820190508181035f830152611bf681611bbd565b9050919050565b5f604082019050611c105f83018561196e565b611c1d6020830184611630565b9392505050565b5f81519050611c3281611866565b92915050565b5f60208284031215611c4d57611c4c6116eb565b5b5f611c5a84828501611c24565b91505092915050565b5f606082019050611c765f83018661196e565b611c83602083018561196e565b611c906040830184611630565b949350505050565b5f81519050919050565b5f81905092915050565b8281835e5f83830152505050565b5f611cc482611c98565b611cce8185611ca2565b9350611cde818560208601611cac565b80840191505092915050565b5f611cf58284611cba565b91508190509291505056fea2646970667358221220b8da0b748cdbac6e174bd8d941477dfe73b216621c116b62b9d457f16492762564736f6c634300081b0033",
					"opcodes": "PUSH1 0x80 PUSH1 0x40 MSTORE PUSH0 PUSH1 0x6 SSTORE CALLVALUE DUP1 ISZERO PUSH2 0x13 JUMPI PUSH0 PUSH0 REVERT JUMPDEST POP PUSH1 0x40 MLOAD PUSH2 0x202A CODESIZE SUB DUP1 PUSH2 0x202A DUP4 CODECOPY DUP2 DUP2 ADD PUSH1 0x40 MSTORE DUP2 ADD SWAP1 PUSH2 0x35 SWAP2 SWAP1 PUSH2 0x26F JUMP JUMPDEST CALLER PUSH0 PUSH20 0xFFFFFFFFFFFFFFFFFFFFFFFFFFFFFFFFFFFFFFFF AND DUP2 PUSH20 0xFFFFFFFFFFFFFFFFFFFFFFFFFFFFFFFFFFFFFFFF AND SUB PUSH2 0xA6 JUMPI PUSH0 PUSH1 0x40 MLOAD PUSH32 0x1E4FBDF700000000000000000000000000000000000000000000000000000000 DUP2 MSTORE PUSH1 0x4 ADD PUSH2 0x9D SWAP2 SWAP1 PUSH2 0x2CE JUMP JUMPDEST PUSH1 0x40 MLOAD DUP1 SWAP2 SUB SWAP1 REVERT JUMPDEST PUSH2 0xB5 DUP2 PUSH2 0x10C PUSH1 0x20 SHL PUSH1 0x20 SHR JUMP JUMPDEST POP DUP3 PUSH1 0x1 PUSH0 PUSH2 0x100 EXP DUP2 SLOAD DUP2 PUSH20 0xFFFFFFFFFFFFFFFFFFFFFFFFFFFFFFFFFFFFFFFF MUL NOT AND SWAP1 DUP4 PUSH20 0xFFFFFFFFFFFFFFFFFFFFFFFFFFFFFFFFFFFFFFFF AND MUL OR SWAP1 SSTORE POP DUP2 PUSH1 0x3 DUP2 SWAP1 SSTORE POP DUP1 PUSH1 0x7 DUP2 SWAP1 SSTORE POP POP POP POP PUSH2 0x2E7 JUMP JUMPDEST PUSH0 PUSH0 PUSH0 SWAP1 SLOAD SWAP1 PUSH2 0x100 EXP SWAP1 DIV PUSH20 0xFFFFFFFFFFFFFFFFFFFFFFFFFFFFFFFFFFFFFFFF AND SWAP1 POP DUP2 PUSH0 PUSH0 PUSH2 0x100 EXP DUP2 SLOAD DUP2 PUSH20 0xFFFFFFFFFFFFFFFFFFFFFFFFFFFFFFFFFFFFFFFF MUL NOT AND SWAP1 DUP4 PUSH20 0xFFFFFFFFFFFFFFFFFFFFFFFFFFFFFFFFFFFFFFFF AND MUL OR SWAP1 SSTORE POP DUP2 PUSH20 0xFFFFFFFFFFFFFFFFFFFFFFFFFFFFFFFFFFFFFFFF AND DUP2 PUSH20 0xFFFFFFFFFFFFFFFFFFFFFFFFFFFFFFFFFFFFFFFF AND PUSH32 0x8BE0079C531659141344CD1FD0A4F28419497F9722A3DAAFE3B4186F6B6457E0 PUSH1 0x40 MLOAD PUSH1 0x40 MLOAD DUP1 SWAP2 SUB SWAP1 LOG3 POP POP JUMP JUMPDEST PUSH0 PUSH0 REVERT JUMPDEST PUSH0 PUSH20 0xFFFFFFFFFFFFFFFFFFFFFFFFFFFFFFFFFFFFFFFF DUP3 AND SWAP1 POP SWAP2 SWAP1 POP JUMP JUMPDEST PUSH0 PUSH2 0x1FA DUP3 PUSH2 0x1D1 JUMP JUMPDEST SWAP1 POP SWAP2 SWAP1 POP JUMP JUMPDEST PUSH0 PUSH2 0x20B DUP3 PUSH2 0x1F0 JUMP JUMPDEST SWAP1 POP SWAP2 SWAP1 POP JUMP JUMPDEST PUSH2 0x21B DUP2 PUSH2 0x201 JUMP JUMPDEST DUP2 EQ PUSH2 0x225 JUMPI PUSH0 PUSH0 REVERT JUMPDEST POP JUMP JUMPDEST PUSH0 DUP2 MLOAD SWAP1 POP PUSH2 0x236 DUP2 PUSH2 0x212 JUMP JUMPDEST SWAP3 SWAP2 POP POP JUMP JUMPDEST PUSH0 DUP2 SWAP1 POP SWAP2 SWAP1 POP JUMP JUMPDEST PUSH2 0x24E DUP2 PUSH2 0x23C JUMP JUMPDEST DUP2 EQ PUSH2 0x258 JUMPI PUSH0 PUSH0 REVERT JUMPDEST POP JUMP JUMPDEST PUSH0 DUP2 MLOAD SWAP1 POP PUSH2 0x269 DUP2 PUSH2 0x245 JUMP JUMPDEST SWAP3 SWAP2 POP POP JUMP JUMPDEST PUSH0 PUSH0 PUSH0 PUSH1 0x60 DUP5 DUP7 SUB SLT ISZERO PUSH2 0x286 JUMPI PUSH2 0x285 PUSH2 0x1CD JUMP JUMPDEST JUMPDEST PUSH0 PUSH2 0x293 DUP7 DUP3 DUP8 ADD PUSH2 0x228 JUMP JUMPDEST SWAP4 POP POP PUSH1 0x20 PUSH2 0x2A4 DUP7 DUP3 DUP8 ADD PUSH2 0x25B JUMP JUMPDEST SWAP3 POP POP PUSH1 0x40 PUSH2 0x2B5 DUP7 DUP3 DUP8 ADD PUSH2 0x25B JUMP JUMPDEST SWAP2 POP POP SWAP3 POP SWAP3 POP SWAP3 JUMP JUMPDEST PUSH2 0x2C8 DUP2 PUSH2 0x1F0 JUMP JUMPDEST DUP3 MSTORE POP POP JUMP JUMPDEST PUSH0 PUSH1 0x20 DUP3 ADD SWAP1 POP PUSH2 0x2E1 PUSH0 DUP4 ADD DUP5 PUSH2 0x2BF JUMP JUMPDEST SWAP3 SWAP2 POP POP JUMP JUMPDEST PUSH2 0x1D36 DUP1 PUSH2 0x2F4 PUSH0 CODECOPY PUSH0 RETURN INVALID PUSH1 0x80 PUSH1 0x40 MSTORE CALLVALUE DUP1 ISZERO PUSH2 0xF JUMPI PUSH0 PUSH0 REVERT JUMPDEST POP PUSH1 0x4 CALLDATASIZE LT PUSH2 0x135 JUMPI PUSH0 CALLDATALOAD PUSH1 0xE0 SHR DUP1 PUSH4 0x5312EA8E GT PUSH2 0xB6 JUMPI DUP1 PUSH4 0x8DA5CB5B GT PUSH2 0x7A JUMPI DUP1 PUSH4 0x8DA5CB5B EQ PUSH2 0x2F0 JUMPI DUP1 PUSH4 0x8DBB1E3A EQ PUSH2 0x30E JUMPI DUP1 PUSH4 0x93F1A40B EQ PUSH2 0x33E JUMPI DUP1 PUSH4 0xB0BCF42A EQ PUSH2 0x36F JUMPI DUP1 PUSH4 0xE2BBB158 EQ PUSH2 0x38D JUMPI DUP1 PUSH4 0xF2FDE38B EQ PUSH2 0x3A9 JUMPI PUSH2 0x135 JUMP JUMPDEST DUP1 PUSH4 0x5312EA8E EQ PUSH2 0x286 JUMPI DUP1 PUSH4 0x630B5BA1 EQ PUSH2 0x2A2 JUMPI DUP1 PUSH4 0x64482F79 EQ PUSH2 0x2AC JUMPI DUP1 PUSH4 0x715018A6 EQ PUSH2 0x2C8 JUMPI DUP1 PUSH4 0x8AA28550 EQ PUSH2 0x2D2 JUMPI PUSH2 0x135 JUMP JUMPDEST DUP1 PUSH4 0x1AED6553 GT PUSH2 0xFD JUMPI DUP1 PUSH4 0x1AED6553 EQ PUSH2 0x1F6 JUMPI DUP1 PUSH4 0x1EAAA045 EQ PUSH2 0x214 JUMPI DUP1 PUSH4 0x441A3E70 EQ PUSH2 0x230 JUMPI DUP1 PUSH4 0x48CD4CB1 EQ PUSH2 0x24C JUMPI DUP1 PUSH4 0x51EB05A6 EQ PUSH2 0x26A JUMPI PUSH2 0x135 JUMP JUMPDEST DUP1 PUSH4 0x81E3EDA EQ PUSH2 0x139 JUMPI DUP1 PUSH4 0xA087903 EQ PUSH2 0x157 JUMPI DUP1 PUSH4 0x1526FE27 EQ PUSH2 0x175 JUMPI DUP1 PUSH4 0x17CAF6F1 EQ PUSH2 0x1A8 JUMPI DUP1 PUSH4 0x195426EC EQ PUSH2 0x1C6 JUMPI JUMPDEST PUSH0 PUSH0 REVERT JUMPDEST PUSH2 0x141 PUSH2 0x3C5 JUMP JUMPDEST PUSH1 0x40 MLOAD PUSH2 0x14E SWAP2 SWAP1 PUSH2 0x163F JUMP JUMPDEST PUSH1 0x40 MLOAD DUP1 SWAP2 SUB SWAP1 RETURN JUMPDEST PUSH2 0x15F PUSH2 0x3D1 JUMP JUMPDEST PUSH1 0x40 MLOAD PUSH2 0x16C SWAP2 SWAP1 PUSH2 0x16D2 JUMP JUMPDEST PUSH1 0x40 MLOAD DUP1 SWAP2 SUB SWAP1 RETURN JUMPDEST PUSH2 0x18F PUSH1 0x4 DUP1 CALLDATASIZE SUB DUP2 ADD SWAP1 PUSH2 0x18A SWAP2 SWAP1 PUSH2 0x1719 JUMP JUMPDEST PUSH2 0x3F6 JUMP JUMPDEST PUSH1 0x40 MLOAD PUSH2 0x19F SWAP5 SWAP4 SWAP3 SWAP2 SWAP1 PUSH2 0x1764 JUMP JUMPDEST PUSH1 0x40 MLOAD DUP1 SWAP2 SUB SWAP1 RETURN JUMPDEST PUSH2 0x1B0 PUSH2 0x450 JUMP JUMPDEST PUSH1 0x40 MLOAD PUSH2 0x1BD SWAP2 SWAP1 PUSH2 0x163F JUMP JUMPDEST PUSH1 0x40 MLOAD DUP1 SWAP2 SUB SWAP1 RETURN JUMPDEST PUSH2 0x1E0 PUSH1 0x4 DUP1 CALLDATASIZE SUB DUP2 ADD SWAP1 PUSH2 0x1DB SWAP2 SWAP1 PUSH2 0x17E2 JUMP JUMPDEST PUSH2 0x456 JUMP JUMPDEST PUSH1 0x40 MLOAD PUSH2 0x1ED SWAP2 SWAP1 PUSH2 0x163F JUMP JUMPDEST PUSH1 0x40 MLOAD DUP1 SWAP2 SUB SWAP1 RETURN JUMPDEST PUSH2 0x1FE PUSH2 0x62A JUMP JUMPDEST PUSH1 0x40 MLOAD PUSH2 0x20B SWAP2 SWAP1 PUSH2 0x163F JUMP JUMPDEST PUSH1 0x40 MLOAD DUP1 SWAP2 SUB SWAP1 RETURN JUMPDEST PUSH2 0x22E PUSH1 0x4 DUP1 CALLDATASIZE SUB DUP2 ADD SWAP1 PUSH2 0x229 SWAP2 SWAP1 PUSH2 0x1890 JUMP JUMPDEST PUSH2 0x630 JUMP JUMPDEST STOP JUMPDEST PUSH2 0x24A PUSH1 0x4 DUP1 CALLDATASIZE SUB DUP2 ADD SWAP1 PUSH2 0x245 SWAP2 SWAP1 PUSH2 0x18E0 JUMP JUMPDEST PUSH2 0x73A JUMP JUMPDEST STOP JUMPDEST PUSH2 0x254 PUSH2 0x91E JUMP JUMPDEST PUSH1 0x40 MLOAD PUSH2 0x261 SWAP2 SWAP1 PUSH2 0x163F JUMP JUMPDEST PUSH1 0x40 MLOAD DUP1 SWAP2 SUB SWAP1 RETURN JUMPDEST PUSH2 0x284 PUSH1 0x4 DUP1 CALLDATASIZE SUB DUP2 ADD SWAP1 PUSH2 0x27F SWAP2 SWAP1 PUSH2 0x1719 JUMP JUMPDEST PUSH2 0x924 JUMP JUMPDEST STOP JUMPDEST PUSH2 0x2A0 PUSH1 0x4 DUP1 CALLDATASIZE SUB DUP2 ADD SWAP1 PUSH2 0x29B SWAP2 SWAP1 PUSH2 0x1719 JUMP JUMPDEST PUSH2 0xB17 JUMP JUMPDEST STOP JUMPDEST PUSH2 0x2AA PUSH2 0xC41 JUMP JUMPDEST STOP JUMPDEST PUSH2 0x2C6 PUSH1 0x4 DUP1 CALLDATASIZE SUB DUP2 ADD SWAP1 PUSH2 0x2C1 SWAP2 SWAP1 PUSH2 0x191E JUMP JUMPDEST PUSH2 0xC6F JUMP JUMPDEST STOP JUMPDEST PUSH2 0x2D0 PUSH2 0xCF5 JUMP JUMPDEST STOP JUMPDEST PUSH2 0x2DA PUSH2 0xD08 JUMP JUMPDEST PUSH1 0x40 MLOAD PUSH2 0x2E7 SWAP2 SWAP1 PUSH2 0x163F JUMP JUMPDEST PUSH1 0x40 MLOAD DUP1 SWAP2 SUB SWAP1 RETURN JUMPDEST PUSH2 0x2F8 PUSH2 0xD0D JUMP JUMPDEST PUSH1 0x40 MLOAD PUSH2 0x305 SWAP2 SWAP1 PUSH2 0x197D JUMP JUMPDEST PUSH1 0x40 MLOAD DUP1 SWAP2 SUB SWAP1 RETURN JUMPDEST PUSH2 0x328 PUSH1 0x4 DUP1 CALLDATASIZE SUB DUP2 ADD SWAP1 PUSH2 0x323 SWAP2 SWAP1 PUSH2 0x18E0 JUMP JUMPDEST PUSH2 0xD34 JUMP JUMPDEST PUSH1 0x40 MLOAD PUSH2 0x335 SWAP2 SWAP1 PUSH2 0x163F JUMP JUMPDEST PUSH1 0x40 MLOAD DUP1 SWAP2 SUB SWAP1 RETURN JUMPDEST PUSH2 0x358 PUSH1 0x4 DUP1 CALLDATASIZE SUB DUP2 ADD SWAP1 PUSH2 0x353 SWAP2 SWAP1 PUSH2 0x17E2 JUMP JUMPDEST PUSH2 0xD49 JUMP JUMPDEST PUSH1 0x40 MLOAD PUSH2 0x366 SWAP3 SWAP2 SWAP1 PUSH2 0x1996 JUMP JUMPDEST PUSH1 0x40 MLOAD DUP1 SWAP2 SUB SWAP1 RETURN JUMPDEST PUSH2 0x377 PUSH2 0xD74 JUMP JUMPDEST PUSH1 0x40 MLOAD PUSH2 0x384 SWAP2 SWAP1 PUSH2 0x163F JUMP JUMPDEST PUSH1 0x40 MLOAD DUP1 SWAP2 SUB SWAP1 RETURN JUMPDEST PUSH2 0x3A7 PUSH1 0x4 DUP1 CALLDATASIZE SUB DUP2 ADD SWAP1 PUSH2 0x3A2 SWAP2 SWAP1 PUSH2 0x18E0 JUMP JUMPDEST PUSH2 0xD7A JUMP JUMPDEST STOP JUMPDEST PUSH2 0x3C3 PUSH1 0x4 DUP1 CALLDATASIZE SUB DUP2 ADD SWAP1 PUSH2 0x3BE SWAP2 SWAP1 PUSH2 0x19BD JUMP JUMPDEST PUSH2 0xF26 JUMP JUMPDEST STOP JUMPDEST PUSH0 PUSH1 0x4 DUP1 SLOAD SWAP1 POP SWAP1 POP SWAP1 JUMP JUMPDEST PUSH1 0x1 PUSH0 SWAP1 SLOAD SWAP1 PUSH2 0x100 EXP SWAP1 DIV PUSH20 0xFFFFFFFFFFFFFFFFFFFFFFFFFFFFFFFFFFFFFFFF AND DUP2 JUMP JUMPDEST PUSH1 0x4 DUP2 DUP2 SLOAD DUP2 LT PUSH2 0x405 JUMPI PUSH0 DUP1 REVERT JUMPDEST SWAP1 PUSH0 MSTORE PUSH1 0x20 PUSH0 KECCAK256 SWAP1 PUSH1 0x4 MUL ADD PUSH0 SWAP2 POP SWAP1 POP DUP1 PUSH0 ADD PUSH0 SWAP1 SLOAD SWAP1 PUSH2 0x100 EXP SWAP1 DIV PUSH20 0xFFFFFFFFFFFFFFFFFFFFFFFFFFFFFFFFFFFFFFFF AND SWAP1 DUP1 PUSH1 0x1 ADD SLOAD SWAP1 DUP1 PUSH1 0x2 ADD SLOAD SWAP1 DUP1 PUSH1 0x3 ADD SLOAD SWAP1 POP DUP5 JUMP JUMPDEST PUSH1 0x6 SLOAD DUP2 JUMP JUMPDEST PUSH0 PUSH0 PUSH1 0x4 DUP5 DUP2 SLOAD DUP2 LT PUSH2 0x46C JUMPI PUSH2 0x46B PUSH2 0x19E8 JUMP JUMPDEST JUMPDEST SWAP1 PUSH0 MSTORE PUSH1 0x20 PUSH0 KECCAK256 SWAP1 PUSH1 0x4 MUL ADD SWAP1 POP PUSH0 PUSH1 0x5 PUSH0 DUP7 DUP2 MSTORE PUSH1 0x20 ADD SWAP1 DUP2 MSTORE PUSH1 0x20 ADD PUSH0 KECCAK256 PUSH0 DUP6 PUSH20 0xFFFFFFFFFFFFFFFFFFFFFFFFFFFFFFFFFFFFFFFF AND PUSH20 0xFFFFFFFFFFFFFFFFFFFFFFFFFFFFFFFFFFFFFFFF AND DUP2 MSTORE PUSH1 0x20 ADD SWAP1 DUP2 MSTORE PUSH1 0x20 ADD PUSH0 KECCAK256 SWAP1 POP PUSH0 DUP3 PUSH1 0x3 ADD SLOAD SWAP1 POP PUSH0 DUP4 PUSH0 ADD PUSH0 SWAP1 SLOAD SWAP1 PUSH2 0x100 EXP SWAP1 DIV PUSH20 0xFFFFFFFFFFFFFFFFFFFFFFFFFFFFFFFFFFFFFFFF AND PUSH20 0xFFFFFFFFFFFFFFFFFFFFFFFFFFFFFFFFFFFFFFFF AND PUSH4 0x70A08231 ADDRESS PUSH1 0x40 MLOAD DUP3 PUSH4 0xFFFFFFFF AND PUSH1 0xE0 SHL DUP2 MSTORE PUSH1 0x4 ADD PUSH2 0x52D SWAP2 SWAP1 PUSH2 0x197D JUMP JUMPDEST PUSH1 0x20 PUSH1 0x40 MLOAD DUP1 DUP4 SUB DUP2 DUP7 GAS STATICCALL ISZERO DUP1 ISZERO PUSH2 0x548 JUMPI RETURNDATASIZE PUSH0 PUSH0 RETURNDATACOPY RETURNDATASIZE PUSH0 REVERT JUMPDEST POP POP POP POP PUSH1 0x40 MLOAD RETURNDATASIZE PUSH1 0x1F NOT PUSH1 0x1F DUP3 ADD AND DUP3 ADD DUP1 PUSH1 0x40 MSTORE POP DUP2 ADD SWAP1 PUSH2 0x56C SWAP2 SWAP1 PUSH2 0x1A29 JUMP JUMPDEST SWAP1 POP DUP4 PUSH1 0x2 ADD SLOAD NUMBER GT DUP1 ISZERO PUSH2 0x581 JUMPI POP PUSH0 DUP2 EQ ISZERO JUMPDEST ISZERO PUSH2 0x5F0 JUMPI PUSH0 PUSH2 0x595 DUP6 PUSH1 0x2 ADD SLOAD NUMBER PUSH2 0xD34 JUMP JUMPDEST SWAP1 POP PUSH0 PUSH1 0x6 SLOAD DUP7 PUSH1 0x1 ADD SLOAD PUSH1 0x3 SLOAD DUP5 PUSH2 0x5AE SWAP2 SWAP1 PUSH2 0x1A81 JUMP JUMPDEST PUSH2 0x5B8 SWAP2 SWAP1 PUSH2 0x1A81 JUMP JUMPDEST PUSH2 0x5C2 SWAP2 SWAP1 PUSH2 0x1AEF JUMP JUMPDEST SWAP1 POP DUP3 PUSH5 0xE8D4A51000 DUP3 PUSH2 0x5D6 SWAP2 SWAP1 PUSH2 0x1A81 JUMP JUMPDEST PUSH2 0x5E0 SWAP2 SWAP1 PUSH2 0x1AEF JUMP JUMPDEST DUP5 PUSH2 0x5EB SWAP2 SWAP1 PUSH2 0x1B1F JUMP JUMPDEST SWAP4 POP POP POP JUMPDEST DUP3 PUSH1 0x1 ADD SLOAD PUSH5 0xE8D4A51000 DUP4 DUP6 PUSH0 ADD SLOAD PUSH2 0x60A SWAP2 SWAP1 PUSH2 0x1A81 JUMP JUMPDEST PUSH2 0x614 SWAP2 SWAP1 PUSH2 0x1AEF JUMP JUMPDEST PUSH2 0x61E SWAP2 SWAP1 PUSH2 0x1B52 JUMP JUMPDEST SWAP5 POP POP POP POP POP SWAP3 SWAP2 POP POP JUMP JUMPDEST PUSH1 0x2 SLOAD DUP2 JUMP JUMPDEST PUSH2 0x638 PUSH2 0xFAA JUMP JUMPDEST DUP1 ISZERO PUSH2 0x647 JUMPI PUSH2 0x646 PUSH2 0xC41 JUMP JUMPDEST JUMPDEST PUSH0 PUSH1 0x7 SLOAD NUMBER GT PUSH2 0x659 JUMPI PUSH1 0x7 SLOAD PUSH2 0x65B JUMP JUMPDEST NUMBER JUMPDEST SWAP1 POP DUP4 PUSH1 0x6 SLOAD PUSH2 0x66B SWAP2 SWAP1 PUSH2 0x1B1F JUMP JUMPDEST PUSH1 0x6 DUP2 SWAP1 SSTORE POP PUSH1 0x4 PUSH1 0x40 MLOAD DUP1 PUSH1 0x80 ADD PUSH1 0x40 MSTORE DUP1 DUP6 PUSH20 0xFFFFFFFFFFFFFFFFFFFFFFFFFFFFFFFFFFFFFFFF AND DUP2 MSTORE PUSH1 0x20 ADD DUP7 DUP2 MSTORE PUSH1 0x20 ADD DUP4 DUP2 MSTORE PUSH1 0x20 ADD PUSH0 DUP2 MSTORE POP SWAP1 DUP1 PUSH1 0x1 DUP2 SLOAD ADD DUP1 DUP3 SSTORE DUP1 SWAP2 POP POP PUSH1 0x1 SWAP1 SUB SWAP1 PUSH0 MSTORE PUSH1 0x20 PUSH0 KECCAK256 SWAP1 PUSH1 0x4 MUL ADD PUSH0 SWAP1 SWAP2 SWAP1 SWAP2 SWAP1 SWAP2 POP PUSH0 DUP3 ADD MLOAD DUP2 PUSH0 ADD PUSH0 PUSH2 0x100 EXP DUP2 SLOAD DUP2 PUSH20 0xFFFFFFFFFFFFFFFFFFFFFFFFFFFFFFFFFFFFFFFF MUL NOT AND SWAP1 DUP4 PUSH20 0xFFFFFFFFFFFFFFFFFFFFFFFFFFFFFFFFFFFFFFFF AND MUL OR SWAP1 SSTORE POP PUSH1 0x20 DUP3 ADD MLOAD DUP2 PUSH1 0x1 ADD SSTORE PUSH1 0x40 DUP3 ADD MLOAD DUP2 PUSH1 0x2 ADD SSTORE PUSH1 0x60 DUP3 ADD MLOAD DUP2 PUSH1 0x3 ADD SSTORE POP POP POP POP POP POP JUMP JUMPDEST PUSH0 PUSH1 0x4 DUP4 DUP2 SLOAD DUP2 LT PUSH2 0x74F JUMPI PUSH2 0x74E PUSH2 0x19E8 JUMP JUMPDEST JUMPDEST SWAP1 PUSH0 MSTORE PUSH1 0x20 PUSH0 KECCAK256 SWAP1 PUSH1 0x4 MUL ADD SWAP1 POP PUSH0 PUSH1 0x5 PUSH0 DUP6 DUP2 MSTORE PUSH1 0x20 ADD SWAP1 DUP2 MSTORE PUSH1 0x20 ADD PUSH0 KECCAK256 PUSH0 CALLER PUSH20 0xFFFFFFFFFFFFFFFFFFFFFFFFFFFFFFFFFFFFFFFF AND PUSH20 0xFFFFFFFFFFFFFFFFFFFFFFFFFFFFFFFFFFFFFFFF AND DUP2 MSTORE PUSH1 0x20 ADD SWAP1 DUP2 MSTORE PUSH1 0x20 ADD PUSH0 KECCAK256 SWAP1 POP DUP3 DUP2 PUSH0 ADD SLOAD LT ISZERO PUSH2 0x7F2 JUMPI PUSH1 0x40 MLOAD PUSH32 0x8C379A000000000000000000000000000000000000000000000000000000000 DUP2 MSTORE PUSH1 0x4 ADD PUSH2 0x7E9 SWAP1 PUSH2 0x1BDF JUMP JUMPDEST PUSH1 0x40 MLOAD DUP1 SWAP2 SUB SWAP1 REVERT JUMPDEST PUSH2 0x7FB DUP5 PUSH2 0x924 JUMP JUMPDEST PUSH0 DUP2 PUSH1 0x1 ADD SLOAD PUSH5 0xE8D4A51000 DUP5 PUSH1 0x3 ADD SLOAD DUP5 PUSH0 ADD SLOAD PUSH2 0x81A SWAP2 SWAP1 PUSH2 0x1A81 JUMP JUMPDEST PUSH2 0x824 SWAP2 SWAP1 PUSH2 0x1AEF JUMP JUMPDEST PUSH2 0x82E SWAP2 SWAP1 PUSH2 0x1B52 JUMP JUMPDEST SWAP1 POP PUSH2 0x83A CALLER DUP3 PUSH2 0x1031 JUMP JUMPDEST DUP4 DUP3 PUSH0 ADD SLOAD PUSH2 0x849 SWAP2 SWAP1 PUSH2 0x1B52 JUMP JUMPDEST DUP3 PUSH0 ADD DUP2 SWAP1 SSTORE POP PUSH5 0xE8D4A51000 DUP4 PUSH1 0x3 ADD SLOAD DUP4 PUSH0 ADD SLOAD PUSH2 0x869 SWAP2 SWAP1 PUSH2 0x1A81 JUMP JUMPDEST PUSH2 0x873 SWAP2 SWAP1 PUSH2 0x1AEF JUMP JUMPDEST DUP3 PUSH1 0x1 ADD DUP2 SWAP1 SSTORE POP PUSH2 0x8C8 CALLER DUP6 DUP6 PUSH0 ADD PUSH0 SWAP1 SLOAD SWAP1 PUSH2 0x100 EXP SWAP1 DIV PUSH20 0xFFFFFFFFFFFFFFFFFFFFFFFFFFFFFFFFFFFFFFFF AND PUSH20 0xFFFFFFFFFFFFFFFFFFFFFFFFFFFFFFFFFFFFFFFF AND PUSH2 0x121A SWAP1 SWAP3 SWAP2 SWAP1 PUSH4 0xFFFFFFFF AND JUMP JUMPDEST DUP5 CALLER PUSH20 0xFFFFFFFFFFFFFFFFFFFFFFFFFFFFFFFFFFFFFFFF AND PUSH32 0xF279E6A1F5E320CCA91135676D9CB6E44CA8A08C0B88342BCDB1144F6511B568 DUP7 PUSH1 0x40 MLOAD PUSH2 0x90F SWAP2 SWAP1 PUSH2 0x163F JUMP JUMPDEST PUSH1 0x40 MLOAD DUP1 SWAP2 SUB SWAP1 LOG3 POP POP POP POP POP JUMP JUMPDEST PUSH1 0x7 SLOAD DUP2 JUMP JUMPDEST PUSH0 PUSH1 0x4 DUP3 DUP2 SLOAD DUP2 LT PUSH2 0x939 JUMPI PUSH2 0x938 PUSH2 0x19E8 JUMP JUMPDEST JUMPDEST SWAP1 PUSH0 MSTORE PUSH1 0x20 PUSH0 KECCAK256 SWAP1 PUSH1 0x4 MUL ADD SWAP1 POP DUP1 PUSH1 0x2 ADD SLOAD NUMBER GT PUSH2 0x958 JUMPI POP PUSH2 0xB14 JUMP JUMPDEST PUSH0 DUP2 PUSH0 ADD PUSH0 SWAP1 SLOAD SWAP1 PUSH2 0x100 EXP SWAP1 DIV PUSH20 0xFFFFFFFFFFFFFFFFFFFFFFFFFFFFFFFFFFFFFFFF AND PUSH20 0xFFFFFFFFFFFFFFFFFFFFFFFFFFFFFFFFFFFFFFFF AND PUSH4 0x70A08231 ADDRESS PUSH1 0x40 MLOAD DUP3 PUSH4 0xFFFFFFFF AND PUSH1 0xE0 SHL DUP2 MSTORE PUSH1 0x4 ADD PUSH2 0x9B4 SWAP2 SWAP1 PUSH2 0x197D JUMP JUMPDEST PUSH1 0x20 PUSH1 0x40 MLOAD DUP1 DUP4 SUB DUP2 DUP7 GAS STATICCALL ISZERO DUP1 ISZERO PUSH2 0x9CF JUMPI RETURNDATASIZE PUSH0 PUSH0 RETURNDATACOPY RETURNDATASIZE PUSH0 REVERT JUMPDEST POP POP POP POP PUSH1 0x40 MLOAD RETURNDATASIZE PUSH1 0x1F NOT PUSH1 0x1F DUP3 ADD AND DUP3 ADD DUP1 PUSH1 0x40 MSTORE POP DUP2 ADD SWAP1 PUSH2 0x9F3 SWAP2 SWAP1 PUSH2 0x1A29 JUMP JUMPDEST SWAP1 POP PUSH0 DUP2 SUB PUSH2 0xA0C JUMPI NUMBER DUP3 PUSH1 0x2 ADD DUP2 SWAP1 SSTORE POP POP POP PUSH2 0xB14 JUMP JUMPDEST PUSH0 PUSH2 0xA1B DUP4 PUSH1 0x2 ADD SLOAD NUMBER PUSH2 0xD34 JUMP JUMPDEST SWAP1 POP PUSH0 PUSH1 0x6 SLOAD DUP5 PUSH1 0x1 ADD SLOAD PUSH1 0x3 SLOAD DUP5 PUSH2 0xA34 SWAP2 SWAP1 PUSH2 0x1A81 JUMP JUMPDEST PUSH2 0xA3E SWAP2 SWAP1 PUSH2 0x1A81 JUMP JUMPDEST PUSH2 0xA48 SWAP2 SWAP1 PUSH2 0x1AEF JUMP JUMPDEST SWAP1 POP PUSH1 0x1 PUSH0 SWAP1 SLOAD SWAP1 PUSH2 0x100 EXP SWAP1 DIV PUSH20 0xFFFFFFFFFFFFFFFFFFFFFFFFFFFFFFFFFFFFFFFF AND PUSH20 0xFFFFFFFFFFFFFFFFFFFFFFFFFFFFFFFFFFFFFFFF AND PUSH4 0x40C10F19 ADDRESS DUP4 PUSH1 0x40 MLOAD DUP4 PUSH4 0xFFFFFFFF AND PUSH1 0xE0 SHL DUP2 MSTORE PUSH1 0x4 ADD PUSH2 0xAA6 SWAP3 SWAP2 SWAP1 PUSH2 0x1BFD JUMP JUMPDEST PUSH0 PUSH1 0x40 MLOAD DUP1 DUP4 SUB DUP2 PUSH0 DUP8 DUP1 EXTCODESIZE ISZERO DUP1 ISZERO PUSH2 0xABD JUMPI PUSH0 PUSH0 REVERT JUMPDEST POP GAS CALL ISZERO DUP1 ISZERO PUSH2 0xACF JUMPI RETURNDATASIZE PUSH0 PUSH0 RETURNDATACOPY RETURNDATASIZE PUSH0 REVERT JUMPDEST POP POP POP POP DUP3 PUSH5 0xE8D4A51000 DUP3 PUSH2 0xAE5 SWAP2 SWAP1 PUSH2 0x1A81 JUMP JUMPDEST PUSH2 0xAEF SWAP2 SWAP1 PUSH2 0x1AEF JUMP JUMPDEST DUP5 PUSH1 0x3 ADD SLOAD PUSH2 0xAFE SWAP2 SWAP1 PUSH2 0x1B1F JUMP JUMPDEST DUP5 PUSH1 0x3 ADD DUP2 SWAP1 SSTORE POP NUMBER DUP5 PUSH1 0x2 ADD DUP2 SWAP1 SSTORE POP POP POP POP POP JUMPDEST POP JUMP JUMPDEST PUSH0 PUSH1 0x4 DUP3 DUP2 SLOAD DUP2 LT PUSH2 0xB2C JUMPI PUSH2 0xB2B PUSH2 0x19E8 JUMP JUMPDEST JUMPDEST SWAP1 PUSH0 MSTORE PUSH1 0x20 PUSH0 KECCAK256 SWAP1 PUSH1 0x4 MUL ADD SWAP1 POP PUSH0 PUSH1 0x5 PUSH0 DUP5 DUP2 MSTORE PUSH1 0x20 ADD SWAP1 DUP2 MSTORE PUSH1 0x20 ADD PUSH0 KECCAK256 PUSH0 CALLER PUSH20 0xFFFFFFFFFFFFFFFFFFFFFFFFFFFFFFFFFFFFFFFF AND PUSH20 0xFFFFFFFFFFFFFFFFFFFFFFFFFFFFFFFFFFFFFFFF AND DUP2 MSTORE PUSH1 0x20 ADD SWAP1 DUP2 MSTORE PUSH1 0x20 ADD PUSH0 KECCAK256 SWAP1 POP PUSH2 0xBD9 CALLER DUP3 PUSH0 ADD SLOAD DUP5 PUSH0 ADD PUSH0 SWAP1 SLOAD SWAP1 PUSH2 0x100 EXP SWAP1 DIV PUSH20 0xFFFFFFFFFFFFFFFFFFFFFFFFFFFFFFFFFFFFFFFF AND PUSH20 0xFFFFFFFFFFFFFFFFFFFFFFFFFFFFFFFFFFFFFFFF AND PUSH2 0x121A SWAP1 SWAP3 SWAP2 SWAP1 PUSH4 0xFFFFFFFF AND JUMP JUMPDEST DUP3 CALLER PUSH20 0xFFFFFFFFFFFFFFFFFFFFFFFFFFFFFFFFFFFFFFFF AND PUSH32 0xBB757047C2B5F3974FE26B7C10F732E7BCE710B0952A71082702781E62AE0595 DUP4 PUSH0 ADD SLOAD PUSH1 0x40 MLOAD PUSH2 0xC23 SWAP2 SWAP1 PUSH2 0x163F JUMP JUMPDEST PUSH1 0x40 MLOAD DUP1 SWAP2 SUB SWAP1 LOG3 PUSH0 DUP2 PUSH0 ADD DUP2 SWAP1 SSTORE POP PUSH0 DUP2 PUSH1 0x1 ADD DUP2 SWAP1 SSTORE POP POP POP POP JUMP JUMPDEST PUSH0 PUSH1 0x4 DUP1 SLOAD SWAP1 POP SWAP1 POP PUSH0 PUSH0 SWAP1 POP JUMPDEST DUP2 DUP2 LT ISZERO PUSH2 0xC6B JUMPI PUSH2 0xC60 DUP2 PUSH2 0x924 JUMP JUMPDEST DUP1 PUSH1 0x1 ADD SWAP1 POP PUSH2 0xC4F JUMP JUMPDEST POP POP JUMP JUMPDEST PUSH2 0xC77 PUSH2 0xFAA JUMP JUMPDEST DUP1 ISZERO PUSH2 0xC86 JUMPI PUSH2 0xC85 PUSH2 0xC41 JUMP JUMPDEST JUMPDEST DUP2 PUSH1 0x4 DUP5 DUP2 SLOAD DUP2 LT PUSH2 0xC9B JUMPI PUSH2 0xC9A PUSH2 0x19E8 JUMP JUMPDEST JUMPDEST SWAP1 PUSH0 MSTORE PUSH1 0x20 PUSH0 KECCAK256 SWAP1 PUSH1 0x4 MUL ADD PUSH1 0x1 ADD SLOAD PUSH1 0x6 SLOAD PUSH2 0xCB8 SWAP2 SWAP1 PUSH2 0x1B52 JUMP JUMPDEST PUSH2 0xCC2 SWAP2 SWAP1 PUSH2 0x1B1F JUMP JUMPDEST PUSH1 0x6 DUP2 SWAP1 SSTORE POP DUP2 PUSH1 0x4 DUP5 DUP2 SLOAD DUP2 LT PUSH2 0xCDD JUMPI PUSH2 0xCDC PUSH2 0x19E8 JUMP JUMPDEST JUMPDEST SWAP1 PUSH0 MSTORE PUSH1 0x20 PUSH0 KECCAK256 SWAP1 PUSH1 0x4 MUL ADD PUSH1 0x1 ADD DUP2 SWAP1 SSTORE POP POP POP POP JUMP JUMPDEST PUSH2 0xCFD PUSH2 0xFAA JUMP JUMPDEST PUSH2 0xD06 PUSH0 PUSH2 0x1299 JUMP JUMPDEST JUMP JUMPDEST PUSH1 0xA DUP2 JUMP JUMPDEST PUSH0 PUSH0 PUSH0 SWAP1 SLOAD SWAP1 PUSH2 0x100 EXP SWAP1 DIV PUSH20 0xFFFFFFFFFFFFFFFFFFFFFFFFFFFFFFFFFFFFFFFF AND SWAP1 POP SWAP1 JUMP JUMPDEST PUSH0 DUP3 DUP3 PUSH2 0xD41 SWAP2 SWAP1 PUSH2 0x1B52 JUMP JUMPDEST SWAP1 POP SWAP3 SWAP2 POP POP JUMP JUMPDEST PUSH1 0x5 PUSH1 0x20 MSTORE DUP2 PUSH0 MSTORE PUSH1 0x40 PUSH0 KECCAK256 PUSH1 0x20 MSTORE DUP1 PUSH0 MSTORE PUSH1 0x40 PUSH0 KECCAK256 PUSH0 SWAP2 POP SWAP2 POP POP DUP1 PUSH0 ADD SLOAD SWAP1 DUP1 PUSH1 0x1 ADD SLOAD SWAP1 POP DUP3 JUMP JUMPDEST PUSH1 0x3 SLOAD DUP2 JUMP JUMPDEST PUSH0 PUSH1 0x4 DUP4 DUP2 SLOAD DUP2 LT PUSH2 0xD8F JUMPI PUSH2 0xD8E PUSH2 0x19E8 JUMP JUMPDEST JUMPDEST SWAP1 PUSH0 MSTORE PUSH1 0x20 PUSH0 KECCAK256 SWAP1 PUSH1 0x4 MUL ADD SWAP1 POP PUSH0 PUSH1 0x5 PUSH0 DUP6 DUP2 MSTORE PUSH1 0x20 ADD SWAP1 DUP2 MSTORE PUSH1 0x20 ADD PUSH0 KECCAK256 PUSH0 CALLER PUSH20 0xFFFFFFFFFFFFFFFFFFFFFFFFFFFFFFFFFFFFFFFF AND PUSH20 0xFFFFFFFFFFFFFFFFFFFFFFFFFFFFFFFFFFFFFFFF AND DUP2 MSTORE PUSH1 0x20 ADD SWAP1 DUP2 MSTORE PUSH1 0x20 ADD PUSH0 KECCAK256 SWAP1 POP PUSH2 0xDF5 DUP5 PUSH2 0x924 JUMP JUMPDEST PUSH0 DUP2 PUSH0 ADD SLOAD GT ISZERO PUSH2 0xE41 JUMPI PUSH0 DUP2 PUSH1 0x1 ADD SLOAD PUSH5 0xE8D4A51000 DUP5 PUSH1 0x3 ADD SLOAD DUP5 PUSH0 ADD SLOAD PUSH2 0xE1F SWAP2 SWAP1 PUSH2 0x1A81 JUMP JUMPDEST PUSH2 0xE29 SWAP2 SWAP1 PUSH2 0x1AEF JUMP JUMPDEST PUSH2 0xE33 SWAP2 SWAP1 PUSH2 0x1B52 JUMP JUMPDEST SWAP1 POP PUSH2 0xE3F CALLER DUP3 PUSH2 0x1031 JUMP JUMPDEST POP JUMPDEST PUSH2 0xE90 CALLER ADDRESS DUP6 DUP6 PUSH0 ADD PUSH0 SWAP1 SLOAD SWAP1 PUSH2 0x100 EXP SWAP1 DIV PUSH20 0xFFFFFFFFFFFFFFFFFFFFFFFFFFFFFFFFFFFFFFFF AND PUSH20 0xFFFFFFFFFFFFFFFFFFFFFFFFFFFFFFFFFFFFFFFF AND PUSH2 0x135A SWAP1 SWAP4 SWAP3 SWAP2 SWAP1 PUSH4 0xFFFFFFFF AND JUMP JUMPDEST DUP3 DUP2 PUSH0 ADD SLOAD PUSH2 0xE9F SWAP2 SWAP1 PUSH2 0x1B1F JUMP JUMPDEST DUP2 PUSH0 ADD DUP2 SWAP1 SSTORE POP PUSH5 0xE8D4A51000 DUP3 PUSH1 0x3 ADD SLOAD DUP3 PUSH0 ADD SLOAD PUSH2 0xEBF SWAP2 SWAP1 PUSH2 0x1A81 JUMP JUMPDEST PUSH2 0xEC9 SWAP2 SWAP1 PUSH2 0x1AEF JUMP JUMPDEST DUP2 PUSH1 0x1 ADD DUP2 SWAP1 SSTORE POP DUP4 CALLER PUSH20 0xFFFFFFFFFFFFFFFFFFFFFFFFFFFFFFFFFFFFFFFF AND PUSH32 0x90890809C654F11D6E72A28FA60149770A0D11EC6C92319D6CEB2BB0A4EA1A15 DUP6 PUSH1 0x40 MLOAD PUSH2 0xF18 SWAP2 SWAP1 PUSH2 0x163F JUMP JUMPDEST PUSH1 0x40 MLOAD DUP1 SWAP2 SUB SWAP1 LOG3 POP POP POP POP JUMP JUMPDEST PUSH2 0xF2E PUSH2 0xFAA JUMP JUMPDEST PUSH0 PUSH20 0xFFFFFFFFFFFFFFFFFFFFFFFFFFFFFFFFFFFFFFFF AND DUP2 PUSH20 0xFFFFFFFFFFFFFFFFFFFFFFFFFFFFFFFFFFFFFFFF AND SUB PUSH2 0xF9E JUMPI PUSH0 PUSH1 0x40 MLOAD PUSH32 0x1E4FBDF700000000000000000000000000000000000000000000000000000000 DUP2 MSTORE PUSH1 0x4 ADD PUSH2 0xF95 SWAP2 SWAP1 PUSH2 0x197D JUMP JUMPDEST PUSH1 0x40 MLOAD DUP1 SWAP2 SUB SWAP1 REVERT JUMPDEST PUSH2 0xFA7 DUP2 PUSH2 0x1299 JUMP JUMPDEST POP JUMP JUMPDEST PUSH2 0xFB2 PUSH2 0x13DC JUMP JUMPDEST PUSH20 0xFFFFFFFFFFFFFFFFFFFFFFFFFFFFFFFFFFFFFFFF AND PUSH2 0xFD0 PUSH2 0xD0D JUMP JUMPDEST PUSH20 0xFFFFFFFFFFFFFFFFFFFFFFFFFFFFFFFFFFFFFFFF AND EQ PUSH2 0x102F JUMPI PUSH2 0xFF3 PUSH2 0x13DC JUMP JUMPDEST PUSH1 0x40 MLOAD PUSH32 0x118CDAA700000000000000000000000000000000000000000000000000000000 DUP2 MSTORE PUSH1 0x4 ADD PUSH2 0x1026 SWAP2 SWAP1 PUSH2 0x197D JUMP JUMPDEST PUSH1 0x40 MLOAD DUP1 SWAP2 SUB SWAP1 REVERT JUMPDEST JUMP JUMPDEST PUSH0 PUSH1 0x1 PUSH0 SWAP1 SLOAD SWAP1 PUSH2 0x100 EXP SWAP1 DIV PUSH20 0xFFFFFFFFFFFFFFFFFFFFFFFFFFFFFFFFFFFFFFFF AND PUSH20 0xFFFFFFFFFFFFFFFFFFFFFFFFFFFFFFFFFFFFFFFF AND PUSH4 0x70A08231 ADDRESS PUSH1 0x40 MLOAD DUP3 PUSH4 0xFFFFFFFF AND PUSH1 0xE0 SHL DUP2 MSTORE PUSH1 0x4 ADD PUSH2 0x108C SWAP2 SWAP1 PUSH2 0x197D JUMP JUMPDEST PUSH1 0x20 PUSH1 0x40 MLOAD DUP1 DUP4 SUB DUP2 DUP7 GAS STATICCALL ISZERO DUP1 ISZERO PUSH2 0x10A7 JUMPI RETURNDATASIZE PUSH0 PUSH0 RETURNDATACOPY RETURNDATASIZE PUSH0 REVERT JUMPDEST POP POP POP POP PUSH1 0x40 MLOAD RETURNDATASIZE PUSH1 0x1F NOT PUSH1 0x1F DUP3 ADD AND DUP3 ADD DUP1 PUSH1 0x40 MSTORE POP DUP2 ADD SWAP1 PUSH2 0x10CB SWAP2 SWAP1 PUSH2 0x1A29 JUMP JUMPDEST SWAP1 POP DUP1 DUP3 GT ISZERO PUSH2 0x1177 JUMPI PUSH1 0x1 PUSH0 SWAP1 SLOAD SWAP1 PUSH2 0x100 EXP SWAP1 DIV PUSH20 0xFFFFFFFFFFFFFFFFFFFFFFFFFFFFFFFFFFFFFFFF AND PUSH20 0xFFFFFFFFFFFFFFFFFFFFFFFFFFFFFFFFFFFFFFFF AND PUSH4 0xA9059CBB DUP5 DUP4 PUSH1 0x40 MLOAD DUP4 PUSH4 0xFFFFFFFF AND PUSH1 0xE0 SHL DUP2 MSTORE PUSH1 0x4 ADD PUSH2 0x1131 SWAP3 SWAP2 SWAP1 PUSH2 0x1BFD JUMP JUMPDEST PUSH1 0x20 PUSH1 0x40 MLOAD DUP1 DUP4 SUB DUP2 PUSH0 DUP8 GAS CALL ISZERO DUP1 ISZERO PUSH2 0x114D JUMPI RETURNDATASIZE PUSH0 PUSH0 RETURNDATACOPY RETURNDATASIZE PUSH0 REVERT JUMPDEST POP POP POP POP PUSH1 0x40 MLOAD RETURNDATASIZE PUSH1 0x1F NOT PUSH1 0x1F DUP3 ADD AND DUP3 ADD DUP1 PUSH1 0x40 MSTORE POP DUP2 ADD SWAP1 PUSH2 0x1171 SWAP2 SWAP1 PUSH2 0x1C38 JUMP JUMPDEST POP PUSH2 0x1215 JUMP JUMPDEST PUSH1 0x1 PUSH0 SWAP1 SLOAD SWAP1 PUSH2 0x100 EXP SWAP1 DIV PUSH20 0xFFFFFFFFFFFFFFFFFFFFFFFFFFFFFFFFFFFFFFFF AND PUSH20 0xFFFFFFFFFFFFFFFFFFFFFFFFFFFFFFFFFFFFFFFF AND PUSH4 0xA9059CBB DUP5 DUP5 PUSH1 0x40 MLOAD DUP4 PUSH4 0xFFFFFFFF AND PUSH1 0xE0 SHL DUP2 MSTORE PUSH1 0x4 ADD PUSH2 0x11D3 SWAP3 SWAP2 SWAP1 PUSH2 0x1BFD JUMP JUMPDEST PUSH1 0x20 PUSH1 0x40 MLOAD DUP1 DUP4 SUB DUP2 PUSH0 DUP8 GAS CALL ISZERO DUP1 ISZERO PUSH2 0x11EF JUMPI RETURNDATASIZE PUSH0 PUSH0 RETURNDATACOPY RETURNDATASIZE PUSH0 REVERT JUMPDEST POP POP POP POP PUSH1 0x40 MLOAD RETURNDATASIZE PUSH1 0x1F NOT PUSH1 0x1F DUP3 ADD AND DUP3 ADD DUP1 PUSH1 0x40 MSTORE POP DUP2 ADD SWAP1 PUSH2 0x1213 SWAP2 SWAP1 PUSH2 0x1C38 JUMP JUMPDEST POP JUMPDEST POP POP POP JUMP JUMPDEST PUSH2 0x1294 DUP4 DUP5 PUSH20 0xFFFFFFFFFFFFFFFFFFFFFFFFFFFFFFFFFFFFFFFF AND PUSH4 0xA9059CBB DUP6 DUP6 PUSH1 0x40 MLOAD PUSH1 0x24 ADD PUSH2 0x124D SWAP3 SWAP2 SWAP1 PUSH2 0x1BFD JUMP JUMPDEST PUSH1 0x40 MLOAD PUSH1 0x20 DUP2 DUP4 SUB SUB DUP2 MSTORE SWAP1 PUSH1 0x40 MSTORE SWAP2 POP PUSH1 0xE0 SHL PUSH1 0x20 DUP3 ADD DUP1 MLOAD PUSH28 0xFFFFFFFFFFFFFFFFFFFFFFFFFFFFFFFFFFFFFFFFFFFFFFFFFFFFFFFF DUP4 DUP2 DUP4 AND OR DUP4 MSTORE POP POP POP POP PUSH2 0x13E3 JUMP JUMPDEST POP POP POP JUMP JUMPDEST PUSH0 PUSH0 PUSH0 SWAP1 SLOAD SWAP1 PUSH2 0x100 EXP SWAP1 DIV PUSH20 0xFFFFFFFFFFFFFFFFFFFFFFFFFFFFFFFFFFFFFFFF AND SWAP1 POP DUP2 PUSH0 PUSH0 PUSH2 0x100 EXP DUP2 SLOAD DUP2 PUSH20 0xFFFFFFFFFFFFFFFFFFFFFFFFFFFFFFFFFFFFFFFF MUL NOT AND SWAP1 DUP4 PUSH20 0xFFFFFFFFFFFFFFFFFFFFFFFFFFFFFFFFFFFFFFFF AND MUL OR SWAP1 SSTORE POP DUP2 PUSH20 0xFFFFFFFFFFFFFFFFFFFFFFFFFFFFFFFFFFFFFFFF AND DUP2 PUSH20 0xFFFFFFFFFFFFFFFFFFFFFFFFFFFFFFFFFFFFFFFF AND PUSH32 0x8BE0079C531659141344CD1FD0A4F28419497F9722A3DAAFE3B4186F6B6457E0 PUSH1 0x40 MLOAD PUSH1 0x40 MLOAD DUP1 SWAP2 SUB SWAP1 LOG3 POP POP JUMP JUMPDEST PUSH2 0x13D6 DUP5 DUP6 PUSH20 0xFFFFFFFFFFFFFFFFFFFFFFFFFFFFFFFFFFFFFFFF AND PUSH4 0x23B872DD DUP7 DUP7 DUP7 PUSH1 0x40 MLOAD PUSH1 0x24 ADD PUSH2 0x138F SWAP4 SWAP3 SWAP2 SWAP1 PUSH2 0x1C63 JUMP JUMPDEST PUSH1 0x40 MLOAD PUSH1 0x20 DUP2 DUP4 SUB SUB DUP2 MSTORE SWAP1 PUSH1 0x40 MSTORE SWAP2 POP PUSH1 0xE0 SHL PUSH1 0x20 DUP3 ADD DUP1 MLOAD PUSH28 0xFFFFFFFFFFFFFFFFFFFFFFFFFFFFFFFFFFFFFFFFFFFFFFFFFFFFFFFF DUP4 DUP2 DUP4 AND OR DUP4 MSTORE POP POP POP POP PUSH2 0x13E3 JUMP JUMPDEST POP POP POP POP JUMP JUMPDEST PUSH0 CALLER SWAP1 POP SWAP1 JUMP JUMPDEST PUSH0 PUSH2 0x140D DUP3 DUP5 PUSH20 0xFFFFFFFFFFFFFFFFFFFFFFFFFFFFFFFFFFFFFFFF AND PUSH2 0x1478 SWAP1 SWAP2 SWAP1 PUSH4 0xFFFFFFFF AND JUMP JUMPDEST SWAP1 POP PUSH0 DUP2 MLOAD EQ ISZERO DUP1 ISZERO PUSH2 0x1431 JUMPI POP DUP1 DUP1 PUSH1 0x20 ADD SWAP1 MLOAD DUP2 ADD SWAP1 PUSH2 0x142F SWAP2 SWAP1 PUSH2 0x1C38 JUMP JUMPDEST ISZERO JUMPDEST ISZERO PUSH2 0x1473 JUMPI DUP3 PUSH1 0x40 MLOAD PUSH32 0x5274AFE700000000000000000000000000000000000000000000000000000000 DUP2 MSTORE PUSH1 0x4 ADD PUSH2 0x146A SWAP2 SWAP1 PUSH2 0x197D JUMP JUMPDEST PUSH1 0x40 MLOAD DUP1 SWAP2 SUB SWAP1 REVERT JUMPDEST POP POP POP JUMP JUMPDEST PUSH1 0x60 PUSH2 0x1485 DUP4 DUP4 PUSH0 PUSH2 0x148D JUMP JUMPDEST SWAP1 POP SWAP3 SWAP2 POP POP JUMP JUMPDEST PUSH1 0x60 DUP2 SELFBALANCE LT ISZERO PUSH2 0x14D4 JUMPI ADDRESS PUSH1 0x40 MLOAD PUSH32 0xCD78605900000000000000000000000000000000000000000000000000000000 DUP2 MSTORE PUSH1 0x4 ADD PUSH2 0x14CB SWAP2 SWAP1 PUSH2 0x197D JUMP JUMPDEST PUSH1 0x40 MLOAD DUP1 SWAP2 SUB SWAP1 REVERT JUMPDEST PUSH0 PUSH0 DUP6 PUSH20 0xFFFFFFFFFFFFFFFFFFFFFFFFFFFFFFFFFFFFFFFF AND DUP5 DUP7 PUSH1 0x40 MLOAD PUSH2 0x14FC SWAP2 SWAP1 PUSH2 0x1CEA JUMP JUMPDEST PUSH0 PUSH1 0x40 MLOAD DUP1 DUP4 SUB DUP2 DUP6 DUP8 GAS CALL SWAP3 POP POP POP RETURNDATASIZE DUP1 PUSH0 DUP2 EQ PUSH2 0x1536 JUMPI PUSH1 0x40 MLOAD SWAP2 POP PUSH1 0x1F NOT PUSH1 0x3F RETURNDATASIZE ADD AND DUP3 ADD PUSH1 0x40 MSTORE RETURNDATASIZE DUP3 MSTORE RETURNDATASIZE PUSH0 PUSH1 0x20 DUP5 ADD RETURNDATACOPY PUSH2 0x153B JUMP JUMPDEST PUSH1 0x60 SWAP2 POP JUMPDEST POP SWAP2 POP SWAP2 POP PUSH2 0x154B DUP7 DUP4 DUP4 PUSH2 0x1556 JUMP JUMPDEST SWAP3 POP POP POP SWAP4 SWAP3 POP POP POP JUMP JUMPDEST PUSH1 0x60 DUP3 PUSH2 0x156B JUMPI PUSH2 0x1566 DUP3 PUSH2 0x15E3 JUMP JUMPDEST PUSH2 0x15DB JUMP JUMPDEST PUSH0 DUP3 MLOAD EQ DUP1 ISZERO PUSH2 0x1591 JUMPI POP PUSH0 DUP5 PUSH20 0xFFFFFFFFFFFFFFFFFFFFFFFFFFFFFFFFFFFFFFFF AND EXTCODESIZE EQ JUMPDEST ISZERO PUSH2 0x15D3 JUMPI DUP4 PUSH1 0x40 MLOAD PUSH32 0x9996B31500000000000000000000000000000000000000000000000000000000 DUP2 MSTORE PUSH1 0x4 ADD PUSH2 0x15CA SWAP2 SWAP1 PUSH2 0x197D JUMP JUMPDEST PUSH1 0x40 MLOAD DUP1 SWAP2 SUB SWAP1 REVERT JUMPDEST DUP2 SWAP1 POP PUSH2 0x15DC JUMP JUMPDEST JUMPDEST SWAP4 SWAP3 POP POP POP JUMP JUMPDEST PUSH0 DUP2 MLOAD GT ISZERO PUSH2 0x15F5 JUMPI DUP1 MLOAD DUP1 DUP3 PUSH1 0x20 ADD REVERT JUMPDEST PUSH1 0x40 MLOAD PUSH32 0x1425EA4200000000000000000000000000000000000000000000000000000000 DUP2 MSTORE PUSH1 0x4 ADD PUSH1 0x40 MLOAD DUP1 SWAP2 SUB SWAP1 REVERT JUMPDEST PUSH0 DUP2 SWAP1 POP SWAP2 SWAP1 POP JUMP JUMPDEST PUSH2 0x1639 DUP2 PUSH2 0x1627 JUMP JUMPDEST DUP3 MSTORE POP POP JUMP JUMPDEST PUSH0 PUSH1 0x20 DUP3 ADD SWAP1 POP PUSH2 0x1652 PUSH0 DUP4 ADD DUP5 PUSH2 0x1630 JUMP JUMPDEST SWAP3 SWAP2 POP POP JUMP JUMPDEST PUSH0 PUSH20 0xFFFFFFFFFFFFFFFFFFFFFFFFFFFFFFFFFFFFFFFF DUP3 AND SWAP1 POP SWAP2 SWAP1 POP JUMP JUMPDEST PUSH0 DUP2 SWAP1 POP SWAP2 SWAP1 POP JUMP JUMPDEST PUSH0 PUSH2 0x169A PUSH2 0x1695 PUSH2 0x1690 DUP5 PUSH2 0x1658 JUMP JUMPDEST PUSH2 0x1677 JUMP JUMPDEST PUSH2 0x1658 JUMP JUMPDEST SWAP1 POP SWAP2 SWAP1 POP JUMP JUMPDEST PUSH0 PUSH2 0x16AB DUP3 PUSH2 0x1680 JUMP JUMPDEST SWAP1 POP SWAP2 SWAP1 POP JUMP JUMPDEST PUSH0 PUSH2 0x16BC DUP3 PUSH2 0x16A1 JUMP JUMPDEST SWAP1 POP SWAP2 SWAP1 POP JUMP JUMPDEST PUSH2 0x16CC DUP2 PUSH2 0x16B2 JUMP JUMPDEST DUP3 MSTORE POP POP JUMP JUMPDEST PUSH0 PUSH1 0x20 DUP3 ADD SWAP1 POP PUSH2 0x16E5 PUSH0 DUP4 ADD DUP5 PUSH2 0x16C3 JUMP JUMPDEST SWAP3 SWAP2 POP POP JUMP JUMPDEST PUSH0 PUSH0 REVERT JUMPDEST PUSH2 0x16F8 DUP2 PUSH2 0x1627 JUMP JUMPDEST DUP2 EQ PUSH2 0x1702 JUMPI PUSH0 PUSH0 REVERT JUMPDEST POP JUMP JUMPDEST PUSH0 DUP2 CALLDATALOAD SWAP1 POP PUSH2 0x1713 DUP2 PUSH2 0x16EF JUMP JUMPDEST SWAP3 SWAP2 POP POP JUMP JUMPDEST PUSH0 PUSH1 0x20 DUP3 DUP5 SUB SLT ISZERO PUSH2 0x172E JUMPI PUSH2 0x172D PUSH2 0x16EB JUMP JUMPDEST JUMPDEST PUSH0 PUSH2 0x173B DUP5 DUP3 DUP6 ADD PUSH2 0x1705 JUMP JUMPDEST SWAP2 POP POP SWAP3 SWAP2 POP POP JUMP JUMPDEST PUSH0 PUSH2 0x174E DUP3 PUSH2 0x16A1 JUMP JUMPDEST SWAP1 POP SWAP2 SWAP1 POP JUMP JUMPDEST PUSH2 0x175E DUP2 PUSH2 0x1744 JUMP JUMPDEST DUP3 MSTORE POP POP JUMP JUMPDEST PUSH0 PUSH1 0x80 DUP3 ADD SWAP1 POP PUSH2 0x1777 PUSH0 DUP4 ADD DUP8 PUSH2 0x1755 JUMP JUMPDEST PUSH2 0x1784 PUSH1 0x20 DUP4 ADD DUP7 PUSH2 0x1630 JUMP JUMPDEST PUSH2 0x1791 PUSH1 0x40 DUP4 ADD DUP6 PUSH2 0x1630 JUMP JUMPDEST PUSH2 0x179E PUSH1 0x60 DUP4 ADD DUP5 PUSH2 0x1630 JUMP JUMPDEST SWAP6 SWAP5 POP POP POP POP POP JUMP JUMPDEST PUSH0 PUSH2 0x17B1 DUP3 PUSH2 0x1658 JUMP JUMPDEST SWAP1 POP SWAP2 SWAP1 POP JUMP JUMPDEST PUSH2 0x17C1 DUP2 PUSH2 0x17A7 JUMP JUMPDEST DUP2 EQ PUSH2 0x17CB JUMPI PUSH0 PUSH0 REVERT JUMPDEST POP JUMP JUMPDEST PUSH0 DUP2 CALLDATALOAD SWAP1 POP PUSH2 0x17DC DUP2 PUSH2 0x17B8 JUMP JUMPDEST SWAP3 SWAP2 POP POP JUMP JUMPDEST PUSH0 PUSH0 PUSH1 0x40 DUP4 DUP6 SUB SLT ISZERO PUSH2 0x17F8 JUMPI PUSH2 0x17F7 PUSH2 0x16EB JUMP JUMPDEST JUMPDEST PUSH0 PUSH2 0x1805 DUP6 DUP3 DUP7 ADD PUSH2 0x1705 JUMP JUMPDEST SWAP3 POP POP PUSH1 0x20 PUSH2 0x1816 DUP6 DUP3 DUP7 ADD PUSH2 0x17CE JUMP JUMPDEST SWAP2 POP POP SWAP3 POP SWAP3 SWAP1 POP JUMP JUMPDEST PUSH0 PUSH2 0x182A DUP3 PUSH2 0x17A7 JUMP JUMPDEST SWAP1 POP SWAP2 SWAP1 POP JUMP JUMPDEST PUSH2 0x183A DUP2 PUSH2 0x1820 JUMP JUMPDEST DUP2 EQ PUSH2 0x1844 JUMPI PUSH0 PUSH0 REVERT JUMPDEST POP JUMP JUMPDEST PUSH0 DUP2 CALLDATALOAD SWAP1 POP PUSH2 0x1855 DUP2 PUSH2 0x1831 JUMP JUMPDEST SWAP3 SWAP2 POP POP JUMP JUMPDEST PUSH0 DUP2 ISZERO ISZERO SWAP1 POP SWAP2 SWAP1 POP JUMP JUMPDEST PUSH2 0x186F DUP2 PUSH2 0x185B JUMP JUMPDEST DUP2 EQ PUSH2 0x1879 JUMPI PUSH0 PUSH0 REVERT JUMPDEST POP JUMP JUMPDEST PUSH0 DUP2 CALLDATALOAD SWAP1 POP PUSH2 0x188A DUP2 PUSH2 0x1866 JUMP JUMPDEST SWAP3 SWAP2 POP POP JUMP JUMPDEST PUSH0 PUSH0 PUSH0 PUSH1 0x60 DUP5 DUP7 SUB SLT ISZERO PUSH2 0x18A7 JUMPI PUSH2 0x18A6 PUSH2 0x16EB JUMP JUMPDEST JUMPDEST PUSH0 PUSH2 0x18B4 DUP7 DUP3 DUP8 ADD PUSH2 0x1705 JUMP JUMPDEST SWAP4 POP POP PUSH1 0x20 PUSH2 0x18C5 DUP7 DUP3 DUP8 ADD PUSH2 0x1847 JUMP JUMPDEST SWAP3 POP POP PUSH1 0x40 PUSH2 0x18D6 DUP7 DUP3 DUP8 ADD PUSH2 0x187C JUMP JUMPDEST SWAP2 POP POP SWAP3 POP SWAP3 POP SWAP3 JUMP JUMPDEST PUSH0 PUSH0 PUSH1 0x40 DUP4 DUP6 SUB SLT ISZERO PUSH2 0x18F6 JUMPI PUSH2 0x18F5 PUSH2 0x16EB JUMP JUMPDEST JUMPDEST PUSH0 PUSH2 0x1903 DUP6 DUP3 DUP7 ADD PUSH2 0x1705 JUMP JUMPDEST SWAP3 POP POP PUSH1 0x20 PUSH2 0x1914 DUP6 DUP3 DUP7 ADD PUSH2 0x1705 JUMP JUMPDEST SWAP2 POP POP SWAP3 POP SWAP3 SWAP1 POP JUMP JUMPDEST PUSH0 PUSH0 PUSH0 PUSH1 0x60 DUP5 DUP7 SUB SLT ISZERO PUSH2 0x1935 JUMPI PUSH2 0x1934 PUSH2 0x16EB JUMP JUMPDEST JUMPDEST PUSH0 PUSH2 0x1942 DUP7 DUP3 DUP8 ADD PUSH2 0x1705 JUMP JUMPDEST SWAP4 POP POP PUSH1 0x20 PUSH2 0x1953 DUP7 DUP3 DUP8 ADD PUSH2 0x1705 JUMP JUMPDEST SWAP3 POP POP PUSH1 0x40 PUSH2 0x1964 DUP7 DUP3 DUP8 ADD PUSH2 0x187C JUMP JUMPDEST SWAP2 POP POP SWAP3 POP SWAP3 POP SWAP3 JUMP JUMPDEST PUSH2 0x1977 DUP2 PUSH2 0x17A7 JUMP JUMPDEST DUP3 MSTORE POP POP JUMP JUMPDEST PUSH0 PUSH1 0x20 DUP3 ADD SWAP1 POP PUSH2 0x1990 PUSH0 DUP4 ADD DUP5 PUSH2 0x196E JUMP JUMPDEST SWAP3 SWAP2 POP POP JUMP JUMPDEST PUSH0 PUSH1 0x40 DUP3 ADD SWAP1 POP PUSH2 0x19A9 PUSH0 DUP4 ADD DUP6 PUSH2 0x1630 JUMP JUMPDEST PUSH2 0x19B6 PUSH1 0x20 DUP4 ADD DUP5 PUSH2 0x1630 JUMP JUMPDEST SWAP4 SWAP3 POP POP POP JUMP JUMPDEST PUSH0 PUSH1 0x20 DUP3 DUP5 SUB SLT ISZERO PUSH2 0x19D2 JUMPI PUSH2 0x19D1 PUSH2 0x16EB JUMP JUMPDEST JUMPDEST PUSH0 PUSH2 0x19DF DUP5 DUP3 DUP6 ADD PUSH2 0x17CE JUMP JUMPDEST SWAP2 POP POP SWAP3 SWAP2 POP POP JUMP JUMPDEST PUSH32 0x4E487B7100000000000000000000000000000000000000000000000000000000 PUSH0 MSTORE PUSH1 0x32 PUSH1 0x4 MSTORE PUSH1 0x24 PUSH0 REVERT JUMPDEST PUSH0 DUP2 MLOAD SWAP1 POP PUSH2 0x1A23 DUP2 PUSH2 0x16EF JUMP JUMPDEST SWAP3 SWAP2 POP POP JUMP JUMPDEST PUSH0 PUSH1 0x20 DUP3 DUP5 SUB SLT ISZERO PUSH2 0x1A3E JUMPI PUSH2 0x1A3D PUSH2 0x16EB JUMP JUMPDEST JUMPDEST PUSH0 PUSH2 0x1A4B DUP5 DUP3 DUP6 ADD PUSH2 0x1A15 JUMP JUMPDEST SWAP2 POP POP SWAP3 SWAP2 POP POP JUMP JUMPDEST PUSH32 0x4E487B7100000000000000000000000000000000000000000000000000000000 PUSH0 MSTORE PUSH1 0x11 PUSH1 0x4 MSTORE PUSH1 0x24 PUSH0 REVERT JUMPDEST PUSH0 PUSH2 0x1A8B DUP3 PUSH2 0x1627 JUMP JUMPDEST SWAP2 POP PUSH2 0x1A96 DUP4 PUSH2 0x1627 JUMP JUMPDEST SWAP3 POP DUP3 DUP3 MUL PUSH2 0x1AA4 DUP2 PUSH2 0x1627 JUMP JUMPDEST SWAP2 POP DUP3 DUP3 DIV DUP5 EQ DUP4 ISZERO OR PUSH2 0x1ABB JUMPI PUSH2 0x1ABA PUSH2 0x1A54 JUMP JUMPDEST JUMPDEST POP SWAP3 SWAP2 POP POP JUMP JUMPDEST PUSH32 0x4E487B7100000000000000000000000000000000000000000000000000000000 PUSH0 MSTORE PUSH1 0x12 PUSH1 0x4 MSTORE PUSH1 0x24 PUSH0 REVERT JUMPDEST PUSH0 PUSH2 0x1AF9 DUP3 PUSH2 0x1627 JUMP JUMPDEST SWAP2 POP PUSH2 0x1B04 DUP4 PUSH2 0x1627 JUMP JUMPDEST SWAP3 POP DUP3 PUSH2 0x1B14 JUMPI PUSH2 0x1B13 PUSH2 0x1AC2 JUMP JUMPDEST JUMPDEST DUP3 DUP3 DIV SWAP1 POP SWAP3 SWAP2 POP POP JUMP JUMPDEST PUSH0 PUSH2 0x1B29 DUP3 PUSH2 0x1627 JUMP JUMPDEST SWAP2 POP PUSH2 0x1B34 DUP4 PUSH2 0x1627 JUMP JUMPDEST SWAP3 POP DUP3 DUP3 ADD SWAP1 POP DUP1 DUP3 GT ISZERO PUSH2 0x1B4C JUMPI PUSH2 0x1B4B PUSH2 0x1A54 JUMP JUMPDEST JUMPDEST SWAP3 SWAP2 POP POP JUMP JUMPDEST PUSH0 PUSH2 0x1B5C DUP3 PUSH2 0x1627 JUMP JUMPDEST SWAP2 POP PUSH2 0x1B67 DUP4 PUSH2 0x1627 JUMP JUMPDEST SWAP3 POP DUP3 DUP3 SUB SWAP1 POP DUP2 DUP2 GT ISZERO PUSH2 0x1B7F JUMPI PUSH2 0x1B7E PUSH2 0x1A54 JUMP JUMPDEST JUMPDEST SWAP3 SWAP2 POP POP JUMP JUMPDEST PUSH0 DUP3 DUP3 MSTORE PUSH1 0x20 DUP3 ADD SWAP1 POP SWAP3 SWAP2 POP POP JUMP JUMPDEST PUSH32 0x77697468647261773A206E6F7420676F6F640000000000000000000000000000 PUSH0 DUP3 ADD MSTORE POP JUMP JUMPDEST PUSH0 PUSH2 0x1BC9 PUSH1 0x12 DUP4 PUSH2 0x1B85 JUMP JUMPDEST SWAP2 POP PUSH2 0x1BD4 DUP3 PUSH2 0x1B95 JUMP JUMPDEST PUSH1 0x20 DUP3 ADD SWAP1 POP SWAP2 SWAP1 POP JUMP JUMPDEST PUSH0 PUSH1 0x20 DUP3 ADD SWAP1 POP DUP2 DUP2 SUB PUSH0 DUP4 ADD MSTORE PUSH2 0x1BF6 DUP2 PUSH2 0x1BBD JUMP JUMPDEST SWAP1 POP SWAP2 SWAP1 POP JUMP JUMPDEST PUSH0 PUSH1 0x40 DUP3 ADD SWAP1 POP PUSH2 0x1C10 PUSH0 DUP4 ADD DUP6 PUSH2 0x196E JUMP JUMPDEST PUSH2 0x1C1D PUSH1 0x20 DUP4 ADD DUP5 PUSH2 0x1630 JUMP JUMPDEST SWAP4 SWAP3 POP POP POP JUMP JUMPDEST PUSH0 DUP2 MLOAD SWAP1 POP PUSH2 0x1C32 DUP2 PUSH2 0x1866 JUMP JUMPDEST SWAP3 SWAP2 POP POP JUMP JUMPDEST PUSH0 PUSH1 0x20 DUP3 DUP5 SUB SLT ISZERO PUSH2 0x1C4D JUMPI PUSH2 0x1C4C PUSH2 0x16EB JUMP JUMPDEST JUMPDEST PUSH0 PUSH2 0x1C5A DUP5 DUP3 DUP6 ADD PUSH2 0x1C24 JUMP JUMPDEST SWAP2 POP POP SWAP3 SWAP2 POP POP JUMP JUMPDEST PUSH0 PUSH1 0x60 DUP3 ADD SWAP1 POP PUSH2 0x1C76 PUSH0 DUP4 ADD DUP7 PUSH2 0x196E JUMP JUMPDEST PUSH2 0x1C83 PUSH1 0x20 DUP4 ADD DUP6 PUSH2 0x196E JUMP JUMPDEST PUSH2 0x1C90 PUSH1 0x40 DUP4 ADD DUP5 PUSH2 0x1630 JUMP JUMPDEST SWAP5 SWAP4 POP POP POP POP JUMP JUMPDEST PUSH0 DUP2 MLOAD SWAP1 POP SWAP2 SWAP1 POP JUMP JUMPDEST PUSH0 DUP2 SWAP1 POP SWAP3 SWAP2 POP POP JUMP JUMPDEST DUP3 DUP2 DUP4 MCOPY PUSH0 DUP4 DUP4 ADD MSTORE POP POP POP JUMP JUMPDEST PUSH0 PUSH2 0x1CC4 DUP3 PUSH2 0x1C98 JUMP JUMPDEST PUSH2 0x1CCE DUP2 DUP6 PUSH2 0x1CA2 JUMP JUMPDEST SWAP4 POP PUSH2 0x1CDE DUP2 DUP6 PUSH1 0x20 DUP7 ADD PUSH2 0x1CAC JUMP JUMPDEST DUP1 DUP5 ADD SWAP2 POP POP SWAP3 SWAP2 POP POP JUMP JUMPDEST PUSH0 PUSH2 0x1CF5 DUP3 DUP5 PUSH2 0x1CBA JUMP JUMPDEST SWAP2 POP DUP2 SWAP1 POP SWAP3 SWAP2 POP POP JUMP INVALID LOG2 PUSH5 0x6970667358 0x22 SLT KECCAK256 0xB8 0xDA SIGNEXTEND PUSH21 0x8CDBAC6E174BD8D941477DFE73B216621C116B62B9 0xD4 JUMPI CALL PUSH5 0x9276256473 PUSH16 0x6C634300081B00330000000000000000 "
				},
				"gasEstimates": {
					"creation": {
						"codeDepositCost": "1495600",
						"executionCost": "infinite",
						"totalCost": "infinite"
					},
					"external": {
						"BONUS_MULTIPLIER()": "436",
						"add(uint256,address,bool)": "infinite",
						"bonusEndBlock()": "2448",
						"deposit(uint256,uint256)": "infinite",
						"emergencyWithdraw(uint256)": "infinite",
						"getMultiplier(uint256,uint256)": "infinite",
						"massUpdatePools()": "infinite",
						"owner()": "2536",
						"pendingSushi(uint256,address)": "infinite",
						"poolInfo(uint256)": "infinite",
						"poolLength()": "2464",
						"renounceOwnership()": "infinite",
						"set(uint256,uint256,bool)": "infinite",
						"startBlock()": "2514",
						"sushi()": "infinite",
						"sushiPerBlock()": "2513",
						"totalAllocPoint()": "2515",
						"transferOwnership(address)": "infinite",
						"updatePool(uint256)": "infinite",
						"userInfo(uint256,address)": "infinite",
						"withdraw(uint256,uint256)": "infinite"
					},
					"internal": {
						"safeSushiTransfer(address,uint256)": "infinite"
					}
				},
				"methodIdentifiers": {
					"BONUS_MULTIPLIER()": "8aa28550",
					"add(uint256,address,bool)": "1eaaa045",
					"bonusEndBlock()": "1aed6553",
					"deposit(uint256,uint256)": "e2bbb158",
					"emergencyWithdraw(uint256)": "5312ea8e",
					"getMultiplier(uint256,uint256)": "8dbb1e3a",
					"massUpdatePools()": "630b5ba1",
					"owner()": "8da5cb5b",
					"pendingSushi(uint256,address)": "195426ec",
					"poolInfo(uint256)": "1526fe27",
					"poolLength()": "081e3eda",
					"renounceOwnership()": "715018a6",
					"set(uint256,uint256,bool)": "64482f79",
					"startBlock()": "48cd4cb1",
					"sushi()": "0a087903",
					"sushiPerBlock()": "b0bcf42a",
					"totalAllocPoint()": "17caf6f1",
					"transferOwnership(address)": "f2fde38b",
					"updatePool(uint256)": "51eb05a6",
					"userInfo(uint256,address)": "93f1a40b",
					"withdraw(uint256,uint256)": "441a3e70"
				}
			},
			"storageLayout": {
				"storage": [
					{
						"astId": 8,
						"contract": "MasterChef.sol:MasterChef",
						"label": "_owner",
						"offset": 0,
						"slot": "0",
						"type": "t_address"
					},
					{
						"astId": 875,
						"contract": "MasterChef.sol:MasterChef",
						"label": "sushi",
						"offset": 0,
						"slot": "1",
						"type": "t_contract(ISushi)849"
					},
					{
						"astId": 877,
						"contract": "MasterChef.sol:MasterChef",
						"label": "bonusEndBlock",
						"offset": 0,
						"slot": "2",
						"type": "t_uint256"
					},
					{
						"astId": 879,
						"contract": "MasterChef.sol:MasterChef",
						"label": "sushiPerBlock",
						"offset": 0,
						"slot": "3",
						"type": "t_uint256"
					},
					{
						"astId": 886,
						"contract": "MasterChef.sol:MasterChef",
						"label": "poolInfo",
						"offset": 0,
						"slot": "4",
						"type": "t_array(t_struct(PoolInfo)872_storage)dyn_storage"
					},
					{
						"astId": 893,
						"contract": "MasterChef.sol:MasterChef",
						"label": "userInfo",
						"offset": 0,
						"slot": "5",
						"type": "t_mapping(t_uint256,t_mapping(t_address,t_struct(UserInfo)862_storage))"
					},
					{
						"astId": 896,
						"contract": "MasterChef.sol:MasterChef",
						"label": "totalAllocPoint",
						"offset": 0,
						"slot": "6",
						"type": "t_uint256"
					},
					{
						"astId": 898,
						"contract": "MasterChef.sol:MasterChef",
						"label": "startBlock",
						"offset": 0,
						"slot": "7",
						"type": "t_uint256"
					}
				],
				"types": {
					"t_address": {
						"encoding": "inplace",
						"label": "address",
						"numberOfBytes": "20"
					},
					"t_array(t_struct(PoolInfo)872_storage)dyn_storage": {
						"base": "t_struct(PoolInfo)872_storage",
						"encoding": "dynamic_array",
						"label": "struct MasterChef.PoolInfo[]",
						"numberOfBytes": "32"
					},
					"t_contract(IERC20)225": {
						"encoding": "inplace",
						"label": "contract IERC20",
						"numberOfBytes": "20"
					},
					"t_contract(ISushi)849": {
						"encoding": "inplace",
						"label": "contract ISushi",
						"numberOfBytes": "20"
					},
					"t_mapping(t_address,t_struct(UserInfo)862_storage)": {
						"encoding": "mapping",
						"key": "t_address",
						"label": "mapping(address => struct MasterChef.UserInfo)",
						"numberOfBytes": "32",
						"value": "t_struct(UserInfo)862_storage"
					},
					"t_mapping(t_uint256,t_mapping(t_address,t_struct(UserInfo)862_storage))": {
						"encoding": "mapping",
						"key": "t_uint256",
						"label": "mapping(uint256 => mapping(address => struct MasterChef.UserInfo))",
						"numberOfBytes": "32",
						"value": "t_mapping(t_address,t_struct(UserInfo)862_storage)"
					},
					"t_struct(PoolInfo)872_storage": {
						"encoding": "inplace",
						"label": "struct MasterChef.PoolInfo",
						"members": [
							{
								"astId": 865,
								"contract": "MasterChef.sol:MasterChef",
								"label": "lpToken",
								"offset": 0,
								"slot": "0",
								"type": "t_contract(IERC20)225"
							},
							{
								"astId": 867,
								"contract": "MasterChef.sol:MasterChef",
								"label": "allocPoint",
								"offset": 0,
								"slot": "1",
								"type": "t_uint256"
							},
							{
								"astId": 869,
								"contract": "MasterChef.sol:MasterChef",
								"label": "lastRewardBlock",
								"offset": 0,
								"slot": "2",
								"type": "t_uint256"
							},
							{
								"astId": 871,
								"contract": "MasterChef.sol:MasterChef",
								"label": "accSushiPerShare",
								"offset": 0,
								"slot": "3",
								"type": "t_uint256"
							}
						],
						"numberOfBytes": "128"
					},
					"t_struct(UserInfo)862_storage": {
						"encoding": "inplace",
						"label": "struct MasterChef.UserInfo",
						"members": [
							{
								"astId": 859,
								"contract": "MasterChef.sol:MasterChef",
								"label": "amount",
								"offset": 0,
								"slot": "0",
								"type": "t_uint256"
							},
							{
								"astId": 861,
								"contract": "MasterChef.sol:MasterChef",
								"label": "rewardDebt",
								"offset": 0,
								"slot": "1",
								"type": "t_uint256"
							}
						],
						"numberOfBytes": "64"
					},
					"t_uint256": {
						"encoding": "inplace",
						"label": "uint256",
						"numberOfBytes": "32"
					}
				}
			},
			"userdoc": {
				"kind": "user",
				"methods": {},
				"version": 1
			}
		}
	}
}