{
	"MyCallOption.sol": {
		"MyCallOption": {
			"abi": [
				{
					"inputs": [
						{
							"internalType": "contract IERC20",
							"name": "_usdc",
							"type": "address"
						},
						{
							"internalType": "uint128",
							"name": "_price",
							"type": "uint128"
						},
						{
							"internalType": "uint96",
							"name": "_exerciseTime",
							"type": "uint96"
						},
						{
							"internalType": "uint32",
							"name": "_durationTime",
							"type": "uint32"
						}
					],
					"stateMutability": "nonpayable",
					"type": "constructor"
				},
				{
					"inputs": [
						{
							"internalType": "address",
							"name": "target",
							"type": "address"
						}
					],
					"name": "AddressEmptyCode",
					"type": "error"
				},
				{
					"inputs": [
						{
							"internalType": "address",
							"name": "account",
							"type": "address"
						}
					],
					"name": "AddressInsufficientBalance",
					"type": "error"
				},
				{
					"inputs": [
						{
							"internalType": "address",
							"name": "spender",
							"type": "address"
						},
						{
							"internalType": "uint256",
							"name": "allowance",
							"type": "uint256"
						},
						{
							"internalType": "uint256",
							"name": "needed",
							"type": "uint256"
						}
					],
					"name": "ERC20InsufficientAllowance",
					"type": "error"
				},
				{
					"inputs": [
						{
							"internalType": "address",
							"name": "sender",
							"type": "address"
						},
						{
							"internalType": "uint256",
							"name": "balance",
							"type": "uint256"
						},
						{
							"internalType": "uint256",
							"name": "needed",
							"type": "uint256"
						}
					],
					"name": "ERC20InsufficientBalance",
					"type": "error"
				},
				{
					"inputs": [
						{
							"internalType": "address",
							"name": "approver",
							"type": "address"
						}
					],
					"name": "ERC20InvalidApprover",
					"type": "error"
				},
				{
					"inputs": [
						{
							"internalType": "address",
							"name": "receiver",
							"type": "address"
						}
					],
					"name": "ERC20InvalidReceiver",
					"type": "error"
				},
				{
					"inputs": [
						{
							"internalType": "address",
							"name": "sender",
							"type": "address"
						}
					],
					"name": "ERC20InvalidSender",
					"type": "error"
				},
				{
					"inputs": [
						{
							"internalType": "address",
							"name": "spender",
							"type": "address"
						}
					],
					"name": "ERC20InvalidSpender",
					"type": "error"
				},
				{
					"inputs": [],
					"name": "FailedInnerCall",
					"type": "error"
				},
				{
					"inputs": [
						{
							"internalType": "address",
							"name": "owner",
							"type": "address"
						}
					],
					"name": "OwnableInvalidOwner",
					"type": "error"
				},
				{
					"inputs": [
						{
							"internalType": "address",
							"name": "account",
							"type": "address"
						}
					],
					"name": "OwnableUnauthorizedAccount",
					"type": "error"
				},
				{
					"inputs": [
						{
							"internalType": "address",
							"name": "token",
							"type": "address"
						}
					],
					"name": "SafeERC20FailedOperation",
					"type": "error"
				},
				{
					"anonymous": false,
					"inputs": [
						{
							"indexed": true,
							"internalType": "address",
							"name": "owner",
							"type": "address"
						},
						{
							"indexed": true,
							"internalType": "address",
							"name": "spender",
							"type": "address"
						},
						{
							"indexed": false,
							"internalType": "uint256",
							"name": "value",
							"type": "uint256"
						}
					],
					"name": "Approval",
					"type": "event"
				},
				{
					"anonymous": false,
					"inputs": [
						{
							"indexed": true,
							"internalType": "address",
							"name": "previousOwner",
							"type": "address"
						},
						{
							"indexed": true,
							"internalType": "address",
							"name": "newOwner",
							"type": "address"
						}
					],
					"name": "OwnershipTransferred",
					"type": "event"
				},
				{
					"anonymous": false,
					"inputs": [
						{
							"indexed": true,
							"internalType": "address",
							"name": "from",
							"type": "address"
						},
						{
							"indexed": true,
							"internalType": "address",
							"name": "to",
							"type": "address"
						},
						{
							"indexed": false,
							"internalType": "uint256",
							"name": "value",
							"type": "uint256"
						}
					],
					"name": "Transfer",
					"type": "event"
				},
				{
					"inputs": [
						{
							"internalType": "address",
							"name": "owner",
							"type": "address"
						},
						{
							"internalType": "address",
							"name": "spender",
							"type": "address"
						}
					],
					"name": "allowance",
					"outputs": [
						{
							"internalType": "uint256",
							"name": "",
							"type": "uint256"
						}
					],
					"stateMutability": "view",
					"type": "function"
				},
				{
					"inputs": [
						{
							"internalType": "address",
							"name": "spender",
							"type": "address"
						},
						{
							"internalType": "uint256",
							"name": "value",
							"type": "uint256"
						}
					],
					"name": "approve",
					"outputs": [
						{
							"internalType": "bool",
							"name": "",
							"type": "bool"
						}
					],
					"stateMutability": "nonpayable",
					"type": "function"
				},
				{
					"inputs": [
						{
							"internalType": "address",
							"name": "account",
							"type": "address"
						}
					],
					"name": "balanceOf",
					"outputs": [
						{
							"internalType": "uint256",
							"name": "",
							"type": "uint256"
						}
					],
					"stateMutability": "view",
					"type": "function"
				},
				{
					"inputs": [],
					"name": "decimals",
					"outputs": [
						{
							"internalType": "uint8",
							"name": "",
							"type": "uint8"
						}
					],
					"stateMutability": "view",
					"type": "function"
				},
				{
					"inputs": [],
					"name": "destory",
					"outputs": [],
					"stateMutability": "nonpayable",
					"type": "function"
				},
				{
					"inputs": [],
					"name": "durationTime",
					"outputs": [
						{
							"internalType": "uint32",
							"name": "",
							"type": "uint32"
						}
					],
					"stateMutability": "view",
					"type": "function"
				},
				{
					"inputs": [],
					"name": "exerciseTime",
					"outputs": [
						{
							"internalType": "uint96",
							"name": "",
							"type": "uint96"
						}
					],
					"stateMutability": "view",
					"type": "function"
				},
				{
					"inputs": [],
					"name": "issueOption",
					"outputs": [],
					"stateMutability": "payable",
					"type": "function"
				},
				{
					"inputs": [],
					"name": "name",
					"outputs": [
						{
							"internalType": "string",
							"name": "",
							"type": "string"
						}
					],
					"stateMutability": "view",
					"type": "function"
				},
				{
					"inputs": [],
					"name": "owner",
					"outputs": [
						{
							"internalType": "address",
							"name": "",
							"type": "address"
						}
					],
					"stateMutability": "view",
					"type": "function"
				},
				{
					"inputs": [],
					"name": "price",
					"outputs": [
						{
							"internalType": "uint128",
							"name": "",
							"type": "uint128"
						}
					],
					"stateMutability": "view",
					"type": "function"
				},
				{
					"inputs": [],
					"name": "renounceOwnership",
					"outputs": [],
					"stateMutability": "nonpayable",
					"type": "function"
				},
				{
					"inputs": [
						{
							"internalType": "uint256",
							"name": "_amount",
							"type": "uint256"
						}
					],
					"name": "settleOption",
					"outputs": [],
					"stateMutability": "nonpayable",
					"type": "function"
				},
				{
					"inputs": [],
					"name": "symbol",
					"outputs": [
						{
							"internalType": "string",
							"name": "",
							"type": "string"
						}
					],
					"stateMutability": "view",
					"type": "function"
				},
				{
					"inputs": [],
					"name": "totalSupply",
					"outputs": [
						{
							"internalType": "uint256",
							"name": "",
							"type": "uint256"
						}
					],
					"stateMutability": "view",
					"type": "function"
				},
				{
					"inputs": [
						{
							"internalType": "address",
							"name": "to",
							"type": "address"
						},
						{
							"internalType": "uint256",
							"name": "value",
							"type": "uint256"
						}
					],
					"name": "transfer",
					"outputs": [
						{
							"internalType": "bool",
							"name": "",
							"type": "bool"
						}
					],
					"stateMutability": "nonpayable",
					"type": "function"
				},
				{
					"inputs": [
						{
							"internalType": "address",
							"name": "from",
							"type": "address"
						},
						{
							"internalType": "address",
							"name": "to",
							"type": "address"
						},
						{
							"internalType": "uint256",
							"name": "value",
							"type": "uint256"
						}
					],
					"name": "transferFrom",
					"outputs": [
						{
							"internalType": "bool",
							"name": "",
							"type": "bool"
						}
					],
					"stateMutability": "nonpayable",
					"type": "function"
				},
				{
					"inputs": [
						{
							"internalType": "address",
							"name": "newOwner",
							"type": "address"
						}
					],
					"name": "transferOwnership",
					"outputs": [],
					"stateMutability": "nonpayable",
					"type": "function"
				},
				{
					"inputs": [],
					"name": "usdc",
					"outputs": [
						{
							"internalType": "contract IERC20",
							"name": "",
							"type": "address"
						}
					],
					"stateMutability": "view",
					"type": "function"
				}
			],
			"devdoc": {
				"errors": {
					"AddressEmptyCode(address)": [
						{
							"details": "There's no code at `target` (it is not a contract)."
						}
					],
					"AddressInsufficientBalance(address)": [
						{
							"details": "The ETH balance of the account is not enough to perform the operation."
						}
					],
					"ERC20InsufficientAllowance(address,uint256,uint256)": [
						{
							"details": "Indicates a failure with the `spender`’s `allowance`. Used in transfers.",
							"params": {
								"allowance": "Amount of tokens a `spender` is allowed to operate with.",
								"needed": "Minimum amount required to perform a transfer.",
								"spender": "Address that may be allowed to operate on tokens without being their owner."
							}
						}
					],
					"ERC20InsufficientBalance(address,uint256,uint256)": [
						{
							"details": "Indicates an error related to the current `balance` of a `sender`. Used in transfers.",
							"params": {
								"balance": "Current balance for the interacting account.",
								"needed": "Minimum amount required to perform a transfer.",
								"sender": "Address whose tokens are being transferred."
							}
						}
					],
					"ERC20InvalidApprover(address)": [
						{
							"details": "Indicates a failure with the `approver` of a token to be approved. Used in approvals.",
							"params": {
								"approver": "Address initiating an approval operation."
							}
						}
					],
					"ERC20InvalidReceiver(address)": [
						{
							"details": "Indicates a failure with the token `receiver`. Used in transfers.",
							"params": {
								"receiver": "Address to which tokens are being transferred."
							}
						}
					],
					"ERC20InvalidSender(address)": [
						{
							"details": "Indicates a failure with the token `sender`. Used in transfers.",
							"params": {
								"sender": "Address whose tokens are being transferred."
							}
						}
					],
					"ERC20InvalidSpender(address)": [
						{
							"details": "Indicates a failure with the `spender` to be approved. Used in approvals.",
							"params": {
								"spender": "Address that may be allowed to operate on tokens without being their owner."
							}
						}
					],
					"FailedInnerCall()": [
						{
							"details": "A call to an address target failed. The target may have reverted."
						}
					],
					"OwnableInvalidOwner(address)": [
						{
							"details": "The owner is not a valid owner account. (eg. `address(0)`)"
						}
					],
					"OwnableUnauthorizedAccount(address)": [
						{
							"details": "The caller account is not authorized to perform an operation."
						}
					],
					"SafeERC20FailedOperation(address)": [
						{
							"details": "An operation with an ERC20 token failed."
						}
					]
				},
				"events": {
					"Approval(address,address,uint256)": {
						"details": "Emitted when the allowance of a `spender` for an `owner` is set by a call to {approve}. `value` is the new allowance."
					},
					"Transfer(address,address,uint256)": {
						"details": "Emitted when `value` tokens are moved from one account (`from`) to another (`to`). Note that `value` may be zero."
					}
				},
				"kind": "dev",
				"methods": {
					"allowance(address,address)": {
						"details": "See {IERC20-allowance}."
					},
					"approve(address,uint256)": {
						"details": "See {IERC20-approve}. NOTE: If `value` is the maximum `uint256`, the allowance is not updated on `transferFrom`. This is semantically equivalent to an infinite approval. Requirements: - `spender` cannot be the zero address."
					},
					"balanceOf(address)": {
						"details": "See {IERC20-balanceOf}."
					},
					"decimals()": {
						"details": "Returns the number of decimals used to get its user representation. For example, if `decimals` equals `2`, a balance of `505` tokens should be displayed to a user as `5.05` (`505 / 10 ** 2`). Tokens usually opt for a value of 18, imitating the relationship between Ether and Wei. This is the default value returned by this function, unless it's overridden. NOTE: This information is only used for _display_ purposes: it in no way affects any of the arithmetic of the contract, including {IERC20-balanceOf} and {IERC20-transfer}."
					},
					"name()": {
						"details": "Returns the name of the token."
					},
					"owner()": {
						"details": "Returns the address of the current owner."
					},
					"renounceOwnership()": {
						"details": "Leaves the contract without owner. It will not be possible to call `onlyOwner` functions. Can only be called by the current owner. NOTE: Renouncing ownership will leave the contract without an owner, thereby disabling any functionality that is only available to the owner."
					},
					"symbol()": {
						"details": "Returns the symbol of the token, usually a shorter version of the name."
					},
					"totalSupply()": {
						"details": "See {IERC20-totalSupply}."
					},
					"transfer(address,uint256)": {
						"details": "See {IERC20-transfer}. Requirements: - `to` cannot be the zero address. - the caller must have a balance of at least `value`."
					},
					"transferFrom(address,address,uint256)": {
						"details": "See {IERC20-transferFrom}. Emits an {Approval} event indicating the updated allowance. This is not required by the EIP. See the note at the beginning of {ERC20}. NOTE: Does not update the allowance if the current allowance is the maximum `uint256`. Requirements: - `from` and `to` cannot be the zero address. - `from` must have a balance of at least `value`. - the caller must have allowance for ``from``'s tokens of at least `value`."
					},
					"transferOwnership(address)": {
						"details": "Transfers ownership of the contract to a new account (`newOwner`). Can only be called by the current owner."
					}
				},
				"version": 1
			},
			"evm": {
				"assembly": "    /* \"MyCallOption.sol\":383:1964  contract MyCallOption is ERC20, Ownable{... */\n  mstore(0x40, 0x80)\n    /* \"MyCallOption.sol\":586:884  constructor(IERC20 _usdc, uint128 _price, uint96 _exerciseTime, uint32 _durationTime) ERC20(unicode\"我的测试看多期权Token\", \"CALLTOKEN\") Ownable(msg.sender){... */\n  callvalue\n  dup1\n  iszero\n  tag_1\n  jumpi\n  revert(0x00, 0x00)\ntag_1:\n  pop\n  mload(0x40)\n  sub(codesize, bytecodeSize)\n  dup1\n  bytecodeSize\n  dup4\n  codecopy\n  dup2\n  dup2\n  add\n  0x40\n  mstore\n  dup2\n  add\n  swap1\n  tag_2\n  swap2\n  swap1\n  tag_3\n  jump\t// in\ntag_2:\n    /* \"MyCallOption.sol\":739:749  msg.sender */\n  caller\n    /* \"@openzeppelin/contracts/token/ERC20/ERC20.sol\":1896:2009  constructor(string memory name_, string memory symbol_) {... */\n  mload(0x40)\n  dup1\n  0x40\n  add\n  0x40\n  mstore\n  dup1\n  0x1d\n  dup2\n  mstore\n  0x20\n  add\n  0xe68891e79a84e6b58be8af95e79c8be5a49ae69c9fe69d83546f6b656e000000\n  dup2\n  mstore\n  pop\n  mload(0x40)\n  dup1\n  0x40\n  add\n  0x40\n  mstore\n  dup1\n  0x09\n  dup2\n  mstore\n  0x20\n  add\n  0x43414c4c544f4b454e0000000000000000000000000000000000000000000000\n  dup2\n  mstore\n  pop\n    /* \"@openzeppelin/contracts/token/ERC20/ERC20.sol\":1970:1975  name_ */\n  dup2\n    /* \"@openzeppelin/contracts/token/ERC20/ERC20.sol\":1962:1967  _name */\n  0x03\n    /* \"@openzeppelin/contracts/token/ERC20/ERC20.sol\":1962:1975  _name = name_ */\n  swap1\n  dup2\n  tag_8\n  swap2\n  swap1\n  tag_9\n  jump\t// in\ntag_8:\n  pop\n    /* \"@openzeppelin/contracts/token/ERC20/ERC20.sol\":1995:2002  symbol_ */\n  dup1\n    /* \"@openzeppelin/contracts/token/ERC20/ERC20.sol\":1985:1992  _symbol */\n  0x04\n    /* \"@openzeppelin/contracts/token/ERC20/ERC20.sol\":1985:2002  _symbol = symbol_ */\n  swap1\n  dup2\n  tag_10\n  swap2\n  swap1\n  tag_9\n  jump\t// in\ntag_10:\n  pop\n    /* \"@openzeppelin/contracts/token/ERC20/ERC20.sol\":1896:2009  constructor(string memory name_, string memory symbol_) {... */\n  pop\n  pop\n    /* \"@openzeppelin/contracts/access/Ownable.sol\":1297:1298  0 */\n  0x00\n    /* \"@openzeppelin/contracts/access/Ownable.sol\":1273:1299  initialOwner == address(0) */\n  0xffffffffffffffffffffffffffffffffffffffff\n  and\n    /* \"@openzeppelin/contracts/access/Ownable.sol\":1273:1285  initialOwner */\n  dup2\n    /* \"@openzeppelin/contracts/access/Ownable.sol\":1273:1299  initialOwner == address(0) */\n  0xffffffffffffffffffffffffffffffffffffffff\n  and\n  sub\n    /* \"@openzeppelin/contracts/access/Ownable.sol\":1269:1364  if (initialOwner == address(0)) {... */\n  tag_12\n  jumpi\n    /* \"@openzeppelin/contracts/access/Ownable.sol\":1350:1351  0 */\n  0x00\n    /* \"@openzeppelin/contracts/access/Ownable.sol\":1322:1353  OwnableInvalidOwner(address(0)) */\n  mload(0x40)\n  0x1e4fbdf700000000000000000000000000000000000000000000000000000000\n  dup2\n  mstore\n  0x04\n  add\n  tag_13\n  swap2\n  swap1\n  tag_14\n  jump\t// in\ntag_13:\n  mload(0x40)\n  dup1\n  swap2\n  sub\n  swap1\n  revert\n    /* \"@openzeppelin/contracts/access/Ownable.sol\":1269:1364  if (initialOwner == address(0)) {... */\ntag_12:\n    /* \"@openzeppelin/contracts/access/Ownable.sol\":1373:1405  _transferOwnership(initialOwner) */\n  tag_15\n    /* \"@openzeppelin/contracts/access/Ownable.sol\":1392:1404  initialOwner */\n  dup2\n    /* \"@openzeppelin/contracts/access/Ownable.sol\":1373:1391  _transferOwnership */\n  shl(0x20, tag_16)\n    /* \"@openzeppelin/contracts/access/Ownable.sol\":1373:1405  _transferOwnership(initialOwner) */\n  0x20\n  shr\n  jump\t// in\ntag_15:\n    /* \"@openzeppelin/contracts/access/Ownable.sol\":1225:1412  constructor(address initialOwner) {... */\n  pop\n    /* \"MyCallOption.sol\":769:775  _price */\n  dup3\n    /* \"MyCallOption.sol\":761:766  price */\n  0x07\n  0x00\n    /* \"MyCallOption.sol\":761:775  price = _price */\n  0x0100\n  exp\n  dup2\n  sload\n  dup2\n  0xffffffffffffffffffffffffffffffff\n  mul\n  not\n  and\n  swap1\n  dup4\n  0xffffffffffffffffffffffffffffffff\n  and\n  mul\n  or\n  swap1\n  sstore\n  pop\n    /* \"MyCallOption.sol\":801:814  _exerciseTime */\n  dup2\n    /* \"MyCallOption.sol\":786:798  exerciseTime */\n  0x07\n  0x10\n    /* \"MyCallOption.sol\":786:814  exerciseTime = _exerciseTime */\n  0x0100\n  exp\n  dup2\n  sload\n  dup2\n  0xffffffffffffffffffffffff\n  mul\n  not\n  and\n  swap1\n  dup4\n  0xffffffffffffffffffffffff\n  and\n  mul\n  or\n  swap1\n  sstore\n  pop\n    /* \"MyCallOption.sol\":840:853  _durationTime */\n  dup1\n    /* \"MyCallOption.sol\":825:837  durationTime */\n  0x07\n  0x1c\n    /* \"MyCallOption.sol\":825:853  durationTime = _durationTime */\n  0x0100\n  exp\n  dup2\n  sload\n  dup2\n  0xffffffff\n  mul\n  not\n  and\n  swap1\n  dup4\n  0xffffffff\n  and\n  mul\n  or\n  swap1\n  sstore\n  pop\n    /* \"MyCallOption.sol\":871:876  _usdc */\n  dup4\n    /* \"MyCallOption.sol\":864:868  usdc */\n  0x06\n  0x00\n    /* \"MyCallOption.sol\":864:876  usdc = _usdc */\n  0x0100\n  exp\n  dup2\n  sload\n  dup2\n  0xffffffffffffffffffffffffffffffffffffffff\n  mul\n  not\n  and\n  swap1\n  dup4\n  0xffffffffffffffffffffffffffffffffffffffff\n  and\n  mul\n  or\n  swap1\n  sstore\n  pop\n    /* \"MyCallOption.sol\":586:884  constructor(IERC20 _usdc, uint128 _price, uint96 _exerciseTime, uint32 _durationTime) ERC20(unicode\"我的测试看多期权Token\", \"CALLTOKEN\") Ownable(msg.sender){... */\n  pop\n  pop\n  pop\n  pop\n    /* \"MyCallOption.sol\":383:1964  contract MyCallOption is ERC20, Ownable{... */\n  jump(tag_18)\n    /* \"@openzeppelin/contracts/access/Ownable.sol\":2912:3099  function _transferOwnership(address newOwner) internal virtual {... */\ntag_16:\n    /* \"@openzeppelin/contracts/access/Ownable.sol\":2985:3001  address oldOwner */\n  0x00\n    /* \"@openzeppelin/contracts/access/Ownable.sol\":3004:3010  _owner */\n  0x05\n  0x00\n  swap1\n  sload\n  swap1\n  0x0100\n  exp\n  swap1\n  div\n  0xffffffffffffffffffffffffffffffffffffffff\n  and\n    /* \"@openzeppelin/contracts/access/Ownable.sol\":2985:3010  address oldOwner = _owner */\n  swap1\n  pop\n    /* \"@openzeppelin/contracts/access/Ownable.sol\":3029:3037  newOwner */\n  dup2\n    /* \"@openzeppelin/contracts/access/Ownable.sol\":3020:3026  _owner */\n  0x05\n  0x00\n    /* \"@openzeppelin/contracts/access/Ownable.sol\":3020:3037  _owner = newOwner */\n  0x0100\n  exp\n  dup2\n  sload\n  dup2\n  0xffffffffffffffffffffffffffffffffffffffff\n  mul\n  not\n  and\n  swap1\n  dup4\n  0xffffffffffffffffffffffffffffffffffffffff\n  and\n  mul\n  or\n  swap1\n  sstore\n  pop\n    /* \"@openzeppelin/contracts/access/Ownable.sol\":3083:3091  newOwner */\n  dup2\n    /* \"@openzeppelin/contracts/access/Ownable.sol\":3052:3092  OwnershipTransferred(oldOwner, newOwner) */\n  0xffffffffffffffffffffffffffffffffffffffff\n  and\n    /* \"@openzeppelin/contracts/access/Ownable.sol\":3073:3081  oldOwner */\n  dup2\n    /* \"@openzeppelin/contracts/access/Ownable.sol\":3052:3092  OwnershipTransferred(oldOwner, newOwner) */\n  0xffffffffffffffffffffffffffffffffffffffff\n  and\n  0x8be0079c531659141344cd1fd0a4f28419497f9722a3daafe3b4186f6b6457e0\n  mload(0x40)\n  mload(0x40)\n  dup1\n  swap2\n  sub\n  swap1\n  log3\n    /* \"@openzeppelin/contracts/access/Ownable.sol\":2975:3099  {... */\n  pop\n    /* \"@openzeppelin/contracts/access/Ownable.sol\":2912:3099  function _transferOwnership(address newOwner) internal virtual {... */\n  pop\n  jump\t// out\n    /* \"#utility.yul\":88:205   */\ntag_21:\n    /* \"#utility.yul\":197:198   */\n  0x00\n    /* \"#utility.yul\":194:195   */\n  0x00\n    /* \"#utility.yul\":187:199   */\n  revert\n    /* \"#utility.yul\":334:460   */\ntag_23:\n    /* \"#utility.yul\":371:378   */\n  0x00\n    /* \"#utility.yul\":411:453   */\n  0xffffffffffffffffffffffffffffffffffffffff\n    /* \"#utility.yul\":404:409   */\n  dup3\n    /* \"#utility.yul\":400:454   */\n  and\n    /* \"#utility.yul\":389:454   */\n  swap1\n  pop\n    /* \"#utility.yul\":334:460   */\n  swap2\n  swap1\n  pop\n  jump\t// out\n    /* \"#utility.yul\":466:562   */\ntag_24:\n    /* \"#utility.yul\":503:510   */\n  0x00\n    /* \"#utility.yul\":532:556   */\n  tag_64\n    /* \"#utility.yul\":550:555   */\n  dup3\n    /* \"#utility.yul\":532:556   */\n  tag_23\n  jump\t// in\ntag_64:\n    /* \"#utility.yul\":521:556   */\n  swap1\n  pop\n    /* \"#utility.yul\":466:562   */\n  swap2\n  swap1\n  pop\n  jump\t// out\n    /* \"#utility.yul\":568:678   */\ntag_25:\n    /* \"#utility.yul\":619:626   */\n  0x00\n    /* \"#utility.yul\":648:672   */\n  tag_66\n    /* \"#utility.yul\":666:671   */\n  dup3\n    /* \"#utility.yul\":648:672   */\n  tag_24\n  jump\t// in\ntag_66:\n    /* \"#utility.yul\":637:672   */\n  swap1\n  pop\n    /* \"#utility.yul\":568:678   */\n  swap2\n  swap1\n  pop\n  jump\t// out\n    /* \"#utility.yul\":684:834   */\ntag_26:\n    /* \"#utility.yul\":771:809   */\n  tag_68\n    /* \"#utility.yul\":803:808   */\n  dup2\n    /* \"#utility.yul\":771:809   */\n  tag_25\n  jump\t// in\ntag_68:\n    /* \"#utility.yul\":764:769   */\n  dup2\n    /* \"#utility.yul\":761:810   */\n  eq\n    /* \"#utility.yul\":751:828   */\n  tag_69\n  jumpi\n    /* \"#utility.yul\":824:825   */\n  0x00\n    /* \"#utility.yul\":821:822   */\n  0x00\n    /* \"#utility.yul\":814:826   */\n  revert\n    /* \"#utility.yul\":751:828   */\ntag_69:\n    /* \"#utility.yul\":684:834   */\n  pop\n  jump\t// out\n    /* \"#utility.yul\":840:1011   */\ntag_27:\n    /* \"#utility.yul\":911:916   */\n  0x00\n    /* \"#utility.yul\":942:948   */\n  dup2\n    /* \"#utility.yul\":936:949   */\n  mload\n    /* \"#utility.yul\":927:949   */\n  swap1\n  pop\n    /* \"#utility.yul\":958:1005   */\n  tag_71\n    /* \"#utility.yul\":999:1004   */\n  dup2\n    /* \"#utility.yul\":958:1005   */\n  tag_26\n  jump\t// in\ntag_71:\n    /* \"#utility.yul\":840:1011   */\n  swap3\n  swap2\n  pop\n  pop\n  jump\t// out\n    /* \"#utility.yul\":1017:1135   */\ntag_28:\n    /* \"#utility.yul\":1054:1061   */\n  0x00\n    /* \"#utility.yul\":1094:1128   */\n  0xffffffffffffffffffffffffffffffff\n    /* \"#utility.yul\":1087:1092   */\n  dup3\n    /* \"#utility.yul\":1083:1129   */\n  and\n    /* \"#utility.yul\":1072:1129   */\n  swap1\n  pop\n    /* \"#utility.yul\":1017:1135   */\n  swap2\n  swap1\n  pop\n  jump\t// out\n    /* \"#utility.yul\":1141:1263   */\ntag_29:\n    /* \"#utility.yul\":1214:1238   */\n  tag_74\n    /* \"#utility.yul\":1232:1237   */\n  dup2\n    /* \"#utility.yul\":1214:1238   */\n  tag_28\n  jump\t// in\ntag_74:\n    /* \"#utility.yul\":1207:1212   */\n  dup2\n    /* \"#utility.yul\":1204:1239   */\n  eq\n    /* \"#utility.yul\":1194:1257   */\n  tag_75\n  jumpi\n    /* \"#utility.yul\":1253:1254   */\n  0x00\n    /* \"#utility.yul\":1250:1251   */\n  0x00\n    /* \"#utility.yul\":1243:1255   */\n  revert\n    /* \"#utility.yul\":1194:1257   */\ntag_75:\n    /* \"#utility.yul\":1141:1263   */\n  pop\n  jump\t// out\n    /* \"#utility.yul\":1269:1412   */\ntag_30:\n    /* \"#utility.yul\":1326:1331   */\n  0x00\n    /* \"#utility.yul\":1357:1363   */\n  dup2\n    /* \"#utility.yul\":1351:1364   */\n  mload\n    /* \"#utility.yul\":1342:1364   */\n  swap1\n  pop\n    /* \"#utility.yul\":1373:1406   */\n  tag_77\n    /* \"#utility.yul\":1400:1405   */\n  dup2\n    /* \"#utility.yul\":1373:1406   */\n  tag_29\n  jump\t// in\ntag_77:\n    /* \"#utility.yul\":1269:1412   */\n  swap3\n  swap2\n  pop\n  pop\n  jump\t// out\n    /* \"#utility.yul\":1418:1527   */\ntag_31:\n    /* \"#utility.yul\":1454:1461   */\n  0x00\n    /* \"#utility.yul\":1494:1520   */\n  0xffffffffffffffffffffffff\n    /* \"#utility.yul\":1487:1492   */\n  dup3\n    /* \"#utility.yul\":1483:1521   */\n  and\n    /* \"#utility.yul\":1472:1521   */\n  swap1\n  pop\n    /* \"#utility.yul\":1418:1527   */\n  swap2\n  swap1\n  pop\n  jump\t// out\n    /* \"#utility.yul\":1533:1653   */\ntag_32:\n    /* \"#utility.yul\":1605:1628   */\n  tag_80\n    /* \"#utility.yul\":1622:1627   */\n  dup2\n    /* \"#utility.yul\":1605:1628   */\n  tag_31\n  jump\t// in\ntag_80:\n    /* \"#utility.yul\":1598:1603   */\n  dup2\n    /* \"#utility.yul\":1595:1629   */\n  eq\n    /* \"#utility.yul\":1585:1647   */\n  tag_81\n  jumpi\n    /* \"#utility.yul\":1643:1644   */\n  0x00\n    /* \"#utility.yul\":1640:1641   */\n  0x00\n    /* \"#utility.yul\":1633:1645   */\n  revert\n    /* \"#utility.yul\":1585:1647   */\ntag_81:\n    /* \"#utility.yul\":1533:1653   */\n  pop\n  jump\t// out\n    /* \"#utility.yul\":1659:1800   */\ntag_33:\n    /* \"#utility.yul\":1715:1720   */\n  0x00\n    /* \"#utility.yul\":1746:1752   */\n  dup2\n    /* \"#utility.yul\":1740:1753   */\n  mload\n    /* \"#utility.yul\":1731:1753   */\n  swap1\n  pop\n    /* \"#utility.yul\":1762:1794   */\n  tag_83\n    /* \"#utility.yul\":1788:1793   */\n  dup2\n    /* \"#utility.yul\":1762:1794   */\n  tag_32\n  jump\t// in\ntag_83:\n    /* \"#utility.yul\":1659:1800   */\n  swap3\n  swap2\n  pop\n  pop\n  jump\t// out\n    /* \"#utility.yul\":1806:1899   */\ntag_34:\n    /* \"#utility.yul\":1842:1849   */\n  0x00\n    /* \"#utility.yul\":1882:1892   */\n  0xffffffff\n    /* \"#utility.yul\":1875:1880   */\n  dup3\n    /* \"#utility.yul\":1871:1893   */\n  and\n    /* \"#utility.yul\":1860:1893   */\n  swap1\n  pop\n    /* \"#utility.yul\":1806:1899   */\n  swap2\n  swap1\n  pop\n  jump\t// out\n    /* \"#utility.yul\":1905:2025   */\ntag_35:\n    /* \"#utility.yul\":1977:2000   */\n  tag_86\n    /* \"#utility.yul\":1994:1999   */\n  dup2\n    /* \"#utility.yul\":1977:2000   */\n  tag_34\n  jump\t// in\ntag_86:\n    /* \"#utility.yul\":1970:1975   */\n  dup2\n    /* \"#utility.yul\":1967:2001   */\n  eq\n    /* \"#utility.yul\":1957:2019   */\n  tag_87\n  jumpi\n    /* \"#utility.yul\":2015:2016   */\n  0x00\n    /* \"#utility.yul\":2012:2013   */\n  0x00\n    /* \"#utility.yul\":2005:2017   */\n  revert\n    /* \"#utility.yul\":1957:2019   */\ntag_87:\n    /* \"#utility.yul\":1905:2025   */\n  pop\n  jump\t// out\n    /* \"#utility.yul\":2031:2172   */\ntag_36:\n    /* \"#utility.yul\":2087:2092   */\n  0x00\n    /* \"#utility.yul\":2118:2124   */\n  dup2\n    /* \"#utility.yul\":2112:2125   */\n  mload\n    /* \"#utility.yul\":2103:2125   */\n  swap1\n  pop\n    /* \"#utility.yul\":2134:2166   */\n  tag_89\n    /* \"#utility.yul\":2160:2165   */\n  dup2\n    /* \"#utility.yul\":2134:2166   */\n  tag_35\n  jump\t// in\ntag_89:\n    /* \"#utility.yul\":2031:2172   */\n  swap3\n  swap2\n  pop\n  pop\n  jump\t// out\n    /* \"#utility.yul\":2178:3022   */\ntag_3:\n    /* \"#utility.yul\":2287:2293   */\n  0x00\n    /* \"#utility.yul\":2295:2301   */\n  0x00\n    /* \"#utility.yul\":2303:2309   */\n  0x00\n    /* \"#utility.yul\":2311:2317   */\n  0x00\n    /* \"#utility.yul\":2360:2363   */\n  0x80\n    /* \"#utility.yul\":2348:2357   */\n  dup6\n    /* \"#utility.yul\":2339:2346   */\n  dup8\n    /* \"#utility.yul\":2335:2358   */\n  sub\n    /* \"#utility.yul\":2331:2364   */\n  slt\n    /* \"#utility.yul\":2328:2448   */\n  iszero\n  tag_91\n  jumpi\n    /* \"#utility.yul\":2367:2446   */\n  tag_92\n  tag_21\n  jump\t// in\ntag_92:\n    /* \"#utility.yul\":2328:2448   */\ntag_91:\n    /* \"#utility.yul\":2487:2488   */\n  0x00\n    /* \"#utility.yul\":2512:2590   */\n  tag_93\n    /* \"#utility.yul\":2582:2589   */\n  dup8\n    /* \"#utility.yul\":2573:2579   */\n  dup3\n    /* \"#utility.yul\":2562:2571   */\n  dup9\n    /* \"#utility.yul\":2558:2580   */\n  add\n    /* \"#utility.yul\":2512:2590   */\n  tag_27\n  jump\t// in\ntag_93:\n    /* \"#utility.yul\":2502:2590   */\n  swap5\n  pop\n    /* \"#utility.yul\":2458:2600   */\n  pop\n    /* \"#utility.yul\":2639:2641   */\n  0x20\n    /* \"#utility.yul\":2665:2729   */\n  tag_94\n    /* \"#utility.yul\":2721:2728   */\n  dup8\n    /* \"#utility.yul\":2712:2718   */\n  dup3\n    /* \"#utility.yul\":2701:2710   */\n  dup9\n    /* \"#utility.yul\":2697:2719   */\n  add\n    /* \"#utility.yul\":2665:2729   */\n  tag_30\n  jump\t// in\ntag_94:\n    /* \"#utility.yul\":2655:2729   */\n  swap4\n  pop\n    /* \"#utility.yul\":2610:2739   */\n  pop\n    /* \"#utility.yul\":2778:2780   */\n  0x40\n    /* \"#utility.yul\":2804:2867   */\n  tag_95\n    /* \"#utility.yul\":2859:2866   */\n  dup8\n    /* \"#utility.yul\":2850:2856   */\n  dup3\n    /* \"#utility.yul\":2839:2848   */\n  dup9\n    /* \"#utility.yul\":2835:2857   */\n  add\n    /* \"#utility.yul\":2804:2867   */\n  tag_33\n  jump\t// in\ntag_95:\n    /* \"#utility.yul\":2794:2867   */\n  swap3\n  pop\n    /* \"#utility.yul\":2749:2877   */\n  pop\n    /* \"#utility.yul\":2916:2918   */\n  0x60\n    /* \"#utility.yul\":2942:3005   */\n  tag_96\n    /* \"#utility.yul\":2997:3004   */\n  dup8\n    /* \"#utility.yul\":2988:2994   */\n  dup3\n    /* \"#utility.yul\":2977:2986   */\n  dup9\n    /* \"#utility.yul\":2973:2995   */\n  add\n    /* \"#utility.yul\":2942:3005   */\n  tag_36\n  jump\t// in\ntag_96:\n    /* \"#utility.yul\":2932:3005   */\n  swap2\n  pop\n    /* \"#utility.yul\":2887:3015   */\n  pop\n    /* \"#utility.yul\":2178:3022   */\n  swap3\n  swap6\n  swap2\n  swap5\n  pop\n  swap3\n  pop\n  jump\t// out\n    /* \"#utility.yul\":3028:3127   */\ntag_37:\n    /* \"#utility.yul\":3080:3086   */\n  0x00\n    /* \"#utility.yul\":3114:3119   */\n  dup2\n    /* \"#utility.yul\":3108:3120   */\n  mload\n    /* \"#utility.yul\":3098:3120   */\n  swap1\n  pop\n    /* \"#utility.yul\":3028:3127   */\n  swap2\n  swap1\n  pop\n  jump\t// out\n    /* \"#utility.yul\":3133:3313   */\ntag_38:\n    /* \"#utility.yul\":3181:3258   */\n  0x4e487b7100000000000000000000000000000000000000000000000000000000\n    /* \"#utility.yul\":3178:3179   */\n  0x00\n    /* \"#utility.yul\":3171:3259   */\n  mstore\n    /* \"#utility.yul\":3278:3282   */\n  0x41\n    /* \"#utility.yul\":3275:3276   */\n  0x04\n    /* \"#utility.yul\":3268:3283   */\n  mstore\n    /* \"#utility.yul\":3302:3306   */\n  0x24\n    /* \"#utility.yul\":3299:3300   */\n  0x00\n    /* \"#utility.yul\":3292:3307   */\n  revert\n    /* \"#utility.yul\":3319:3499   */\ntag_39:\n    /* \"#utility.yul\":3367:3444   */\n  0x4e487b7100000000000000000000000000000000000000000000000000000000\n    /* \"#utility.yul\":3364:3365   */\n  0x00\n    /* \"#utility.yul\":3357:3445   */\n  mstore\n    /* \"#utility.yul\":3464:3468   */\n  0x22\n    /* \"#utility.yul\":3461:3462   */\n  0x04\n    /* \"#utility.yul\":3454:3469   */\n  mstore\n    /* \"#utility.yul\":3488:3492   */\n  0x24\n    /* \"#utility.yul\":3485:3486   */\n  0x00\n    /* \"#utility.yul\":3478:3493   */\n  revert\n    /* \"#utility.yul\":3505:3825   */\ntag_40:\n    /* \"#utility.yul\":3549:3555   */\n  0x00\n    /* \"#utility.yul\":3586:3587   */\n  0x02\n    /* \"#utility.yul\":3580:3584   */\n  dup3\n    /* \"#utility.yul\":3576:3588   */\n  div\n    /* \"#utility.yul\":3566:3588   */\n  swap1\n  pop\n    /* \"#utility.yul\":3633:3634   */\n  0x01\n    /* \"#utility.yul\":3627:3631   */\n  dup3\n    /* \"#utility.yul\":3623:3635   */\n  and\n    /* \"#utility.yul\":3654:3672   */\n  dup1\n    /* \"#utility.yul\":3644:3725   */\n  tag_101\n  jumpi\n    /* \"#utility.yul\":3710:3714   */\n  0x7f\n    /* \"#utility.yul\":3702:3708   */\n  dup3\n    /* \"#utility.yul\":3698:3715   */\n  and\n    /* \"#utility.yul\":3688:3715   */\n  swap2\n  pop\n    /* \"#utility.yul\":3644:3725   */\ntag_101:\n    /* \"#utility.yul\":3772:3774   */\n  0x20\n    /* \"#utility.yul\":3764:3770   */\n  dup3\n    /* \"#utility.yul\":3761:3775   */\n  lt\n    /* \"#utility.yul\":3741:3759   */\n  dup2\n    /* \"#utility.yul\":3738:3776   */\n  sub\n    /* \"#utility.yul\":3735:3819   */\n  tag_102\n  jumpi\n    /* \"#utility.yul\":3791:3809   */\n  tag_103\n  tag_39\n  jump\t// in\ntag_103:\n    /* \"#utility.yul\":3735:3819   */\ntag_102:\n    /* \"#utility.yul\":3556:3825   */\n  pop\n    /* \"#utility.yul\":3505:3825   */\n  swap2\n  swap1\n  pop\n  jump\t// out\n    /* \"#utility.yul\":3831:3972   */\ntag_41:\n    /* \"#utility.yul\":3880:3884   */\n  0x00\n    /* \"#utility.yul\":3903:3906   */\n  dup2\n    /* \"#utility.yul\":3895:3906   */\n  swap1\n  pop\n    /* \"#utility.yul\":3926:3929   */\n  dup2\n    /* \"#utility.yul\":3923:3924   */\n  0x00\n    /* \"#utility.yul\":3916:3930   */\n  mstore\n    /* \"#utility.yul\":3960:3964   */\n  0x20\n    /* \"#utility.yul\":3957:3958   */\n  0x00\n    /* \"#utility.yul\":3947:3965   */\n  keccak256\n    /* \"#utility.yul\":3939:3965   */\n  swap1\n  pop\n    /* \"#utility.yul\":3831:3972   */\n  swap2\n  swap1\n  pop\n  jump\t// out\n    /* \"#utility.yul\":3978:4071   */\ntag_42:\n    /* \"#utility.yul\":4015:4021   */\n  0x00\n    /* \"#utility.yul\":4062:4064   */\n  0x20\n    /* \"#utility.yul\":4057:4059   */\n  0x1f\n    /* \"#utility.yul\":4050:4055   */\n  dup4\n    /* \"#utility.yul\":4046:4060   */\n  add\n    /* \"#utility.yul\":4042:4065   */\n  div\n    /* \"#utility.yul\":4032:4065   */\n  swap1\n  pop\n    /* \"#utility.yul\":3978:4071   */\n  swap2\n  swap1\n  pop\n  jump\t// out\n    /* \"#utility.yul\":4077:4184   */\ntag_43:\n    /* \"#utility.yul\":4121:4129   */\n  0x00\n    /* \"#utility.yul\":4171:4176   */\n  dup3\n    /* \"#utility.yul\":4165:4169   */\n  dup3\n    /* \"#utility.yul\":4161:4177   */\n  shl\n    /* \"#utility.yul\":4140:4177   */\n  swap1\n  pop\n    /* \"#utility.yul\":4077:4184   */\n  swap3\n  swap2\n  pop\n  pop\n  jump\t// out\n    /* \"#utility.yul\":4190:4583   */\ntag_44:\n    /* \"#utility.yul\":4259:4265   */\n  0x00\n    /* \"#utility.yul\":4309:4310   */\n  0x08\n    /* \"#utility.yul\":4297:4307   */\n  dup4\n    /* \"#utility.yul\":4293:4311   */\n  mul\n    /* \"#utility.yul\":4332:4429   */\n  tag_108\n    /* \"#utility.yul\":4362:4428   */\n  0xffffffffffffffffffffffffffffffffffffffffffffffffffffffffffffffff\n    /* \"#utility.yul\":4351:4360   */\n  dup3\n    /* \"#utility.yul\":4332:4429   */\n  tag_43\n  jump\t// in\ntag_108:\n    /* \"#utility.yul\":4450:4489   */\n  tag_109\n    /* \"#utility.yul\":4480:4488   */\n  dup7\n    /* \"#utility.yul\":4469:4478   */\n  dup4\n    /* \"#utility.yul\":4450:4489   */\n  tag_43\n  jump\t// in\ntag_109:\n    /* \"#utility.yul\":4438:4489   */\n  swap6\n  pop\n    /* \"#utility.yul\":4522:4526   */\n  dup1\n    /* \"#utility.yul\":4518:4527   */\n  not\n    /* \"#utility.yul\":4511:4516   */\n  dup5\n    /* \"#utility.yul\":4507:4528   */\n  and\n    /* \"#utility.yul\":4498:4528   */\n  swap4\n  pop\n    /* \"#utility.yul\":4571:4575   */\n  dup1\n    /* \"#utility.yul\":4561:4569   */\n  dup7\n    /* \"#utility.yul\":4557:4576   */\n  and\n    /* \"#utility.yul\":4550:4555   */\n  dup5\n    /* \"#utility.yul\":4547:4577   */\n  or\n    /* \"#utility.yul\":4537:4577   */\n  swap3\n  pop\n    /* \"#utility.yul\":4266:4583   */\n  pop\n  pop\n    /* \"#utility.yul\":4190:4583   */\n  swap4\n  swap3\n  pop\n  pop\n  pop\n  jump\t// out\n    /* \"#utility.yul\":4589:4666   */\ntag_45:\n    /* \"#utility.yul\":4626:4633   */\n  0x00\n    /* \"#utility.yul\":4655:4660   */\n  dup2\n    /* \"#utility.yul\":4644:4660   */\n  swap1\n  pop\n    /* \"#utility.yul\":4589:4666   */\n  swap2\n  swap1\n  pop\n  jump\t// out\n    /* \"#utility.yul\":4672:4732   */\ntag_46:\n    /* \"#utility.yul\":4700:4703   */\n  0x00\n    /* \"#utility.yul\":4721:4726   */\n  dup2\n    /* \"#utility.yul\":4714:4726   */\n  swap1\n  pop\n    /* \"#utility.yul\":4672:4732   */\n  swap2\n  swap1\n  pop\n  jump\t// out\n    /* \"#utility.yul\":4738:4880   */\ntag_47:\n    /* \"#utility.yul\":4788:4797   */\n  0x00\n    /* \"#utility.yul\":4821:4874   */\n  tag_113\n    /* \"#utility.yul\":4839:4873   */\n  tag_114\n    /* \"#utility.yul\":4848:4872   */\n  tag_115\n    /* \"#utility.yul\":4866:4871   */\n  dup5\n    /* \"#utility.yul\":4848:4872   */\n  tag_45\n  jump\t// in\ntag_115:\n    /* \"#utility.yul\":4839:4873   */\n  tag_46\n  jump\t// in\ntag_114:\n    /* \"#utility.yul\":4821:4874   */\n  tag_45\n  jump\t// in\ntag_113:\n    /* \"#utility.yul\":4808:4874   */\n  swap1\n  pop\n    /* \"#utility.yul\":4738:4880   */\n  swap2\n  swap1\n  pop\n  jump\t// out\n    /* \"#utility.yul\":4886:4961   */\ntag_48:\n    /* \"#utility.yul\":4929:4932   */\n  0x00\n    /* \"#utility.yul\":4950:4955   */\n  dup2\n    /* \"#utility.yul\":4943:4955   */\n  swap1\n  pop\n    /* \"#utility.yul\":4886:4961   */\n  swap2\n  swap1\n  pop\n  jump\t// out\n    /* \"#utility.yul\":4967:5236   */\ntag_49:\n    /* \"#utility.yul\":5077:5116   */\n  tag_118\n    /* \"#utility.yul\":5108:5115   */\n  dup4\n    /* \"#utility.yul\":5077:5116   */\n  tag_47\n  jump\t// in\ntag_118:\n    /* \"#utility.yul\":5138:5229   */\n  tag_119\n    /* \"#utility.yul\":5187:5228   */\n  tag_120\n    /* \"#utility.yul\":5211:5227   */\n  dup3\n    /* \"#utility.yul\":5187:5228   */\n  tag_48\n  jump\t// in\ntag_120:\n    /* \"#utility.yul\":5179:5185   */\n  dup5\n    /* \"#utility.yul\":5172:5176   */\n  dup5\n    /* \"#utility.yul\":5166:5177   */\n  sload\n    /* \"#utility.yul\":5138:5229   */\n  tag_44\n  jump\t// in\ntag_119:\n    /* \"#utility.yul\":5132:5136   */\n  dup3\n    /* \"#utility.yul\":5125:5230   */\n  sstore\n    /* \"#utility.yul\":5043:5236   */\n  pop\n    /* \"#utility.yul\":4967:5236   */\n  pop\n  pop\n  pop\n  jump\t// out\n    /* \"#utility.yul\":5242:5315   */\ntag_50:\n    /* \"#utility.yul\":5287:5290   */\n  0x00\n    /* \"#utility.yul\":5308:5309   */\n  0x00\n    /* \"#utility.yul\":5301:5309   */\n  swap1\n  pop\n    /* \"#utility.yul\":5242:5315   */\n  swap1\n  jump\t// out\n    /* \"#utility.yul\":5321:5510   */\ntag_51:\n    /* \"#utility.yul\":5398:5430   */\n  tag_123\n  tag_50\n  jump\t// in\ntag_123:\n    /* \"#utility.yul\":5439:5504   */\n  tag_124\n    /* \"#utility.yul\":5497:5503   */\n  dup2\n    /* \"#utility.yul\":5489:5495   */\n  dup5\n    /* \"#utility.yul\":5483:5487   */\n  dup5\n    /* \"#utility.yul\":5439:5504   */\n  tag_49\n  jump\t// in\ntag_124:\n    /* \"#utility.yul\":5374:5510   */\n  pop\n    /* \"#utility.yul\":5321:5510   */\n  pop\n  pop\n  jump\t// out\n    /* \"#utility.yul\":5516:5702   */\ntag_52:\n    /* \"#utility.yul\":5576:5696   */\ntag_126:\n    /* \"#utility.yul\":5593:5596   */\n  dup2\n    /* \"#utility.yul\":5586:5591   */\n  dup2\n    /* \"#utility.yul\":5583:5597   */\n  lt\n    /* \"#utility.yul\":5576:5696   */\n  iszero\n  tag_128\n  jumpi\n    /* \"#utility.yul\":5647:5686   */\n  tag_129\n    /* \"#utility.yul\":5684:5685   */\n  0x00\n    /* \"#utility.yul\":5677:5682   */\n  dup3\n    /* \"#utility.yul\":5647:5686   */\n  tag_51\n  jump\t// in\ntag_129:\n    /* \"#utility.yul\":5620:5621   */\n  0x01\n    /* \"#utility.yul\":5613:5618   */\n  dup2\n    /* \"#utility.yul\":5609:5622   */\n  add\n    /* \"#utility.yul\":5600:5622   */\n  swap1\n  pop\n    /* \"#utility.yul\":5576:5696   */\n  jump(tag_126)\ntag_128:\n    /* \"#utility.yul\":5516:5702   */\n  pop\n  pop\n  jump\t// out\n    /* \"#utility.yul\":5708:6251   */\ntag_53:\n    /* \"#utility.yul\":5809:5811   */\n  0x1f\n    /* \"#utility.yul\":5804:5807   */\n  dup3\n    /* \"#utility.yul\":5801:5812   */\n  gt\n    /* \"#utility.yul\":5798:6244   */\n  iszero\n  tag_131\n  jumpi\n    /* \"#utility.yul\":5843:5881   */\n  tag_132\n    /* \"#utility.yul\":5875:5880   */\n  dup2\n    /* \"#utility.yul\":5843:5881   */\n  tag_41\n  jump\t// in\ntag_132:\n    /* \"#utility.yul\":5927:5956   */\n  tag_133\n    /* \"#utility.yul\":5945:5955   */\n  dup5\n    /* \"#utility.yul\":5927:5956   */\n  tag_42\n  jump\t// in\ntag_133:\n    /* \"#utility.yul\":5917:5925   */\n  dup2\n    /* \"#utility.yul\":5913:5957   */\n  add\n    /* \"#utility.yul\":6110:6112   */\n  0x20\n    /* \"#utility.yul\":6098:6108   */\n  dup6\n    /* \"#utility.yul\":6095:6113   */\n  lt\n    /* \"#utility.yul\":6092:6141   */\n  iszero\n  tag_134\n  jumpi\n    /* \"#utility.yul\":6131:6139   */\n  dup2\n    /* \"#utility.yul\":6116:6139   */\n  swap1\n  pop\n    /* \"#utility.yul\":6092:6141   */\ntag_134:\n    /* \"#utility.yul\":6154:6234   */\n  tag_135\n    /* \"#utility.yul\":6210:6232   */\n  tag_136\n    /* \"#utility.yul\":6228:6231   */\n  dup6\n    /* \"#utility.yul\":6210:6232   */\n  tag_42\n  jump\t// in\ntag_136:\n    /* \"#utility.yul\":6200:6208   */\n  dup4\n    /* \"#utility.yul\":6196:6233   */\n  add\n    /* \"#utility.yul\":6183:6194   */\n  dup3\n    /* \"#utility.yul\":6154:6234   */\n  tag_52\n  jump\t// in\ntag_135:\n    /* \"#utility.yul\":5813:6244   */\n  pop\n  pop\n    /* \"#utility.yul\":5798:6244   */\ntag_131:\n    /* \"#utility.yul\":5708:6251   */\n  pop\n  pop\n  pop\n  jump\t// out\n    /* \"#utility.yul\":6257:6374   */\ntag_54:\n    /* \"#utility.yul\":6311:6319   */\n  0x00\n    /* \"#utility.yul\":6361:6366   */\n  dup3\n    /* \"#utility.yul\":6355:6359   */\n  dup3\n    /* \"#utility.yul\":6351:6367   */\n  shr\n    /* \"#utility.yul\":6330:6367   */\n  swap1\n  pop\n    /* \"#utility.yul\":6257:6374   */\n  swap3\n  swap2\n  pop\n  pop\n  jump\t// out\n    /* \"#utility.yul\":6380:6549   */\ntag_55:\n    /* \"#utility.yul\":6424:6430   */\n  0x00\n    /* \"#utility.yul\":6457:6508   */\n  tag_139\n    /* \"#utility.yul\":6505:6506   */\n  0x00\n    /* \"#utility.yul\":6501:6507   */\n  not\n    /* \"#utility.yul\":6493:6498   */\n  dup5\n    /* \"#utility.yul\":6490:6491   */\n  0x08\n    /* \"#utility.yul\":6486:6499   */\n  mul\n    /* \"#utility.yul\":6457:6508   */\n  tag_54\n  jump\t// in\ntag_139:\n    /* \"#utility.yul\":6453:6509   */\n  not\n    /* \"#utility.yul\":6538:6542   */\n  dup1\n    /* \"#utility.yul\":6532:6536   */\n  dup4\n    /* \"#utility.yul\":6528:6543   */\n  and\n    /* \"#utility.yul\":6518:6543   */\n  swap2\n  pop\n    /* \"#utility.yul\":6431:6549   */\n  pop\n    /* \"#utility.yul\":6380:6549   */\n  swap3\n  swap2\n  pop\n  pop\n  jump\t// out\n    /* \"#utility.yul\":6554:6849   */\ntag_56:\n    /* \"#utility.yul\":6630:6634   */\n  0x00\n    /* \"#utility.yul\":6776:6805   */\n  tag_141\n    /* \"#utility.yul\":6801:6804   */\n  dup4\n    /* \"#utility.yul\":6795:6799   */\n  dup4\n    /* \"#utility.yul\":6776:6805   */\n  tag_55\n  jump\t// in\ntag_141:\n    /* \"#utility.yul\":6768:6805   */\n  swap2\n  pop\n    /* \"#utility.yul\":6838:6841   */\n  dup3\n    /* \"#utility.yul\":6835:6836   */\n  0x02\n    /* \"#utility.yul\":6831:6842   */\n  mul\n    /* \"#utility.yul\":6825:6829   */\n  dup3\n    /* \"#utility.yul\":6822:6843   */\n  or\n    /* \"#utility.yul\":6814:6843   */\n  swap1\n  pop\n    /* \"#utility.yul\":6554:6849   */\n  swap3\n  swap2\n  pop\n  pop\n  jump\t// out\n    /* \"#utility.yul\":6854:8249   */\ntag_9:\n    /* \"#utility.yul\":6971:7008   */\n  tag_143\n    /* \"#utility.yul\":7004:7007   */\n  dup3\n    /* \"#utility.yul\":6971:7008   */\n  tag_37\n  jump\t// in\ntag_143:\n    /* \"#utility.yul\":7073:7091   */\n  0xffffffffffffffff\n    /* \"#utility.yul\":7065:7071   */\n  dup2\n    /* \"#utility.yul\":7062:7092   */\n  gt\n    /* \"#utility.yul\":7059:7115   */\n  iszero\n  tag_144\n  jumpi\n    /* \"#utility.yul\":7095:7113   */\n  tag_145\n  tag_38\n  jump\t// in\ntag_145:\n    /* \"#utility.yul\":7059:7115   */\ntag_144:\n    /* \"#utility.yul\":7139:7177   */\n  tag_146\n    /* \"#utility.yul\":7171:7175   */\n  dup3\n    /* \"#utility.yul\":7165:7176   */\n  sload\n    /* \"#utility.yul\":7139:7177   */\n  tag_40\n  jump\t// in\ntag_146:\n    /* \"#utility.yul\":7224:7291   */\n  tag_147\n    /* \"#utility.yul\":7284:7290   */\n  dup3\n    /* \"#utility.yul\":7276:7282   */\n  dup3\n    /* \"#utility.yul\":7270:7274   */\n  dup6\n    /* \"#utility.yul\":7224:7291   */\n  tag_53\n  jump\t// in\ntag_147:\n    /* \"#utility.yul\":7318:7319   */\n  0x00\n    /* \"#utility.yul\":7342:7346   */\n  0x20\n    /* \"#utility.yul\":7329:7346   */\n  swap1\n  pop\n    /* \"#utility.yul\":7374:7376   */\n  0x1f\n    /* \"#utility.yul\":7366:7372   */\n  dup4\n    /* \"#utility.yul\":7363:7377   */\n  gt\n    /* \"#utility.yul\":7391:7392   */\n  0x01\n    /* \"#utility.yul\":7386:8004   */\n  dup2\n  eq\n  tag_149\n  jumpi\n    /* \"#utility.yul\":8048:8049   */\n  0x00\n    /* \"#utility.yul\":8065:8071   */\n  dup5\n    /* \"#utility.yul\":8062:8139   */\n  iszero\n  tag_150\n  jumpi\n    /* \"#utility.yul\":8114:8123   */\n  dup3\n    /* \"#utility.yul\":8109:8112   */\n  dup8\n    /* \"#utility.yul\":8105:8124   */\n  add\n    /* \"#utility.yul\":8099:8125   */\n  mload\n    /* \"#utility.yul\":8090:8125   */\n  swap1\n  pop\n    /* \"#utility.yul\":8062:8139   */\ntag_150:\n    /* \"#utility.yul\":8165:8232   */\n  tag_151\n    /* \"#utility.yul\":8225:8231   */\n  dup6\n    /* \"#utility.yul\":8218:8223   */\n  dup3\n    /* \"#utility.yul\":8165:8232   */\n  tag_56\n  jump\t// in\ntag_151:\n    /* \"#utility.yul\":8159:8163   */\n  dup7\n    /* \"#utility.yul\":8152:8233   */\n  sstore\n    /* \"#utility.yul\":8021:8243   */\n  pop\n    /* \"#utility.yul\":7356:8243   */\n  jump(tag_148)\n    /* \"#utility.yul\":7386:8004   */\ntag_149:\n    /* \"#utility.yul\":7438:7442   */\n  0x1f\n    /* \"#utility.yul\":7434:7443   */\n  not\n    /* \"#utility.yul\":7426:7432   */\n  dup5\n    /* \"#utility.yul\":7422:7444   */\n  and\n    /* \"#utility.yul\":7472:7509   */\n  tag_152\n    /* \"#utility.yul\":7504:7508   */\n  dup7\n    /* \"#utility.yul\":7472:7509   */\n  tag_41\n  jump\t// in\ntag_152:\n    /* \"#utility.yul\":7531:7532   */\n  0x00\n    /* \"#utility.yul\":7545:7753   */\ntag_153:\n    /* \"#utility.yul\":7559:7566   */\n  dup3\n    /* \"#utility.yul\":7556:7557   */\n  dup2\n    /* \"#utility.yul\":7553:7567   */\n  lt\n    /* \"#utility.yul\":7545:7753   */\n  iszero\n  tag_155\n  jumpi\n    /* \"#utility.yul\":7638:7647   */\n  dup5\n    /* \"#utility.yul\":7633:7636   */\n  dup10\n    /* \"#utility.yul\":7629:7648   */\n  add\n    /* \"#utility.yul\":7623:7649   */\n  mload\n    /* \"#utility.yul\":7615:7621   */\n  dup3\n    /* \"#utility.yul\":7608:7650   */\n  sstore\n    /* \"#utility.yul\":7689:7690   */\n  0x01\n    /* \"#utility.yul\":7681:7687   */\n  dup3\n    /* \"#utility.yul\":7677:7691   */\n  add\n    /* \"#utility.yul\":7667:7691   */\n  swap2\n  pop\n    /* \"#utility.yul\":7736:7738   */\n  0x20\n    /* \"#utility.yul\":7725:7734   */\n  dup6\n    /* \"#utility.yul\":7721:7739   */\n  add\n    /* \"#utility.yul\":7708:7739   */\n  swap5\n  pop\n    /* \"#utility.yul\":7582:7586   */\n  0x20\n    /* \"#utility.yul\":7579:7580   */\n  dup2\n    /* \"#utility.yul\":7575:7587   */\n  add\n    /* \"#utility.yul\":7570:7587   */\n  swap1\n  pop\n    /* \"#utility.yul\":7545:7753   */\n  jump(tag_153)\ntag_155:\n    /* \"#utility.yul\":7781:7787   */\n  dup7\n    /* \"#utility.yul\":7772:7779   */\n  dup4\n    /* \"#utility.yul\":7769:7788   */\n  lt\n    /* \"#utility.yul\":7766:7945   */\n  iszero\n  tag_156\n  jumpi\n    /* \"#utility.yul\":7839:7848   */\n  dup5\n    /* \"#utility.yul\":7834:7837   */\n  dup10\n    /* \"#utility.yul\":7830:7849   */\n  add\n    /* \"#utility.yul\":7824:7850   */\n  mload\n    /* \"#utility.yul\":7882:7930   */\n  tag_157\n    /* \"#utility.yul\":7924:7928   */\n  0x1f\n    /* \"#utility.yul\":7916:7922   */\n  dup10\n    /* \"#utility.yul\":7912:7929   */\n  and\n    /* \"#utility.yul\":7901:7910   */\n  dup3\n    /* \"#utility.yul\":7882:7930   */\n  tag_55\n  jump\t// in\ntag_157:\n    /* \"#utility.yul\":7874:7880   */\n  dup4\n    /* \"#utility.yul\":7867:7931   */\n  sstore\n    /* \"#utility.yul\":7789:7945   */\n  pop\n    /* \"#utility.yul\":7766:7945   */\ntag_156:\n    /* \"#utility.yul\":7991:7992   */\n  0x01\n    /* \"#utility.yul\":7987:7988   */\n  0x02\n    /* \"#utility.yul\":7979:7985   */\n  dup9\n    /* \"#utility.yul\":7975:7989   */\n  mul\n    /* \"#utility.yul\":7971:7993   */\n  add\n    /* \"#utility.yul\":7965:7969   */\n  dup9\n    /* \"#utility.yul\":7958:7994   */\n  sstore\n    /* \"#utility.yul\":7393:8004   */\n  pop\n  pop\n  pop\n    /* \"#utility.yul\":7356:8243   */\ntag_148:\n  pop\n    /* \"#utility.yul\":6946:8249   */\n  pop\n  pop\n  pop\n    /* \"#utility.yul\":6854:8249   */\n  pop\n  pop\n  jump\t// out\n    /* \"#utility.yul\":8255:8373   */\ntag_57:\n    /* \"#utility.yul\":8342:8366   */\n  tag_159\n    /* \"#utility.yul\":8360:8365   */\n  dup2\n    /* \"#utility.yul\":8342:8366   */\n  tag_24\n  jump\t// in\ntag_159:\n    /* \"#utility.yul\":8337:8340   */\n  dup3\n    /* \"#utility.yul\":8330:8367   */\n  mstore\n    /* \"#utility.yul\":8255:8373   */\n  pop\n  pop\n  jump\t// out\n    /* \"#utility.yul\":8379:8601   */\ntag_14:\n    /* \"#utility.yul\":8472:8476   */\n  0x00\n    /* \"#utility.yul\":8510:8512   */\n  0x20\n    /* \"#utility.yul\":8499:8508   */\n  dup3\n    /* \"#utility.yul\":8495:8513   */\n  add\n    /* \"#utility.yul\":8487:8513   */\n  swap1\n  pop\n    /* \"#utility.yul\":8523:8594   */\n  tag_161\n    /* \"#utility.yul\":8591:8592   */\n  0x00\n    /* \"#utility.yul\":8580:8589   */\n  dup4\n    /* \"#utility.yul\":8576:8593   */\n  add\n    /* \"#utility.yul\":8567:8573   */\n  dup5\n    /* \"#utility.yul\":8523:8594   */\n  tag_57\n  jump\t// in\ntag_161:\n    /* \"#utility.yul\":8379:8601   */\n  swap3\n  swap2\n  pop\n  pop\n  jump\t// out\n    /* \"MyCallOption.sol\":383:1964  contract MyCallOption is ERC20, Ownable{... */\ntag_18:\n  dataSize(sub_0)\n  dup1\n  dataOffset(sub_0)\n  0x00\n  codecopy\n  0x00\n  return\nstop\n\nsub_0: assembly {\n        /* \"MyCallOption.sol\":383:1964  contract MyCallOption is ERC20, Ownable{... */\n      mstore(0x40, 0x80)\n      jumpi(tag_1, lt(calldatasize, 0x04))\n      shr(0xe0, calldataload(0x00))\n      dup1\n      0x715018a6\n      gt\n      tag_21\n      jumpi\n      dup1\n      0xa9059cbb\n      gt\n      tag_22\n      jumpi\n      dup1\n      0xa9059cbb\n      eq\n      tag_16\n      jumpi\n      dup1\n      0xdd62ed3e\n      eq\n      tag_17\n      jumpi\n      dup1\n      0xec46c4ef\n      eq\n      tag_18\n      jumpi\n      dup1\n      0xf2fde38b\n      eq\n      tag_19\n      jumpi\n      dup1\n      0xf8b75fb5\n      eq\n      tag_20\n      jumpi\n      jump(tag_1)\n    tag_22:\n      dup1\n      0x715018a6\n      eq\n      tag_11\n      jumpi\n      dup1\n      0x83b6fa98\n      eq\n      tag_12\n      jumpi\n      dup1\n      0x8da5cb5b\n      eq\n      tag_13\n      jumpi\n      dup1\n      0x95d89b41\n      eq\n      tag_14\n      jumpi\n      dup1\n      0xa035b1fe\n      eq\n      tag_15\n      jumpi\n      jump(tag_1)\n    tag_21:\n      dup1\n      0x313ce567\n      gt\n      tag_23\n      jumpi\n      dup1\n      0x313ce567\n      eq\n      tag_6\n      jumpi\n      dup1\n      0x384b2367\n      eq\n      tag_7\n      jumpi\n      dup1\n      0x3e413bee\n      eq\n      tag_8\n      jumpi\n      dup1\n      0x6bdebcc9\n      eq\n      tag_9\n      jumpi\n      dup1\n      0x70a08231\n      eq\n      tag_10\n      jumpi\n      jump(tag_1)\n    tag_23:\n      dup1\n      0x06fdde03\n      eq\n      tag_2\n      jumpi\n      dup1\n      0x095ea7b3\n      eq\n      tag_3\n      jumpi\n      dup1\n      0x18160ddd\n      eq\n      tag_4\n      jumpi\n      dup1\n      0x23b872dd\n      eq\n      tag_5\n      jumpi\n    tag_1:\n      revert(0x00, 0x00)\n        /* \"@openzeppelin/contracts/token/ERC20/ERC20.sol\":2074:2163  function name() public view virtual returns (string memory) {... */\n    tag_2:\n      callvalue\n      dup1\n      iszero\n      tag_24\n      jumpi\n      revert(0x00, 0x00)\n    tag_24:\n      pop\n      tag_25\n      tag_26\n      jump\t// in\n    tag_25:\n      mload(0x40)\n      tag_27\n      swap2\n      swap1\n      tag_28\n      jump\t// in\n    tag_27:\n      mload(0x40)\n      dup1\n      swap2\n      sub\n      swap1\n      return\n        /* \"@openzeppelin/contracts/token/ERC20/ERC20.sol\":4293:4479  function approve(address spender, uint256 value) public virtual returns (bool) {... */\n    tag_3:\n      callvalue\n      dup1\n      iszero\n      tag_29\n      jumpi\n      revert(0x00, 0x00)\n    tag_29:\n      pop\n      tag_30\n      0x04\n      dup1\n      calldatasize\n      sub\n      dup2\n      add\n      swap1\n      tag_31\n      swap2\n      swap1\n      tag_32\n      jump\t// in\n    tag_31:\n      tag_33\n      jump\t// in\n    tag_30:\n      mload(0x40)\n      tag_34\n      swap2\n      swap1\n      tag_35\n      jump\t// in\n    tag_34:\n      mload(0x40)\n      dup1\n      swap2\n      sub\n      swap1\n      return\n        /* \"@openzeppelin/contracts/token/ERC20/ERC20.sol\":3144:3241  function totalSupply() public view virtual returns (uint256) {... */\n    tag_4:\n      callvalue\n      dup1\n      iszero\n      tag_36\n      jumpi\n      revert(0x00, 0x00)\n    tag_36:\n      pop\n      tag_37\n      tag_38\n      jump\t// in\n    tag_37:\n      mload(0x40)\n      tag_39\n      swap2\n      swap1\n      tag_40\n      jump\t// in\n    tag_39:\n      mload(0x40)\n      dup1\n      swap2\n      sub\n      swap1\n      return\n        /* \"@openzeppelin/contracts/token/ERC20/ERC20.sol\":5039:5283  function transferFrom(address from, address to, uint256 value) public virtual returns (bool) {... */\n    tag_5:\n      callvalue\n      dup1\n      iszero\n      tag_41\n      jumpi\n      revert(0x00, 0x00)\n    tag_41:\n      pop\n      tag_42\n      0x04\n      dup1\n      calldatasize\n      sub\n      dup2\n      add\n      swap1\n      tag_43\n      swap2\n      swap1\n      tag_44\n      jump\t// in\n    tag_43:\n      tag_45\n      jump\t// in\n    tag_42:\n      mload(0x40)\n      tag_46\n      swap2\n      swap1\n      tag_35\n      jump\t// in\n    tag_46:\n      mload(0x40)\n      dup1\n      swap2\n      sub\n      swap1\n      return\n        /* \"@openzeppelin/contracts/token/ERC20/ERC20.sol\":3002:3084  function decimals() public view virtual returns (uint8) {... */\n    tag_6:\n      callvalue\n      dup1\n      iszero\n      tag_47\n      jumpi\n      revert(0x00, 0x00)\n    tag_47:\n      pop\n      tag_48\n      tag_49\n      jump\t// in\n    tag_48:\n      mload(0x40)\n      tag_50\n      swap2\n      swap1\n      tag_51\n      jump\t// in\n    tag_50:\n      mload(0x40)\n      dup1\n      swap2\n      sub\n      swap1\n      return\n        /* \"MyCallOption.sol\":892:1043  function issueOption() onlyOwner public payable {... */\n    tag_7:\n      tag_52\n      tag_53\n      jump\t// in\n    tag_52:\n      stop\n        /* \"MyCallOption.sol\":466:484  IERC20 public usdc */\n    tag_8:\n      callvalue\n      dup1\n      iszero\n      tag_54\n      jumpi\n      revert(0x00, 0x00)\n    tag_54:\n      pop\n      tag_55\n      tag_56\n      jump\t// in\n    tag_55:\n      mload(0x40)\n      tag_57\n      swap2\n      swap1\n      tag_58\n      jump\t// in\n    tag_57:\n      mload(0x40)\n      dup1\n      swap2\n      sub\n      swap1\n      return\n        /* \"MyCallOption.sol\":1712:1955  function destory() public onlyOwner {... */\n    tag_9:\n      callvalue\n      dup1\n      iszero\n      tag_59\n      jumpi\n      revert(0x00, 0x00)\n    tag_59:\n      pop\n      tag_60\n      tag_61\n      jump\t// in\n    tag_60:\n      stop\n        /* \"@openzeppelin/contracts/token/ERC20/ERC20.sol\":3299:3415  function balanceOf(address account) public view virtual returns (uint256) {... */\n    tag_10:\n      callvalue\n      dup1\n      iszero\n      tag_62\n      jumpi\n      revert(0x00, 0x00)\n    tag_62:\n      pop\n      tag_63\n      0x04\n      dup1\n      calldatasize\n      sub\n      dup2\n      add\n      swap1\n      tag_64\n      swap2\n      swap1\n      tag_65\n      jump\t// in\n    tag_64:\n      tag_66\n      jump\t// in\n    tag_63:\n      mload(0x40)\n      tag_67\n      swap2\n      swap1\n      tag_40\n      jump\t// in\n    tag_67:\n      mload(0x40)\n      dup1\n      swap2\n      sub\n      swap1\n      return\n        /* \"@openzeppelin/contracts/access/Ownable.sol\":2293:2394  function renounceOwnership() public virtual onlyOwner {... */\n    tag_11:\n      callvalue\n      dup1\n      iszero\n      tag_68\n      jumpi\n      revert(0x00, 0x00)\n    tag_68:\n      pop\n      tag_69\n      tag_70\n      jump\t// in\n    tag_69:\n      stop\n        /* \"MyCallOption.sol\":1051:1479  function settleOption(uint256 _amount) public {... */\n    tag_12:\n      callvalue\n      dup1\n      iszero\n      tag_71\n      jumpi\n      revert(0x00, 0x00)\n    tag_71:\n      pop\n      tag_72\n      0x04\n      dup1\n      calldatasize\n      sub\n      dup2\n      add\n      swap1\n      tag_73\n      swap2\n      swap1\n      tag_74\n      jump\t// in\n    tag_73:\n      tag_75\n      jump\t// in\n    tag_72:\n      stop\n        /* \"@openzeppelin/contracts/access/Ownable.sol\":1638:1723  function owner() public view virtual returns (address) {... */\n    tag_13:\n      callvalue\n      dup1\n      iszero\n      tag_76\n      jumpi\n      revert(0x00, 0x00)\n    tag_76:\n      pop\n      tag_77\n      tag_78\n      jump\t// in\n    tag_77:\n      mload(0x40)\n      tag_79\n      swap2\n      swap1\n      tag_80\n      jump\t// in\n    tag_79:\n      mload(0x40)\n      dup1\n      swap2\n      sub\n      swap1\n      return\n        /* \"@openzeppelin/contracts/token/ERC20/ERC20.sol\":2276:2369  function symbol() public view virtual returns (string memory) {... */\n    tag_14:\n      callvalue\n      dup1\n      iszero\n      tag_81\n      jumpi\n      revert(0x00, 0x00)\n    tag_81:\n      pop\n      tag_82\n      tag_83\n      jump\t// in\n    tag_82:\n      mload(0x40)\n      tag_84\n      swap2\n      swap1\n      tag_28\n      jump\t// in\n    tag_84:\n      mload(0x40)\n      dup1\n      swap2\n      sub\n      swap1\n      return\n        /* \"MyCallOption.sol\":491:511  uint128 public price */\n    tag_15:\n      callvalue\n      dup1\n      iszero\n      tag_85\n      jumpi\n      revert(0x00, 0x00)\n    tag_85:\n      pop\n      tag_86\n      tag_87\n      jump\t// in\n    tag_86:\n      mload(0x40)\n      tag_88\n      swap2\n      swap1\n      tag_89\n      jump\t// in\n    tag_88:\n      mload(0x40)\n      dup1\n      swap2\n      sub\n      swap1\n      return\n        /* \"@openzeppelin/contracts/token/ERC20/ERC20.sol\":3610:3788  function transfer(address to, uint256 value) public virtual returns (bool) {... */\n    tag_16:\n      callvalue\n      dup1\n      iszero\n      tag_90\n      jumpi\n      revert(0x00, 0x00)\n    tag_90:\n      pop\n      tag_91\n      0x04\n      dup1\n      calldatasize\n      sub\n      dup2\n      add\n      swap1\n      tag_92\n      swap2\n      swap1\n      tag_32\n      jump\t// in\n    tag_92:\n      tag_93\n      jump\t// in\n    tag_91:\n      mload(0x40)\n      tag_94\n      swap2\n      swap1\n      tag_35\n      jump\t// in\n    tag_94:\n      mload(0x40)\n      dup1\n      swap2\n      sub\n      swap1\n      return\n        /* \"@openzeppelin/contracts/token/ERC20/ERC20.sol\":3846:3986  function allowance(address owner, address spender) public view virtual returns (uint256) {... */\n    tag_17:\n      callvalue\n      dup1\n      iszero\n      tag_95\n      jumpi\n      revert(0x00, 0x00)\n    tag_95:\n      pop\n      tag_96\n      0x04\n      dup1\n      calldatasize\n      sub\n      dup2\n      add\n      swap1\n      tag_97\n      swap2\n      swap1\n      tag_98\n      jump\t// in\n    tag_97:\n      tag_99\n      jump\t// in\n    tag_96:\n      mload(0x40)\n      tag_100\n      swap2\n      swap1\n      tag_40\n      jump\t// in\n    tag_100:\n      mload(0x40)\n      dup1\n      swap2\n      sub\n      swap1\n      return\n        /* \"MyCallOption.sol\":518:544  uint96 public exerciseTime */\n    tag_18:\n      callvalue\n      dup1\n      iszero\n      tag_101\n      jumpi\n      revert(0x00, 0x00)\n    tag_101:\n      pop\n      tag_102\n      tag_103\n      jump\t// in\n    tag_102:\n      mload(0x40)\n      tag_104\n      swap2\n      swap1\n      tag_105\n      jump\t// in\n    tag_104:\n      mload(0x40)\n      dup1\n      swap2\n      sub\n      swap1\n      return\n        /* \"@openzeppelin/contracts/access/Ownable.sol\":2543:2758  function transferOwnership(address newOwner) public virtual onlyOwner {... */\n    tag_19:\n      callvalue\n      dup1\n      iszero\n      tag_106\n      jumpi\n      revert(0x00, 0x00)\n    tag_106:\n      pop\n      tag_107\n      0x04\n      dup1\n      calldatasize\n      sub\n      dup2\n      add\n      swap1\n      tag_108\n      swap2\n      swap1\n      tag_65\n      jump\t// in\n    tag_108:\n      tag_109\n      jump\t// in\n    tag_107:\n      stop\n        /* \"MyCallOption.sol\":551:577  uint32 public durationTime */\n    tag_20:\n      callvalue\n      dup1\n      iszero\n      tag_110\n      jumpi\n      revert(0x00, 0x00)\n    tag_110:\n      pop\n      tag_111\n      tag_112\n      jump\t// in\n    tag_111:\n      mload(0x40)\n      tag_113\n      swap2\n      swap1\n      tag_114\n      jump\t// in\n    tag_113:\n      mload(0x40)\n      dup1\n      swap2\n      sub\n      swap1\n      return\n        /* \"@openzeppelin/contracts/token/ERC20/ERC20.sol\":2074:2163  function name() public view virtual returns (string memory) {... */\n    tag_26:\n        /* \"@openzeppelin/contracts/token/ERC20/ERC20.sol\":2119:2132  string memory */\n      0x60\n        /* \"@openzeppelin/contracts/token/ERC20/ERC20.sol\":2151:2156  _name */\n      0x03\n        /* \"@openzeppelin/contracts/token/ERC20/ERC20.sol\":2144:2156  return _name */\n      dup1\n      sload\n      tag_116\n      swap1\n      tag_117\n      jump\t// in\n    tag_116:\n      dup1\n      0x1f\n      add\n      0x20\n      dup1\n      swap2\n      div\n      mul\n      0x20\n      add\n      mload(0x40)\n      swap1\n      dup2\n      add\n      0x40\n      mstore\n      dup1\n      swap3\n      swap2\n      swap1\n      dup2\n      dup2\n      mstore\n      0x20\n      add\n      dup3\n      dup1\n      sload\n      tag_118\n      swap1\n      tag_117\n      jump\t// in\n    tag_118:\n      dup1\n      iszero\n      tag_119\n      jumpi\n      dup1\n      0x1f\n      lt\n      tag_120\n      jumpi\n      0x0100\n      dup1\n      dup4\n      sload\n      div\n      mul\n      dup4\n      mstore\n      swap2\n      0x20\n      add\n      swap2\n      jump(tag_119)\n    tag_120:\n      dup3\n      add\n      swap2\n      swap1\n      0x00\n      mstore\n      keccak256(0x00, 0x20)\n      swap1\n    tag_121:\n      dup2\n      sload\n      dup2\n      mstore\n      swap1\n      0x01\n      add\n      swap1\n      0x20\n      add\n      dup1\n      dup4\n      gt\n      tag_121\n      jumpi\n      dup3\n      swap1\n      sub\n      0x1f\n      and\n      dup3\n      add\n      swap2\n    tag_119:\n      pop\n      pop\n      pop\n      pop\n      pop\n      swap1\n      pop\n        /* \"@openzeppelin/contracts/token/ERC20/ERC20.sol\":2074:2163  function name() public view virtual returns (string memory) {... */\n      swap1\n      jump\t// out\n        /* \"@openzeppelin/contracts/token/ERC20/ERC20.sol\":4293:4479  function approve(address spender, uint256 value) public virtual returns (bool) {... */\n    tag_33:\n        /* \"@openzeppelin/contracts/token/ERC20/ERC20.sol\":4366:4370  bool */\n      0x00\n        /* \"@openzeppelin/contracts/token/ERC20/ERC20.sol\":4382:4395  address owner */\n      0x00\n        /* \"@openzeppelin/contracts/token/ERC20/ERC20.sol\":4398:4410  _msgSender() */\n      tag_123\n        /* \"@openzeppelin/contracts/token/ERC20/ERC20.sol\":4398:4408  _msgSender */\n      tag_124\n        /* \"@openzeppelin/contracts/token/ERC20/ERC20.sol\":4398:4410  _msgSender() */\n      jump\t// in\n    tag_123:\n        /* \"@openzeppelin/contracts/token/ERC20/ERC20.sol\":4382:4410  address owner = _msgSender() */\n      swap1\n      pop\n        /* \"@openzeppelin/contracts/token/ERC20/ERC20.sol\":4420:4451  _approve(owner, spender, value) */\n      tag_125\n        /* \"@openzeppelin/contracts/token/ERC20/ERC20.sol\":4429:4434  owner */\n      dup2\n        /* \"@openzeppelin/contracts/token/ERC20/ERC20.sol\":4436:4443  spender */\n      dup6\n        /* \"@openzeppelin/contracts/token/ERC20/ERC20.sol\":4445:4450  value */\n      dup6\n        /* \"@openzeppelin/contracts/token/ERC20/ERC20.sol\":4420:4428  _approve */\n      tag_126\n        /* \"@openzeppelin/contracts/token/ERC20/ERC20.sol\":4420:4451  _approve(owner, spender, value) */\n      jump\t// in\n    tag_125:\n        /* \"@openzeppelin/contracts/token/ERC20/ERC20.sol\":4468:4472  true */\n      0x01\n        /* \"@openzeppelin/contracts/token/ERC20/ERC20.sol\":4461:4472  return true */\n      swap2\n      pop\n      pop\n        /* \"@openzeppelin/contracts/token/ERC20/ERC20.sol\":4293:4479  function approve(address spender, uint256 value) public virtual returns (bool) {... */\n      swap3\n      swap2\n      pop\n      pop\n      jump\t// out\n        /* \"@openzeppelin/contracts/token/ERC20/ERC20.sol\":3144:3241  function totalSupply() public view virtual returns (uint256) {... */\n    tag_38:\n        /* \"@openzeppelin/contracts/token/ERC20/ERC20.sol\":3196:3203  uint256 */\n      0x00\n        /* \"@openzeppelin/contracts/token/ERC20/ERC20.sol\":3222:3234  _totalSupply */\n      sload(0x02)\n        /* \"@openzeppelin/contracts/token/ERC20/ERC20.sol\":3215:3234  return _totalSupply */\n      swap1\n      pop\n        /* \"@openzeppelin/contracts/token/ERC20/ERC20.sol\":3144:3241  function totalSupply() public view virtual returns (uint256) {... */\n      swap1\n      jump\t// out\n        /* \"@openzeppelin/contracts/token/ERC20/ERC20.sol\":5039:5283  function transferFrom(address from, address to, uint256 value) public virtual returns (bool) {... */\n    tag_45:\n        /* \"@openzeppelin/contracts/token/ERC20/ERC20.sol\":5126:5130  bool */\n      0x00\n        /* \"@openzeppelin/contracts/token/ERC20/ERC20.sol\":5142:5157  address spender */\n      0x00\n        /* \"@openzeppelin/contracts/token/ERC20/ERC20.sol\":5160:5172  _msgSender() */\n      tag_129\n        /* \"@openzeppelin/contracts/token/ERC20/ERC20.sol\":5160:5170  _msgSender */\n      tag_124\n        /* \"@openzeppelin/contracts/token/ERC20/ERC20.sol\":5160:5172  _msgSender() */\n      jump\t// in\n    tag_129:\n        /* \"@openzeppelin/contracts/token/ERC20/ERC20.sol\":5142:5172  address spender = _msgSender() */\n      swap1\n      pop\n        /* \"@openzeppelin/contracts/token/ERC20/ERC20.sol\":5182:5219  _spendAllowance(from, spender, value) */\n      tag_130\n        /* \"@openzeppelin/contracts/token/ERC20/ERC20.sol\":5198:5202  from */\n      dup6\n        /* \"@openzeppelin/contracts/token/ERC20/ERC20.sol\":5204:5211  spender */\n      dup3\n        /* \"@openzeppelin/contracts/token/ERC20/ERC20.sol\":5213:5218  value */\n      dup6\n        /* \"@openzeppelin/contracts/token/ERC20/ERC20.sol\":5182:5197  _spendAllowance */\n      tag_131\n        /* \"@openzeppelin/contracts/token/ERC20/ERC20.sol\":5182:5219  _spendAllowance(from, spender, value) */\n      jump\t// in\n    tag_130:\n        /* \"@openzeppelin/contracts/token/ERC20/ERC20.sol\":5229:5255  _transfer(from, to, value) */\n      tag_132\n        /* \"@openzeppelin/contracts/token/ERC20/ERC20.sol\":5239:5243  from */\n      dup6\n        /* \"@openzeppelin/contracts/token/ERC20/ERC20.sol\":5245:5247  to */\n      dup6\n        /* \"@openzeppelin/contracts/token/ERC20/ERC20.sol\":5249:5254  value */\n      dup6\n        /* \"@openzeppelin/contracts/token/ERC20/ERC20.sol\":5229:5238  _transfer */\n      tag_133\n        /* \"@openzeppelin/contracts/token/ERC20/ERC20.sol\":5229:5255  _transfer(from, to, value) */\n      jump\t// in\n    tag_132:\n        /* \"@openzeppelin/contracts/token/ERC20/ERC20.sol\":5272:5276  true */\n      0x01\n        /* \"@openzeppelin/contracts/token/ERC20/ERC20.sol\":5265:5276  return true */\n      swap2\n      pop\n      pop\n        /* \"@openzeppelin/contracts/token/ERC20/ERC20.sol\":5039:5283  function transferFrom(address from, address to, uint256 value) public virtual returns (bool) {... */\n      swap4\n      swap3\n      pop\n      pop\n      pop\n      jump\t// out\n        /* \"@openzeppelin/contracts/token/ERC20/ERC20.sol\":3002:3084  function decimals() public view virtual returns (uint8) {... */\n    tag_49:\n        /* \"@openzeppelin/contracts/token/ERC20/ERC20.sol\":3051:3056  uint8 */\n      0x00\n        /* \"@openzeppelin/contracts/token/ERC20/ERC20.sol\":3075:3077  18 */\n      0x12\n        /* \"@openzeppelin/contracts/token/ERC20/ERC20.sol\":3068:3077  return 18 */\n      swap1\n      pop\n        /* \"@openzeppelin/contracts/token/ERC20/ERC20.sol\":3002:3084  function decimals() public view virtual returns (uint8) {... */\n      swap1\n      jump\t// out\n        /* \"MyCallOption.sol\":892:1043  function issueOption() onlyOwner public payable {... */\n    tag_53:\n        /* \"@openzeppelin/contracts/access/Ownable.sol\":1531:1544  _checkOwner() */\n      tag_136\n        /* \"@openzeppelin/contracts/access/Ownable.sol\":1531:1542  _checkOwner */\n      tag_137\n        /* \"@openzeppelin/contracts/access/Ownable.sol\":1531:1544  _checkOwner() */\n      jump\t// in\n    tag_136:\n        /* \"MyCallOption.sol\":971:972  0 */\n      0x00\n        /* \"MyCallOption.sol\":959:968  msg.value */\n      callvalue\n        /* \"MyCallOption.sol\":959:972  msg.value > 0 */\n      gt\n        /* \"MyCallOption.sol\":951:996  require(msg.value > 0, \"eth value cant be 0\") */\n      tag_139\n      jumpi\n      mload(0x40)\n      0x08c379a000000000000000000000000000000000000000000000000000000000\n      dup2\n      mstore\n      0x04\n      add\n      tag_140\n      swap1\n      tag_141\n      jump\t// in\n    tag_140:\n      mload(0x40)\n      dup1\n      swap2\n      sub\n      swap1\n      revert\n    tag_139:\n        /* \"MyCallOption.sol\":1007:1035  _mint(msg.sender, msg.value) */\n      tag_142\n        /* \"MyCallOption.sol\":1013:1023  msg.sender */\n      caller\n        /* \"MyCallOption.sol\":1025:1034  msg.value */\n      callvalue\n        /* \"MyCallOption.sol\":1007:1012  _mint */\n      tag_143\n        /* \"MyCallOption.sol\":1007:1035  _mint(msg.sender, msg.value) */\n      jump\t// in\n    tag_142:\n        /* \"MyCallOption.sol\":892:1043  function issueOption() onlyOwner public payable {... */\n      jump\t// out\n        /* \"MyCallOption.sol\":466:484  IERC20 public usdc */\n    tag_56:\n      0x06\n      0x00\n      swap1\n      sload\n      swap1\n      0x0100\n      exp\n      swap1\n      div\n      0xffffffffffffffffffffffffffffffffffffffff\n      and\n      dup2\n      jump\t// out\n        /* \"MyCallOption.sol\":1712:1955  function destory() public onlyOwner {... */\n    tag_61:\n        /* \"@openzeppelin/contracts/access/Ownable.sol\":1531:1544  _checkOwner() */\n      tag_145\n        /* \"@openzeppelin/contracts/access/Ownable.sol\":1531:1542  _checkOwner */\n      tag_137\n        /* \"@openzeppelin/contracts/access/Ownable.sol\":1531:1544  _checkOwner() */\n      jump\t// in\n    tag_145:\n        /* \"MyCallOption.sol\":1801:1813  durationTime */\n      0x07\n      0x1c\n      swap1\n      sload\n      swap1\n      0x0100\n      exp\n      swap1\n      div\n      0xffffffff\n      and\n        /* \"MyCallOption.sol\":1786:1813  exerciseTime + durationTime */\n      0xffffffff\n      and\n        /* \"MyCallOption.sol\":1786:1798  exerciseTime */\n      0x07\n      0x10\n      swap1\n      sload\n      swap1\n      0x0100\n      exp\n      swap1\n      div\n      0xffffffffffffffffffffffff\n      and\n        /* \"MyCallOption.sol\":1786:1813  exerciseTime + durationTime */\n      tag_147\n      swap2\n      swap1\n      tag_148\n      jump\t// in\n    tag_147:\n        /* \"MyCallOption.sol\":1767:1813  block.timestamp >= exerciseTime + durationTime */\n      0xffffffffffffffffffffffff\n      and\n        /* \"MyCallOption.sol\":1767:1782  block.timestamp */\n      timestamp\n        /* \"MyCallOption.sol\":1767:1813  block.timestamp >= exerciseTime + durationTime */\n      lt\n      iszero\n        /* \"MyCallOption.sol\":1759:1832  require(block.timestamp >= exerciseTime + durationTime, \"not expire yet\") */\n      tag_149\n      jumpi\n      mload(0x40)\n      0x08c379a000000000000000000000000000000000000000000000000000000000\n      dup2\n      mstore\n      0x04\n      add\n      tag_150\n      swap1\n      tag_151\n      jump\t// in\n    tag_150:\n      mload(0x40)\n      dup1\n      swap2\n      sub\n      swap1\n      revert\n    tag_149:\n        /* \"MyCallOption.sol\":1843:1903  usdc.safeTransfer(msg.sender, usdc.balanceOf(address(this))) */\n      tag_152\n        /* \"MyCallOption.sol\":1861:1871  msg.sender */\n      caller\n        /* \"MyCallOption.sol\":1873:1877  usdc */\n      0x06\n      0x00\n      swap1\n      sload\n      swap1\n      0x0100\n      exp\n      swap1\n      div\n      0xffffffffffffffffffffffffffffffffffffffff\n      and\n        /* \"MyCallOption.sol\":1873:1887  usdc.balanceOf */\n      0xffffffffffffffffffffffffffffffffffffffff\n      and\n      0x70a08231\n        /* \"MyCallOption.sol\":1896:1900  this */\n      address\n        /* \"MyCallOption.sol\":1873:1902  usdc.balanceOf(address(this)) */\n      mload(0x40)\n      dup3\n      0xffffffff\n      and\n      0xe0\n      shl\n      dup2\n      mstore\n      0x04\n      add\n      tag_153\n      swap2\n      swap1\n      tag_80\n      jump\t// in\n    tag_153:\n      0x20\n      mload(0x40)\n      dup1\n      dup4\n      sub\n      dup2\n      dup7\n      gas\n      staticcall\n      iszero\n      dup1\n      iszero\n      tag_155\n      jumpi\n      returndatacopy(0x00, 0x00, returndatasize)\n      revert(0x00, returndatasize)\n    tag_155:\n      pop\n      pop\n      pop\n      pop\n      mload(0x40)\n      returndatasize\n      not(0x1f)\n      0x1f\n      dup3\n      add\n      and\n      dup3\n      add\n      dup1\n      0x40\n      mstore\n      pop\n      dup2\n      add\n      swap1\n      tag_156\n      swap2\n      swap1\n      tag_157\n      jump\t// in\n    tag_156:\n        /* \"MyCallOption.sol\":1843:1847  usdc */\n      0x06\n      0x00\n      swap1\n      sload\n      swap1\n      0x0100\n      exp\n      swap1\n      div\n      0xffffffffffffffffffffffffffffffffffffffff\n      and\n        /* \"MyCallOption.sol\":1843:1860  usdc.safeTransfer */\n      0xffffffffffffffffffffffffffffffffffffffff\n      and\n      tag_158\n      swap1\n        /* \"MyCallOption.sol\":1843:1903  usdc.safeTransfer(msg.sender, usdc.balanceOf(address(this))) */\n      swap3\n      swap2\n      swap1\n      0xffffffff\n      and\n      jump\t// in\n    tag_152:\n        /* \"MyCallOption.sol\":1935:1945  msg.sender */\n      caller\n        /* \"MyCallOption.sol\":1914:1947  selfdestruct(payable(msg.sender)) */\n      0xffffffffffffffffffffffffffffffffffffffff\n      and\n      selfdestruct\n        /* \"@openzeppelin/contracts/token/ERC20/ERC20.sol\":3299:3415  function balanceOf(address account) public view virtual returns (uint256) {... */\n    tag_66:\n        /* \"@openzeppelin/contracts/token/ERC20/ERC20.sol\":3364:3371  uint256 */\n      0x00\n        /* \"@openzeppelin/contracts/token/ERC20/ERC20.sol\":3390:3399  _balances */\n      0x00\n        /* \"@openzeppelin/contracts/token/ERC20/ERC20.sol\":3390:3408  _balances[account] */\n      0x00\n        /* \"@openzeppelin/contracts/token/ERC20/ERC20.sol\":3400:3407  account */\n      dup4\n        /* \"@openzeppelin/contracts/token/ERC20/ERC20.sol\":3390:3408  _balances[account] */\n      0xffffffffffffffffffffffffffffffffffffffff\n      and\n      0xffffffffffffffffffffffffffffffffffffffff\n      and\n      dup2\n      mstore\n      0x20\n      add\n      swap1\n      dup2\n      mstore\n      0x20\n      add\n      0x00\n      keccak256\n      sload\n        /* \"@openzeppelin/contracts/token/ERC20/ERC20.sol\":3383:3408  return _balances[account] */\n      swap1\n      pop\n        /* \"@openzeppelin/contracts/token/ERC20/ERC20.sol\":3299:3415  function balanceOf(address account) public view virtual returns (uint256) {... */\n      swap2\n      swap1\n      pop\n      jump\t// out\n        /* \"@openzeppelin/contracts/access/Ownable.sol\":2293:2394  function renounceOwnership() public virtual onlyOwner {... */\n    tag_70:\n        /* \"@openzeppelin/contracts/access/Ownable.sol\":1531:1544  _checkOwner() */\n      tag_161\n        /* \"@openzeppelin/contracts/access/Ownable.sol\":1531:1542  _checkOwner */\n      tag_137\n        /* \"@openzeppelin/contracts/access/Ownable.sol\":1531:1544  _checkOwner() */\n      jump\t// in\n    tag_161:\n        /* \"@openzeppelin/contracts/access/Ownable.sol\":2357:2387  _transferOwnership(address(0)) */\n      tag_163\n        /* \"@openzeppelin/contracts/access/Ownable.sol\":2384:2385  0 */\n      0x00\n        /* \"@openzeppelin/contracts/access/Ownable.sol\":2357:2375  _transferOwnership */\n      tag_164\n        /* \"@openzeppelin/contracts/access/Ownable.sol\":2357:2387  _transferOwnership(address(0)) */\n      jump\t// in\n    tag_163:\n        /* \"@openzeppelin/contracts/access/Ownable.sol\":2293:2394  function renounceOwnership() public virtual onlyOwner {... */\n      jump\t// out\n        /* \"MyCallOption.sol\":1051:1479  function settleOption(uint256 _amount) public {... */\n    tag_75:\n        /* \"MyCallOption.sol\":1135:1147  exerciseTime */\n      0x07\n      0x10\n      swap1\n      sload\n      swap1\n      0x0100\n      exp\n      swap1\n      div\n      0xffffffffffffffffffffffff\n      and\n        /* \"MyCallOption.sol\":1116:1147  block.timestamp >= exerciseTime */\n      0xffffffffffffffffffffffff\n      and\n        /* \"MyCallOption.sol\":1116:1131  block.timestamp */\n      timestamp\n        /* \"MyCallOption.sol\":1116:1147  block.timestamp >= exerciseTime */\n      lt\n      iszero\n        /* \"MyCallOption.sol\":1116:1196  block.timestamp >= exerciseTime && block.timestamp < exerciseTime + durationTime */\n      dup1\n      iszero\n      tag_166\n      jumpi\n      pop\n        /* \"MyCallOption.sol\":1184:1196  durationTime */\n      0x07\n      0x1c\n      swap1\n      sload\n      swap1\n      0x0100\n      exp\n      swap1\n      div\n      0xffffffff\n      and\n        /* \"MyCallOption.sol\":1169:1196  exerciseTime + durationTime */\n      0xffffffff\n      and\n        /* \"MyCallOption.sol\":1169:1181  exerciseTime */\n      0x07\n      0x10\n      swap1\n      sload\n      swap1\n      0x0100\n      exp\n      swap1\n      div\n      0xffffffffffffffffffffffff\n      and\n        /* \"MyCallOption.sol\":1169:1196  exerciseTime + durationTime */\n      tag_167\n      swap2\n      swap1\n      tag_148\n      jump\t// in\n    tag_167:\n        /* \"MyCallOption.sol\":1151:1196  block.timestamp < exerciseTime + durationTime */\n      0xffffffffffffffffffffffff\n      and\n        /* \"MyCallOption.sol\":1151:1166  block.timestamp */\n      timestamp\n        /* \"MyCallOption.sol\":1151:1196  block.timestamp < exerciseTime + durationTime */\n      lt\n        /* \"MyCallOption.sol\":1116:1196  block.timestamp >= exerciseTime && block.timestamp < exerciseTime + durationTime */\n    tag_166:\n        /* \"MyCallOption.sol\":1108:1225  require(block.timestamp >= exerciseTime && block.timestamp < exerciseTime + durationTime, \"not in settle time range\") */\n      tag_168\n      jumpi\n      mload(0x40)\n      0x08c379a000000000000000000000000000000000000000000000000000000000\n      dup2\n      mstore\n      0x04\n      add\n      tag_169\n      swap1\n      tag_170\n      jump\t// in\n    tag_169:\n      mload(0x40)\n      dup1\n      swap2\n      sub\n      swap1\n      revert\n    tag_168:\n        /* \"MyCallOption.sol\":1269:1276  _amount */\n      dup1\n        /* \"MyCallOption.sol\":1244:1265  balanceOf(msg.sender) */\n      tag_171\n        /* \"MyCallOption.sol\":1254:1264  msg.sender */\n      caller\n        /* \"MyCallOption.sol\":1244:1253  balanceOf */\n      tag_66\n        /* \"MyCallOption.sol\":1244:1265  balanceOf(msg.sender) */\n      jump\t// in\n    tag_171:\n        /* \"MyCallOption.sol\":1244:1276  balanceOf(msg.sender) >= _amount */\n      lt\n      iszero\n        /* \"MyCallOption.sol\":1236:1302  require(balanceOf(msg.sender) >= _amount, \"amount must > balance\") */\n      tag_172\n      jumpi\n      mload(0x40)\n      0x08c379a000000000000000000000000000000000000000000000000000000000\n      dup2\n      mstore\n      0x04\n      add\n      tag_173\n      swap1\n      tag_174\n      jump\t// in\n    tag_173:\n      mload(0x40)\n      dup1\n      swap2\n      sub\n      swap1\n      revert\n    tag_172:\n        /* \"MyCallOption.sol\":1313:1339  _burn(msg.sender, _amount) */\n      tag_175\n        /* \"MyCallOption.sol\":1319:1329  msg.sender */\n      caller\n        /* \"MyCallOption.sol\":1331:1338  _amount */\n      dup3\n        /* \"MyCallOption.sol\":1313:1318  _burn */\n      tag_176\n        /* \"MyCallOption.sol\":1313:1339  _burn(msg.sender, _amount) */\n      jump\t// in\n    tag_175:\n        /* \"MyCallOption.sol\":1350:1415  usdc.safeTransferFrom(msg.sender, address(this), _amount * price) */\n      tag_177\n        /* \"MyCallOption.sol\":1372:1382  msg.sender */\n      caller\n        /* \"MyCallOption.sol\":1392:1396  this */\n      address\n        /* \"MyCallOption.sol\":1409:1414  price */\n      0x07\n      0x00\n      swap1\n      sload\n      swap1\n      0x0100\n      exp\n      swap1\n      div\n      0xffffffffffffffffffffffffffffffff\n      and\n        /* \"MyCallOption.sol\":1399:1414  _amount * price */\n      0xffffffffffffffffffffffffffffffff\n      and\n        /* \"MyCallOption.sol\":1399:1406  _amount */\n      dup5\n        /* \"MyCallOption.sol\":1399:1414  _amount * price */\n      tag_178\n      swap2\n      swap1\n      tag_179\n      jump\t// in\n    tag_178:\n        /* \"MyCallOption.sol\":1350:1354  usdc */\n      0x06\n      0x00\n      swap1\n      sload\n      swap1\n      0x0100\n      exp\n      swap1\n      div\n      0xffffffffffffffffffffffffffffffffffffffff\n      and\n        /* \"MyCallOption.sol\":1350:1371  usdc.safeTransferFrom */\n      0xffffffffffffffffffffffffffffffffffffffff\n      and\n      tag_180\n      swap1\n        /* \"MyCallOption.sol\":1350:1415  usdc.safeTransferFrom(msg.sender, address(this), _amount * price) */\n      swap4\n      swap3\n      swap2\n      swap1\n      0xffffffff\n      and\n      jump\t// in\n    tag_177:\n        /* \"MyCallOption.sol\":1426:1471  safeTransferETH(address(msg.sender), _amount) */\n      tag_181\n        /* \"MyCallOption.sol\":1450:1460  msg.sender */\n      caller\n        /* \"MyCallOption.sol\":1463:1470  _amount */\n      dup3\n        /* \"MyCallOption.sol\":1426:1441  safeTransferETH */\n      tag_182\n        /* \"MyCallOption.sol\":1426:1471  safeTransferETH(address(msg.sender), _amount) */\n      jump\t// in\n    tag_181:\n        /* \"MyCallOption.sol\":1051:1479  function settleOption(uint256 _amount) public {... */\n      pop\n      jump\t// out\n        /* \"@openzeppelin/contracts/access/Ownable.sol\":1638:1723  function owner() public view virtual returns (address) {... */\n    tag_78:\n        /* \"@openzeppelin/contracts/access/Ownable.sol\":1684:1691  address */\n      0x00\n        /* \"@openzeppelin/contracts/access/Ownable.sol\":1710:1716  _owner */\n      0x05\n      0x00\n      swap1\n      sload\n      swap1\n      0x0100\n      exp\n      swap1\n      div\n      0xffffffffffffffffffffffffffffffffffffffff\n      and\n        /* \"@openzeppelin/contracts/access/Ownable.sol\":1703:1716  return _owner */\n      swap1\n      pop\n        /* \"@openzeppelin/contracts/access/Ownable.sol\":1638:1723  function owner() public view virtual returns (address) {... */\n      swap1\n      jump\t// out\n        /* \"@openzeppelin/contracts/token/ERC20/ERC20.sol\":2276:2369  function symbol() public view virtual returns (string memory) {... */\n    tag_83:\n        /* \"@openzeppelin/contracts/token/ERC20/ERC20.sol\":2323:2336  string memory */\n      0x60\n        /* \"@openzeppelin/contracts/token/ERC20/ERC20.sol\":2355:2362  _symbol */\n      0x04\n        /* \"@openzeppelin/contracts/token/ERC20/ERC20.sol\":2348:2362  return _symbol */\n      dup1\n      sload\n      tag_185\n      swap1\n      tag_117\n      jump\t// in\n    tag_185:\n      dup1\n      0x1f\n      add\n      0x20\n      dup1\n      swap2\n      div\n      mul\n      0x20\n      add\n      mload(0x40)\n      swap1\n      dup2\n      add\n      0x40\n      mstore\n      dup1\n      swap3\n      swap2\n      swap1\n      dup2\n      dup2\n      mstore\n      0x20\n      add\n      dup3\n      dup1\n      sload\n      tag_186\n      swap1\n      tag_117\n      jump\t// in\n    tag_186:\n      dup1\n      iszero\n      tag_187\n      jumpi\n      dup1\n      0x1f\n      lt\n      tag_188\n      jumpi\n      0x0100\n      dup1\n      dup4\n      sload\n      div\n      mul\n      dup4\n      mstore\n      swap2\n      0x20\n      add\n      swap2\n      jump(tag_187)\n    tag_188:\n      dup3\n      add\n      swap2\n      swap1\n      0x00\n      mstore\n      keccak256(0x00, 0x20)\n      swap1\n    tag_189:\n      dup2\n      sload\n      dup2\n      mstore\n      swap1\n      0x01\n      add\n      swap1\n      0x20\n      add\n      dup1\n      dup4\n      gt\n      tag_189\n      jumpi\n      dup3\n      swap1\n      sub\n      0x1f\n      and\n      dup3\n      add\n      swap2\n    tag_187:\n      pop\n      pop\n      pop\n      pop\n      pop\n      swap1\n      pop\n        /* \"@openzeppelin/contracts/token/ERC20/ERC20.sol\":2276:2369  function symbol() public view virtual returns (string memory) {... */\n      swap1\n      jump\t// out\n        /* \"MyCallOption.sol\":491:511  uint128 public price */\n    tag_87:\n      0x07\n      0x00\n      swap1\n      sload\n      swap1\n      0x0100\n      exp\n      swap1\n      div\n      0xffffffffffffffffffffffffffffffff\n      and\n      dup2\n      jump\t// out\n        /* \"@openzeppelin/contracts/token/ERC20/ERC20.sol\":3610:3788  function transfer(address to, uint256 value) public virtual returns (bool) {... */\n    tag_93:\n        /* \"@openzeppelin/contracts/token/ERC20/ERC20.sol\":3679:3683  bool */\n      0x00\n        /* \"@openzeppelin/contracts/token/ERC20/ERC20.sol\":3695:3708  address owner */\n      0x00\n        /* \"@openzeppelin/contracts/token/ERC20/ERC20.sol\":3711:3723  _msgSender() */\n      tag_191\n        /* \"@openzeppelin/contracts/token/ERC20/ERC20.sol\":3711:3721  _msgSender */\n      tag_124\n        /* \"@openzeppelin/contracts/token/ERC20/ERC20.sol\":3711:3723  _msgSender() */\n      jump\t// in\n    tag_191:\n        /* \"@openzeppelin/contracts/token/ERC20/ERC20.sol\":3695:3723  address owner = _msgSender() */\n      swap1\n      pop\n        /* \"@openzeppelin/contracts/token/ERC20/ERC20.sol\":3733:3760  _transfer(owner, to, value) */\n      tag_192\n        /* \"@openzeppelin/contracts/token/ERC20/ERC20.sol\":3743:3748  owner */\n      dup2\n        /* \"@openzeppelin/contracts/token/ERC20/ERC20.sol\":3750:3752  to */\n      dup6\n        /* \"@openzeppelin/contracts/token/ERC20/ERC20.sol\":3754:3759  value */\n      dup6\n        /* \"@openzeppelin/contracts/token/ERC20/ERC20.sol\":3733:3742  _transfer */\n      tag_133\n        /* \"@openzeppelin/contracts/token/ERC20/ERC20.sol\":3733:3760  _transfer(owner, to, value) */\n      jump\t// in\n    tag_192:\n        /* \"@openzeppelin/contracts/token/ERC20/ERC20.sol\":3777:3781  true */\n      0x01\n        /* \"@openzeppelin/contracts/token/ERC20/ERC20.sol\":3770:3781  return true */\n      swap2\n      pop\n      pop\n        /* \"@openzeppelin/contracts/token/ERC20/ERC20.sol\":3610:3788  function transfer(address to, uint256 value) public virtual returns (bool) {... */\n      swap3\n      swap2\n      pop\n      pop\n      jump\t// out\n        /* \"@openzeppelin/contracts/token/ERC20/ERC20.sol\":3846:3986  function allowance(address owner, address spender) public view virtual returns (uint256) {... */\n    tag_99:\n        /* \"@openzeppelin/contracts/token/ERC20/ERC20.sol\":3926:3933  uint256 */\n      0x00\n        /* \"@openzeppelin/contracts/token/ERC20/ERC20.sol\":3952:3963  _allowances */\n      0x01\n        /* \"@openzeppelin/contracts/token/ERC20/ERC20.sol\":3952:3970  _allowances[owner] */\n      0x00\n        /* \"@openzeppelin/contracts/token/ERC20/ERC20.sol\":3964:3969  owner */\n      dup5\n        /* \"@openzeppelin/contracts/token/ERC20/ERC20.sol\":3952:3970  _allowances[owner] */\n      0xffffffffffffffffffffffffffffffffffffffff\n      and\n      0xffffffffffffffffffffffffffffffffffffffff\n      and\n      dup2\n      mstore\n      0x20\n      add\n      swap1\n      dup2\n      mstore\n      0x20\n      add\n      0x00\n      keccak256\n        /* \"@openzeppelin/contracts/token/ERC20/ERC20.sol\":3952:3979  _allowances[owner][spender] */\n      0x00\n        /* \"@openzeppelin/contracts/token/ERC20/ERC20.sol\":3971:3978  spender */\n      dup4\n        /* \"@openzeppelin/contracts/token/ERC20/ERC20.sol\":3952:3979  _allowances[owner][spender] */\n      0xffffffffffffffffffffffffffffffffffffffff\n      and\n      0xffffffffffffffffffffffffffffffffffffffff\n      and\n      dup2\n      mstore\n      0x20\n      add\n      swap1\n      dup2\n      mstore\n      0x20\n      add\n      0x00\n      keccak256\n      sload\n        /* \"@openzeppelin/contracts/token/ERC20/ERC20.sol\":3945:3979  return _allowances[owner][spender] */\n      swap1\n      pop\n        /* \"@openzeppelin/contracts/token/ERC20/ERC20.sol\":3846:3986  function allowance(address owner, address spender) public view virtual returns (uint256) {... */\n      swap3\n      swap2\n      pop\n      pop\n      jump\t// out\n        /* \"MyCallOption.sol\":518:544  uint96 public exerciseTime */\n    tag_103:\n      0x07\n      0x10\n      swap1\n      sload\n      swap1\n      0x0100\n      exp\n      swap1\n      div\n      0xffffffffffffffffffffffff\n      and\n      dup2\n      jump\t// out\n        /* \"@openzeppelin/contracts/access/Ownable.sol\":2543:2758  function transferOwnership(address newOwner) public virtual onlyOwner {... */\n    tag_109:\n        /* \"@openzeppelin/contracts/access/Ownable.sol\":1531:1544  _checkOwner() */\n      tag_195\n        /* \"@openzeppelin/contracts/access/Ownable.sol\":1531:1542  _checkOwner */\n      tag_137\n        /* \"@openzeppelin/contracts/access/Ownable.sol\":1531:1544  _checkOwner() */\n      jump\t// in\n    tag_195:\n        /* \"@openzeppelin/contracts/access/Ownable.sol\":2647:2648  0 */\n      0x00\n        /* \"@openzeppelin/contracts/access/Ownable.sol\":2627:2649  newOwner == address(0) */\n      0xffffffffffffffffffffffffffffffffffffffff\n      and\n        /* \"@openzeppelin/contracts/access/Ownable.sol\":2627:2635  newOwner */\n      dup2\n        /* \"@openzeppelin/contracts/access/Ownable.sol\":2627:2649  newOwner == address(0) */\n      0xffffffffffffffffffffffffffffffffffffffff\n      and\n      sub\n        /* \"@openzeppelin/contracts/access/Ownable.sol\":2623:2714  if (newOwner == address(0)) {... */\n      tag_197\n      jumpi\n        /* \"@openzeppelin/contracts/access/Ownable.sol\":2700:2701  0 */\n      0x00\n        /* \"@openzeppelin/contracts/access/Ownable.sol\":2672:2703  OwnableInvalidOwner(address(0)) */\n      mload(0x40)\n      0x1e4fbdf700000000000000000000000000000000000000000000000000000000\n      dup2\n      mstore\n      0x04\n      add\n      tag_198\n      swap2\n      swap1\n      tag_80\n      jump\t// in\n    tag_198:\n      mload(0x40)\n      dup1\n      swap2\n      sub\n      swap1\n      revert\n        /* \"@openzeppelin/contracts/access/Ownable.sol\":2623:2714  if (newOwner == address(0)) {... */\n    tag_197:\n        /* \"@openzeppelin/contracts/access/Ownable.sol\":2723:2751  _transferOwnership(newOwner) */\n      tag_199\n        /* \"@openzeppelin/contracts/access/Ownable.sol\":2742:2750  newOwner */\n      dup2\n        /* \"@openzeppelin/contracts/access/Ownable.sol\":2723:2741  _transferOwnership */\n      tag_164\n        /* \"@openzeppelin/contracts/access/Ownable.sol\":2723:2751  _transferOwnership(newOwner) */\n      jump\t// in\n    tag_199:\n        /* \"@openzeppelin/contracts/access/Ownable.sol\":2543:2758  function transferOwnership(address newOwner) public virtual onlyOwner {... */\n      pop\n      jump\t// out\n        /* \"MyCallOption.sol\":551:577  uint32 public durationTime */\n    tag_112:\n      0x07\n      0x1c\n      swap1\n      sload\n      swap1\n      0x0100\n      exp\n      swap1\n      div\n      0xffffffff\n      and\n      dup2\n      jump\t// out\n        /* \"@openzeppelin/contracts/utils/Context.sol\":656:752  function _msgSender() internal view virtual returns (address) {... */\n    tag_124:\n        /* \"@openzeppelin/contracts/utils/Context.sol\":709:716  address */\n      0x00\n        /* \"@openzeppelin/contracts/utils/Context.sol\":735:745  msg.sender */\n      caller\n        /* \"@openzeppelin/contracts/utils/Context.sol\":728:745  return msg.sender */\n      swap1\n      pop\n        /* \"@openzeppelin/contracts/utils/Context.sol\":656:752  function _msgSender() internal view virtual returns (address) {... */\n      swap1\n      jump\t// out\n        /* \"@openzeppelin/contracts/token/ERC20/ERC20.sol\":8989:9117  function _approve(address owner, address spender, uint256 value) internal {... */\n    tag_126:\n        /* \"@openzeppelin/contracts/token/ERC20/ERC20.sol\":9073:9110  _approve(owner, spender, value, true) */\n      tag_202\n        /* \"@openzeppelin/contracts/token/ERC20/ERC20.sol\":9082:9087  owner */\n      dup4\n        /* \"@openzeppelin/contracts/token/ERC20/ERC20.sol\":9089:9096  spender */\n      dup4\n        /* \"@openzeppelin/contracts/token/ERC20/ERC20.sol\":9098:9103  value */\n      dup4\n        /* \"@openzeppelin/contracts/token/ERC20/ERC20.sol\":9105:9109  true */\n      0x01\n        /* \"@openzeppelin/contracts/token/ERC20/ERC20.sol\":9073:9081  _approve */\n      tag_203\n        /* \"@openzeppelin/contracts/token/ERC20/ERC20.sol\":9073:9110  _approve(owner, spender, value, true) */\n      jump\t// in\n    tag_202:\n        /* \"@openzeppelin/contracts/token/ERC20/ERC20.sol\":8989:9117  function _approve(address owner, address spender, uint256 value) internal {... */\n      pop\n      pop\n      pop\n      jump\t// out\n        /* \"@openzeppelin/contracts/token/ERC20/ERC20.sol\":10663:11140  function _spendAllowance(address owner, address spender, uint256 value) internal virtual {... */\n    tag_131:\n        /* \"@openzeppelin/contracts/token/ERC20/ERC20.sol\":10762:10786  uint256 currentAllowance */\n      0x00\n        /* \"@openzeppelin/contracts/token/ERC20/ERC20.sol\":10789:10814  allowance(owner, spender) */\n      tag_205\n        /* \"@openzeppelin/contracts/token/ERC20/ERC20.sol\":10799:10804  owner */\n      dup5\n        /* \"@openzeppelin/contracts/token/ERC20/ERC20.sol\":10806:10813  spender */\n      dup5\n        /* \"@openzeppelin/contracts/token/ERC20/ERC20.sol\":10789:10798  allowance */\n      tag_99\n        /* \"@openzeppelin/contracts/token/ERC20/ERC20.sol\":10789:10814  allowance(owner, spender) */\n      jump\t// in\n    tag_205:\n        /* \"@openzeppelin/contracts/token/ERC20/ERC20.sol\":10762:10814  uint256 currentAllowance = allowance(owner, spender) */\n      swap1\n      pop\n        /* \"@openzeppelin/contracts/token/ERC20/ERC20.sol\":10848:10865  type(uint256).max */\n      0xffffffffffffffffffffffffffffffffffffffffffffffffffffffffffffffff\n        /* \"@openzeppelin/contracts/token/ERC20/ERC20.sol\":10828:10844  currentAllowance */\n      dup2\n        /* \"@openzeppelin/contracts/token/ERC20/ERC20.sol\":10828:10865  currentAllowance != type(uint256).max */\n      eq\n        /* \"@openzeppelin/contracts/token/ERC20/ERC20.sol\":10824:11134  if (currentAllowance != type(uint256).max) {... */\n      tag_206\n      jumpi\n        /* \"@openzeppelin/contracts/token/ERC20/ERC20.sol\":10904:10909  value */\n      dup2\n        /* \"@openzeppelin/contracts/token/ERC20/ERC20.sol\":10885:10901  currentAllowance */\n      dup2\n        /* \"@openzeppelin/contracts/token/ERC20/ERC20.sol\":10885:10909  currentAllowance < value */\n      lt\n        /* \"@openzeppelin/contracts/token/ERC20/ERC20.sol\":10881:11011  if (currentAllowance < value) {... */\n      iszero\n      tag_207\n      jumpi\n        /* \"@openzeppelin/contracts/token/ERC20/ERC20.sol\":10963:10970  spender */\n      dup3\n        /* \"@openzeppelin/contracts/token/ERC20/ERC20.sol\":10972:10988  currentAllowance */\n      dup2\n        /* \"@openzeppelin/contracts/token/ERC20/ERC20.sol\":10990:10995  value */\n      dup4\n        /* \"@openzeppelin/contracts/token/ERC20/ERC20.sol\":10936:10996  ERC20InsufficientAllowance(spender, currentAllowance, value) */\n      mload(0x40)\n      0xfb8f41b200000000000000000000000000000000000000000000000000000000\n      dup2\n      mstore\n      0x04\n      add\n      tag_208\n      swap4\n      swap3\n      swap2\n      swap1\n      tag_209\n      jump\t// in\n    tag_208:\n      mload(0x40)\n      dup1\n      swap2\n      sub\n      swap1\n      revert\n        /* \"@openzeppelin/contracts/token/ERC20/ERC20.sol\":10881:11011  if (currentAllowance < value) {... */\n    tag_207:\n        /* \"@openzeppelin/contracts/token/ERC20/ERC20.sol\":11052:11109  _approve(owner, spender, currentAllowance - value, false) */\n      tag_210\n        /* \"@openzeppelin/contracts/token/ERC20/ERC20.sol\":11061:11066  owner */\n      dup5\n        /* \"@openzeppelin/contracts/token/ERC20/ERC20.sol\":11068:11075  spender */\n      dup5\n        /* \"@openzeppelin/contracts/token/ERC20/ERC20.sol\":11096:11101  value */\n      dup5\n        /* \"@openzeppelin/contracts/token/ERC20/ERC20.sol\":11077:11093  currentAllowance */\n      dup5\n        /* \"@openzeppelin/contracts/token/ERC20/ERC20.sol\":11077:11101  currentAllowance - value */\n      sub\n        /* \"@openzeppelin/contracts/token/ERC20/ERC20.sol\":11103:11108  false */\n      0x00\n        /* \"@openzeppelin/contracts/token/ERC20/ERC20.sol\":11052:11060  _approve */\n      tag_203\n        /* \"@openzeppelin/contracts/token/ERC20/ERC20.sol\":11052:11109  _approve(owner, spender, currentAllowance - value, false) */\n      jump\t// in\n    tag_210:\n        /* \"@openzeppelin/contracts/token/ERC20/ERC20.sol\":10824:11134  if (currentAllowance != type(uint256).max) {... */\n    tag_206:\n        /* \"@openzeppelin/contracts/token/ERC20/ERC20.sol\":10752:11140  {... */\n      pop\n        /* \"@openzeppelin/contracts/token/ERC20/ERC20.sol\":10663:11140  function _spendAllowance(address owner, address spender, uint256 value) internal virtual {... */\n      pop\n      pop\n      pop\n      jump\t// out\n        /* \"@openzeppelin/contracts/token/ERC20/ERC20.sol\":5656:5956  function _transfer(address from, address to, uint256 value) internal {... */\n    tag_133:\n        /* \"@openzeppelin/contracts/token/ERC20/ERC20.sol\":5755:5756  0 */\n      0x00\n        /* \"@openzeppelin/contracts/token/ERC20/ERC20.sol\":5739:5757  from == address(0) */\n      0xffffffffffffffffffffffffffffffffffffffff\n      and\n        /* \"@openzeppelin/contracts/token/ERC20/ERC20.sol\":5739:5743  from */\n      dup4\n        /* \"@openzeppelin/contracts/token/ERC20/ERC20.sol\":5739:5757  from == address(0) */\n      0xffffffffffffffffffffffffffffffffffffffff\n      and\n      sub\n        /* \"@openzeppelin/contracts/token/ERC20/ERC20.sol\":5735:5821  if (from == address(0)) {... */\n      tag_212\n      jumpi\n        /* \"@openzeppelin/contracts/token/ERC20/ERC20.sol\":5807:5808  0 */\n      0x00\n        /* \"@openzeppelin/contracts/token/ERC20/ERC20.sol\":5780:5810  ERC20InvalidSender(address(0)) */\n      mload(0x40)\n      0x96c6fd1e00000000000000000000000000000000000000000000000000000000\n      dup2\n      mstore\n      0x04\n      add\n      tag_213\n      swap2\n      swap1\n      tag_80\n      jump\t// in\n    tag_213:\n      mload(0x40)\n      dup1\n      swap2\n      sub\n      swap1\n      revert\n        /* \"@openzeppelin/contracts/token/ERC20/ERC20.sol\":5735:5821  if (from == address(0)) {... */\n    tag_212:\n        /* \"@openzeppelin/contracts/token/ERC20/ERC20.sol\":5848:5849  0 */\n      0x00\n        /* \"@openzeppelin/contracts/token/ERC20/ERC20.sol\":5834:5850  to == address(0) */\n      0xffffffffffffffffffffffffffffffffffffffff\n      and\n        /* \"@openzeppelin/contracts/token/ERC20/ERC20.sol\":5834:5836  to */\n      dup3\n        /* \"@openzeppelin/contracts/token/ERC20/ERC20.sol\":5834:5850  to == address(0) */\n      0xffffffffffffffffffffffffffffffffffffffff\n      and\n      sub\n        /* \"@openzeppelin/contracts/token/ERC20/ERC20.sol\":5830:5916  if (to == address(0)) {... */\n      tag_214\n      jumpi\n        /* \"@openzeppelin/contracts/token/ERC20/ERC20.sol\":5902:5903  0 */\n      0x00\n        /* \"@openzeppelin/contracts/token/ERC20/ERC20.sol\":5873:5905  ERC20InvalidReceiver(address(0)) */\n      mload(0x40)\n      0xec442f0500000000000000000000000000000000000000000000000000000000\n      dup2\n      mstore\n      0x04\n      add\n      tag_215\n      swap2\n      swap1\n      tag_80\n      jump\t// in\n    tag_215:\n      mload(0x40)\n      dup1\n      swap2\n      sub\n      swap1\n      revert\n        /* \"@openzeppelin/contracts/token/ERC20/ERC20.sol\":5830:5916  if (to == address(0)) {... */\n    tag_214:\n        /* \"@openzeppelin/contracts/token/ERC20/ERC20.sol\":5925:5949  _update(from, to, value) */\n      tag_216\n        /* \"@openzeppelin/contracts/token/ERC20/ERC20.sol\":5933:5937  from */\n      dup4\n        /* \"@openzeppelin/contracts/token/ERC20/ERC20.sol\":5939:5941  to */\n      dup4\n        /* \"@openzeppelin/contracts/token/ERC20/ERC20.sol\":5943:5948  value */\n      dup4\n        /* \"@openzeppelin/contracts/token/ERC20/ERC20.sol\":5925:5932  _update */\n      tag_217\n        /* \"@openzeppelin/contracts/token/ERC20/ERC20.sol\":5925:5949  _update(from, to, value) */\n      jump\t// in\n    tag_216:\n        /* \"@openzeppelin/contracts/token/ERC20/ERC20.sol\":5656:5956  function _transfer(address from, address to, uint256 value) internal {... */\n      pop\n      pop\n      pop\n      jump\t// out\n        /* \"@openzeppelin/contracts/access/Ownable.sol\":1796:1958  function _checkOwner() internal view virtual {... */\n    tag_137:\n        /* \"@openzeppelin/contracts/access/Ownable.sol\":1866:1878  _msgSender() */\n      tag_219\n        /* \"@openzeppelin/contracts/access/Ownable.sol\":1866:1876  _msgSender */\n      tag_124\n        /* \"@openzeppelin/contracts/access/Ownable.sol\":1866:1878  _msgSender() */\n      jump\t// in\n    tag_219:\n        /* \"@openzeppelin/contracts/access/Ownable.sol\":1855:1878  owner() != _msgSender() */\n      0xffffffffffffffffffffffffffffffffffffffff\n      and\n        /* \"@openzeppelin/contracts/access/Ownable.sol\":1855:1862  owner() */\n      tag_220\n        /* \"@openzeppelin/contracts/access/Ownable.sol\":1855:1860  owner */\n      tag_78\n        /* \"@openzeppelin/contracts/access/Ownable.sol\":1855:1862  owner() */\n      jump\t// in\n    tag_220:\n        /* \"@openzeppelin/contracts/access/Ownable.sol\":1855:1878  owner() != _msgSender() */\n      0xffffffffffffffffffffffffffffffffffffffff\n      and\n      eq\n        /* \"@openzeppelin/contracts/access/Ownable.sol\":1851:1952  if (owner() != _msgSender()) {... */\n      tag_221\n      jumpi\n        /* \"@openzeppelin/contracts/access/Ownable.sol\":1928:1940  _msgSender() */\n      tag_222\n        /* \"@openzeppelin/contracts/access/Ownable.sol\":1928:1938  _msgSender */\n      tag_124\n        /* \"@openzeppelin/contracts/access/Ownable.sol\":1928:1940  _msgSender() */\n      jump\t// in\n    tag_222:\n        /* \"@openzeppelin/contracts/access/Ownable.sol\":1901:1941  OwnableUnauthorizedAccount(_msgSender()) */\n      mload(0x40)\n      0x118cdaa700000000000000000000000000000000000000000000000000000000\n      dup2\n      mstore\n      0x04\n      add\n      tag_223\n      swap2\n      swap1\n      tag_80\n      jump\t// in\n    tag_223:\n      mload(0x40)\n      dup1\n      swap2\n      sub\n      swap1\n      revert\n        /* \"@openzeppelin/contracts/access/Ownable.sol\":1851:1952  if (owner() != _msgSender()) {... */\n    tag_221:\n        /* \"@openzeppelin/contracts/access/Ownable.sol\":1796:1958  function _checkOwner() internal view virtual {... */\n      jump\t// out\n        /* \"@openzeppelin/contracts/token/ERC20/ERC20.sol\":7721:7929  function _mint(address account, uint256 value) internal {... */\n    tag_143:\n        /* \"@openzeppelin/contracts/token/ERC20/ERC20.sol\":7810:7811  0 */\n      0x00\n        /* \"@openzeppelin/contracts/token/ERC20/ERC20.sol\":7791:7812  account == address(0) */\n      0xffffffffffffffffffffffffffffffffffffffff\n      and\n        /* \"@openzeppelin/contracts/token/ERC20/ERC20.sol\":7791:7798  account */\n      dup3\n        /* \"@openzeppelin/contracts/token/ERC20/ERC20.sol\":7791:7812  account == address(0) */\n      0xffffffffffffffffffffffffffffffffffffffff\n      and\n      sub\n        /* \"@openzeppelin/contracts/token/ERC20/ERC20.sol\":7787:7878  if (account == address(0)) {... */\n      tag_225\n      jumpi\n        /* \"@openzeppelin/contracts/token/ERC20/ERC20.sol\":7864:7865  0 */\n      0x00\n        /* \"@openzeppelin/contracts/token/ERC20/ERC20.sol\":7835:7867  ERC20InvalidReceiver(address(0)) */\n      mload(0x40)\n      0xec442f0500000000000000000000000000000000000000000000000000000000\n      dup2\n      mstore\n      0x04\n      add\n      tag_226\n      swap2\n      swap1\n      tag_80\n      jump\t// in\n    tag_226:\n      mload(0x40)\n      dup1\n      swap2\n      sub\n      swap1\n      revert\n        /* \"@openzeppelin/contracts/token/ERC20/ERC20.sol\":7787:7878  if (account == address(0)) {... */\n    tag_225:\n        /* \"@openzeppelin/contracts/token/ERC20/ERC20.sol\":7887:7922  _update(address(0), account, value) */\n      tag_227\n        /* \"@openzeppelin/contracts/token/ERC20/ERC20.sol\":7903:7904  0 */\n      0x00\n        /* \"@openzeppelin/contracts/token/ERC20/ERC20.sol\":7907:7914  account */\n      dup4\n        /* \"@openzeppelin/contracts/token/ERC20/ERC20.sol\":7916:7921  value */\n      dup4\n        /* \"@openzeppelin/contracts/token/ERC20/ERC20.sol\":7887:7894  _update */\n      tag_217\n        /* \"@openzeppelin/contracts/token/ERC20/ERC20.sol\":7887:7922  _update(address(0), account, value) */\n      jump\t// in\n    tag_227:\n        /* \"@openzeppelin/contracts/token/ERC20/ERC20.sol\":7721:7929  function _mint(address account, uint256 value) internal {... */\n      pop\n      pop\n      jump\t// out\n        /* \"@openzeppelin/contracts/token/ERC20/utils/SafeERC20.sol\":1303:1463  function safeTransfer(IERC20 token, address to, uint256 value) internal {... */\n    tag_158:\n        /* \"@openzeppelin/contracts/token/ERC20/utils/SafeERC20.sol\":1385:1456  _callOptionalReturn(token, abi.encodeCall(token.transfer, (to, value))) */\n      tag_229\n        /* \"@openzeppelin/contracts/token/ERC20/utils/SafeERC20.sol\":1405:1410  token */\n      dup4\n        /* \"@openzeppelin/contracts/token/ERC20/utils/SafeERC20.sol\":1427:1432  token */\n      dup5\n        /* \"@openzeppelin/contracts/token/ERC20/utils/SafeERC20.sol\":1427:1441  token.transfer */\n      0xffffffffffffffffffffffffffffffffffffffff\n      and\n      0xa9059cbb\n        /* \"@openzeppelin/contracts/token/ERC20/utils/SafeERC20.sol\":1444:1446  to */\n      dup6\n        /* \"@openzeppelin/contracts/token/ERC20/utils/SafeERC20.sol\":1448:1453  value */\n      dup6\n        /* \"@openzeppelin/contracts/token/ERC20/utils/SafeERC20.sol\":1412:1455  abi.encodeCall(token.transfer, (to, value)) */\n      add(0x24, mload(0x40))\n      tag_230\n      swap3\n      swap2\n      swap1\n      tag_231\n      jump\t// in\n    tag_230:\n      mload(0x40)\n      0x20\n      dup2\n      dup4\n      sub\n      sub\n      dup2\n      mstore\n      swap1\n      0x40\n      mstore\n      swap2\n      pop\n      0xe0\n      shl\n      0x20\n      dup3\n      add\n      dup1\n      mload\n      0xffffffffffffffffffffffffffffffffffffffffffffffffffffffff\n      dup4\n      dup2\n      dup4\n      and\n      or\n      dup4\n      mstore\n      pop\n      pop\n      pop\n      pop\n        /* \"@openzeppelin/contracts/token/ERC20/utils/SafeERC20.sol\":1385:1404  _callOptionalReturn */\n      tag_232\n        /* \"@openzeppelin/contracts/token/ERC20/utils/SafeERC20.sol\":1385:1456  _callOptionalReturn(token, abi.encodeCall(token.transfer, (to, value))) */\n      jump\t// in\n    tag_229:\n        /* \"@openzeppelin/contracts/token/ERC20/utils/SafeERC20.sol\":1303:1463  function safeTransfer(IERC20 token, address to, uint256 value) internal {... */\n      pop\n      pop\n      pop\n      jump\t// out\n        /* \"@openzeppelin/contracts/access/Ownable.sol\":2912:3099  function _transferOwnership(address newOwner) internal virtual {... */\n    tag_164:\n        /* \"@openzeppelin/contracts/access/Ownable.sol\":2985:3001  address oldOwner */\n      0x00\n        /* \"@openzeppelin/contracts/access/Ownable.sol\":3004:3010  _owner */\n      0x05\n      0x00\n      swap1\n      sload\n      swap1\n      0x0100\n      exp\n      swap1\n      div\n      0xffffffffffffffffffffffffffffffffffffffff\n      and\n        /* \"@openzeppelin/contracts/access/Ownable.sol\":2985:3010  address oldOwner = _owner */\n      swap1\n      pop\n        /* \"@openzeppelin/contracts/access/Ownable.sol\":3029:3037  newOwner */\n      dup2\n        /* \"@openzeppelin/contracts/access/Ownable.sol\":3020:3026  _owner */\n      0x05\n      0x00\n        /* \"@openzeppelin/contracts/access/Ownable.sol\":3020:3037  _owner = newOwner */\n      0x0100\n      exp\n      dup2\n      sload\n      dup2\n      0xffffffffffffffffffffffffffffffffffffffff\n      mul\n      not\n      and\n      swap1\n      dup4\n      0xffffffffffffffffffffffffffffffffffffffff\n      and\n      mul\n      or\n      swap1\n      sstore\n      pop\n        /* \"@openzeppelin/contracts/access/Ownable.sol\":3083:3091  newOwner */\n      dup2\n        /* \"@openzeppelin/contracts/access/Ownable.sol\":3052:3092  OwnershipTransferred(oldOwner, newOwner) */\n      0xffffffffffffffffffffffffffffffffffffffff\n      and\n        /* \"@openzeppelin/contracts/access/Ownable.sol\":3073:3081  oldOwner */\n      dup2\n        /* \"@openzeppelin/contracts/access/Ownable.sol\":3052:3092  OwnershipTransferred(oldOwner, newOwner) */\n      0xffffffffffffffffffffffffffffffffffffffff\n      and\n      0x8be0079c531659141344cd1fd0a4f28419497f9722a3daafe3b4186f6b6457e0\n      mload(0x40)\n      mload(0x40)\n      dup1\n      swap2\n      sub\n      swap1\n      log3\n        /* \"@openzeppelin/contracts/access/Ownable.sol\":2975:3099  {... */\n      pop\n        /* \"@openzeppelin/contracts/access/Ownable.sol\":2912:3099  function _transferOwnership(address newOwner) internal virtual {... */\n      pop\n      jump\t// out\n        /* \"@openzeppelin/contracts/token/ERC20/ERC20.sol\":8247:8453  function _burn(address account, uint256 value) internal {... */\n    tag_176:\n        /* \"@openzeppelin/contracts/token/ERC20/ERC20.sol\":8336:8337  0 */\n      0x00\n        /* \"@openzeppelin/contracts/token/ERC20/ERC20.sol\":8317:8338  account == address(0) */\n      0xffffffffffffffffffffffffffffffffffffffff\n      and\n        /* \"@openzeppelin/contracts/token/ERC20/ERC20.sol\":8317:8324  account */\n      dup3\n        /* \"@openzeppelin/contracts/token/ERC20/ERC20.sol\":8317:8338  account == address(0) */\n      0xffffffffffffffffffffffffffffffffffffffff\n      and\n      sub\n        /* \"@openzeppelin/contracts/token/ERC20/ERC20.sol\":8313:8402  if (account == address(0)) {... */\n      tag_235\n      jumpi\n        /* \"@openzeppelin/contracts/token/ERC20/ERC20.sol\":8388:8389  0 */\n      0x00\n        /* \"@openzeppelin/contracts/token/ERC20/ERC20.sol\":8361:8391  ERC20InvalidSender(address(0)) */\n      mload(0x40)\n      0x96c6fd1e00000000000000000000000000000000000000000000000000000000\n      dup2\n      mstore\n      0x04\n      add\n      tag_236\n      swap2\n      swap1\n      tag_80\n      jump\t// in\n    tag_236:\n      mload(0x40)\n      dup1\n      swap2\n      sub\n      swap1\n      revert\n        /* \"@openzeppelin/contracts/token/ERC20/ERC20.sol\":8313:8402  if (account == address(0)) {... */\n    tag_235:\n        /* \"@openzeppelin/contracts/token/ERC20/ERC20.sol\":8411:8446  _update(account, address(0), value) */\n      tag_237\n        /* \"@openzeppelin/contracts/token/ERC20/ERC20.sol\":8419:8426  account */\n      dup3\n        /* \"@openzeppelin/contracts/token/ERC20/ERC20.sol\":8436:8437  0 */\n      0x00\n        /* \"@openzeppelin/contracts/token/ERC20/ERC20.sol\":8440:8445  value */\n      dup4\n        /* \"@openzeppelin/contracts/token/ERC20/ERC20.sol\":8411:8418  _update */\n      tag_217\n        /* \"@openzeppelin/contracts/token/ERC20/ERC20.sol\":8411:8446  _update(account, address(0), value) */\n      jump\t// in\n    tag_237:\n        /* \"@openzeppelin/contracts/token/ERC20/ERC20.sol\":8247:8453  function _burn(address account, uint256 value) internal {... */\n      pop\n      pop\n      jump\t// out\n        /* \"@openzeppelin/contracts/token/ERC20/utils/SafeERC20.sol\":1702:1890  function safeTransferFrom(IERC20 token, address from, address to, uint256 value) internal {... */\n    tag_180:\n        /* \"@openzeppelin/contracts/token/ERC20/utils/SafeERC20.sol\":1802:1883  _callOptionalReturn(token, abi.encodeCall(token.transferFrom, (from, to, value))) */\n      tag_239\n        /* \"@openzeppelin/contracts/token/ERC20/utils/SafeERC20.sol\":1822:1827  token */\n      dup5\n        /* \"@openzeppelin/contracts/token/ERC20/utils/SafeERC20.sol\":1844:1849  token */\n      dup6\n        /* \"@openzeppelin/contracts/token/ERC20/utils/SafeERC20.sol\":1844:1862  token.transferFrom */\n      0xffffffffffffffffffffffffffffffffffffffff\n      and\n      0x23b872dd\n        /* \"@openzeppelin/contracts/token/ERC20/utils/SafeERC20.sol\":1865:1869  from */\n      dup7\n        /* \"@openzeppelin/contracts/token/ERC20/utils/SafeERC20.sol\":1871:1873  to */\n      dup7\n        /* \"@openzeppelin/contracts/token/ERC20/utils/SafeERC20.sol\":1875:1880  value */\n      dup7\n        /* \"@openzeppelin/contracts/token/ERC20/utils/SafeERC20.sol\":1829:1882  abi.encodeCall(token.transferFrom, (from, to, value)) */\n      add(0x24, mload(0x40))\n      tag_240\n      swap4\n      swap3\n      swap2\n      swap1\n      tag_241\n      jump\t// in\n    tag_240:\n      mload(0x40)\n      0x20\n      dup2\n      dup4\n      sub\n      sub\n      dup2\n      mstore\n      swap1\n      0x40\n      mstore\n      swap2\n      pop\n      0xe0\n      shl\n      0x20\n      dup3\n      add\n      dup1\n      mload\n      0xffffffffffffffffffffffffffffffffffffffffffffffffffffffff\n      dup4\n      dup2\n      dup4\n      and\n      or\n      dup4\n      mstore\n      pop\n      pop\n      pop\n      pop\n        /* \"@openzeppelin/contracts/token/ERC20/utils/SafeERC20.sol\":1802:1821  _callOptionalReturn */\n      tag_232\n        /* \"@openzeppelin/contracts/token/ERC20/utils/SafeERC20.sol\":1802:1883  _callOptionalReturn(token, abi.encodeCall(token.transferFrom, (from, to, value))) */\n      jump\t// in\n    tag_239:\n        /* \"@openzeppelin/contracts/token/ERC20/utils/SafeERC20.sol\":1702:1890  function safeTransferFrom(IERC20 token, address from, address to, uint256 value) internal {... */\n      pop\n      pop\n      pop\n      pop\n      jump\t// out\n        /* \"MyCallOption.sol\":1487:1704  function safeTransferETH(address to, uint256 value) internal {... */\n    tag_182:\n        /* \"MyCallOption.sol\":1560:1572  bool success */\n      0x00\n        /* \"MyCallOption.sol\":1578:1580  to */\n      dup3\n        /* \"MyCallOption.sol\":1578:1585  to.call */\n      0xffffffffffffffffffffffffffffffffffffffff\n      and\n        /* \"MyCallOption.sol\":1593:1598  value */\n      dup3\n        /* \"MyCallOption.sol\":1610:1611  0 */\n      0x00\n        /* \"MyCallOption.sol\":1600:1612  new bytes(0) */\n      0xffffffffffffffff\n      dup2\n      gt\n      iszero\n      tag_243\n      jumpi\n      tag_244\n      tag_245\n      jump\t// in\n    tag_244:\n    tag_243:\n      mload(0x40)\n      swap1\n      dup1\n      dup3\n      mstore\n      dup1\n      0x1f\n      add\n      not(0x1f)\n      and\n      0x20\n      add\n      dup3\n      add\n      0x40\n      mstore\n      dup1\n      iszero\n      tag_246\n      jumpi\n      dup2\n      0x20\n      add\n      0x01\n      dup3\n      mul\n      dup1\n      calldatasize\n      dup4\n      calldatacopy\n      dup1\n      dup3\n      add\n      swap2\n      pop\n      pop\n      swap1\n      pop\n    tag_246:\n      pop\n        /* \"MyCallOption.sol\":1578:1613  to.call{value: value}(new bytes(0)) */\n      mload(0x40)\n      tag_247\n      swap2\n      swap1\n      tag_248\n      jump\t// in\n    tag_247:\n      0x00\n      mload(0x40)\n      dup1\n      dup4\n      sub\n      dup2\n      dup6\n      dup8\n      gas\n      call\n      swap3\n      pop\n      pop\n      pop\n      returndatasize\n      dup1\n      0x00\n      dup2\n      eq\n      tag_251\n      jumpi\n      mload(0x40)\n      swap2\n      pop\n      and(add(returndatasize, 0x3f), not(0x1f))\n      dup3\n      add\n      0x40\n      mstore\n      returndatasize\n      dup3\n      mstore\n      returndatasize\n      0x00\n      0x20\n      dup5\n      add\n      returndatacopy\n      jump(tag_250)\n    tag_251:\n      0x60\n      swap2\n      pop\n    tag_250:\n      pop\n        /* \"MyCallOption.sol\":1559:1613  (bool success, ) = to.call{value: value}(new bytes(0)) */\n      pop\n      swap1\n      pop\n        /* \"MyCallOption.sol\":1632:1639  success */\n      dup1\n        /* \"MyCallOption.sol\":1624:1696  require(success, 'TransferHelper::safeTransferETH: ETH transfer failed') */\n      tag_252\n      jumpi\n      mload(0x40)\n      0x08c379a000000000000000000000000000000000000000000000000000000000\n      dup2\n      mstore\n      0x04\n      add\n      tag_253\n      swap1\n      tag_254\n      jump\t// in\n    tag_253:\n      mload(0x40)\n      dup1\n      swap2\n      sub\n      swap1\n      revert\n    tag_252:\n        /* \"MyCallOption.sol\":1548:1704  {... */\n      pop\n        /* \"MyCallOption.sol\":1487:1704  function safeTransferETH(address to, uint256 value) internal {... */\n      pop\n      pop\n      jump\t// out\n        /* \"@openzeppelin/contracts/token/ERC20/ERC20.sol\":9949:10381  function _approve(address owner, address spender, uint256 value, bool emitEvent) internal virtual {... */\n    tag_203:\n        /* \"@openzeppelin/contracts/token/ERC20/ERC20.sol\":10078:10079  0 */\n      0x00\n        /* \"@openzeppelin/contracts/token/ERC20/ERC20.sol\":10061:10080  owner == address(0) */\n      0xffffffffffffffffffffffffffffffffffffffff\n      and\n        /* \"@openzeppelin/contracts/token/ERC20/ERC20.sol\":10061:10066  owner */\n      dup5\n        /* \"@openzeppelin/contracts/token/ERC20/ERC20.sol\":10061:10080  owner == address(0) */\n      0xffffffffffffffffffffffffffffffffffffffff\n      and\n      sub\n        /* \"@openzeppelin/contracts/token/ERC20/ERC20.sol\":10057:10146  if (owner == address(0)) {... */\n      tag_256\n      jumpi\n        /* \"@openzeppelin/contracts/token/ERC20/ERC20.sol\":10132:10133  0 */\n      0x00\n        /* \"@openzeppelin/contracts/token/ERC20/ERC20.sol\":10103:10135  ERC20InvalidApprover(address(0)) */\n      mload(0x40)\n      0xe602df0500000000000000000000000000000000000000000000000000000000\n      dup2\n      mstore\n      0x04\n      add\n      tag_257\n      swap2\n      swap1\n      tag_80\n      jump\t// in\n    tag_257:\n      mload(0x40)\n      dup1\n      swap2\n      sub\n      swap1\n      revert\n        /* \"@openzeppelin/contracts/token/ERC20/ERC20.sol\":10057:10146  if (owner == address(0)) {... */\n    tag_256:\n        /* \"@openzeppelin/contracts/token/ERC20/ERC20.sol\":10178:10179  0 */\n      0x00\n        /* \"@openzeppelin/contracts/token/ERC20/ERC20.sol\":10159:10180  spender == address(0) */\n      0xffffffffffffffffffffffffffffffffffffffff\n      and\n        /* \"@openzeppelin/contracts/token/ERC20/ERC20.sol\":10159:10166  spender */\n      dup4\n        /* \"@openzeppelin/contracts/token/ERC20/ERC20.sol\":10159:10180  spender == address(0) */\n      0xffffffffffffffffffffffffffffffffffffffff\n      and\n      sub\n        /* \"@openzeppelin/contracts/token/ERC20/ERC20.sol\":10155:10245  if (spender == address(0)) {... */\n      tag_258\n      jumpi\n        /* \"@openzeppelin/contracts/token/ERC20/ERC20.sol\":10231:10232  0 */\n      0x00\n        /* \"@openzeppelin/contracts/token/ERC20/ERC20.sol\":10203:10234  ERC20InvalidSpender(address(0)) */\n      mload(0x40)\n      0x94280d6200000000000000000000000000000000000000000000000000000000\n      dup2\n      mstore\n      0x04\n      add\n      tag_259\n      swap2\n      swap1\n      tag_80\n      jump\t// in\n    tag_259:\n      mload(0x40)\n      dup1\n      swap2\n      sub\n      swap1\n      revert\n        /* \"@openzeppelin/contracts/token/ERC20/ERC20.sol\":10155:10245  if (spender == address(0)) {... */\n    tag_258:\n        /* \"@openzeppelin/contracts/token/ERC20/ERC20.sol\":10284:10289  value */\n      dup2\n        /* \"@openzeppelin/contracts/token/ERC20/ERC20.sol\":10254:10265  _allowances */\n      0x01\n        /* \"@openzeppelin/contracts/token/ERC20/ERC20.sol\":10254:10272  _allowances[owner] */\n      0x00\n        /* \"@openzeppelin/contracts/token/ERC20/ERC20.sol\":10266:10271  owner */\n      dup7\n        /* \"@openzeppelin/contracts/token/ERC20/ERC20.sol\":10254:10272  _allowances[owner] */\n      0xffffffffffffffffffffffffffffffffffffffff\n      and\n      0xffffffffffffffffffffffffffffffffffffffff\n      and\n      dup2\n      mstore\n      0x20\n      add\n      swap1\n      dup2\n      mstore\n      0x20\n      add\n      0x00\n      keccak256\n        /* \"@openzeppelin/contracts/token/ERC20/ERC20.sol\":10254:10281  _allowances[owner][spender] */\n      0x00\n        /* \"@openzeppelin/contracts/token/ERC20/ERC20.sol\":10273:10280  spender */\n      dup6\n        /* \"@openzeppelin/contracts/token/ERC20/ERC20.sol\":10254:10281  _allowances[owner][spender] */\n      0xffffffffffffffffffffffffffffffffffffffff\n      and\n      0xffffffffffffffffffffffffffffffffffffffff\n      and\n      dup2\n      mstore\n      0x20\n      add\n      swap1\n      dup2\n      mstore\n      0x20\n      add\n      0x00\n      keccak256\n        /* \"@openzeppelin/contracts/token/ERC20/ERC20.sol\":10254:10289  _allowances[owner][spender] = value */\n      dup2\n      swap1\n      sstore\n      pop\n        /* \"@openzeppelin/contracts/token/ERC20/ERC20.sol\":10303:10312  emitEvent */\n      dup1\n        /* \"@openzeppelin/contracts/token/ERC20/ERC20.sol\":10299:10375  if (emitEvent) {... */\n      iszero\n      tag_260\n      jumpi\n        /* \"@openzeppelin/contracts/token/ERC20/ERC20.sol\":10349:10356  spender */\n      dup3\n        /* \"@openzeppelin/contracts/token/ERC20/ERC20.sol\":10333:10364  Approval(owner, spender, value) */\n      0xffffffffffffffffffffffffffffffffffffffff\n      and\n        /* \"@openzeppelin/contracts/token/ERC20/ERC20.sol\":10342:10347  owner */\n      dup5\n        /* \"@openzeppelin/contracts/token/ERC20/ERC20.sol\":10333:10364  Approval(owner, spender, value) */\n      0xffffffffffffffffffffffffffffffffffffffff\n      and\n      0x8c5be1e5ebec7d5bd14f71427d1e84f3dd0314c0f7b2291e5b200ac8c7c3b925\n        /* \"@openzeppelin/contracts/token/ERC20/ERC20.sol\":10358:10363  value */\n      dup5\n        /* \"@openzeppelin/contracts/token/ERC20/ERC20.sol\":10333:10364  Approval(owner, spender, value) */\n      mload(0x40)\n      tag_261\n      swap2\n      swap1\n      tag_40\n      jump\t// in\n    tag_261:\n      mload(0x40)\n      dup1\n      swap2\n      sub\n      swap1\n      log3\n        /* \"@openzeppelin/contracts/token/ERC20/ERC20.sol\":10299:10375  if (emitEvent) {... */\n    tag_260:\n        /* \"@openzeppelin/contracts/token/ERC20/ERC20.sol\":9949:10381  function _approve(address owner, address spender, uint256 value, bool emitEvent) internal virtual {... */\n      pop\n      pop\n      pop\n      pop\n      jump\t// out\n        /* \"@openzeppelin/contracts/token/ERC20/ERC20.sol\":6271:7378  function _update(address from, address to, uint256 value) internal virtual {... */\n    tag_217:\n        /* \"@openzeppelin/contracts/token/ERC20/ERC20.sol\":6376:6377  0 */\n      0x00\n        /* \"@openzeppelin/contracts/token/ERC20/ERC20.sol\":6360:6378  from == address(0) */\n      0xffffffffffffffffffffffffffffffffffffffff\n      and\n        /* \"@openzeppelin/contracts/token/ERC20/ERC20.sol\":6360:6364  from */\n      dup4\n        /* \"@openzeppelin/contracts/token/ERC20/ERC20.sol\":6360:6378  from == address(0) */\n      0xffffffffffffffffffffffffffffffffffffffff\n      and\n      sub\n        /* \"@openzeppelin/contracts/token/ERC20/ERC20.sol\":6356:6896  if (from == address(0)) {... */\n      tag_263\n      jumpi\n        /* \"@openzeppelin/contracts/token/ERC20/ERC20.sol\":6512:6517  value */\n      dup1\n        /* \"@openzeppelin/contracts/token/ERC20/ERC20.sol\":6496:6508  _totalSupply */\n      0x02\n      0x00\n        /* \"@openzeppelin/contracts/token/ERC20/ERC20.sol\":6496:6517  _totalSupply += value */\n      dup3\n      dup3\n      sload\n      tag_264\n      swap2\n      swap1\n      tag_265\n      jump\t// in\n    tag_264:\n      swap3\n      pop\n      pop\n      dup2\n      swap1\n      sstore\n      pop\n        /* \"@openzeppelin/contracts/token/ERC20/ERC20.sol\":6356:6896  if (from == address(0)) {... */\n      jump(tag_266)\n    tag_263:\n        /* \"@openzeppelin/contracts/token/ERC20/ERC20.sol\":6548:6567  uint256 fromBalance */\n      0x00\n        /* \"@openzeppelin/contracts/token/ERC20/ERC20.sol\":6570:6579  _balances */\n      0x00\n        /* \"@openzeppelin/contracts/token/ERC20/ERC20.sol\":6570:6585  _balances[from] */\n      0x00\n        /* \"@openzeppelin/contracts/token/ERC20/ERC20.sol\":6580:6584  from */\n      dup6\n        /* \"@openzeppelin/contracts/token/ERC20/ERC20.sol\":6570:6585  _balances[from] */\n      0xffffffffffffffffffffffffffffffffffffffff\n      and\n      0xffffffffffffffffffffffffffffffffffffffff\n      and\n      dup2\n      mstore\n      0x20\n      add\n      swap1\n      dup2\n      mstore\n      0x20\n      add\n      0x00\n      keccak256\n      sload\n        /* \"@openzeppelin/contracts/token/ERC20/ERC20.sol\":6548:6585  uint256 fromBalance = _balances[from] */\n      swap1\n      pop\n        /* \"@openzeppelin/contracts/token/ERC20/ERC20.sol\":6617:6622  value */\n      dup2\n        /* \"@openzeppelin/contracts/token/ERC20/ERC20.sol\":6603:6614  fromBalance */\n      dup2\n        /* \"@openzeppelin/contracts/token/ERC20/ERC20.sol\":6603:6622  fromBalance < value */\n      lt\n        /* \"@openzeppelin/contracts/token/ERC20/ERC20.sol\":6599:6714  if (fromBalance < value) {... */\n      iszero\n      tag_267\n      jumpi\n        /* \"@openzeppelin/contracts/token/ERC20/ERC20.sol\":6674:6678  from */\n      dup4\n        /* \"@openzeppelin/contracts/token/ERC20/ERC20.sol\":6680:6691  fromBalance */\n      dup2\n        /* \"@openzeppelin/contracts/token/ERC20/ERC20.sol\":6693:6698  value */\n      dup4\n        /* \"@openzeppelin/contracts/token/ERC20/ERC20.sol\":6649:6699  ERC20InsufficientBalance(from, fromBalance, value) */\n      mload(0x40)\n      0xe450d38c00000000000000000000000000000000000000000000000000000000\n      dup2\n      mstore\n      0x04\n      add\n      tag_268\n      swap4\n      swap3\n      swap2\n      swap1\n      tag_209\n      jump\t// in\n    tag_268:\n      mload(0x40)\n      dup1\n      swap2\n      sub\n      swap1\n      revert\n        /* \"@openzeppelin/contracts/token/ERC20/ERC20.sol\":6599:6714  if (fromBalance < value) {... */\n    tag_267:\n        /* \"@openzeppelin/contracts/token/ERC20/ERC20.sol\":6866:6871  value */\n      dup2\n        /* \"@openzeppelin/contracts/token/ERC20/ERC20.sol\":6852:6863  fromBalance */\n      dup2\n        /* \"@openzeppelin/contracts/token/ERC20/ERC20.sol\":6852:6871  fromBalance - value */\n      sub\n        /* \"@openzeppelin/contracts/token/ERC20/ERC20.sol\":6834:6843  _balances */\n      0x00\n        /* \"@openzeppelin/contracts/token/ERC20/ERC20.sol\":6834:6849  _balances[from] */\n      0x00\n        /* \"@openzeppelin/contracts/token/ERC20/ERC20.sol\":6844:6848  from */\n      dup7\n        /* \"@openzeppelin/contracts/token/ERC20/ERC20.sol\":6834:6849  _balances[from] */\n      0xffffffffffffffffffffffffffffffffffffffff\n      and\n      0xffffffffffffffffffffffffffffffffffffffff\n      and\n      dup2\n      mstore\n      0x20\n      add\n      swap1\n      dup2\n      mstore\n      0x20\n      add\n      0x00\n      keccak256\n        /* \"@openzeppelin/contracts/token/ERC20/ERC20.sol\":6834:6871  _balances[from] = fromBalance - value */\n      dup2\n      swap1\n      sstore\n      pop\n        /* \"@openzeppelin/contracts/token/ERC20/ERC20.sol\":6534:6896  {... */\n      pop\n        /* \"@openzeppelin/contracts/token/ERC20/ERC20.sol\":6356:6896  if (from == address(0)) {... */\n    tag_266:\n        /* \"@openzeppelin/contracts/token/ERC20/ERC20.sol\":6924:6925  0 */\n      0x00\n        /* \"@openzeppelin/contracts/token/ERC20/ERC20.sol\":6910:6926  to == address(0) */\n      0xffffffffffffffffffffffffffffffffffffffff\n      and\n        /* \"@openzeppelin/contracts/token/ERC20/ERC20.sol\":6910:6912  to */\n      dup3\n        /* \"@openzeppelin/contracts/token/ERC20/ERC20.sol\":6910:6926  to == address(0) */\n      0xffffffffffffffffffffffffffffffffffffffff\n      and\n      sub\n        /* \"@openzeppelin/contracts/token/ERC20/ERC20.sol\":6906:7331  if (to == address(0)) {... */\n      tag_269\n      jumpi\n        /* \"@openzeppelin/contracts/token/ERC20/ERC20.sol\":7089:7094  value */\n      dup1\n        /* \"@openzeppelin/contracts/token/ERC20/ERC20.sol\":7073:7085  _totalSupply */\n      0x02\n      0x00\n        /* \"@openzeppelin/contracts/token/ERC20/ERC20.sol\":7073:7094  _totalSupply -= value */\n      dup3\n      dup3\n      sload\n      sub\n      swap3\n      pop\n      pop\n      dup2\n      swap1\n      sstore\n      pop\n        /* \"@openzeppelin/contracts/token/ERC20/ERC20.sol\":6906:7331  if (to == address(0)) {... */\n      jump(tag_270)\n    tag_269:\n        /* \"@openzeppelin/contracts/token/ERC20/ERC20.sol\":7301:7306  value */\n      dup1\n        /* \"@openzeppelin/contracts/token/ERC20/ERC20.sol\":7284:7293  _balances */\n      0x00\n        /* \"@openzeppelin/contracts/token/ERC20/ERC20.sol\":7284:7297  _balances[to] */\n      0x00\n        /* \"@openzeppelin/contracts/token/ERC20/ERC20.sol\":7294:7296  to */\n      dup5\n        /* \"@openzeppelin/contracts/token/ERC20/ERC20.sol\":7284:7297  _balances[to] */\n      0xffffffffffffffffffffffffffffffffffffffff\n      and\n      0xffffffffffffffffffffffffffffffffffffffff\n      and\n      dup2\n      mstore\n      0x20\n      add\n      swap1\n      dup2\n      mstore\n      0x20\n      add\n      0x00\n      keccak256\n      0x00\n        /* \"@openzeppelin/contracts/token/ERC20/ERC20.sol\":7284:7306  _balances[to] += value */\n      dup3\n      dup3\n      sload\n      add\n      swap3\n      pop\n      pop\n      dup2\n      swap1\n      sstore\n      pop\n        /* \"@openzeppelin/contracts/token/ERC20/ERC20.sol\":6906:7331  if (to == address(0)) {... */\n    tag_270:\n        /* \"@openzeppelin/contracts/token/ERC20/ERC20.sol\":7361:7363  to */\n      dup2\n        /* \"@openzeppelin/contracts/token/ERC20/ERC20.sol\":7346:7371  Transfer(from, to, value) */\n      0xffffffffffffffffffffffffffffffffffffffff\n      and\n        /* \"@openzeppelin/contracts/token/ERC20/ERC20.sol\":7355:7359  from */\n      dup4\n        /* \"@openzeppelin/contracts/token/ERC20/ERC20.sol\":7346:7371  Transfer(from, to, value) */\n      0xffffffffffffffffffffffffffffffffffffffff\n      and\n      0xddf252ad1be2c89b69c2b068fc378daa952ba7f163c4a11628f55a4df523b3ef\n        /* \"@openzeppelin/contracts/token/ERC20/ERC20.sol\":7365:7370  value */\n      dup4\n        /* \"@openzeppelin/contracts/token/ERC20/ERC20.sol\":7346:7371  Transfer(from, to, value) */\n      mload(0x40)\n      tag_271\n      swap2\n      swap1\n      tag_40\n      jump\t// in\n    tag_271:\n      mload(0x40)\n      dup1\n      swap2\n      sub\n      swap1\n      log3\n        /* \"@openzeppelin/contracts/token/ERC20/ERC20.sol\":6271:7378  function _update(address from, address to, uint256 value) internal virtual {... */\n      pop\n      pop\n      pop\n      jump\t// out\n        /* \"@openzeppelin/contracts/token/ERC20/utils/SafeERC20.sol\":4059:4688  function _callOptionalReturn(IERC20 token, bytes memory data) private {... */\n    tag_232:\n        /* \"@openzeppelin/contracts/token/ERC20/utils/SafeERC20.sol\":4478:4501  bytes memory returndata */\n      0x00\n        /* \"@openzeppelin/contracts/token/ERC20/utils/SafeERC20.sol\":4504:4537  address(token).functionCall(data) */\n      tag_273\n        /* \"@openzeppelin/contracts/token/ERC20/utils/SafeERC20.sol\":4532:4536  data */\n      dup3\n        /* \"@openzeppelin/contracts/token/ERC20/utils/SafeERC20.sol\":4512:4517  token */\n      dup5\n        /* \"@openzeppelin/contracts/token/ERC20/utils/SafeERC20.sol\":4504:4531  address(token).functionCall */\n      0xffffffffffffffffffffffffffffffffffffffff\n      and\n      tag_274\n      swap1\n        /* \"@openzeppelin/contracts/token/ERC20/utils/SafeERC20.sol\":4504:4537  address(token).functionCall(data) */\n      swap2\n      swap1\n      0xffffffff\n      and\n      jump\t// in\n    tag_273:\n        /* \"@openzeppelin/contracts/token/ERC20/utils/SafeERC20.sol\":4478:4537  bytes memory returndata = address(token).functionCall(data) */\n      swap1\n      pop\n        /* \"@openzeppelin/contracts/token/ERC20/utils/SafeERC20.sol\":4572:4573  0 */\n      0x00\n        /* \"@openzeppelin/contracts/token/ERC20/utils/SafeERC20.sol\":4551:4561  returndata */\n      dup2\n        /* \"@openzeppelin/contracts/token/ERC20/utils/SafeERC20.sol\":4551:4568  returndata.length */\n      mload\n        /* \"@openzeppelin/contracts/token/ERC20/utils/SafeERC20.sol\":4551:4573  returndata.length != 0 */\n      eq\n      iszero\n        /* \"@openzeppelin/contracts/token/ERC20/utils/SafeERC20.sol\":4551:4608  returndata.length != 0 && !abi.decode(returndata, (bool)) */\n      dup1\n      iszero\n      tag_275\n      jumpi\n      pop\n        /* \"@openzeppelin/contracts/token/ERC20/utils/SafeERC20.sol\":4589:4599  returndata */\n      dup1\n        /* \"@openzeppelin/contracts/token/ERC20/utils/SafeERC20.sol\":4578:4608  abi.decode(returndata, (bool)) */\n      dup1\n      0x20\n      add\n      swap1\n      mload\n      dup2\n      add\n      swap1\n      tag_276\n      swap2\n      swap1\n      tag_277\n      jump\t// in\n    tag_276:\n        /* \"@openzeppelin/contracts/token/ERC20/utils/SafeERC20.sol\":4577:4608  !abi.decode(returndata, (bool)) */\n      iszero\n        /* \"@openzeppelin/contracts/token/ERC20/utils/SafeERC20.sol\":4551:4608  returndata.length != 0 && !abi.decode(returndata, (bool)) */\n    tag_275:\n        /* \"@openzeppelin/contracts/token/ERC20/utils/SafeERC20.sol\":4547:4682  if (returndata.length != 0 && !abi.decode(returndata, (bool))) {... */\n      iszero\n      tag_278\n      jumpi\n        /* \"@openzeppelin/contracts/token/ERC20/utils/SafeERC20.sol\":4664:4669  token */\n      dup3\n        /* \"@openzeppelin/contracts/token/ERC20/utils/SafeERC20.sol\":4631:4671  SafeERC20FailedOperation(address(token)) */\n      mload(0x40)\n      0x5274afe700000000000000000000000000000000000000000000000000000000\n      dup2\n      mstore\n      0x04\n      add\n      tag_279\n      swap2\n      swap1\n      tag_80\n      jump\t// in\n    tag_279:\n      mload(0x40)\n      dup1\n      swap2\n      sub\n      swap1\n      revert\n        /* \"@openzeppelin/contracts/token/ERC20/utils/SafeERC20.sol\":4547:4682  if (returndata.length != 0 && !abi.decode(returndata, (bool))) {... */\n    tag_278:\n        /* \"@openzeppelin/contracts/token/ERC20/utils/SafeERC20.sol\":4129:4688  {... */\n      pop\n        /* \"@openzeppelin/contracts/token/ERC20/utils/SafeERC20.sol\":4059:4688  function _callOptionalReturn(IERC20 token, bytes memory data) private {... */\n      pop\n      pop\n      jump\t// out\n        /* \"@openzeppelin/contracts/utils/Address.sol\":2705:2856  function functionCall(address target, bytes memory data) internal returns (bytes memory) {... */\n    tag_274:\n        /* \"@openzeppelin/contracts/utils/Address.sol\":2780:2792  bytes memory */\n      0x60\n        /* \"@openzeppelin/contracts/utils/Address.sol\":2811:2849  functionCallWithValue(target, data, 0) */\n      tag_281\n        /* \"@openzeppelin/contracts/utils/Address.sol\":2833:2839  target */\n      dup4\n        /* \"@openzeppelin/contracts/utils/Address.sol\":2841:2845  data */\n      dup4\n        /* \"@openzeppelin/contracts/utils/Address.sol\":2847:2848  0 */\n      0x00\n        /* \"@openzeppelin/contracts/utils/Address.sol\":2811:2832  functionCallWithValue */\n      tag_282\n        /* \"@openzeppelin/contracts/utils/Address.sol\":2811:2849  functionCallWithValue(target, data, 0) */\n      jump\t// in\n    tag_281:\n        /* \"@openzeppelin/contracts/utils/Address.sol\":2804:2849  return functionCallWithValue(target, data, 0) */\n      swap1\n      pop\n        /* \"@openzeppelin/contracts/utils/Address.sol\":2705:2856  function functionCall(address target, bytes memory data) internal returns (bytes memory) {... */\n      swap3\n      swap2\n      pop\n      pop\n      jump\t// out\n        /* \"@openzeppelin/contracts/utils/Address.sol\":3180:3572  function functionCallWithValue(address target, bytes memory data, uint256 value) internal returns (bytes memory) {... */\n    tag_282:\n        /* \"@openzeppelin/contracts/utils/Address.sol\":3279:3291  bytes memory */\n      0x60\n        /* \"@openzeppelin/contracts/utils/Address.sol\":3331:3336  value */\n      dup2\n        /* \"@openzeppelin/contracts/utils/Address.sol\":3307:3328  address(this).balance */\n      selfbalance\n        /* \"@openzeppelin/contracts/utils/Address.sol\":3307:3336  address(this).balance < value */\n      lt\n        /* \"@openzeppelin/contracts/utils/Address.sol\":3303:3411  if (address(this).balance < value) {... */\n      iszero\n      tag_284\n      jumpi\n        /* \"@openzeppelin/contracts/utils/Address.sol\":3394:3398  this */\n      address\n        /* \"@openzeppelin/contracts/utils/Address.sol\":3359:3400  AddressInsufficientBalance(address(this)) */\n      mload(0x40)\n      0xcd78605900000000000000000000000000000000000000000000000000000000\n      dup2\n      mstore\n      0x04\n      add\n      tag_285\n      swap2\n      swap1\n      tag_80\n      jump\t// in\n    tag_285:\n      mload(0x40)\n      dup1\n      swap2\n      sub\n      swap1\n      revert\n        /* \"@openzeppelin/contracts/utils/Address.sol\":3303:3411  if (address(this).balance < value) {... */\n    tag_284:\n        /* \"@openzeppelin/contracts/utils/Address.sol\":3421:3433  bool success */\n      0x00\n        /* \"@openzeppelin/contracts/utils/Address.sol\":3435:3458  bytes memory returndata */\n      0x00\n        /* \"@openzeppelin/contracts/utils/Address.sol\":3462:3468  target */\n      dup6\n        /* \"@openzeppelin/contracts/utils/Address.sol\":3462:3473  target.call */\n      0xffffffffffffffffffffffffffffffffffffffff\n      and\n        /* \"@openzeppelin/contracts/utils/Address.sol\":3481:3486  value */\n      dup5\n        /* \"@openzeppelin/contracts/utils/Address.sol\":3488:3492  data */\n      dup7\n        /* \"@openzeppelin/contracts/utils/Address.sol\":3462:3493  target.call{value: value}(data) */\n      mload(0x40)\n      tag_286\n      swap2\n      swap1\n      tag_248\n      jump\t// in\n    tag_286:\n      0x00\n      mload(0x40)\n      dup1\n      dup4\n      sub\n      dup2\n      dup6\n      dup8\n      gas\n      call\n      swap3\n      pop\n      pop\n      pop\n      returndatasize\n      dup1\n      0x00\n      dup2\n      eq\n      tag_289\n      jumpi\n      mload(0x40)\n      swap2\n      pop\n      and(add(returndatasize, 0x3f), not(0x1f))\n      dup3\n      add\n      0x40\n      mstore\n      returndatasize\n      dup3\n      mstore\n      returndatasize\n      0x00\n      0x20\n      dup5\n      add\n      returndatacopy\n      jump(tag_288)\n    tag_289:\n      0x60\n      swap2\n      pop\n    tag_288:\n      pop\n        /* \"@openzeppelin/contracts/utils/Address.sol\":3420:3493  (bool success, bytes memory returndata) = target.call{value: value}(data) */\n      swap2\n      pop\n      swap2\n      pop\n        /* \"@openzeppelin/contracts/utils/Address.sol\":3510:3565  verifyCallResultFromTarget(target, success, returndata) */\n      tag_290\n        /* \"@openzeppelin/contracts/utils/Address.sol\":3537:3543  target */\n      dup7\n        /* \"@openzeppelin/contracts/utils/Address.sol\":3545:3552  success */\n      dup4\n        /* \"@openzeppelin/contracts/utils/Address.sol\":3554:3564  returndata */\n      dup4\n        /* \"@openzeppelin/contracts/utils/Address.sol\":3510:3536  verifyCallResultFromTarget */\n      tag_291\n        /* \"@openzeppelin/contracts/utils/Address.sol\":3510:3565  verifyCallResultFromTarget(target, success, returndata) */\n      jump\t// in\n    tag_290:\n        /* \"@openzeppelin/contracts/utils/Address.sol\":3503:3565  return verifyCallResultFromTarget(target, success, returndata) */\n      swap3\n      pop\n      pop\n      pop\n        /* \"@openzeppelin/contracts/utils/Address.sol\":3180:3572  function functionCallWithValue(address target, bytes memory data, uint256 value) internal returns (bytes memory) {... */\n      swap4\n      swap3\n      pop\n      pop\n      pop\n      jump\t// out\n        /* \"@openzeppelin/contracts/utils/Address.sol\":4625:5207  function verifyCallResultFromTarget(... */\n    tag_291:\n        /* \"@openzeppelin/contracts/utils/Address.sol\":4769:4781  bytes memory */\n      0x60\n        /* \"@openzeppelin/contracts/utils/Address.sol\":4798:4805  success */\n      dup3\n        /* \"@openzeppelin/contracts/utils/Address.sol\":4793:5201  if (!success) {... */\n      tag_293\n      jumpi\n        /* \"@openzeppelin/contracts/utils/Address.sol\":4821:4840  _revert(returndata) */\n      tag_294\n        /* \"@openzeppelin/contracts/utils/Address.sol\":4829:4839  returndata */\n      dup3\n        /* \"@openzeppelin/contracts/utils/Address.sol\":4821:4828  _revert */\n      tag_295\n        /* \"@openzeppelin/contracts/utils/Address.sol\":4821:4840  _revert(returndata) */\n      jump\t// in\n    tag_294:\n        /* \"@openzeppelin/contracts/utils/Address.sol\":4793:5201  if (!success) {... */\n      jump(tag_296)\n    tag_293:\n        /* \"@openzeppelin/contracts/utils/Address.sol\":5066:5067  0 */\n      0x00\n        /* \"@openzeppelin/contracts/utils/Address.sol\":5045:5055  returndata */\n      dup3\n        /* \"@openzeppelin/contracts/utils/Address.sol\":5045:5062  returndata.length */\n      mload\n        /* \"@openzeppelin/contracts/utils/Address.sol\":5045:5067  returndata.length == 0 */\n      eq\n        /* \"@openzeppelin/contracts/utils/Address.sol\":5045:5094  returndata.length == 0 && target.code.length == 0 */\n      dup1\n      iszero\n      tag_297\n      jumpi\n      pop\n        /* \"@openzeppelin/contracts/utils/Address.sol\":5093:5094  0 */\n      0x00\n        /* \"@openzeppelin/contracts/utils/Address.sol\":5071:5077  target */\n      dup5\n        /* \"@openzeppelin/contracts/utils/Address.sol\":5071:5089  target.code.length */\n      0xffffffffffffffffffffffffffffffffffffffff\n      and\n      extcodesize\n        /* \"@openzeppelin/contracts/utils/Address.sol\":5071:5094  target.code.length == 0 */\n      eq\n        /* \"@openzeppelin/contracts/utils/Address.sol\":5045:5094  returndata.length == 0 && target.code.length == 0 */\n    tag_297:\n        /* \"@openzeppelin/contracts/utils/Address.sol\":5041:5160  if (returndata.length == 0 && target.code.length == 0) {... */\n      iszero\n      tag_298\n      jumpi\n        /* \"@openzeppelin/contracts/utils/Address.sol\":5138:5144  target */\n      dup4\n        /* \"@openzeppelin/contracts/utils/Address.sol\":5121:5145  AddressEmptyCode(target) */\n      mload(0x40)\n      0x9996b31500000000000000000000000000000000000000000000000000000000\n      dup2\n      mstore\n      0x04\n      add\n      tag_299\n      swap2\n      swap1\n      tag_80\n      jump\t// in\n    tag_299:\n      mload(0x40)\n      dup1\n      swap2\n      sub\n      swap1\n      revert\n        /* \"@openzeppelin/contracts/utils/Address.sol\":5041:5160  if (returndata.length == 0 && target.code.length == 0) {... */\n    tag_298:\n        /* \"@openzeppelin/contracts/utils/Address.sol\":5180:5190  returndata */\n      dup2\n        /* \"@openzeppelin/contracts/utils/Address.sol\":5173:5190  return returndata */\n      swap1\n      pop\n      jump(tag_292)\n        /* \"@openzeppelin/contracts/utils/Address.sol\":4793:5201  if (!success) {... */\n    tag_296:\n        /* \"@openzeppelin/contracts/utils/Address.sol\":4625:5207  function verifyCallResultFromTarget(... */\n    tag_292:\n      swap4\n      swap3\n      pop\n      pop\n      pop\n      jump\t// out\n        /* \"@openzeppelin/contracts/utils/Address.sol\":5743:6259  function _revert(bytes memory returndata) private pure {... */\n    tag_295:\n        /* \"@openzeppelin/contracts/utils/Address.sol\":5894:5895  0 */\n      0x00\n        /* \"@openzeppelin/contracts/utils/Address.sol\":5874:5884  returndata */\n      dup2\n        /* \"@openzeppelin/contracts/utils/Address.sol\":5874:5891  returndata.length */\n      mload\n        /* \"@openzeppelin/contracts/utils/Address.sol\":5874:5895  returndata.length > 0 */\n      gt\n        /* \"@openzeppelin/contracts/utils/Address.sol\":5870:6253  if (returndata.length > 0) {... */\n      iszero\n      tag_301\n      jumpi\n        /* \"@openzeppelin/contracts/utils/Address.sol\":6102:6112  returndata */\n      dup1\n        /* \"@openzeppelin/contracts/utils/Address.sol\":6096:6113  mload(returndata) */\n      mload\n        /* \"@openzeppelin/contracts/utils/Address.sol\":6158:6173  returndata_size */\n      dup1\n        /* \"@openzeppelin/contracts/utils/Address.sol\":6145:6155  returndata */\n      dup3\n        /* \"@openzeppelin/contracts/utils/Address.sol\":6141:6143  32 */\n      0x20\n        /* \"@openzeppelin/contracts/utils/Address.sol\":6137:6156  add(32, returndata) */\n      add\n        /* \"@openzeppelin/contracts/utils/Address.sol\":6130:6174  revert(add(32, returndata), returndata_size) */\n      revert\n        /* \"@openzeppelin/contracts/utils/Address.sol\":5870:6253  if (returndata.length > 0) {... */\n    tag_301:\n        /* \"@openzeppelin/contracts/utils/Address.sol\":6225:6242  FailedInnerCall() */\n      mload(0x40)\n      0x1425ea4200000000000000000000000000000000000000000000000000000000\n      dup2\n      mstore\n      0x04\n      add\n      mload(0x40)\n      dup1\n      swap2\n      sub\n      swap1\n      revert\n        /* \"#utility.yul\":7:106   */\n    tag_303:\n        /* \"#utility.yul\":59:65   */\n      0x00\n        /* \"#utility.yul\":93:98   */\n      dup2\n        /* \"#utility.yul\":87:99   */\n      mload\n        /* \"#utility.yul\":77:99   */\n      swap1\n      pop\n        /* \"#utility.yul\":7:106   */\n      swap2\n      swap1\n      pop\n      jump\t// out\n        /* \"#utility.yul\":112:281   */\n    tag_304:\n        /* \"#utility.yul\":196:207   */\n      0x00\n        /* \"#utility.yul\":230:236   */\n      dup3\n        /* \"#utility.yul\":225:228   */\n      dup3\n        /* \"#utility.yul\":218:237   */\n      mstore\n        /* \"#utility.yul\":270:274   */\n      0x20\n        /* \"#utility.yul\":265:268   */\n      dup3\n        /* \"#utility.yul\":261:275   */\n      add\n        /* \"#utility.yul\":246:275   */\n      swap1\n      pop\n        /* \"#utility.yul\":112:281   */\n      swap3\n      swap2\n      pop\n      pop\n      jump\t// out\n        /* \"#utility.yul\":287:426   */\n    tag_305:\n        /* \"#utility.yul\":376:382   */\n      dup3\n        /* \"#utility.yul\":371:374   */\n      dup2\n        /* \"#utility.yul\":366:369   */\n      dup4\n        /* \"#utility.yul\":360:383   */\n      mcopy\n        /* \"#utility.yul\":417:418   */\n      0x00\n        /* \"#utility.yul\":408:414   */\n      dup4\n        /* \"#utility.yul\":403:406   */\n      dup4\n        /* \"#utility.yul\":399:415   */\n      add\n        /* \"#utility.yul\":392:419   */\n      mstore\n        /* \"#utility.yul\":287:426   */\n      pop\n      pop\n      pop\n      jump\t// out\n        /* \"#utility.yul\":432:534   */\n    tag_306:\n        /* \"#utility.yul\":473:479   */\n      0x00\n        /* \"#utility.yul\":524:526   */\n      0x1f\n        /* \"#utility.yul\":520:527   */\n      not\n        /* \"#utility.yul\":515:517   */\n      0x1f\n        /* \"#utility.yul\":508:513   */\n      dup4\n        /* \"#utility.yul\":504:518   */\n      add\n        /* \"#utility.yul\":500:528   */\n      and\n        /* \"#utility.yul\":490:528   */\n      swap1\n      pop\n        /* \"#utility.yul\":432:534   */\n      swap2\n      swap1\n      pop\n      jump\t// out\n        /* \"#utility.yul\":540:917   */\n    tag_307:\n        /* \"#utility.yul\":628:631   */\n      0x00\n        /* \"#utility.yul\":656:695   */\n      tag_359\n        /* \"#utility.yul\":689:694   */\n      dup3\n        /* \"#utility.yul\":656:695   */\n      tag_303\n      jump\t// in\n    tag_359:\n        /* \"#utility.yul\":711:782   */\n      tag_360\n        /* \"#utility.yul\":775:781   */\n      dup2\n        /* \"#utility.yul\":770:773   */\n      dup6\n        /* \"#utility.yul\":711:782   */\n      tag_304\n      jump\t// in\n    tag_360:\n        /* \"#utility.yul\":704:782   */\n      swap4\n      pop\n        /* \"#utility.yul\":791:856   */\n      tag_361\n        /* \"#utility.yul\":849:855   */\n      dup2\n        /* \"#utility.yul\":844:847   */\n      dup6\n        /* \"#utility.yul\":837:841   */\n      0x20\n        /* \"#utility.yul\":830:835   */\n      dup7\n        /* \"#utility.yul\":826:842   */\n      add\n        /* \"#utility.yul\":791:856   */\n      tag_305\n      jump\t// in\n    tag_361:\n        /* \"#utility.yul\":881:910   */\n      tag_362\n        /* \"#utility.yul\":903:909   */\n      dup2\n        /* \"#utility.yul\":881:910   */\n      tag_306\n      jump\t// in\n    tag_362:\n        /* \"#utility.yul\":876:879   */\n      dup5\n        /* \"#utility.yul\":872:911   */\n      add\n        /* \"#utility.yul\":865:911   */\n      swap2\n      pop\n        /* \"#utility.yul\":632:917   */\n      pop\n        /* \"#utility.yul\":540:917   */\n      swap3\n      swap2\n      pop\n      pop\n      jump\t// out\n        /* \"#utility.yul\":923:1236   */\n    tag_28:\n        /* \"#utility.yul\":1036:1040   */\n      0x00\n        /* \"#utility.yul\":1074:1076   */\n      0x20\n        /* \"#utility.yul\":1063:1072   */\n      dup3\n        /* \"#utility.yul\":1059:1077   */\n      add\n        /* \"#utility.yul\":1051:1077   */\n      swap1\n      pop\n        /* \"#utility.yul\":1123:1132   */\n      dup2\n        /* \"#utility.yul\":1117:1121   */\n      dup2\n        /* \"#utility.yul\":1113:1133   */\n      sub\n        /* \"#utility.yul\":1109:1110   */\n      0x00\n        /* \"#utility.yul\":1098:1107   */\n      dup4\n        /* \"#utility.yul\":1094:1111   */\n      add\n        /* \"#utility.yul\":1087:1134   */\n      mstore\n        /* \"#utility.yul\":1151:1229   */\n      tag_364\n        /* \"#utility.yul\":1224:1228   */\n      dup2\n        /* \"#utility.yul\":1215:1221   */\n      dup5\n        /* \"#utility.yul\":1151:1229   */\n      tag_307\n      jump\t// in\n    tag_364:\n        /* \"#utility.yul\":1143:1229   */\n      swap1\n      pop\n        /* \"#utility.yul\":923:1236   */\n      swap3\n      swap2\n      pop\n      pop\n      jump\t// out\n        /* \"#utility.yul\":1323:1440   */\n    tag_309:\n        /* \"#utility.yul\":1432:1433   */\n      0x00\n        /* \"#utility.yul\":1429:1430   */\n      0x00\n        /* \"#utility.yul\":1422:1434   */\n      revert\n        /* \"#utility.yul\":1569:1695   */\n    tag_311:\n        /* \"#utility.yul\":1606:1613   */\n      0x00\n        /* \"#utility.yul\":1646:1688   */\n      0xffffffffffffffffffffffffffffffffffffffff\n        /* \"#utility.yul\":1639:1644   */\n      dup3\n        /* \"#utility.yul\":1635:1689   */\n      and\n        /* \"#utility.yul\":1624:1689   */\n      swap1\n      pop\n        /* \"#utility.yul\":1569:1695   */\n      swap2\n      swap1\n      pop\n      jump\t// out\n        /* \"#utility.yul\":1701:1797   */\n    tag_312:\n        /* \"#utility.yul\":1738:1745   */\n      0x00\n        /* \"#utility.yul\":1767:1791   */\n      tag_370\n        /* \"#utility.yul\":1785:1790   */\n      dup3\n        /* \"#utility.yul\":1767:1791   */\n      tag_311\n      jump\t// in\n    tag_370:\n        /* \"#utility.yul\":1756:1791   */\n      swap1\n      pop\n        /* \"#utility.yul\":1701:1797   */\n      swap2\n      swap1\n      pop\n      jump\t// out\n        /* \"#utility.yul\":1803:1925   */\n    tag_313:\n        /* \"#utility.yul\":1876:1900   */\n      tag_372\n        /* \"#utility.yul\":1894:1899   */\n      dup2\n        /* \"#utility.yul\":1876:1900   */\n      tag_312\n      jump\t// in\n    tag_372:\n        /* \"#utility.yul\":1869:1874   */\n      dup2\n        /* \"#utility.yul\":1866:1901   */\n      eq\n        /* \"#utility.yul\":1856:1919   */\n      tag_373\n      jumpi\n        /* \"#utility.yul\":1915:1916   */\n      0x00\n        /* \"#utility.yul\":1912:1913   */\n      0x00\n        /* \"#utility.yul\":1905:1917   */\n      revert\n        /* \"#utility.yul\":1856:1919   */\n    tag_373:\n        /* \"#utility.yul\":1803:1925   */\n      pop\n      jump\t// out\n        /* \"#utility.yul\":1931:2070   */\n    tag_314:\n        /* \"#utility.yul\":1977:1982   */\n      0x00\n        /* \"#utility.yul\":2015:2021   */\n      dup2\n        /* \"#utility.yul\":2002:2022   */\n      calldataload\n        /* \"#utility.yul\":1993:2022   */\n      swap1\n      pop\n        /* \"#utility.yul\":2031:2064   */\n      tag_375\n        /* \"#utility.yul\":2058:2063   */\n      dup2\n        /* \"#utility.yul\":2031:2064   */\n      tag_313\n      jump\t// in\n    tag_375:\n        /* \"#utility.yul\":1931:2070   */\n      swap3\n      swap2\n      pop\n      pop\n      jump\t// out\n        /* \"#utility.yul\":2076:2153   */\n    tag_315:\n        /* \"#utility.yul\":2113:2120   */\n      0x00\n        /* \"#utility.yul\":2142:2147   */\n      dup2\n        /* \"#utility.yul\":2131:2147   */\n      swap1\n      pop\n        /* \"#utility.yul\":2076:2153   */\n      swap2\n      swap1\n      pop\n      jump\t// out\n        /* \"#utility.yul\":2159:2281   */\n    tag_316:\n        /* \"#utility.yul\":2232:2256   */\n      tag_378\n        /* \"#utility.yul\":2250:2255   */\n      dup2\n        /* \"#utility.yul\":2232:2256   */\n      tag_315\n      jump\t// in\n    tag_378:\n        /* \"#utility.yul\":2225:2230   */\n      dup2\n        /* \"#utility.yul\":2222:2257   */\n      eq\n        /* \"#utility.yul\":2212:2275   */\n      tag_379\n      jumpi\n        /* \"#utility.yul\":2271:2272   */\n      0x00\n        /* \"#utility.yul\":2268:2269   */\n      0x00\n        /* \"#utility.yul\":2261:2273   */\n      revert\n        /* \"#utility.yul\":2212:2275   */\n    tag_379:\n        /* \"#utility.yul\":2159:2281   */\n      pop\n      jump\t// out\n        /* \"#utility.yul\":2287:2426   */\n    tag_317:\n        /* \"#utility.yul\":2333:2338   */\n      0x00\n        /* \"#utility.yul\":2371:2377   */\n      dup2\n        /* \"#utility.yul\":2358:2378   */\n      calldataload\n        /* \"#utility.yul\":2349:2378   */\n      swap1\n      pop\n        /* \"#utility.yul\":2387:2420   */\n      tag_381\n        /* \"#utility.yul\":2414:2419   */\n      dup2\n        /* \"#utility.yul\":2387:2420   */\n      tag_316\n      jump\t// in\n    tag_381:\n        /* \"#utility.yul\":2287:2426   */\n      swap3\n      swap2\n      pop\n      pop\n      jump\t// out\n        /* \"#utility.yul\":2432:2906   */\n    tag_32:\n        /* \"#utility.yul\":2500:2506   */\n      0x00\n        /* \"#utility.yul\":2508:2514   */\n      0x00\n        /* \"#utility.yul\":2557:2559   */\n      0x40\n        /* \"#utility.yul\":2545:2554   */\n      dup4\n        /* \"#utility.yul\":2536:2543   */\n      dup6\n        /* \"#utility.yul\":2532:2555   */\n      sub\n        /* \"#utility.yul\":2528:2560   */\n      slt\n        /* \"#utility.yul\":2525:2644   */\n      iszero\n      tag_383\n      jumpi\n        /* \"#utility.yul\":2563:2642   */\n      tag_384\n      tag_309\n      jump\t// in\n    tag_384:\n        /* \"#utility.yul\":2525:2644   */\n    tag_383:\n        /* \"#utility.yul\":2683:2684   */\n      0x00\n        /* \"#utility.yul\":2708:2761   */\n      tag_385\n        /* \"#utility.yul\":2753:2760   */\n      dup6\n        /* \"#utility.yul\":2744:2750   */\n      dup3\n        /* \"#utility.yul\":2733:2742   */\n      dup7\n        /* \"#utility.yul\":2729:2751   */\n      add\n        /* \"#utility.yul\":2708:2761   */\n      tag_314\n      jump\t// in\n    tag_385:\n        /* \"#utility.yul\":2698:2761   */\n      swap3\n      pop\n        /* \"#utility.yul\":2654:2771   */\n      pop\n        /* \"#utility.yul\":2810:2812   */\n      0x20\n        /* \"#utility.yul\":2836:2889   */\n      tag_386\n        /* \"#utility.yul\":2881:2888   */\n      dup6\n        /* \"#utility.yul\":2872:2878   */\n      dup3\n        /* \"#utility.yul\":2861:2870   */\n      dup7\n        /* \"#utility.yul\":2857:2879   */\n      add\n        /* \"#utility.yul\":2836:2889   */\n      tag_317\n      jump\t// in\n    tag_386:\n        /* \"#utility.yul\":2826:2889   */\n      swap2\n      pop\n        /* \"#utility.yul\":2781:2899   */\n      pop\n        /* \"#utility.yul\":2432:2906   */\n      swap3\n      pop\n      swap3\n      swap1\n      pop\n      jump\t// out\n        /* \"#utility.yul\":2912:3002   */\n    tag_318:\n        /* \"#utility.yul\":2946:2953   */\n      0x00\n        /* \"#utility.yul\":2989:2994   */\n      dup2\n        /* \"#utility.yul\":2982:2995   */\n      iszero\n        /* \"#utility.yul\":2975:2996   */\n      iszero\n        /* \"#utility.yul\":2964:2996   */\n      swap1\n      pop\n        /* \"#utility.yul\":2912:3002   */\n      swap2\n      swap1\n      pop\n      jump\t// out\n        /* \"#utility.yul\":3008:3117   */\n    tag_319:\n        /* \"#utility.yul\":3089:3110   */\n      tag_389\n        /* \"#utility.yul\":3104:3109   */\n      dup2\n        /* \"#utility.yul\":3089:3110   */\n      tag_318\n      jump\t// in\n    tag_389:\n        /* \"#utility.yul\":3084:3087   */\n      dup3\n        /* \"#utility.yul\":3077:3111   */\n      mstore\n        /* \"#utility.yul\":3008:3117   */\n      pop\n      pop\n      jump\t// out\n        /* \"#utility.yul\":3123:3333   */\n    tag_35:\n        /* \"#utility.yul\":3210:3214   */\n      0x00\n        /* \"#utility.yul\":3248:3250   */\n      0x20\n        /* \"#utility.yul\":3237:3246   */\n      dup3\n        /* \"#utility.yul\":3233:3251   */\n      add\n        /* \"#utility.yul\":3225:3251   */\n      swap1\n      pop\n        /* \"#utility.yul\":3261:3326   */\n      tag_391\n        /* \"#utility.yul\":3323:3324   */\n      0x00\n        /* \"#utility.yul\":3312:3321   */\n      dup4\n        /* \"#utility.yul\":3308:3325   */\n      add\n        /* \"#utility.yul\":3299:3305   */\n      dup5\n        /* \"#utility.yul\":3261:3326   */\n      tag_319\n      jump\t// in\n    tag_391:\n        /* \"#utility.yul\":3123:3333   */\n      swap3\n      swap2\n      pop\n      pop\n      jump\t// out\n        /* \"#utility.yul\":3339:3457   */\n    tag_320:\n        /* \"#utility.yul\":3426:3450   */\n      tag_393\n        /* \"#utility.yul\":3444:3449   */\n      dup2\n        /* \"#utility.yul\":3426:3450   */\n      tag_315\n      jump\t// in\n    tag_393:\n        /* \"#utility.yul\":3421:3424   */\n      dup3\n        /* \"#utility.yul\":3414:3451   */\n      mstore\n        /* \"#utility.yul\":3339:3457   */\n      pop\n      pop\n      jump\t// out\n        /* \"#utility.yul\":3463:3685   */\n    tag_40:\n        /* \"#utility.yul\":3556:3560   */\n      0x00\n        /* \"#utility.yul\":3594:3596   */\n      0x20\n        /* \"#utility.yul\":3583:3592   */\n      dup3\n        /* \"#utility.yul\":3579:3597   */\n      add\n        /* \"#utility.yul\":3571:3597   */\n      swap1\n      pop\n        /* \"#utility.yul\":3607:3678   */\n      tag_395\n        /* \"#utility.yul\":3675:3676   */\n      0x00\n        /* \"#utility.yul\":3664:3673   */\n      dup4\n        /* \"#utility.yul\":3660:3677   */\n      add\n        /* \"#utility.yul\":3651:3657   */\n      dup5\n        /* \"#utility.yul\":3607:3678   */\n      tag_320\n      jump\t// in\n    tag_395:\n        /* \"#utility.yul\":3463:3685   */\n      swap3\n      swap2\n      pop\n      pop\n      jump\t// out\n        /* \"#utility.yul\":3691:4310   */\n    tag_44:\n        /* \"#utility.yul\":3768:3774   */\n      0x00\n        /* \"#utility.yul\":3776:3782   */\n      0x00\n        /* \"#utility.yul\":3784:3790   */\n      0x00\n        /* \"#utility.yul\":3833:3835   */\n      0x60\n        /* \"#utility.yul\":3821:3830   */\n      dup5\n        /* \"#utility.yul\":3812:3819   */\n      dup7\n        /* \"#utility.yul\":3808:3831   */\n      sub\n        /* \"#utility.yul\":3804:3836   */\n      slt\n        /* \"#utility.yul\":3801:3920   */\n      iszero\n      tag_397\n      jumpi\n        /* \"#utility.yul\":3839:3918   */\n      tag_398\n      tag_309\n      jump\t// in\n    tag_398:\n        /* \"#utility.yul\":3801:3920   */\n    tag_397:\n        /* \"#utility.yul\":3959:3960   */\n      0x00\n        /* \"#utility.yul\":3984:4037   */\n      tag_399\n        /* \"#utility.yul\":4029:4036   */\n      dup7\n        /* \"#utility.yul\":4020:4026   */\n      dup3\n        /* \"#utility.yul\":4009:4018   */\n      dup8\n        /* \"#utility.yul\":4005:4027   */\n      add\n        /* \"#utility.yul\":3984:4037   */\n      tag_314\n      jump\t// in\n    tag_399:\n        /* \"#utility.yul\":3974:4037   */\n      swap4\n      pop\n        /* \"#utility.yul\":3930:4047   */\n      pop\n        /* \"#utility.yul\":4086:4088   */\n      0x20\n        /* \"#utility.yul\":4112:4165   */\n      tag_400\n        /* \"#utility.yul\":4157:4164   */\n      dup7\n        /* \"#utility.yul\":4148:4154   */\n      dup3\n        /* \"#utility.yul\":4137:4146   */\n      dup8\n        /* \"#utility.yul\":4133:4155   */\n      add\n        /* \"#utility.yul\":4112:4165   */\n      tag_314\n      jump\t// in\n    tag_400:\n        /* \"#utility.yul\":4102:4165   */\n      swap3\n      pop\n        /* \"#utility.yul\":4057:4175   */\n      pop\n        /* \"#utility.yul\":4214:4216   */\n      0x40\n        /* \"#utility.yul\":4240:4293   */\n      tag_401\n        /* \"#utility.yul\":4285:4292   */\n      dup7\n        /* \"#utility.yul\":4276:4282   */\n      dup3\n        /* \"#utility.yul\":4265:4274   */\n      dup8\n        /* \"#utility.yul\":4261:4283   */\n      add\n        /* \"#utility.yul\":4240:4293   */\n      tag_317\n      jump\t// in\n    tag_401:\n        /* \"#utility.yul\":4230:4293   */\n      swap2\n      pop\n        /* \"#utility.yul\":4185:4303   */\n      pop\n        /* \"#utility.yul\":3691:4310   */\n      swap3\n      pop\n      swap3\n      pop\n      swap3\n      jump\t// out\n        /* \"#utility.yul\":4316:4402   */\n    tag_321:\n        /* \"#utility.yul\":4351:4358   */\n      0x00\n        /* \"#utility.yul\":4391:4395   */\n      0xff\n        /* \"#utility.yul\":4384:4389   */\n      dup3\n        /* \"#utility.yul\":4380:4396   */\n      and\n        /* \"#utility.yul\":4369:4396   */\n      swap1\n      pop\n        /* \"#utility.yul\":4316:4402   */\n      swap2\n      swap1\n      pop\n      jump\t// out\n        /* \"#utility.yul\":4408:4520   */\n    tag_322:\n        /* \"#utility.yul\":4491:4513   */\n      tag_404\n        /* \"#utility.yul\":4507:4512   */\n      dup2\n        /* \"#utility.yul\":4491:4513   */\n      tag_321\n      jump\t// in\n    tag_404:\n        /* \"#utility.yul\":4486:4489   */\n      dup3\n        /* \"#utility.yul\":4479:4514   */\n      mstore\n        /* \"#utility.yul\":4408:4520   */\n      pop\n      pop\n      jump\t// out\n        /* \"#utility.yul\":4526:4740   */\n    tag_51:\n        /* \"#utility.yul\":4615:4619   */\n      0x00\n        /* \"#utility.yul\":4653:4655   */\n      0x20\n        /* \"#utility.yul\":4642:4651   */\n      dup3\n        /* \"#utility.yul\":4638:4656   */\n      add\n        /* \"#utility.yul\":4630:4656   */\n      swap1\n      pop\n        /* \"#utility.yul\":4666:4733   */\n      tag_406\n        /* \"#utility.yul\":4730:4731   */\n      0x00\n        /* \"#utility.yul\":4719:4728   */\n      dup4\n        /* \"#utility.yul\":4715:4732   */\n      add\n        /* \"#utility.yul\":4706:4712   */\n      dup5\n        /* \"#utility.yul\":4666:4733   */\n      tag_322\n      jump\t// in\n    tag_406:\n        /* \"#utility.yul\":4526:4740   */\n      swap3\n      swap2\n      pop\n      pop\n      jump\t// out\n        /* \"#utility.yul\":4746:4806   */\n    tag_323:\n        /* \"#utility.yul\":4774:4777   */\n      0x00\n        /* \"#utility.yul\":4795:4800   */\n      dup2\n        /* \"#utility.yul\":4788:4800   */\n      swap1\n      pop\n        /* \"#utility.yul\":4746:4806   */\n      swap2\n      swap1\n      pop\n      jump\t// out\n        /* \"#utility.yul\":4812:4954   */\n    tag_324:\n        /* \"#utility.yul\":4862:4871   */\n      0x00\n        /* \"#utility.yul\":4895:4948   */\n      tag_409\n        /* \"#utility.yul\":4913:4947   */\n      tag_410\n        /* \"#utility.yul\":4922:4946   */\n      tag_411\n        /* \"#utility.yul\":4940:4945   */\n      dup5\n        /* \"#utility.yul\":4922:4946   */\n      tag_311\n      jump\t// in\n    tag_411:\n        /* \"#utility.yul\":4913:4947   */\n      tag_323\n      jump\t// in\n    tag_410:\n        /* \"#utility.yul\":4895:4948   */\n      tag_311\n      jump\t// in\n    tag_409:\n        /* \"#utility.yul\":4882:4948   */\n      swap1\n      pop\n        /* \"#utility.yul\":4812:4954   */\n      swap2\n      swap1\n      pop\n      jump\t// out\n        /* \"#utility.yul\":4960:5086   */\n    tag_325:\n        /* \"#utility.yul\":5010:5019   */\n      0x00\n        /* \"#utility.yul\":5043:5080   */\n      tag_413\n        /* \"#utility.yul\":5074:5079   */\n      dup3\n        /* \"#utility.yul\":5043:5080   */\n      tag_324\n      jump\t// in\n    tag_413:\n        /* \"#utility.yul\":5030:5080   */\n      swap1\n      pop\n        /* \"#utility.yul\":4960:5086   */\n      swap2\n      swap1\n      pop\n      jump\t// out\n        /* \"#utility.yul\":5092:5232   */\n    tag_326:\n        /* \"#utility.yul\":5156:5165   */\n      0x00\n        /* \"#utility.yul\":5189:5226   */\n      tag_415\n        /* \"#utility.yul\":5220:5225   */\n      dup3\n        /* \"#utility.yul\":5189:5226   */\n      tag_325\n      jump\t// in\n    tag_415:\n        /* \"#utility.yul\":5176:5226   */\n      swap1\n      pop\n        /* \"#utility.yul\":5092:5232   */\n      swap2\n      swap1\n      pop\n      jump\t// out\n        /* \"#utility.yul\":5238:5397   */\n    tag_327:\n        /* \"#utility.yul\":5339:5390   */\n      tag_417\n        /* \"#utility.yul\":5384:5389   */\n      dup2\n        /* \"#utility.yul\":5339:5390   */\n      tag_326\n      jump\t// in\n    tag_417:\n        /* \"#utility.yul\":5334:5337   */\n      dup3\n        /* \"#utility.yul\":5327:5391   */\n      mstore\n        /* \"#utility.yul\":5238:5397   */\n      pop\n      pop\n      jump\t// out\n        /* \"#utility.yul\":5403:5653   */\n    tag_58:\n        /* \"#utility.yul\":5510:5514   */\n      0x00\n        /* \"#utility.yul\":5548:5550   */\n      0x20\n        /* \"#utility.yul\":5537:5546   */\n      dup3\n        /* \"#utility.yul\":5533:5551   */\n      add\n        /* \"#utility.yul\":5525:5551   */\n      swap1\n      pop\n        /* \"#utility.yul\":5561:5646   */\n      tag_419\n        /* \"#utility.yul\":5643:5644   */\n      0x00\n        /* \"#utility.yul\":5632:5641   */\n      dup4\n        /* \"#utility.yul\":5628:5645   */\n      add\n        /* \"#utility.yul\":5619:5625   */\n      dup5\n        /* \"#utility.yul\":5561:5646   */\n      tag_327\n      jump\t// in\n    tag_419:\n        /* \"#utility.yul\":5403:5653   */\n      swap3\n      swap2\n      pop\n      pop\n      jump\t// out\n        /* \"#utility.yul\":5659:5988   */\n    tag_65:\n        /* \"#utility.yul\":5718:5724   */\n      0x00\n        /* \"#utility.yul\":5767:5769   */\n      0x20\n        /* \"#utility.yul\":5755:5764   */\n      dup3\n        /* \"#utility.yul\":5746:5753   */\n      dup5\n        /* \"#utility.yul\":5742:5765   */\n      sub\n        /* \"#utility.yul\":5738:5770   */\n      slt\n        /* \"#utility.yul\":5735:5854   */\n      iszero\n      tag_421\n      jumpi\n        /* \"#utility.yul\":5773:5852   */\n      tag_422\n      tag_309\n      jump\t// in\n    tag_422:\n        /* \"#utility.yul\":5735:5854   */\n    tag_421:\n        /* \"#utility.yul\":5893:5894   */\n      0x00\n        /* \"#utility.yul\":5918:5971   */\n      tag_423\n        /* \"#utility.yul\":5963:5970   */\n      dup5\n        /* \"#utility.yul\":5954:5960   */\n      dup3\n        /* \"#utility.yul\":5943:5952   */\n      dup6\n        /* \"#utility.yul\":5939:5961   */\n      add\n        /* \"#utility.yul\":5918:5971   */\n      tag_314\n      jump\t// in\n    tag_423:\n        /* \"#utility.yul\":5908:5971   */\n      swap2\n      pop\n        /* \"#utility.yul\":5864:5981   */\n      pop\n        /* \"#utility.yul\":5659:5988   */\n      swap3\n      swap2\n      pop\n      pop\n      jump\t// out\n        /* \"#utility.yul\":5994:6323   */\n    tag_74:\n        /* \"#utility.yul\":6053:6059   */\n      0x00\n        /* \"#utility.yul\":6102:6104   */\n      0x20\n        /* \"#utility.yul\":6090:6099   */\n      dup3\n        /* \"#utility.yul\":6081:6088   */\n      dup5\n        /* \"#utility.yul\":6077:6100   */\n      sub\n        /* \"#utility.yul\":6073:6105   */\n      slt\n        /* \"#utility.yul\":6070:6189   */\n      iszero\n      tag_425\n      jumpi\n        /* \"#utility.yul\":6108:6187   */\n      tag_426\n      tag_309\n      jump\t// in\n    tag_426:\n        /* \"#utility.yul\":6070:6189   */\n    tag_425:\n        /* \"#utility.yul\":6228:6229   */\n      0x00\n        /* \"#utility.yul\":6253:6306   */\n      tag_427\n        /* \"#utility.yul\":6298:6305   */\n      dup5\n        /* \"#utility.yul\":6289:6295   */\n      dup3\n        /* \"#utility.yul\":6278:6287   */\n      dup6\n        /* \"#utility.yul\":6274:6296   */\n      add\n        /* \"#utility.yul\":6253:6306   */\n      tag_317\n      jump\t// in\n    tag_427:\n        /* \"#utility.yul\":6243:6306   */\n      swap2\n      pop\n        /* \"#utility.yul\":6199:6316   */\n      pop\n        /* \"#utility.yul\":5994:6323   */\n      swap3\n      swap2\n      pop\n      pop\n      jump\t// out\n        /* \"#utility.yul\":6329:6447   */\n    tag_328:\n        /* \"#utility.yul\":6416:6440   */\n      tag_429\n        /* \"#utility.yul\":6434:6439   */\n      dup2\n        /* \"#utility.yul\":6416:6440   */\n      tag_312\n      jump\t// in\n    tag_429:\n        /* \"#utility.yul\":6411:6414   */\n      dup3\n        /* \"#utility.yul\":6404:6441   */\n      mstore\n        /* \"#utility.yul\":6329:6447   */\n      pop\n      pop\n      jump\t// out\n        /* \"#utility.yul\":6453:6675   */\n    tag_80:\n        /* \"#utility.yul\":6546:6550   */\n      0x00\n        /* \"#utility.yul\":6584:6586   */\n      0x20\n        /* \"#utility.yul\":6573:6582   */\n      dup3\n        /* \"#utility.yul\":6569:6587   */\n      add\n        /* \"#utility.yul\":6561:6587   */\n      swap1\n      pop\n        /* \"#utility.yul\":6597:6668   */\n      tag_431\n        /* \"#utility.yul\":6665:6666   */\n      0x00\n        /* \"#utility.yul\":6654:6663   */\n      dup4\n        /* \"#utility.yul\":6650:6667   */\n      add\n        /* \"#utility.yul\":6641:6647   */\n      dup5\n        /* \"#utility.yul\":6597:6668   */\n      tag_328\n      jump\t// in\n    tag_431:\n        /* \"#utility.yul\":6453:6675   */\n      swap3\n      swap2\n      pop\n      pop\n      jump\t// out\n        /* \"#utility.yul\":6681:6799   */\n    tag_329:\n        /* \"#utility.yul\":6718:6725   */\n      0x00\n        /* \"#utility.yul\":6758:6792   */\n      0xffffffffffffffffffffffffffffffff\n        /* \"#utility.yul\":6751:6756   */\n      dup3\n        /* \"#utility.yul\":6747:6793   */\n      and\n        /* \"#utility.yul\":6736:6793   */\n      swap1\n      pop\n        /* \"#utility.yul\":6681:6799   */\n      swap2\n      swap1\n      pop\n      jump\t// out\n        /* \"#utility.yul\":6805:6923   */\n    tag_330:\n        /* \"#utility.yul\":6892:6916   */\n      tag_434\n        /* \"#utility.yul\":6910:6915   */\n      dup2\n        /* \"#utility.yul\":6892:6916   */\n      tag_329\n      jump\t// in\n    tag_434:\n        /* \"#utility.yul\":6887:6890   */\n      dup3\n        /* \"#utility.yul\":6880:6917   */\n      mstore\n        /* \"#utility.yul\":6805:6923   */\n      pop\n      pop\n      jump\t// out\n        /* \"#utility.yul\":6929:7151   */\n    tag_89:\n        /* \"#utility.yul\":7022:7026   */\n      0x00\n        /* \"#utility.yul\":7060:7062   */\n      0x20\n        /* \"#utility.yul\":7049:7058   */\n      dup3\n        /* \"#utility.yul\":7045:7063   */\n      add\n        /* \"#utility.yul\":7037:7063   */\n      swap1\n      pop\n        /* \"#utility.yul\":7073:7144   */\n      tag_436\n        /* \"#utility.yul\":7141:7142   */\n      0x00\n        /* \"#utility.yul\":7130:7139   */\n      dup4\n        /* \"#utility.yul\":7126:7143   */\n      add\n        /* \"#utility.yul\":7117:7123   */\n      dup5\n        /* \"#utility.yul\":7073:7144   */\n      tag_330\n      jump\t// in\n    tag_436:\n        /* \"#utility.yul\":6929:7151   */\n      swap3\n      swap2\n      pop\n      pop\n      jump\t// out\n        /* \"#utility.yul\":7157:7631   */\n    tag_98:\n        /* \"#utility.yul\":7225:7231   */\n      0x00\n        /* \"#utility.yul\":7233:7239   */\n      0x00\n        /* \"#utility.yul\":7282:7284   */\n      0x40\n        /* \"#utility.yul\":7270:7279   */\n      dup4\n        /* \"#utility.yul\":7261:7268   */\n      dup6\n        /* \"#utility.yul\":7257:7280   */\n      sub\n        /* \"#utility.yul\":7253:7285   */\n      slt\n        /* \"#utility.yul\":7250:7369   */\n      iszero\n      tag_438\n      jumpi\n        /* \"#utility.yul\":7288:7367   */\n      tag_439\n      tag_309\n      jump\t// in\n    tag_439:\n        /* \"#utility.yul\":7250:7369   */\n    tag_438:\n        /* \"#utility.yul\":7408:7409   */\n      0x00\n        /* \"#utility.yul\":7433:7486   */\n      tag_440\n        /* \"#utility.yul\":7478:7485   */\n      dup6\n        /* \"#utility.yul\":7469:7475   */\n      dup3\n        /* \"#utility.yul\":7458:7467   */\n      dup7\n        /* \"#utility.yul\":7454:7476   */\n      add\n        /* \"#utility.yul\":7433:7486   */\n      tag_314\n      jump\t// in\n    tag_440:\n        /* \"#utility.yul\":7423:7486   */\n      swap3\n      pop\n        /* \"#utility.yul\":7379:7496   */\n      pop\n        /* \"#utility.yul\":7535:7537   */\n      0x20\n        /* \"#utility.yul\":7561:7614   */\n      tag_441\n        /* \"#utility.yul\":7606:7613   */\n      dup6\n        /* \"#utility.yul\":7597:7603   */\n      dup3\n        /* \"#utility.yul\":7586:7595   */\n      dup7\n        /* \"#utility.yul\":7582:7604   */\n      add\n        /* \"#utility.yul\":7561:7614   */\n      tag_314\n      jump\t// in\n    tag_441:\n        /* \"#utility.yul\":7551:7614   */\n      swap2\n      pop\n        /* \"#utility.yul\":7506:7624   */\n      pop\n        /* \"#utility.yul\":7157:7631   */\n      swap3\n      pop\n      swap3\n      swap1\n      pop\n      jump\t// out\n        /* \"#utility.yul\":7637:7746   */\n    tag_331:\n        /* \"#utility.yul\":7673:7680   */\n      0x00\n        /* \"#utility.yul\":7713:7739   */\n      0xffffffffffffffffffffffff\n        /* \"#utility.yul\":7706:7711   */\n      dup3\n        /* \"#utility.yul\":7702:7740   */\n      and\n        /* \"#utility.yul\":7691:7740   */\n      swap1\n      pop\n        /* \"#utility.yul\":7637:7746   */\n      swap2\n      swap1\n      pop\n      jump\t// out\n        /* \"#utility.yul\":7752:7867   */\n    tag_332:\n        /* \"#utility.yul\":7837:7860   */\n      tag_444\n        /* \"#utility.yul\":7854:7859   */\n      dup2\n        /* \"#utility.yul\":7837:7860   */\n      tag_331\n      jump\t// in\n    tag_444:\n        /* \"#utility.yul\":7832:7835   */\n      dup3\n        /* \"#utility.yul\":7825:7861   */\n      mstore\n        /* \"#utility.yul\":7752:7867   */\n      pop\n      pop\n      jump\t// out\n        /* \"#utility.yul\":7873:8091   */\n    tag_105:\n        /* \"#utility.yul\":7964:7968   */\n      0x00\n        /* \"#utility.yul\":8002:8004   */\n      0x20\n        /* \"#utility.yul\":7991:8000   */\n      dup3\n        /* \"#utility.yul\":7987:8005   */\n      add\n        /* \"#utility.yul\":7979:8005   */\n      swap1\n      pop\n        /* \"#utility.yul\":8015:8084   */\n      tag_446\n        /* \"#utility.yul\":8081:8082   */\n      0x00\n        /* \"#utility.yul\":8070:8079   */\n      dup4\n        /* \"#utility.yul\":8066:8083   */\n      add\n        /* \"#utility.yul\":8057:8063   */\n      dup5\n        /* \"#utility.yul\":8015:8084   */\n      tag_332\n      jump\t// in\n    tag_446:\n        /* \"#utility.yul\":7873:8091   */\n      swap3\n      swap2\n      pop\n      pop\n      jump\t// out\n        /* \"#utility.yul\":8097:8190   */\n    tag_333:\n        /* \"#utility.yul\":8133:8140   */\n      0x00\n        /* \"#utility.yul\":8173:8183   */\n      0xffffffff\n        /* \"#utility.yul\":8166:8171   */\n      dup3\n        /* \"#utility.yul\":8162:8184   */\n      and\n        /* \"#utility.yul\":8151:8184   */\n      swap1\n      pop\n        /* \"#utility.yul\":8097:8190   */\n      swap2\n      swap1\n      pop\n      jump\t// out\n        /* \"#utility.yul\":8196:8311   */\n    tag_334:\n        /* \"#utility.yul\":8281:8304   */\n      tag_449\n        /* \"#utility.yul\":8298:8303   */\n      dup2\n        /* \"#utility.yul\":8281:8304   */\n      tag_333\n      jump\t// in\n    tag_449:\n        /* \"#utility.yul\":8276:8279   */\n      dup3\n        /* \"#utility.yul\":8269:8305   */\n      mstore\n        /* \"#utility.yul\":8196:8311   */\n      pop\n      pop\n      jump\t// out\n        /* \"#utility.yul\":8317:8535   */\n    tag_114:\n        /* \"#utility.yul\":8408:8412   */\n      0x00\n        /* \"#utility.yul\":8446:8448   */\n      0x20\n        /* \"#utility.yul\":8435:8444   */\n      dup3\n        /* \"#utility.yul\":8431:8449   */\n      add\n        /* \"#utility.yul\":8423:8449   */\n      swap1\n      pop\n        /* \"#utility.yul\":8459:8528   */\n      tag_451\n        /* \"#utility.yul\":8525:8526   */\n      0x00\n        /* \"#utility.yul\":8514:8523   */\n      dup4\n        /* \"#utility.yul\":8510:8527   */\n      add\n        /* \"#utility.yul\":8501:8507   */\n      dup5\n        /* \"#utility.yul\":8459:8528   */\n      tag_334\n      jump\t// in\n    tag_451:\n        /* \"#utility.yul\":8317:8535   */\n      swap3\n      swap2\n      pop\n      pop\n      jump\t// out\n        /* \"#utility.yul\":8541:8721   */\n    tag_335:\n        /* \"#utility.yul\":8589:8666   */\n      0x4e487b7100000000000000000000000000000000000000000000000000000000\n        /* \"#utility.yul\":8586:8587   */\n      0x00\n        /* \"#utility.yul\":8579:8667   */\n      mstore\n        /* \"#utility.yul\":8686:8690   */\n      0x22\n        /* \"#utility.yul\":8683:8684   */\n      0x04\n        /* \"#utility.yul\":8676:8691   */\n      mstore\n        /* \"#utility.yul\":8710:8714   */\n      0x24\n        /* \"#utility.yul\":8707:8708   */\n      0x00\n        /* \"#utility.yul\":8700:8715   */\n      revert\n        /* \"#utility.yul\":8727:9047   */\n    tag_117:\n        /* \"#utility.yul\":8771:8777   */\n      0x00\n        /* \"#utility.yul\":8808:8809   */\n      0x02\n        /* \"#utility.yul\":8802:8806   */\n      dup3\n        /* \"#utility.yul\":8798:8810   */\n      div\n        /* \"#utility.yul\":8788:8810   */\n      swap1\n      pop\n        /* \"#utility.yul\":8855:8856   */\n      0x01\n        /* \"#utility.yul\":8849:8853   */\n      dup3\n        /* \"#utility.yul\":8845:8857   */\n      and\n        /* \"#utility.yul\":8876:8894   */\n      dup1\n        /* \"#utility.yul\":8866:8947   */\n      tag_454\n      jumpi\n        /* \"#utility.yul\":8932:8936   */\n      0x7f\n        /* \"#utility.yul\":8924:8930   */\n      dup3\n        /* \"#utility.yul\":8920:8937   */\n      and\n        /* \"#utility.yul\":8910:8937   */\n      swap2\n      pop\n        /* \"#utility.yul\":8866:8947   */\n    tag_454:\n        /* \"#utility.yul\":8994:8996   */\n      0x20\n        /* \"#utility.yul\":8986:8992   */\n      dup3\n        /* \"#utility.yul\":8983:8997   */\n      lt\n        /* \"#utility.yul\":8963:8981   */\n      dup2\n        /* \"#utility.yul\":8960:8998   */\n      sub\n        /* \"#utility.yul\":8957:9041   */\n      tag_455\n      jumpi\n        /* \"#utility.yul\":9013:9031   */\n      tag_456\n      tag_335\n      jump\t// in\n    tag_456:\n        /* \"#utility.yul\":8957:9041   */\n    tag_455:\n        /* \"#utility.yul\":8778:9047   */\n      pop\n        /* \"#utility.yul\":8727:9047   */\n      swap2\n      swap1\n      pop\n      jump\t// out\n        /* \"#utility.yul\":9053:9222   */\n    tag_336:\n        /* \"#utility.yul\":9193:9214   */\n      0x6574682076616c75652063616e74206265203000000000000000000000000000\n        /* \"#utility.yul\":9189:9190   */\n      0x00\n        /* \"#utility.yul\":9181:9187   */\n      dup3\n        /* \"#utility.yul\":9177:9191   */\n      add\n        /* \"#utility.yul\":9170:9215   */\n      mstore\n        /* \"#utility.yul\":9053:9222   */\n      pop\n      jump\t// out\n        /* \"#utility.yul\":9228:9594   */\n    tag_337:\n        /* \"#utility.yul\":9370:9373   */\n      0x00\n        /* \"#utility.yul\":9391:9458   */\n      tag_459\n        /* \"#utility.yul\":9455:9457   */\n      0x13\n        /* \"#utility.yul\":9450:9453   */\n      dup4\n        /* \"#utility.yul\":9391:9458   */\n      tag_304\n      jump\t// in\n    tag_459:\n        /* \"#utility.yul\":9384:9458   */\n      swap2\n      pop\n        /* \"#utility.yul\":9467:9560   */\n      tag_460\n        /* \"#utility.yul\":9556:9559   */\n      dup3\n        /* \"#utility.yul\":9467:9560   */\n      tag_336\n      jump\t// in\n    tag_460:\n        /* \"#utility.yul\":9585:9587   */\n      0x20\n        /* \"#utility.yul\":9580:9583   */\n      dup3\n        /* \"#utility.yul\":9576:9588   */\n      add\n        /* \"#utility.yul\":9569:9588   */\n      swap1\n      pop\n        /* \"#utility.yul\":9228:9594   */\n      swap2\n      swap1\n      pop\n      jump\t// out\n        /* \"#utility.yul\":9600:10019   */\n    tag_141:\n        /* \"#utility.yul\":9766:9770   */\n      0x00\n        /* \"#utility.yul\":9804:9806   */\n      0x20\n        /* \"#utility.yul\":9793:9802   */\n      dup3\n        /* \"#utility.yul\":9789:9807   */\n      add\n        /* \"#utility.yul\":9781:9807   */\n      swap1\n      pop\n        /* \"#utility.yul\":9853:9862   */\n      dup2\n        /* \"#utility.yul\":9847:9851   */\n      dup2\n        /* \"#utility.yul\":9843:9863   */\n      sub\n        /* \"#utility.yul\":9839:9840   */\n      0x00\n        /* \"#utility.yul\":9828:9837   */\n      dup4\n        /* \"#utility.yul\":9824:9841   */\n      add\n        /* \"#utility.yul\":9817:9864   */\n      mstore\n        /* \"#utility.yul\":9881:10012   */\n      tag_462\n        /* \"#utility.yul\":10007:10011   */\n      dup2\n        /* \"#utility.yul\":9881:10012   */\n      tag_337\n      jump\t// in\n    tag_462:\n        /* \"#utility.yul\":9873:10012   */\n      swap1\n      pop\n        /* \"#utility.yul\":9600:10019   */\n      swap2\n      swap1\n      pop\n      jump\t// out\n        /* \"#utility.yul\":10025:10205   */\n    tag_338:\n        /* \"#utility.yul\":10073:10150   */\n      0x4e487b7100000000000000000000000000000000000000000000000000000000\n        /* \"#utility.yul\":10070:10071   */\n      0x00\n        /* \"#utility.yul\":10063:10151   */\n      mstore\n        /* \"#utility.yul\":10170:10174   */\n      0x11\n        /* \"#utility.yul\":10167:10168   */\n      0x04\n        /* \"#utility.yul\":10160:10175   */\n      mstore\n        /* \"#utility.yul\":10194:10198   */\n      0x24\n        /* \"#utility.yul\":10191:10192   */\n      0x00\n        /* \"#utility.yul\":10184:10199   */\n      revert\n        /* \"#utility.yul\":10211:10424   */\n    tag_148:\n        /* \"#utility.yul\":10250:10253   */\n      0x00\n        /* \"#utility.yul\":10269:10288   */\n      tag_465\n        /* \"#utility.yul\":10286:10287   */\n      dup3\n        /* \"#utility.yul\":10269:10288   */\n      tag_331\n      jump\t// in\n    tag_465:\n        /* \"#utility.yul\":10264:10288   */\n      swap2\n      pop\n        /* \"#utility.yul\":10302:10321   */\n      tag_466\n        /* \"#utility.yul\":10319:10320   */\n      dup4\n        /* \"#utility.yul\":10302:10321   */\n      tag_331\n      jump\t// in\n    tag_466:\n        /* \"#utility.yul\":10297:10321   */\n      swap3\n      pop\n        /* \"#utility.yul\":10344:10345   */\n      dup3\n        /* \"#utility.yul\":10341:10342   */\n      dup3\n        /* \"#utility.yul\":10337:10346   */\n      add\n        /* \"#utility.yul\":10330:10346   */\n      swap1\n      pop\n        /* \"#utility.yul\":10367:10393   */\n      0xffffffffffffffffffffffff\n        /* \"#utility.yul\":10362:10365   */\n      dup2\n        /* \"#utility.yul\":10359:10394   */\n      gt\n        /* \"#utility.yul\":10356:10417   */\n      iszero\n      tag_467\n      jumpi\n        /* \"#utility.yul\":10397:10415   */\n      tag_468\n      tag_338\n      jump\t// in\n    tag_468:\n        /* \"#utility.yul\":10356:10417   */\n    tag_467:\n        /* \"#utility.yul\":10211:10424   */\n      swap3\n      swap2\n      pop\n      pop\n      jump\t// out\n        /* \"#utility.yul\":10430:10594   */\n    tag_339:\n        /* \"#utility.yul\":10570:10586   */\n      0x6e6f742065787069726520796574000000000000000000000000000000000000\n        /* \"#utility.yul\":10566:10567   */\n      0x00\n        /* \"#utility.yul\":10558:10564   */\n      dup3\n        /* \"#utility.yul\":10554:10568   */\n      add\n        /* \"#utility.yul\":10547:10587   */\n      mstore\n        /* \"#utility.yul\":10430:10594   */\n      pop\n      jump\t// out\n        /* \"#utility.yul\":10600:10966   */\n    tag_340:\n        /* \"#utility.yul\":10742:10745   */\n      0x00\n        /* \"#utility.yul\":10763:10830   */\n      tag_471\n        /* \"#utility.yul\":10827:10829   */\n      0x0e\n        /* \"#utility.yul\":10822:10825   */\n      dup4\n        /* \"#utility.yul\":10763:10830   */\n      tag_304\n      jump\t// in\n    tag_471:\n        /* \"#utility.yul\":10756:10830   */\n      swap2\n      pop\n        /* \"#utility.yul\":10839:10932   */\n      tag_472\n        /* \"#utility.yul\":10928:10931   */\n      dup3\n        /* \"#utility.yul\":10839:10932   */\n      tag_339\n      jump\t// in\n    tag_472:\n        /* \"#utility.yul\":10957:10959   */\n      0x20\n        /* \"#utility.yul\":10952:10955   */\n      dup3\n        /* \"#utility.yul\":10948:10960   */\n      add\n        /* \"#utility.yul\":10941:10960   */\n      swap1\n      pop\n        /* \"#utility.yul\":10600:10966   */\n      swap2\n      swap1\n      pop\n      jump\t// out\n        /* \"#utility.yul\":10972:11391   */\n    tag_151:\n        /* \"#utility.yul\":11138:11142   */\n      0x00\n        /* \"#utility.yul\":11176:11178   */\n      0x20\n        /* \"#utility.yul\":11165:11174   */\n      dup3\n        /* \"#utility.yul\":11161:11179   */\n      add\n        /* \"#utility.yul\":11153:11179   */\n      swap1\n      pop\n        /* \"#utility.yul\":11225:11234   */\n      dup2\n        /* \"#utility.yul\":11219:11223   */\n      dup2\n        /* \"#utility.yul\":11215:11235   */\n      sub\n        /* \"#utility.yul\":11211:11212   */\n      0x00\n        /* \"#utility.yul\":11200:11209   */\n      dup4\n        /* \"#utility.yul\":11196:11213   */\n      add\n        /* \"#utility.yul\":11189:11236   */\n      mstore\n        /* \"#utility.yul\":11253:11384   */\n      tag_474\n        /* \"#utility.yul\":11379:11383   */\n      dup2\n        /* \"#utility.yul\":11253:11384   */\n      tag_340\n      jump\t// in\n    tag_474:\n        /* \"#utility.yul\":11245:11384   */\n      swap1\n      pop\n        /* \"#utility.yul\":10972:11391   */\n      swap2\n      swap1\n      pop\n      jump\t// out\n        /* \"#utility.yul\":11397:11540   */\n    tag_341:\n        /* \"#utility.yul\":11454:11459   */\n      0x00\n        /* \"#utility.yul\":11485:11491   */\n      dup2\n        /* \"#utility.yul\":11479:11492   */\n      mload\n        /* \"#utility.yul\":11470:11492   */\n      swap1\n      pop\n        /* \"#utility.yul\":11501:11534   */\n      tag_476\n        /* \"#utility.yul\":11528:11533   */\n      dup2\n        /* \"#utility.yul\":11501:11534   */\n      tag_316\n      jump\t// in\n    tag_476:\n        /* \"#utility.yul\":11397:11540   */\n      swap3\n      swap2\n      pop\n      pop\n      jump\t// out\n        /* \"#utility.yul\":11546:11897   */\n    tag_157:\n        /* \"#utility.yul\":11616:11622   */\n      0x00\n        /* \"#utility.yul\":11665:11667   */\n      0x20\n        /* \"#utility.yul\":11653:11662   */\n      dup3\n        /* \"#utility.yul\":11644:11651   */\n      dup5\n        /* \"#utility.yul\":11640:11663   */\n      sub\n        /* \"#utility.yul\":11636:11668   */\n      slt\n        /* \"#utility.yul\":11633:11752   */\n      iszero\n      tag_478\n      jumpi\n        /* \"#utility.yul\":11671:11750   */\n      tag_479\n      tag_309\n      jump\t// in\n    tag_479:\n        /* \"#utility.yul\":11633:11752   */\n    tag_478:\n        /* \"#utility.yul\":11791:11792   */\n      0x00\n        /* \"#utility.yul\":11816:11880   */\n      tag_480\n        /* \"#utility.yul\":11872:11879   */\n      dup5\n        /* \"#utility.yul\":11863:11869   */\n      dup3\n        /* \"#utility.yul\":11852:11861   */\n      dup6\n        /* \"#utility.yul\":11848:11870   */\n      add\n        /* \"#utility.yul\":11816:11880   */\n      tag_341\n      jump\t// in\n    tag_480:\n        /* \"#utility.yul\":11806:11880   */\n      swap2\n      pop\n        /* \"#utility.yul\":11762:11890   */\n      pop\n        /* \"#utility.yul\":11546:11897   */\n      swap3\n      swap2\n      pop\n      pop\n      jump\t// out\n        /* \"#utility.yul\":11903:12077   */\n    tag_342:\n        /* \"#utility.yul\":12043:12069   */\n      0x6e6f7420696e20736574746c652074696d652072616e67650000000000000000\n        /* \"#utility.yul\":12039:12040   */\n      0x00\n        /* \"#utility.yul\":12031:12037   */\n      dup3\n        /* \"#utility.yul\":12027:12041   */\n      add\n        /* \"#utility.yul\":12020:12070   */\n      mstore\n        /* \"#utility.yul\":11903:12077   */\n      pop\n      jump\t// out\n        /* \"#utility.yul\":12083:12449   */\n    tag_343:\n        /* \"#utility.yul\":12225:12228   */\n      0x00\n        /* \"#utility.yul\":12246:12313   */\n      tag_483\n        /* \"#utility.yul\":12310:12312   */\n      0x18\n        /* \"#utility.yul\":12305:12308   */\n      dup4\n        /* \"#utility.yul\":12246:12313   */\n      tag_304\n      jump\t// in\n    tag_483:\n        /* \"#utility.yul\":12239:12313   */\n      swap2\n      pop\n        /* \"#utility.yul\":12322:12415   */\n      tag_484\n        /* \"#utility.yul\":12411:12414   */\n      dup3\n        /* \"#utility.yul\":12322:12415   */\n      tag_342\n      jump\t// in\n    tag_484:\n        /* \"#utility.yul\":12440:12442   */\n      0x20\n        /* \"#utility.yul\":12435:12438   */\n      dup3\n        /* \"#utility.yul\":12431:12443   */\n      add\n        /* \"#utility.yul\":12424:12443   */\n      swap1\n      pop\n        /* \"#utility.yul\":12083:12449   */\n      swap2\n      swap1\n      pop\n      jump\t// out\n        /* \"#utility.yul\":12455:12874   */\n    tag_170:\n        /* \"#utility.yul\":12621:12625   */\n      0x00\n        /* \"#utility.yul\":12659:12661   */\n      0x20\n        /* \"#utility.yul\":12648:12657   */\n      dup3\n        /* \"#utility.yul\":12644:12662   */\n      add\n        /* \"#utility.yul\":12636:12662   */\n      swap1\n      pop\n        /* \"#utility.yul\":12708:12717   */\n      dup2\n        /* \"#utility.yul\":12702:12706   */\n      dup2\n        /* \"#utility.yul\":12698:12718   */\n      sub\n        /* \"#utility.yul\":12694:12695   */\n      0x00\n        /* \"#utility.yul\":12683:12692   */\n      dup4\n        /* \"#utility.yul\":12679:12696   */\n      add\n        /* \"#utility.yul\":12672:12719   */\n      mstore\n        /* \"#utility.yul\":12736:12867   */\n      tag_486\n        /* \"#utility.yul\":12862:12866   */\n      dup2\n        /* \"#utility.yul\":12736:12867   */\n      tag_343\n      jump\t// in\n    tag_486:\n        /* \"#utility.yul\":12728:12867   */\n      swap1\n      pop\n        /* \"#utility.yul\":12455:12874   */\n      swap2\n      swap1\n      pop\n      jump\t// out\n        /* \"#utility.yul\":12880:13051   */\n    tag_344:\n        /* \"#utility.yul\":13020:13043   */\n      0x616d6f756e74206d757374203e2062616c616e63650000000000000000000000\n        /* \"#utility.yul\":13016:13017   */\n      0x00\n        /* \"#utility.yul\":13008:13014   */\n      dup3\n        /* \"#utility.yul\":13004:13018   */\n      add\n        /* \"#utility.yul\":12997:13044   */\n      mstore\n        /* \"#utility.yul\":12880:13051   */\n      pop\n      jump\t// out\n        /* \"#utility.yul\":13057:13423   */\n    tag_345:\n        /* \"#utility.yul\":13199:13202   */\n      0x00\n        /* \"#utility.yul\":13220:13287   */\n      tag_489\n        /* \"#utility.yul\":13284:13286   */\n      0x15\n        /* \"#utility.yul\":13279:13282   */\n      dup4\n        /* \"#utility.yul\":13220:13287   */\n      tag_304\n      jump\t// in\n    tag_489:\n        /* \"#utility.yul\":13213:13287   */\n      swap2\n      pop\n        /* \"#utility.yul\":13296:13389   */\n      tag_490\n        /* \"#utility.yul\":13385:13388   */\n      dup3\n        /* \"#utility.yul\":13296:13389   */\n      tag_344\n      jump\t// in\n    tag_490:\n        /* \"#utility.yul\":13414:13416   */\n      0x20\n        /* \"#utility.yul\":13409:13412   */\n      dup3\n        /* \"#utility.yul\":13405:13417   */\n      add\n        /* \"#utility.yul\":13398:13417   */\n      swap1\n      pop\n        /* \"#utility.yul\":13057:13423   */\n      swap2\n      swap1\n      pop\n      jump\t// out\n        /* \"#utility.yul\":13429:13848   */\n    tag_174:\n        /* \"#utility.yul\":13595:13599   */\n      0x00\n        /* \"#utility.yul\":13633:13635   */\n      0x20\n        /* \"#utility.yul\":13622:13631   */\n      dup3\n        /* \"#utility.yul\":13618:13636   */\n      add\n        /* \"#utility.yul\":13610:13636   */\n      swap1\n      pop\n        /* \"#utility.yul\":13682:13691   */\n      dup2\n        /* \"#utility.yul\":13676:13680   */\n      dup2\n        /* \"#utility.yul\":13672:13692   */\n      sub\n        /* \"#utility.yul\":13668:13669   */\n      0x00\n        /* \"#utility.yul\":13657:13666   */\n      dup4\n        /* \"#utility.yul\":13653:13670   */\n      add\n        /* \"#utility.yul\":13646:13693   */\n      mstore\n        /* \"#utility.yul\":13710:13841   */\n      tag_492\n        /* \"#utility.yul\":13836:13840   */\n      dup2\n        /* \"#utility.yul\":13710:13841   */\n      tag_345\n      jump\t// in\n    tag_492:\n        /* \"#utility.yul\":13702:13841   */\n      swap1\n      pop\n        /* \"#utility.yul\":13429:13848   */\n      swap2\n      swap1\n      pop\n      jump\t// out\n        /* \"#utility.yul\":13854:14264   */\n    tag_179:\n        /* \"#utility.yul\":13894:13901   */\n      0x00\n        /* \"#utility.yul\":13917:13937   */\n      tag_494\n        /* \"#utility.yul\":13935:13936   */\n      dup3\n        /* \"#utility.yul\":13917:13937   */\n      tag_315\n      jump\t// in\n    tag_494:\n        /* \"#utility.yul\":13912:13937   */\n      swap2\n      pop\n        /* \"#utility.yul\":13951:13971   */\n      tag_495\n        /* \"#utility.yul\":13969:13970   */\n      dup4\n        /* \"#utility.yul\":13951:13971   */\n      tag_315\n      jump\t// in\n    tag_495:\n        /* \"#utility.yul\":13946:13971   */\n      swap3\n      pop\n        /* \"#utility.yul\":14006:14007   */\n      dup3\n        /* \"#utility.yul\":14003:14004   */\n      dup3\n        /* \"#utility.yul\":13999:14008   */\n      mul\n        /* \"#utility.yul\":14028:14058   */\n      tag_496\n        /* \"#utility.yul\":14046:14057   */\n      dup2\n        /* \"#utility.yul\":14028:14058   */\n      tag_315\n      jump\t// in\n    tag_496:\n        /* \"#utility.yul\":14017:14058   */\n      swap2\n      pop\n        /* \"#utility.yul\":14207:14208   */\n      dup3\n        /* \"#utility.yul\":14198:14205   */\n      dup3\n        /* \"#utility.yul\":14194:14209   */\n      div\n        /* \"#utility.yul\":14191:14192   */\n      dup5\n        /* \"#utility.yul\":14188:14210   */\n      eq\n        /* \"#utility.yul\":14168:14169   */\n      dup4\n        /* \"#utility.yul\":14161:14170   */\n      iszero\n        /* \"#utility.yul\":14141:14224   */\n      or\n        /* \"#utility.yul\":14118:14257   */\n      tag_497\n      jumpi\n        /* \"#utility.yul\":14237:14255   */\n      tag_498\n      tag_338\n      jump\t// in\n    tag_498:\n        /* \"#utility.yul\":14118:14257   */\n    tag_497:\n        /* \"#utility.yul\":13902:14264   */\n      pop\n        /* \"#utility.yul\":13854:14264   */\n      swap3\n      swap2\n      pop\n      pop\n      jump\t// out\n        /* \"#utility.yul\":14270:14712   */\n    tag_209:\n        /* \"#utility.yul\":14419:14423   */\n      0x00\n        /* \"#utility.yul\":14457:14459   */\n      0x60\n        /* \"#utility.yul\":14446:14455   */\n      dup3\n        /* \"#utility.yul\":14442:14460   */\n      add\n        /* \"#utility.yul\":14434:14460   */\n      swap1\n      pop\n        /* \"#utility.yul\":14470:14541   */\n      tag_500\n        /* \"#utility.yul\":14538:14539   */\n      0x00\n        /* \"#utility.yul\":14527:14536   */\n      dup4\n        /* \"#utility.yul\":14523:14540   */\n      add\n        /* \"#utility.yul\":14514:14520   */\n      dup7\n        /* \"#utility.yul\":14470:14541   */\n      tag_328\n      jump\t// in\n    tag_500:\n        /* \"#utility.yul\":14551:14623   */\n      tag_501\n        /* \"#utility.yul\":14619:14621   */\n      0x20\n        /* \"#utility.yul\":14608:14617   */\n      dup4\n        /* \"#utility.yul\":14604:14622   */\n      add\n        /* \"#utility.yul\":14595:14601   */\n      dup6\n        /* \"#utility.yul\":14551:14623   */\n      tag_320\n      jump\t// in\n    tag_501:\n        /* \"#utility.yul\":14633:14705   */\n      tag_502\n        /* \"#utility.yul\":14701:14703   */\n      0x40\n        /* \"#utility.yul\":14690:14699   */\n      dup4\n        /* \"#utility.yul\":14686:14704   */\n      add\n        /* \"#utility.yul\":14677:14683   */\n      dup5\n        /* \"#utility.yul\":14633:14705   */\n      tag_320\n      jump\t// in\n    tag_502:\n        /* \"#utility.yul\":14270:14712   */\n      swap5\n      swap4\n      pop\n      pop\n      pop\n      pop\n      jump\t// out\n        /* \"#utility.yul\":14718:15050   */\n    tag_231:\n        /* \"#utility.yul\":14839:14843   */\n      0x00\n        /* \"#utility.yul\":14877:14879   */\n      0x40\n        /* \"#utility.yul\":14866:14875   */\n      dup3\n        /* \"#utility.yul\":14862:14880   */\n      add\n        /* \"#utility.yul\":14854:14880   */\n      swap1\n      pop\n        /* \"#utility.yul\":14890:14961   */\n      tag_504\n        /* \"#utility.yul\":14958:14959   */\n      0x00\n        /* \"#utility.yul\":14947:14956   */\n      dup4\n        /* \"#utility.yul\":14943:14960   */\n      add\n        /* \"#utility.yul\":14934:14940   */\n      dup6\n        /* \"#utility.yul\":14890:14961   */\n      tag_328\n      jump\t// in\n    tag_504:\n        /* \"#utility.yul\":14971:15043   */\n      tag_505\n        /* \"#utility.yul\":15039:15041   */\n      0x20\n        /* \"#utility.yul\":15028:15037   */\n      dup4\n        /* \"#utility.yul\":15024:15042   */\n      add\n        /* \"#utility.yul\":15015:15021   */\n      dup5\n        /* \"#utility.yul\":14971:15043   */\n      tag_320\n      jump\t// in\n    tag_505:\n        /* \"#utility.yul\":14718:15050   */\n      swap4\n      swap3\n      pop\n      pop\n      pop\n      jump\t// out\n        /* \"#utility.yul\":15056:15498   */\n    tag_241:\n        /* \"#utility.yul\":15205:15209   */\n      0x00\n        /* \"#utility.yul\":15243:15245   */\n      0x60\n        /* \"#utility.yul\":15232:15241   */\n      dup3\n        /* \"#utility.yul\":15228:15246   */\n      add\n        /* \"#utility.yul\":15220:15246   */\n      swap1\n      pop\n        /* \"#utility.yul\":15256:15327   */\n      tag_507\n        /* \"#utility.yul\":15324:15325   */\n      0x00\n        /* \"#utility.yul\":15313:15322   */\n      dup4\n        /* \"#utility.yul\":15309:15326   */\n      add\n        /* \"#utility.yul\":15300:15306   */\n      dup7\n        /* \"#utility.yul\":15256:15327   */\n      tag_328\n      jump\t// in\n    tag_507:\n        /* \"#utility.yul\":15337:15409   */\n      tag_508\n        /* \"#utility.yul\":15405:15407   */\n      0x20\n        /* \"#utility.yul\":15394:15403   */\n      dup4\n        /* \"#utility.yul\":15390:15408   */\n      add\n        /* \"#utility.yul\":15381:15387   */\n      dup6\n        /* \"#utility.yul\":15337:15409   */\n      tag_328\n      jump\t// in\n    tag_508:\n        /* \"#utility.yul\":15419:15491   */\n      tag_509\n        /* \"#utility.yul\":15487:15489   */\n      0x40\n        /* \"#utility.yul\":15476:15485   */\n      dup4\n        /* \"#utility.yul\":15472:15490   */\n      add\n        /* \"#utility.yul\":15463:15469   */\n      dup5\n        /* \"#utility.yul\":15419:15491   */\n      tag_320\n      jump\t// in\n    tag_509:\n        /* \"#utility.yul\":15056:15498   */\n      swap5\n      swap4\n      pop\n      pop\n      pop\n      pop\n      jump\t// out\n        /* \"#utility.yul\":15504:15684   */\n    tag_245:\n        /* \"#utility.yul\":15552:15629   */\n      0x4e487b7100000000000000000000000000000000000000000000000000000000\n        /* \"#utility.yul\":15549:15550   */\n      0x00\n        /* \"#utility.yul\":15542:15630   */\n      mstore\n        /* \"#utility.yul\":15649:15653   */\n      0x41\n        /* \"#utility.yul\":15646:15647   */\n      0x04\n        /* \"#utility.yul\":15639:15654   */\n      mstore\n        /* \"#utility.yul\":15673:15677   */\n      0x24\n        /* \"#utility.yul\":15670:15671   */\n      0x00\n        /* \"#utility.yul\":15663:15678   */\n      revert\n        /* \"#utility.yul\":15690:15788   */\n    tag_346:\n        /* \"#utility.yul\":15741:15747   */\n      0x00\n        /* \"#utility.yul\":15775:15780   */\n      dup2\n        /* \"#utility.yul\":15769:15781   */\n      mload\n        /* \"#utility.yul\":15759:15781   */\n      swap1\n      pop\n        /* \"#utility.yul\":15690:15788   */\n      swap2\n      swap1\n      pop\n      jump\t// out\n        /* \"#utility.yul\":15794:15941   */\n    tag_347:\n        /* \"#utility.yul\":15895:15906   */\n      0x00\n        /* \"#utility.yul\":15932:15935   */\n      dup2\n        /* \"#utility.yul\":15917:15935   */\n      swap1\n      pop\n        /* \"#utility.yul\":15794:15941   */\n      swap3\n      swap2\n      pop\n      pop\n      jump\t// out\n        /* \"#utility.yul\":15947:16333   */\n    tag_348:\n        /* \"#utility.yul\":16051:16054   */\n      0x00\n        /* \"#utility.yul\":16079:16117   */\n      tag_514\n        /* \"#utility.yul\":16111:16116   */\n      dup3\n        /* \"#utility.yul\":16079:16117   */\n      tag_346\n      jump\t// in\n    tag_514:\n        /* \"#utility.yul\":16133:16221   */\n      tag_515\n        /* \"#utility.yul\":16214:16220   */\n      dup2\n        /* \"#utility.yul\":16209:16212   */\n      dup6\n        /* \"#utility.yul\":16133:16221   */\n      tag_347\n      jump\t// in\n    tag_515:\n        /* \"#utility.yul\":16126:16221   */\n      swap4\n      pop\n        /* \"#utility.yul\":16230:16295   */\n      tag_516\n        /* \"#utility.yul\":16288:16294   */\n      dup2\n        /* \"#utility.yul\":16283:16286   */\n      dup6\n        /* \"#utility.yul\":16276:16280   */\n      0x20\n        /* \"#utility.yul\":16269:16274   */\n      dup7\n        /* \"#utility.yul\":16265:16281   */\n      add\n        /* \"#utility.yul\":16230:16295   */\n      tag_305\n      jump\t// in\n    tag_516:\n        /* \"#utility.yul\":16320:16326   */\n      dup1\n        /* \"#utility.yul\":16315:16318   */\n      dup5\n        /* \"#utility.yul\":16311:16327   */\n      add\n        /* \"#utility.yul\":16304:16327   */\n      swap2\n      pop\n        /* \"#utility.yul\":16055:16333   */\n      pop\n        /* \"#utility.yul\":15947:16333   */\n      swap3\n      swap2\n      pop\n      pop\n      jump\t// out\n        /* \"#utility.yul\":16339:16610   */\n    tag_248:\n        /* \"#utility.yul\":16469:16472   */\n      0x00\n        /* \"#utility.yul\":16491:16584   */\n      tag_518\n        /* \"#utility.yul\":16580:16583   */\n      dup3\n        /* \"#utility.yul\":16571:16577   */\n      dup5\n        /* \"#utility.yul\":16491:16584   */\n      tag_348\n      jump\t// in\n    tag_518:\n        /* \"#utility.yul\":16484:16584   */\n      swap2\n      pop\n        /* \"#utility.yul\":16601:16604   */\n      dup2\n        /* \"#utility.yul\":16594:16604   */\n      swap1\n      pop\n        /* \"#utility.yul\":16339:16610   */\n      swap3\n      swap2\n      pop\n      pop\n      jump\t// out\n        /* \"#utility.yul\":16616:16855   */\n    tag_349:\n        /* \"#utility.yul\":16756:16790   */\n      0x5472616e7366657248656c7065723a3a736166655472616e736665724554483a\n        /* \"#utility.yul\":16752:16753   */\n      0x00\n        /* \"#utility.yul\":16744:16750   */\n      dup3\n        /* \"#utility.yul\":16740:16754   */\n      add\n        /* \"#utility.yul\":16733:16791   */\n      mstore\n        /* \"#utility.yul\":16825:16847   */\n      0x20455448207472616e73666572206661696c6564000000000000000000000000\n        /* \"#utility.yul\":16820:16822   */\n      0x20\n        /* \"#utility.yul\":16812:16818   */\n      dup3\n        /* \"#utility.yul\":16808:16823   */\n      add\n        /* \"#utility.yul\":16801:16848   */\n      mstore\n        /* \"#utility.yul\":16616:16855   */\n      pop\n      jump\t// out\n        /* \"#utility.yul\":16861:17227   */\n    tag_350:\n        /* \"#utility.yul\":17003:17006   */\n      0x00\n        /* \"#utility.yul\":17024:17091   */\n      tag_521\n        /* \"#utility.yul\":17088:17090   */\n      0x34\n        /* \"#utility.yul\":17083:17086   */\n      dup4\n        /* \"#utility.yul\":17024:17091   */\n      tag_304\n      jump\t// in\n    tag_521:\n        /* \"#utility.yul\":17017:17091   */\n      swap2\n      pop\n        /* \"#utility.yul\":17100:17193   */\n      tag_522\n        /* \"#utility.yul\":17189:17192   */\n      dup3\n        /* \"#utility.yul\":17100:17193   */\n      tag_349\n      jump\t// in\n    tag_522:\n        /* \"#utility.yul\":17218:17220   */\n      0x40\n        /* \"#utility.yul\":17213:17216   */\n      dup3\n        /* \"#utility.yul\":17209:17221   */\n      add\n        /* \"#utility.yul\":17202:17221   */\n      swap1\n      pop\n        /* \"#utility.yul\":16861:17227   */\n      swap2\n      swap1\n      pop\n      jump\t// out\n        /* \"#utility.yul\":17233:17652   */\n    tag_254:\n        /* \"#utility.yul\":17399:17403   */\n      0x00\n        /* \"#utility.yul\":17437:17439   */\n      0x20\n        /* \"#utility.yul\":17426:17435   */\n      dup3\n        /* \"#utility.yul\":17422:17440   */\n      add\n        /* \"#utility.yul\":17414:17440   */\n      swap1\n      pop\n        /* \"#utility.yul\":17486:17495   */\n      dup2\n        /* \"#utility.yul\":17480:17484   */\n      dup2\n        /* \"#utility.yul\":17476:17496   */\n      sub\n        /* \"#utility.yul\":17472:17473   */\n      0x00\n        /* \"#utility.yul\":17461:17470   */\n      dup4\n        /* \"#utility.yul\":17457:17474   */\n      add\n        /* \"#utility.yul\":17450:17497   */\n      mstore\n        /* \"#utility.yul\":17514:17645   */\n      tag_524\n        /* \"#utility.yul\":17640:17644   */\n      dup2\n        /* \"#utility.yul\":17514:17645   */\n      tag_350\n      jump\t// in\n    tag_524:\n        /* \"#utility.yul\":17506:17645   */\n      swap1\n      pop\n        /* \"#utility.yul\":17233:17652   */\n      swap2\n      swap1\n      pop\n      jump\t// out\n        /* \"#utility.yul\":17658:17849   */\n    tag_265:\n        /* \"#utility.yul\":17698:17701   */\n      0x00\n        /* \"#utility.yul\":17717:17737   */\n      tag_526\n        /* \"#utility.yul\":17735:17736   */\n      dup3\n        /* \"#utility.yul\":17717:17737   */\n      tag_315\n      jump\t// in\n    tag_526:\n        /* \"#utility.yul\":17712:17737   */\n      swap2\n      pop\n        /* \"#utility.yul\":17751:17771   */\n      tag_527\n        /* \"#utility.yul\":17769:17770   */\n      dup4\n        /* \"#utility.yul\":17751:17771   */\n      tag_315\n      jump\t// in\n    tag_527:\n        /* \"#utility.yul\":17746:17771   */\n      swap3\n      pop\n        /* \"#utility.yul\":17794:17795   */\n      dup3\n        /* \"#utility.yul\":17791:17792   */\n      dup3\n        /* \"#utility.yul\":17787:17796   */\n      add\n        /* \"#utility.yul\":17780:17796   */\n      swap1\n      pop\n        /* \"#utility.yul\":17815:17818   */\n      dup1\n        /* \"#utility.yul\":17812:17813   */\n      dup3\n        /* \"#utility.yul\":17809:17819   */\n      gt\n        /* \"#utility.yul\":17806:17842   */\n      iszero\n      tag_528\n      jumpi\n        /* \"#utility.yul\":17822:17840   */\n      tag_529\n      tag_338\n      jump\t// in\n    tag_529:\n        /* \"#utility.yul\":17806:17842   */\n    tag_528:\n        /* \"#utility.yul\":17658:17849   */\n      swap3\n      swap2\n      pop\n      pop\n      jump\t// out\n        /* \"#utility.yul\":17855:17971   */\n    tag_351:\n        /* \"#utility.yul\":17925:17946   */\n      tag_531\n        /* \"#utility.yul\":17940:17945   */\n      dup2\n        /* \"#utility.yul\":17925:17946   */\n      tag_318\n      jump\t// in\n    tag_531:\n        /* \"#utility.yul\":17918:17923   */\n      dup2\n        /* \"#utility.yul\":17915:17947   */\n      eq\n        /* \"#utility.yul\":17905:17965   */\n      tag_532\n      jumpi\n        /* \"#utility.yul\":17961:17962   */\n      0x00\n        /* \"#utility.yul\":17958:17959   */\n      0x00\n        /* \"#utility.yul\":17951:17963   */\n      revert\n        /* \"#utility.yul\":17905:17965   */\n    tag_532:\n        /* \"#utility.yul\":17855:17971   */\n      pop\n      jump\t// out\n        /* \"#utility.yul\":17977:18114   */\n    tag_352:\n        /* \"#utility.yul\":18031:18036   */\n      0x00\n        /* \"#utility.yul\":18062:18068   */\n      dup2\n        /* \"#utility.yul\":18056:18069   */\n      mload\n        /* \"#utility.yul\":18047:18069   */\n      swap1\n      pop\n        /* \"#utility.yul\":18078:18108   */\n      tag_534\n        /* \"#utility.yul\":18102:18107   */\n      dup2\n        /* \"#utility.yul\":18078:18108   */\n      tag_351\n      jump\t// in\n    tag_534:\n        /* \"#utility.yul\":17977:18114   */\n      swap3\n      swap2\n      pop\n      pop\n      jump\t// out\n        /* \"#utility.yul\":18120:18465   */\n    tag_277:\n        /* \"#utility.yul\":18187:18193   */\n      0x00\n        /* \"#utility.yul\":18236:18238   */\n      0x20\n        /* \"#utility.yul\":18224:18233   */\n      dup3\n        /* \"#utility.yul\":18215:18222   */\n      dup5\n        /* \"#utility.yul\":18211:18234   */\n      sub\n        /* \"#utility.yul\":18207:18239   */\n      slt\n        /* \"#utility.yul\":18204:18323   */\n      iszero\n      tag_536\n      jumpi\n        /* \"#utility.yul\":18242:18321   */\n      tag_537\n      tag_309\n      jump\t// in\n    tag_537:\n        /* \"#utility.yul\":18204:18323   */\n    tag_536:\n        /* \"#utility.yul\":18362:18363   */\n      0x00\n        /* \"#utility.yul\":18387:18448   */\n      tag_538\n        /* \"#utility.yul\":18440:18447   */\n      dup5\n        /* \"#utility.yul\":18431:18437   */\n      dup3\n        /* \"#utility.yul\":18420:18429   */\n      dup6\n        /* \"#utility.yul\":18416:18438   */\n      add\n        /* \"#utility.yul\":18387:18448   */\n      tag_352\n      jump\t// in\n    tag_538:\n        /* \"#utility.yul\":18377:18448   */\n      swap2\n      pop\n        /* \"#utility.yul\":18333:18458   */\n      pop\n        /* \"#utility.yul\":18120:18465   */\n      swap3\n      swap2\n      pop\n      pop\n      jump\t// out\n\n    auxdata: 0xa26469706673582212209a4f95c4b892dfe0197508d4f4588e3bab2911227899c52fe1881ceff65f3af264736f6c634300081b0033\n}\n",
				"bytecode": {
					"linkReferences": {},
					"object": "608060405234801561000f575f5ffd5b506040516128a23803806128a283398181016040528101906100319190610404565b336040518060400160405280601d81526020017fe68891e79a84e6b58be8af95e79c8be5a49ae69c9fe69d83546f6b656e0000008152506040518060400160405280600981526020017f43414c4c544f4b454e000000000000000000000000000000000000000000000081525081600390816100ad91906106a5565b5080600490816100bd91906106a5565b5050505f73ffffffffffffffffffffffffffffffffffffffff168173ffffffffffffffffffffffffffffffffffffffff1603610130575f6040517f1e4fbdf70000000000000000000000000000000000000000000000000000000081526004016101279190610783565b60405180910390fd5b61013f8161021360201b60201c565b508260075f6101000a8154816fffffffffffffffffffffffffffffffff02191690836fffffffffffffffffffffffffffffffff16021790555081600760106101000a8154816bffffffffffffffffffffffff02191690836bffffffffffffffffffffffff160217905550806007601c6101000a81548163ffffffff021916908363ffffffff1602179055508360065f6101000a81548173ffffffffffffffffffffffffffffffffffffffff021916908373ffffffffffffffffffffffffffffffffffffffff1602179055505050505061079c565b5f60055f9054906101000a900473ffffffffffffffffffffffffffffffffffffffff1690508160055f6101000a81548173ffffffffffffffffffffffffffffffffffffffff021916908373ffffffffffffffffffffffffffffffffffffffff1602179055508173ffffffffffffffffffffffffffffffffffffffff168173ffffffffffffffffffffffffffffffffffffffff167f8be0079c531659141344cd1fd0a4f28419497f9722a3daafe3b4186f6b6457e060405160405180910390a35050565b5f5ffd5b5f73ffffffffffffffffffffffffffffffffffffffff82169050919050565b5f610303826102da565b9050919050565b5f610314826102f9565b9050919050565b6103248161030a565b811461032e575f5ffd5b50565b5f8151905061033f8161031b565b92915050565b5f6fffffffffffffffffffffffffffffffff82169050919050565b61036981610345565b8114610373575f5ffd5b50565b5f8151905061038481610360565b92915050565b5f6bffffffffffffffffffffffff82169050919050565b6103aa8161038a565b81146103b4575f5ffd5b50565b5f815190506103c5816103a1565b92915050565b5f63ffffffff82169050919050565b6103e3816103cb565b81146103ed575f5ffd5b50565b5f815190506103fe816103da565b92915050565b5f5f5f5f6080858703121561041c5761041b6102d6565b5b5f61042987828801610331565b945050602061043a87828801610376565b935050604061044b878288016103b7565b925050606061045c878288016103f0565b91505092959194509250565b5f81519050919050565b7f4e487b71000000000000000000000000000000000000000000000000000000005f52604160045260245ffd5b7f4e487b71000000000000000000000000000000000000000000000000000000005f52602260045260245ffd5b5f60028204905060018216806104e357607f821691505b6020821081036104f6576104f561049f565b5b50919050565b5f819050815f5260205f209050919050565b5f6020601f8301049050919050565b5f82821b905092915050565b5f600883026105587fffffffffffffffffffffffffffffffffffffffffffffffffffffffffffffffff8261051d565b610562868361051d565b95508019841693508086168417925050509392505050565b5f819050919050565b5f819050919050565b5f6105a66105a161059c8461057a565b610583565b61057a565b9050919050565b5f819050919050565b6105bf8361058c565b6105d36105cb826105ad565b848454610529565b825550505050565b5f5f905090565b6105ea6105db565b6105f58184846105b6565b505050565b5b818110156106185761060d5f826105e2565b6001810190506105fb565b5050565b601f82111561065d5761062e816104fc565b6106378461050e565b81016020851015610646578190505b61065a6106528561050e565b8301826105fa565b50505b505050565b5f82821c905092915050565b5f61067d5f1984600802610662565b1980831691505092915050565b5f610695838361066e565b9150826002028217905092915050565b6106ae82610468565b67ffffffffffffffff8111156106c7576106c6610472565b5b6106d182546104cc565b6106dc82828561061c565b5f60209050601f83116001811461070d575f84156106fb578287015190505b610705858261068a565b86555061076c565b601f19841661071b866104fc565b5f5b828110156107425784890151825560018201915060208501945060208101905061071d565b8683101561075f578489015161075b601f89168261066e565b8355505b6001600288020188555050505b505050505050565b61077d816102f9565b82525050565b5f6020820190506107965f830184610774565b92915050565b6120f9806107a95f395ff3fe608060405260043610610113575f3560e01c8063715018a61161009f578063a9059cbb11610063578063a9059cbb1461034f578063dd62ed3e1461038b578063ec46c4ef146103c7578063f2fde38b146103f1578063f8b75fb51461041957610113565b8063715018a61461029357806383b6fa98146102a95780638da5cb5b146102d157806395d89b41146102fb578063a035b1fe1461032557610113565b8063313ce567116100e6578063313ce567146101e3578063384b23671461020d5780633e413bee146102175780636bdebcc91461024157806370a082311461025757610113565b806306fdde0314610117578063095ea7b31461014157806318160ddd1461017d57806323b872dd146101a7575b5f5ffd5b348015610122575f5ffd5b5061012b610443565b60405161013891906117f5565b60405180910390f35b34801561014c575f5ffd5b50610167600480360381019061016291906118a6565b6104d3565b60405161017491906118fe565b60405180910390f35b348015610188575f5ffd5b506101916104f5565b60405161019e9190611926565b60405180910390f35b3480156101b2575f5ffd5b506101cd60048036038101906101c8919061193f565b6104fe565b6040516101da91906118fe565b60405180910390f35b3480156101ee575f5ffd5b506101f761052c565b60405161020491906119aa565b60405180910390f35b610215610534565b005b348015610222575f5ffd5b5061022b61058a565b6040516102389190611a1e565b60405180910390f35b34801561024c575f5ffd5b506102556105af565b005b348015610262575f5ffd5b5061027d60048036038101906102789190611a37565b610742565b60405161028a9190611926565b60405180910390f35b34801561029e575f5ffd5b506102a7610787565b005b3480156102b4575f5ffd5b506102cf60048036038101906102ca9190611a62565b61079a565b005b3480156102dc575f5ffd5b506102e5610945565b6040516102f29190611a9c565b60405180910390f35b348015610306575f5ffd5b5061030f61096d565b60405161031c91906117f5565b60405180910390f35b348015610330575f5ffd5b506103396109fd565b6040516103469190611adf565b60405180910390f35b34801561035a575f5ffd5b50610375600480360381019061037091906118a6565b610a1e565b60405161038291906118fe565b60405180910390f35b348015610396575f5ffd5b506103b160048036038101906103ac9190611af8565b610a40565b6040516103be9190611926565b60405180910390f35b3480156103d2575f5ffd5b506103db610ac2565b6040516103e89190611b5c565b60405180910390f35b3480156103fc575f5ffd5b5061041760048036038101906104129190611a37565b610ae0565b005b348015610424575f5ffd5b5061042d610b64565b60405161043a9190611b93565b60405180910390f35b60606003805461045290611bd9565b80601f016020809104026020016040519081016040528092919081815260200182805461047e90611bd9565b80156104c95780601f106104a0576101008083540402835291602001916104c9565b820191905f5260205f20905b8154815290600101906020018083116104ac57829003601f168201915b5050505050905090565b5f5f6104dd610b7a565b90506104ea818585610b81565b600191505092915050565b5f600254905090565b5f5f610508610b7a565b9050610515858285610b93565b610520858585610c25565b60019150509392505050565b5f6012905090565b61053c610d15565b5f341161057e576040517f08c379a000000000000000000000000000000000000000000000000000000000815260040161057590611c53565b60405180910390fd5b6105883334610d9c565b565b60065f9054906101000a900473ffffffffffffffffffffffffffffffffffffffff1681565b6105b7610d15565b6007601c9054906101000a900463ffffffff1663ffffffff16600760109054906101000a90046bffffffffffffffffffffffff166105f59190611c9e565b6bffffffffffffffffffffffff16421015610645576040517f08c379a000000000000000000000000000000000000000000000000000000000815260040161063c90611d27565b60405180910390fd5b6107293360065f9054906101000a900473ffffffffffffffffffffffffffffffffffffffff1673ffffffffffffffffffffffffffffffffffffffff166370a08231306040518263ffffffff1660e01b81526004016106a39190611a9c565b602060405180830381865afa1580156106be573d5f5f3e3d5ffd5b505050506040513d601f19601f820116820180604052508101906106e29190611d59565b60065f9054906101000a900473ffffffffffffffffffffffffffffffffffffffff1673ffffffffffffffffffffffffffffffffffffffff16610e1b9092919063ffffffff16565b3373ffffffffffffffffffffffffffffffffffffffff16ff5b5f5f5f8373ffffffffffffffffffffffffffffffffffffffff1673ffffffffffffffffffffffffffffffffffffffff1681526020019081526020015f20549050919050565b61078f610d15565b6107985f610e9a565b565b600760109054906101000a90046bffffffffffffffffffffffff166bffffffffffffffffffffffff16421015801561081c57506007601c9054906101000a900463ffffffff1663ffffffff16600760109054906101000a90046bffffffffffffffffffffffff1661080b9190611c9e565b6bffffffffffffffffffffffff1642105b61085b576040517f08c379a000000000000000000000000000000000000000000000000000000000815260040161085290611dce565b60405180910390fd5b8061086533610742565b10156108a6576040517f08c379a000000000000000000000000000000000000000000000000000000000815260040161089d90611e36565b60405180910390fd5b6108b03382610f5d565b610938333060075f9054906101000a90046fffffffffffffffffffffffffffffffff166fffffffffffffffffffffffffffffffff16846108f09190611e54565b60065f9054906101000a900473ffffffffffffffffffffffffffffffffffffffff1673ffffffffffffffffffffffffffffffffffffffff16610fdc909392919063ffffffff16565b610942338261105e565b50565b5f60055f9054906101000a900473ffffffffffffffffffffffffffffffffffffffff16905090565b60606004805461097c90611bd9565b80601f01602080910402602001604051908101604052809291908181526020018280546109a890611bd9565b80156109f35780601f106109ca576101008083540402835291602001916109f3565b820191905f5260205f20905b8154815290600101906020018083116109d657829003601f168201915b5050505050905090565b60075f9054906101000a90046fffffffffffffffffffffffffffffffff1681565b5f5f610a28610b7a565b9050610a35818585610c25565b600191505092915050565b5f60015f8473ffffffffffffffffffffffffffffffffffffffff1673ffffffffffffffffffffffffffffffffffffffff1681526020019081526020015f205f8373ffffffffffffffffffffffffffffffffffffffff1673ffffffffffffffffffffffffffffffffffffffff1681526020019081526020015f2054905092915050565b600760109054906101000a90046bffffffffffffffffffffffff1681565b610ae8610d15565b5f73ffffffffffffffffffffffffffffffffffffffff168173ffffffffffffffffffffffffffffffffffffffff1603610b58575f6040517f1e4fbdf7000000000000000000000000000000000000000000000000000000008152600401610b4f9190611a9c565b60405180910390fd5b610b6181610e9a565b50565b6007601c9054906101000a900463ffffffff1681565b5f33905090565b610b8e8383836001611159565b505050565b5f610b9e8484610a40565b90507fffffffffffffffffffffffffffffffffffffffffffffffffffffffffffffffff8114610c1f5781811015610c10578281836040517ffb8f41b2000000000000000000000000000000000000000000000000000000008152600401610c0793929190611e95565b60405180910390fd5b610c1e84848484035f611159565b5b50505050565b5f73ffffffffffffffffffffffffffffffffffffffff168373ffffffffffffffffffffffffffffffffffffffff1603610c95575f6040517f96c6fd1e000000000000000000000000000000000000000000000000000000008152600401610c8c9190611a9c565b60405180910390fd5b5f73ffffffffffffffffffffffffffffffffffffffff168273ffffffffffffffffffffffffffffffffffffffff1603610d05575f6040517fec442f05000000000000000000000000000000000000000000000000000000008152600401610cfc9190611a9c565b60405180910390fd5b610d10838383611328565b505050565b610d1d610b7a565b73ffffffffffffffffffffffffffffffffffffffff16610d3b610945565b73ffffffffffffffffffffffffffffffffffffffff1614610d9a57610d5e610b7a565b6040517f118cdaa7000000000000000000000000000000000000000000000000000000008152600401610d919190611a9c565b60405180910390fd5b565b5f73ffffffffffffffffffffffffffffffffffffffff168273ffffffffffffffffffffffffffffffffffffffff1603610e0c575f6040517fec442f05000000000000000000000000000000000000000000000000000000008152600401610e039190611a9c565b60405180910390fd5b610e175f8383611328565b5050565b610e95838473ffffffffffffffffffffffffffffffffffffffff1663a9059cbb8585604051602401610e4e929190611eca565b604051602081830303815290604052915060e01b6020820180517bffffffffffffffffffffffffffffffffffffffffffffffffffffffff8381831617835250505050611541565b505050565b5f60055f9054906101000a900473ffffffffffffffffffffffffffffffffffffffff1690508160055f6101000a81548173ffffffffffffffffffffffffffffffffffffffff021916908373ffffffffffffffffffffffffffffffffffffffff1602179055508173ffffffffffffffffffffffffffffffffffffffff168173ffffffffffffffffffffffffffffffffffffffff167f8be0079c531659141344cd1fd0a4f28419497f9722a3daafe3b4186f6b6457e060405160405180910390a35050565b5f73ffffffffffffffffffffffffffffffffffffffff168273ffffffffffffffffffffffffffffffffffffffff1603610fcd575f6040517f96c6fd1e000000000000000000000000000000000000000000000000000000008152600401610fc49190611a9c565b60405180910390fd5b610fd8825f83611328565b5050565b611058848573ffffffffffffffffffffffffffffffffffffffff166323b872dd86868660405160240161101193929190611ef1565b604051602081830303815290604052915060e01b6020820180517bffffffffffffffffffffffffffffffffffffffffffffffffffffffff8381831617835250505050611541565b50505050565b5f8273ffffffffffffffffffffffffffffffffffffffff16825f67ffffffffffffffff81111561109157611090611f26565b5b6040519080825280601f01601f1916602001820160405280156110c35781602001600182028036833780820191505090505b506040516110d19190611f97565b5f6040518083038185875af1925050503d805f811461110b576040519150601f19603f3d011682016040523d82523d5f602084013e611110565b606091505b5050905080611154576040517f08c379a000000000000000000000000000000000000000000000000000000000815260040161114b9061201d565b60405180910390fd5b505050565b5f73ffffffffffffffffffffffffffffffffffffffff168473ffffffffffffffffffffffffffffffffffffffff16036111c9575f6040517fe602df050000000000000000000000000000000000000000000000000000000081526004016111c09190611a9c565b60405180910390fd5b5f73ffffffffffffffffffffffffffffffffffffffff168373ffffffffffffffffffffffffffffffffffffffff1603611239575f6040517f94280d620000000000000000000000000000000000000000000000000000000081526004016112309190611a9c565b60405180910390fd5b8160015f8673ffffffffffffffffffffffffffffffffffffffff1673ffffffffffffffffffffffffffffffffffffffff1681526020019081526020015f205f8573ffffffffffffffffffffffffffffffffffffffff1673ffffffffffffffffffffffffffffffffffffffff1681526020019081526020015f20819055508015611322578273ffffffffffffffffffffffffffffffffffffffff168473ffffffffffffffffffffffffffffffffffffffff167f8c5be1e5ebec7d5bd14f71427d1e84f3dd0314c0f7b2291e5b200ac8c7c3b925846040516113199190611926565b60405180910390a35b50505050565b5f73ffffffffffffffffffffffffffffffffffffffff168373ffffffffffffffffffffffffffffffffffffffff1603611378578060025f82825461136c919061203b565b92505081905550611446565b5f5f5f8573ffffffffffffffffffffffffffffffffffffffff1673ffffffffffffffffffffffffffffffffffffffff1681526020019081526020015f2054905081811015611401578381836040517fe450d38c0000000000000000000000000000000000000000000000000000000081526004016113f893929190611e95565b60405180910390fd5b8181035f5f8673ffffffffffffffffffffffffffffffffffffffff1673ffffffffffffffffffffffffffffffffffffffff1681526020019081526020015f2081905550505b5f73ffffffffffffffffffffffffffffffffffffffff168273ffffffffffffffffffffffffffffffffffffffff160361148d578060025f82825403925050819055506114d7565b805f5f8473ffffffffffffffffffffffffffffffffffffffff1673ffffffffffffffffffffffffffffffffffffffff1681526020019081526020015f205f82825401925050819055505b8173ffffffffffffffffffffffffffffffffffffffff168373ffffffffffffffffffffffffffffffffffffffff167fddf252ad1be2c89b69c2b068fc378daa952ba7f163c4a11628f55a4df523b3ef836040516115349190611926565b60405180910390a3505050565b5f61156b828473ffffffffffffffffffffffffffffffffffffffff166115d690919063ffffffff16565b90505f81511415801561158f57508080602001905181019061158d9190612098565b155b156115d157826040517f5274afe70000000000000000000000000000000000000000000000000000000081526004016115c89190611a9c565b60405180910390fd5b505050565b60606115e383835f6115eb565b905092915050565b60608147101561163257306040517fcd7860590000000000000000000000000000000000000000000000000000000081526004016116299190611a9c565b60405180910390fd5b5f5f8573ffffffffffffffffffffffffffffffffffffffff16848660405161165a9190611f97565b5f6040518083038185875af1925050503d805f8114611694576040519150601f19603f3d011682016040523d82523d5f602084013e611699565b606091505b50915091506116a98683836116b4565b925050509392505050565b6060826116c9576116c482611741565b611739565b5f82511480156116ef57505f8473ffffffffffffffffffffffffffffffffffffffff163b145b1561173157836040517f9996b3150000000000000000000000000000000000000000000000000000000081526004016117289190611a9c565b60405180910390fd5b81905061173a565b5b9392505050565b5f815111156117535780518082602001fd5b6040517f1425ea4200000000000000000000000000000000000000000000000000000000815260040160405180910390fd5b5f81519050919050565b5f82825260208201905092915050565b8281835e5f83830152505050565b5f601f19601f8301169050919050565b5f6117c782611785565b6117d1818561178f565b93506117e181856020860161179f565b6117ea816117ad565b840191505092915050565b5f6020820190508181035f83015261180d81846117bd565b905092915050565b5f5ffd5b5f73ffffffffffffffffffffffffffffffffffffffff82169050919050565b5f61184282611819565b9050919050565b61185281611838565b811461185c575f5ffd5b50565b5f8135905061186d81611849565b92915050565b5f819050919050565b61188581611873565b811461188f575f5ffd5b50565b5f813590506118a08161187c565b92915050565b5f5f604083850312156118bc576118bb611815565b5b5f6118c98582860161185f565b92505060206118da85828601611892565b9150509250929050565b5f8115159050919050565b6118f8816118e4565b82525050565b5f6020820190506119115f8301846118ef565b92915050565b61192081611873565b82525050565b5f6020820190506119395f830184611917565b92915050565b5f5f5f6060848603121561195657611955611815565b5b5f6119638682870161185f565b93505060206119748682870161185f565b925050604061198586828701611892565b9150509250925092565b5f60ff82169050919050565b6119a48161198f565b82525050565b5f6020820190506119bd5f83018461199b565b92915050565b5f819050919050565b5f6119e66119e16119dc84611819565b6119c3565b611819565b9050919050565b5f6119f7826119cc565b9050919050565b5f611a08826119ed565b9050919050565b611a18816119fe565b82525050565b5f602082019050611a315f830184611a0f565b92915050565b5f60208284031215611a4c57611a4b611815565b5b5f611a598482850161185f565b91505092915050565b5f60208284031215611a7757611a76611815565b5b5f611a8484828501611892565b91505092915050565b611a9681611838565b82525050565b5f602082019050611aaf5f830184611a8d565b92915050565b5f6fffffffffffffffffffffffffffffffff82169050919050565b611ad981611ab5565b82525050565b5f602082019050611af25f830184611ad0565b92915050565b5f5f60408385031215611b0e57611b0d611815565b5b5f611b1b8582860161185f565b9250506020611b2c8582860161185f565b9150509250929050565b5f6bffffffffffffffffffffffff82169050919050565b611b5681611b36565b82525050565b5f602082019050611b6f5f830184611b4d565b92915050565b5f63ffffffff82169050919050565b611b8d81611b75565b82525050565b5f602082019050611ba65f830184611b84565b92915050565b7f4e487b71000000000000000000000000000000000000000000000000000000005f52602260045260245ffd5b5f6002820490506001821680611bf057607f821691505b602082108103611c0357611c02611bac565b5b50919050565b7f6574682076616c75652063616e742062652030000000000000000000000000005f82015250565b5f611c3d60138361178f565b9150611c4882611c09565b602082019050919050565b5f6020820190508181035f830152611c6a81611c31565b9050919050565b7f4e487b71000000000000000000000000000000000000000000000000000000005f52601160045260245ffd5b5f611ca882611b36565b9150611cb383611b36565b925082820190506bffffffffffffffffffffffff811115611cd757611cd6611c71565b5b92915050565b7f6e6f7420657870697265207965740000000000000000000000000000000000005f82015250565b5f611d11600e8361178f565b9150611d1c82611cdd565b602082019050919050565b5f6020820190508181035f830152611d3e81611d05565b9050919050565b5f81519050611d538161187c565b92915050565b5f60208284031215611d6e57611d6d611815565b5b5f611d7b84828501611d45565b91505092915050565b7f6e6f7420696e20736574746c652074696d652072616e676500000000000000005f82015250565b5f611db860188361178f565b9150611dc382611d84565b602082019050919050565b5f6020820190508181035f830152611de581611dac565b9050919050565b7f616d6f756e74206d757374203e2062616c616e636500000000000000000000005f82015250565b5f611e2060158361178f565b9150611e2b82611dec565b602082019050919050565b5f6020820190508181035f830152611e4d81611e14565b9050919050565b5f611e5e82611873565b9150611e6983611873565b9250828202611e7781611873565b91508282048414831517611e8e57611e8d611c71565b5b5092915050565b5f606082019050611ea85f830186611a8d565b611eb56020830185611917565b611ec26040830184611917565b949350505050565b5f604082019050611edd5f830185611a8d565b611eea6020830184611917565b9392505050565b5f606082019050611f045f830186611a8d565b611f116020830185611a8d565b611f1e6040830184611917565b949350505050565b7f4e487b71000000000000000000000000000000000000000000000000000000005f52604160045260245ffd5b5f81519050919050565b5f81905092915050565b5f611f7182611f53565b611f7b8185611f5d565b9350611f8b81856020860161179f565b80840191505092915050565b5f611fa28284611f67565b915081905092915050565b7f5472616e7366657248656c7065723a3a736166655472616e736665724554483a5f8201527f20455448207472616e73666572206661696c6564000000000000000000000000602082015250565b5f61200760348361178f565b915061201282611fad565b604082019050919050565b5f6020820190508181035f83015261203481611ffb565b9050919050565b5f61204582611873565b915061205083611873565b925082820190508082111561206857612067611c71565b5b92915050565b612077816118e4565b8114612081575f5ffd5b50565b5f815190506120928161206e565b92915050565b5f602082840312156120ad576120ac611815565b5b5f6120ba84828501612084565b9150509291505056fea26469706673582212209a4f95c4b892dfe0197508d4f4588e3bab2911227899c52fe1881ceff65f3af264736f6c634300081b0033",
					"opcodes": "PUSH1 0x80 PUSH1 0x40 MSTORE CALLVALUE DUP1 ISZERO PUSH2 0xF JUMPI PUSH0 PUSH0 REVERT JUMPDEST POP PUSH1 0x40 MLOAD PUSH2 0x28A2 CODESIZE SUB DUP1 PUSH2 0x28A2 DUP4 CODECOPY DUP2 DUP2 ADD PUSH1 0x40 MSTORE DUP2 ADD SWAP1 PUSH2 0x31 SWAP2 SWAP1 PUSH2 0x404 JUMP JUMPDEST CALLER PUSH1 0x40 MLOAD DUP1 PUSH1 0x40 ADD PUSH1 0x40 MSTORE DUP1 PUSH1 0x1D DUP2 MSTORE PUSH1 0x20 ADD PUSH32 0xE68891E79A84E6B58BE8AF95E79C8BE5A49AE69C9FE69D83546F6B656E000000 DUP2 MSTORE POP PUSH1 0x40 MLOAD DUP1 PUSH1 0x40 ADD PUSH1 0x40 MSTORE DUP1 PUSH1 0x9 DUP2 MSTORE PUSH1 0x20 ADD PUSH32 0x43414C4C544F4B454E0000000000000000000000000000000000000000000000 DUP2 MSTORE POP DUP2 PUSH1 0x3 SWAP1 DUP2 PUSH2 0xAD SWAP2 SWAP1 PUSH2 0x6A5 JUMP JUMPDEST POP DUP1 PUSH1 0x4 SWAP1 DUP2 PUSH2 0xBD SWAP2 SWAP1 PUSH2 0x6A5 JUMP JUMPDEST POP POP POP PUSH0 PUSH20 0xFFFFFFFFFFFFFFFFFFFFFFFFFFFFFFFFFFFFFFFF AND DUP2 PUSH20 0xFFFFFFFFFFFFFFFFFFFFFFFFFFFFFFFFFFFFFFFF AND SUB PUSH2 0x130 JUMPI PUSH0 PUSH1 0x40 MLOAD PUSH32 0x1E4FBDF700000000000000000000000000000000000000000000000000000000 DUP2 MSTORE PUSH1 0x4 ADD PUSH2 0x127 SWAP2 SWAP1 PUSH2 0x783 JUMP JUMPDEST PUSH1 0x40 MLOAD DUP1 SWAP2 SUB SWAP1 REVERT JUMPDEST PUSH2 0x13F DUP2 PUSH2 0x213 PUSH1 0x20 SHL PUSH1 0x20 SHR JUMP JUMPDEST POP DUP3 PUSH1 0x7 PUSH0 PUSH2 0x100 EXP DUP2 SLOAD DUP2 PUSH16 0xFFFFFFFFFFFFFFFFFFFFFFFFFFFFFFFF MUL NOT AND SWAP1 DUP4 PUSH16 0xFFFFFFFFFFFFFFFFFFFFFFFFFFFFFFFF AND MUL OR SWAP1 SSTORE POP DUP2 PUSH1 0x7 PUSH1 0x10 PUSH2 0x100 EXP DUP2 SLOAD DUP2 PUSH12 0xFFFFFFFFFFFFFFFFFFFFFFFF MUL NOT AND SWAP1 DUP4 PUSH12 0xFFFFFFFFFFFFFFFFFFFFFFFF AND MUL OR SWAP1 SSTORE POP DUP1 PUSH1 0x7 PUSH1 0x1C PUSH2 0x100 EXP DUP2 SLOAD DUP2 PUSH4 0xFFFFFFFF MUL NOT AND SWAP1 DUP4 PUSH4 0xFFFFFFFF AND MUL OR SWAP1 SSTORE POP DUP4 PUSH1 0x6 PUSH0 PUSH2 0x100 EXP DUP2 SLOAD DUP2 PUSH20 0xFFFFFFFFFFFFFFFFFFFFFFFFFFFFFFFFFFFFFFFF MUL NOT AND SWAP1 DUP4 PUSH20 0xFFFFFFFFFFFFFFFFFFFFFFFFFFFFFFFFFFFFFFFF AND MUL OR SWAP1 SSTORE POP POP POP POP POP PUSH2 0x79C JUMP JUMPDEST PUSH0 PUSH1 0x5 PUSH0 SWAP1 SLOAD SWAP1 PUSH2 0x100 EXP SWAP1 DIV PUSH20 0xFFFFFFFFFFFFFFFFFFFFFFFFFFFFFFFFFFFFFFFF AND SWAP1 POP DUP2 PUSH1 0x5 PUSH0 PUSH2 0x100 EXP DUP2 SLOAD DUP2 PUSH20 0xFFFFFFFFFFFFFFFFFFFFFFFFFFFFFFFFFFFFFFFF MUL NOT AND SWAP1 DUP4 PUSH20 0xFFFFFFFFFFFFFFFFFFFFFFFFFFFFFFFFFFFFFFFF AND MUL OR SWAP1 SSTORE POP DUP2 PUSH20 0xFFFFFFFFFFFFFFFFFFFFFFFFFFFFFFFFFFFFFFFF AND DUP2 PUSH20 0xFFFFFFFFFFFFFFFFFFFFFFFFFFFFFFFFFFFFFFFF AND PUSH32 0x8BE0079C531659141344CD1FD0A4F28419497F9722A3DAAFE3B4186F6B6457E0 PUSH1 0x40 MLOAD PUSH1 0x40 MLOAD DUP1 SWAP2 SUB SWAP1 LOG3 POP POP JUMP JUMPDEST PUSH0 PUSH0 REVERT JUMPDEST PUSH0 PUSH20 0xFFFFFFFFFFFFFFFFFFFFFFFFFFFFFFFFFFFFFFFF DUP3 AND SWAP1 POP SWAP2 SWAP1 POP JUMP JUMPDEST PUSH0 PUSH2 0x303 DUP3 PUSH2 0x2DA JUMP JUMPDEST SWAP1 POP SWAP2 SWAP1 POP JUMP JUMPDEST PUSH0 PUSH2 0x314 DUP3 PUSH2 0x2F9 JUMP JUMPDEST SWAP1 POP SWAP2 SWAP1 POP JUMP JUMPDEST PUSH2 0x324 DUP2 PUSH2 0x30A JUMP JUMPDEST DUP2 EQ PUSH2 0x32E JUMPI PUSH0 PUSH0 REVERT JUMPDEST POP JUMP JUMPDEST PUSH0 DUP2 MLOAD SWAP1 POP PUSH2 0x33F DUP2 PUSH2 0x31B JUMP JUMPDEST SWAP3 SWAP2 POP POP JUMP JUMPDEST PUSH0 PUSH16 0xFFFFFFFFFFFFFFFFFFFFFFFFFFFFFFFF DUP3 AND SWAP1 POP SWAP2 SWAP1 POP JUMP JUMPDEST PUSH2 0x369 DUP2 PUSH2 0x345 JUMP JUMPDEST DUP2 EQ PUSH2 0x373 JUMPI PUSH0 PUSH0 REVERT JUMPDEST POP JUMP JUMPDEST PUSH0 DUP2 MLOAD SWAP1 POP PUSH2 0x384 DUP2 PUSH2 0x360 JUMP JUMPDEST SWAP3 SWAP2 POP POP JUMP JUMPDEST PUSH0 PUSH12 0xFFFFFFFFFFFFFFFFFFFFFFFF DUP3 AND SWAP1 POP SWAP2 SWAP1 POP JUMP JUMPDEST PUSH2 0x3AA DUP2 PUSH2 0x38A JUMP JUMPDEST DUP2 EQ PUSH2 0x3B4 JUMPI PUSH0 PUSH0 REVERT JUMPDEST POP JUMP JUMPDEST PUSH0 DUP2 MLOAD SWAP1 POP PUSH2 0x3C5 DUP2 PUSH2 0x3A1 JUMP JUMPDEST SWAP3 SWAP2 POP POP JUMP JUMPDEST PUSH0 PUSH4 0xFFFFFFFF DUP3 AND SWAP1 POP SWAP2 SWAP1 POP JUMP JUMPDEST PUSH2 0x3E3 DUP2 PUSH2 0x3CB JUMP JUMPDEST DUP2 EQ PUSH2 0x3ED JUMPI PUSH0 PUSH0 REVERT JUMPDEST POP JUMP JUMPDEST PUSH0 DUP2 MLOAD SWAP1 POP PUSH2 0x3FE DUP2 PUSH2 0x3DA JUMP JUMPDEST SWAP3 SWAP2 POP POP JUMP JUMPDEST PUSH0 PUSH0 PUSH0 PUSH0 PUSH1 0x80 DUP6 DUP8 SUB SLT ISZERO PUSH2 0x41C JUMPI PUSH2 0x41B PUSH2 0x2D6 JUMP JUMPDEST JUMPDEST PUSH0 PUSH2 0x429 DUP8 DUP3 DUP9 ADD PUSH2 0x331 JUMP JUMPDEST SWAP5 POP POP PUSH1 0x20 PUSH2 0x43A DUP8 DUP3 DUP9 ADD PUSH2 0x376 JUMP JUMPDEST SWAP4 POP POP PUSH1 0x40 PUSH2 0x44B DUP8 DUP3 DUP9 ADD PUSH2 0x3B7 JUMP JUMPDEST SWAP3 POP POP PUSH1 0x60 PUSH2 0x45C DUP8 DUP3 DUP9 ADD PUSH2 0x3F0 JUMP JUMPDEST SWAP2 POP POP SWAP3 SWAP6 SWAP2 SWAP5 POP SWAP3 POP JUMP JUMPDEST PUSH0 DUP2 MLOAD SWAP1 POP SWAP2 SWAP1 POP JUMP JUMPDEST PUSH32 0x4E487B7100000000000000000000000000000000000000000000000000000000 PUSH0 MSTORE PUSH1 0x41 PUSH1 0x4 MSTORE PUSH1 0x24 PUSH0 REVERT JUMPDEST PUSH32 0x4E487B7100000000000000000000000000000000000000000000000000000000 PUSH0 MSTORE PUSH1 0x22 PUSH1 0x4 MSTORE PUSH1 0x24 PUSH0 REVERT JUMPDEST PUSH0 PUSH1 0x2 DUP3 DIV SWAP1 POP PUSH1 0x1 DUP3 AND DUP1 PUSH2 0x4E3 JUMPI PUSH1 0x7F DUP3 AND SWAP2 POP JUMPDEST PUSH1 0x20 DUP3 LT DUP2 SUB PUSH2 0x4F6 JUMPI PUSH2 0x4F5 PUSH2 0x49F JUMP JUMPDEST JUMPDEST POP SWAP2 SWAP1 POP JUMP JUMPDEST PUSH0 DUP2 SWAP1 POP DUP2 PUSH0 MSTORE PUSH1 0x20 PUSH0 KECCAK256 SWAP1 POP SWAP2 SWAP1 POP JUMP JUMPDEST PUSH0 PUSH1 0x20 PUSH1 0x1F DUP4 ADD DIV SWAP1 POP SWAP2 SWAP1 POP JUMP JUMPDEST PUSH0 DUP3 DUP3 SHL SWAP1 POP SWAP3 SWAP2 POP POP JUMP JUMPDEST PUSH0 PUSH1 0x8 DUP4 MUL PUSH2 0x558 PUSH32 0xFFFFFFFFFFFFFFFFFFFFFFFFFFFFFFFFFFFFFFFFFFFFFFFFFFFFFFFFFFFFFFFF DUP3 PUSH2 0x51D JUMP JUMPDEST PUSH2 0x562 DUP7 DUP4 PUSH2 0x51D JUMP JUMPDEST SWAP6 POP DUP1 NOT DUP5 AND SWAP4 POP DUP1 DUP7 AND DUP5 OR SWAP3 POP POP POP SWAP4 SWAP3 POP POP POP JUMP JUMPDEST PUSH0 DUP2 SWAP1 POP SWAP2 SWAP1 POP JUMP JUMPDEST PUSH0 DUP2 SWAP1 POP SWAP2 SWAP1 POP JUMP JUMPDEST PUSH0 PUSH2 0x5A6 PUSH2 0x5A1 PUSH2 0x59C DUP5 PUSH2 0x57A JUMP JUMPDEST PUSH2 0x583 JUMP JUMPDEST PUSH2 0x57A JUMP JUMPDEST SWAP1 POP SWAP2 SWAP1 POP JUMP JUMPDEST PUSH0 DUP2 SWAP1 POP SWAP2 SWAP1 POP JUMP JUMPDEST PUSH2 0x5BF DUP4 PUSH2 0x58C JUMP JUMPDEST PUSH2 0x5D3 PUSH2 0x5CB DUP3 PUSH2 0x5AD JUMP JUMPDEST DUP5 DUP5 SLOAD PUSH2 0x529 JUMP JUMPDEST DUP3 SSTORE POP POP POP POP JUMP JUMPDEST PUSH0 PUSH0 SWAP1 POP SWAP1 JUMP JUMPDEST PUSH2 0x5EA PUSH2 0x5DB JUMP JUMPDEST PUSH2 0x5F5 DUP2 DUP5 DUP5 PUSH2 0x5B6 JUMP JUMPDEST POP POP POP JUMP JUMPDEST JUMPDEST DUP2 DUP2 LT ISZERO PUSH2 0x618 JUMPI PUSH2 0x60D PUSH0 DUP3 PUSH2 0x5E2 JUMP JUMPDEST PUSH1 0x1 DUP2 ADD SWAP1 POP PUSH2 0x5FB JUMP JUMPDEST POP POP JUMP JUMPDEST PUSH1 0x1F DUP3 GT ISZERO PUSH2 0x65D JUMPI PUSH2 0x62E DUP2 PUSH2 0x4FC JUMP JUMPDEST PUSH2 0x637 DUP5 PUSH2 0x50E JUMP JUMPDEST DUP2 ADD PUSH1 0x20 DUP6 LT ISZERO PUSH2 0x646 JUMPI DUP2 SWAP1 POP JUMPDEST PUSH2 0x65A PUSH2 0x652 DUP6 PUSH2 0x50E JUMP JUMPDEST DUP4 ADD DUP3 PUSH2 0x5FA JUMP JUMPDEST POP POP JUMPDEST POP POP POP JUMP JUMPDEST PUSH0 DUP3 DUP3 SHR SWAP1 POP SWAP3 SWAP2 POP POP JUMP JUMPDEST PUSH0 PUSH2 0x67D PUSH0 NOT DUP5 PUSH1 0x8 MUL PUSH2 0x662 JUMP JUMPDEST NOT DUP1 DUP4 AND SWAP2 POP POP SWAP3 SWAP2 POP POP JUMP JUMPDEST PUSH0 PUSH2 0x695 DUP4 DUP4 PUSH2 0x66E JUMP JUMPDEST SWAP2 POP DUP3 PUSH1 0x2 MUL DUP3 OR SWAP1 POP SWAP3 SWAP2 POP POP JUMP JUMPDEST PUSH2 0x6AE DUP3 PUSH2 0x468 JUMP JUMPDEST PUSH8 0xFFFFFFFFFFFFFFFF DUP2 GT ISZERO PUSH2 0x6C7 JUMPI PUSH2 0x6C6 PUSH2 0x472 JUMP JUMPDEST JUMPDEST PUSH2 0x6D1 DUP3 SLOAD PUSH2 0x4CC JUMP JUMPDEST PUSH2 0x6DC DUP3 DUP3 DUP6 PUSH2 0x61C JUMP JUMPDEST PUSH0 PUSH1 0x20 SWAP1 POP PUSH1 0x1F DUP4 GT PUSH1 0x1 DUP2 EQ PUSH2 0x70D JUMPI PUSH0 DUP5 ISZERO PUSH2 0x6FB JUMPI DUP3 DUP8 ADD MLOAD SWAP1 POP JUMPDEST PUSH2 0x705 DUP6 DUP3 PUSH2 0x68A JUMP JUMPDEST DUP7 SSTORE POP PUSH2 0x76C JUMP JUMPDEST PUSH1 0x1F NOT DUP5 AND PUSH2 0x71B DUP7 PUSH2 0x4FC JUMP JUMPDEST PUSH0 JUMPDEST DUP3 DUP2 LT ISZERO PUSH2 0x742 JUMPI DUP5 DUP10 ADD MLOAD DUP3 SSTORE PUSH1 0x1 DUP3 ADD SWAP2 POP PUSH1 0x20 DUP6 ADD SWAP5 POP PUSH1 0x20 DUP2 ADD SWAP1 POP PUSH2 0x71D JUMP JUMPDEST DUP7 DUP4 LT ISZERO PUSH2 0x75F JUMPI DUP5 DUP10 ADD MLOAD PUSH2 0x75B PUSH1 0x1F DUP10 AND DUP3 PUSH2 0x66E JUMP JUMPDEST DUP4 SSTORE POP JUMPDEST PUSH1 0x1 PUSH1 0x2 DUP9 MUL ADD DUP9 SSTORE POP POP POP JUMPDEST POP POP POP POP POP POP JUMP JUMPDEST PUSH2 0x77D DUP2 PUSH2 0x2F9 JUMP JUMPDEST DUP3 MSTORE POP POP JUMP JUMPDEST PUSH0 PUSH1 0x20 DUP3 ADD SWAP1 POP PUSH2 0x796 PUSH0 DUP4 ADD DUP5 PUSH2 0x774 JUMP JUMPDEST SWAP3 SWAP2 POP POP JUMP JUMPDEST PUSH2 0x20F9 DUP1 PUSH2 0x7A9 PUSH0 CODECOPY PUSH0 RETURN INVALID PUSH1 0x80 PUSH1 0x40 MSTORE PUSH1 0x4 CALLDATASIZE LT PUSH2 0x113 JUMPI PUSH0 CALLDATALOAD PUSH1 0xE0 SHR DUP1 PUSH4 0x715018A6 GT PUSH2 0x9F JUMPI DUP1 PUSH4 0xA9059CBB GT PUSH2 0x63 JUMPI DUP1 PUSH4 0xA9059CBB EQ PUSH2 0x34F JUMPI DUP1 PUSH4 0xDD62ED3E EQ PUSH2 0x38B JUMPI DUP1 PUSH4 0xEC46C4EF EQ PUSH2 0x3C7 JUMPI DUP1 PUSH4 0xF2FDE38B EQ PUSH2 0x3F1 JUMPI DUP1 PUSH4 0xF8B75FB5 EQ PUSH2 0x419 JUMPI PUSH2 0x113 JUMP JUMPDEST DUP1 PUSH4 0x715018A6 EQ PUSH2 0x293 JUMPI DUP1 PUSH4 0x83B6FA98 EQ PUSH2 0x2A9 JUMPI DUP1 PUSH4 0x8DA5CB5B EQ PUSH2 0x2D1 JUMPI DUP1 PUSH4 0x95D89B41 EQ PUSH2 0x2FB JUMPI DUP1 PUSH4 0xA035B1FE EQ PUSH2 0x325 JUMPI PUSH2 0x113 JUMP JUMPDEST DUP1 PUSH4 0x313CE567 GT PUSH2 0xE6 JUMPI DUP1 PUSH4 0x313CE567 EQ PUSH2 0x1E3 JUMPI DUP1 PUSH4 0x384B2367 EQ PUSH2 0x20D JUMPI DUP1 PUSH4 0x3E413BEE EQ PUSH2 0x217 JUMPI DUP1 PUSH4 0x6BDEBCC9 EQ PUSH2 0x241 JUMPI DUP1 PUSH4 0x70A08231 EQ PUSH2 0x257 JUMPI PUSH2 0x113 JUMP JUMPDEST DUP1 PUSH4 0x6FDDE03 EQ PUSH2 0x117 JUMPI DUP1 PUSH4 0x95EA7B3 EQ PUSH2 0x141 JUMPI DUP1 PUSH4 0x18160DDD EQ PUSH2 0x17D JUMPI DUP1 PUSH4 0x23B872DD EQ PUSH2 0x1A7 JUMPI JUMPDEST PUSH0 PUSH0 REVERT JUMPDEST CALLVALUE DUP1 ISZERO PUSH2 0x122 JUMPI PUSH0 PUSH0 REVERT JUMPDEST POP PUSH2 0x12B PUSH2 0x443 JUMP JUMPDEST PUSH1 0x40 MLOAD PUSH2 0x138 SWAP2 SWAP1 PUSH2 0x17F5 JUMP JUMPDEST PUSH1 0x40 MLOAD DUP1 SWAP2 SUB SWAP1 RETURN JUMPDEST CALLVALUE DUP1 ISZERO PUSH2 0x14C JUMPI PUSH0 PUSH0 REVERT JUMPDEST POP PUSH2 0x167 PUSH1 0x4 DUP1 CALLDATASIZE SUB DUP2 ADD SWAP1 PUSH2 0x162 SWAP2 SWAP1 PUSH2 0x18A6 JUMP JUMPDEST PUSH2 0x4D3 JUMP JUMPDEST PUSH1 0x40 MLOAD PUSH2 0x174 SWAP2 SWAP1 PUSH2 0x18FE JUMP JUMPDEST PUSH1 0x40 MLOAD DUP1 SWAP2 SUB SWAP1 RETURN JUMPDEST CALLVALUE DUP1 ISZERO PUSH2 0x188 JUMPI PUSH0 PUSH0 REVERT JUMPDEST POP PUSH2 0x191 PUSH2 0x4F5 JUMP JUMPDEST PUSH1 0x40 MLOAD PUSH2 0x19E SWAP2 SWAP1 PUSH2 0x1926 JUMP JUMPDEST PUSH1 0x40 MLOAD DUP1 SWAP2 SUB SWAP1 RETURN JUMPDEST CALLVALUE DUP1 ISZERO PUSH2 0x1B2 JUMPI PUSH0 PUSH0 REVERT JUMPDEST POP PUSH2 0x1CD PUSH1 0x4 DUP1 CALLDATASIZE SUB DUP2 ADD SWAP1 PUSH2 0x1C8 SWAP2 SWAP1 PUSH2 0x193F JUMP JUMPDEST PUSH2 0x4FE JUMP JUMPDEST PUSH1 0x40 MLOAD PUSH2 0x1DA SWAP2 SWAP1 PUSH2 0x18FE JUMP JUMPDEST PUSH1 0x40 MLOAD DUP1 SWAP2 SUB SWAP1 RETURN JUMPDEST CALLVALUE DUP1 ISZERO PUSH2 0x1EE JUMPI PUSH0 PUSH0 REVERT JUMPDEST POP PUSH2 0x1F7 PUSH2 0x52C JUMP JUMPDEST PUSH1 0x40 MLOAD PUSH2 0x204 SWAP2 SWAP1 PUSH2 0x19AA JUMP JUMPDEST PUSH1 0x40 MLOAD DUP1 SWAP2 SUB SWAP1 RETURN JUMPDEST PUSH2 0x215 PUSH2 0x534 JUMP JUMPDEST STOP JUMPDEST CALLVALUE DUP1 ISZERO PUSH2 0x222 JUMPI PUSH0 PUSH0 REVERT JUMPDEST POP PUSH2 0x22B PUSH2 0x58A JUMP JUMPDEST PUSH1 0x40 MLOAD PUSH2 0x238 SWAP2 SWAP1 PUSH2 0x1A1E JUMP JUMPDEST PUSH1 0x40 MLOAD DUP1 SWAP2 SUB SWAP1 RETURN JUMPDEST CALLVALUE DUP1 ISZERO PUSH2 0x24C JUMPI PUSH0 PUSH0 REVERT JUMPDEST POP PUSH2 0x255 PUSH2 0x5AF JUMP JUMPDEST STOP JUMPDEST CALLVALUE DUP1 ISZERO PUSH2 0x262 JUMPI PUSH0 PUSH0 REVERT JUMPDEST POP PUSH2 0x27D PUSH1 0x4 DUP1 CALLDATASIZE SUB DUP2 ADD SWAP1 PUSH2 0x278 SWAP2 SWAP1 PUSH2 0x1A37 JUMP JUMPDEST PUSH2 0x742 JUMP JUMPDEST PUSH1 0x40 MLOAD PUSH2 0x28A SWAP2 SWAP1 PUSH2 0x1926 JUMP JUMPDEST PUSH1 0x40 MLOAD DUP1 SWAP2 SUB SWAP1 RETURN JUMPDEST CALLVALUE DUP1 ISZERO PUSH2 0x29E JUMPI PUSH0 PUSH0 REVERT JUMPDEST POP PUSH2 0x2A7 PUSH2 0x787 JUMP JUMPDEST STOP JUMPDEST CALLVALUE DUP1 ISZERO PUSH2 0x2B4 JUMPI PUSH0 PUSH0 REVERT JUMPDEST POP PUSH2 0x2CF PUSH1 0x4 DUP1 CALLDATASIZE SUB DUP2 ADD SWAP1 PUSH2 0x2CA SWAP2 SWAP1 PUSH2 0x1A62 JUMP JUMPDEST PUSH2 0x79A JUMP JUMPDEST STOP JUMPDEST CALLVALUE DUP1 ISZERO PUSH2 0x2DC JUMPI PUSH0 PUSH0 REVERT JUMPDEST POP PUSH2 0x2E5 PUSH2 0x945 JUMP JUMPDEST PUSH1 0x40 MLOAD PUSH2 0x2F2 SWAP2 SWAP1 PUSH2 0x1A9C JUMP JUMPDEST PUSH1 0x40 MLOAD DUP1 SWAP2 SUB SWAP1 RETURN JUMPDEST CALLVALUE DUP1 ISZERO PUSH2 0x306 JUMPI PUSH0 PUSH0 REVERT JUMPDEST POP PUSH2 0x30F PUSH2 0x96D JUMP JUMPDEST PUSH1 0x40 MLOAD PUSH2 0x31C SWAP2 SWAP1 PUSH2 0x17F5 JUMP JUMPDEST PUSH1 0x40 MLOAD DUP1 SWAP2 SUB SWAP1 RETURN JUMPDEST CALLVALUE DUP1 ISZERO PUSH2 0x330 JUMPI PUSH0 PUSH0 REVERT JUMPDEST POP PUSH2 0x339 PUSH2 0x9FD JUMP JUMPDEST PUSH1 0x40 MLOAD PUSH2 0x346 SWAP2 SWAP1 PUSH2 0x1ADF JUMP JUMPDEST PUSH1 0x40 MLOAD DUP1 SWAP2 SUB SWAP1 RETURN JUMPDEST CALLVALUE DUP1 ISZERO PUSH2 0x35A JUMPI PUSH0 PUSH0 REVERT JUMPDEST POP PUSH2 0x375 PUSH1 0x4 DUP1 CALLDATASIZE SUB DUP2 ADD SWAP1 PUSH2 0x370 SWAP2 SWAP1 PUSH2 0x18A6 JUMP JUMPDEST PUSH2 0xA1E JUMP JUMPDEST PUSH1 0x40 MLOAD PUSH2 0x382 SWAP2 SWAP1 PUSH2 0x18FE JUMP JUMPDEST PUSH1 0x40 MLOAD DUP1 SWAP2 SUB SWAP1 RETURN JUMPDEST CALLVALUE DUP1 ISZERO PUSH2 0x396 JUMPI PUSH0 PUSH0 REVERT JUMPDEST POP PUSH2 0x3B1 PUSH1 0x4 DUP1 CALLDATASIZE SUB DUP2 ADD SWAP1 PUSH2 0x3AC SWAP2 SWAP1 PUSH2 0x1AF8 JUMP JUMPDEST PUSH2 0xA40 JUMP JUMPDEST PUSH1 0x40 MLOAD PUSH2 0x3BE SWAP2 SWAP1 PUSH2 0x1926 JUMP JUMPDEST PUSH1 0x40 MLOAD DUP1 SWAP2 SUB SWAP1 RETURN JUMPDEST CALLVALUE DUP1 ISZERO PUSH2 0x3D2 JUMPI PUSH0 PUSH0 REVERT JUMPDEST POP PUSH2 0x3DB PUSH2 0xAC2 JUMP JUMPDEST PUSH1 0x40 MLOAD PUSH2 0x3E8 SWAP2 SWAP1 PUSH2 0x1B5C JUMP JUMPDEST PUSH1 0x40 MLOAD DUP1 SWAP2 SUB SWAP1 RETURN JUMPDEST CALLVALUE DUP1 ISZERO PUSH2 0x3FC JUMPI PUSH0 PUSH0 REVERT JUMPDEST POP PUSH2 0x417 PUSH1 0x4 DUP1 CALLDATASIZE SUB DUP2 ADD SWAP1 PUSH2 0x412 SWAP2 SWAP1 PUSH2 0x1A37 JUMP JUMPDEST PUSH2 0xAE0 JUMP JUMPDEST STOP JUMPDEST CALLVALUE DUP1 ISZERO PUSH2 0x424 JUMPI PUSH0 PUSH0 REVERT JUMPDEST POP PUSH2 0x42D PUSH2 0xB64 JUMP JUMPDEST PUSH1 0x40 MLOAD PUSH2 0x43A SWAP2 SWAP1 PUSH2 0x1B93 JUMP JUMPDEST PUSH1 0x40 MLOAD DUP1 SWAP2 SUB SWAP1 RETURN JUMPDEST PUSH1 0x60 PUSH1 0x3 DUP1 SLOAD PUSH2 0x452 SWAP1 PUSH2 0x1BD9 JUMP JUMPDEST DUP1 PUSH1 0x1F ADD PUSH1 0x20 DUP1 SWAP2 DIV MUL PUSH1 0x20 ADD PUSH1 0x40 MLOAD SWAP1 DUP2 ADD PUSH1 0x40 MSTORE DUP1 SWAP3 SWAP2 SWAP1 DUP2 DUP2 MSTORE PUSH1 0x20 ADD DUP3 DUP1 SLOAD PUSH2 0x47E SWAP1 PUSH2 0x1BD9 JUMP JUMPDEST DUP1 ISZERO PUSH2 0x4C9 JUMPI DUP1 PUSH1 0x1F LT PUSH2 0x4A0 JUMPI PUSH2 0x100 DUP1 DUP4 SLOAD DIV MUL DUP4 MSTORE SWAP2 PUSH1 0x20 ADD SWAP2 PUSH2 0x4C9 JUMP JUMPDEST DUP3 ADD SWAP2 SWAP1 PUSH0 MSTORE PUSH1 0x20 PUSH0 KECCAK256 SWAP1 JUMPDEST DUP2 SLOAD DUP2 MSTORE SWAP1 PUSH1 0x1 ADD SWAP1 PUSH1 0x20 ADD DUP1 DUP4 GT PUSH2 0x4AC JUMPI DUP3 SWAP1 SUB PUSH1 0x1F AND DUP3 ADD SWAP2 JUMPDEST POP POP POP POP POP SWAP1 POP SWAP1 JUMP JUMPDEST PUSH0 PUSH0 PUSH2 0x4DD PUSH2 0xB7A JUMP JUMPDEST SWAP1 POP PUSH2 0x4EA DUP2 DUP6 DUP6 PUSH2 0xB81 JUMP JUMPDEST PUSH1 0x1 SWAP2 POP POP SWAP3 SWAP2 POP POP JUMP JUMPDEST PUSH0 PUSH1 0x2 SLOAD SWAP1 POP SWAP1 JUMP JUMPDEST PUSH0 PUSH0 PUSH2 0x508 PUSH2 0xB7A JUMP JUMPDEST SWAP1 POP PUSH2 0x515 DUP6 DUP3 DUP6 PUSH2 0xB93 JUMP JUMPDEST PUSH2 0x520 DUP6 DUP6 DUP6 PUSH2 0xC25 JUMP JUMPDEST PUSH1 0x1 SWAP2 POP POP SWAP4 SWAP3 POP POP POP JUMP JUMPDEST PUSH0 PUSH1 0x12 SWAP1 POP SWAP1 JUMP JUMPDEST PUSH2 0x53C PUSH2 0xD15 JUMP JUMPDEST PUSH0 CALLVALUE GT PUSH2 0x57E JUMPI PUSH1 0x40 MLOAD PUSH32 0x8C379A000000000000000000000000000000000000000000000000000000000 DUP2 MSTORE PUSH1 0x4 ADD PUSH2 0x575 SWAP1 PUSH2 0x1C53 JUMP JUMPDEST PUSH1 0x40 MLOAD DUP1 SWAP2 SUB SWAP1 REVERT JUMPDEST PUSH2 0x588 CALLER CALLVALUE PUSH2 0xD9C JUMP JUMPDEST JUMP JUMPDEST PUSH1 0x6 PUSH0 SWAP1 SLOAD SWAP1 PUSH2 0x100 EXP SWAP1 DIV PUSH20 0xFFFFFFFFFFFFFFFFFFFFFFFFFFFFFFFFFFFFFFFF AND DUP2 JUMP JUMPDEST PUSH2 0x5B7 PUSH2 0xD15 JUMP JUMPDEST PUSH1 0x7 PUSH1 0x1C SWAP1 SLOAD SWAP1 PUSH2 0x100 EXP SWAP1 DIV PUSH4 0xFFFFFFFF AND PUSH4 0xFFFFFFFF AND PUSH1 0x7 PUSH1 0x10 SWAP1 SLOAD SWAP1 PUSH2 0x100 EXP SWAP1 DIV PUSH12 0xFFFFFFFFFFFFFFFFFFFFFFFF AND PUSH2 0x5F5 SWAP2 SWAP1 PUSH2 0x1C9E JUMP JUMPDEST PUSH12 0xFFFFFFFFFFFFFFFFFFFFFFFF AND TIMESTAMP LT ISZERO PUSH2 0x645 JUMPI PUSH1 0x40 MLOAD PUSH32 0x8C379A000000000000000000000000000000000000000000000000000000000 DUP2 MSTORE PUSH1 0x4 ADD PUSH2 0x63C SWAP1 PUSH2 0x1D27 JUMP JUMPDEST PUSH1 0x40 MLOAD DUP1 SWAP2 SUB SWAP1 REVERT JUMPDEST PUSH2 0x729 CALLER PUSH1 0x6 PUSH0 SWAP1 SLOAD SWAP1 PUSH2 0x100 EXP SWAP1 DIV PUSH20 0xFFFFFFFFFFFFFFFFFFFFFFFFFFFFFFFFFFFFFFFF AND PUSH20 0xFFFFFFFFFFFFFFFFFFFFFFFFFFFFFFFFFFFFFFFF AND PUSH4 0x70A08231 ADDRESS PUSH1 0x40 MLOAD DUP3 PUSH4 0xFFFFFFFF AND PUSH1 0xE0 SHL DUP2 MSTORE PUSH1 0x4 ADD PUSH2 0x6A3 SWAP2 SWAP1 PUSH2 0x1A9C JUMP JUMPDEST PUSH1 0x20 PUSH1 0x40 MLOAD DUP1 DUP4 SUB DUP2 DUP7 GAS STATICCALL ISZERO DUP1 ISZERO PUSH2 0x6BE JUMPI RETURNDATASIZE PUSH0 PUSH0 RETURNDATACOPY RETURNDATASIZE PUSH0 REVERT JUMPDEST POP POP POP POP PUSH1 0x40 MLOAD RETURNDATASIZE PUSH1 0x1F NOT PUSH1 0x1F DUP3 ADD AND DUP3 ADD DUP1 PUSH1 0x40 MSTORE POP DUP2 ADD SWAP1 PUSH2 0x6E2 SWAP2 SWAP1 PUSH2 0x1D59 JUMP JUMPDEST PUSH1 0x6 PUSH0 SWAP1 SLOAD SWAP1 PUSH2 0x100 EXP SWAP1 DIV PUSH20 0xFFFFFFFFFFFFFFFFFFFFFFFFFFFFFFFFFFFFFFFF AND PUSH20 0xFFFFFFFFFFFFFFFFFFFFFFFFFFFFFFFFFFFFFFFF AND PUSH2 0xE1B SWAP1 SWAP3 SWAP2 SWAP1 PUSH4 0xFFFFFFFF AND JUMP JUMPDEST CALLER PUSH20 0xFFFFFFFFFFFFFFFFFFFFFFFFFFFFFFFFFFFFFFFF AND SELFDESTRUCT JUMPDEST PUSH0 PUSH0 PUSH0 DUP4 PUSH20 0xFFFFFFFFFFFFFFFFFFFFFFFFFFFFFFFFFFFFFFFF AND PUSH20 0xFFFFFFFFFFFFFFFFFFFFFFFFFFFFFFFFFFFFFFFF AND DUP2 MSTORE PUSH1 0x20 ADD SWAP1 DUP2 MSTORE PUSH1 0x20 ADD PUSH0 KECCAK256 SLOAD SWAP1 POP SWAP2 SWAP1 POP JUMP JUMPDEST PUSH2 0x78F PUSH2 0xD15 JUMP JUMPDEST PUSH2 0x798 PUSH0 PUSH2 0xE9A JUMP JUMPDEST JUMP JUMPDEST PUSH1 0x7 PUSH1 0x10 SWAP1 SLOAD SWAP1 PUSH2 0x100 EXP SWAP1 DIV PUSH12 0xFFFFFFFFFFFFFFFFFFFFFFFF AND PUSH12 0xFFFFFFFFFFFFFFFFFFFFFFFF AND TIMESTAMP LT ISZERO DUP1 ISZERO PUSH2 0x81C JUMPI POP PUSH1 0x7 PUSH1 0x1C SWAP1 SLOAD SWAP1 PUSH2 0x100 EXP SWAP1 DIV PUSH4 0xFFFFFFFF AND PUSH4 0xFFFFFFFF AND PUSH1 0x7 PUSH1 0x10 SWAP1 SLOAD SWAP1 PUSH2 0x100 EXP SWAP1 DIV PUSH12 0xFFFFFFFFFFFFFFFFFFFFFFFF AND PUSH2 0x80B SWAP2 SWAP1 PUSH2 0x1C9E JUMP JUMPDEST PUSH12 0xFFFFFFFFFFFFFFFFFFFFFFFF AND TIMESTAMP LT JUMPDEST PUSH2 0x85B JUMPI PUSH1 0x40 MLOAD PUSH32 0x8C379A000000000000000000000000000000000000000000000000000000000 DUP2 MSTORE PUSH1 0x4 ADD PUSH2 0x852 SWAP1 PUSH2 0x1DCE JUMP JUMPDEST PUSH1 0x40 MLOAD DUP1 SWAP2 SUB SWAP1 REVERT JUMPDEST DUP1 PUSH2 0x865 CALLER PUSH2 0x742 JUMP JUMPDEST LT ISZERO PUSH2 0x8A6 JUMPI PUSH1 0x40 MLOAD PUSH32 0x8C379A000000000000000000000000000000000000000000000000000000000 DUP2 MSTORE PUSH1 0x4 ADD PUSH2 0x89D SWAP1 PUSH2 0x1E36 JUMP JUMPDEST PUSH1 0x40 MLOAD DUP1 SWAP2 SUB SWAP1 REVERT JUMPDEST PUSH2 0x8B0 CALLER DUP3 PUSH2 0xF5D JUMP JUMPDEST PUSH2 0x938 CALLER ADDRESS PUSH1 0x7 PUSH0 SWAP1 SLOAD SWAP1 PUSH2 0x100 EXP SWAP1 DIV PUSH16 0xFFFFFFFFFFFFFFFFFFFFFFFFFFFFFFFF AND PUSH16 0xFFFFFFFFFFFFFFFFFFFFFFFFFFFFFFFF AND DUP5 PUSH2 0x8F0 SWAP2 SWAP1 PUSH2 0x1E54 JUMP JUMPDEST PUSH1 0x6 PUSH0 SWAP1 SLOAD SWAP1 PUSH2 0x100 EXP SWAP1 DIV PUSH20 0xFFFFFFFFFFFFFFFFFFFFFFFFFFFFFFFFFFFFFFFF AND PUSH20 0xFFFFFFFFFFFFFFFFFFFFFFFFFFFFFFFFFFFFFFFF AND PUSH2 0xFDC SWAP1 SWAP4 SWAP3 SWAP2 SWAP1 PUSH4 0xFFFFFFFF AND JUMP JUMPDEST PUSH2 0x942 CALLER DUP3 PUSH2 0x105E JUMP JUMPDEST POP JUMP JUMPDEST PUSH0 PUSH1 0x5 PUSH0 SWAP1 SLOAD SWAP1 PUSH2 0x100 EXP SWAP1 DIV PUSH20 0xFFFFFFFFFFFFFFFFFFFFFFFFFFFFFFFFFFFFFFFF AND SWAP1 POP SWAP1 JUMP JUMPDEST PUSH1 0x60 PUSH1 0x4 DUP1 SLOAD PUSH2 0x97C SWAP1 PUSH2 0x1BD9 JUMP JUMPDEST DUP1 PUSH1 0x1F ADD PUSH1 0x20 DUP1 SWAP2 DIV MUL PUSH1 0x20 ADD PUSH1 0x40 MLOAD SWAP1 DUP2 ADD PUSH1 0x40 MSTORE DUP1 SWAP3 SWAP2 SWAP1 DUP2 DUP2 MSTORE PUSH1 0x20 ADD DUP3 DUP1 SLOAD PUSH2 0x9A8 SWAP1 PUSH2 0x1BD9 JUMP JUMPDEST DUP1 ISZERO PUSH2 0x9F3 JUMPI DUP1 PUSH1 0x1F LT PUSH2 0x9CA JUMPI PUSH2 0x100 DUP1 DUP4 SLOAD DIV MUL DUP4 MSTORE SWAP2 PUSH1 0x20 ADD SWAP2 PUSH2 0x9F3 JUMP JUMPDEST DUP3 ADD SWAP2 SWAP1 PUSH0 MSTORE PUSH1 0x20 PUSH0 KECCAK256 SWAP1 JUMPDEST DUP2 SLOAD DUP2 MSTORE SWAP1 PUSH1 0x1 ADD SWAP1 PUSH1 0x20 ADD DUP1 DUP4 GT PUSH2 0x9D6 JUMPI DUP3 SWAP1 SUB PUSH1 0x1F AND DUP3 ADD SWAP2 JUMPDEST POP POP POP POP POP SWAP1 POP SWAP1 JUMP JUMPDEST PUSH1 0x7 PUSH0 SWAP1 SLOAD SWAP1 PUSH2 0x100 EXP SWAP1 DIV PUSH16 0xFFFFFFFFFFFFFFFFFFFFFFFFFFFFFFFF AND DUP2 JUMP JUMPDEST PUSH0 PUSH0 PUSH2 0xA28 PUSH2 0xB7A JUMP JUMPDEST SWAP1 POP PUSH2 0xA35 DUP2 DUP6 DUP6 PUSH2 0xC25 JUMP JUMPDEST PUSH1 0x1 SWAP2 POP POP SWAP3 SWAP2 POP POP JUMP JUMPDEST PUSH0 PUSH1 0x1 PUSH0 DUP5 PUSH20 0xFFFFFFFFFFFFFFFFFFFFFFFFFFFFFFFFFFFFFFFF AND PUSH20 0xFFFFFFFFFFFFFFFFFFFFFFFFFFFFFFFFFFFFFFFF AND DUP2 MSTORE PUSH1 0x20 ADD SWAP1 DUP2 MSTORE PUSH1 0x20 ADD PUSH0 KECCAK256 PUSH0 DUP4 PUSH20 0xFFFFFFFFFFFFFFFFFFFFFFFFFFFFFFFFFFFFFFFF AND PUSH20 0xFFFFFFFFFFFFFFFFFFFFFFFFFFFFFFFFFFFFFFFF AND DUP2 MSTORE PUSH1 0x20 ADD SWAP1 DUP2 MSTORE PUSH1 0x20 ADD PUSH0 KECCAK256 SLOAD SWAP1 POP SWAP3 SWAP2 POP POP JUMP JUMPDEST PUSH1 0x7 PUSH1 0x10 SWAP1 SLOAD SWAP1 PUSH2 0x100 EXP SWAP1 DIV PUSH12 0xFFFFFFFFFFFFFFFFFFFFFFFF AND DUP2 JUMP JUMPDEST PUSH2 0xAE8 PUSH2 0xD15 JUMP JUMPDEST PUSH0 PUSH20 0xFFFFFFFFFFFFFFFFFFFFFFFFFFFFFFFFFFFFFFFF AND DUP2 PUSH20 0xFFFFFFFFFFFFFFFFFFFFFFFFFFFFFFFFFFFFFFFF AND SUB PUSH2 0xB58 JUMPI PUSH0 PUSH1 0x40 MLOAD PUSH32 0x1E4FBDF700000000000000000000000000000000000000000000000000000000 DUP2 MSTORE PUSH1 0x4 ADD PUSH2 0xB4F SWAP2 SWAP1 PUSH2 0x1A9C JUMP JUMPDEST PUSH1 0x40 MLOAD DUP1 SWAP2 SUB SWAP1 REVERT JUMPDEST PUSH2 0xB61 DUP2 PUSH2 0xE9A JUMP JUMPDEST POP JUMP JUMPDEST PUSH1 0x7 PUSH1 0x1C SWAP1 SLOAD SWAP1 PUSH2 0x100 EXP SWAP1 DIV PUSH4 0xFFFFFFFF AND DUP2 JUMP JUMPDEST PUSH0 CALLER SWAP1 POP SWAP1 JUMP JUMPDEST PUSH2 0xB8E DUP4 DUP4 DUP4 PUSH1 0x1 PUSH2 0x1159 JUMP JUMPDEST POP POP POP JUMP JUMPDEST PUSH0 PUSH2 0xB9E DUP5 DUP5 PUSH2 0xA40 JUMP JUMPDEST SWAP1 POP PUSH32 0xFFFFFFFFFFFFFFFFFFFFFFFFFFFFFFFFFFFFFFFFFFFFFFFFFFFFFFFFFFFFFFFF DUP2 EQ PUSH2 0xC1F JUMPI DUP2 DUP2 LT ISZERO PUSH2 0xC10 JUMPI DUP3 DUP2 DUP4 PUSH1 0x40 MLOAD PUSH32 0xFB8F41B200000000000000000000000000000000000000000000000000000000 DUP2 MSTORE PUSH1 0x4 ADD PUSH2 0xC07 SWAP4 SWAP3 SWAP2 SWAP1 PUSH2 0x1E95 JUMP JUMPDEST PUSH1 0x40 MLOAD DUP1 SWAP2 SUB SWAP1 REVERT JUMPDEST PUSH2 0xC1E DUP5 DUP5 DUP5 DUP5 SUB PUSH0 PUSH2 0x1159 JUMP JUMPDEST JUMPDEST POP POP POP POP JUMP JUMPDEST PUSH0 PUSH20 0xFFFFFFFFFFFFFFFFFFFFFFFFFFFFFFFFFFFFFFFF AND DUP4 PUSH20 0xFFFFFFFFFFFFFFFFFFFFFFFFFFFFFFFFFFFFFFFF AND SUB PUSH2 0xC95 JUMPI PUSH0 PUSH1 0x40 MLOAD PUSH32 0x96C6FD1E00000000000000000000000000000000000000000000000000000000 DUP2 MSTORE PUSH1 0x4 ADD PUSH2 0xC8C SWAP2 SWAP1 PUSH2 0x1A9C JUMP JUMPDEST PUSH1 0x40 MLOAD DUP1 SWAP2 SUB SWAP1 REVERT JUMPDEST PUSH0 PUSH20 0xFFFFFFFFFFFFFFFFFFFFFFFFFFFFFFFFFFFFFFFF AND DUP3 PUSH20 0xFFFFFFFFFFFFFFFFFFFFFFFFFFFFFFFFFFFFFFFF AND SUB PUSH2 0xD05 JUMPI PUSH0 PUSH1 0x40 MLOAD PUSH32 0xEC442F0500000000000000000000000000000000000000000000000000000000 DUP2 MSTORE PUSH1 0x4 ADD PUSH2 0xCFC SWAP2 SWAP1 PUSH2 0x1A9C JUMP JUMPDEST PUSH1 0x40 MLOAD DUP1 SWAP2 SUB SWAP1 REVERT JUMPDEST PUSH2 0xD10 DUP4 DUP4 DUP4 PUSH2 0x1328 JUMP JUMPDEST POP POP POP JUMP JUMPDEST PUSH2 0xD1D PUSH2 0xB7A JUMP JUMPDEST PUSH20 0xFFFFFFFFFFFFFFFFFFFFFFFFFFFFFFFFFFFFFFFF AND PUSH2 0xD3B PUSH2 0x945 JUMP JUMPDEST PUSH20 0xFFFFFFFFFFFFFFFFFFFFFFFFFFFFFFFFFFFFFFFF AND EQ PUSH2 0xD9A JUMPI PUSH2 0xD5E PUSH2 0xB7A JUMP JUMPDEST PUSH1 0x40 MLOAD PUSH32 0x118CDAA700000000000000000000000000000000000000000000000000000000 DUP2 MSTORE PUSH1 0x4 ADD PUSH2 0xD91 SWAP2 SWAP1 PUSH2 0x1A9C JUMP JUMPDEST PUSH1 0x40 MLOAD DUP1 SWAP2 SUB SWAP1 REVERT JUMPDEST JUMP JUMPDEST PUSH0 PUSH20 0xFFFFFFFFFFFFFFFFFFFFFFFFFFFFFFFFFFFFFFFF AND DUP3 PUSH20 0xFFFFFFFFFFFFFFFFFFFFFFFFFFFFFFFFFFFFFFFF AND SUB PUSH2 0xE0C JUMPI PUSH0 PUSH1 0x40 MLOAD PUSH32 0xEC442F0500000000000000000000000000000000000000000000000000000000 DUP2 MSTORE PUSH1 0x4 ADD PUSH2 0xE03 SWAP2 SWAP1 PUSH2 0x1A9C JUMP JUMPDEST PUSH1 0x40 MLOAD DUP1 SWAP2 SUB SWAP1 REVERT JUMPDEST PUSH2 0xE17 PUSH0 DUP4 DUP4 PUSH2 0x1328 JUMP JUMPDEST POP POP JUMP JUMPDEST PUSH2 0xE95 DUP4 DUP5 PUSH20 0xFFFFFFFFFFFFFFFFFFFFFFFFFFFFFFFFFFFFFFFF AND PUSH4 0xA9059CBB DUP6 DUP6 PUSH1 0x40 MLOAD PUSH1 0x24 ADD PUSH2 0xE4E SWAP3 SWAP2 SWAP1 PUSH2 0x1ECA JUMP JUMPDEST PUSH1 0x40 MLOAD PUSH1 0x20 DUP2 DUP4 SUB SUB DUP2 MSTORE SWAP1 PUSH1 0x40 MSTORE SWAP2 POP PUSH1 0xE0 SHL PUSH1 0x20 DUP3 ADD DUP1 MLOAD PUSH28 0xFFFFFFFFFFFFFFFFFFFFFFFFFFFFFFFFFFFFFFFFFFFFFFFFFFFFFFFF DUP4 DUP2 DUP4 AND OR DUP4 MSTORE POP POP POP POP PUSH2 0x1541 JUMP JUMPDEST POP POP POP JUMP JUMPDEST PUSH0 PUSH1 0x5 PUSH0 SWAP1 SLOAD SWAP1 PUSH2 0x100 EXP SWAP1 DIV PUSH20 0xFFFFFFFFFFFFFFFFFFFFFFFFFFFFFFFFFFFFFFFF AND SWAP1 POP DUP2 PUSH1 0x5 PUSH0 PUSH2 0x100 EXP DUP2 SLOAD DUP2 PUSH20 0xFFFFFFFFFFFFFFFFFFFFFFFFFFFFFFFFFFFFFFFF MUL NOT AND SWAP1 DUP4 PUSH20 0xFFFFFFFFFFFFFFFFFFFFFFFFFFFFFFFFFFFFFFFF AND MUL OR SWAP1 SSTORE POP DUP2 PUSH20 0xFFFFFFFFFFFFFFFFFFFFFFFFFFFFFFFFFFFFFFFF AND DUP2 PUSH20 0xFFFFFFFFFFFFFFFFFFFFFFFFFFFFFFFFFFFFFFFF AND PUSH32 0x8BE0079C531659141344CD1FD0A4F28419497F9722A3DAAFE3B4186F6B6457E0 PUSH1 0x40 MLOAD PUSH1 0x40 MLOAD DUP1 SWAP2 SUB SWAP1 LOG3 POP POP JUMP JUMPDEST PUSH0 PUSH20 0xFFFFFFFFFFFFFFFFFFFFFFFFFFFFFFFFFFFFFFFF AND DUP3 PUSH20 0xFFFFFFFFFFFFFFFFFFFFFFFFFFFFFFFFFFFFFFFF AND SUB PUSH2 0xFCD JUMPI PUSH0 PUSH1 0x40 MLOAD PUSH32 0x96C6FD1E00000000000000000000000000000000000000000000000000000000 DUP2 MSTORE PUSH1 0x4 ADD PUSH2 0xFC4 SWAP2 SWAP1 PUSH2 0x1A9C JUMP JUMPDEST PUSH1 0x40 MLOAD DUP1 SWAP2 SUB SWAP1 REVERT JUMPDEST PUSH2 0xFD8 DUP3 PUSH0 DUP4 PUSH2 0x1328 JUMP JUMPDEST POP POP JUMP JUMPDEST PUSH2 0x1058 DUP5 DUP6 PUSH20 0xFFFFFFFFFFFFFFFFFFFFFFFFFFFFFFFFFFFFFFFF AND PUSH4 0x23B872DD DUP7 DUP7 DUP7 PUSH1 0x40 MLOAD PUSH1 0x24 ADD PUSH2 0x1011 SWAP4 SWAP3 SWAP2 SWAP1 PUSH2 0x1EF1 JUMP JUMPDEST PUSH1 0x40 MLOAD PUSH1 0x20 DUP2 DUP4 SUB SUB DUP2 MSTORE SWAP1 PUSH1 0x40 MSTORE SWAP2 POP PUSH1 0xE0 SHL PUSH1 0x20 DUP3 ADD DUP1 MLOAD PUSH28 0xFFFFFFFFFFFFFFFFFFFFFFFFFFFFFFFFFFFFFFFFFFFFFFFFFFFFFFFF DUP4 DUP2 DUP4 AND OR DUP4 MSTORE POP POP POP POP PUSH2 0x1541 JUMP JUMPDEST POP POP POP POP JUMP JUMPDEST PUSH0 DUP3 PUSH20 0xFFFFFFFFFFFFFFFFFFFFFFFFFFFFFFFFFFFFFFFF AND DUP3 PUSH0 PUSH8 0xFFFFFFFFFFFFFFFF DUP2 GT ISZERO PUSH2 0x1091 JUMPI PUSH2 0x1090 PUSH2 0x1F26 JUMP JUMPDEST JUMPDEST PUSH1 0x40 MLOAD SWAP1 DUP1 DUP3 MSTORE DUP1 PUSH1 0x1F ADD PUSH1 0x1F NOT AND PUSH1 0x20 ADD DUP3 ADD PUSH1 0x40 MSTORE DUP1 ISZERO PUSH2 0x10C3 JUMPI DUP2 PUSH1 0x20 ADD PUSH1 0x1 DUP3 MUL DUP1 CALLDATASIZE DUP4 CALLDATACOPY DUP1 DUP3 ADD SWAP2 POP POP SWAP1 POP JUMPDEST POP PUSH1 0x40 MLOAD PUSH2 0x10D1 SWAP2 SWAP1 PUSH2 0x1F97 JUMP JUMPDEST PUSH0 PUSH1 0x40 MLOAD DUP1 DUP4 SUB DUP2 DUP6 DUP8 GAS CALL SWAP3 POP POP POP RETURNDATASIZE DUP1 PUSH0 DUP2 EQ PUSH2 0x110B JUMPI PUSH1 0x40 MLOAD SWAP2 POP PUSH1 0x1F NOT PUSH1 0x3F RETURNDATASIZE ADD AND DUP3 ADD PUSH1 0x40 MSTORE RETURNDATASIZE DUP3 MSTORE RETURNDATASIZE PUSH0 PUSH1 0x20 DUP5 ADD RETURNDATACOPY PUSH2 0x1110 JUMP JUMPDEST PUSH1 0x60 SWAP2 POP JUMPDEST POP POP SWAP1 POP DUP1 PUSH2 0x1154 JUMPI PUSH1 0x40 MLOAD PUSH32 0x8C379A000000000000000000000000000000000000000000000000000000000 DUP2 MSTORE PUSH1 0x4 ADD PUSH2 0x114B SWAP1 PUSH2 0x201D JUMP JUMPDEST PUSH1 0x40 MLOAD DUP1 SWAP2 SUB SWAP1 REVERT JUMPDEST POP POP POP JUMP JUMPDEST PUSH0 PUSH20 0xFFFFFFFFFFFFFFFFFFFFFFFFFFFFFFFFFFFFFFFF AND DUP5 PUSH20 0xFFFFFFFFFFFFFFFFFFFFFFFFFFFFFFFFFFFFFFFF AND SUB PUSH2 0x11C9 JUMPI PUSH0 PUSH1 0x40 MLOAD PUSH32 0xE602DF0500000000000000000000000000000000000000000000000000000000 DUP2 MSTORE PUSH1 0x4 ADD PUSH2 0x11C0 SWAP2 SWAP1 PUSH2 0x1A9C JUMP JUMPDEST PUSH1 0x40 MLOAD DUP1 SWAP2 SUB SWAP1 REVERT JUMPDEST PUSH0 PUSH20 0xFFFFFFFFFFFFFFFFFFFFFFFFFFFFFFFFFFFFFFFF AND DUP4 PUSH20 0xFFFFFFFFFFFFFFFFFFFFFFFFFFFFFFFFFFFFFFFF AND SUB PUSH2 0x1239 JUMPI PUSH0 PUSH1 0x40 MLOAD PUSH32 0x94280D6200000000000000000000000000000000000000000000000000000000 DUP2 MSTORE PUSH1 0x4 ADD PUSH2 0x1230 SWAP2 SWAP1 PUSH2 0x1A9C JUMP JUMPDEST PUSH1 0x40 MLOAD DUP1 SWAP2 SUB SWAP1 REVERT JUMPDEST DUP2 PUSH1 0x1 PUSH0 DUP7 PUSH20 0xFFFFFFFFFFFFFFFFFFFFFFFFFFFFFFFFFFFFFFFF AND PUSH20 0xFFFFFFFFFFFFFFFFFFFFFFFFFFFFFFFFFFFFFFFF AND DUP2 MSTORE PUSH1 0x20 ADD SWAP1 DUP2 MSTORE PUSH1 0x20 ADD PUSH0 KECCAK256 PUSH0 DUP6 PUSH20 0xFFFFFFFFFFFFFFFFFFFFFFFFFFFFFFFFFFFFFFFF AND PUSH20 0xFFFFFFFFFFFFFFFFFFFFFFFFFFFFFFFFFFFFFFFF AND DUP2 MSTORE PUSH1 0x20 ADD SWAP1 DUP2 MSTORE PUSH1 0x20 ADD PUSH0 KECCAK256 DUP2 SWAP1 SSTORE POP DUP1 ISZERO PUSH2 0x1322 JUMPI DUP3 PUSH20 0xFFFFFFFFFFFFFFFFFFFFFFFFFFFFFFFFFFFFFFFF AND DUP5 PUSH20 0xFFFFFFFFFFFFFFFFFFFFFFFFFFFFFFFFFFFFFFFF AND PUSH32 0x8C5BE1E5EBEC7D5BD14F71427D1E84F3DD0314C0F7B2291E5B200AC8C7C3B925 DUP5 PUSH1 0x40 MLOAD PUSH2 0x1319 SWAP2 SWAP1 PUSH2 0x1926 JUMP JUMPDEST PUSH1 0x40 MLOAD DUP1 SWAP2 SUB SWAP1 LOG3 JUMPDEST POP POP POP POP JUMP JUMPDEST PUSH0 PUSH20 0xFFFFFFFFFFFFFFFFFFFFFFFFFFFFFFFFFFFFFFFF AND DUP4 PUSH20 0xFFFFFFFFFFFFFFFFFFFFFFFFFFFFFFFFFFFFFFFF AND SUB PUSH2 0x1378 JUMPI DUP1 PUSH1 0x2 PUSH0 DUP3 DUP3 SLOAD PUSH2 0x136C SWAP2 SWAP1 PUSH2 0x203B JUMP JUMPDEST SWAP3 POP POP DUP2 SWAP1 SSTORE POP PUSH2 0x1446 JUMP JUMPDEST PUSH0 PUSH0 PUSH0 DUP6 PUSH20 0xFFFFFFFFFFFFFFFFFFFFFFFFFFFFFFFFFFFFFFFF AND PUSH20 0xFFFFFFFFFFFFFFFFFFFFFFFFFFFFFFFFFFFFFFFF AND DUP2 MSTORE PUSH1 0x20 ADD SWAP1 DUP2 MSTORE PUSH1 0x20 ADD PUSH0 KECCAK256 SLOAD SWAP1 POP DUP2 DUP2 LT ISZERO PUSH2 0x1401 JUMPI DUP4 DUP2 DUP4 PUSH1 0x40 MLOAD PUSH32 0xE450D38C00000000000000000000000000000000000000000000000000000000 DUP2 MSTORE PUSH1 0x4 ADD PUSH2 0x13F8 SWAP4 SWAP3 SWAP2 SWAP1 PUSH2 0x1E95 JUMP JUMPDEST PUSH1 0x40 MLOAD DUP1 SWAP2 SUB SWAP1 REVERT JUMPDEST DUP2 DUP2 SUB PUSH0 PUSH0 DUP7 PUSH20 0xFFFFFFFFFFFFFFFFFFFFFFFFFFFFFFFFFFFFFFFF AND PUSH20 0xFFFFFFFFFFFFFFFFFFFFFFFFFFFFFFFFFFFFFFFF AND DUP2 MSTORE PUSH1 0x20 ADD SWAP1 DUP2 MSTORE PUSH1 0x20 ADD PUSH0 KECCAK256 DUP2 SWAP1 SSTORE POP POP JUMPDEST PUSH0 PUSH20 0xFFFFFFFFFFFFFFFFFFFFFFFFFFFFFFFFFFFFFFFF AND DUP3 PUSH20 0xFFFFFFFFFFFFFFFFFFFFFFFFFFFFFFFFFFFFFFFF AND SUB PUSH2 0x148D JUMPI DUP1 PUSH1 0x2 PUSH0 DUP3 DUP3 SLOAD SUB SWAP3 POP POP DUP2 SWAP1 SSTORE POP PUSH2 0x14D7 JUMP JUMPDEST DUP1 PUSH0 PUSH0 DUP5 PUSH20 0xFFFFFFFFFFFFFFFFFFFFFFFFFFFFFFFFFFFFFFFF AND PUSH20 0xFFFFFFFFFFFFFFFFFFFFFFFFFFFFFFFFFFFFFFFF AND DUP2 MSTORE PUSH1 0x20 ADD SWAP1 DUP2 MSTORE PUSH1 0x20 ADD PUSH0 KECCAK256 PUSH0 DUP3 DUP3 SLOAD ADD SWAP3 POP POP DUP2 SWAP1 SSTORE POP JUMPDEST DUP2 PUSH20 0xFFFFFFFFFFFFFFFFFFFFFFFFFFFFFFFFFFFFFFFF AND DUP4 PUSH20 0xFFFFFFFFFFFFFFFFFFFFFFFFFFFFFFFFFFFFFFFF AND PUSH32 0xDDF252AD1BE2C89B69C2B068FC378DAA952BA7F163C4A11628F55A4DF523B3EF DUP4 PUSH1 0x40 MLOAD PUSH2 0x1534 SWAP2 SWAP1 PUSH2 0x1926 JUMP JUMPDEST PUSH1 0x40 MLOAD DUP1 SWAP2 SUB SWAP1 LOG3 POP POP POP JUMP JUMPDEST PUSH0 PUSH2 0x156B DUP3 DUP5 PUSH20 0xFFFFFFFFFFFFFFFFFFFFFFFFFFFFFFFFFFFFFFFF AND PUSH2 0x15D6 SWAP1 SWAP2 SWAP1 PUSH4 0xFFFFFFFF AND JUMP JUMPDEST SWAP1 POP PUSH0 DUP2 MLOAD EQ ISZERO DUP1 ISZERO PUSH2 0x158F JUMPI POP DUP1 DUP1 PUSH1 0x20 ADD SWAP1 MLOAD DUP2 ADD SWAP1 PUSH2 0x158D SWAP2 SWAP1 PUSH2 0x2098 JUMP JUMPDEST ISZERO JUMPDEST ISZERO PUSH2 0x15D1 JUMPI DUP3 PUSH1 0x40 MLOAD PUSH32 0x5274AFE700000000000000000000000000000000000000000000000000000000 DUP2 MSTORE PUSH1 0x4 ADD PUSH2 0x15C8 SWAP2 SWAP1 PUSH2 0x1A9C JUMP JUMPDEST PUSH1 0x40 MLOAD DUP1 SWAP2 SUB SWAP1 REVERT JUMPDEST POP POP POP JUMP JUMPDEST PUSH1 0x60 PUSH2 0x15E3 DUP4 DUP4 PUSH0 PUSH2 0x15EB JUMP JUMPDEST SWAP1 POP SWAP3 SWAP2 POP POP JUMP JUMPDEST PUSH1 0x60 DUP2 SELFBALANCE LT ISZERO PUSH2 0x1632 JUMPI ADDRESS PUSH1 0x40 MLOAD PUSH32 0xCD78605900000000000000000000000000000000000000000000000000000000 DUP2 MSTORE PUSH1 0x4 ADD PUSH2 0x1629 SWAP2 SWAP1 PUSH2 0x1A9C JUMP JUMPDEST PUSH1 0x40 MLOAD DUP1 SWAP2 SUB SWAP1 REVERT JUMPDEST PUSH0 PUSH0 DUP6 PUSH20 0xFFFFFFFFFFFFFFFFFFFFFFFFFFFFFFFFFFFFFFFF AND DUP5 DUP7 PUSH1 0x40 MLOAD PUSH2 0x165A SWAP2 SWAP1 PUSH2 0x1F97 JUMP JUMPDEST PUSH0 PUSH1 0x40 MLOAD DUP1 DUP4 SUB DUP2 DUP6 DUP8 GAS CALL SWAP3 POP POP POP RETURNDATASIZE DUP1 PUSH0 DUP2 EQ PUSH2 0x1694 JUMPI PUSH1 0x40 MLOAD SWAP2 POP PUSH1 0x1F NOT PUSH1 0x3F RETURNDATASIZE ADD AND DUP3 ADD PUSH1 0x40 MSTORE RETURNDATASIZE DUP3 MSTORE RETURNDATASIZE PUSH0 PUSH1 0x20 DUP5 ADD RETURNDATACOPY PUSH2 0x1699 JUMP JUMPDEST PUSH1 0x60 SWAP2 POP JUMPDEST POP SWAP2 POP SWAP2 POP PUSH2 0x16A9 DUP7 DUP4 DUP4 PUSH2 0x16B4 JUMP JUMPDEST SWAP3 POP POP POP SWAP4 SWAP3 POP POP POP JUMP JUMPDEST PUSH1 0x60 DUP3 PUSH2 0x16C9 JUMPI PUSH2 0x16C4 DUP3 PUSH2 0x1741 JUMP JUMPDEST PUSH2 0x1739 JUMP JUMPDEST PUSH0 DUP3 MLOAD EQ DUP1 ISZERO PUSH2 0x16EF JUMPI POP PUSH0 DUP5 PUSH20 0xFFFFFFFFFFFFFFFFFFFFFFFFFFFFFFFFFFFFFFFF AND EXTCODESIZE EQ JUMPDEST ISZERO PUSH2 0x1731 JUMPI DUP4 PUSH1 0x40 MLOAD PUSH32 0x9996B31500000000000000000000000000000000000000000000000000000000 DUP2 MSTORE PUSH1 0x4 ADD PUSH2 0x1728 SWAP2 SWAP1 PUSH2 0x1A9C JUMP JUMPDEST PUSH1 0x40 MLOAD DUP1 SWAP2 SUB SWAP1 REVERT JUMPDEST DUP2 SWAP1 POP PUSH2 0x173A JUMP JUMPDEST JUMPDEST SWAP4 SWAP3 POP POP POP JUMP JUMPDEST PUSH0 DUP2 MLOAD GT ISZERO PUSH2 0x1753 JUMPI DUP1 MLOAD DUP1 DUP3 PUSH1 0x20 ADD REVERT JUMPDEST PUSH1 0x40 MLOAD PUSH32 0x1425EA4200000000000000000000000000000000000000000000000000000000 DUP2 MSTORE PUSH1 0x4 ADD PUSH1 0x40 MLOAD DUP1 SWAP2 SUB SWAP1 REVERT JUMPDEST PUSH0 DUP2 MLOAD SWAP1 POP SWAP2 SWAP1 POP JUMP JUMPDEST PUSH0 DUP3 DUP3 MSTORE PUSH1 0x20 DUP3 ADD SWAP1 POP SWAP3 SWAP2 POP POP JUMP JUMPDEST DUP3 DUP2 DUP4 MCOPY PUSH0 DUP4 DUP4 ADD MSTORE POP POP POP JUMP JUMPDEST PUSH0 PUSH1 0x1F NOT PUSH1 0x1F DUP4 ADD AND SWAP1 POP SWAP2 SWAP1 POP JUMP JUMPDEST PUSH0 PUSH2 0x17C7 DUP3 PUSH2 0x1785 JUMP JUMPDEST PUSH2 0x17D1 DUP2 DUP6 PUSH2 0x178F JUMP JUMPDEST SWAP4 POP PUSH2 0x17E1 DUP2 DUP6 PUSH1 0x20 DUP7 ADD PUSH2 0x179F JUMP JUMPDEST PUSH2 0x17EA DUP2 PUSH2 0x17AD JUMP JUMPDEST DUP5 ADD SWAP2 POP POP SWAP3 SWAP2 POP POP JUMP JUMPDEST PUSH0 PUSH1 0x20 DUP3 ADD SWAP1 POP DUP2 DUP2 SUB PUSH0 DUP4 ADD MSTORE PUSH2 0x180D DUP2 DUP5 PUSH2 0x17BD JUMP JUMPDEST SWAP1 POP SWAP3 SWAP2 POP POP JUMP JUMPDEST PUSH0 PUSH0 REVERT JUMPDEST PUSH0 PUSH20 0xFFFFFFFFFFFFFFFFFFFFFFFFFFFFFFFFFFFFFFFF DUP3 AND SWAP1 POP SWAP2 SWAP1 POP JUMP JUMPDEST PUSH0 PUSH2 0x1842 DUP3 PUSH2 0x1819 JUMP JUMPDEST SWAP1 POP SWAP2 SWAP1 POP JUMP JUMPDEST PUSH2 0x1852 DUP2 PUSH2 0x1838 JUMP JUMPDEST DUP2 EQ PUSH2 0x185C JUMPI PUSH0 PUSH0 REVERT JUMPDEST POP JUMP JUMPDEST PUSH0 DUP2 CALLDATALOAD SWAP1 POP PUSH2 0x186D DUP2 PUSH2 0x1849 JUMP JUMPDEST SWAP3 SWAP2 POP POP JUMP JUMPDEST PUSH0 DUP2 SWAP1 POP SWAP2 SWAP1 POP JUMP JUMPDEST PUSH2 0x1885 DUP2 PUSH2 0x1873 JUMP JUMPDEST DUP2 EQ PUSH2 0x188F JUMPI PUSH0 PUSH0 REVERT JUMPDEST POP JUMP JUMPDEST PUSH0 DUP2 CALLDATALOAD SWAP1 POP PUSH2 0x18A0 DUP2 PUSH2 0x187C JUMP JUMPDEST SWAP3 SWAP2 POP POP JUMP JUMPDEST PUSH0 PUSH0 PUSH1 0x40 DUP4 DUP6 SUB SLT ISZERO PUSH2 0x18BC JUMPI PUSH2 0x18BB PUSH2 0x1815 JUMP JUMPDEST JUMPDEST PUSH0 PUSH2 0x18C9 DUP6 DUP3 DUP7 ADD PUSH2 0x185F JUMP JUMPDEST SWAP3 POP POP PUSH1 0x20 PUSH2 0x18DA DUP6 DUP3 DUP7 ADD PUSH2 0x1892 JUMP JUMPDEST SWAP2 POP POP SWAP3 POP SWAP3 SWAP1 POP JUMP JUMPDEST PUSH0 DUP2 ISZERO ISZERO SWAP1 POP SWAP2 SWAP1 POP JUMP JUMPDEST PUSH2 0x18F8 DUP2 PUSH2 0x18E4 JUMP JUMPDEST DUP3 MSTORE POP POP JUMP JUMPDEST PUSH0 PUSH1 0x20 DUP3 ADD SWAP1 POP PUSH2 0x1911 PUSH0 DUP4 ADD DUP5 PUSH2 0x18EF JUMP JUMPDEST SWAP3 SWAP2 POP POP JUMP JUMPDEST PUSH2 0x1920 DUP2 PUSH2 0x1873 JUMP JUMPDEST DUP3 MSTORE POP POP JUMP JUMPDEST PUSH0 PUSH1 0x20 DUP3 ADD SWAP1 POP PUSH2 0x1939 PUSH0 DUP4 ADD DUP5 PUSH2 0x1917 JUMP JUMPDEST SWAP3 SWAP2 POP POP JUMP JUMPDEST PUSH0 PUSH0 PUSH0 PUSH1 0x60 DUP5 DUP7 SUB SLT ISZERO PUSH2 0x1956 JUMPI PUSH2 0x1955 PUSH2 0x1815 JUMP JUMPDEST JUMPDEST PUSH0 PUSH2 0x1963 DUP7 DUP3 DUP8 ADD PUSH2 0x185F JUMP JUMPDEST SWAP4 POP POP PUSH1 0x20 PUSH2 0x1974 DUP7 DUP3 DUP8 ADD PUSH2 0x185F JUMP JUMPDEST SWAP3 POP POP PUSH1 0x40 PUSH2 0x1985 DUP7 DUP3 DUP8 ADD PUSH2 0x1892 JUMP JUMPDEST SWAP2 POP POP SWAP3 POP SWAP3 POP SWAP3 JUMP JUMPDEST PUSH0 PUSH1 0xFF DUP3 AND SWAP1 POP SWAP2 SWAP1 POP JUMP JUMPDEST PUSH2 0x19A4 DUP2 PUSH2 0x198F JUMP JUMPDEST DUP3 MSTORE POP POP JUMP JUMPDEST PUSH0 PUSH1 0x20 DUP3 ADD SWAP1 POP PUSH2 0x19BD PUSH0 DUP4 ADD DUP5 PUSH2 0x199B JUMP JUMPDEST SWAP3 SWAP2 POP POP JUMP JUMPDEST PUSH0 DUP2 SWAP1 POP SWAP2 SWAP1 POP JUMP JUMPDEST PUSH0 PUSH2 0x19E6 PUSH2 0x19E1 PUSH2 0x19DC DUP5 PUSH2 0x1819 JUMP JUMPDEST PUSH2 0x19C3 JUMP JUMPDEST PUSH2 0x1819 JUMP JUMPDEST SWAP1 POP SWAP2 SWAP1 POP JUMP JUMPDEST PUSH0 PUSH2 0x19F7 DUP3 PUSH2 0x19CC JUMP JUMPDEST SWAP1 POP SWAP2 SWAP1 POP JUMP JUMPDEST PUSH0 PUSH2 0x1A08 DUP3 PUSH2 0x19ED JUMP JUMPDEST SWAP1 POP SWAP2 SWAP1 POP JUMP JUMPDEST PUSH2 0x1A18 DUP2 PUSH2 0x19FE JUMP JUMPDEST DUP3 MSTORE POP POP JUMP JUMPDEST PUSH0 PUSH1 0x20 DUP3 ADD SWAP1 POP PUSH2 0x1A31 PUSH0 DUP4 ADD DUP5 PUSH2 0x1A0F JUMP JUMPDEST SWAP3 SWAP2 POP POP JUMP JUMPDEST PUSH0 PUSH1 0x20 DUP3 DUP5 SUB SLT ISZERO PUSH2 0x1A4C JUMPI PUSH2 0x1A4B PUSH2 0x1815 JUMP JUMPDEST JUMPDEST PUSH0 PUSH2 0x1A59 DUP5 DUP3 DUP6 ADD PUSH2 0x185F JUMP JUMPDEST SWAP2 POP POP SWAP3 SWAP2 POP POP JUMP JUMPDEST PUSH0 PUSH1 0x20 DUP3 DUP5 SUB SLT ISZERO PUSH2 0x1A77 JUMPI PUSH2 0x1A76 PUSH2 0x1815 JUMP JUMPDEST JUMPDEST PUSH0 PUSH2 0x1A84 DUP5 DUP3 DUP6 ADD PUSH2 0x1892 JUMP JUMPDEST SWAP2 POP POP SWAP3 SWAP2 POP POP JUMP JUMPDEST PUSH2 0x1A96 DUP2 PUSH2 0x1838 JUMP JUMPDEST DUP3 MSTORE POP POP JUMP JUMPDEST PUSH0 PUSH1 0x20 DUP3 ADD SWAP1 POP PUSH2 0x1AAF PUSH0 DUP4 ADD DUP5 PUSH2 0x1A8D JUMP JUMPDEST SWAP3 SWAP2 POP POP JUMP JUMPDEST PUSH0 PUSH16 0xFFFFFFFFFFFFFFFFFFFFFFFFFFFFFFFF DUP3 AND SWAP1 POP SWAP2 SWAP1 POP JUMP JUMPDEST PUSH2 0x1AD9 DUP2 PUSH2 0x1AB5 JUMP JUMPDEST DUP3 MSTORE POP POP JUMP JUMPDEST PUSH0 PUSH1 0x20 DUP3 ADD SWAP1 POP PUSH2 0x1AF2 PUSH0 DUP4 ADD DUP5 PUSH2 0x1AD0 JUMP JUMPDEST SWAP3 SWAP2 POP POP JUMP JUMPDEST PUSH0 PUSH0 PUSH1 0x40 DUP4 DUP6 SUB SLT ISZERO PUSH2 0x1B0E JUMPI PUSH2 0x1B0D PUSH2 0x1815 JUMP JUMPDEST JUMPDEST PUSH0 PUSH2 0x1B1B DUP6 DUP3 DUP7 ADD PUSH2 0x185F JUMP JUMPDEST SWAP3 POP POP PUSH1 0x20 PUSH2 0x1B2C DUP6 DUP3 DUP7 ADD PUSH2 0x185F JUMP JUMPDEST SWAP2 POP POP SWAP3 POP SWAP3 SWAP1 POP JUMP JUMPDEST PUSH0 PUSH12 0xFFFFFFFFFFFFFFFFFFFFFFFF DUP3 AND SWAP1 POP SWAP2 SWAP1 POP JUMP JUMPDEST PUSH2 0x1B56 DUP2 PUSH2 0x1B36 JUMP JUMPDEST DUP3 MSTORE POP POP JUMP JUMPDEST PUSH0 PUSH1 0x20 DUP3 ADD SWAP1 POP PUSH2 0x1B6F PUSH0 DUP4 ADD DUP5 PUSH2 0x1B4D JUMP JUMPDEST SWAP3 SWAP2 POP POP JUMP JUMPDEST PUSH0 PUSH4 0xFFFFFFFF DUP3 AND SWAP1 POP SWAP2 SWAP1 POP JUMP JUMPDEST PUSH2 0x1B8D DUP2 PUSH2 0x1B75 JUMP JUMPDEST DUP3 MSTORE POP POP JUMP JUMPDEST PUSH0 PUSH1 0x20 DUP3 ADD SWAP1 POP PUSH2 0x1BA6 PUSH0 DUP4 ADD DUP5 PUSH2 0x1B84 JUMP JUMPDEST SWAP3 SWAP2 POP POP JUMP JUMPDEST PUSH32 0x4E487B7100000000000000000000000000000000000000000000000000000000 PUSH0 MSTORE PUSH1 0x22 PUSH1 0x4 MSTORE PUSH1 0x24 PUSH0 REVERT JUMPDEST PUSH0 PUSH1 0x2 DUP3 DIV SWAP1 POP PUSH1 0x1 DUP3 AND DUP1 PUSH2 0x1BF0 JUMPI PUSH1 0x7F DUP3 AND SWAP2 POP JUMPDEST PUSH1 0x20 DUP3 LT DUP2 SUB PUSH2 0x1C03 JUMPI PUSH2 0x1C02 PUSH2 0x1BAC JUMP JUMPDEST JUMPDEST POP SWAP2 SWAP1 POP JUMP JUMPDEST PUSH32 0x6574682076616C75652063616E74206265203000000000000000000000000000 PUSH0 DUP3 ADD MSTORE POP JUMP JUMPDEST PUSH0 PUSH2 0x1C3D PUSH1 0x13 DUP4 PUSH2 0x178F JUMP JUMPDEST SWAP2 POP PUSH2 0x1C48 DUP3 PUSH2 0x1C09 JUMP JUMPDEST PUSH1 0x20 DUP3 ADD SWAP1 POP SWAP2 SWAP1 POP JUMP JUMPDEST PUSH0 PUSH1 0x20 DUP3 ADD SWAP1 POP DUP2 DUP2 SUB PUSH0 DUP4 ADD MSTORE PUSH2 0x1C6A DUP2 PUSH2 0x1C31 JUMP JUMPDEST SWAP1 POP SWAP2 SWAP1 POP JUMP JUMPDEST PUSH32 0x4E487B7100000000000000000000000000000000000000000000000000000000 PUSH0 MSTORE PUSH1 0x11 PUSH1 0x4 MSTORE PUSH1 0x24 PUSH0 REVERT JUMPDEST PUSH0 PUSH2 0x1CA8 DUP3 PUSH2 0x1B36 JUMP JUMPDEST SWAP2 POP PUSH2 0x1CB3 DUP4 PUSH2 0x1B36 JUMP JUMPDEST SWAP3 POP DUP3 DUP3 ADD SWAP1 POP PUSH12 0xFFFFFFFFFFFFFFFFFFFFFFFF DUP2 GT ISZERO PUSH2 0x1CD7 JUMPI PUSH2 0x1CD6 PUSH2 0x1C71 JUMP JUMPDEST JUMPDEST SWAP3 SWAP2 POP POP JUMP JUMPDEST PUSH32 0x6E6F742065787069726520796574000000000000000000000000000000000000 PUSH0 DUP3 ADD MSTORE POP JUMP JUMPDEST PUSH0 PUSH2 0x1D11 PUSH1 0xE DUP4 PUSH2 0x178F JUMP JUMPDEST SWAP2 POP PUSH2 0x1D1C DUP3 PUSH2 0x1CDD JUMP JUMPDEST PUSH1 0x20 DUP3 ADD SWAP1 POP SWAP2 SWAP1 POP JUMP JUMPDEST PUSH0 PUSH1 0x20 DUP3 ADD SWAP1 POP DUP2 DUP2 SUB PUSH0 DUP4 ADD MSTORE PUSH2 0x1D3E DUP2 PUSH2 0x1D05 JUMP JUMPDEST SWAP1 POP SWAP2 SWAP1 POP JUMP JUMPDEST PUSH0 DUP2 MLOAD SWAP1 POP PUSH2 0x1D53 DUP2 PUSH2 0x187C JUMP JUMPDEST SWAP3 SWAP2 POP POP JUMP JUMPDEST PUSH0 PUSH1 0x20 DUP3 DUP5 SUB SLT ISZERO PUSH2 0x1D6E JUMPI PUSH2 0x1D6D PUSH2 0x1815 JUMP JUMPDEST JUMPDEST PUSH0 PUSH2 0x1D7B DUP5 DUP3 DUP6 ADD PUSH2 0x1D45 JUMP JUMPDEST SWAP2 POP POP SWAP3 SWAP2 POP POP JUMP JUMPDEST PUSH32 0x6E6F7420696E20736574746C652074696D652072616E67650000000000000000 PUSH0 DUP3 ADD MSTORE POP JUMP JUMPDEST PUSH0 PUSH2 0x1DB8 PUSH1 0x18 DUP4 PUSH2 0x178F JUMP JUMPDEST SWAP2 POP PUSH2 0x1DC3 DUP3 PUSH2 0x1D84 JUMP JUMPDEST PUSH1 0x20 DUP3 ADD SWAP1 POP SWAP2 SWAP1 POP JUMP JUMPDEST PUSH0 PUSH1 0x20 DUP3 ADD SWAP1 POP DUP2 DUP2 SUB PUSH0 DUP4 ADD MSTORE PUSH2 0x1DE5 DUP2 PUSH2 0x1DAC JUMP JUMPDEST SWAP1 POP SWAP2 SWAP1 POP JUMP JUMPDEST PUSH32 0x616D6F756E74206D757374203E2062616C616E63650000000000000000000000 PUSH0 DUP3 ADD MSTORE POP JUMP JUMPDEST PUSH0 PUSH2 0x1E20 PUSH1 0x15 DUP4 PUSH2 0x178F JUMP JUMPDEST SWAP2 POP PUSH2 0x1E2B DUP3 PUSH2 0x1DEC JUMP JUMPDEST PUSH1 0x20 DUP3 ADD SWAP1 POP SWAP2 SWAP1 POP JUMP JUMPDEST PUSH0 PUSH1 0x20 DUP3 ADD SWAP1 POP DUP2 DUP2 SUB PUSH0 DUP4 ADD MSTORE PUSH2 0x1E4D DUP2 PUSH2 0x1E14 JUMP JUMPDEST SWAP1 POP SWAP2 SWAP1 POP JUMP JUMPDEST PUSH0 PUSH2 0x1E5E DUP3 PUSH2 0x1873 JUMP JUMPDEST SWAP2 POP PUSH2 0x1E69 DUP4 PUSH2 0x1873 JUMP JUMPDEST SWAP3 POP DUP3 DUP3 MUL PUSH2 0x1E77 DUP2 PUSH2 0x1873 JUMP JUMPDEST SWAP2 POP DUP3 DUP3 DIV DUP5 EQ DUP4 ISZERO OR PUSH2 0x1E8E JUMPI PUSH2 0x1E8D PUSH2 0x1C71 JUMP JUMPDEST JUMPDEST POP SWAP3 SWAP2 POP POP JUMP JUMPDEST PUSH0 PUSH1 0x60 DUP3 ADD SWAP1 POP PUSH2 0x1EA8 PUSH0 DUP4 ADD DUP7 PUSH2 0x1A8D JUMP JUMPDEST PUSH2 0x1EB5 PUSH1 0x20 DUP4 ADD DUP6 PUSH2 0x1917 JUMP JUMPDEST PUSH2 0x1EC2 PUSH1 0x40 DUP4 ADD DUP5 PUSH2 0x1917 JUMP JUMPDEST SWAP5 SWAP4 POP POP POP POP JUMP JUMPDEST PUSH0 PUSH1 0x40 DUP3 ADD SWAP1 POP PUSH2 0x1EDD PUSH0 DUP4 ADD DUP6 PUSH2 0x1A8D JUMP JUMPDEST PUSH2 0x1EEA PUSH1 0x20 DUP4 ADD DUP5 PUSH2 0x1917 JUMP JUMPDEST SWAP4 SWAP3 POP POP POP JUMP JUMPDEST PUSH0 PUSH1 0x60 DUP3 ADD SWAP1 POP PUSH2 0x1F04 PUSH0 DUP4 ADD DUP7 PUSH2 0x1A8D JUMP JUMPDEST PUSH2 0x1F11 PUSH1 0x20 DUP4 ADD DUP6 PUSH2 0x1A8D JUMP JUMPDEST PUSH2 0x1F1E PUSH1 0x40 DUP4 ADD DUP5 PUSH2 0x1917 JUMP JUMPDEST SWAP5 SWAP4 POP POP POP POP JUMP JUMPDEST PUSH32 0x4E487B7100000000000000000000000000000000000000000000000000000000 PUSH0 MSTORE PUSH1 0x41 PUSH1 0x4 MSTORE PUSH1 0x24 PUSH0 REVERT JUMPDEST PUSH0 DUP2 MLOAD SWAP1 POP SWAP2 SWAP1 POP JUMP JUMPDEST PUSH0 DUP2 SWAP1 POP SWAP3 SWAP2 POP POP JUMP JUMPDEST PUSH0 PUSH2 0x1F71 DUP3 PUSH2 0x1F53 JUMP JUMPDEST PUSH2 0x1F7B DUP2 DUP6 PUSH2 0x1F5D JUMP JUMPDEST SWAP4 POP PUSH2 0x1F8B DUP2 DUP6 PUSH1 0x20 DUP7 ADD PUSH2 0x179F JUMP JUMPDEST DUP1 DUP5 ADD SWAP2 POP POP SWAP3 SWAP2 POP POP JUMP JUMPDEST PUSH0 PUSH2 0x1FA2 DUP3 DUP5 PUSH2 0x1F67 JUMP JUMPDEST SWAP2 POP DUP2 SWAP1 POP SWAP3 SWAP2 POP POP JUMP JUMPDEST PUSH32 0x5472616E7366657248656C7065723A3A736166655472616E736665724554483A PUSH0 DUP3 ADD MSTORE PUSH32 0x20455448207472616E73666572206661696C6564000000000000000000000000 PUSH1 0x20 DUP3 ADD MSTORE POP JUMP JUMPDEST PUSH0 PUSH2 0x2007 PUSH1 0x34 DUP4 PUSH2 0x178F JUMP JUMPDEST SWAP2 POP PUSH2 0x2012 DUP3 PUSH2 0x1FAD JUMP JUMPDEST PUSH1 0x40 DUP3 ADD SWAP1 POP SWAP2 SWAP1 POP JUMP JUMPDEST PUSH0 PUSH1 0x20 DUP3 ADD SWAP1 POP DUP2 DUP2 SUB PUSH0 DUP4 ADD MSTORE PUSH2 0x2034 DUP2 PUSH2 0x1FFB JUMP JUMPDEST SWAP1 POP SWAP2 SWAP1 POP JUMP JUMPDEST PUSH0 PUSH2 0x2045 DUP3 PUSH2 0x1873 JUMP JUMPDEST SWAP2 POP PUSH2 0x2050 DUP4 PUSH2 0x1873 JUMP JUMPDEST SWAP3 POP DUP3 DUP3 ADD SWAP1 POP DUP1 DUP3 GT ISZERO PUSH2 0x2068 JUMPI PUSH2 0x2067 PUSH2 0x1C71 JUMP JUMPDEST JUMPDEST SWAP3 SWAP2 POP POP JUMP JUMPDEST PUSH2 0x2077 DUP2 PUSH2 0x18E4 JUMP JUMPDEST DUP2 EQ PUSH2 0x2081 JUMPI PUSH0 PUSH0 REVERT JUMPDEST POP JUMP JUMPDEST PUSH0 DUP2 MLOAD SWAP1 POP PUSH2 0x2092 DUP2 PUSH2 0x206E JUMP JUMPDEST SWAP3 SWAP2 POP POP JUMP JUMPDEST PUSH0 PUSH1 0x20 DUP3 DUP5 SUB SLT ISZERO PUSH2 0x20AD JUMPI PUSH2 0x20AC PUSH2 0x1815 JUMP JUMPDEST JUMPDEST PUSH0 PUSH2 0x20BA DUP5 DUP3 DUP6 ADD PUSH2 0x2084 JUMP JUMPDEST SWAP2 POP POP SWAP3 SWAP2 POP POP JUMP INVALID LOG2 PUSH5 0x6970667358 0x22 SLT KECCAK256 SWAP11 0x4F SWAP6 0xC4 0xB8 SWAP3 0xDF 0xE0 NOT PUSH22 0x8D4F4588E3BAB2911227899C52FE1881CEFF65F3AF2 PUSH5 0x736F6C6343 STOP ADDMOD SHL STOP CALLER "
				},
				"gasEstimates": {
					"creation": {
						"codeDepositCost": "1688200",
						"executionCost": "infinite",
						"totalCost": "infinite"
					},
					"external": {
						"allowance(address,address)": "infinite",
						"approve(address,uint256)": "infinite",
						"balanceOf(address)": "2939",
						"decimals()": "361",
						"destory()": "infinite",
						"durationTime()": "2627",
						"exerciseTime()": "2583",
						"issueOption()": "infinite",
						"name()": "infinite",
						"owner()": "2582",
						"price()": "2577",
						"renounceOwnership()": "infinite",
						"settleOption(uint256)": "infinite",
						"symbol()": "infinite",
						"totalSupply()": "2500",
						"transfer(address,uint256)": "infinite",
						"transferFrom(address,address,uint256)": "infinite",
						"transferOwnership(address)": "infinite",
						"usdc()": "infinite"
					},
					"internal": {
						"safeTransferETH(address,uint256)": "infinite"
					}
				},
				"methodIdentifiers": {
					"allowance(address,address)": "dd62ed3e",
					"approve(address,uint256)": "095ea7b3",
					"balanceOf(address)": "70a08231",
					"decimals()": "313ce567",
					"destory()": "6bdebcc9",
					"durationTime()": "f8b75fb5",
					"exerciseTime()": "ec46c4ef",
					"issueOption()": "384b2367",
					"name()": "06fdde03",
					"owner()": "8da5cb5b",
					"price()": "a035b1fe",
					"renounceOwnership()": "715018a6",
					"settleOption(uint256)": "83b6fa98",
					"symbol()": "95d89b41",
					"totalSupply()": "18160ddd",
					"transfer(address,uint256)": "a9059cbb",
					"transferFrom(address,address,uint256)": "23b872dd",
					"transferOwnership(address)": "f2fde38b",
					"usdc()": "3e413bee"
				}
			},
			"storageLayout": {
				"storage": [
					{
						"astId": 307,
						"contract": "MyCallOption.sol:MyCallOption",
						"label": "_balances",
						"offset": 0,
						"slot": "0",
						"type": "t_mapping(t_address,t_uint256)"
					},
					{
						"astId": 313,
						"contract": "MyCallOption.sol:MyCallOption",
						"label": "_allowances",
						"offset": 0,
						"slot": "1",
						"type": "t_mapping(t_address,t_mapping(t_address,t_uint256))"
					},
					{
						"astId": 315,
						"contract": "MyCallOption.sol:MyCallOption",
						"label": "_totalSupply",
						"offset": 0,
						"slot": "2",
						"type": "t_uint256"
					},
					{
						"astId": 317,
						"contract": "MyCallOption.sol:MyCallOption",
						"label": "_name",
						"offset": 0,
						"slot": "3",
						"type": "t_string_storage"
					},
					{
						"astId": 319,
						"contract": "MyCallOption.sol:MyCallOption",
						"label": "_symbol",
						"offset": 0,
						"slot": "4",
						"type": "t_string_storage"
					},
					{
						"astId": 8,
						"contract": "MyCallOption.sol:MyCallOption",
						"label": "_owner",
						"offset": 0,
						"slot": "5",
						"type": "t_address"
					},
					{
						"astId": 1529,
						"contract": "MyCallOption.sol:MyCallOption",
						"label": "usdc",
						"offset": 0,
						"slot": "6",
						"type": "t_contract(IERC20)877"
					},
					{
						"astId": 1531,
						"contract": "MyCallOption.sol:MyCallOption",
						"label": "price",
						"offset": 0,
						"slot": "7",
						"type": "t_uint128"
					},
					{
						"astId": 1533,
						"contract": "MyCallOption.sol:MyCallOption",
						"label": "exerciseTime",
						"offset": 16,
						"slot": "7",
						"type": "t_uint96"
					},
					{
						"astId": 1535,
						"contract": "MyCallOption.sol:MyCallOption",
						"label": "durationTime",
						"offset": 28,
						"slot": "7",
						"type": "t_uint32"
					}
				],
				"types": {
					"t_address": {
						"encoding": "inplace",
						"label": "address",
						"numberOfBytes": "20"
					},
					"t_contract(IERC20)877": {
						"encoding": "inplace",
						"label": "contract IERC20",
						"numberOfBytes": "20"
					},
					"t_mapping(t_address,t_mapping(t_address,t_uint256))": {
						"encoding": "mapping",
						"key": "t_address",
						"label": "mapping(address => mapping(address => uint256))",
						"numberOfBytes": "32",
						"value": "t_mapping(t_address,t_uint256)"
					},
					"t_mapping(t_address,t_uint256)": {
						"encoding": "mapping",
						"key": "t_address",
						"label": "mapping(address => uint256)",
						"numberOfBytes": "32",
						"value": "t_uint256"
					},
					"t_string_storage": {
						"encoding": "bytes",
						"label": "string",
						"numberOfBytes": "32"
					},
					"t_uint128": {
						"encoding": "inplace",
						"label": "uint128",
						"numberOfBytes": "16"
					},
					"t_uint256": {
						"encoding": "inplace",
						"label": "uint256",
						"numberOfBytes": "32"
					},
					"t_uint32": {
						"encoding": "inplace",
						"label": "uint32",
						"numberOfBytes": "4"
					},
					"t_uint96": {
						"encoding": "inplace",
						"label": "uint96",
						"numberOfBytes": "12"
					}
				}
			},
			"userdoc": {
				"kind": "user",
				"methods": {},
				"version": 1
			}
		}
	}
}