{
	"data": {
		"bytecode": {
			"linkReferences": {},
			"object": "608060405234801561000f575f5ffd5b506040516128a23803806128a283398181016040528101906100319190610404565b336040518060400160405280601d81526020017fe68891e79a84e6b58be8af95e79c8be5a49ae69c9fe69d83546f6b656e0000008152506040518060400160405280600981526020017f43414c4c544f4b454e000000000000000000000000000000000000000000000081525081600390816100ad91906106a5565b5080600490816100bd91906106a5565b5050505f73ffffffffffffffffffffffffffffffffffffffff168173ffffffffffffffffffffffffffffffffffffffff1603610130575f6040517f1e4fbdf70000000000000000000000000000000000000000000000000000000081526004016101279190610783565b60405180910390fd5b61013f8161021360201b60201c565b508260075f6101000a8154816fffffffffffffffffffffffffffffffff02191690836fffffffffffffffffffffffffffffffff16021790555081600760106101000a8154816bffffffffffffffffffffffff02191690836bffffffffffffffffffffffff160217905550806007601c6101000a81548163ffffffff021916908363ffffffff1602179055508360065f6101000a81548173ffffffffffffffffffffffffffffffffffffffff021916908373ffffffffffffffffffffffffffffffffffffffff1602179055505050505061079c565b5f60055f9054906101000a900473ffffffffffffffffffffffffffffffffffffffff1690508160055f6101000a81548173ffffffffffffffffffffffffffffffffffffffff021916908373ffffffffffffffffffffffffffffffffffffffff1602179055508173ffffffffffffffffffffffffffffffffffffffff168173ffffffffffffffffffffffffffffffffffffffff167f8be0079c531659141344cd1fd0a4f28419497f9722a3daafe3b4186f6b6457e060405160405180910390a35050565b5f5ffd5b5f73ffffffffffffffffffffffffffffffffffffffff82169050919050565b5f610303826102da565b9050919050565b5f610314826102f9565b9050919050565b6103248161030a565b811461032e575f5ffd5b50565b5f8151905061033f8161031b565b92915050565b5f6fffffffffffffffffffffffffffffffff82169050919050565b61036981610345565b8114610373575f5ffd5b50565b5f8151905061038481610360565b92915050565b5f6bffffffffffffffffffffffff82169050919050565b6103aa8161038a565b81146103b4575f5ffd5b50565b5f815190506103c5816103a1565b92915050565b5f63ffffffff82169050919050565b6103e3816103cb565b81146103ed575f5ffd5b50565b5f815190506103fe816103da565b92915050565b5f5f5f5f6080858703121561041c5761041b6102d6565b5b5f61042987828801610331565b945050602061043a87828801610376565b935050604061044b878288016103b7565b925050606061045c878288016103f0565b91505092959194509250565b5f81519050919050565b7f4e487b71000000000000000000000000000000000000000000000000000000005f52604160045260245ffd5b7f4e487b71000000000000000000000000000000000000000000000000000000005f52602260045260245ffd5b5f60028204905060018216806104e357607f821691505b6020821081036104f6576104f561049f565b5b50919050565b5f819050815f5260205f209050919050565b5f6020601f8301049050919050565b5f82821b905092915050565b5f600883026105587fffffffffffffffffffffffffffffffffffffffffffffffffffffffffffffffff8261051d565b610562868361051d565b95508019841693508086168417925050509392505050565b5f819050919050565b5f819050919050565b5f6105a66105a161059c8461057a565b610583565b61057a565b9050919050565b5f819050919050565b6105bf8361058c565b6105d36105cb826105ad565b848454610529565b825550505050565b5f5f905090565b6105ea6105db565b6105f58184846105b6565b505050565b5b818110156106185761060d5f826105e2565b6001810190506105fb565b5050565b601f82111561065d5761062e816104fc565b6106378461050e565b81016020851015610646578190505b61065a6106528561050e565b8301826105fa565b50505b505050565b5f82821c905092915050565b5f61067d5f1984600802610662565b1980831691505092915050565b5f610695838361066e565b9150826002028217905092915050565b6106ae82610468565b67ffffffffffffffff8111156106c7576106c6610472565b5b6106d182546104cc565b6106dc82828561061c565b5f60209050601f83116001811461070d575f84156106fb578287015190505b610705858261068a565b86555061076c565b601f19841661071b866104fc565b5f5b828110156107425784890151825560018201915060208501945060208101905061071d565b8683101561075f578489015161075b601f89168261066e565b8355505b6001600288020188555050505b505050505050565b61077d816102f9565b82525050565b5f6020820190506107965f830184610774565b92915050565b6120f9806107a95f395ff3fe608060405260043610610113575f3560e01c8063715018a61161009f578063a9059cbb11610063578063a9059cbb1461034f578063dd62ed3e1461038b578063ec46c4ef146103c7578063f2fde38b146103f1578063f8b75fb51461041957610113565b8063715018a61461029357806383b6fa98146102a95780638da5cb5b146102d157806395d89b41146102fb578063a035b1fe1461032557610113565b8063313ce567116100e6578063313ce567146101e3578063384b23671461020d5780633e413bee146102175780636bdebcc91461024157806370a082311461025757610113565b806306fdde0314610117578063095ea7b31461014157806318160ddd1461017d57806323b872dd146101a7575b5f5ffd5b348015610122575f5ffd5b5061012b610443565b60405161013891906117f5565b60405180910390f35b34801561014c575f5ffd5b50610167600480360381019061016291906118a6565b6104d3565b60405161017491906118fe565b60405180910390f35b348015610188575f5ffd5b506101916104f5565b60405161019e9190611926565b60405180910390f35b3480156101b2575f5ffd5b506101cd60048036038101906101c8919061193f565b6104fe565b6040516101da91906118fe565b60405180910390f35b3480156101ee575f5ffd5b506101f761052c565b60405161020491906119aa565b60405180910390f35b610215610534565b005b348015610222575f5ffd5b5061022b61058a565b6040516102389190611a1e565b60405180910390f35b34801561024c575f5ffd5b506102556105af565b005b348015610262575f5ffd5b5061027d60048036038101906102789190611a37565b610742565b60405161028a9190611926565b60405180910390f35b34801561029e575f5ffd5b506102a7610787565b005b3480156102b4575f5ffd5b506102cf60048036038101906102ca9190611a62565b61079a565b005b3480156102dc575f5ffd5b506102e5610945565b6040516102f29190611a9c565b60405180910390f35b348015610306575f5ffd5b5061030f61096d565b60405161031c91906117f5565b60405180910390f35b348015610330575f5ffd5b506103396109fd565b6040516103469190611adf565b60405180910390f35b34801561035a575f5ffd5b50610375600480360381019061037091906118a6565b610a1e565b60405161038291906118fe565b60405180910390f35b348015610396575f5ffd5b506103b160048036038101906103ac9190611af8565b610a40565b6040516103be9190611926565b60405180910390f35b3480156103d2575f5ffd5b506103db610ac2565b6040516103e89190611b5c565b60405180910390f35b3480156103fc575f5ffd5b5061041760048036038101906104129190611a37565b610ae0565b005b348015610424575f5ffd5b5061042d610b64565b60405161043a9190611b93565b60405180910390f35b60606003805461045290611bd9565b80601f016020809104026020016040519081016040528092919081815260200182805461047e90611bd9565b80156104c95780601f106104a0576101008083540402835291602001916104c9565b820191905f5260205f20905b8154815290600101906020018083116104ac57829003601f168201915b5050505050905090565b5f5f6104dd610b7a565b90506104ea818585610b81565b600191505092915050565b5f600254905090565b5f5f610508610b7a565b9050610515858285610b93565b610520858585610c25565b60019150509392505050565b5f6012905090565b61053c610d15565b5f341161057e576040517f08c379a000000000000000000000000000000000000000000000000000000000815260040161057590611c53565b60405180910390fd5b6105883334610d9c565b565b60065f9054906101000a900473ffffffffffffffffffffffffffffffffffffffff1681565b6105b7610d15565b6007601c9054906101000a900463ffffffff1663ffffffff16600760109054906101000a90046bffffffffffffffffffffffff166105f59190611c9e565b6bffffffffffffffffffffffff16421015610645576040517f08c379a000000000000000000000000000000000000000000000000000000000815260040161063c90611d27565b60405180910390fd5b6107293360065f9054906101000a900473ffffffffffffffffffffffffffffffffffffffff1673ffffffffffffffffffffffffffffffffffffffff166370a08231306040518263ffffffff1660e01b81526004016106a39190611a9c565b602060405180830381865afa1580156106be573d5f5f3e3d5ffd5b505050506040513d601f19601f820116820180604052508101906106e29190611d59565b60065f9054906101000a900473ffffffffffffffffffffffffffffffffffffffff1673ffffffffffffffffffffffffffffffffffffffff16610e1b9092919063ffffffff16565b3373ffffffffffffffffffffffffffffffffffffffff16ff5b5f5f5f8373ffffffffffffffffffffffffffffffffffffffff1673ffffffffffffffffffffffffffffffffffffffff1681526020019081526020015f20549050919050565b61078f610d15565b6107985f610e9a565b565b600760109054906101000a90046bffffffffffffffffffffffff166bffffffffffffffffffffffff16421015801561081c57506007601c9054906101000a900463ffffffff1663ffffffff16600760109054906101000a90046bffffffffffffffffffffffff1661080b9190611c9e565b6bffffffffffffffffffffffff1642105b61085b576040517f08c379a000000000000000000000000000000000000000000000000000000000815260040161085290611dce565b60405180910390fd5b8061086533610742565b10156108a6576040517f08c379a000000000000000000000000000000000000000000000000000000000815260040161089d90611e36565b60405180910390fd5b6108b03382610f5d565b610938333060075f9054906101000a90046fffffffffffffffffffffffffffffffff166fffffffffffffffffffffffffffffffff16846108f09190611e54565b60065f9054906101000a900473ffffffffffffffffffffffffffffffffffffffff1673ffffffffffffffffffffffffffffffffffffffff16610fdc909392919063ffffffff16565b610942338261105e565b50565b5f60055f9054906101000a900473ffffffffffffffffffffffffffffffffffffffff16905090565b60606004805461097c90611bd9565b80601f01602080910402602001604051908101604052809291908181526020018280546109a890611bd9565b80156109f35780601f106109ca576101008083540402835291602001916109f3565b820191905f5260205f20905b8154815290600101906020018083116109d657829003601f168201915b5050505050905090565b60075f9054906101000a90046fffffffffffffffffffffffffffffffff1681565b5f5f610a28610b7a565b9050610a35818585610c25565b600191505092915050565b5f60015f8473ffffffffffffffffffffffffffffffffffffffff1673ffffffffffffffffffffffffffffffffffffffff1681526020019081526020015f205f8373ffffffffffffffffffffffffffffffffffffffff1673ffffffffffffffffffffffffffffffffffffffff1681526020019081526020015f2054905092915050565b600760109054906101000a90046bffffffffffffffffffffffff1681565b610ae8610d15565b5f73ffffffffffffffffffffffffffffffffffffffff168173ffffffffffffffffffffffffffffffffffffffff1603610b58575f6040517f1e4fbdf7000000000000000000000000000000000000000000000000000000008152600401610b4f9190611a9c565b60405180910390fd5b610b6181610e9a565b50565b6007601c9054906101000a900463ffffffff1681565b5f33905090565b610b8e8383836001611159565b505050565b5f610b9e8484610a40565b90507fffffffffffffffffffffffffffffffffffffffffffffffffffffffffffffffff8114610c1f5781811015610c10578281836040517ffb8f41b2000000000000000000000000000000000000000000000000000000008152600401610c0793929190611e95565b60405180910390fd5b610c1e84848484035f611159565b5b50505050565b5f73ffffffffffffffffffffffffffffffffffffffff168373ffffffffffffffffffffffffffffffffffffffff1603610c95575f6040517f96c6fd1e000000000000000000000000000000000000000000000000000000008152600401610c8c9190611a9c565b60405180910390fd5b5f73ffffffffffffffffffffffffffffffffffffffff168273ffffffffffffffffffffffffffffffffffffffff1603610d05575f6040517fec442f05000000000000000000000000000000000000000000000000000000008152600401610cfc9190611a9c565b60405180910390fd5b610d10838383611328565b505050565b610d1d610b7a565b73ffffffffffffffffffffffffffffffffffffffff16610d3b610945565b73ffffffffffffffffffffffffffffffffffffffff1614610d9a57610d5e610b7a565b6040517f118cdaa7000000000000000000000000000000000000000000000000000000008152600401610d919190611a9c565b60405180910390fd5b565b5f73ffffffffffffffffffffffffffffffffffffffff168273ffffffffffffffffffffffffffffffffffffffff1603610e0c575f6040517fec442f05000000000000000000000000000000000000000000000000000000008152600401610e039190611a9c565b60405180910390fd5b610e175f8383611328565b5050565b610e95838473ffffffffffffffffffffffffffffffffffffffff1663a9059cbb8585604051602401610e4e929190611eca565b604051602081830303815290604052915060e01b6020820180517bffffffffffffffffffffffffffffffffffffffffffffffffffffffff8381831617835250505050611541565b505050565b5f60055f9054906101000a900473ffffffffffffffffffffffffffffffffffffffff1690508160055f6101000a81548173ffffffffffffffffffffffffffffffffffffffff021916908373ffffffffffffffffffffffffffffffffffffffff1602179055508173ffffffffffffffffffffffffffffffffffffffff168173ffffffffffffffffffffffffffffffffffffffff167f8be0079c531659141344cd1fd0a4f28419497f9722a3daafe3b4186f6b6457e060405160405180910390a35050565b5f73ffffffffffffffffffffffffffffffffffffffff168273ffffffffffffffffffffffffffffffffffffffff1603610fcd575f6040517f96c6fd1e000000000000000000000000000000000000000000000000000000008152600401610fc49190611a9c565b60405180910390fd5b610fd8825f83611328565b5050565b611058848573ffffffffffffffffffffffffffffffffffffffff166323b872dd86868660405160240161101193929190611ef1565b604051602081830303815290604052915060e01b6020820180517bffffffffffffffffffffffffffffffffffffffffffffffffffffffff8381831617835250505050611541565b50505050565b5f8273ffffffffffffffffffffffffffffffffffffffff16825f67ffffffffffffffff81111561109157611090611f26565b5b6040519080825280601f01601f1916602001820160405280156110c35781602001600182028036833780820191505090505b506040516110d19190611f97565b5f6040518083038185875af1925050503d805f811461110b576040519150601f19603f3d011682016040523d82523d5f602084013e611110565b606091505b5050905080611154576040517f08c379a000000000000000000000000000000000000000000000000000000000815260040161114b9061201d565b60405180910390fd5b505050565b5f73ffffffffffffffffffffffffffffffffffffffff168473ffffffffffffffffffffffffffffffffffffffff16036111c9575f6040517fe602df050000000000000000000000000000000000000000000000000000000081526004016111c09190611a9c565b60405180910390fd5b5f73ffffffffffffffffffffffffffffffffffffffff168373ffffffffffffffffffffffffffffffffffffffff1603611239575f6040517f94280d620000000000000000000000000000000000000000000000000000000081526004016112309190611a9c565b60405180910390fd5b8160015f8673ffffffffffffffffffffffffffffffffffffffff1673ffffffffffffffffffffffffffffffffffffffff1681526020019081526020015f205f8573ffffffffffffffffffffffffffffffffffffffff1673ffffffffffffffffffffffffffffffffffffffff1681526020019081526020015f20819055508015611322578273ffffffffffffffffffffffffffffffffffffffff168473ffffffffffffffffffffffffffffffffffffffff167f8c5be1e5ebec7d5bd14f71427d1e84f3dd0314c0f7b2291e5b200ac8c7c3b925846040516113199190611926565b60405180910390a35b50505050565b5f73ffffffffffffffffffffffffffffffffffffffff168373ffffffffffffffffffffffffffffffffffffffff1603611378578060025f82825461136c919061203b565b92505081905550611446565b5f5f5f8573ffffffffffffffffffffffffffffffffffffffff1673ffffffffffffffffffffffffffffffffffffffff1681526020019081526020015f2054905081811015611401578381836040517fe450d38c0000000000000000000000000000000000000000000000000000000081526004016113f893929190611e95565b60405180910390fd5b8181035f5f8673ffffffffffffffffffffffffffffffffffffffff1673ffffffffffffffffffffffffffffffffffffffff1681526020019081526020015f2081905550505b5f73ffffffffffffffffffffffffffffffffffffffff168273ffffffffffffffffffffffffffffffffffffffff160361148d578060025f82825403925050819055506114d7565b805f5f8473ffffffffffffffffffffffffffffffffffffffff1673ffffffffffffffffffffffffffffffffffffffff1681526020019081526020015f205f82825401925050819055505b8173ffffffffffffffffffffffffffffffffffffffff168373ffffffffffffffffffffffffffffffffffffffff167fddf252ad1be2c89b69c2b068fc378daa952ba7f163c4a11628f55a4df523b3ef836040516115349190611926565b60405180910390a3505050565b5f61156b828473ffffffffffffffffffffffffffffffffffffffff166115d690919063ffffffff16565b90505f81511415801561158f57508080602001905181019061158d9190612098565b155b156115d157826040517f5274afe70000000000000000000000000000000000000000000000000000000081526004016115c89190611a9c565b60405180910390fd5b505050565b60606115e383835f6115eb565b905092915050565b60608147101561163257306040517fcd7860590000000000000000000000000000000000000000000000000000000081526004016116299190611a9c565b60405180910390fd5b5f5f8573ffffffffffffffffffffffffffffffffffffffff16848660405161165a9190611f97565b5f6040518083038185875af1925050503d805f8114611694576040519150601f19603f3d011682016040523d82523d5f602084013e611699565b606091505b50915091506116a98683836116b4565b925050509392505050565b6060826116c9576116c482611741565b611739565b5f82511480156116ef57505f8473ffffffffffffffffffffffffffffffffffffffff163b145b1561173157836040517f9996b3150000000000000000000000000000000000000000000000000000000081526004016117289190611a9c565b60405180910390fd5b81905061173a565b5b9392505050565b5f815111156117535780518082602001fd5b6040517f1425ea4200000000000000000000000000000000000000000000000000000000815260040160405180910390fd5b5f81519050919050565b5f82825260208201905092915050565b8281835e5f83830152505050565b5f601f19601f8301169050919050565b5f6117c782611785565b6117d1818561178f565b93506117e181856020860161179f565b6117ea816117ad565b840191505092915050565b5f6020820190508181035f83015261180d81846117bd565b905092915050565b5f5ffd5b5f73ffffffffffffffffffffffffffffffffffffffff82169050919050565b5f61184282611819565b9050919050565b61185281611838565b811461185c575f5ffd5b50565b5f8135905061186d81611849565b92915050565b5f819050919050565b61188581611873565b811461188f575f5ffd5b50565b5f813590506118a08161187c565b92915050565b5f5f604083850312156118bc576118bb611815565b5b5f6118c98582860161185f565b92505060206118da85828601611892565b9150509250929050565b5f8115159050919050565b6118f8816118e4565b82525050565b5f6020820190506119115f8301846118ef565b92915050565b61192081611873565b82525050565b5f6020820190506119395f830184611917565b92915050565b5f5f5f6060848603121561195657611955611815565b5b5f6119638682870161185f565b93505060206119748682870161185f565b925050604061198586828701611892565b9150509250925092565b5f60ff82169050919050565b6119a48161198f565b82525050565b5f6020820190506119bd5f83018461199b565b92915050565b5f819050919050565b5f6119e66119e16119dc84611819565b6119c3565b611819565b9050919050565b5f6119f7826119cc565b9050919050565b5f611a08826119ed565b9050919050565b611a18816119fe565b82525050565b5f602082019050611a315f830184611a0f565b92915050565b5f60208284031215611a4c57611a4b611815565b5b5f611a598482850161185f565b91505092915050565b5f60208284031215611a7757611a76611815565b5b5f611a8484828501611892565b91505092915050565b611a9681611838565b82525050565b5f602082019050611aaf5f830184611a8d565b92915050565b5f6fffffffffffffffffffffffffffffffff82169050919050565b611ad981611ab5565b82525050565b5f602082019050611af25f830184611ad0565b92915050565b5f5f60408385031215611b0e57611b0d611815565b5b5f611b1b8582860161185f565b9250506020611b2c8582860161185f565b9150509250929050565b5f6bffffffffffffffffffffffff82169050919050565b611b5681611b36565b82525050565b5f602082019050611b6f5f830184611b4d565b92915050565b5f63ffffffff82169050919050565b611b8d81611b75565b82525050565b5f602082019050611ba65f830184611b84565b92915050565b7f4e487b71000000000000000000000000000000000000000000000000000000005f52602260045260245ffd5b5f6002820490506001821680611bf057607f821691505b602082108103611c0357611c02611bac565b5b50919050565b7f6574682076616c75652063616e742062652030000000000000000000000000005f82015250565b5f611c3d60138361178f565b9150611c4882611c09565b602082019050919050565b5f6020820190508181035f830152611c6a81611c31565b9050919050565b7f4e487b71000000000000000000000000000000000000000000000000000000005f52601160045260245ffd5b5f611ca882611b36565b9150611cb383611b36565b925082820190506bffffffffffffffffffffffff811115611cd757611cd6611c71565b5b92915050565b7f6e6f7420657870697265207965740000000000000000000000000000000000005f82015250565b5f611d11600e8361178f565b9150611d1c82611cdd565b602082019050919050565b5f6020820190508181035f830152611d3e81611d05565b9050919050565b5f81519050611d538161187c565b92915050565b5f60208284031215611d6e57611d6d611815565b5b5f611d7b84828501611d45565b91505092915050565b7f6e6f7420696e20736574746c652074696d652072616e676500000000000000005f82015250565b5f611db860188361178f565b9150611dc382611d84565b602082019050919050565b5f6020820190508181035f830152611de581611dac565b9050919050565b7f616d6f756e74206d757374203e2062616c616e636500000000000000000000005f82015250565b5f611e2060158361178f565b9150611e2b82611dec565b602082019050919050565b5f6020820190508181035f830152611e4d81611e14565b9050919050565b5f611e5e82611873565b9150611e6983611873565b9250828202611e7781611873565b91508282048414831517611e8e57611e8d611c71565b5b5092915050565b5f606082019050611ea85f830186611a8d565b611eb56020830185611917565b611ec26040830184611917565b949350505050565b5f604082019050611edd5f830185611a8d565b611eea6020830184611917565b9392505050565b5f606082019050611f045f830186611a8d565b611f116020830185611a8d565b611f1e6040830184611917565b949350505050565b7f4e487b71000000000000000000000000000000000000000000000000000000005f52604160045260245ffd5b5f81519050919050565b5f81905092915050565b5f611f7182611f53565b611f7b8185611f5d565b9350611f8b81856020860161179f565b80840191505092915050565b5f611fa28284611f67565b915081905092915050565b7f5472616e7366657248656c7065723a3a736166655472616e736665724554483a5f8201527f20455448207472616e73666572206661696c6564000000000000000000000000602082015250565b5f61200760348361178f565b915061201282611fad565b604082019050919050565b5f6020820190508181035f83015261203481611ffb565b9050919050565b5f61204582611873565b915061205083611873565b925082820190508082111561206857612067611c71565b5b92915050565b612077816118e4565b8114612081575f5ffd5b50565b5f815190506120928161206e565b92915050565b5f602082840312156120ad576120ac611815565b5b5f6120ba84828501612084565b9150509291505056fea26469706673582212209a4f95c4b892dfe0197508d4f4588e3bab2911227899c52fe1881ceff65f3af264736f6c634300081b0033",
			"opcodes": "PUSH1 0x80 PUSH1 0x40 MSTORE CALLVALUE DUP1 ISZERO PUSH2 0xF JUMPI PUSH0 PUSH0 REVERT JUMPDEST POP PUSH1 0x40 MLOAD PUSH2 0x28A2 CODESIZE SUB DUP1 PUSH2 0x28A2 DUP4 CODECOPY DUP2 DUP2 ADD PUSH1 0x40 MSTORE DUP2 ADD SWAP1 PUSH2 0x31 SWAP2 SWAP1 PUSH2 0x404 JUMP JUMPDEST CALLER PUSH1 0x40 MLOAD DUP1 PUSH1 0x40 ADD PUSH1 0x40 MSTORE DUP1 PUSH1 0x1D DUP2 MSTORE PUSH1 0x20 ADD PUSH32 0xE68891E79A84E6B58BE8AF95E79C8BE5A49AE69C9FE69D83546F6B656E000000 DUP2 MSTORE POP PUSH1 0x40 MLOAD DUP1 PUSH1 0x40 ADD PUSH1 0x40 MSTORE DUP1 PUSH1 0x9 DUP2 MSTORE PUSH1 0x20 ADD PUSH32 0x43414C4C544F4B454E0000000000000000000000000000000000000000000000 DUP2 MSTORE POP DUP2 PUSH1 0x3 SWAP1 DUP2 PUSH2 0xAD SWAP2 SWAP1 PUSH2 0x6A5 JUMP JUMPDEST POP DUP1 PUSH1 0x4 SWAP1 DUP2 PUSH2 0xBD SWAP2 SWAP1 PUSH2 0x6A5 JUMP JUMPDEST POP POP POP PUSH0 PUSH20 0xFFFFFFFFFFFFFFFFFFFFFFFFFFFFFFFFFFFFFFFF AND DUP2 PUSH20 0xFFFFFFFFFFFFFFFFFFFFFFFFFFFFFFFFFFFFFFFF AND SUB PUSH2 0x130 JUMPI PUSH0 PUSH1 0x40 MLOAD PUSH32 0x1E4FBDF700000000000000000000000000000000000000000000000000000000 DUP2 MSTORE PUSH1 0x4 ADD PUSH2 0x127 SWAP2 SWAP1 PUSH2 0x783 JUMP JUMPDEST PUSH1 0x40 MLOAD DUP1 SWAP2 SUB SWAP1 REVERT JUMPDEST PUSH2 0x13F DUP2 PUSH2 0x213 PUSH1 0x20 SHL PUSH1 0x20 SHR JUMP JUMPDEST POP DUP3 PUSH1 0x7 PUSH0 PUSH2 0x100 EXP DUP2 SLOAD DUP2 PUSH16 0xFFFFFFFFFFFFFFFFFFFFFFFFFFFFFFFF MUL NOT AND SWAP1 DUP4 PUSH16 0xFFFFFFFFFFFFFFFFFFFFFFFFFFFFFFFF AND MUL OR SWAP1 SSTORE POP DUP2 PUSH1 0x7 PUSH1 0x10 PUSH2 0x100 EXP DUP2 SLOAD DUP2 PUSH12 0xFFFFFFFFFFFFFFFFFFFFFFFF MUL NOT AND SWAP1 DUP4 PUSH12 0xFFFFFFFFFFFFFFFFFFFFFFFF AND MUL OR SWAP1 SSTORE POP DUP1 PUSH1 0x7 PUSH1 0x1C PUSH2 0x100 EXP DUP2 SLOAD DUP2 PUSH4 0xFFFFFFFF MUL NOT AND SWAP1 DUP4 PUSH4 0xFFFFFFFF AND MUL OR SWAP1 SSTORE POP DUP4 PUSH1 0x6 PUSH0 PUSH2 0x100 EXP DUP2 SLOAD DUP2 PUSH20 0xFFFFFFFFFFFFFFFFFFFFFFFFFFFFFFFFFFFFFFFF MUL NOT AND SWAP1 DUP4 PUSH20 0xFFFFFFFFFFFFFFFFFFFFFFFFFFFFFFFFFFFFFFFF AND MUL OR SWAP1 SSTORE POP POP POP POP POP PUSH2 0x79C JUMP JUMPDEST PUSH0 PUSH1 0x5 PUSH0 SWAP1 SLOAD SWAP1 PUSH2 0x100 EXP SWAP1 DIV PUSH20 0xFFFFFFFFFFFFFFFFFFFFFFFFFFFFFFFFFFFFFFFF AND SWAP1 POP DUP2 PUSH1 0x5 PUSH0 PUSH2 0x100 EXP DUP2 SLOAD DUP2 PUSH20 0xFFFFFFFFFFFFFFFFFFFFFFFFFFFFFFFFFFFFFFFF MUL NOT AND SWAP1 DUP4 PUSH20 0xFFFFFFFFFFFFFFFFFFFFFFFFFFFFFFFFFFFFFFFF AND MUL OR SWAP1 SSTORE POP DUP2 PUSH20 0xFFFFFFFFFFFFFFFFFFFFFFFFFFFFFFFFFFFFFFFF AND DUP2 PUSH20 0xFFFFFFFFFFFFFFFFFFFFFFFFFFFFFFFFFFFFFFFF AND PUSH32 0x8BE0079C531659141344CD1FD0A4F28419497F9722A3DAAFE3B4186F6B6457E0 PUSH1 0x40 MLOAD PUSH1 0x40 MLOAD DUP1 SWAP2 SUB SWAP1 LOG3 POP POP JUMP JUMPDEST PUSH0 PUSH0 REVERT JUMPDEST PUSH0 PUSH20 0xFFFFFFFFFFFFFFFFFFFFFFFFFFFFFFFFFFFFFFFF DUP3 AND SWAP1 POP SWAP2 SWAP1 POP JUMP JUMPDEST PUSH0 PUSH2 0x303 DUP3 PUSH2 0x2DA JUMP JUMPDEST SWAP1 POP SWAP2 SWAP1 POP JUMP JUMPDEST PUSH0 PUSH2 0x314 DUP3 PUSH2 0x2F9 JUMP JUMPDEST SWAP1 POP SWAP2 SWAP1 POP JUMP JUMPDEST PUSH2 0x324 DUP2 PUSH2 0x30A JUMP JUMPDEST DUP2 EQ PUSH2 0x32E JUMPI PUSH0 PUSH0 REVERT JUMPDEST POP JUMP JUMPDEST PUSH0 DUP2 MLOAD SWAP1 POP PUSH2 0x33F DUP2 PUSH2 0x31B JUMP JUMPDEST SWAP3 SWAP2 POP POP JUMP JUMPDEST PUSH0 PUSH16 0xFFFFFFFFFFFFFFFFFFFFFFFFFFFFFFFF DUP3 AND SWAP1 POP SWAP2 SWAP1 POP JUMP JUMPDEST PUSH2 0x369 DUP2 PUSH2 0x345 JUMP JUMPDEST DUP2 EQ PUSH2 0x373 JUMPI PUSH0 PUSH0 REVERT JUMPDEST POP JUMP JUMPDEST PUSH0 DUP2 MLOAD SWAP1 POP PUSH2 0x384 DUP2 PUSH2 0x360 JUMP JUMPDEST SWAP3 SWAP2 POP POP JUMP JUMPDEST PUSH0 PUSH12 0xFFFFFFFFFFFFFFFFFFFFFFFF DUP3 AND SWAP1 POP SWAP2 SWAP1 POP JUMP JUMPDEST PUSH2 0x3AA DUP2 PUSH2 0x38A JUMP JUMPDEST DUP2 EQ PUSH2 0x3B4 JUMPI PUSH0 PUSH0 REVERT JUMPDEST POP JUMP JUMPDEST PUSH0 DUP2 MLOAD SWAP1 POP PUSH2 0x3C5 DUP2 PUSH2 0x3A1 JUMP JUMPDEST SWAP3 SWAP2 POP POP JUMP JUMPDEST PUSH0 PUSH4 0xFFFFFFFF DUP3 AND SWAP1 POP SWAP2 SWAP1 POP JUMP JUMPDEST PUSH2 0x3E3 DUP2 PUSH2 0x3CB JUMP JUMPDEST DUP2 EQ PUSH2 0x3ED JUMPI PUSH0 PUSH0 REVERT JUMPDEST POP JUMP JUMPDEST PUSH0 DUP2 MLOAD SWAP1 POP PUSH2 0x3FE DUP2 PUSH2 0x3DA JUMP JUMPDEST SWAP3 SWAP2 POP POP JUMP JUMPDEST PUSH0 PUSH0 PUSH0 PUSH0 PUSH1 0x80 DUP6 DUP8 SUB SLT ISZERO PUSH2 0x41C JUMPI PUSH2 0x41B PUSH2 0x2D6 JUMP JUMPDEST JUMPDEST PUSH0 PUSH2 0x429 DUP8 DUP3 DUP9 ADD PUSH2 0x331 JUMP JUMPDEST SWAP5 POP POP PUSH1 0x20 PUSH2 0x43A DUP8 DUP3 DUP9 ADD PUSH2 0x376 JUMP JUMPDEST SWAP4 POP POP PUSH1 0x40 PUSH2 0x44B DUP8 DUP3 DUP9 ADD PUSH2 0x3B7 JUMP JUMPDEST SWAP3 POP POP PUSH1 0x60 PUSH2 0x45C DUP8 DUP3 DUP9 ADD PUSH2 0x3F0 JUMP JUMPDEST SWAP2 POP POP SWAP3 SWAP6 SWAP2 SWAP5 POP SWAP3 POP JUMP JUMPDEST PUSH0 DUP2 MLOAD SWAP1 POP SWAP2 SWAP1 POP JUMP JUMPDEST PUSH32 0x4E487B7100000000000000000000000000000000000000000000000000000000 PUSH0 MSTORE PUSH1 0x41 PUSH1 0x4 MSTORE PUSH1 0x24 PUSH0 REVERT JUMPDEST PUSH32 0x4E487B7100000000000000000000000000000000000000000000000000000000 PUSH0 MSTORE PUSH1 0x22 PUSH1 0x4 MSTORE PUSH1 0x24 PUSH0 REVERT JUMPDEST PUSH0 PUSH1 0x2 DUP3 DIV SWAP1 POP PUSH1 0x1 DUP3 AND DUP1 PUSH2 0x4E3 JUMPI PUSH1 0x7F DUP3 AND SWAP2 POP JUMPDEST PUSH1 0x20 DUP3 LT DUP2 SUB PUSH2 0x4F6 JUMPI PUSH2 0x4F5 PUSH2 0x49F JUMP JUMPDEST JUMPDEST POP SWAP2 SWAP1 POP JUMP JUMPDEST PUSH0 DUP2 SWAP1 POP DUP2 PUSH0 MSTORE PUSH1 0x20 PUSH0 KECCAK256 SWAP1 POP SWAP2 SWAP1 POP JUMP JUMPDEST PUSH0 PUSH1 0x20 PUSH1 0x1F DUP4 ADD DIV SWAP1 POP SWAP2 SWAP1 POP JUMP JUMPDEST PUSH0 DUP3 DUP3 SHL SWAP1 POP SWAP3 SWAP2 POP POP JUMP JUMPDEST PUSH0 PUSH1 0x8 DUP4 MUL PUSH2 0x558 PUSH32 0xFFFFFFFFFFFFFFFFFFFFFFFFFFFFFFFFFFFFFFFFFFFFFFFFFFFFFFFFFFFFFFFF DUP3 PUSH2 0x51D JUMP JUMPDEST PUSH2 0x562 DUP7 DUP4 PUSH2 0x51D JUMP JUMPDEST SWAP6 POP DUP1 NOT DUP5 AND SWAP4 POP DUP1 DUP7 AND DUP5 OR SWAP3 POP POP POP SWAP4 SWAP3 POP POP POP JUMP JUMPDEST PUSH0 DUP2 SWAP1 POP SWAP2 SWAP1 POP JUMP JUMPDEST PUSH0 DUP2 SWAP1 POP SWAP2 SWAP1 POP JUMP JUMPDEST PUSH0 PUSH2 0x5A6 PUSH2 0x5A1 PUSH2 0x59C DUP5 PUSH2 0x57A JUMP JUMPDEST PUSH2 0x583 JUMP JUMPDEST PUSH2 0x57A JUMP JUMPDEST SWAP1 POP SWAP2 SWAP1 POP JUMP JUMPDEST PUSH0 DUP2 SWAP1 POP SWAP2 SWAP1 POP JUMP JUMPDEST PUSH2 0x5BF DUP4 PUSH2 0x58C JUMP JUMPDEST PUSH2 0x5D3 PUSH2 0x5CB DUP3 PUSH2 0x5AD JUMP JUMPDEST DUP5 DUP5 SLOAD PUSH2 0x529 JUMP JUMPDEST DUP3 SSTORE POP POP POP POP JUMP JUMPDEST PUSH0 PUSH0 SWAP1 POP SWAP1 JUMP JUMPDEST PUSH2 0x5EA PUSH2 0x5DB JUMP JUMPDEST PUSH2 0x5F5 DUP2 DUP5 DUP5 PUSH2 0x5B6 JUMP JUMPDEST POP POP POP JUMP JUMPDEST JUMPDEST DUP2 DUP2 LT ISZERO PUSH2 0x618 JUMPI PUSH2 0x60D PUSH0 DUP3 PUSH2 0x5E2 JUMP JUMPDEST PUSH1 0x1 DUP2 ADD SWAP1 POP PUSH2 0x5FB JUMP JUMPDEST POP POP JUMP JUMPDEST PUSH1 0x1F DUP3 GT ISZERO PUSH2 0x65D JUMPI PUSH2 0x62E DUP2 PUSH2 0x4FC JUMP JUMPDEST PUSH2 0x637 DUP5 PUSH2 0x50E JUMP JUMPDEST DUP2 ADD PUSH1 0x20 DUP6 LT ISZERO PUSH2 0x646 JUMPI DUP2 SWAP1 POP JUMPDEST PUSH2 0x65A PUSH2 0x652 DUP6 PUSH2 0x50E JUMP JUMPDEST DUP4 ADD DUP3 PUSH2 0x5FA JUMP JUMPDEST POP POP JUMPDEST POP POP POP JUMP JUMPDEST PUSH0 DUP3 DUP3 SHR SWAP1 POP SWAP3 SWAP2 POP POP JUMP JUMPDEST PUSH0 PUSH2 0x67D PUSH0 NOT DUP5 PUSH1 0x8 MUL PUSH2 0x662 JUMP JUMPDEST NOT DUP1 DUP4 AND SWAP2 POP POP SWAP3 SWAP2 POP POP JUMP JUMPDEST PUSH0 PUSH2 0x695 DUP4 DUP4 PUSH2 0x66E JUMP JUMPDEST SWAP2 POP DUP3 PUSH1 0x2 MUL DUP3 OR SWAP1 POP SWAP3 SWAP2 POP POP JUMP JUMPDEST PUSH2 0x6AE DUP3 PUSH2 0x468 JUMP JUMPDEST PUSH8 0xFFFFFFFFFFFFFFFF DUP2 GT ISZERO PUSH2 0x6C7 JUMPI PUSH2 0x6C6 PUSH2 0x472 JUMP JUMPDEST JUMPDEST PUSH2 0x6D1 DUP3 SLOAD PUSH2 0x4CC JUMP JUMPDEST PUSH2 0x6DC DUP3 DUP3 DUP6 PUSH2 0x61C JUMP JUMPDEST PUSH0 PUSH1 0x20 SWAP1 POP PUSH1 0x1F DUP4 GT PUSH1 0x1 DUP2 EQ PUSH2 0x70D JUMPI PUSH0 DUP5 ISZERO PUSH2 0x6FB JUMPI DUP3 DUP8 ADD MLOAD SWAP1 POP JUMPDEST PUSH2 0x705 DUP6 DUP3 PUSH2 0x68A JUMP JUMPDEST DUP7 SSTORE POP PUSH2 0x76C JUMP JUMPDEST PUSH1 0x1F NOT DUP5 AND PUSH2 0x71B DUP7 PUSH2 0x4FC JUMP JUMPDEST PUSH0 JUMPDEST DUP3 DUP2 LT ISZERO PUSH2 0x742 JUMPI DUP5 DUP10 ADD MLOAD DUP3 SSTORE PUSH1 0x1 DUP3 ADD SWAP2 POP PUSH1 0x20 DUP6 ADD SWAP5 POP PUSH1 0x20 DUP2 ADD SWAP1 POP PUSH2 0x71D JUMP JUMPDEST DUP7 DUP4 LT ISZERO PUSH2 0x75F JUMPI DUP5 DUP10 ADD MLOAD PUSH2 0x75B PUSH1 0x1F DUP10 AND DUP3 PUSH2 0x66E JUMP JUMPDEST DUP4 SSTORE POP JUMPDEST PUSH1 0x1 PUSH1 0x2 DUP9 MUL ADD DUP9 SSTORE POP POP POP JUMPDEST POP POP POP POP POP POP JUMP JUMPDEST PUSH2 0x77D DUP2 PUSH2 0x2F9 JUMP JUMPDEST DUP3 MSTORE POP POP JUMP JUMPDEST PUSH0 PUSH1 0x20 DUP3 ADD SWAP1 POP PUSH2 0x796 PUSH0 DUP4 ADD DUP5 PUSH2 0x774 JUMP JUMPDEST SWAP3 SWAP2 POP POP JUMP JUMPDEST PUSH2 0x20F9 DUP1 PUSH2 0x7A9 PUSH0 CODECOPY PUSH0 RETURN INVALID PUSH1 0x80 PUSH1 0x40 MSTORE PUSH1 0x4 CALLDATASIZE LT PUSH2 0x113 JUMPI PUSH0 CALLDATALOAD PUSH1 0xE0 SHR DUP1 PUSH4 0x715018A6 GT PUSH2 0x9F JUMPI DUP1 PUSH4 0xA9059CBB GT PUSH2 0x63 JUMPI DUP1 PUSH4 0xA9059CBB EQ PUSH2 0x34F JUMPI DUP1 PUSH4 0xDD62ED3E EQ PUSH2 0x38B JUMPI DUP1 PUSH4 0xEC46C4EF EQ PUSH2 0x3C7 JUMPI DUP1 PUSH4 0xF2FDE38B EQ PUSH2 0x3F1 JUMPI DUP1 PUSH4 0xF8B75FB5 EQ PUSH2 0x419 JUMPI PUSH2 0x113 JUMP JUMPDEST DUP1 PUSH4 0x715018A6 EQ PUSH2 0x293 JUMPI DUP1 PUSH4 0x83B6FA98 EQ PUSH2 0x2A9 JUMPI DUP1 PUSH4 0x8DA5CB5B EQ PUSH2 0x2D1 JUMPI DUP1 PUSH4 0x95D89B41 EQ PUSH2 0x2FB JUMPI DUP1 PUSH4 0xA035B1FE EQ PUSH2 0x325 JUMPI PUSH2 0x113 JUMP JUMPDEST DUP1 PUSH4 0x313CE567 GT PUSH2 0xE6 JUMPI DUP1 PUSH4 0x313CE567 EQ PUSH2 0x1E3 JUMPI DUP1 PUSH4 0x384B2367 EQ PUSH2 0x20D JUMPI DUP1 PUSH4 0x3E413BEE EQ PUSH2 0x217 JUMPI DUP1 PUSH4 0x6BDEBCC9 EQ PUSH2 0x241 JUMPI DUP1 PUSH4 0x70A08231 EQ PUSH2 0x257 JUMPI PUSH2 0x113 JUMP JUMPDEST DUP1 PUSH4 0x6FDDE03 EQ PUSH2 0x117 JUMPI DUP1 PUSH4 0x95EA7B3 EQ PUSH2 0x141 JUMPI DUP1 PUSH4 0x18160DDD EQ PUSH2 0x17D JUMPI DUP1 PUSH4 0x23B872DD EQ PUSH2 0x1A7 JUMPI JUMPDEST PUSH0 PUSH0 REVERT JUMPDEST CALLVALUE DUP1 ISZERO PUSH2 0x122 JUMPI PUSH0 PUSH0 REVERT JUMPDEST POP PUSH2 0x12B PUSH2 0x443 JUMP JUMPDEST PUSH1 0x40 MLOAD PUSH2 0x138 SWAP2 SWAP1 PUSH2 0x17F5 JUMP JUMPDEST PUSH1 0x40 MLOAD DUP1 SWAP2 SUB SWAP1 RETURN JUMPDEST CALLVALUE DUP1 ISZERO PUSH2 0x14C JUMPI PUSH0 PUSH0 REVERT JUMPDEST POP PUSH2 0x167 PUSH1 0x4 DUP1 CALLDATASIZE SUB DUP2 ADD SWAP1 PUSH2 0x162 SWAP2 SWAP1 PUSH2 0x18A6 JUMP JUMPDEST PUSH2 0x4D3 JUMP JUMPDEST PUSH1 0x40 MLOAD PUSH2 0x174 SWAP2 SWAP1 PUSH2 0x18FE JUMP JUMPDEST PUSH1 0x40 MLOAD DUP1 SWAP2 SUB SWAP1 RETURN JUMPDEST CALLVALUE DUP1 ISZERO PUSH2 0x188 JUMPI PUSH0 PUSH0 REVERT JUMPDEST POP PUSH2 0x191 PUSH2 0x4F5 JUMP JUMPDEST PUSH1 0x40 MLOAD PUSH2 0x19E SWAP2 SWAP1 PUSH2 0x1926 JUMP JUMPDEST PUSH1 0x40 MLOAD DUP1 SWAP2 SUB SWAP1 RETURN JUMPDEST CALLVALUE DUP1 ISZERO PUSH2 0x1B2 JUMPI PUSH0 PUSH0 REVERT JUMPDEST POP PUSH2 0x1CD PUSH1 0x4 DUP1 CALLDATASIZE SUB DUP2 ADD SWAP1 PUSH2 0x1C8 SWAP2 SWAP1 PUSH2 0x193F JUMP JUMPDEST PUSH2 0x4FE JUMP JUMPDEST PUSH1 0x40 MLOAD PUSH2 0x1DA SWAP2 SWAP1 PUSH2 0x18FE JUMP JUMPDEST PUSH1 0x40 MLOAD DUP1 SWAP2 SUB SWAP1 RETURN JUMPDEST CALLVALUE DUP1 ISZERO PUSH2 0x1EE JUMPI PUSH0 PUSH0 REVERT JUMPDEST POP PUSH2 0x1F7 PUSH2 0x52C JUMP JUMPDEST PUSH1 0x40 MLOAD PUSH2 0x204 SWAP2 SWAP1 PUSH2 0x19AA JUMP JUMPDEST PUSH1 0x40 MLOAD DUP1 SWAP2 SUB SWAP1 RETURN JUMPDEST PUSH2 0x215 PUSH2 0x534 JUMP JUMPDEST STOP JUMPDEST CALLVALUE DUP1 ISZERO PUSH2 0x222 JUMPI PUSH0 PUSH0 REVERT JUMPDEST POP PUSH2 0x22B PUSH2 0x58A JUMP JUMPDEST PUSH1 0x40 MLOAD PUSH2 0x238 SWAP2 SWAP1 PUSH2 0x1A1E JUMP JUMPDEST PUSH1 0x40 MLOAD DUP1 SWAP2 SUB SWAP1 RETURN JUMPDEST CALLVALUE DUP1 ISZERO PUSH2 0x24C JUMPI PUSH0 PUSH0 REVERT JUMPDEST POP PUSH2 0x255 PUSH2 0x5AF JUMP JUMPDEST STOP JUMPDEST CALLVALUE DUP1 ISZERO PUSH2 0x262 JUMPI PUSH0 PUSH0 REVERT JUMPDEST POP PUSH2 0x27D PUSH1 0x4 DUP1 CALLDATASIZE SUB DUP2 ADD SWAP1 PUSH2 0x278 SWAP2 SWAP1 PUSH2 0x1A37 JUMP JUMPDEST PUSH2 0x742 JUMP JUMPDEST PUSH1 0x40 MLOAD PUSH2 0x28A SWAP2 SWAP1 PUSH2 0x1926 JUMP JUMPDEST PUSH1 0x40 MLOAD DUP1 SWAP2 SUB SWAP1 RETURN JUMPDEST CALLVALUE DUP1 ISZERO PUSH2 0x29E JUMPI PUSH0 PUSH0 REVERT JUMPDEST POP PUSH2 0x2A7 PUSH2 0x787 JUMP JUMPDEST STOP JUMPDEST CALLVALUE DUP1 ISZERO PUSH2 0x2B4 JUMPI PUSH0 PUSH0 REVERT JUMPDEST POP PUSH2 0x2CF PUSH1 0x4 DUP1 CALLDATASIZE SUB DUP2 ADD SWAP1 PUSH2 0x2CA SWAP2 SWAP1 PUSH2 0x1A62 JUMP JUMPDEST PUSH2 0x79A JUMP JUMPDEST STOP JUMPDEST CALLVALUE DUP1 ISZERO PUSH2 0x2DC JUMPI PUSH0 PUSH0 REVERT JUMPDEST POP PUSH2 0x2E5 PUSH2 0x945 JUMP JUMPDEST PUSH1 0x40 MLOAD PUSH2 0x2F2 SWAP2 SWAP1 PUSH2 0x1A9C JUMP JUMPDEST PUSH1 0x40 MLOAD DUP1 SWAP2 SUB SWAP1 RETURN JUMPDEST CALLVALUE DUP1 ISZERO PUSH2 0x306 JUMPI PUSH0 PUSH0 REVERT JUMPDEST POP PUSH2 0x30F PUSH2 0x96D JUMP JUMPDEST PUSH1 0x40 MLOAD PUSH2 0x31C SWAP2 SWAP1 PUSH2 0x17F5 JUMP JUMPDEST PUSH1 0x40 MLOAD DUP1 SWAP2 SUB SWAP1 RETURN JUMPDEST CALLVALUE DUP1 ISZERO PUSH2 0x330 JUMPI PUSH0 PUSH0 REVERT JUMPDEST POP PUSH2 0x339 PUSH2 0x9FD JUMP JUMPDEST PUSH1 0x40 MLOAD PUSH2 0x346 SWAP2 SWAP1 PUSH2 0x1ADF JUMP JUMPDEST PUSH1 0x40 MLOAD DUP1 SWAP2 SUB SWAP1 RETURN JUMPDEST CALLVALUE DUP1 ISZERO PUSH2 0x35A JUMPI PUSH0 PUSH0 REVERT JUMPDEST POP PUSH2 0x375 PUSH1 0x4 DUP1 CALLDATASIZE SUB DUP2 ADD SWAP1 PUSH2 0x370 SWAP2 SWAP1 PUSH2 0x18A6 JUMP JUMPDEST PUSH2 0xA1E JUMP JUMPDEST PUSH1 0x40 MLOAD PUSH2 0x382 SWAP2 SWAP1 PUSH2 0x18FE JUMP JUMPDEST PUSH1 0x40 MLOAD DUP1 SWAP2 SUB SWAP1 RETURN JUMPDEST CALLVALUE DUP1 ISZERO PUSH2 0x396 JUMPI PUSH0 PUSH0 REVERT JUMPDEST POP PUSH2 0x3B1 PUSH1 0x4 DUP1 CALLDATASIZE SUB DUP2 ADD SWAP1 PUSH2 0x3AC SWAP2 SWAP1 PUSH2 0x1AF8 JUMP JUMPDEST PUSH2 0xA40 JUMP JUMPDEST PUSH1 0x40 MLOAD PUSH2 0x3BE SWAP2 SWAP1 PUSH2 0x1926 JUMP JUMPDEST PUSH1 0x40 MLOAD DUP1 SWAP2 SUB SWAP1 RETURN JUMPDEST CALLVALUE DUP1 ISZERO PUSH2 0x3D2 JUMPI PUSH0 PUSH0 REVERT JUMPDEST POP PUSH2 0x3DB PUSH2 0xAC2 JUMP JUMPDEST PUSH1 0x40 MLOAD PUSH2 0x3E8 SWAP2 SWAP1 PUSH2 0x1B5C JUMP JUMPDEST PUSH1 0x40 MLOAD DUP1 SWAP2 SUB SWAP1 RETURN JUMPDEST CALLVALUE DUP1 ISZERO PUSH2 0x3FC JUMPI PUSH0 PUSH0 REVERT JUMPDEST POP PUSH2 0x417 PUSH1 0x4 DUP1 CALLDATASIZE SUB DUP2 ADD SWAP1 PUSH2 0x412 SWAP2 SWAP1 PUSH2 0x1A37 JUMP JUMPDEST PUSH2 0xAE0 JUMP JUMPDEST STOP JUMPDEST CALLVALUE DUP1 ISZERO PUSH2 0x424 JUMPI PUSH0 PUSH0 REVERT JUMPDEST POP PUSH2 0x42D PUSH2 0xB64 JUMP JUMPDEST PUSH1 0x40 MLOAD PUSH2 0x43A SWAP2 SWAP1 PUSH2 0x1B93 JUMP JUMPDEST PUSH1 0x40 MLOAD DUP1 SWAP2 SUB SWAP1 RETURN JUMPDEST PUSH1 0x60 PUSH1 0x3 DUP1 SLOAD PUSH2 0x452 SWAP1 PUSH2 0x1BD9 JUMP JUMPDEST DUP1 PUSH1 0x1F ADD PUSH1 0x20 DUP1 SWAP2 DIV MUL PUSH1 0x20 ADD PUSH1 0x40 MLOAD SWAP1 DUP2 ADD PUSH1 0x40 MSTORE DUP1 SWAP3 SWAP2 SWAP1 DUP2 DUP2 MSTORE PUSH1 0x20 ADD DUP3 DUP1 SLOAD PUSH2 0x47E SWAP1 PUSH2 0x1BD9 JUMP JUMPDEST DUP1 ISZERO PUSH2 0x4C9 JUMPI DUP1 PUSH1 0x1F LT PUSH2 0x4A0 JUMPI PUSH2 0x100 DUP1 DUP4 SLOAD DIV MUL DUP4 MSTORE SWAP2 PUSH1 0x20 ADD SWAP2 PUSH2 0x4C9 JUMP JUMPDEST DUP3 ADD SWAP2 SWAP1 PUSH0 MSTORE PUSH1 0x20 PUSH0 KECCAK256 SWAP1 JUMPDEST DUP2 SLOAD DUP2 MSTORE SWAP1 PUSH1 0x1 ADD SWAP1 PUSH1 0x20 ADD DUP1 DUP4 GT PUSH2 0x4AC JUMPI DUP3 SWAP1 SUB PUSH1 0x1F AND DUP3 ADD SWAP2 JUMPDEST POP POP POP POP POP SWAP1 POP SWAP1 JUMP JUMPDEST PUSH0 PUSH0 PUSH2 0x4DD PUSH2 0xB7A JUMP JUMPDEST SWAP1 POP PUSH2 0x4EA DUP2 DUP6 DUP6 PUSH2 0xB81 JUMP JUMPDEST PUSH1 0x1 SWAP2 POP POP SWAP3 SWAP2 POP POP JUMP JUMPDEST PUSH0 PUSH1 0x2 SLOAD SWAP1 POP SWAP1 JUMP JUMPDEST PUSH0 PUSH0 PUSH2 0x508 PUSH2 0xB7A JUMP JUMPDEST SWAP1 POP PUSH2 0x515 DUP6 DUP3 DUP6 PUSH2 0xB93 JUMP JUMPDEST PUSH2 0x520 DUP6 DUP6 DUP6 PUSH2 0xC25 JUMP JUMPDEST PUSH1 0x1 SWAP2 POP POP SWAP4 SWAP3 POP POP POP JUMP JUMPDEST PUSH0 PUSH1 0x12 SWAP1 POP SWAP1 JUMP JUMPDEST PUSH2 0x53C PUSH2 0xD15 JUMP JUMPDEST PUSH0 CALLVALUE GT PUSH2 0x57E JUMPI PUSH1 0x40 MLOAD PUSH32 0x8C379A000000000000000000000000000000000000000000000000000000000 DUP2 MSTORE PUSH1 0x4 ADD PUSH2 0x575 SWAP1 PUSH2 0x1C53 JUMP JUMPDEST PUSH1 0x40 MLOAD DUP1 SWAP2 SUB SWAP1 REVERT JUMPDEST PUSH2 0x588 CALLER CALLVALUE PUSH2 0xD9C JUMP JUMPDEST JUMP JUMPDEST PUSH1 0x6 PUSH0 SWAP1 SLOAD SWAP1 PUSH2 0x100 EXP SWAP1 DIV PUSH20 0xFFFFFFFFFFFFFFFFFFFFFFFFFFFFFFFFFFFFFFFF AND DUP2 JUMP JUMPDEST PUSH2 0x5B7 PUSH2 0xD15 JUMP JUMPDEST PUSH1 0x7 PUSH1 0x1C SWAP1 SLOAD SWAP1 PUSH2 0x100 EXP SWAP1 DIV PUSH4 0xFFFFFFFF AND PUSH4 0xFFFFFFFF AND PUSH1 0x7 PUSH1 0x10 SWAP1 SLOAD SWAP1 PUSH2 0x100 EXP SWAP1 DIV PUSH12 0xFFFFFFFFFFFFFFFFFFFFFFFF AND PUSH2 0x5F5 SWAP2 SWAP1 PUSH2 0x1C9E JUMP JUMPDEST PUSH12 0xFFFFFFFFFFFFFFFFFFFFFFFF AND TIMESTAMP LT ISZERO PUSH2 0x645 JUMPI PUSH1 0x40 MLOAD PUSH32 0x8C379A000000000000000000000000000000000000000000000000000000000 DUP2 MSTORE PUSH1 0x4 ADD PUSH2 0x63C SWAP1 PUSH2 0x1D27 JUMP JUMPDEST PUSH1 0x40 MLOAD DUP1 SWAP2 SUB SWAP1 REVERT JUMPDEST PUSH2 0x729 CALLER PUSH1 0x6 PUSH0 SWAP1 SLOAD SWAP1 PUSH2 0x100 EXP SWAP1 DIV PUSH20 0xFFFFFFFFFFFFFFFFFFFFFFFFFFFFFFFFFFFFFFFF AND PUSH20 0xFFFFFFFFFFFFFFFFFFFFFFFFFFFFFFFFFFFFFFFF AND PUSH4 0x70A08231 ADDRESS PUSH1 0x40 MLOAD DUP3 PUSH4 0xFFFFFFFF AND PUSH1 0xE0 SHL DUP2 MSTORE PUSH1 0x4 ADD PUSH2 0x6A3 SWAP2 SWAP1 PUSH2 0x1A9C JUMP JUMPDEST PUSH1 0x20 PUSH1 0x40 MLOAD DUP1 DUP4 SUB DUP2 DUP7 GAS STATICCALL ISZERO DUP1 ISZERO PUSH2 0x6BE JUMPI RETURNDATASIZE PUSH0 PUSH0 RETURNDATACOPY RETURNDATASIZE PUSH0 REVERT JUMPDEST POP POP POP POP PUSH1 0x40 MLOAD RETURNDATASIZE PUSH1 0x1F NOT PUSH1 0x1F DUP3 ADD AND DUP3 ADD DUP1 PUSH1 0x40 MSTORE POP DUP2 ADD SWAP1 PUSH2 0x6E2 SWAP2 SWAP1 PUSH2 0x1D59 JUMP JUMPDEST PUSH1 0x6 PUSH0 SWAP1 SLOAD SWAP1 PUSH2 0x100 EXP SWAP1 DIV PUSH20 0xFFFFFFFFFFFFFFFFFFFFFFFFFFFFFFFFFFFFFFFF AND PUSH20 0xFFFFFFFFFFFFFFFFFFFFFFFFFFFFFFFFFFFFFFFF AND PUSH2 0xE1B SWAP1 SWAP3 SWAP2 SWAP1 PUSH4 0xFFFFFFFF AND JUMP JUMPDEST CALLER PUSH20 0xFFFFFFFFFFFFFFFFFFFFFFFFFFFFFFFFFFFFFFFF AND SELFDESTRUCT JUMPDEST PUSH0 PUSH0 PUSH0 DUP4 PUSH20 0xFFFFFFFFFFFFFFFFFFFFFFFFFFFFFFFFFFFFFFFF AND PUSH20 0xFFFFFFFFFFFFFFFFFFFFFFFFFFFFFFFFFFFFFFFF AND DUP2 MSTORE PUSH1 0x20 ADD SWAP1 DUP2 MSTORE PUSH1 0x20 ADD PUSH0 KECCAK256 SLOAD SWAP1 POP SWAP2 SWAP1 POP JUMP JUMPDEST PUSH2 0x78F PUSH2 0xD15 JUMP JUMPDEST PUSH2 0x798 PUSH0 PUSH2 0xE9A JUMP JUMPDEST JUMP JUMPDEST PUSH1 0x7 PUSH1 0x10 SWAP1 SLOAD SWAP1 PUSH2 0x100 EXP SWAP1 DIV PUSH12 0xFFFFFFFFFFFFFFFFFFFFFFFF AND PUSH12 0xFFFFFFFFFFFFFFFFFFFFFFFF AND TIMESTAMP LT ISZERO DUP1 ISZERO PUSH2 0x81C JUMPI POP PUSH1 0x7 PUSH1 0x1C SWAP1 SLOAD SWAP1 PUSH2 0x100 EXP SWAP1 DIV PUSH4 0xFFFFFFFF AND PUSH4 0xFFFFFFFF AND PUSH1 0x7 PUSH1 0x10 SWAP1 SLOAD SWAP1 PUSH2 0x100 EXP SWAP1 DIV PUSH12 0xFFFFFFFFFFFFFFFFFFFFFFFF AND PUSH2 0x80B SWAP2 SWAP1 PUSH2 0x1C9E JUMP JUMPDEST PUSH12 0xFFFFFFFFFFFFFFFFFFFFFFFF AND TIMESTAMP LT JUMPDEST PUSH2 0x85B JUMPI PUSH1 0x40 MLOAD PUSH32 0x8C379A000000000000000000000000000000000000000000000000000000000 DUP2 MSTORE PUSH1 0x4 ADD PUSH2 0x852 SWAP1 PUSH2 0x1DCE JUMP JUMPDEST PUSH1 0x40 MLOAD DUP1 SWAP2 SUB SWAP1 REVERT JUMPDEST DUP1 PUSH2 0x865 CALLER PUSH2 0x742 JUMP JUMPDEST LT ISZERO PUSH2 0x8A6 JUMPI PUSH1 0x40 MLOAD PUSH32 0x8C379A000000000000000000000000000000000000000000000000000000000 DUP2 MSTORE PUSH1 0x4 ADD PUSH2 0x89D SWAP1 PUSH2 0x1E36 JUMP JUMPDEST PUSH1 0x40 MLOAD DUP1 SWAP2 SUB SWAP1 REVERT JUMPDEST PUSH2 0x8B0 CALLER DUP3 PUSH2 0xF5D JUMP JUMPDEST PUSH2 0x938 CALLER ADDRESS PUSH1 0x7 PUSH0 SWAP1 SLOAD SWAP1 PUSH2 0x100 EXP SWAP1 DIV PUSH16 0xFFFFFFFFFFFFFFFFFFFFFFFFFFFFFFFF AND PUSH16 0xFFFFFFFFFFFFFFFFFFFFFFFFFFFFFFFF AND DUP5 PUSH2 0x8F0 SWAP2 SWAP1 PUSH2 0x1E54 JUMP JUMPDEST PUSH1 0x6 PUSH0 SWAP1 SLOAD SWAP1 PUSH2 0x100 EXP SWAP1 DIV PUSH20 0xFFFFFFFFFFFFFFFFFFFFFFFFFFFFFFFFFFFFFFFF AND PUSH20 0xFFFFFFFFFFFFFFFFFFFFFFFFFFFFFFFFFFFFFFFF AND PUSH2 0xFDC SWAP1 SWAP4 SWAP3 SWAP2 SWAP1 PUSH4 0xFFFFFFFF AND JUMP JUMPDEST PUSH2 0x942 CALLER DUP3 PUSH2 0x105E JUMP JUMPDEST POP JUMP JUMPDEST PUSH0 PUSH1 0x5 PUSH0 SWAP1 SLOAD SWAP1 PUSH2 0x100 EXP SWAP1 DIV PUSH20 0xFFFFFFFFFFFFFFFFFFFFFFFFFFFFFFFFFFFFFFFF AND SWAP1 POP SWAP1 JUMP JUMPDEST PUSH1 0x60 PUSH1 0x4 DUP1 SLOAD PUSH2 0x97C SWAP1 PUSH2 0x1BD9 JUMP JUMPDEST DUP1 PUSH1 0x1F ADD PUSH1 0x20 DUP1 SWAP2 DIV MUL PUSH1 0x20 ADD PUSH1 0x40 MLOAD SWAP1 DUP2 ADD PUSH1 0x40 MSTORE DUP1 SWAP3 SWAP2 SWAP1 DUP2 DUP2 MSTORE PUSH1 0x20 ADD DUP3 DUP1 SLOAD PUSH2 0x9A8 SWAP1 PUSH2 0x1BD9 JUMP JUMPDEST DUP1 ISZERO PUSH2 0x9F3 JUMPI DUP1 PUSH1 0x1F LT PUSH2 0x9CA JUMPI PUSH2 0x100 DUP1 DUP4 SLOAD DIV MUL DUP4 MSTORE SWAP2 PUSH1 0x20 ADD SWAP2 PUSH2 0x9F3 JUMP JUMPDEST DUP3 ADD SWAP2 SWAP1 PUSH0 MSTORE PUSH1 0x20 PUSH0 KECCAK256 SWAP1 JUMPDEST DUP2 SLOAD DUP2 MSTORE SWAP1 PUSH1 0x1 ADD SWAP1 PUSH1 0x20 ADD DUP1 DUP4 GT PUSH2 0x9D6 JUMPI DUP3 SWAP1 SUB PUSH1 0x1F AND DUP3 ADD SWAP2 JUMPDEST POP POP POP POP POP SWAP1 POP SWAP1 JUMP JUMPDEST PUSH1 0x7 PUSH0 SWAP1 SLOAD SWAP1 PUSH2 0x100 EXP SWAP1 DIV PUSH16 0xFFFFFFFFFFFFFFFFFFFFFFFFFFFFFFFF AND DUP2 JUMP JUMPDEST PUSH0 PUSH0 PUSH2 0xA28 PUSH2 0xB7A JUMP JUMPDEST SWAP1 POP PUSH2 0xA35 DUP2 DUP6 DUP6 PUSH2 0xC25 JUMP JUMPDEST PUSH1 0x1 SWAP2 POP POP SWAP3 SWAP2 POP POP JUMP JUMPDEST PUSH0 PUSH1 0x1 PUSH0 DUP5 PUSH20 0xFFFFFFFFFFFFFFFFFFFFFFFFFFFFFFFFFFFFFFFF AND PUSH20 0xFFFFFFFFFFFFFFFFFFFFFFFFFFFFFFFFFFFFFFFF AND DUP2 MSTORE PUSH1 0x20 ADD SWAP1 DUP2 MSTORE PUSH1 0x20 ADD PUSH0 KECCAK256 PUSH0 DUP4 PUSH20 0xFFFFFFFFFFFFFFFFFFFFFFFFFFFFFFFFFFFFFFFF AND PUSH20 0xFFFFFFFFFFFFFFFFFFFFFFFFFFFFFFFFFFFFFFFF AND DUP2 MSTORE PUSH1 0x20 ADD SWAP1 DUP2 MSTORE PUSH1 0x20 ADD PUSH0 KECCAK256 SLOAD SWAP1 POP SWAP3 SWAP2 POP POP JUMP JUMPDEST PUSH1 0x7 PUSH1 0x10 SWAP1 SLOAD SWAP1 PUSH2 0x100 EXP SWAP1 DIV PUSH12 0xFFFFFFFFFFFFFFFFFFFFFFFF AND DUP2 JUMP JUMPDEST PUSH2 0xAE8 PUSH2 0xD15 JUMP JUMPDEST PUSH0 PUSH20 0xFFFFFFFFFFFFFFFFFFFFFFFFFFFFFFFFFFFFFFFF AND DUP2 PUSH20 0xFFFFFFFFFFFFFFFFFFFFFFFFFFFFFFFFFFFFFFFF AND SUB PUSH2 0xB58 JUMPI PUSH0 PUSH1 0x40 MLOAD PUSH32 0x1E4FBDF700000000000000000000000000000000000000000000000000000000 DUP2 MSTORE PUSH1 0x4 ADD PUSH2 0xB4F SWAP2 SWAP1 PUSH2 0x1A9C JUMP JUMPDEST PUSH1 0x40 MLOAD DUP1 SWAP2 SUB SWAP1 REVERT JUMPDEST PUSH2 0xB61 DUP2 PUSH2 0xE9A JUMP JUMPDEST POP JUMP JUMPDEST PUSH1 0x7 PUSH1 0x1C SWAP1 SLOAD SWAP1 PUSH2 0x100 EXP SWAP1 DIV PUSH4 0xFFFFFFFF AND DUP2 JUMP JUMPDEST PUSH0 CALLER SWAP1 POP SWAP1 JUMP JUMPDEST PUSH2 0xB8E DUP4 DUP4 DUP4 PUSH1 0x1 PUSH2 0x1159 JUMP JUMPDEST POP POP POP JUMP JUMPDEST PUSH0 PUSH2 0xB9E DUP5 DUP5 PUSH2 0xA40 JUMP JUMPDEST SWAP1 POP PUSH32 0xFFFFFFFFFFFFFFFFFFFFFFFFFFFFFFFFFFFFFFFFFFFFFFFFFFFFFFFFFFFFFFFF DUP2 EQ PUSH2 0xC1F JUMPI DUP2 DUP2 LT ISZERO PUSH2 0xC10 JUMPI DUP3 DUP2 DUP4 PUSH1 0x40 MLOAD PUSH32 0xFB8F41B200000000000000000000000000000000000000000000000000000000 DUP2 MSTORE PUSH1 0x4 ADD PUSH2 0xC07 SWAP4 SWAP3 SWAP2 SWAP1 PUSH2 0x1E95 JUMP JUMPDEST PUSH1 0x40 MLOAD DUP1 SWAP2 SUB SWAP1 REVERT JUMPDEST PUSH2 0xC1E DUP5 DUP5 DUP5 DUP5 SUB PUSH0 PUSH2 0x1159 JUMP JUMPDEST JUMPDEST POP POP POP POP JUMP JUMPDEST PUSH0 PUSH20 0xFFFFFFFFFFFFFFFFFFFFFFFFFFFFFFFFFFFFFFFF AND DUP4 PUSH20 0xFFFFFFFFFFFFFFFFFFFFFFFFFFFFFFFFFFFFFFFF AND SUB PUSH2 0xC95 JUMPI PUSH0 PUSH1 0x40 MLOAD PUSH32 0x96C6FD1E00000000000000000000000000000000000000000000000000000000 DUP2 MSTORE PUSH1 0x4 ADD PUSH2 0xC8C SWAP2 SWAP1 PUSH2 0x1A9C JUMP JUMPDEST PUSH1 0x40 MLOAD DUP1 SWAP2 SUB SWAP1 REVERT JUMPDEST PUSH0 PUSH20 0xFFFFFFFFFFFFFFFFFFFFFFFFFFFFFFFFFFFFFFFF AND DUP3 PUSH20 0xFFFFFFFFFFFFFFFFFFFFFFFFFFFFFFFFFFFFFFFF AND SUB PUSH2 0xD05 JUMPI PUSH0 PUSH1 0x40 MLOAD PUSH32 0xEC442F0500000000000000000000000000000000000000000000000000000000 DUP2 MSTORE PUSH1 0x4 ADD PUSH2 0xCFC SWAP2 SWAP1 PUSH2 0x1A9C JUMP JUMPDEST PUSH1 0x40 MLOAD DUP1 SWAP2 SUB SWAP1 REVERT JUMPDEST PUSH2 0xD10 DUP4 DUP4 DUP4 PUSH2 0x1328 JUMP JUMPDEST POP POP POP JUMP JUMPDEST PUSH2 0xD1D PUSH2 0xB7A JUMP JUMPDEST PUSH20 0xFFFFFFFFFFFFFFFFFFFFFFFFFFFFFFFFFFFFFFFF AND PUSH2 0xD3B PUSH2 0x945 JUMP JUMPDEST PUSH20 0xFFFFFFFFFFFFFFFFFFFFFFFFFFFFFFFFFFFFFFFF AND EQ PUSH2 0xD9A JUMPI PUSH2 0xD5E PUSH2 0xB7A JUMP JUMPDEST PUSH1 0x40 MLOAD PUSH32 0x118CDAA700000000000000000000000000000000000000000000000000000000 DUP2 MSTORE PUSH1 0x4 ADD PUSH2 0xD91 SWAP2 SWAP1 PUSH2 0x1A9C JUMP JUMPDEST PUSH1 0x40 MLOAD DUP1 SWAP2 SUB SWAP1 REVERT JUMPDEST JUMP JUMPDEST PUSH0 PUSH20 0xFFFFFFFFFFFFFFFFFFFFFFFFFFFFFFFFFFFFFFFF AND DUP3 PUSH20 0xFFFFFFFFFFFFFFFFFFFFFFFFFFFFFFFFFFFFFFFF AND SUB PUSH2 0xE0C JUMPI PUSH0 PUSH1 0x40 MLOAD PUSH32 0xEC442F0500000000000000000000000000000000000000000000000000000000 DUP2 MSTORE PUSH1 0x4 ADD PUSH2 0xE03 SWAP2 SWAP1 PUSH2 0x1A9C JUMP JUMPDEST PUSH1 0x40 MLOAD DUP1 SWAP2 SUB SWAP1 REVERT JUMPDEST PUSH2 0xE17 PUSH0 DUP4 DUP4 PUSH2 0x1328 JUMP JUMPDEST POP POP JUMP JUMPDEST PUSH2 0xE95 DUP4 DUP5 PUSH20 0xFFFFFFFFFFFFFFFFFFFFFFFFFFFFFFFFFFFFFFFF AND PUSH4 0xA9059CBB DUP6 DUP6 PUSH1 0x40 MLOAD PUSH1 0x24 ADD PUSH2 0xE4E SWAP3 SWAP2 SWAP1 PUSH2 0x1ECA JUMP JUMPDEST PUSH1 0x40 MLOAD PUSH1 0x20 DUP2 DUP4 SUB SUB DUP2 MSTORE SWAP1 PUSH1 0x40 MSTORE SWAP2 POP PUSH1 0xE0 SHL PUSH1 0x20 DUP3 ADD DUP1 MLOAD PUSH28 0xFFFFFFFFFFFFFFFFFFFFFFFFFFFFFFFFFFFFFFFFFFFFFFFFFFFFFFFF DUP4 DUP2 DUP4 AND OR DUP4 MSTORE POP POP POP POP PUSH2 0x1541 JUMP JUMPDEST POP POP POP JUMP JUMPDEST PUSH0 PUSH1 0x5 PUSH0 SWAP1 SLOAD SWAP1 PUSH2 0x100 EXP SWAP1 DIV PUSH20 0xFFFFFFFFFFFFFFFFFFFFFFFFFFFFFFFFFFFFFFFF AND SWAP1 POP DUP2 PUSH1 0x5 PUSH0 PUSH2 0x100 EXP DUP2 SLOAD DUP2 PUSH20 0xFFFFFFFFFFFFFFFFFFFFFFFFFFFFFFFFFFFFFFFF MUL NOT AND SWAP1 DUP4 PUSH20 0xFFFFFFFFFFFFFFFFFFFFFFFFFFFFFFFFFFFFFFFF AND MUL OR SWAP1 SSTORE POP DUP2 PUSH20 0xFFFFFFFFFFFFFFFFFFFFFFFFFFFFFFFFFFFFFFFF AND DUP2 PUSH20 0xFFFFFFFFFFFFFFFFFFFFFFFFFFFFFFFFFFFFFFFF AND PUSH32 0x8BE0079C531659141344CD1FD0A4F28419497F9722A3DAAFE3B4186F6B6457E0 PUSH1 0x40 MLOAD PUSH1 0x40 MLOAD DUP1 SWAP2 SUB SWAP1 LOG3 POP POP JUMP JUMPDEST PUSH0 PUSH20 0xFFFFFFFFFFFFFFFFFFFFFFFFFFFFFFFFFFFFFFFF AND DUP3 PUSH20 0xFFFFFFFFFFFFFFFFFFFFFFFFFFFFFFFFFFFFFFFF AND SUB PUSH2 0xFCD JUMPI PUSH0 PUSH1 0x40 MLOAD PUSH32 0x96C6FD1E00000000000000000000000000000000000000000000000000000000 DUP2 MSTORE PUSH1 0x4 ADD PUSH2 0xFC4 SWAP2 SWAP1 PUSH2 0x1A9C JUMP JUMPDEST PUSH1 0x40 MLOAD DUP1 SWAP2 SUB SWAP1 REVERT JUMPDEST PUSH2 0xFD8 DUP3 PUSH0 DUP4 PUSH2 0x1328 JUMP JUMPDEST POP POP JUMP JUMPDEST PUSH2 0x1058 DUP5 DUP6 PUSH20 0xFFFFFFFFFFFFFFFFFFFFFFFFFFFFFFFFFFFFFFFF AND PUSH4 0x23B872DD DUP7 DUP7 DUP7 PUSH1 0x40 MLOAD PUSH1 0x24 ADD PUSH2 0x1011 SWAP4 SWAP3 SWAP2 SWAP1 PUSH2 0x1EF1 JUMP JUMPDEST PUSH1 0x40 MLOAD PUSH1 0x20 DUP2 DUP4 SUB SUB DUP2 MSTORE SWAP1 PUSH1 0x40 MSTORE SWAP2 POP PUSH1 0xE0 SHL PUSH1 0x20 DUP3 ADD DUP1 MLOAD PUSH28 0xFFFFFFFFFFFFFFFFFFFFFFFFFFFFFFFFFFFFFFFFFFFFFFFFFFFFFFFF DUP4 DUP2 DUP4 AND OR DUP4 MSTORE POP POP POP POP PUSH2 0x1541 JUMP JUMPDEST POP POP POP POP JUMP JUMPDEST PUSH0 DUP3 PUSH20 0xFFFFFFFFFFFFFFFFFFFFFFFFFFFFFFFFFFFFFFFF AND DUP3 PUSH0 PUSH8 0xFFFFFFFFFFFFFFFF DUP2 GT ISZERO PUSH2 0x1091 JUMPI PUSH2 0x1090 PUSH2 0x1F26 JUMP JUMPDEST JUMPDEST PUSH1 0x40 MLOAD SWAP1 DUP1 DUP3 MSTORE DUP1 PUSH1 0x1F ADD PUSH1 0x1F NOT AND PUSH1 0x20 ADD DUP3 ADD PUSH1 0x40 MSTORE DUP1 ISZERO PUSH2 0x10C3 JUMPI DUP2 PUSH1 0x20 ADD PUSH1 0x1 DUP3 MUL DUP1 CALLDATASIZE DUP4 CALLDATACOPY DUP1 DUP3 ADD SWAP2 POP POP SWAP1 POP JUMPDEST POP PUSH1 0x40 MLOAD PUSH2 0x10D1 SWAP2 SWAP1 PUSH2 0x1F97 JUMP JUMPDEST PUSH0 PUSH1 0x40 MLOAD DUP1 DUP4 SUB DUP2 DUP6 DUP8 GAS CALL SWAP3 POP POP POP RETURNDATASIZE DUP1 PUSH0 DUP2 EQ PUSH2 0x110B JUMPI PUSH1 0x40 MLOAD SWAP2 POP PUSH1 0x1F NOT PUSH1 0x3F RETURNDATASIZE ADD AND DUP3 ADD PUSH1 0x40 MSTORE RETURNDATASIZE DUP3 MSTORE RETURNDATASIZE PUSH0 PUSH1 0x20 DUP5 ADD RETURNDATACOPY PUSH2 0x1110 JUMP JUMPDEST PUSH1 0x60 SWAP2 POP JUMPDEST POP POP SWAP1 POP DUP1 PUSH2 0x1154 JUMPI PUSH1 0x40 MLOAD PUSH32 0x8C379A000000000000000000000000000000000000000000000000000000000 DUP2 MSTORE PUSH1 0x4 ADD PUSH2 0x114B SWAP1 PUSH2 0x201D JUMP JUMPDEST PUSH1 0x40 MLOAD DUP1 SWAP2 SUB SWAP1 REVERT JUMPDEST POP POP POP JUMP JUMPDEST PUSH0 PUSH20 0xFFFFFFFFFFFFFFFFFFFFFFFFFFFFFFFFFFFFFFFF AND DUP5 PUSH20 0xFFFFFFFFFFFFFFFFFFFFFFFFFFFFFFFFFFFFFFFF AND SUB PUSH2 0x11C9 JUMPI PUSH0 PUSH1 0x40 MLOAD PUSH32 0xE602DF0500000000000000000000000000000000000000000000000000000000 DUP2 MSTORE PUSH1 0x4 ADD PUSH2 0x11C0 SWAP2 SWAP1 PUSH2 0x1A9C JUMP JUMPDEST PUSH1 0x40 MLOAD DUP1 SWAP2 SUB SWAP1 REVERT JUMPDEST PUSH0 PUSH20 0xFFFFFFFFFFFFFFFFFFFFFFFFFFFFFFFFFFFFFFFF AND DUP4 PUSH20 0xFFFFFFFFFFFFFFFFFFFFFFFFFFFFFFFFFFFFFFFF AND SUB PUSH2 0x1239 JUMPI PUSH0 PUSH1 0x40 MLOAD PUSH32 0x94280D6200000000000000000000000000000000000000000000000000000000 DUP2 MSTORE PUSH1 0x4 ADD PUSH2 0x1230 SWAP2 SWAP1 PUSH2 0x1A9C JUMP JUMPDEST PUSH1 0x40 MLOAD DUP1 SWAP2 SUB SWAP1 REVERT JUMPDEST DUP2 PUSH1 0x1 PUSH0 DUP7 PUSH20 0xFFFFFFFFFFFFFFFFFFFFFFFFFFFFFFFFFFFFFFFF AND PUSH20 0xFFFFFFFFFFFFFFFFFFFFFFFFFFFFFFFFFFFFFFFF AND DUP2 MSTORE PUSH1 0x20 ADD SWAP1 DUP2 MSTORE PUSH1 0x20 ADD PUSH0 KECCAK256 PUSH0 DUP6 PUSH20 0xFFFFFFFFFFFFFFFFFFFFFFFFFFFFFFFFFFFFFFFF AND PUSH20 0xFFFFFFFFFFFFFFFFFFFFFFFFFFFFFFFFFFFFFFFF AND DUP2 MSTORE PUSH1 0x20 ADD SWAP1 DUP2 MSTORE PUSH1 0x20 ADD PUSH0 KECCAK256 DUP2 SWAP1 SSTORE POP DUP1 ISZERO PUSH2 0x1322 JUMPI DUP3 PUSH20 0xFFFFFFFFFFFFFFFFFFFFFFFFFFFFFFFFFFFFFFFF AND DUP5 PUSH20 0xFFFFFFFFFFFFFFFFFFFFFFFFFFFFFFFFFFFFFFFF AND PUSH32 0x8C5BE1E5EBEC7D5BD14F71427D1E84F3DD0314C0F7B2291E5B200AC8C7C3B925 DUP5 PUSH1 0x40 MLOAD PUSH2 0x1319 SWAP2 SWAP1 PUSH2 0x1926 JUMP JUMPDEST PUSH1 0x40 MLOAD DUP1 SWAP2 SUB SWAP1 LOG3 JUMPDEST POP POP POP POP JUMP JUMPDEST PUSH0 PUSH20 0xFFFFFFFFFFFFFFFFFFFFFFFFFFFFFFFFFFFFFFFF AND DUP4 PUSH20 0xFFFFFFFFFFFFFFFFFFFFFFFFFFFFFFFFFFFFFFFF AND SUB PUSH2 0x1378 JUMPI DUP1 PUSH1 0x2 PUSH0 DUP3 DUP3 SLOAD PUSH2 0x136C SWAP2 SWAP1 PUSH2 0x203B JUMP JUMPDEST SWAP3 POP POP DUP2 SWAP1 SSTORE POP PUSH2 0x1446 JUMP JUMPDEST PUSH0 PUSH0 PUSH0 DUP6 PUSH20 0xFFFFFFFFFFFFFFFFFFFFFFFFFFFFFFFFFFFFFFFF AND PUSH20 0xFFFFFFFFFFFFFFFFFFFFFFFFFFFFFFFFFFFFFFFF AND DUP2 MSTORE PUSH1 0x20 ADD SWAP1 DUP2 MSTORE PUSH1 0x20 ADD PUSH0 KECCAK256 SLOAD SWAP1 POP DUP2 DUP2 LT ISZERO PUSH2 0x1401 JUMPI DUP4 DUP2 DUP4 PUSH1 0x40 MLOAD PUSH32 0xE450D38C00000000000000000000000000000000000000000000000000000000 DUP2 MSTORE PUSH1 0x4 ADD PUSH2 0x13F8 SWAP4 SWAP3 SWAP2 SWAP1 PUSH2 0x1E95 JUMP JUMPDEST PUSH1 0x40 MLOAD DUP1 SWAP2 SUB SWAP1 REVERT JUMPDEST DUP2 DUP2 SUB PUSH0 PUSH0 DUP7 PUSH20 0xFFFFFFFFFFFFFFFFFFFFFFFFFFFFFFFFFFFFFFFF AND PUSH20 0xFFFFFFFFFFFFFFFFFFFFFFFFFFFFFFFFFFFFFFFF AND DUP2 MSTORE PUSH1 0x20 ADD SWAP1 DUP2 MSTORE PUSH1 0x20 ADD PUSH0 KECCAK256 DUP2 SWAP1 SSTORE POP POP JUMPDEST PUSH0 PUSH20 0xFFFFFFFFFFFFFFFFFFFFFFFFFFFFFFFFFFFFFFFF AND DUP3 PUSH20 0xFFFFFFFFFFFFFFFFFFFFFFFFFFFFFFFFFFFFFFFF AND SUB PUSH2 0x148D JUMPI DUP1 PUSH1 0x2 PUSH0 DUP3 DUP3 SLOAD SUB SWAP3 POP POP DUP2 SWAP1 SSTORE POP PUSH2 0x14D7 JUMP JUMPDEST DUP1 PUSH0 PUSH0 DUP5 PUSH20 0xFFFFFFFFFFFFFFFFFFFFFFFFFFFFFFFFFFFFFFFF AND PUSH20 0xFFFFFFFFFFFFFFFFFFFFFFFFFFFFFFFFFFFFFFFF AND DUP2 MSTORE PUSH1 0x20 ADD SWAP1 DUP2 MSTORE PUSH1 0x20 ADD PUSH0 KECCAK256 PUSH0 DUP3 DUP3 SLOAD ADD SWAP3 POP POP DUP2 SWAP1 SSTORE POP JUMPDEST DUP2 PUSH20 0xFFFFFFFFFFFFFFFFFFFFFFFFFFFFFFFFFFFFFFFF AND DUP4 PUSH20 0xFFFFFFFFFFFFFFFFFFFFFFFFFFFFFFFFFFFFFFFF AND PUSH32 0xDDF252AD1BE2C89B69C2B068FC378DAA952BA7F163C4A11628F55A4DF523B3EF DUP4 PUSH1 0x40 MLOAD PUSH2 0x1534 SWAP2 SWAP1 PUSH2 0x1926 JUMP JUMPDEST PUSH1 0x40 MLOAD DUP1 SWAP2 SUB SWAP1 LOG3 POP POP POP JUMP JUMPDEST PUSH0 PUSH2 0x156B DUP3 DUP5 PUSH20 0xFFFFFFFFFFFFFFFFFFFFFFFFFFFFFFFFFFFFFFFF AND PUSH2 0x15D6 SWAP1 SWAP2 SWAP1 PUSH4 0xFFFFFFFF AND JUMP JUMPDEST SWAP1 POP PUSH0 DUP2 MLOAD EQ ISZERO DUP1 ISZERO PUSH2 0x158F JUMPI POP DUP1 DUP1 PUSH1 0x20 ADD SWAP1 MLOAD DUP2 ADD SWAP1 PUSH2 0x158D SWAP2 SWAP1 PUSH2 0x2098 JUMP JUMPDEST ISZERO JUMPDEST ISZERO PUSH2 0x15D1 JUMPI DUP3 PUSH1 0x40 MLOAD PUSH32 0x5274AFE700000000000000000000000000000000000000000000000000000000 DUP2 MSTORE PUSH1 0x4 ADD PUSH2 0x15C8 SWAP2 SWAP1 PUSH2 0x1A9C JUMP JUMPDEST PUSH1 0x40 MLOAD DUP1 SWAP2 SUB SWAP1 REVERT JUMPDEST POP POP POP JUMP JUMPDEST PUSH1 0x60 PUSH2 0x15E3 DUP4 DUP4 PUSH0 PUSH2 0x15EB JUMP JUMPDEST SWAP1 POP SWAP3 SWAP2 POP POP JUMP JUMPDEST PUSH1 0x60 DUP2 SELFBALANCE LT ISZERO PUSH2 0x1632 JUMPI ADDRESS PUSH1 0x40 MLOAD PUSH32 0xCD78605900000000000000000000000000000000000000000000000000000000 DUP2 MSTORE PUSH1 0x4 ADD PUSH2 0x1629 SWAP2 SWAP1 PUSH2 0x1A9C JUMP JUMPDEST PUSH1 0x40 MLOAD DUP1 SWAP2 SUB SWAP1 REVERT JUMPDEST PUSH0 PUSH0 DUP6 PUSH20 0xFFFFFFFFFFFFFFFFFFFFFFFFFFFFFFFFFFFFFFFF AND DUP5 DUP7 PUSH1 0x40 MLOAD PUSH2 0x165A SWAP2 SWAP1 PUSH2 0x1F97 JUMP JUMPDEST PUSH0 PUSH1 0x40 MLOAD DUP1 DUP4 SUB DUP2 DUP6 DUP8 GAS CALL SWAP3 POP POP POP RETURNDATASIZE DUP1 PUSH0 DUP2 EQ PUSH2 0x1694 JUMPI PUSH1 0x40 MLOAD SWAP2 POP PUSH1 0x1F NOT PUSH1 0x3F RETURNDATASIZE ADD AND DUP3 ADD PUSH1 0x40 MSTORE RETURNDATASIZE DUP3 MSTORE RETURNDATASIZE PUSH0 PUSH1 0x20 DUP5 ADD RETURNDATACOPY PUSH2 0x1699 JUMP JUMPDEST PUSH1 0x60 SWAP2 POP JUMPDEST POP SWAP2 POP SWAP2 POP PUSH2 0x16A9 DUP7 DUP4 DUP4 PUSH2 0x16B4 JUMP JUMPDEST SWAP3 POP POP POP SWAP4 SWAP3 POP POP POP JUMP JUMPDEST PUSH1 0x60 DUP3 PUSH2 0x16C9 JUMPI PUSH2 0x16C4 DUP3 PUSH2 0x1741 JUMP JUMPDEST PUSH2 0x1739 JUMP JUMPDEST PUSH0 DUP3 MLOAD EQ DUP1 ISZERO PUSH2 0x16EF JUMPI POP PUSH0 DUP5 PUSH20 0xFFFFFFFFFFFFFFFFFFFFFFFFFFFFFFFFFFFFFFFF AND EXTCODESIZE EQ JUMPDEST ISZERO PUSH2 0x1731 JUMPI DUP4 PUSH1 0x40 MLOAD PUSH32 0x9996B31500000000000000000000000000000000000000000000000000000000 DUP2 MSTORE PUSH1 0x4 ADD PUSH2 0x1728 SWAP2 SWAP1 PUSH2 0x1A9C JUMP JUMPDEST PUSH1 0x40 MLOAD DUP1 SWAP2 SUB SWAP1 REVERT JUMPDEST DUP2 SWAP1 POP PUSH2 0x173A JUMP JUMPDEST JUMPDEST SWAP4 SWAP3 POP POP POP JUMP JUMPDEST PUSH0 DUP2 MLOAD GT ISZERO PUSH2 0x1753 JUMPI DUP1 MLOAD DUP1 DUP3 PUSH1 0x20 ADD REVERT JUMPDEST PUSH1 0x40 MLOAD PUSH32 0x1425EA4200000000000000000000000000000000000000000000000000000000 DUP2 MSTORE PUSH1 0x4 ADD PUSH1 0x40 MLOAD DUP1 SWAP2 SUB SWAP1 REVERT JUMPDEST PUSH0 DUP2 MLOAD SWAP1 POP SWAP2 SWAP1 POP JUMP JUMPDEST PUSH0 DUP3 DUP3 MSTORE PUSH1 0x20 DUP3 ADD SWAP1 POP SWAP3 SWAP2 POP POP JUMP JUMPDEST DUP3 DUP2 DUP4 MCOPY PUSH0 DUP4 DUP4 ADD MSTORE POP POP POP JUMP JUMPDEST PUSH0 PUSH1 0x1F NOT PUSH1 0x1F DUP4 ADD AND SWAP1 POP SWAP2 SWAP1 POP JUMP JUMPDEST PUSH0 PUSH2 0x17C7 DUP3 PUSH2 0x1785 JUMP JUMPDEST PUSH2 0x17D1 DUP2 DUP6 PUSH2 0x178F JUMP JUMPDEST SWAP4 POP PUSH2 0x17E1 DUP2 DUP6 PUSH1 0x20 DUP7 ADD PUSH2 0x179F JUMP JUMPDEST PUSH2 0x17EA DUP2 PUSH2 0x17AD JUMP JUMPDEST DUP5 ADD SWAP2 POP POP SWAP3 SWAP2 POP POP JUMP JUMPDEST PUSH0 PUSH1 0x20 DUP3 ADD SWAP1 POP DUP2 DUP2 SUB PUSH0 DUP4 ADD MSTORE PUSH2 0x180D DUP2 DUP5 PUSH2 0x17BD JUMP JUMPDEST SWAP1 POP SWAP3 SWAP2 POP POP JUMP JUMPDEST PUSH0 PUSH0 REVERT JUMPDEST PUSH0 PUSH20 0xFFFFFFFFFFFFFFFFFFFFFFFFFFFFFFFFFFFFFFFF DUP3 AND SWAP1 POP SWAP2 SWAP1 POP JUMP JUMPDEST PUSH0 PUSH2 0x1842 DUP3 PUSH2 0x1819 JUMP JUMPDEST SWAP1 POP SWAP2 SWAP1 POP JUMP JUMPDEST PUSH2 0x1852 DUP2 PUSH2 0x1838 JUMP JUMPDEST DUP2 EQ PUSH2 0x185C JUMPI PUSH0 PUSH0 REVERT JUMPDEST POP JUMP JUMPDEST PUSH0 DUP2 CALLDATALOAD SWAP1 POP PUSH2 0x186D DUP2 PUSH2 0x1849 JUMP JUMPDEST SWAP3 SWAP2 POP POP JUMP JUMPDEST PUSH0 DUP2 SWAP1 POP SWAP2 SWAP1 POP JUMP JUMPDEST PUSH2 0x1885 DUP2 PUSH2 0x1873 JUMP JUMPDEST DUP2 EQ PUSH2 0x188F JUMPI PUSH0 PUSH0 REVERT JUMPDEST POP JUMP JUMPDEST PUSH0 DUP2 CALLDATALOAD SWAP1 POP PUSH2 0x18A0 DUP2 PUSH2 0x187C JUMP JUMPDEST SWAP3 SWAP2 POP POP JUMP JUMPDEST PUSH0 PUSH0 PUSH1 0x40 DUP4 DUP6 SUB SLT ISZERO PUSH2 0x18BC JUMPI PUSH2 0x18BB PUSH2 0x1815 JUMP JUMPDEST JUMPDEST PUSH0 PUSH2 0x18C9 DUP6 DUP3 DUP7 ADD PUSH2 0x185F JUMP JUMPDEST SWAP3 POP POP PUSH1 0x20 PUSH2 0x18DA DUP6 DUP3 DUP7 ADD PUSH2 0x1892 JUMP JUMPDEST SWAP2 POP POP SWAP3 POP SWAP3 SWAP1 POP JUMP JUMPDEST PUSH0 DUP2 ISZERO ISZERO SWAP1 POP SWAP2 SWAP1 POP JUMP JUMPDEST PUSH2 0x18F8 DUP2 PUSH2 0x18E4 JUMP JUMPDEST DUP3 MSTORE POP POP JUMP JUMPDEST PUSH0 PUSH1 0x20 DUP3 ADD SWAP1 POP PUSH2 0x1911 PUSH0 DUP4 ADD DUP5 PUSH2 0x18EF JUMP JUMPDEST SWAP3 SWAP2 POP POP JUMP JUMPDEST PUSH2 0x1920 DUP2 PUSH2 0x1873 JUMP JUMPDEST DUP3 MSTORE POP POP JUMP JUMPDEST PUSH0 PUSH1 0x20 DUP3 ADD SWAP1 POP PUSH2 0x1939 PUSH0 DUP4 ADD DUP5 PUSH2 0x1917 JUMP JUMPDEST SWAP3 SWAP2 POP POP JUMP JUMPDEST PUSH0 PUSH0 PUSH0 PUSH1 0x60 DUP5 DUP7 SUB SLT ISZERO PUSH2 0x1956 JUMPI PUSH2 0x1955 PUSH2 0x1815 JUMP JUMPDEST JUMPDEST PUSH0 PUSH2 0x1963 DUP7 DUP3 DUP8 ADD PUSH2 0x185F JUMP JUMPDEST SWAP4 POP POP PUSH1 0x20 PUSH2 0x1974 DUP7 DUP3 DUP8 ADD PUSH2 0x185F JUMP JUMPDEST SWAP3 POP POP PUSH1 0x40 PUSH2 0x1985 DUP7 DUP3 DUP8 ADD PUSH2 0x1892 JUMP JUMPDEST SWAP2 POP POP SWAP3 POP SWAP3 POP SWAP3 JUMP JUMPDEST PUSH0 PUSH1 0xFF DUP3 AND SWAP1 POP SWAP2 SWAP1 POP JUMP JUMPDEST PUSH2 0x19A4 DUP2 PUSH2 0x198F JUMP JUMPDEST DUP3 MSTORE POP POP JUMP JUMPDEST PUSH0 PUSH1 0x20 DUP3 ADD SWAP1 POP PUSH2 0x19BD PUSH0 DUP4 ADD DUP5 PUSH2 0x199B JUMP JUMPDEST SWAP3 SWAP2 POP POP JUMP JUMPDEST PUSH0 DUP2 SWAP1 POP SWAP2 SWAP1 POP JUMP JUMPDEST PUSH0 PUSH2 0x19E6 PUSH2 0x19E1 PUSH2 0x19DC DUP5 PUSH2 0x1819 JUMP JUMPDEST PUSH2 0x19C3 JUMP JUMPDEST PUSH2 0x1819 JUMP JUMPDEST SWAP1 POP SWAP2 SWAP1 POP JUMP JUMPDEST PUSH0 PUSH2 0x19F7 DUP3 PUSH2 0x19CC JUMP JUMPDEST SWAP1 POP SWAP2 SWAP1 POP JUMP JUMPDEST PUSH0 PUSH2 0x1A08 DUP3 PUSH2 0x19ED JUMP JUMPDEST SWAP1 POP SWAP2 SWAP1 POP JUMP JUMPDEST PUSH2 0x1A18 DUP2 PUSH2 0x19FE JUMP JUMPDEST DUP3 MSTORE POP POP JUMP JUMPDEST PUSH0 PUSH1 0x20 DUP3 ADD SWAP1 POP PUSH2 0x1A31 PUSH0 DUP4 ADD DUP5 PUSH2 0x1A0F JUMP JUMPDEST SWAP3 SWAP2 POP POP JUMP JUMPDEST PUSH0 PUSH1 0x20 DUP3 DUP5 SUB SLT ISZERO PUSH2 0x1A4C JUMPI PUSH2 0x1A4B PUSH2 0x1815 JUMP JUMPDEST JUMPDEST PUSH0 PUSH2 0x1A59 DUP5 DUP3 DUP6 ADD PUSH2 0x185F JUMP JUMPDEST SWAP2 POP POP SWAP3 SWAP2 POP POP JUMP JUMPDEST PUSH0 PUSH1 0x20 DUP3 DUP5 SUB SLT ISZERO PUSH2 0x1A77 JUMPI PUSH2 0x1A76 PUSH2 0x1815 JUMP JUMPDEST JUMPDEST PUSH0 PUSH2 0x1A84 DUP5 DUP3 DUP6 ADD PUSH2 0x1892 JUMP JUMPDEST SWAP2 POP POP SWAP3 SWAP2 POP POP JUMP JUMPDEST PUSH2 0x1A96 DUP2 PUSH2 0x1838 JUMP JUMPDEST DUP3 MSTORE POP POP JUMP JUMPDEST PUSH0 PUSH1 0x20 DUP3 ADD SWAP1 POP PUSH2 0x1AAF PUSH0 DUP4 ADD DUP5 PUSH2 0x1A8D JUMP JUMPDEST SWAP3 SWAP2 POP POP JUMP JUMPDEST PUSH0 PUSH16 0xFFFFFFFFFFFFFFFFFFFFFFFFFFFFFFFF DUP3 AND SWAP1 POP SWAP2 SWAP1 POP JUMP JUMPDEST PUSH2 0x1AD9 DUP2 PUSH2 0x1AB5 JUMP JUMPDEST DUP3 MSTORE POP POP JUMP JUMPDEST PUSH0 PUSH1 0x20 DUP3 ADD SWAP1 POP PUSH2 0x1AF2 PUSH0 DUP4 ADD DUP5 PUSH2 0x1AD0 JUMP JUMPDEST SWAP3 SWAP2 POP POP JUMP JUMPDEST PUSH0 PUSH0 PUSH1 0x40 DUP4 DUP6 SUB SLT ISZERO PUSH2 0x1B0E JUMPI PUSH2 0x1B0D PUSH2 0x1815 JUMP JUMPDEST JUMPDEST PUSH0 PUSH2 0x1B1B DUP6 DUP3 DUP7 ADD PUSH2 0x185F JUMP JUMPDEST SWAP3 POP POP PUSH1 0x20 PUSH2 0x1B2C DUP6 DUP3 DUP7 ADD PUSH2 0x185F JUMP JUMPDEST SWAP2 POP POP SWAP3 POP SWAP3 SWAP1 POP JUMP JUMPDEST PUSH0 PUSH12 0xFFFFFFFFFFFFFFFFFFFFFFFF DUP3 AND SWAP1 POP SWAP2 SWAP1 POP JUMP JUMPDEST PUSH2 0x1B56 DUP2 PUSH2 0x1B36 JUMP JUMPDEST DUP3 MSTORE POP POP JUMP JUMPDEST PUSH0 PUSH1 0x20 DUP3 ADD SWAP1 POP PUSH2 0x1B6F PUSH0 DUP4 ADD DUP5 PUSH2 0x1B4D JUMP JUMPDEST SWAP3 SWAP2 POP POP JUMP JUMPDEST PUSH0 PUSH4 0xFFFFFFFF DUP3 AND SWAP1 POP SWAP2 SWAP1 POP JUMP JUMPDEST PUSH2 0x1B8D DUP2 PUSH2 0x1B75 JUMP JUMPDEST DUP3 MSTORE POP POP JUMP JUMPDEST PUSH0 PUSH1 0x20 DUP3 ADD SWAP1 POP PUSH2 0x1BA6 PUSH0 DUP4 ADD DUP5 PUSH2 0x1B84 JUMP JUMPDEST SWAP3 SWAP2 POP POP JUMP JUMPDEST PUSH32 0x4E487B7100000000000000000000000000000000000000000000000000000000 PUSH0 MSTORE PUSH1 0x22 PUSH1 0x4 MSTORE PUSH1 0x24 PUSH0 REVERT JUMPDEST PUSH0 PUSH1 0x2 DUP3 DIV SWAP1 POP PUSH1 0x1 DUP3 AND DUP1 PUSH2 0x1BF0 JUMPI PUSH1 0x7F DUP3 AND SWAP2 POP JUMPDEST PUSH1 0x20 DUP3 LT DUP2 SUB PUSH2 0x1C03 JUMPI PUSH2 0x1C02 PUSH2 0x1BAC JUMP JUMPDEST JUMPDEST POP SWAP2 SWAP1 POP JUMP JUMPDEST PUSH32 0x6574682076616C75652063616E74206265203000000000000000000000000000 PUSH0 DUP3 ADD MSTORE POP JUMP JUMPDEST PUSH0 PUSH2 0x1C3D PUSH1 0x13 DUP4 PUSH2 0x178F JUMP JUMPDEST SWAP2 POP PUSH2 0x1C48 DUP3 PUSH2 0x1C09 JUMP JUMPDEST PUSH1 0x20 DUP3 ADD SWAP1 POP SWAP2 SWAP1 POP JUMP JUMPDEST PUSH0 PUSH1 0x20 DUP3 ADD SWAP1 POP DUP2 DUP2 SUB PUSH0 DUP4 ADD MSTORE PUSH2 0x1C6A DUP2 PUSH2 0x1C31 JUMP JUMPDEST SWAP1 POP SWAP2 SWAP1 POP JUMP JUMPDEST PUSH32 0x4E487B7100000000000000000000000000000000000000000000000000000000 PUSH0 MSTORE PUSH1 0x11 PUSH1 0x4 MSTORE PUSH1 0x24 PUSH0 REVERT JUMPDEST PUSH0 PUSH2 0x1CA8 DUP3 PUSH2 0x1B36 JUMP JUMPDEST SWAP2 POP PUSH2 0x1CB3 DUP4 PUSH2 0x1B36 JUMP JUMPDEST SWAP3 POP DUP3 DUP3 ADD SWAP1 POP PUSH12 0xFFFFFFFFFFFFFFFFFFFFFFFF DUP2 GT ISZERO PUSH2 0x1CD7 JUMPI PUSH2 0x1CD6 PUSH2 0x1C71 JUMP JUMPDEST JUMPDEST SWAP3 SWAP2 POP POP JUMP JUMPDEST PUSH32 0x6E6F742065787069726520796574000000000000000000000000000000000000 PUSH0 DUP3 ADD MSTORE POP JUMP JUMPDEST PUSH0 PUSH2 0x1D11 PUSH1 0xE DUP4 PUSH2 0x178F JUMP JUMPDEST SWAP2 POP PUSH2 0x1D1C DUP3 PUSH2 0x1CDD JUMP JUMPDEST PUSH1 0x20 DUP3 ADD SWAP1 POP SWAP2 SWAP1 POP JUMP JUMPDEST PUSH0 PUSH1 0x20 DUP3 ADD SWAP1 POP DUP2 DUP2 SUB PUSH0 DUP4 ADD MSTORE PUSH2 0x1D3E DUP2 PUSH2 0x1D05 JUMP JUMPDEST SWAP1 POP SWAP2 SWAP1 POP JUMP JUMPDEST PUSH0 DUP2 MLOAD SWAP1 POP PUSH2 0x1D53 DUP2 PUSH2 0x187C JUMP JUMPDEST SWAP3 SWAP2 POP POP JUMP JUMPDEST PUSH0 PUSH1 0x20 DUP3 DUP5 SUB SLT ISZERO PUSH2 0x1D6E JUMPI PUSH2 0x1D6D PUSH2 0x1815 JUMP JUMPDEST JUMPDEST PUSH0 PUSH2 0x1D7B DUP5 DUP3 DUP6 ADD PUSH2 0x1D45 JUMP JUMPDEST SWAP2 POP POP SWAP3 SWAP2 POP POP JUMP JUMPDEST PUSH32 0x6E6F7420696E20736574746C652074696D652072616E67650000000000000000 PUSH0 DUP3 ADD MSTORE POP JUMP JUMPDEST PUSH0 PUSH2 0x1DB8 PUSH1 0x18 DUP4 PUSH2 0x178F JUMP JUMPDEST SWAP2 POP PUSH2 0x1DC3 DUP3 PUSH2 0x1D84 JUMP JUMPDEST PUSH1 0x20 DUP3 ADD SWAP1 POP SWAP2 SWAP1 POP JUMP JUMPDEST PUSH0 PUSH1 0x20 DUP3 ADD SWAP1 POP DUP2 DUP2 SUB PUSH0 DUP4 ADD MSTORE PUSH2 0x1DE5 DUP2 PUSH2 0x1DAC JUMP JUMPDEST SWAP1 POP SWAP2 SWAP1 POP JUMP JUMPDEST PUSH32 0x616D6F756E74206D757374203E2062616C616E63650000000000000000000000 PUSH0 DUP3 ADD MSTORE POP JUMP JUMPDEST PUSH0 PUSH2 0x1E20 PUSH1 0x15 DUP4 PUSH2 0x178F JUMP JUMPDEST SWAP2 POP PUSH2 0x1E2B DUP3 PUSH2 0x1DEC JUMP JUMPDEST PUSH1 0x20 DUP3 ADD SWAP1 POP SWAP2 SWAP1 POP JUMP JUMPDEST PUSH0 PUSH1 0x20 DUP3 ADD SWAP1 POP DUP2 DUP2 SUB PUSH0 DUP4 ADD MSTORE PUSH2 0x1E4D DUP2 PUSH2 0x1E14 JUMP JUMPDEST SWAP1 POP SWAP2 SWAP1 POP JUMP JUMPDEST PUSH0 PUSH2 0x1E5E DUP3 PUSH2 0x1873 JUMP JUMPDEST SWAP2 POP PUSH2 0x1E69 DUP4 PUSH2 0x1873 JUMP JUMPDEST SWAP3 POP DUP3 DUP3 MUL PUSH2 0x1E77 DUP2 PUSH2 0x1873 JUMP JUMPDEST SWAP2 POP DUP3 DUP3 DIV DUP5 EQ DUP4 ISZERO OR PUSH2 0x1E8E JUMPI PUSH2 0x1E8D PUSH2 0x1C71 JUMP JUMPDEST JUMPDEST POP SWAP3 SWAP2 POP POP JUMP JUMPDEST PUSH0 PUSH1 0x60 DUP3 ADD SWAP1 POP PUSH2 0x1EA8 PUSH0 DUP4 ADD DUP7 PUSH2 0x1A8D JUMP JUMPDEST PUSH2 0x1EB5 PUSH1 0x20 DUP4 ADD DUP6 PUSH2 0x1917 JUMP JUMPDEST PUSH2 0x1EC2 PUSH1 0x40 DUP4 ADD DUP5 PUSH2 0x1917 JUMP JUMPDEST SWAP5 SWAP4 POP POP POP POP JUMP JUMPDEST PUSH0 PUSH1 0x40 DUP3 ADD SWAP1 POP PUSH2 0x1EDD PUSH0 DUP4 ADD DUP6 PUSH2 0x1A8D JUMP JUMPDEST PUSH2 0x1EEA PUSH1 0x20 DUP4 ADD DUP5 PUSH2 0x1917 JUMP JUMPDEST SWAP4 SWAP3 POP POP POP JUMP JUMPDEST PUSH0 PUSH1 0x60 DUP3 ADD SWAP1 POP PUSH2 0x1F04 PUSH0 DUP4 ADD DUP7 PUSH2 0x1A8D JUMP JUMPDEST PUSH2 0x1F11 PUSH1 0x20 DUP4 ADD DUP6 PUSH2 0x1A8D JUMP JUMPDEST PUSH2 0x1F1E PUSH1 0x40 DUP4 ADD DUP5 PUSH2 0x1917 JUMP JUMPDEST SWAP5 SWAP4 POP POP POP POP JUMP JUMPDEST PUSH32 0x4E487B7100000000000000000000000000000000000000000000000000000000 PUSH0 MSTORE PUSH1 0x41 PUSH1 0x4 MSTORE PUSH1 0x24 PUSH0 REVERT JUMPDEST PUSH0 DUP2 MLOAD SWAP1 POP SWAP2 SWAP1 POP JUMP JUMPDEST PUSH0 DUP2 SWAP1 POP SWAP3 SWAP2 POP POP JUMP JUMPDEST PUSH0 PUSH2 0x1F71 DUP3 PUSH2 0x1F53 JUMP JUMPDEST PUSH2 0x1F7B DUP2 DUP6 PUSH2 0x1F5D JUMP JUMPDEST SWAP4 POP PUSH2 0x1F8B DUP2 DUP6 PUSH1 0x20 DUP7 ADD PUSH2 0x179F JUMP JUMPDEST DUP1 DUP5 ADD SWAP2 POP POP SWAP3 SWAP2 POP POP JUMP JUMPDEST PUSH0 PUSH2 0x1FA2 DUP3 DUP5 PUSH2 0x1F67 JUMP JUMPDEST SWAP2 POP DUP2 SWAP1 POP SWAP3 SWAP2 POP POP JUMP JUMPDEST PUSH32 0x5472616E7366657248656C7065723A3A736166655472616E736665724554483A PUSH0 DUP3 ADD MSTORE PUSH32 0x20455448207472616E73666572206661696C6564000000000000000000000000 PUSH1 0x20 DUP3 ADD MSTORE POP JUMP JUMPDEST PUSH0 PUSH2 0x2007 PUSH1 0x34 DUP4 PUSH2 0x178F JUMP JUMPDEST SWAP2 POP PUSH2 0x2012 DUP3 PUSH2 0x1FAD JUMP JUMPDEST PUSH1 0x40 DUP3 ADD SWAP1 POP SWAP2 SWAP1 POP JUMP JUMPDEST PUSH0 PUSH1 0x20 DUP3 ADD SWAP1 POP DUP2 DUP2 SUB PUSH0 DUP4 ADD MSTORE PUSH2 0x2034 DUP2 PUSH2 0x1FFB JUMP JUMPDEST SWAP1 POP SWAP2 SWAP1 POP JUMP JUMPDEST PUSH0 PUSH2 0x2045 DUP3 PUSH2 0x1873 JUMP JUMPDEST SWAP2 POP PUSH2 0x2050 DUP4 PUSH2 0x1873 JUMP JUMPDEST SWAP3 POP DUP3 DUP3 ADD SWAP1 POP DUP1 DUP3 GT ISZERO PUSH2 0x2068 JUMPI PUSH2 0x2067 PUSH2 0x1C71 JUMP JUMPDEST JUMPDEST SWAP3 SWAP2 POP POP JUMP JUMPDEST PUSH2 0x2077 DUP2 PUSH2 0x18E4 JUMP JUMPDEST DUP2 EQ PUSH2 0x2081 JUMPI PUSH0 PUSH0 REVERT JUMPDEST POP JUMP JUMPDEST PUSH0 DUP2 MLOAD SWAP1 POP PUSH2 0x2092 DUP2 PUSH2 0x206E JUMP JUMPDEST SWAP3 SWAP2 POP POP JUMP JUMPDEST PUSH0 PUSH1 0x20 DUP3 DUP5 SUB SLT ISZERO PUSH2 0x20AD JUMPI PUSH2 0x20AC PUSH2 0x1815 JUMP JUMPDEST JUMPDEST PUSH0 PUSH2 0x20BA DUP5 DUP3 DUP6 ADD PUSH2 0x2084 JUMP JUMPDEST SWAP2 POP POP SWAP3 SWAP2 POP POP JUMP INVALID LOG2 PUSH5 0x6970667358 0x22 SLT KECCAK256 SWAP11 0x4F SWAP6 0xC4 0xB8 SWAP3 0xDF 0xE0 NOT PUSH22 0x8D4F4588E3BAB2911227899C52FE1881CEFF65F3AF2 PUSH5 0x736F6C6343 STOP ADDMOD SHL STOP CALLER "
		},
		"gasEstimates": {
			"creation": {
				"codeDepositCost": "1688200",
				"executionCost": "infinite",
				"totalCost": "infinite"
			},
			"external": {
				"allowance(address,address)": "infinite",
				"approve(address,uint256)": "infinite",
				"balanceOf(address)": "2939",
				"decimals()": "361",
				"destory()": "infinite",
				"durationTime()": "2627",
				"exerciseTime()": "2583",
				"issueOption()": "infinite",
				"name()": "infinite",
				"owner()": "2582",
				"price()": "2577",
				"renounceOwnership()": "infinite",
				"settleOption(uint256)": "infinite",
				"symbol()": "infinite",
				"totalSupply()": "2500",
				"transfer(address,uint256)": "infinite",
				"transferFrom(address,address,uint256)": "infinite",
				"transferOwnership(address)": "infinite",
				"usdc()": "infinite"
			},
			"internal": {
				"safeTransferETH(address,uint256)": "infinite"
			}
		},
		"methodIdentifiers": {
			"allowance(address,address)": "dd62ed3e",
			"approve(address,uint256)": "095ea7b3",
			"balanceOf(address)": "70a08231",
			"decimals()": "313ce567",
			"destory()": "6bdebcc9",
			"durationTime()": "f8b75fb5",
			"exerciseTime()": "ec46c4ef",
			"issueOption()": "384b2367",
			"name()": "06fdde03",
			"owner()": "8da5cb5b",
			"price()": "a035b1fe",
			"renounceOwnership()": "715018a6",
			"settleOption(uint256)": "83b6fa98",
			"symbol()": "95d89b41",
			"totalSupply()": "18160ddd",
			"transfer(address,uint256)": "a9059cbb",
			"transferFrom(address,address,uint256)": "23b872dd",
			"transferOwnership(address)": "f2fde38b",
			"usdc()": "3e413bee"
		}
	},
	"abi": [
		{
			"inputs": [
				{
					"internalType": "contract IERC20",
					"name": "_usdc",
					"type": "address"
				},
				{
					"internalType": "uint128",
					"name": "_price",
					"type": "uint128"
				},
				{
					"internalType": "uint96",
					"name": "_exerciseTime",
					"type": "uint96"
				},
				{
					"internalType": "uint32",
					"name": "_durationTime",
					"type": "uint32"
				}
			],
			"stateMutability": "nonpayable",
			"type": "constructor"
		},
		{
			"inputs": [
				{
					"internalType": "address",
					"name": "target",
					"type": "address"
				}
			],
			"name": "AddressEmptyCode",
			"type": "error"
		},
		{
			"inputs": [
				{
					"internalType": "address",
					"name": "account",
					"type": "address"
				}
			],
			"name": "AddressInsufficientBalance",
			"type": "error"
		},
		{
			"inputs": [
				{
					"internalType": "address",
					"name": "spender",
					"type": "address"
				},
				{
					"internalType": "uint256",
					"name": "allowance",
					"type": "uint256"
				},
				{
					"internalType": "uint256",
					"name": "needed",
					"type": "uint256"
				}
			],
			"name": "ERC20InsufficientAllowance",
			"type": "error"
		},
		{
			"inputs": [
				{
					"internalType": "address",
					"name": "sender",
					"type": "address"
				},
				{
					"internalType": "uint256",
					"name": "balance",
					"type": "uint256"
				},
				{
					"internalType": "uint256",
					"name": "needed",
					"type": "uint256"
				}
			],
			"name": "ERC20InsufficientBalance",
			"type": "error"
		},
		{
			"inputs": [
				{
					"internalType": "address",
					"name": "approver",
					"type": "address"
				}
			],
			"name": "ERC20InvalidApprover",
			"type": "error"
		},
		{
			"inputs": [
				{
					"internalType": "address",
					"name": "receiver",
					"type": "address"
				}
			],
			"name": "ERC20InvalidReceiver",
			"type": "error"
		},
		{
			"inputs": [
				{
					"internalType": "address",
					"name": "sender",
					"type": "address"
				}
			],
			"name": "ERC20InvalidSender",
			"type": "error"
		},
		{
			"inputs": [
				{
					"internalType": "address",
					"name": "spender",
					"type": "address"
				}
			],
			"name": "ERC20InvalidSpender",
			"type": "error"
		},
		{
			"inputs": [],
			"name": "FailedInnerCall",
			"type": "error"
		},
		{
			"inputs": [
				{
					"internalType": "address",
					"name": "owner",
					"type": "address"
				}
			],
			"name": "OwnableInvalidOwner",
			"type": "error"
		},
		{
			"inputs": [
				{
					"internalType": "address",
					"name": "account",
					"type": "address"
				}
			],
			"name": "OwnableUnauthorizedAccount",
			"type": "error"
		},
		{
			"inputs": [
				{
					"internalType": "address",
					"name": "token",
					"type": "address"
				}
			],
			"name": "SafeERC20FailedOperation",
			"type": "error"
		},
		{
			"anonymous": false,
			"inputs": [
				{
					"indexed": true,
					"internalType": "address",
					"name": "owner",
					"type": "address"
				},
				{
					"indexed": true,
					"internalType": "address",
					"name": "spender",
					"type": "address"
				},
				{
					"indexed": false,
					"internalType": "uint256",
					"name": "value",
					"type": "uint256"
				}
			],
			"name": "Approval",
			"type": "event"
		},
		{
			"anonymous": false,
			"inputs": [
				{
					"indexed": true,
					"internalType": "address",
					"name": "previousOwner",
					"type": "address"
				},
				{
					"indexed": true,
					"internalType": "address",
					"name": "newOwner",
					"type": "address"
				}
			],
			"name": "OwnershipTransferred",
			"type": "event"
		},
		{
			"anonymous": false,
			"inputs": [
				{
					"indexed": true,
					"internalType": "address",
					"name": "from",
					"type": "address"
				},
				{
					"indexed": true,
					"internalType": "address",
					"name": "to",
					"type": "address"
				},
				{
					"indexed": false,
					"internalType": "uint256",
					"name": "value",
					"type": "uint256"
				}
			],
			"name": "Transfer",
			"type": "event"
		},
		{
			"inputs": [
				{
					"internalType": "address",
					"name": "owner",
					"type": "address"
				},
				{
					"internalType": "address",
					"name": "spender",
					"type": "address"
				}
			],
			"name": "allowance",
			"outputs": [
				{
					"internalType": "uint256",
					"name": "",
					"type": "uint256"
				}
			],
			"stateMutability": "view",
			"type": "function"
		},
		{
			"inputs": [
				{
					"internalType": "address",
					"name": "spender",
					"type": "address"
				},
				{
					"internalType": "uint256",
					"name": "value",
					"type": "uint256"
				}
			],
			"name": "approve",
			"outputs": [
				{
					"internalType": "bool",
					"name": "",
					"type": "bool"
				}
			],
			"stateMutability": "nonpayable",
			"type": "function"
		},
		{
			"inputs": [
				{
					"internalType": "address",
					"name": "account",
					"type": "address"
				}
			],
			"name": "balanceOf",
			"outputs": [
				{
					"internalType": "uint256",
					"name": "",
					"type": "uint256"
				}
			],
			"stateMutability": "view",
			"type": "function"
		},
		{
			"inputs": [],
			"name": "decimals",
			"outputs": [
				{
					"internalType": "uint8",
					"name": "",
					"type": "uint8"
				}
			],
			"stateMutability": "view",
			"type": "function"
		},
		{
			"inputs": [],
			"name": "destory",
			"outputs": [],
			"stateMutability": "nonpayable",
			"type": "function"
		},
		{
			"inputs": [],
			"name": "durationTime",
			"outputs": [
				{
					"internalType": "uint32",
					"name": "",
					"type": "uint32"
				}
			],
			"stateMutability": "view",
			"type": "function"
		},
		{
			"inputs": [],
			"name": "exerciseTime",
			"outputs": [
				{
					"internalType": "uint96",
					"name": "",
					"type": "uint96"
				}
			],
			"stateMutability": "view",
			"type": "function"
		},
		{
			"inputs": [],
			"name": "issueOption",
			"outputs": [],
			"stateMutability": "payable",
			"type": "function"
		},
		{
			"inputs": [],
			"name": "name",
			"outputs": [
				{
					"internalType": "string",
					"name": "",
					"type": "string"
				}
			],
			"stateMutability": "view",
			"type": "function"
		},
		{
			"inputs": [],
			"name": "owner",
			"outputs": [
				{
					"internalType": "address",
					"name": "",
					"type": "address"
				}
			],
			"stateMutability": "view",
			"type": "function"
		},
		{
			"inputs": [],
			"name": "price",
			"outputs": [
				{
					"internalType": "uint128",
					"name": "",
					"type": "uint128"
				}
			],
			"stateMutability": "view",
			"type": "function"
		},
		{
			"inputs": [],
			"name": "renounceOwnership",
			"outputs": [],
			"stateMutability": "nonpayable",
			"type": "function"
		},
		{
			"inputs": [
				{
					"internalType": "uint256",
					"name": "_amount",
					"type": "uint256"
				}
			],
			"name": "settleOption",
			"outputs": [],
			"stateMutability": "nonpayable",
			"type": "function"
		},
		{
			"inputs": [],
			"name": "symbol",
			"outputs": [
				{
					"internalType": "string",
					"name": "",
					"type": "string"
				}
			],
			"stateMutability": "view",
			"type": "function"
		},
		{
			"inputs": [],
			"name": "totalSupply",
			"outputs": [
				{
					"internalType": "uint256",
					"name": "",
					"type": "uint256"
				}
			],
			"stateMutability": "view",
			"type": "function"
		},
		{
			"inputs": [
				{
					"internalType": "address",
					"name": "to",
					"type": "address"
				},
				{
					"internalType": "uint256",
					"name": "value",
					"type": "uint256"
				}
			],
			"name": "transfer",
			"outputs": [
				{
					"internalType": "bool",
					"name": "",
					"type": "bool"
				}
			],
			"stateMutability": "nonpayable",
			"type": "function"
		},
		{
			"inputs": [
				{
					"internalType": "address",
					"name": "from",
					"type": "address"
				},
				{
					"internalType": "address",
					"name": "to",
					"type": "address"
				},
				{
					"internalType": "uint256",
					"name": "value",
					"type": "uint256"
				}
			],
			"name": "transferFrom",
			"outputs": [
				{
					"internalType": "bool",
					"name": "",
					"type": "bool"
				}
			],
			"stateMutability": "nonpayable",
			"type": "function"
		},
		{
			"inputs": [
				{
					"internalType": "address",
					"name": "newOwner",
					"type": "address"
				}
			],
			"name": "transferOwnership",
			"outputs": [],
			"stateMutability": "nonpayable",
			"type": "function"
		},
		{
			"inputs": [],
			"name": "usdc",
			"outputs": [
				{
					"internalType": "contract IERC20",
					"name": "",
					"type": "address"
				}
			],
			"stateMutability": "view",
			"type": "function"
		}
	]
}