{
	"Score.sol": {
		"Teacher": {
			"abi": [
				{
					"inputs": [
						{
							"internalType": "address",
							"name": "student",
							"type": "address"
						},
						{
							"internalType": "uint8",
							"name": "score",
							"type": "uint8"
						}
					],
					"name": "modifyScore",
					"outputs": [],
					"stateMutability": "nonpayable",
					"type": "function"
				},
				{
					"inputs": [],
					"name": "scoreAddress",
					"outputs": [
						{
							"internalType": "contract IScore",
							"name": "",
							"type": "address"
						}
					],
					"stateMutability": "view",
					"type": "function"
				},
				{
					"inputs": [
						{
							"internalType": "contract IScore",
							"name": "_score",
							"type": "address"
						}
					],
					"name": "setScoreAddress",
					"outputs": [],
					"stateMutability": "nonpayable",
					"type": "function"
				}
			],
			"devdoc": {
				"kind": "dev",
				"methods": {},
				"version": 1
			},
			"evm": {
				"assembly": "    /* \"Score.sol\":675:944  contract Teacher {... */\n  mstore(0x40, 0x80)\n  callvalue\n  dup1\n  iszero\n  tag_1\n  jumpi\n  0x00\n  dup1\n  revert\ntag_1:\n  pop\n  dataSize(sub_0)\n  dup1\n  dataOffset(sub_0)\n  0x00\n  codecopy\n  0x00\n  return\nstop\n\nsub_0: assembly {\n        /* \"Score.sol\":675:944  contract Teacher {... */\n      mstore(0x40, 0x80)\n      callvalue\n      dup1\n      iszero\n      tag_1\n      jumpi\n      0x00\n      dup1\n      revert\n    tag_1:\n      pop\n      jumpi(tag_2, lt(calldatasize, 0x04))\n      shr(0xe0, calldataload(0x00))\n      dup1\n      0x1eade2b9\n      eq\n      tag_3\n      jumpi\n      dup1\n      0x9bfc586d\n      eq\n      tag_4\n      jumpi\n      dup1\n      0xaf3784bd\n      eq\n      tag_5\n      jumpi\n    tag_2:\n      0x00\n      dup1\n      revert\n        /* \"Score.sol\":731:816  function setScoreAddress(IScore _score) public {... */\n    tag_3:\n      tag_6\n      0x04\n      dup1\n      calldatasize\n      sub\n      dup2\n      add\n      swap1\n      tag_7\n      swap2\n      swap1\n      tag_8\n      jump\t// in\n    tag_7:\n      tag_9\n      jump\t// in\n    tag_6:\n      stop\n        /* \"Score.sol\":822:937  function modifyScore(address student, uint8 score) public {... */\n    tag_4:\n      tag_10\n      0x04\n      dup1\n      calldatasize\n      sub\n      dup2\n      add\n      swap1\n      tag_11\n      swap2\n      swap1\n      tag_12\n      jump\t// in\n    tag_11:\n      tag_13\n      jump\t// in\n    tag_10:\n      stop\n        /* \"Score.sol\":698:724  IScore public scoreAddress */\n    tag_5:\n      tag_14\n      tag_15\n      jump\t// in\n    tag_14:\n      mload(0x40)\n      tag_16\n      swap2\n      swap1\n      tag_17\n      jump\t// in\n    tag_16:\n      mload(0x40)\n      dup1\n      swap2\n      sub\n      swap1\n      return\n        /* \"Score.sol\":731:816  function setScoreAddress(IScore _score) public {... */\n    tag_9:\n        /* \"Score.sol\":803:809  _score */\n      dup1\n        /* \"Score.sol\":788:800  scoreAddress */\n      0x00\n      dup1\n        /* \"Score.sol\":788:809  scoreAddress = _score */\n      0x0100\n      exp\n      dup2\n      sload\n      dup2\n      0xffffffffffffffffffffffffffffffffffffffff\n      mul\n      not\n      and\n      swap1\n      dup4\n      0xffffffffffffffffffffffffffffffffffffffff\n      and\n      mul\n      or\n      swap1\n      sstore\n      pop\n        /* \"Score.sol\":731:816  function setScoreAddress(IScore _score) public {... */\n      pop\n      jump\t// out\n        /* \"Score.sol\":822:937  function modifyScore(address student, uint8 score) public {... */\n    tag_13:\n        /* \"Score.sol\":890:902  scoreAddress */\n      0x00\n      dup1\n      sload\n      swap1\n      0x0100\n      exp\n      swap1\n      div\n      0xffffffffffffffffffffffffffffffffffffffff\n      and\n        /* \"Score.sol\":890:914  scoreAddress.modifyScore */\n      0xffffffffffffffffffffffffffffffffffffffff\n      and\n      0x9bfc586d\n        /* \"Score.sol\":915:922  student */\n      dup4\n        /* \"Score.sol\":924:929  score */\n      dup4\n        /* \"Score.sol\":890:930  scoreAddress.modifyScore(student, score) */\n      mload(0x40)\n      dup4\n      0xffffffff\n      and\n      0xe0\n      shl\n      dup2\n      mstore\n      0x04\n      add\n      tag_20\n      swap3\n      swap2\n      swap1\n      tag_21\n      jump\t// in\n    tag_20:\n      0x00\n      mload(0x40)\n      dup1\n      dup4\n      sub\n      dup2\n      0x00\n      dup8\n      dup1\n      extcodesize\n      iszero\n      dup1\n      iszero\n      tag_22\n      jumpi\n      0x00\n      dup1\n      revert\n    tag_22:\n      pop\n      gas\n      call\n      iszero\n      dup1\n      iszero\n      tag_24\n      jumpi\n      returndatasize\n      0x00\n      dup1\n      returndatacopy\n      revert(0x00, returndatasize)\n    tag_24:\n      pop\n      pop\n      pop\n      pop\n        /* \"Score.sol\":822:937  function modifyScore(address student, uint8 score) public {... */\n      pop\n      pop\n      jump\t// out\n        /* \"Score.sol\":698:724  IScore public scoreAddress */\n    tag_15:\n      0x00\n      dup1\n      sload\n      swap1\n      0x0100\n      exp\n      swap1\n      div\n      0xffffffffffffffffffffffffffffffffffffffff\n      and\n      dup2\n      jump\t// out\n        /* \"#utility.yul\":88:205   */\n    tag_26:\n        /* \"#utility.yul\":197:198   */\n      0x00\n        /* \"#utility.yul\":194:195   */\n      dup1\n        /* \"#utility.yul\":187:199   */\n      revert\n        /* \"#utility.yul\":334:460   */\n    tag_28:\n        /* \"#utility.yul\":371:378   */\n      0x00\n        /* \"#utility.yul\":411:453   */\n      0xffffffffffffffffffffffffffffffffffffffff\n        /* \"#utility.yul\":404:409   */\n      dup3\n        /* \"#utility.yul\":400:454   */\n      and\n        /* \"#utility.yul\":389:454   */\n      swap1\n      pop\n        /* \"#utility.yul\":334:460   */\n      swap2\n      swap1\n      pop\n      jump\t// out\n        /* \"#utility.yul\":466:562   */\n    tag_29:\n        /* \"#utility.yul\":503:510   */\n      0x00\n        /* \"#utility.yul\":532:556   */\n      tag_51\n        /* \"#utility.yul\":550:555   */\n      dup3\n        /* \"#utility.yul\":532:556   */\n      tag_28\n      jump\t// in\n    tag_51:\n        /* \"#utility.yul\":521:556   */\n      swap1\n      pop\n        /* \"#utility.yul\":466:562   */\n      swap2\n      swap1\n      pop\n      jump\t// out\n        /* \"#utility.yul\":568:677   */\n    tag_30:\n        /* \"#utility.yul\":618:625   */\n      0x00\n        /* \"#utility.yul\":647:671   */\n      tag_53\n        /* \"#utility.yul\":665:670   */\n      dup3\n        /* \"#utility.yul\":647:671   */\n      tag_29\n      jump\t// in\n    tag_53:\n        /* \"#utility.yul\":636:671   */\n      swap1\n      pop\n        /* \"#utility.yul\":568:677   */\n      swap2\n      swap1\n      pop\n      jump\t// out\n        /* \"#utility.yul\":683:831   */\n    tag_31:\n        /* \"#utility.yul\":769:806   */\n      tag_55\n        /* \"#utility.yul\":800:805   */\n      dup2\n        /* \"#utility.yul\":769:806   */\n      tag_30\n      jump\t// in\n    tag_55:\n        /* \"#utility.yul\":762:767   */\n      dup2\n        /* \"#utility.yul\":759:807   */\n      eq\n        /* \"#utility.yul\":749:825   */\n      tag_56\n      jumpi\n        /* \"#utility.yul\":821:822   */\n      0x00\n        /* \"#utility.yul\":818:819   */\n      dup1\n        /* \"#utility.yul\":811:823   */\n      revert\n        /* \"#utility.yul\":749:825   */\n    tag_56:\n        /* \"#utility.yul\":683:831   */\n      pop\n      jump\t// out\n        /* \"#utility.yul\":837:1002   */\n    tag_32:\n        /* \"#utility.yul\":896:901   */\n      0x00\n        /* \"#utility.yul\":934:940   */\n      dup2\n        /* \"#utility.yul\":921:941   */\n      calldataload\n        /* \"#utility.yul\":912:941   */\n      swap1\n      pop\n        /* \"#utility.yul\":950:996   */\n      tag_58\n        /* \"#utility.yul\":990:995   */\n      dup2\n        /* \"#utility.yul\":950:996   */\n      tag_31\n      jump\t// in\n    tag_58:\n        /* \"#utility.yul\":837:1002   */\n      swap3\n      swap2\n      pop\n      pop\n      jump\t// out\n        /* \"#utility.yul\":1008:1363   */\n    tag_8:\n        /* \"#utility.yul\":1080:1086   */\n      0x00\n        /* \"#utility.yul\":1129:1131   */\n      0x20\n        /* \"#utility.yul\":1117:1126   */\n      dup3\n        /* \"#utility.yul\":1108:1115   */\n      dup5\n        /* \"#utility.yul\":1104:1127   */\n      sub\n        /* \"#utility.yul\":1100:1132   */\n      slt\n        /* \"#utility.yul\":1097:1216   */\n      iszero\n      tag_60\n      jumpi\n        /* \"#utility.yul\":1135:1214   */\n      tag_61\n      tag_26\n      jump\t// in\n    tag_61:\n        /* \"#utility.yul\":1097:1216   */\n    tag_60:\n        /* \"#utility.yul\":1255:1256   */\n      0x00\n        /* \"#utility.yul\":1280:1346   */\n      tag_62\n        /* \"#utility.yul\":1338:1345   */\n      dup5\n        /* \"#utility.yul\":1329:1335   */\n      dup3\n        /* \"#utility.yul\":1318:1327   */\n      dup6\n        /* \"#utility.yul\":1314:1336   */\n      add\n        /* \"#utility.yul\":1280:1346   */\n      tag_32\n      jump\t// in\n    tag_62:\n        /* \"#utility.yul\":1270:1346   */\n      swap2\n      pop\n        /* \"#utility.yul\":1226:1356   */\n      pop\n        /* \"#utility.yul\":1008:1363   */\n      swap3\n      swap2\n      pop\n      pop\n      jump\t// out\n        /* \"#utility.yul\":1369:1491   */\n    tag_33:\n        /* \"#utility.yul\":1442:1466   */\n      tag_64\n        /* \"#utility.yul\":1460:1465   */\n      dup2\n        /* \"#utility.yul\":1442:1466   */\n      tag_29\n      jump\t// in\n    tag_64:\n        /* \"#utility.yul\":1435:1440   */\n      dup2\n        /* \"#utility.yul\":1432:1467   */\n      eq\n        /* \"#utility.yul\":1422:1485   */\n      tag_65\n      jumpi\n        /* \"#utility.yul\":1481:1482   */\n      0x00\n        /* \"#utility.yul\":1478:1479   */\n      dup1\n        /* \"#utility.yul\":1471:1483   */\n      revert\n        /* \"#utility.yul\":1422:1485   */\n    tag_65:\n        /* \"#utility.yul\":1369:1491   */\n      pop\n      jump\t// out\n        /* \"#utility.yul\":1497:1636   */\n    tag_34:\n        /* \"#utility.yul\":1543:1548   */\n      0x00\n        /* \"#utility.yul\":1581:1587   */\n      dup2\n        /* \"#utility.yul\":1568:1588   */\n      calldataload\n        /* \"#utility.yul\":1559:1588   */\n      swap1\n      pop\n        /* \"#utility.yul\":1597:1630   */\n      tag_67\n        /* \"#utility.yul\":1624:1629   */\n      dup2\n        /* \"#utility.yul\":1597:1630   */\n      tag_33\n      jump\t// in\n    tag_67:\n        /* \"#utility.yul\":1497:1636   */\n      swap3\n      swap2\n      pop\n      pop\n      jump\t// out\n        /* \"#utility.yul\":1642:1728   */\n    tag_35:\n        /* \"#utility.yul\":1677:1684   */\n      0x00\n        /* \"#utility.yul\":1717:1721   */\n      0xff\n        /* \"#utility.yul\":1710:1715   */\n      dup3\n        /* \"#utility.yul\":1706:1722   */\n      and\n        /* \"#utility.yul\":1695:1722   */\n      swap1\n      pop\n        /* \"#utility.yul\":1642:1728   */\n      swap2\n      swap1\n      pop\n      jump\t// out\n        /* \"#utility.yul\":1734:1852   */\n    tag_36:\n        /* \"#utility.yul\":1805:1827   */\n      tag_70\n        /* \"#utility.yul\":1821:1826   */\n      dup2\n        /* \"#utility.yul\":1805:1827   */\n      tag_35\n      jump\t// in\n    tag_70:\n        /* \"#utility.yul\":1798:1803   */\n      dup2\n        /* \"#utility.yul\":1795:1828   */\n      eq\n        /* \"#utility.yul\":1785:1846   */\n      tag_71\n      jumpi\n        /* \"#utility.yul\":1842:1843   */\n      0x00\n        /* \"#utility.yul\":1839:1840   */\n      dup1\n        /* \"#utility.yul\":1832:1844   */\n      revert\n        /* \"#utility.yul\":1785:1846   */\n    tag_71:\n        /* \"#utility.yul\":1734:1852   */\n      pop\n      jump\t// out\n        /* \"#utility.yul\":1858:1993   */\n    tag_37:\n        /* \"#utility.yul\":1902:1907   */\n      0x00\n        /* \"#utility.yul\":1940:1946   */\n      dup2\n        /* \"#utility.yul\":1927:1947   */\n      calldataload\n        /* \"#utility.yul\":1918:1947   */\n      swap1\n      pop\n        /* \"#utility.yul\":1956:1987   */\n      tag_73\n        /* \"#utility.yul\":1981:1986   */\n      dup2\n        /* \"#utility.yul\":1956:1987   */\n      tag_36\n      jump\t// in\n    tag_73:\n        /* \"#utility.yul\":1858:1993   */\n      swap3\n      swap2\n      pop\n      pop\n      jump\t// out\n        /* \"#utility.yul\":1999:2469   */\n    tag_12:\n        /* \"#utility.yul\":2065:2071   */\n      0x00\n        /* \"#utility.yul\":2073:2079   */\n      dup1\n        /* \"#utility.yul\":2122:2124   */\n      0x40\n        /* \"#utility.yul\":2110:2119   */\n      dup4\n        /* \"#utility.yul\":2101:2108   */\n      dup6\n        /* \"#utility.yul\":2097:2120   */\n      sub\n        /* \"#utility.yul\":2093:2125   */\n      slt\n        /* \"#utility.yul\":2090:2209   */\n      iszero\n      tag_75\n      jumpi\n        /* \"#utility.yul\":2128:2207   */\n      tag_76\n      tag_26\n      jump\t// in\n    tag_76:\n        /* \"#utility.yul\":2090:2209   */\n    tag_75:\n        /* \"#utility.yul\":2248:2249   */\n      0x00\n        /* \"#utility.yul\":2273:2326   */\n      tag_77\n        /* \"#utility.yul\":2318:2325   */\n      dup6\n        /* \"#utility.yul\":2309:2315   */\n      dup3\n        /* \"#utility.yul\":2298:2307   */\n      dup7\n        /* \"#utility.yul\":2294:2316   */\n      add\n        /* \"#utility.yul\":2273:2326   */\n      tag_34\n      jump\t// in\n    tag_77:\n        /* \"#utility.yul\":2263:2326   */\n      swap3\n      pop\n        /* \"#utility.yul\":2219:2336   */\n      pop\n        /* \"#utility.yul\":2375:2377   */\n      0x20\n        /* \"#utility.yul\":2401:2452   */\n      tag_78\n        /* \"#utility.yul\":2444:2451   */\n      dup6\n        /* \"#utility.yul\":2435:2441   */\n      dup3\n        /* \"#utility.yul\":2424:2433   */\n      dup7\n        /* \"#utility.yul\":2420:2442   */\n      add\n        /* \"#utility.yul\":2401:2452   */\n      tag_37\n      jump\t// in\n    tag_78:\n        /* \"#utility.yul\":2391:2452   */\n      swap2\n      pop\n        /* \"#utility.yul\":2346:2462   */\n      pop\n        /* \"#utility.yul\":1999:2469   */\n      swap3\n      pop\n      swap3\n      swap1\n      pop\n      jump\t// out\n        /* \"#utility.yul\":2475:2535   */\n    tag_38:\n        /* \"#utility.yul\":2503:2506   */\n      0x00\n        /* \"#utility.yul\":2524:2529   */\n      dup2\n        /* \"#utility.yul\":2517:2529   */\n      swap1\n      pop\n        /* \"#utility.yul\":2475:2535   */\n      swap2\n      swap1\n      pop\n      jump\t// out\n        /* \"#utility.yul\":2541:2683   */\n    tag_39:\n        /* \"#utility.yul\":2591:2600   */\n      0x00\n        /* \"#utility.yul\":2624:2677   */\n      tag_81\n        /* \"#utility.yul\":2642:2676   */\n      tag_82\n        /* \"#utility.yul\":2651:2675   */\n      tag_83\n        /* \"#utility.yul\":2669:2674   */\n      dup5\n        /* \"#utility.yul\":2651:2675   */\n      tag_28\n      jump\t// in\n    tag_83:\n        /* \"#utility.yul\":2642:2676   */\n      tag_38\n      jump\t// in\n    tag_82:\n        /* \"#utility.yul\":2624:2677   */\n      tag_28\n      jump\t// in\n    tag_81:\n        /* \"#utility.yul\":2611:2677   */\n      swap1\n      pop\n        /* \"#utility.yul\":2541:2683   */\n      swap2\n      swap1\n      pop\n      jump\t// out\n        /* \"#utility.yul\":2689:2815   */\n    tag_40:\n        /* \"#utility.yul\":2739:2748   */\n      0x00\n        /* \"#utility.yul\":2772:2809   */\n      tag_85\n        /* \"#utility.yul\":2803:2808   */\n      dup3\n        /* \"#utility.yul\":2772:2809   */\n      tag_39\n      jump\t// in\n    tag_85:\n        /* \"#utility.yul\":2759:2809   */\n      swap1\n      pop\n        /* \"#utility.yul\":2689:2815   */\n      swap2\n      swap1\n      pop\n      jump\t// out\n        /* \"#utility.yul\":2821:2960   */\n    tag_41:\n        /* \"#utility.yul\":2884:2893   */\n      0x00\n        /* \"#utility.yul\":2917:2954   */\n      tag_87\n        /* \"#utility.yul\":2948:2953   */\n      dup3\n        /* \"#utility.yul\":2917:2954   */\n      tag_40\n      jump\t// in\n    tag_87:\n        /* \"#utility.yul\":2904:2954   */\n      swap1\n      pop\n        /* \"#utility.yul\":2821:2960   */\n      swap2\n      swap1\n      pop\n      jump\t// out\n        /* \"#utility.yul\":2966:3123   */\n    tag_42:\n        /* \"#utility.yul\":3066:3116   */\n      tag_89\n        /* \"#utility.yul\":3110:3115   */\n      dup2\n        /* \"#utility.yul\":3066:3116   */\n      tag_41\n      jump\t// in\n    tag_89:\n        /* \"#utility.yul\":3061:3064   */\n      dup3\n        /* \"#utility.yul\":3054:3117   */\n      mstore\n        /* \"#utility.yul\":2966:3123   */\n      pop\n      pop\n      jump\t// out\n        /* \"#utility.yul\":3129:3377   */\n    tag_17:\n        /* \"#utility.yul\":3235:3239   */\n      0x00\n        /* \"#utility.yul\":3273:3275   */\n      0x20\n        /* \"#utility.yul\":3262:3271   */\n      dup3\n        /* \"#utility.yul\":3258:3276   */\n      add\n        /* \"#utility.yul\":3250:3276   */\n      swap1\n      pop\n        /* \"#utility.yul\":3286:3370   */\n      tag_91\n        /* \"#utility.yul\":3367:3368   */\n      0x00\n        /* \"#utility.yul\":3356:3365   */\n      dup4\n        /* \"#utility.yul\":3352:3369   */\n      add\n        /* \"#utility.yul\":3343:3349   */\n      dup5\n        /* \"#utility.yul\":3286:3370   */\n      tag_42\n      jump\t// in\n    tag_91:\n        /* \"#utility.yul\":3129:3377   */\n      swap3\n      swap2\n      pop\n      pop\n      jump\t// out\n        /* \"#utility.yul\":3383:3501   */\n    tag_43:\n        /* \"#utility.yul\":3470:3494   */\n      tag_93\n        /* \"#utility.yul\":3488:3493   */\n      dup2\n        /* \"#utility.yul\":3470:3494   */\n      tag_29\n      jump\t// in\n    tag_93:\n        /* \"#utility.yul\":3465:3468   */\n      dup3\n        /* \"#utility.yul\":3458:3495   */\n      mstore\n        /* \"#utility.yul\":3383:3501   */\n      pop\n      pop\n      jump\t// out\n        /* \"#utility.yul\":3507:3619   */\n    tag_44:\n        /* \"#utility.yul\":3590:3612   */\n      tag_95\n        /* \"#utility.yul\":3606:3611   */\n      dup2\n        /* \"#utility.yul\":3590:3612   */\n      tag_35\n      jump\t// in\n    tag_95:\n        /* \"#utility.yul\":3585:3588   */\n      dup3\n        /* \"#utility.yul\":3578:3613   */\n      mstore\n        /* \"#utility.yul\":3507:3619   */\n      pop\n      pop\n      jump\t// out\n        /* \"#utility.yul\":3625:3949   */\n    tag_21:\n        /* \"#utility.yul\":3742:3746   */\n      0x00\n        /* \"#utility.yul\":3780:3782   */\n      0x40\n        /* \"#utility.yul\":3769:3778   */\n      dup3\n        /* \"#utility.yul\":3765:3783   */\n      add\n        /* \"#utility.yul\":3757:3783   */\n      swap1\n      pop\n        /* \"#utility.yul\":3793:3864   */\n      tag_97\n        /* \"#utility.yul\":3861:3862   */\n      0x00\n        /* \"#utility.yul\":3850:3859   */\n      dup4\n        /* \"#utility.yul\":3846:3863   */\n      add\n        /* \"#utility.yul\":3837:3843   */\n      dup6\n        /* \"#utility.yul\":3793:3864   */\n      tag_43\n      jump\t// in\n    tag_97:\n        /* \"#utility.yul\":3874:3942   */\n      tag_98\n        /* \"#utility.yul\":3938:3940   */\n      0x20\n        /* \"#utility.yul\":3927:3936   */\n      dup4\n        /* \"#utility.yul\":3923:3941   */\n      add\n        /* \"#utility.yul\":3914:3920   */\n      dup5\n        /* \"#utility.yul\":3874:3942   */\n      tag_44\n      jump\t// in\n    tag_98:\n        /* \"#utility.yul\":3625:3949   */\n      swap4\n      swap3\n      pop\n      pop\n      pop\n      jump\t// out\n\n    auxdata: 0xa264697066735822122054287ccb0b2706eed9acce58bdb41991bb27275695137187949f567bb7c35d6164736f6c634300081a0033\n}\n",
				"bytecode": {
					"linkReferences": {},
					"object": "6080604052348015600e575f80fd5b506103b08061001c5f395ff3fe608060405234801561000f575f80fd5b506004361061003f575f3560e01c80631eade2b9146100435780639bfc586d1461005f578063af3784bd1461007b575b5f80fd5b61005d600480360381019061005891906101f8565b610099565b005b61007960048036038101906100749190610283565b6100db565b005b610083610166565b604051610090919061031c565b60405180910390f35b805f806101000a81548173ffffffffffffffffffffffffffffffffffffffff021916908373ffffffffffffffffffffffffffffffffffffffff16021790555050565b5f8054906101000a900473ffffffffffffffffffffffffffffffffffffffff1673ffffffffffffffffffffffffffffffffffffffff16639bfc586d83836040518363ffffffff1660e01b8152600401610135929190610353565b5f604051808303815f87803b15801561014c575f80fd5b505af115801561015e573d5f803e3d5ffd5b505050505050565b5f8054906101000a900473ffffffffffffffffffffffffffffffffffffffff1681565b5f80fd5b5f73ffffffffffffffffffffffffffffffffffffffff82169050919050565b5f6101b68261018d565b9050919050565b5f6101c7826101ac565b9050919050565b6101d7816101bd565b81146101e1575f80fd5b50565b5f813590506101f2816101ce565b92915050565b5f6020828403121561020d5761020c610189565b5b5f61021a848285016101e4565b91505092915050565b61022c816101ac565b8114610236575f80fd5b50565b5f8135905061024781610223565b92915050565b5f60ff82169050919050565b6102628161024d565b811461026c575f80fd5b50565b5f8135905061027d81610259565b92915050565b5f806040838503121561029957610298610189565b5b5f6102a685828601610239565b92505060206102b78582860161026f565b9150509250929050565b5f819050919050565b5f6102e46102df6102da8461018d565b6102c1565b61018d565b9050919050565b5f6102f5826102ca565b9050919050565b5f610306826102eb565b9050919050565b610316816102fc565b82525050565b5f60208201905061032f5f83018461030d565b92915050565b61033e816101ac565b82525050565b61034d8161024d565b82525050565b5f6040820190506103665f830185610335565b6103736020830184610344565b939250505056fea264697066735822122054287ccb0b2706eed9acce58bdb41991bb27275695137187949f567bb7c35d6164736f6c634300081a0033",
					"opcodes": "PUSH1 0x80 PUSH1 0x40 MSTORE CALLVALUE DUP1 ISZERO PUSH1 0xE JUMPI PUSH0 DUP1 REVERT JUMPDEST POP PUSH2 0x3B0 DUP1 PUSH2 0x1C PUSH0 CODECOPY PUSH0 RETURN INVALID PUSH1 0x80 PUSH1 0x40 MSTORE CALLVALUE DUP1 ISZERO PUSH2 0xF JUMPI PUSH0 DUP1 REVERT JUMPDEST POP PUSH1 0x4 CALLDATASIZE LT PUSH2 0x3F JUMPI PUSH0 CALLDATALOAD PUSH1 0xE0 SHR DUP1 PUSH4 0x1EADE2B9 EQ PUSH2 0x43 JUMPI DUP1 PUSH4 0x9BFC586D EQ PUSH2 0x5F JUMPI DUP1 PUSH4 0xAF3784BD EQ PUSH2 0x7B JUMPI JUMPDEST PUSH0 DUP1 REVERT JUMPDEST PUSH2 0x5D PUSH1 0x4 DUP1 CALLDATASIZE SUB DUP2 ADD SWAP1 PUSH2 0x58 SWAP2 SWAP1 PUSH2 0x1F8 JUMP JUMPDEST PUSH2 0x99 JUMP JUMPDEST STOP JUMPDEST PUSH2 0x79 PUSH1 0x4 DUP1 CALLDATASIZE SUB DUP2 ADD SWAP1 PUSH2 0x74 SWAP2 SWAP1 PUSH2 0x283 JUMP JUMPDEST PUSH2 0xDB JUMP JUMPDEST STOP JUMPDEST PUSH2 0x83 PUSH2 0x166 JUMP JUMPDEST PUSH1 0x40 MLOAD PUSH2 0x90 SWAP2 SWAP1 PUSH2 0x31C JUMP JUMPDEST PUSH1 0x40 MLOAD DUP1 SWAP2 SUB SWAP1 RETURN JUMPDEST DUP1 PUSH0 DUP1 PUSH2 0x100 EXP DUP2 SLOAD DUP2 PUSH20 0xFFFFFFFFFFFFFFFFFFFFFFFFFFFFFFFFFFFFFFFF MUL NOT AND SWAP1 DUP4 PUSH20 0xFFFFFFFFFFFFFFFFFFFFFFFFFFFFFFFFFFFFFFFF AND MUL OR SWAP1 SSTORE POP POP JUMP JUMPDEST PUSH0 DUP1 SLOAD SWAP1 PUSH2 0x100 EXP SWAP1 DIV PUSH20 0xFFFFFFFFFFFFFFFFFFFFFFFFFFFFFFFFFFFFFFFF AND PUSH20 0xFFFFFFFFFFFFFFFFFFFFFFFFFFFFFFFFFFFFFFFF AND PUSH4 0x9BFC586D DUP4 DUP4 PUSH1 0x40 MLOAD DUP4 PUSH4 0xFFFFFFFF AND PUSH1 0xE0 SHL DUP2 MSTORE PUSH1 0x4 ADD PUSH2 0x135 SWAP3 SWAP2 SWAP1 PUSH2 0x353 JUMP JUMPDEST PUSH0 PUSH1 0x40 MLOAD DUP1 DUP4 SUB DUP2 PUSH0 DUP8 DUP1 EXTCODESIZE ISZERO DUP1 ISZERO PUSH2 0x14C JUMPI PUSH0 DUP1 REVERT JUMPDEST POP GAS CALL ISZERO DUP1 ISZERO PUSH2 0x15E JUMPI RETURNDATASIZE PUSH0 DUP1 RETURNDATACOPY RETURNDATASIZE PUSH0 REVERT JUMPDEST POP POP POP POP POP POP JUMP JUMPDEST PUSH0 DUP1 SLOAD SWAP1 PUSH2 0x100 EXP SWAP1 DIV PUSH20 0xFFFFFFFFFFFFFFFFFFFFFFFFFFFFFFFFFFFFFFFF AND DUP2 JUMP JUMPDEST PUSH0 DUP1 REVERT JUMPDEST PUSH0 PUSH20 0xFFFFFFFFFFFFFFFFFFFFFFFFFFFFFFFFFFFFFFFF DUP3 AND SWAP1 POP SWAP2 SWAP1 POP JUMP JUMPDEST PUSH0 PUSH2 0x1B6 DUP3 PUSH2 0x18D JUMP JUMPDEST SWAP1 POP SWAP2 SWAP1 POP JUMP JUMPDEST PUSH0 PUSH2 0x1C7 DUP3 PUSH2 0x1AC JUMP JUMPDEST SWAP1 POP SWAP2 SWAP1 POP JUMP JUMPDEST PUSH2 0x1D7 DUP2 PUSH2 0x1BD JUMP JUMPDEST DUP2 EQ PUSH2 0x1E1 JUMPI PUSH0 DUP1 REVERT JUMPDEST POP JUMP JUMPDEST PUSH0 DUP2 CALLDATALOAD SWAP1 POP PUSH2 0x1F2 DUP2 PUSH2 0x1CE JUMP JUMPDEST SWAP3 SWAP2 POP POP JUMP JUMPDEST PUSH0 PUSH1 0x20 DUP3 DUP5 SUB SLT ISZERO PUSH2 0x20D JUMPI PUSH2 0x20C PUSH2 0x189 JUMP JUMPDEST JUMPDEST PUSH0 PUSH2 0x21A DUP5 DUP3 DUP6 ADD PUSH2 0x1E4 JUMP JUMPDEST SWAP2 POP POP SWAP3 SWAP2 POP POP JUMP JUMPDEST PUSH2 0x22C DUP2 PUSH2 0x1AC JUMP JUMPDEST DUP2 EQ PUSH2 0x236 JUMPI PUSH0 DUP1 REVERT JUMPDEST POP JUMP JUMPDEST PUSH0 DUP2 CALLDATALOAD SWAP1 POP PUSH2 0x247 DUP2 PUSH2 0x223 JUMP JUMPDEST SWAP3 SWAP2 POP POP JUMP JUMPDEST PUSH0 PUSH1 0xFF DUP3 AND SWAP1 POP SWAP2 SWAP1 POP JUMP JUMPDEST PUSH2 0x262 DUP2 PUSH2 0x24D JUMP JUMPDEST DUP2 EQ PUSH2 0x26C JUMPI PUSH0 DUP1 REVERT JUMPDEST POP JUMP JUMPDEST PUSH0 DUP2 CALLDATALOAD SWAP1 POP PUSH2 0x27D DUP2 PUSH2 0x259 JUMP JUMPDEST SWAP3 SWAP2 POP POP JUMP JUMPDEST PUSH0 DUP1 PUSH1 0x40 DUP4 DUP6 SUB SLT ISZERO PUSH2 0x299 JUMPI PUSH2 0x298 PUSH2 0x189 JUMP JUMPDEST JUMPDEST PUSH0 PUSH2 0x2A6 DUP6 DUP3 DUP7 ADD PUSH2 0x239 JUMP JUMPDEST SWAP3 POP POP PUSH1 0x20 PUSH2 0x2B7 DUP6 DUP3 DUP7 ADD PUSH2 0x26F JUMP JUMPDEST SWAP2 POP POP SWAP3 POP SWAP3 SWAP1 POP JUMP JUMPDEST PUSH0 DUP2 SWAP1 POP SWAP2 SWAP1 POP JUMP JUMPDEST PUSH0 PUSH2 0x2E4 PUSH2 0x2DF PUSH2 0x2DA DUP5 PUSH2 0x18D JUMP JUMPDEST PUSH2 0x2C1 JUMP JUMPDEST PUSH2 0x18D JUMP JUMPDEST SWAP1 POP SWAP2 SWAP1 POP JUMP JUMPDEST PUSH0 PUSH2 0x2F5 DUP3 PUSH2 0x2CA JUMP JUMPDEST SWAP1 POP SWAP2 SWAP1 POP JUMP JUMPDEST PUSH0 PUSH2 0x306 DUP3 PUSH2 0x2EB JUMP JUMPDEST SWAP1 POP SWAP2 SWAP1 POP JUMP JUMPDEST PUSH2 0x316 DUP2 PUSH2 0x2FC JUMP JUMPDEST DUP3 MSTORE POP POP JUMP JUMPDEST PUSH0 PUSH1 0x20 DUP3 ADD SWAP1 POP PUSH2 0x32F PUSH0 DUP4 ADD DUP5 PUSH2 0x30D JUMP JUMPDEST SWAP3 SWAP2 POP POP JUMP JUMPDEST PUSH2 0x33E DUP2 PUSH2 0x1AC JUMP JUMPDEST DUP3 MSTORE POP POP JUMP JUMPDEST PUSH2 0x34D DUP2 PUSH2 0x24D JUMP JUMPDEST DUP3 MSTORE POP POP JUMP JUMPDEST PUSH0 PUSH1 0x40 DUP3 ADD SWAP1 POP PUSH2 0x366 PUSH0 DUP4 ADD DUP6 PUSH2 0x335 JUMP JUMPDEST PUSH2 0x373 PUSH1 0x20 DUP4 ADD DUP5 PUSH2 0x344 JUMP JUMPDEST SWAP4 SWAP3 POP POP POP JUMP INVALID LOG2 PUSH5 0x6970667358 0x22 SLT KECCAK256 SLOAD 0x28 PUSH29 0xCB0B2706EED9ACCE58BDB41991BB27275695137187949F567BB7C35D61 PUSH5 0x736F6C6343 STOP ADDMOD BYTE STOP CALLER "
				},
				"gasEstimates": {
					"creation": {
						"codeDepositCost": "188800",
						"executionCost": "230",
						"totalCost": "189030"
					},
					"external": {
						"modifyScore(address,uint8)": "infinite",
						"scoreAddress()": "infinite",
						"setScoreAddress(address)": "24735"
					}
				},
				"methodIdentifiers": {
					"modifyScore(address,uint8)": "9bfc586d",
					"scoreAddress()": "af3784bd",
					"setScoreAddress(address)": "1eade2b9"
				}
			},
			"storageLayout": {
				"storage": [
					{
						"astId": 64,
						"contract": "Score.sol:Teacher",
						"label": "scoreAddress",
						"offset": 0,
						"slot": "0",
						"type": "t_contract(IScore)61"
					}
				],
				"types": {
					"t_contract(IScore)61": {
						"encoding": "inplace",
						"label": "contract IScore",
						"numberOfBytes": "20"
					}
				}
			},
			"userdoc": {
				"kind": "user",
				"methods": {},
				"version": 1
			}
		}
	}
}