{
	"MyERC721Market.sol": {
		"MyERC721Market": {
			"abi": [
				{
					"inputs": [
						{
							"internalType": "contract ERC721URIStorage",
							"name": "_erc721",
							"type": "address"
						},
						{
							"internalType": "contract IERC20",
							"name": "_erc20",
							"type": "address"
						}
					],
					"stateMutability": "nonpayable",
					"type": "constructor"
				},
				{
					"inputs": [
						{
							"internalType": "address",
							"name": "target",
							"type": "address"
						}
					],
					"name": "AddressEmptyCode",
					"type": "error"
				},
				{
					"inputs": [
						{
							"internalType": "address",
							"name": "account",
							"type": "address"
						}
					],
					"name": "AddressInsufficientBalance",
					"type": "error"
				},
				{
					"inputs": [],
					"name": "FailedInnerCall",
					"type": "error"
				},
				{
					"inputs": [
						{
							"internalType": "address",
							"name": "token",
							"type": "address"
						}
					],
					"name": "SafeERC20FailedOperation",
					"type": "error"
				},
				{
					"inputs": [
						{
							"internalType": "uint256",
							"name": "_tokenId",
							"type": "uint256"
						}
					],
					"name": "buyNFT",
					"outputs": [],
					"stateMutability": "nonpayable",
					"type": "function"
				},
				{
					"inputs": [],
					"name": "erc20",
					"outputs": [
						{
							"internalType": "contract IERC20",
							"name": "",
							"type": "address"
						}
					],
					"stateMutability": "view",
					"type": "function"
				},
				{
					"inputs": [],
					"name": "erc721",
					"outputs": [
						{
							"internalType": "contract ERC721URIStorage",
							"name": "",
							"type": "address"
						}
					],
					"stateMutability": "view",
					"type": "function"
				},
				{
					"inputs": [
						{
							"internalType": "uint256",
							"name": "_tokenId",
							"type": "uint256"
						},
						{
							"internalType": "uint256",
							"name": "_price",
							"type": "uint256"
						}
					],
					"name": "list",
					"outputs": [],
					"stateMutability": "nonpayable",
					"type": "function"
				},
				{
					"inputs": [
						{
							"internalType": "uint256",
							"name": "",
							"type": "uint256"
						}
					],
					"name": "tokenOwner",
					"outputs": [
						{
							"internalType": "address",
							"name": "",
							"type": "address"
						}
					],
					"stateMutability": "view",
					"type": "function"
				},
				{
					"inputs": [
						{
							"internalType": "uint256",
							"name": "",
							"type": "uint256"
						}
					],
					"name": "tokenPrice",
					"outputs": [
						{
							"internalType": "uint256",
							"name": "",
							"type": "uint256"
						}
					],
					"stateMutability": "view",
					"type": "function"
				}
			],
			"devdoc": {
				"errors": {
					"AddressEmptyCode(address)": [
						{
							"details": "There's no code at `target` (it is not a contract)."
						}
					],
					"AddressInsufficientBalance(address)": [
						{
							"details": "The ETH balance of the account is not enough to perform the operation."
						}
					],
					"FailedInnerCall()": [
						{
							"details": "A call to an address target failed. The target may have reverted."
						}
					],
					"SafeERC20FailedOperation(address)": [
						{
							"details": "An operation with an ERC20 token failed."
						}
					]
				},
				"kind": "dev",
				"methods": {},
				"version": 1
			},
			"evm": {
				"assembly": "    /* \"MyERC721Market.sol\":299:1404  contract MyERC721Market {... */\n  mstore(0x40, 0x80)\n    /* \"MyERC721Market.sol\":534:647  constructor(ERC721URIStorage _erc721, IERC20 _erc20) {... */\n  callvalue\n  dup1\n  iszero\n  tag_1\n  jumpi\n  0x00\n  dup1\n  revert\ntag_1:\n  pop\n  mload(0x40)\n  sub(codesize, bytecodeSize)\n  dup1\n  bytecodeSize\n  dup4\n  codecopy\n  dup2\n  dup2\n  add\n  0x40\n  mstore\n  dup2\n  add\n  swap1\n  tag_2\n  swap2\n  swap1\n  tag_3\n  jump\t// in\ntag_2:\n    /* \"MyERC721Market.sol\":607:614  _erc721 */\n  dup2\n    /* \"MyERC721Market.sol\":598:604  erc721 */\n  0x00\n  dup1\n    /* \"MyERC721Market.sol\":598:614  erc721 = _erc721 */\n  0x0100\n  exp\n  dup2\n  sload\n  dup2\n  0xffffffffffffffffffffffffffffffffffffffff\n  mul\n  not\n  and\n  swap1\n  dup4\n  0xffffffffffffffffffffffffffffffffffffffff\n  and\n  mul\n  or\n  swap1\n  sstore\n  pop\n    /* \"MyERC721Market.sol\":633:639  _erc20 */\n  dup1\n    /* \"MyERC721Market.sol\":625:630  erc20 */\n  0x01\n  0x00\n    /* \"MyERC721Market.sol\":625:639  erc20 = _erc20 */\n  0x0100\n  exp\n  dup2\n  sload\n  dup2\n  0xffffffffffffffffffffffffffffffffffffffff\n  mul\n  not\n  and\n  swap1\n  dup4\n  0xffffffffffffffffffffffffffffffffffffffff\n  and\n  mul\n  or\n  swap1\n  sstore\n  pop\n    /* \"MyERC721Market.sol\":534:647  constructor(ERC721URIStorage _erc721, IERC20 _erc20) {... */\n  pop\n  pop\n    /* \"MyERC721Market.sol\":299:1404  contract MyERC721Market {... */\n  jump(tag_6)\n    /* \"#utility.yul\":88:205   */\ntag_8:\n    /* \"#utility.yul\":197:198   */\n  0x00\n    /* \"#utility.yul\":194:195   */\n  dup1\n    /* \"#utility.yul\":187:199   */\n  revert\n    /* \"#utility.yul\":334:460   */\ntag_10:\n    /* \"#utility.yul\":371:378   */\n  0x00\n    /* \"#utility.yul\":411:453   */\n  0xffffffffffffffffffffffffffffffffffffffff\n    /* \"#utility.yul\":404:409   */\n  dup3\n    /* \"#utility.yul\":400:454   */\n  and\n    /* \"#utility.yul\":389:454   */\n  swap1\n  pop\n    /* \"#utility.yul\":334:460   */\n  swap2\n  swap1\n  pop\n  jump\t// out\n    /* \"#utility.yul\":466:562   */\ntag_11:\n    /* \"#utility.yul\":503:510   */\n  0x00\n    /* \"#utility.yul\":532:556   */\n  tag_24\n    /* \"#utility.yul\":550:555   */\n  dup3\n    /* \"#utility.yul\":532:556   */\n  tag_10\n  jump\t// in\ntag_24:\n    /* \"#utility.yul\":521:556   */\n  swap1\n  pop\n    /* \"#utility.yul\":466:562   */\n  swap2\n  swap1\n  pop\n  jump\t// out\n    /* \"#utility.yul\":568:689   */\ntag_12:\n    /* \"#utility.yul\":630:637   */\n  0x00\n    /* \"#utility.yul\":659:683   */\n  tag_26\n    /* \"#utility.yul\":677:682   */\n  dup3\n    /* \"#utility.yul\":659:683   */\n  tag_11\n  jump\t// in\ntag_26:\n    /* \"#utility.yul\":648:683   */\n  swap1\n  pop\n    /* \"#utility.yul\":568:689   */\n  swap2\n  swap1\n  pop\n  jump\t// out\n    /* \"#utility.yul\":695:867   */\ntag_13:\n    /* \"#utility.yul\":793:842   */\n  tag_28\n    /* \"#utility.yul\":836:841   */\n  dup2\n    /* \"#utility.yul\":793:842   */\n  tag_12\n  jump\t// in\ntag_28:\n    /* \"#utility.yul\":786:791   */\n  dup2\n    /* \"#utility.yul\":783:843   */\n  eq\n    /* \"#utility.yul\":773:861   */\n  tag_29\n  jumpi\n    /* \"#utility.yul\":857:858   */\n  0x00\n    /* \"#utility.yul\":854:855   */\n  dup1\n    /* \"#utility.yul\":847:859   */\n  revert\n    /* \"#utility.yul\":773:861   */\ntag_29:\n    /* \"#utility.yul\":695:867   */\n  pop\n  jump\t// out\n    /* \"#utility.yul\":873:1066   */\ntag_14:\n    /* \"#utility.yul\":955:960   */\n  0x00\n    /* \"#utility.yul\":986:992   */\n  dup2\n    /* \"#utility.yul\":980:993   */\n  mload\n    /* \"#utility.yul\":971:993   */\n  swap1\n  pop\n    /* \"#utility.yul\":1002:1060   */\n  tag_31\n    /* \"#utility.yul\":1054:1059   */\n  dup2\n    /* \"#utility.yul\":1002:1060   */\n  tag_13\n  jump\t// in\ntag_31:\n    /* \"#utility.yul\":873:1066   */\n  swap3\n  swap2\n  pop\n  pop\n  jump\t// out\n    /* \"#utility.yul\":1072:1182   */\ntag_15:\n    /* \"#utility.yul\":1123:1130   */\n  0x00\n    /* \"#utility.yul\":1152:1176   */\n  tag_33\n    /* \"#utility.yul\":1170:1175   */\n  dup3\n    /* \"#utility.yul\":1152:1176   */\n  tag_11\n  jump\t// in\ntag_33:\n    /* \"#utility.yul\":1141:1176   */\n  swap1\n  pop\n    /* \"#utility.yul\":1072:1182   */\n  swap2\n  swap1\n  pop\n  jump\t// out\n    /* \"#utility.yul\":1188:1338   */\ntag_16:\n    /* \"#utility.yul\":1275:1313   */\n  tag_35\n    /* \"#utility.yul\":1307:1312   */\n  dup2\n    /* \"#utility.yul\":1275:1313   */\n  tag_15\n  jump\t// in\ntag_35:\n    /* \"#utility.yul\":1268:1273   */\n  dup2\n    /* \"#utility.yul\":1265:1314   */\n  eq\n    /* \"#utility.yul\":1255:1332   */\n  tag_36\n  jumpi\n    /* \"#utility.yul\":1328:1329   */\n  0x00\n    /* \"#utility.yul\":1325:1326   */\n  dup1\n    /* \"#utility.yul\":1318:1330   */\n  revert\n    /* \"#utility.yul\":1255:1332   */\ntag_36:\n    /* \"#utility.yul\":1188:1338   */\n  pop\n  jump\t// out\n    /* \"#utility.yul\":1344:1515   */\ntag_17:\n    /* \"#utility.yul\":1415:1420   */\n  0x00\n    /* \"#utility.yul\":1446:1452   */\n  dup2\n    /* \"#utility.yul\":1440:1453   */\n  mload\n    /* \"#utility.yul\":1431:1453   */\n  swap1\n  pop\n    /* \"#utility.yul\":1462:1509   */\n  tag_38\n    /* \"#utility.yul\":1503:1508   */\n  dup2\n    /* \"#utility.yul\":1462:1509   */\n  tag_16\n  jump\t// in\ntag_38:\n    /* \"#utility.yul\":1344:1515   */\n  swap3\n  swap2\n  pop\n  pop\n  jump\t// out\n    /* \"#utility.yul\":1521:2106   */\ntag_3:\n    /* \"#utility.yul\":1639:1645   */\n  0x00\n    /* \"#utility.yul\":1647:1653   */\n  dup1\n    /* \"#utility.yul\":1696:1698   */\n  0x40\n    /* \"#utility.yul\":1684:1693   */\n  dup4\n    /* \"#utility.yul\":1675:1682   */\n  dup6\n    /* \"#utility.yul\":1671:1694   */\n  sub\n    /* \"#utility.yul\":1667:1699   */\n  slt\n    /* \"#utility.yul\":1664:1783   */\n  iszero\n  tag_40\n  jumpi\n    /* \"#utility.yul\":1702:1781   */\n  tag_41\n  tag_8\n  jump\t// in\ntag_41:\n    /* \"#utility.yul\":1664:1783   */\ntag_40:\n    /* \"#utility.yul\":1822:1823   */\n  0x00\n    /* \"#utility.yul\":1847:1936   */\n  tag_42\n    /* \"#utility.yul\":1928:1935   */\n  dup6\n    /* \"#utility.yul\":1919:1925   */\n  dup3\n    /* \"#utility.yul\":1908:1917   */\n  dup7\n    /* \"#utility.yul\":1904:1926   */\n  add\n    /* \"#utility.yul\":1847:1936   */\n  tag_14\n  jump\t// in\ntag_42:\n    /* \"#utility.yul\":1837:1936   */\n  swap3\n  pop\n    /* \"#utility.yul\":1793:1946   */\n  pop\n    /* \"#utility.yul\":1985:1987   */\n  0x20\n    /* \"#utility.yul\":2011:2089   */\n  tag_43\n    /* \"#utility.yul\":2081:2088   */\n  dup6\n    /* \"#utility.yul\":2072:2078   */\n  dup3\n    /* \"#utility.yul\":2061:2070   */\n  dup7\n    /* \"#utility.yul\":2057:2079   */\n  add\n    /* \"#utility.yul\":2011:2089   */\n  tag_17\n  jump\t// in\ntag_43:\n    /* \"#utility.yul\":2001:2089   */\n  swap2\n  pop\n    /* \"#utility.yul\":1956:2099   */\n  pop\n    /* \"#utility.yul\":1521:2106   */\n  swap3\n  pop\n  swap3\n  swap1\n  pop\n  jump\t// out\n    /* \"MyERC721Market.sol\":299:1404  contract MyERC721Market {... */\ntag_6:\n  dataSize(sub_0)\n  dup1\n  dataOffset(sub_0)\n  0x00\n  codecopy\n  0x00\n  return\nstop\n\nsub_0: assembly {\n        /* \"MyERC721Market.sol\":299:1404  contract MyERC721Market {... */\n      mstore(0x40, 0x80)\n      callvalue\n      dup1\n      iszero\n      tag_1\n      jumpi\n      0x00\n      dup1\n      revert\n    tag_1:\n      pop\n      jumpi(tag_2, lt(calldatasize, 0x04))\n      shr(0xe0, calldataload(0x00))\n      dup1\n      0x1caaa487\n      eq\n      tag_3\n      jumpi\n      dup1\n      0x50fd7367\n      eq\n      tag_4\n      jumpi\n      dup1\n      0x51ed8288\n      eq\n      tag_5\n      jumpi\n      dup1\n      0x785e9e86\n      eq\n      tag_6\n      jumpi\n      dup1\n      0xbca6ce64\n      eq\n      tag_7\n      jumpi\n      dup1\n      0xd4ddce8a\n      eq\n      tag_8\n      jumpi\n    tag_2:\n      0x00\n      dup1\n      revert\n        /* \"MyERC721Market.sol\":480:525  mapping(uint256 => address) public tokenOwner */\n    tag_3:\n      tag_9\n      0x04\n      dup1\n      calldatasize\n      sub\n      dup2\n      add\n      swap1\n      tag_10\n      swap2\n      swap1\n      tag_11\n      jump\t// in\n    tag_10:\n      tag_12\n      jump\t// in\n    tag_9:\n      mload(0x40)\n      tag_13\n      swap2\n      swap1\n      tag_14\n      jump\t// in\n    tag_13:\n      mload(0x40)\n      dup1\n      swap2\n      sub\n      swap1\n      return\n        /* \"MyERC721Market.sol\":655:877  function list(uint256 _tokenId, uint256 _price) public {... */\n    tag_4:\n      tag_15\n      0x04\n      dup1\n      calldatasize\n      sub\n      dup2\n      add\n      swap1\n      tag_16\n      swap2\n      swap1\n      tag_17\n      jump\t// in\n    tag_16:\n      tag_18\n      jump\t// in\n    tag_15:\n      stop\n        /* \"MyERC721Market.sol\":885:1401  function buyNFT(uint256 _tokenId) public {... */\n    tag_5:\n      tag_19\n      0x04\n      dup1\n      calldatasize\n      sub\n      dup2\n      add\n      swap1\n      tag_20\n      swap2\n      swap1\n      tag_11\n      jump\t// in\n    tag_20:\n      tag_21\n      jump\t// in\n    tag_19:\n      stop\n        /* \"MyERC721Market.sol\":402:421  IERC20 public erc20 */\n    tag_6:\n      tag_22\n      tag_23\n      jump\t// in\n    tag_22:\n      mload(0x40)\n      tag_24\n      swap2\n      swap1\n      tag_25\n      jump\t// in\n    tag_24:\n      mload(0x40)\n      dup1\n      swap2\n      sub\n      swap1\n      return\n        /* \"MyERC721Market.sol\":365:395  ERC721URIStorage public erc721 */\n    tag_7:\n      tag_26\n      tag_27\n      jump\t// in\n    tag_26:\n      mload(0x40)\n      tag_28\n      swap2\n      swap1\n      tag_29\n      jump\t// in\n    tag_28:\n      mload(0x40)\n      dup1\n      swap2\n      sub\n      swap1\n      return\n        /* \"MyERC721Market.sol\":428:473  mapping(uint256 => uint256) public tokenPrice */\n    tag_8:\n      tag_30\n      0x04\n      dup1\n      calldatasize\n      sub\n      dup2\n      add\n      swap1\n      tag_31\n      swap2\n      swap1\n      tag_11\n      jump\t// in\n    tag_31:\n      tag_32\n      jump\t// in\n    tag_30:\n      mload(0x40)\n      tag_33\n      swap2\n      swap1\n      tag_34\n      jump\t// in\n    tag_33:\n      mload(0x40)\n      dup1\n      swap2\n      sub\n      swap1\n      return\n        /* \"MyERC721Market.sol\":480:525  mapping(uint256 => address) public tokenOwner */\n    tag_12:\n      mstore(0x20, 0x03)\n      dup1\n      0x00\n      mstore\n      keccak256(0x00, 0x40)\n      0x00\n      swap2\n      pop\n      sload\n      swap1\n      0x0100\n      exp\n      swap1\n      div\n      0xffffffffffffffffffffffffffffffffffffffff\n      and\n      dup2\n      jump\t// out\n        /* \"MyERC721Market.sol\":655:877  function list(uint256 _tokenId, uint256 _price) public {... */\n    tag_18:\n        /* \"MyERC721Market.sol\":757:767  msg.sender */\n      caller\n        /* \"MyERC721Market.sol\":729:767  erc721.ownerOf(_tokenId) == msg.sender */\n      0xffffffffffffffffffffffffffffffffffffffff\n      and\n        /* \"MyERC721Market.sol\":729:735  erc721 */\n      0x00\n      dup1\n      sload\n      swap1\n      0x0100\n      exp\n      swap1\n      div\n      0xffffffffffffffffffffffffffffffffffffffff\n      and\n        /* \"MyERC721Market.sol\":729:743  erc721.ownerOf */\n      0xffffffffffffffffffffffffffffffffffffffff\n      and\n      0x6352211e\n        /* \"MyERC721Market.sol\":744:752  _tokenId */\n      dup5\n        /* \"MyERC721Market.sol\":729:753  erc721.ownerOf(_tokenId) */\n      mload(0x40)\n      dup3\n      0xffffffff\n      and\n      0xe0\n      shl\n      dup2\n      mstore\n      0x04\n      add\n      tag_36\n      swap2\n      swap1\n      tag_34\n      jump\t// in\n    tag_36:\n      0x20\n      mload(0x40)\n      dup1\n      dup4\n      sub\n      dup2\n      dup7\n      gas\n      staticcall\n      iszero\n      dup1\n      iszero\n      tag_38\n      jumpi\n      returndatasize\n      0x00\n      dup1\n      returndatacopy\n      revert(0x00, returndatasize)\n    tag_38:\n      pop\n      pop\n      pop\n      pop\n      mload(0x40)\n      returndatasize\n      not(0x1f)\n      0x1f\n      dup3\n      add\n      and\n      dup3\n      add\n      dup1\n      0x40\n      mstore\n      pop\n      dup2\n      add\n      swap1\n      tag_39\n      swap2\n      swap1\n      tag_40\n      jump\t// in\n    tag_39:\n        /* \"MyERC721Market.sol\":729:767  erc721.ownerOf(_tokenId) == msg.sender */\n      0xffffffffffffffffffffffffffffffffffffffff\n      and\n      eq\n        /* \"MyERC721Market.sol\":721:785  require(erc721.ownerOf(_tokenId) == msg.sender, \"not NFT owner\") */\n      tag_41\n      jumpi\n      mload(0x40)\n      0x08c379a000000000000000000000000000000000000000000000000000000000\n      dup2\n      mstore\n      0x04\n      add\n      tag_42\n      swap1\n      tag_43\n      jump\t// in\n    tag_42:\n      mload(0x40)\n      dup1\n      swap2\n      sub\n      swap1\n      revert\n    tag_41:\n        /* \"MyERC721Market.sol\":819:825  _price */\n      dup1\n        /* \"MyERC721Market.sol\":796:806  tokenPrice */\n      0x02\n        /* \"MyERC721Market.sol\":796:816  tokenPrice[_tokenId] */\n      0x00\n        /* \"MyERC721Market.sol\":807:815  _tokenId */\n      dup5\n        /* \"MyERC721Market.sol\":796:816  tokenPrice[_tokenId] */\n      dup2\n      mstore\n      0x20\n      add\n      swap1\n      dup2\n      mstore\n      0x20\n      add\n      0x00\n      keccak256\n        /* \"MyERC721Market.sol\":796:825  tokenPrice[_tokenId] = _price */\n      dup2\n      swap1\n      sstore\n      pop\n        /* \"MyERC721Market.sol\":859:869  msg.sender */\n      caller\n        /* \"MyERC721Market.sol\":836:846  tokenOwner */\n      0x03\n        /* \"MyERC721Market.sol\":836:856  tokenOwner[_tokenId] */\n      0x00\n        /* \"MyERC721Market.sol\":847:855  _tokenId */\n      dup5\n        /* \"MyERC721Market.sol\":836:856  tokenOwner[_tokenId] */\n      dup2\n      mstore\n      0x20\n      add\n      swap1\n      dup2\n      mstore\n      0x20\n      add\n      0x00\n      keccak256\n      0x00\n        /* \"MyERC721Market.sol\":836:869  tokenOwner[_tokenId] = msg.sender */\n      0x0100\n      exp\n      dup2\n      sload\n      dup2\n      0xffffffffffffffffffffffffffffffffffffffff\n      mul\n      not\n      and\n      swap1\n      dup4\n      0xffffffffffffffffffffffffffffffffffffffff\n      and\n      mul\n      or\n      swap1\n      sstore\n      pop\n        /* \"MyERC721Market.sol\":655:877  function list(uint256 _tokenId, uint256 _price) public {... */\n      pop\n      pop\n      jump\t// out\n        /* \"MyERC721Market.sol\":885:1401  function buyNFT(uint256 _tokenId) public {... */\n    tag_21:\n        /* \"MyERC721Market.sol\":937:953  uint256 nftPrice */\n      0x00\n        /* \"MyERC721Market.sol\":956:966  tokenPrice */\n      0x02\n        /* \"MyERC721Market.sol\":956:976  tokenPrice[_tokenId] */\n      0x00\n        /* \"MyERC721Market.sol\":967:975  _tokenId */\n      dup4\n        /* \"MyERC721Market.sol\":956:976  tokenPrice[_tokenId] */\n      dup2\n      mstore\n      0x20\n      add\n      swap1\n      dup2\n      mstore\n      0x20\n      add\n      0x00\n      keccak256\n      sload\n        /* \"MyERC721Market.sol\":937:976  uint256 nftPrice = tokenPrice[_tokenId] */\n      swap1\n      pop\n        /* \"MyERC721Market.sol\":987:1003  address nftOwner */\n      0x00\n        /* \"MyERC721Market.sol\":1006:1016  tokenOwner */\n      0x03\n        /* \"MyERC721Market.sol\":1006:1026  tokenOwner[_tokenId] */\n      0x00\n        /* \"MyERC721Market.sol\":1017:1025  _tokenId */\n      dup5\n        /* \"MyERC721Market.sol\":1006:1026  tokenOwner[_tokenId] */\n      dup2\n      mstore\n      0x20\n      add\n      swap1\n      dup2\n      mstore\n      0x20\n      add\n      0x00\n      keccak256\n      0x00\n      swap1\n      sload\n      swap1\n      0x0100\n      exp\n      swap1\n      div\n      0xffffffffffffffffffffffffffffffffffffffff\n      and\n        /* \"MyERC721Market.sol\":987:1026  address nftOwner = tokenOwner[_tokenId] */\n      swap1\n      pop\n        /* \"MyERC721Market.sol\":1056:1057  0 */\n      0x00\n        /* \"MyERC721Market.sol\":1045:1053  nftPrice */\n      dup3\n        /* \"MyERC721Market.sol\":1045:1057  nftPrice > 0 */\n      gt\n        /* \"MyERC721Market.sol\":1045:1083  nftPrice > 0 && nftOwner != address(0) */\n      dup1\n      iszero\n      tag_45\n      jumpi\n      pop\n        /* \"MyERC721Market.sol\":1081:1082  0 */\n      0x00\n        /* \"MyERC721Market.sol\":1061:1083  nftOwner != address(0) */\n      0xffffffffffffffffffffffffffffffffffffffff\n      and\n        /* \"MyERC721Market.sol\":1061:1069  nftOwner */\n      dup2\n        /* \"MyERC721Market.sol\":1061:1083  nftOwner != address(0) */\n      0xffffffffffffffffffffffffffffffffffffffff\n      and\n      eq\n      iszero\n        /* \"MyERC721Market.sol\":1045:1083  nftPrice > 0 && nftOwner != address(0) */\n    tag_45:\n        /* \"MyERC721Market.sol\":1037:1100  require(nftPrice > 0 && nftOwner != address(0), \"NFT not list\") */\n      tag_46\n      jumpi\n      mload(0x40)\n      0x08c379a000000000000000000000000000000000000000000000000000000000\n      dup2\n      mstore\n      0x04\n      add\n      tag_47\n      swap1\n      tag_48\n      jump\t// in\n    tag_47:\n      mload(0x40)\n      dup1\n      swap2\n      sub\n      swap1\n      revert\n    tag_46:\n        /* \"MyERC721Market.sol\":1150:1158  nftPrice */\n      dup2\n        /* \"MyERC721Market.sol\":1119:1124  erc20 */\n      0x01\n      0x00\n      swap1\n      sload\n      swap1\n      0x0100\n      exp\n      swap1\n      div\n      0xffffffffffffffffffffffffffffffffffffffff\n      and\n        /* \"MyERC721Market.sol\":1119:1134  erc20.balanceOf */\n      0xffffffffffffffffffffffffffffffffffffffff\n      and\n      0x70a08231\n        /* \"MyERC721Market.sol\":1135:1145  msg.sender */\n      caller\n        /* \"MyERC721Market.sol\":1119:1146  erc20.balanceOf(msg.sender) */\n      mload(0x40)\n      dup3\n      0xffffffff\n      and\n      0xe0\n      shl\n      dup2\n      mstore\n      0x04\n      add\n      tag_49\n      swap2\n      swap1\n      tag_14\n      jump\t// in\n    tag_49:\n      0x20\n      mload(0x40)\n      dup1\n      dup4\n      sub\n      dup2\n      dup7\n      gas\n      staticcall\n      iszero\n      dup1\n      iszero\n      tag_51\n      jumpi\n      returndatasize\n      0x00\n      dup1\n      returndatacopy\n      revert(0x00, returndatasize)\n    tag_51:\n      pop\n      pop\n      pop\n      pop\n      mload(0x40)\n      returndatasize\n      not(0x1f)\n      0x1f\n      dup3\n      add\n      and\n      dup3\n      add\n      dup1\n      0x40\n      mstore\n      pop\n      dup2\n      add\n      swap1\n      tag_52\n      swap2\n      swap1\n      tag_53\n      jump\t// in\n    tag_52:\n        /* \"MyERC721Market.sol\":1119:1158  erc20.balanceOf(msg.sender) >= nftPrice */\n      lt\n      iszero\n        /* \"MyERC721Market.sol\":1111:1183  require(erc20.balanceOf(msg.sender) >= nftPrice, \"insufficient balance\") */\n      tag_54\n      jumpi\n      mload(0x40)\n      0x08c379a000000000000000000000000000000000000000000000000000000000\n      dup2\n      mstore\n      0x04\n      add\n      tag_55\n      swap1\n      tag_56\n      jump\t// in\n    tag_55:\n      mload(0x40)\n      dup1\n      swap2\n      sub\n      swap1\n      revert\n    tag_54:\n        /* \"MyERC721Market.sol\":1194:1248  erc20.safeTransferFrom(msg.sender, nftOwner, nftPrice) */\n      tag_57\n        /* \"MyERC721Market.sol\":1217:1227  msg.sender */\n      caller\n        /* \"MyERC721Market.sol\":1229:1237  nftOwner */\n      dup3\n        /* \"MyERC721Market.sol\":1239:1247  nftPrice */\n      dup5\n        /* \"MyERC721Market.sol\":1194:1199  erc20 */\n      0x01\n      0x00\n      swap1\n      sload\n      swap1\n      0x0100\n      exp\n      swap1\n      div\n      0xffffffffffffffffffffffffffffffffffffffff\n      and\n        /* \"MyERC721Market.sol\":1194:1216  erc20.safeTransferFrom */\n      0xffffffffffffffffffffffffffffffffffffffff\n      and\n      tag_58\n      swap1\n        /* \"MyERC721Market.sol\":1194:1248  erc20.safeTransferFrom(msg.sender, nftOwner, nftPrice) */\n      swap4\n      swap3\n      swap2\n      swap1\n      0xffffffff\n      and\n      jump\t// in\n    tag_57:\n        /* \"MyERC721Market.sol\":1259:1265  erc721 */\n      0x00\n      dup1\n      sload\n      swap1\n      0x0100\n      exp\n      swap1\n      div\n      0xffffffffffffffffffffffffffffffffffffffff\n      and\n        /* \"MyERC721Market.sol\":1259:1282  erc721.safeTransferFrom */\n      0xffffffffffffffffffffffffffffffffffffffff\n      and\n      0x42842e0e\n        /* \"MyERC721Market.sol\":1283:1291  nftOwner */\n      dup3\n        /* \"MyERC721Market.sol\":1293:1303  msg.sender */\n      caller\n        /* \"MyERC721Market.sol\":1305:1313  _tokenId */\n      dup7\n        /* \"MyERC721Market.sol\":1259:1314  erc721.safeTransferFrom(nftOwner, msg.sender, _tokenId) */\n      mload(0x40)\n      dup5\n      0xffffffff\n      and\n      0xe0\n      shl\n      dup2\n      mstore\n      0x04\n      add\n      tag_59\n      swap4\n      swap3\n      swap2\n      swap1\n      tag_60\n      jump\t// in\n    tag_59:\n      0x00\n      mload(0x40)\n      dup1\n      dup4\n      sub\n      dup2\n      0x00\n      dup8\n      dup1\n      extcodesize\n      iszero\n      dup1\n      iszero\n      tag_61\n      jumpi\n      0x00\n      dup1\n      revert\n    tag_61:\n      pop\n      gas\n      call\n      iszero\n      dup1\n      iszero\n      tag_63\n      jumpi\n      returndatasize\n      0x00\n      dup1\n      returndatacopy\n      revert(0x00, returndatasize)\n    tag_63:\n      pop\n      pop\n      pop\n      pop\n        /* \"MyERC721Market.sol\":1348:1349  0 */\n      0x00\n        /* \"MyERC721Market.sol\":1325:1335  tokenPrice */\n      0x02\n        /* \"MyERC721Market.sol\":1325:1345  tokenPrice[_tokenId] */\n      0x00\n        /* \"MyERC721Market.sol\":1336:1344  _tokenId */\n      dup6\n        /* \"MyERC721Market.sol\":1325:1345  tokenPrice[_tokenId] */\n      dup2\n      mstore\n      0x20\n      add\n      swap1\n      dup2\n      mstore\n      0x20\n      add\n      0x00\n      keccak256\n        /* \"MyERC721Market.sol\":1325:1349  tokenPrice[_tokenId] = 0 */\n      dup2\n      swap1\n      sstore\n      pop\n        /* \"MyERC721Market.sol\":1391:1392  0 */\n      0x00\n        /* \"MyERC721Market.sol\":1360:1370  tokenOwner */\n      0x03\n        /* \"MyERC721Market.sol\":1360:1380  tokenOwner[_tokenId] */\n      0x00\n        /* \"MyERC721Market.sol\":1371:1379  _tokenId */\n      dup6\n        /* \"MyERC721Market.sol\":1360:1380  tokenOwner[_tokenId] */\n      dup2\n      mstore\n      0x20\n      add\n      swap1\n      dup2\n      mstore\n      0x20\n      add\n      0x00\n      keccak256\n      0x00\n        /* \"MyERC721Market.sol\":1360:1393  tokenOwner[_tokenId] = address(0) */\n      0x0100\n      exp\n      dup2\n      sload\n      dup2\n      0xffffffffffffffffffffffffffffffffffffffff\n      mul\n      not\n      and\n      swap1\n      dup4\n      0xffffffffffffffffffffffffffffffffffffffff\n      and\n      mul\n      or\n      swap1\n      sstore\n      pop\n        /* \"MyERC721Market.sol\":926:1401  {... */\n      pop\n      pop\n        /* \"MyERC721Market.sol\":885:1401  function buyNFT(uint256 _tokenId) public {... */\n      pop\n      jump\t// out\n        /* \"MyERC721Market.sol\":402:421  IERC20 public erc20 */\n    tag_23:\n      0x01\n      0x00\n      swap1\n      sload\n      swap1\n      0x0100\n      exp\n      swap1\n      div\n      0xffffffffffffffffffffffffffffffffffffffff\n      and\n      dup2\n      jump\t// out\n        /* \"MyERC721Market.sol\":365:395  ERC721URIStorage public erc721 */\n    tag_27:\n      0x00\n      dup1\n      sload\n      swap1\n      0x0100\n      exp\n      swap1\n      div\n      0xffffffffffffffffffffffffffffffffffffffff\n      and\n      dup2\n      jump\t// out\n        /* \"MyERC721Market.sol\":428:473  mapping(uint256 => uint256) public tokenPrice */\n    tag_32:\n      mstore(0x20, 0x02)\n      dup1\n      0x00\n      mstore\n      keccak256(0x00, 0x40)\n      0x00\n      swap2\n      pop\n      swap1\n      pop\n      sload\n      dup2\n      jump\t// out\n        /* \"@openzeppelin/contracts/token/ERC20/utils/SafeERC20.sol\":1702:1890  function safeTransferFrom(IERC20 token, address from, address to, uint256 value) internal {... */\n    tag_58:\n        /* \"@openzeppelin/contracts/token/ERC20/utils/SafeERC20.sol\":1802:1883  _callOptionalReturn(token, abi.encodeCall(token.transferFrom, (from, to, value))) */\n      tag_65\n        /* \"@openzeppelin/contracts/token/ERC20/utils/SafeERC20.sol\":1822:1827  token */\n      dup5\n        /* \"@openzeppelin/contracts/token/ERC20/utils/SafeERC20.sol\":1844:1849  token */\n      dup6\n        /* \"@openzeppelin/contracts/token/ERC20/utils/SafeERC20.sol\":1844:1862  token.transferFrom */\n      0xffffffffffffffffffffffffffffffffffffffff\n      and\n      0x23b872dd\n        /* \"@openzeppelin/contracts/token/ERC20/utils/SafeERC20.sol\":1865:1869  from */\n      dup7\n        /* \"@openzeppelin/contracts/token/ERC20/utils/SafeERC20.sol\":1871:1873  to */\n      dup7\n        /* \"@openzeppelin/contracts/token/ERC20/utils/SafeERC20.sol\":1875:1880  value */\n      dup7\n        /* \"@openzeppelin/contracts/token/ERC20/utils/SafeERC20.sol\":1829:1882  abi.encodeCall(token.transferFrom, (from, to, value)) */\n      add(0x24, mload(0x40))\n      tag_66\n      swap4\n      swap3\n      swap2\n      swap1\n      tag_60\n      jump\t// in\n    tag_66:\n      mload(0x40)\n      0x20\n      dup2\n      dup4\n      sub\n      sub\n      dup2\n      mstore\n      swap1\n      0x40\n      mstore\n      swap2\n      pop\n      0xe0\n      shl\n      0x20\n      dup3\n      add\n      dup1\n      mload\n      0xffffffffffffffffffffffffffffffffffffffffffffffffffffffff\n      dup4\n      dup2\n      dup4\n      and\n      or\n      dup4\n      mstore\n      pop\n      pop\n      pop\n      pop\n        /* \"@openzeppelin/contracts/token/ERC20/utils/SafeERC20.sol\":1802:1821  _callOptionalReturn */\n      tag_67\n        /* \"@openzeppelin/contracts/token/ERC20/utils/SafeERC20.sol\":1802:1883  _callOptionalReturn(token, abi.encodeCall(token.transferFrom, (from, to, value))) */\n      jump\t// in\n    tag_65:\n        /* \"@openzeppelin/contracts/token/ERC20/utils/SafeERC20.sol\":1702:1890  function safeTransferFrom(IERC20 token, address from, address to, uint256 value) internal {... */\n      pop\n      pop\n      pop\n      pop\n      jump\t// out\n        /* \"@openzeppelin/contracts/token/ERC20/utils/SafeERC20.sol\":4059:4688  function _callOptionalReturn(IERC20 token, bytes memory data) private {... */\n    tag_67:\n        /* \"@openzeppelin/contracts/token/ERC20/utils/SafeERC20.sol\":4478:4501  bytes memory returndata */\n      0x00\n        /* \"@openzeppelin/contracts/token/ERC20/utils/SafeERC20.sol\":4504:4537  address(token).functionCall(data) */\n      tag_69\n        /* \"@openzeppelin/contracts/token/ERC20/utils/SafeERC20.sol\":4532:4536  data */\n      dup3\n        /* \"@openzeppelin/contracts/token/ERC20/utils/SafeERC20.sol\":4512:4517  token */\n      dup5\n        /* \"@openzeppelin/contracts/token/ERC20/utils/SafeERC20.sol\":4504:4531  address(token).functionCall */\n      0xffffffffffffffffffffffffffffffffffffffff\n      and\n      tag_70\n      swap1\n        /* \"@openzeppelin/contracts/token/ERC20/utils/SafeERC20.sol\":4504:4537  address(token).functionCall(data) */\n      swap2\n      swap1\n      0xffffffff\n      and\n      jump\t// in\n    tag_69:\n        /* \"@openzeppelin/contracts/token/ERC20/utils/SafeERC20.sol\":4478:4537  bytes memory returndata = address(token).functionCall(data) */\n      swap1\n      pop\n        /* \"@openzeppelin/contracts/token/ERC20/utils/SafeERC20.sol\":4572:4573  0 */\n      0x00\n        /* \"@openzeppelin/contracts/token/ERC20/utils/SafeERC20.sol\":4551:4561  returndata */\n      dup2\n        /* \"@openzeppelin/contracts/token/ERC20/utils/SafeERC20.sol\":4551:4568  returndata.length */\n      mload\n        /* \"@openzeppelin/contracts/token/ERC20/utils/SafeERC20.sol\":4551:4573  returndata.length != 0 */\n      eq\n      iszero\n        /* \"@openzeppelin/contracts/token/ERC20/utils/SafeERC20.sol\":4551:4608  returndata.length != 0 && !abi.decode(returndata, (bool)) */\n      dup1\n      iszero\n      tag_71\n      jumpi\n      pop\n        /* \"@openzeppelin/contracts/token/ERC20/utils/SafeERC20.sol\":4589:4599  returndata */\n      dup1\n        /* \"@openzeppelin/contracts/token/ERC20/utils/SafeERC20.sol\":4578:4608  abi.decode(returndata, (bool)) */\n      dup1\n      0x20\n      add\n      swap1\n      mload\n      dup2\n      add\n      swap1\n      tag_72\n      swap2\n      swap1\n      tag_73\n      jump\t// in\n    tag_72:\n        /* \"@openzeppelin/contracts/token/ERC20/utils/SafeERC20.sol\":4577:4608  !abi.decode(returndata, (bool)) */\n      iszero\n        /* \"@openzeppelin/contracts/token/ERC20/utils/SafeERC20.sol\":4551:4608  returndata.length != 0 && !abi.decode(returndata, (bool)) */\n    tag_71:\n        /* \"@openzeppelin/contracts/token/ERC20/utils/SafeERC20.sol\":4547:4682  if (returndata.length != 0 && !abi.decode(returndata, (bool))) {... */\n      iszero\n      tag_74\n      jumpi\n        /* \"@openzeppelin/contracts/token/ERC20/utils/SafeERC20.sol\":4664:4669  token */\n      dup3\n        /* \"@openzeppelin/contracts/token/ERC20/utils/SafeERC20.sol\":4631:4671  SafeERC20FailedOperation(address(token)) */\n      mload(0x40)\n      0x5274afe700000000000000000000000000000000000000000000000000000000\n      dup2\n      mstore\n      0x04\n      add\n      tag_75\n      swap2\n      swap1\n      tag_14\n      jump\t// in\n    tag_75:\n      mload(0x40)\n      dup1\n      swap2\n      sub\n      swap1\n      revert\n        /* \"@openzeppelin/contracts/token/ERC20/utils/SafeERC20.sol\":4547:4682  if (returndata.length != 0 && !abi.decode(returndata, (bool))) {... */\n    tag_74:\n        /* \"@openzeppelin/contracts/token/ERC20/utils/SafeERC20.sol\":4129:4688  {... */\n      pop\n        /* \"@openzeppelin/contracts/token/ERC20/utils/SafeERC20.sol\":4059:4688  function _callOptionalReturn(IERC20 token, bytes memory data) private {... */\n      pop\n      pop\n      jump\t// out\n        /* \"@openzeppelin/contracts/utils/Address.sol\":2705:2856  function functionCall(address target, bytes memory data) internal returns (bytes memory) {... */\n    tag_70:\n        /* \"@openzeppelin/contracts/utils/Address.sol\":2780:2792  bytes memory */\n      0x60\n        /* \"@openzeppelin/contracts/utils/Address.sol\":2811:2849  functionCallWithValue(target, data, 0) */\n      tag_77\n        /* \"@openzeppelin/contracts/utils/Address.sol\":2833:2839  target */\n      dup4\n        /* \"@openzeppelin/contracts/utils/Address.sol\":2841:2845  data */\n      dup4\n        /* \"@openzeppelin/contracts/utils/Address.sol\":2847:2848  0 */\n      0x00\n        /* \"@openzeppelin/contracts/utils/Address.sol\":2811:2832  functionCallWithValue */\n      tag_78\n        /* \"@openzeppelin/contracts/utils/Address.sol\":2811:2849  functionCallWithValue(target, data, 0) */\n      jump\t// in\n    tag_77:\n        /* \"@openzeppelin/contracts/utils/Address.sol\":2804:2849  return functionCallWithValue(target, data, 0) */\n      swap1\n      pop\n        /* \"@openzeppelin/contracts/utils/Address.sol\":2705:2856  function functionCall(address target, bytes memory data) internal returns (bytes memory) {... */\n      swap3\n      swap2\n      pop\n      pop\n      jump\t// out\n        /* \"@openzeppelin/contracts/utils/Address.sol\":3180:3572  function functionCallWithValue(address target, bytes memory data, uint256 value) internal returns (bytes memory) {... */\n    tag_78:\n        /* \"@openzeppelin/contracts/utils/Address.sol\":3279:3291  bytes memory */\n      0x60\n        /* \"@openzeppelin/contracts/utils/Address.sol\":3331:3336  value */\n      dup2\n        /* \"@openzeppelin/contracts/utils/Address.sol\":3307:3328  address(this).balance */\n      selfbalance\n        /* \"@openzeppelin/contracts/utils/Address.sol\":3307:3336  address(this).balance < value */\n      lt\n        /* \"@openzeppelin/contracts/utils/Address.sol\":3303:3411  if (address(this).balance < value) {... */\n      iszero\n      tag_80\n      jumpi\n        /* \"@openzeppelin/contracts/utils/Address.sol\":3394:3398  this */\n      address\n        /* \"@openzeppelin/contracts/utils/Address.sol\":3359:3400  AddressInsufficientBalance(address(this)) */\n      mload(0x40)\n      0xcd78605900000000000000000000000000000000000000000000000000000000\n      dup2\n      mstore\n      0x04\n      add\n      tag_81\n      swap2\n      swap1\n      tag_14\n      jump\t// in\n    tag_81:\n      mload(0x40)\n      dup1\n      swap2\n      sub\n      swap1\n      revert\n        /* \"@openzeppelin/contracts/utils/Address.sol\":3303:3411  if (address(this).balance < value) {... */\n    tag_80:\n        /* \"@openzeppelin/contracts/utils/Address.sol\":3421:3433  bool success */\n      0x00\n        /* \"@openzeppelin/contracts/utils/Address.sol\":3435:3458  bytes memory returndata */\n      dup1\n        /* \"@openzeppelin/contracts/utils/Address.sol\":3462:3468  target */\n      dup6\n        /* \"@openzeppelin/contracts/utils/Address.sol\":3462:3473  target.call */\n      0xffffffffffffffffffffffffffffffffffffffff\n      and\n        /* \"@openzeppelin/contracts/utils/Address.sol\":3481:3486  value */\n      dup5\n        /* \"@openzeppelin/contracts/utils/Address.sol\":3488:3492  data */\n      dup7\n        /* \"@openzeppelin/contracts/utils/Address.sol\":3462:3493  target.call{value: value}(data) */\n      mload(0x40)\n      tag_82\n      swap2\n      swap1\n      tag_83\n      jump\t// in\n    tag_82:\n      0x00\n      mload(0x40)\n      dup1\n      dup4\n      sub\n      dup2\n      dup6\n      dup8\n      gas\n      call\n      swap3\n      pop\n      pop\n      pop\n      returndatasize\n      dup1\n      0x00\n      dup2\n      eq\n      tag_86\n      jumpi\n      mload(0x40)\n      swap2\n      pop\n      and(add(returndatasize, 0x3f), not(0x1f))\n      dup3\n      add\n      0x40\n      mstore\n      returndatasize\n      dup3\n      mstore\n      returndatasize\n      0x00\n      0x20\n      dup5\n      add\n      returndatacopy\n      jump(tag_85)\n    tag_86:\n      0x60\n      swap2\n      pop\n    tag_85:\n      pop\n        /* \"@openzeppelin/contracts/utils/Address.sol\":3420:3493  (bool success, bytes memory returndata) = target.call{value: value}(data) */\n      swap2\n      pop\n      swap2\n      pop\n        /* \"@openzeppelin/contracts/utils/Address.sol\":3510:3565  verifyCallResultFromTarget(target, success, returndata) */\n      tag_87\n        /* \"@openzeppelin/contracts/utils/Address.sol\":3537:3543  target */\n      dup7\n        /* \"@openzeppelin/contracts/utils/Address.sol\":3545:3552  success */\n      dup4\n        /* \"@openzeppelin/contracts/utils/Address.sol\":3554:3564  returndata */\n      dup4\n        /* \"@openzeppelin/contracts/utils/Address.sol\":3510:3536  verifyCallResultFromTarget */\n      tag_88\n        /* \"@openzeppelin/contracts/utils/Address.sol\":3510:3565  verifyCallResultFromTarget(target, success, returndata) */\n      jump\t// in\n    tag_87:\n        /* \"@openzeppelin/contracts/utils/Address.sol\":3503:3565  return verifyCallResultFromTarget(target, success, returndata) */\n      swap3\n      pop\n      pop\n      pop\n        /* \"@openzeppelin/contracts/utils/Address.sol\":3180:3572  function functionCallWithValue(address target, bytes memory data, uint256 value) internal returns (bytes memory) {... */\n      swap4\n      swap3\n      pop\n      pop\n      pop\n      jump\t// out\n        /* \"@openzeppelin/contracts/utils/Address.sol\":4625:5207  function verifyCallResultFromTarget(... */\n    tag_88:\n        /* \"@openzeppelin/contracts/utils/Address.sol\":4769:4781  bytes memory */\n      0x60\n        /* \"@openzeppelin/contracts/utils/Address.sol\":4798:4805  success */\n      dup3\n        /* \"@openzeppelin/contracts/utils/Address.sol\":4793:5201  if (!success) {... */\n      tag_90\n      jumpi\n        /* \"@openzeppelin/contracts/utils/Address.sol\":4821:4840  _revert(returndata) */\n      tag_91\n        /* \"@openzeppelin/contracts/utils/Address.sol\":4829:4839  returndata */\n      dup3\n        /* \"@openzeppelin/contracts/utils/Address.sol\":4821:4828  _revert */\n      tag_92\n        /* \"@openzeppelin/contracts/utils/Address.sol\":4821:4840  _revert(returndata) */\n      jump\t// in\n    tag_91:\n        /* \"@openzeppelin/contracts/utils/Address.sol\":4793:5201  if (!success) {... */\n      jump(tag_93)\n    tag_90:\n        /* \"@openzeppelin/contracts/utils/Address.sol\":5066:5067  0 */\n      0x00\n        /* \"@openzeppelin/contracts/utils/Address.sol\":5045:5055  returndata */\n      dup3\n        /* \"@openzeppelin/contracts/utils/Address.sol\":5045:5062  returndata.length */\n      mload\n        /* \"@openzeppelin/contracts/utils/Address.sol\":5045:5067  returndata.length == 0 */\n      eq\n        /* \"@openzeppelin/contracts/utils/Address.sol\":5045:5094  returndata.length == 0 && target.code.length == 0 */\n      dup1\n      iszero\n      tag_94\n      jumpi\n      pop\n        /* \"@openzeppelin/contracts/utils/Address.sol\":5093:5094  0 */\n      0x00\n        /* \"@openzeppelin/contracts/utils/Address.sol\":5071:5077  target */\n      dup5\n        /* \"@openzeppelin/contracts/utils/Address.sol\":5071:5089  target.code.length */\n      0xffffffffffffffffffffffffffffffffffffffff\n      and\n      extcodesize\n        /* \"@openzeppelin/contracts/utils/Address.sol\":5071:5094  target.code.length == 0 */\n      eq\n        /* \"@openzeppelin/contracts/utils/Address.sol\":5045:5094  returndata.length == 0 && target.code.length == 0 */\n    tag_94:\n        /* \"@openzeppelin/contracts/utils/Address.sol\":5041:5160  if (returndata.length == 0 && target.code.length == 0) {... */\n      iszero\n      tag_95\n      jumpi\n        /* \"@openzeppelin/contracts/utils/Address.sol\":5138:5144  target */\n      dup4\n        /* \"@openzeppelin/contracts/utils/Address.sol\":5121:5145  AddressEmptyCode(target) */\n      mload(0x40)\n      0x9996b31500000000000000000000000000000000000000000000000000000000\n      dup2\n      mstore\n      0x04\n      add\n      tag_96\n      swap2\n      swap1\n      tag_14\n      jump\t// in\n    tag_96:\n      mload(0x40)\n      dup1\n      swap2\n      sub\n      swap1\n      revert\n        /* \"@openzeppelin/contracts/utils/Address.sol\":5041:5160  if (returndata.length == 0 && target.code.length == 0) {... */\n    tag_95:\n        /* \"@openzeppelin/contracts/utils/Address.sol\":5180:5190  returndata */\n      dup2\n        /* \"@openzeppelin/contracts/utils/Address.sol\":5173:5190  return returndata */\n      swap1\n      pop\n      jump(tag_89)\n        /* \"@openzeppelin/contracts/utils/Address.sol\":4793:5201  if (!success) {... */\n    tag_93:\n        /* \"@openzeppelin/contracts/utils/Address.sol\":4625:5207  function verifyCallResultFromTarget(... */\n    tag_89:\n      swap4\n      swap3\n      pop\n      pop\n      pop\n      jump\t// out\n        /* \"@openzeppelin/contracts/utils/Address.sol\":5743:6259  function _revert(bytes memory returndata) private pure {... */\n    tag_92:\n        /* \"@openzeppelin/contracts/utils/Address.sol\":5894:5895  0 */\n      0x00\n        /* \"@openzeppelin/contracts/utils/Address.sol\":5874:5884  returndata */\n      dup2\n        /* \"@openzeppelin/contracts/utils/Address.sol\":5874:5891  returndata.length */\n      mload\n        /* \"@openzeppelin/contracts/utils/Address.sol\":5874:5895  returndata.length > 0 */\n      gt\n        /* \"@openzeppelin/contracts/utils/Address.sol\":5870:6253  if (returndata.length > 0) {... */\n      iszero\n      tag_98\n      jumpi\n        /* \"@openzeppelin/contracts/utils/Address.sol\":6102:6112  returndata */\n      dup1\n        /* \"@openzeppelin/contracts/utils/Address.sol\":6096:6113  mload(returndata) */\n      mload\n        /* \"@openzeppelin/contracts/utils/Address.sol\":6158:6173  returndata_size */\n      dup1\n        /* \"@openzeppelin/contracts/utils/Address.sol\":6145:6155  returndata */\n      dup3\n        /* \"@openzeppelin/contracts/utils/Address.sol\":6141:6143  32 */\n      0x20\n        /* \"@openzeppelin/contracts/utils/Address.sol\":6137:6156  add(32, returndata) */\n      add\n        /* \"@openzeppelin/contracts/utils/Address.sol\":6130:6174  revert(add(32, returndata), returndata_size) */\n      revert\n        /* \"@openzeppelin/contracts/utils/Address.sol\":5870:6253  if (returndata.length > 0) {... */\n    tag_98:\n        /* \"@openzeppelin/contracts/utils/Address.sol\":6225:6242  FailedInnerCall() */\n      mload(0x40)\n      0x1425ea4200000000000000000000000000000000000000000000000000000000\n      dup2\n      mstore\n      0x04\n      add\n      mload(0x40)\n      dup1\n      swap2\n      sub\n      swap1\n      revert\n        /* \"#utility.yul\":88:205   */\n    tag_101:\n        /* \"#utility.yul\":197:198   */\n      0x00\n        /* \"#utility.yul\":194:195   */\n      dup1\n        /* \"#utility.yul\":187:199   */\n      revert\n        /* \"#utility.yul\":334:411   */\n    tag_103:\n        /* \"#utility.yul\":371:378   */\n      0x00\n        /* \"#utility.yul\":400:405   */\n      dup2\n        /* \"#utility.yul\":389:405   */\n      swap1\n      pop\n        /* \"#utility.yul\":334:411   */\n      swap2\n      swap1\n      pop\n      jump\t// out\n        /* \"#utility.yul\":417:539   */\n    tag_104:\n        /* \"#utility.yul\":490:514   */\n      tag_140\n        /* \"#utility.yul\":508:513   */\n      dup2\n        /* \"#utility.yul\":490:514   */\n      tag_103\n      jump\t// in\n    tag_140:\n        /* \"#utility.yul\":483:488   */\n      dup2\n        /* \"#utility.yul\":480:515   */\n      eq\n        /* \"#utility.yul\":470:533   */\n      tag_141\n      jumpi\n        /* \"#utility.yul\":529:530   */\n      0x00\n        /* \"#utility.yul\":526:527   */\n      dup1\n        /* \"#utility.yul\":519:531   */\n      revert\n        /* \"#utility.yul\":470:533   */\n    tag_141:\n        /* \"#utility.yul\":417:539   */\n      pop\n      jump\t// out\n        /* \"#utility.yul\":545:684   */\n    tag_105:\n        /* \"#utility.yul\":591:596   */\n      0x00\n        /* \"#utility.yul\":629:635   */\n      dup2\n        /* \"#utility.yul\":616:636   */\n      calldataload\n        /* \"#utility.yul\":607:636   */\n      swap1\n      pop\n        /* \"#utility.yul\":645:678   */\n      tag_143\n        /* \"#utility.yul\":672:677   */\n      dup2\n        /* \"#utility.yul\":645:678   */\n      tag_104\n      jump\t// in\n    tag_143:\n        /* \"#utility.yul\":545:684   */\n      swap3\n      swap2\n      pop\n      pop\n      jump\t// out\n        /* \"#utility.yul\":690:1019   */\n    tag_11:\n        /* \"#utility.yul\":749:755   */\n      0x00\n        /* \"#utility.yul\":798:800   */\n      0x20\n        /* \"#utility.yul\":786:795   */\n      dup3\n        /* \"#utility.yul\":777:784   */\n      dup5\n        /* \"#utility.yul\":773:796   */\n      sub\n        /* \"#utility.yul\":769:801   */\n      slt\n        /* \"#utility.yul\":766:885   */\n      iszero\n      tag_145\n      jumpi\n        /* \"#utility.yul\":804:883   */\n      tag_146\n      tag_101\n      jump\t// in\n    tag_146:\n        /* \"#utility.yul\":766:885   */\n    tag_145:\n        /* \"#utility.yul\":924:925   */\n      0x00\n        /* \"#utility.yul\":949:1002   */\n      tag_147\n        /* \"#utility.yul\":994:1001   */\n      dup5\n        /* \"#utility.yul\":985:991   */\n      dup3\n        /* \"#utility.yul\":974:983   */\n      dup6\n        /* \"#utility.yul\":970:992   */\n      add\n        /* \"#utility.yul\":949:1002   */\n      tag_105\n      jump\t// in\n    tag_147:\n        /* \"#utility.yul\":939:1002   */\n      swap2\n      pop\n        /* \"#utility.yul\":895:1012   */\n      pop\n        /* \"#utility.yul\":690:1019   */\n      swap3\n      swap2\n      pop\n      pop\n      jump\t// out\n        /* \"#utility.yul\":1025:1151   */\n    tag_106:\n        /* \"#utility.yul\":1062:1069   */\n      0x00\n        /* \"#utility.yul\":1102:1144   */\n      0xffffffffffffffffffffffffffffffffffffffff\n        /* \"#utility.yul\":1095:1100   */\n      dup3\n        /* \"#utility.yul\":1091:1145   */\n      and\n        /* \"#utility.yul\":1080:1145   */\n      swap1\n      pop\n        /* \"#utility.yul\":1025:1151   */\n      swap2\n      swap1\n      pop\n      jump\t// out\n        /* \"#utility.yul\":1157:1253   */\n    tag_107:\n        /* \"#utility.yul\":1194:1201   */\n      0x00\n        /* \"#utility.yul\":1223:1247   */\n      tag_150\n        /* \"#utility.yul\":1241:1246   */\n      dup3\n        /* \"#utility.yul\":1223:1247   */\n      tag_106\n      jump\t// in\n    tag_150:\n        /* \"#utility.yul\":1212:1247   */\n      swap1\n      pop\n        /* \"#utility.yul\":1157:1253   */\n      swap2\n      swap1\n      pop\n      jump\t// out\n        /* \"#utility.yul\":1259:1377   */\n    tag_108:\n        /* \"#utility.yul\":1346:1370   */\n      tag_152\n        /* \"#utility.yul\":1364:1369   */\n      dup2\n        /* \"#utility.yul\":1346:1370   */\n      tag_107\n      jump\t// in\n    tag_152:\n        /* \"#utility.yul\":1341:1344   */\n      dup3\n        /* \"#utility.yul\":1334:1371   */\n      mstore\n        /* \"#utility.yul\":1259:1377   */\n      pop\n      pop\n      jump\t// out\n        /* \"#utility.yul\":1383:1605   */\n    tag_14:\n        /* \"#utility.yul\":1476:1480   */\n      0x00\n        /* \"#utility.yul\":1514:1516   */\n      0x20\n        /* \"#utility.yul\":1503:1512   */\n      dup3\n        /* \"#utility.yul\":1499:1517   */\n      add\n        /* \"#utility.yul\":1491:1517   */\n      swap1\n      pop\n        /* \"#utility.yul\":1527:1598   */\n      tag_154\n        /* \"#utility.yul\":1595:1596   */\n      0x00\n        /* \"#utility.yul\":1584:1593   */\n      dup4\n        /* \"#utility.yul\":1580:1597   */\n      add\n        /* \"#utility.yul\":1571:1577   */\n      dup5\n        /* \"#utility.yul\":1527:1598   */\n      tag_108\n      jump\t// in\n    tag_154:\n        /* \"#utility.yul\":1383:1605   */\n      swap3\n      swap2\n      pop\n      pop\n      jump\t// out\n        /* \"#utility.yul\":1611:2085   */\n    tag_17:\n        /* \"#utility.yul\":1679:1685   */\n      0x00\n        /* \"#utility.yul\":1687:1693   */\n      dup1\n        /* \"#utility.yul\":1736:1738   */\n      0x40\n        /* \"#utility.yul\":1724:1733   */\n      dup4\n        /* \"#utility.yul\":1715:1722   */\n      dup6\n        /* \"#utility.yul\":1711:1734   */\n      sub\n        /* \"#utility.yul\":1707:1739   */\n      slt\n        /* \"#utility.yul\":1704:1823   */\n      iszero\n      tag_156\n      jumpi\n        /* \"#utility.yul\":1742:1821   */\n      tag_157\n      tag_101\n      jump\t// in\n    tag_157:\n        /* \"#utility.yul\":1704:1823   */\n    tag_156:\n        /* \"#utility.yul\":1862:1863   */\n      0x00\n        /* \"#utility.yul\":1887:1940   */\n      tag_158\n        /* \"#utility.yul\":1932:1939   */\n      dup6\n        /* \"#utility.yul\":1923:1929   */\n      dup3\n        /* \"#utility.yul\":1912:1921   */\n      dup7\n        /* \"#utility.yul\":1908:1930   */\n      add\n        /* \"#utility.yul\":1887:1940   */\n      tag_105\n      jump\t// in\n    tag_158:\n        /* \"#utility.yul\":1877:1940   */\n      swap3\n      pop\n        /* \"#utility.yul\":1833:1950   */\n      pop\n        /* \"#utility.yul\":1989:1991   */\n      0x20\n        /* \"#utility.yul\":2015:2068   */\n      tag_159\n        /* \"#utility.yul\":2060:2067   */\n      dup6\n        /* \"#utility.yul\":2051:2057   */\n      dup3\n        /* \"#utility.yul\":2040:2049   */\n      dup7\n        /* \"#utility.yul\":2036:2058   */\n      add\n        /* \"#utility.yul\":2015:2068   */\n      tag_105\n      jump\t// in\n    tag_159:\n        /* \"#utility.yul\":2005:2068   */\n      swap2\n      pop\n        /* \"#utility.yul\":1960:2078   */\n      pop\n        /* \"#utility.yul\":1611:2085   */\n      swap3\n      pop\n      swap3\n      swap1\n      pop\n      jump\t// out\n        /* \"#utility.yul\":2091:2151   */\n    tag_109:\n        /* \"#utility.yul\":2119:2122   */\n      0x00\n        /* \"#utility.yul\":2140:2145   */\n      dup2\n        /* \"#utility.yul\":2133:2145   */\n      swap1\n      pop\n        /* \"#utility.yul\":2091:2151   */\n      swap2\n      swap1\n      pop\n      jump\t// out\n        /* \"#utility.yul\":2157:2299   */\n    tag_110:\n        /* \"#utility.yul\":2207:2216   */\n      0x00\n        /* \"#utility.yul\":2240:2293   */\n      tag_162\n        /* \"#utility.yul\":2258:2292   */\n      tag_163\n        /* \"#utility.yul\":2267:2291   */\n      tag_164\n        /* \"#utility.yul\":2285:2290   */\n      dup5\n        /* \"#utility.yul\":2267:2291   */\n      tag_106\n      jump\t// in\n    tag_164:\n        /* \"#utility.yul\":2258:2292   */\n      tag_109\n      jump\t// in\n    tag_163:\n        /* \"#utility.yul\":2240:2293   */\n      tag_106\n      jump\t// in\n    tag_162:\n        /* \"#utility.yul\":2227:2293   */\n      swap1\n      pop\n        /* \"#utility.yul\":2157:2299   */\n      swap2\n      swap1\n      pop\n      jump\t// out\n        /* \"#utility.yul\":2305:2431   */\n    tag_111:\n        /* \"#utility.yul\":2355:2364   */\n      0x00\n        /* \"#utility.yul\":2388:2425   */\n      tag_166\n        /* \"#utility.yul\":2419:2424   */\n      dup3\n        /* \"#utility.yul\":2388:2425   */\n      tag_110\n      jump\t// in\n    tag_166:\n        /* \"#utility.yul\":2375:2425   */\n      swap1\n      pop\n        /* \"#utility.yul\":2305:2431   */\n      swap2\n      swap1\n      pop\n      jump\t// out\n        /* \"#utility.yul\":2437:2577   */\n    tag_112:\n        /* \"#utility.yul\":2501:2510   */\n      0x00\n        /* \"#utility.yul\":2534:2571   */\n      tag_168\n        /* \"#utility.yul\":2565:2570   */\n      dup3\n        /* \"#utility.yul\":2534:2571   */\n      tag_111\n      jump\t// in\n    tag_168:\n        /* \"#utility.yul\":2521:2571   */\n      swap1\n      pop\n        /* \"#utility.yul\":2437:2577   */\n      swap2\n      swap1\n      pop\n      jump\t// out\n        /* \"#utility.yul\":2583:2742   */\n    tag_113:\n        /* \"#utility.yul\":2684:2735   */\n      tag_170\n        /* \"#utility.yul\":2729:2734   */\n      dup2\n        /* \"#utility.yul\":2684:2735   */\n      tag_112\n      jump\t// in\n    tag_170:\n        /* \"#utility.yul\":2679:2682   */\n      dup3\n        /* \"#utility.yul\":2672:2736   */\n      mstore\n        /* \"#utility.yul\":2583:2742   */\n      pop\n      pop\n      jump\t// out\n        /* \"#utility.yul\":2748:2998   */\n    tag_25:\n        /* \"#utility.yul\":2855:2859   */\n      0x00\n        /* \"#utility.yul\":2893:2895   */\n      0x20\n        /* \"#utility.yul\":2882:2891   */\n      dup3\n        /* \"#utility.yul\":2878:2896   */\n      add\n        /* \"#utility.yul\":2870:2896   */\n      swap1\n      pop\n        /* \"#utility.yul\":2906:2991   */\n      tag_172\n        /* \"#utility.yul\":2988:2989   */\n      0x00\n        /* \"#utility.yul\":2977:2986   */\n      dup4\n        /* \"#utility.yul\":2973:2990   */\n      add\n        /* \"#utility.yul\":2964:2970   */\n      dup5\n        /* \"#utility.yul\":2906:2991   */\n      tag_113\n      jump\t// in\n    tag_172:\n        /* \"#utility.yul\":2748:2998   */\n      swap3\n      swap2\n      pop\n      pop\n      jump\t// out\n        /* \"#utility.yul\":3004:3155   */\n    tag_114:\n        /* \"#utility.yul\":3079:3088   */\n      0x00\n        /* \"#utility.yul\":3112:3149   */\n      tag_174\n        /* \"#utility.yul\":3143:3148   */\n      dup3\n        /* \"#utility.yul\":3112:3149   */\n      tag_111\n      jump\t// in\n    tag_174:\n        /* \"#utility.yul\":3099:3149   */\n      swap1\n      pop\n        /* \"#utility.yul\":3004:3155   */\n      swap2\n      swap1\n      pop\n      jump\t// out\n        /* \"#utility.yul\":3161:3342   */\n    tag_115:\n        /* \"#utility.yul\":3273:3335   */\n      tag_176\n        /* \"#utility.yul\":3329:3334   */\n      dup2\n        /* \"#utility.yul\":3273:3335   */\n      tag_114\n      jump\t// in\n    tag_176:\n        /* \"#utility.yul\":3268:3271   */\n      dup3\n        /* \"#utility.yul\":3261:3336   */\n      mstore\n        /* \"#utility.yul\":3161:3342   */\n      pop\n      pop\n      jump\t// out\n        /* \"#utility.yul\":3348:3620   */\n    tag_29:\n        /* \"#utility.yul\":3466:3470   */\n      0x00\n        /* \"#utility.yul\":3504:3506   */\n      0x20\n        /* \"#utility.yul\":3493:3502   */\n      dup3\n        /* \"#utility.yul\":3489:3507   */\n      add\n        /* \"#utility.yul\":3481:3507   */\n      swap1\n      pop\n        /* \"#utility.yul\":3517:3613   */\n      tag_178\n        /* \"#utility.yul\":3610:3611   */\n      0x00\n        /* \"#utility.yul\":3599:3608   */\n      dup4\n        /* \"#utility.yul\":3595:3612   */\n      add\n        /* \"#utility.yul\":3586:3592   */\n      dup5\n        /* \"#utility.yul\":3517:3613   */\n      tag_115\n      jump\t// in\n    tag_178:\n        /* \"#utility.yul\":3348:3620   */\n      swap3\n      swap2\n      pop\n      pop\n      jump\t// out\n        /* \"#utility.yul\":3626:3744   */\n    tag_116:\n        /* \"#utility.yul\":3713:3737   */\n      tag_180\n        /* \"#utility.yul\":3731:3736   */\n      dup2\n        /* \"#utility.yul\":3713:3737   */\n      tag_103\n      jump\t// in\n    tag_180:\n        /* \"#utility.yul\":3708:3711   */\n      dup3\n        /* \"#utility.yul\":3701:3738   */\n      mstore\n        /* \"#utility.yul\":3626:3744   */\n      pop\n      pop\n      jump\t// out\n        /* \"#utility.yul\":3750:3972   */\n    tag_34:\n        /* \"#utility.yul\":3843:3847   */\n      0x00\n        /* \"#utility.yul\":3881:3883   */\n      0x20\n        /* \"#utility.yul\":3870:3879   */\n      dup3\n        /* \"#utility.yul\":3866:3884   */\n      add\n        /* \"#utility.yul\":3858:3884   */\n      swap1\n      pop\n        /* \"#utility.yul\":3894:3965   */\n      tag_182\n        /* \"#utility.yul\":3962:3963   */\n      0x00\n        /* \"#utility.yul\":3951:3960   */\n      dup4\n        /* \"#utility.yul\":3947:3964   */\n      add\n        /* \"#utility.yul\":3938:3944   */\n      dup5\n        /* \"#utility.yul\":3894:3965   */\n      tag_116\n      jump\t// in\n    tag_182:\n        /* \"#utility.yul\":3750:3972   */\n      swap3\n      swap2\n      pop\n      pop\n      jump\t// out\n        /* \"#utility.yul\":3978:4100   */\n    tag_117:\n        /* \"#utility.yul\":4051:4075   */\n      tag_184\n        /* \"#utility.yul\":4069:4074   */\n      dup2\n        /* \"#utility.yul\":4051:4075   */\n      tag_107\n      jump\t// in\n    tag_184:\n        /* \"#utility.yul\":4044:4049   */\n      dup2\n        /* \"#utility.yul\":4041:4076   */\n      eq\n        /* \"#utility.yul\":4031:4094   */\n      tag_185\n      jumpi\n        /* \"#utility.yul\":4090:4091   */\n      0x00\n        /* \"#utility.yul\":4087:4088   */\n      dup1\n        /* \"#utility.yul\":4080:4092   */\n      revert\n        /* \"#utility.yul\":4031:4094   */\n    tag_185:\n        /* \"#utility.yul\":3978:4100   */\n      pop\n      jump\t// out\n        /* \"#utility.yul\":4106:4249   */\n    tag_118:\n        /* \"#utility.yul\":4163:4168   */\n      0x00\n        /* \"#utility.yul\":4194:4200   */\n      dup2\n        /* \"#utility.yul\":4188:4201   */\n      mload\n        /* \"#utility.yul\":4179:4201   */\n      swap1\n      pop\n        /* \"#utility.yul\":4210:4243   */\n      tag_187\n        /* \"#utility.yul\":4237:4242   */\n      dup2\n        /* \"#utility.yul\":4210:4243   */\n      tag_117\n      jump\t// in\n    tag_187:\n        /* \"#utility.yul\":4106:4249   */\n      swap3\n      swap2\n      pop\n      pop\n      jump\t// out\n        /* \"#utility.yul\":4255:4606   */\n    tag_40:\n        /* \"#utility.yul\":4325:4331   */\n      0x00\n        /* \"#utility.yul\":4374:4376   */\n      0x20\n        /* \"#utility.yul\":4362:4371   */\n      dup3\n        /* \"#utility.yul\":4353:4360   */\n      dup5\n        /* \"#utility.yul\":4349:4372   */\n      sub\n        /* \"#utility.yul\":4345:4377   */\n      slt\n        /* \"#utility.yul\":4342:4461   */\n      iszero\n      tag_189\n      jumpi\n        /* \"#utility.yul\":4380:4459   */\n      tag_190\n      tag_101\n      jump\t// in\n    tag_190:\n        /* \"#utility.yul\":4342:4461   */\n    tag_189:\n        /* \"#utility.yul\":4500:4501   */\n      0x00\n        /* \"#utility.yul\":4525:4589   */\n      tag_191\n        /* \"#utility.yul\":4581:4588   */\n      dup5\n        /* \"#utility.yul\":4572:4578   */\n      dup3\n        /* \"#utility.yul\":4561:4570   */\n      dup6\n        /* \"#utility.yul\":4557:4579   */\n      add\n        /* \"#utility.yul\":4525:4589   */\n      tag_118\n      jump\t// in\n    tag_191:\n        /* \"#utility.yul\":4515:4589   */\n      swap2\n      pop\n        /* \"#utility.yul\":4471:4599   */\n      pop\n        /* \"#utility.yul\":4255:4606   */\n      swap3\n      swap2\n      pop\n      pop\n      jump\t// out\n        /* \"#utility.yul\":4612:4781   */\n    tag_119:\n        /* \"#utility.yul\":4696:4707   */\n      0x00\n        /* \"#utility.yul\":4730:4736   */\n      dup3\n        /* \"#utility.yul\":4725:4728   */\n      dup3\n        /* \"#utility.yul\":4718:4737   */\n      mstore\n        /* \"#utility.yul\":4770:4774   */\n      0x20\n        /* \"#utility.yul\":4765:4768   */\n      dup3\n        /* \"#utility.yul\":4761:4775   */\n      add\n        /* \"#utility.yul\":4746:4775   */\n      swap1\n      pop\n        /* \"#utility.yul\":4612:4781   */\n      swap3\n      swap2\n      pop\n      pop\n      jump\t// out\n        /* \"#utility.yul\":4787:4950   */\n    tag_120:\n        /* \"#utility.yul\":4927:4942   */\n      0x6e6f74204e4654206f776e657200000000000000000000000000000000000000\n        /* \"#utility.yul\":4923:4924   */\n      0x00\n        /* \"#utility.yul\":4915:4921   */\n      dup3\n        /* \"#utility.yul\":4911:4925   */\n      add\n        /* \"#utility.yul\":4904:4943   */\n      mstore\n        /* \"#utility.yul\":4787:4950   */\n      pop\n      jump\t// out\n        /* \"#utility.yul\":4956:5322   */\n    tag_121:\n        /* \"#utility.yul\":5098:5101   */\n      0x00\n        /* \"#utility.yul\":5119:5186   */\n      tag_195\n        /* \"#utility.yul\":5183:5185   */\n      0x0d\n        /* \"#utility.yul\":5178:5181   */\n      dup4\n        /* \"#utility.yul\":5119:5186   */\n      tag_119\n      jump\t// in\n    tag_195:\n        /* \"#utility.yul\":5112:5186   */\n      swap2\n      pop\n        /* \"#utility.yul\":5195:5288   */\n      tag_196\n        /* \"#utility.yul\":5284:5287   */\n      dup3\n        /* \"#utility.yul\":5195:5288   */\n      tag_120\n      jump\t// in\n    tag_196:\n        /* \"#utility.yul\":5313:5315   */\n      0x20\n        /* \"#utility.yul\":5308:5311   */\n      dup3\n        /* \"#utility.yul\":5304:5316   */\n      add\n        /* \"#utility.yul\":5297:5316   */\n      swap1\n      pop\n        /* \"#utility.yul\":4956:5322   */\n      swap2\n      swap1\n      pop\n      jump\t// out\n        /* \"#utility.yul\":5328:5747   */\n    tag_43:\n        /* \"#utility.yul\":5494:5498   */\n      0x00\n        /* \"#utility.yul\":5532:5534   */\n      0x20\n        /* \"#utility.yul\":5521:5530   */\n      dup3\n        /* \"#utility.yul\":5517:5535   */\n      add\n        /* \"#utility.yul\":5509:5535   */\n      swap1\n      pop\n        /* \"#utility.yul\":5581:5590   */\n      dup2\n        /* \"#utility.yul\":5575:5579   */\n      dup2\n        /* \"#utility.yul\":5571:5591   */\n      sub\n        /* \"#utility.yul\":5567:5568   */\n      0x00\n        /* \"#utility.yul\":5556:5565   */\n      dup4\n        /* \"#utility.yul\":5552:5569   */\n      add\n        /* \"#utility.yul\":5545:5592   */\n      mstore\n        /* \"#utility.yul\":5609:5740   */\n      tag_198\n        /* \"#utility.yul\":5735:5739   */\n      dup2\n        /* \"#utility.yul\":5609:5740   */\n      tag_121\n      jump\t// in\n    tag_198:\n        /* \"#utility.yul\":5601:5740   */\n      swap1\n      pop\n        /* \"#utility.yul\":5328:5747   */\n      swap2\n      swap1\n      pop\n      jump\t// out\n        /* \"#utility.yul\":5753:5915   */\n    tag_122:\n        /* \"#utility.yul\":5893:5907   */\n      0x4e4654206e6f74206c6973740000000000000000000000000000000000000000\n        /* \"#utility.yul\":5889:5890   */\n      0x00\n        /* \"#utility.yul\":5881:5887   */\n      dup3\n        /* \"#utility.yul\":5877:5891   */\n      add\n        /* \"#utility.yul\":5870:5908   */\n      mstore\n        /* \"#utility.yul\":5753:5915   */\n      pop\n      jump\t// out\n        /* \"#utility.yul\":5921:6287   */\n    tag_123:\n        /* \"#utility.yul\":6063:6066   */\n      0x00\n        /* \"#utility.yul\":6084:6151   */\n      tag_201\n        /* \"#utility.yul\":6148:6150   */\n      0x0c\n        /* \"#utility.yul\":6143:6146   */\n      dup4\n        /* \"#utility.yul\":6084:6151   */\n      tag_119\n      jump\t// in\n    tag_201:\n        /* \"#utility.yul\":6077:6151   */\n      swap2\n      pop\n        /* \"#utility.yul\":6160:6253   */\n      tag_202\n        /* \"#utility.yul\":6249:6252   */\n      dup3\n        /* \"#utility.yul\":6160:6253   */\n      tag_122\n      jump\t// in\n    tag_202:\n        /* \"#utility.yul\":6278:6280   */\n      0x20\n        /* \"#utility.yul\":6273:6276   */\n      dup3\n        /* \"#utility.yul\":6269:6281   */\n      add\n        /* \"#utility.yul\":6262:6281   */\n      swap1\n      pop\n        /* \"#utility.yul\":5921:6287   */\n      swap2\n      swap1\n      pop\n      jump\t// out\n        /* \"#utility.yul\":6293:6712   */\n    tag_48:\n        /* \"#utility.yul\":6459:6463   */\n      0x00\n        /* \"#utility.yul\":6497:6499   */\n      0x20\n        /* \"#utility.yul\":6486:6495   */\n      dup3\n        /* \"#utility.yul\":6482:6500   */\n      add\n        /* \"#utility.yul\":6474:6500   */\n      swap1\n      pop\n        /* \"#utility.yul\":6546:6555   */\n      dup2\n        /* \"#utility.yul\":6540:6544   */\n      dup2\n        /* \"#utility.yul\":6536:6556   */\n      sub\n        /* \"#utility.yul\":6532:6533   */\n      0x00\n        /* \"#utility.yul\":6521:6530   */\n      dup4\n        /* \"#utility.yul\":6517:6534   */\n      add\n        /* \"#utility.yul\":6510:6557   */\n      mstore\n        /* \"#utility.yul\":6574:6705   */\n      tag_204\n        /* \"#utility.yul\":6700:6704   */\n      dup2\n        /* \"#utility.yul\":6574:6705   */\n      tag_123\n      jump\t// in\n    tag_204:\n        /* \"#utility.yul\":6566:6705   */\n      swap1\n      pop\n        /* \"#utility.yul\":6293:6712   */\n      swap2\n      swap1\n      pop\n      jump\t// out\n        /* \"#utility.yul\":6718:6861   */\n    tag_124:\n        /* \"#utility.yul\":6775:6780   */\n      0x00\n        /* \"#utility.yul\":6806:6812   */\n      dup2\n        /* \"#utility.yul\":6800:6813   */\n      mload\n        /* \"#utility.yul\":6791:6813   */\n      swap1\n      pop\n        /* \"#utility.yul\":6822:6855   */\n      tag_206\n        /* \"#utility.yul\":6849:6854   */\n      dup2\n        /* \"#utility.yul\":6822:6855   */\n      tag_104\n      jump\t// in\n    tag_206:\n        /* \"#utility.yul\":6718:6861   */\n      swap3\n      swap2\n      pop\n      pop\n      jump\t// out\n        /* \"#utility.yul\":6867:7218   */\n    tag_53:\n        /* \"#utility.yul\":6937:6943   */\n      0x00\n        /* \"#utility.yul\":6986:6988   */\n      0x20\n        /* \"#utility.yul\":6974:6983   */\n      dup3\n        /* \"#utility.yul\":6965:6972   */\n      dup5\n        /* \"#utility.yul\":6961:6984   */\n      sub\n        /* \"#utility.yul\":6957:6989   */\n      slt\n        /* \"#utility.yul\":6954:7073   */\n      iszero\n      tag_208\n      jumpi\n        /* \"#utility.yul\":6992:7071   */\n      tag_209\n      tag_101\n      jump\t// in\n    tag_209:\n        /* \"#utility.yul\":6954:7073   */\n    tag_208:\n        /* \"#utility.yul\":7112:7113   */\n      0x00\n        /* \"#utility.yul\":7137:7201   */\n      tag_210\n        /* \"#utility.yul\":7193:7200   */\n      dup5\n        /* \"#utility.yul\":7184:7190   */\n      dup3\n        /* \"#utility.yul\":7173:7182   */\n      dup6\n        /* \"#utility.yul\":7169:7191   */\n      add\n        /* \"#utility.yul\":7137:7201   */\n      tag_124\n      jump\t// in\n    tag_210:\n        /* \"#utility.yul\":7127:7201   */\n      swap2\n      pop\n        /* \"#utility.yul\":7083:7211   */\n      pop\n        /* \"#utility.yul\":6867:7218   */\n      swap3\n      swap2\n      pop\n      pop\n      jump\t// out\n        /* \"#utility.yul\":7224:7394   */\n    tag_125:\n        /* \"#utility.yul\":7364:7386   */\n      0x696e73756666696369656e742062616c616e6365000000000000000000000000\n        /* \"#utility.yul\":7360:7361   */\n      0x00\n        /* \"#utility.yul\":7352:7358   */\n      dup3\n        /* \"#utility.yul\":7348:7362   */\n      add\n        /* \"#utility.yul\":7341:7387   */\n      mstore\n        /* \"#utility.yul\":7224:7394   */\n      pop\n      jump\t// out\n        /* \"#utility.yul\":7400:7766   */\n    tag_126:\n        /* \"#utility.yul\":7542:7545   */\n      0x00\n        /* \"#utility.yul\":7563:7630   */\n      tag_213\n        /* \"#utility.yul\":7627:7629   */\n      0x14\n        /* \"#utility.yul\":7622:7625   */\n      dup4\n        /* \"#utility.yul\":7563:7630   */\n      tag_119\n      jump\t// in\n    tag_213:\n        /* \"#utility.yul\":7556:7630   */\n      swap2\n      pop\n        /* \"#utility.yul\":7639:7732   */\n      tag_214\n        /* \"#utility.yul\":7728:7731   */\n      dup3\n        /* \"#utility.yul\":7639:7732   */\n      tag_125\n      jump\t// in\n    tag_214:\n        /* \"#utility.yul\":7757:7759   */\n      0x20\n        /* \"#utility.yul\":7752:7755   */\n      dup3\n        /* \"#utility.yul\":7748:7760   */\n      add\n        /* \"#utility.yul\":7741:7760   */\n      swap1\n      pop\n        /* \"#utility.yul\":7400:7766   */\n      swap2\n      swap1\n      pop\n      jump\t// out\n        /* \"#utility.yul\":7772:8191   */\n    tag_56:\n        /* \"#utility.yul\":7938:7942   */\n      0x00\n        /* \"#utility.yul\":7976:7978   */\n      0x20\n        /* \"#utility.yul\":7965:7974   */\n      dup3\n        /* \"#utility.yul\":7961:7979   */\n      add\n        /* \"#utility.yul\":7953:7979   */\n      swap1\n      pop\n        /* \"#utility.yul\":8025:8034   */\n      dup2\n        /* \"#utility.yul\":8019:8023   */\n      dup2\n        /* \"#utility.yul\":8015:8035   */\n      sub\n        /* \"#utility.yul\":8011:8012   */\n      0x00\n        /* \"#utility.yul\":8000:8009   */\n      dup4\n        /* \"#utility.yul\":7996:8013   */\n      add\n        /* \"#utility.yul\":7989:8036   */\n      mstore\n        /* \"#utility.yul\":8053:8184   */\n      tag_216\n        /* \"#utility.yul\":8179:8183   */\n      dup2\n        /* \"#utility.yul\":8053:8184   */\n      tag_126\n      jump\t// in\n    tag_216:\n        /* \"#utility.yul\":8045:8184   */\n      swap1\n      pop\n        /* \"#utility.yul\":7772:8191   */\n      swap2\n      swap1\n      pop\n      jump\t// out\n        /* \"#utility.yul\":8197:8639   */\n    tag_60:\n        /* \"#utility.yul\":8346:8350   */\n      0x00\n        /* \"#utility.yul\":8384:8386   */\n      0x60\n        /* \"#utility.yul\":8373:8382   */\n      dup3\n        /* \"#utility.yul\":8369:8387   */\n      add\n        /* \"#utility.yul\":8361:8387   */\n      swap1\n      pop\n        /* \"#utility.yul\":8397:8468   */\n      tag_218\n        /* \"#utility.yul\":8465:8466   */\n      0x00\n        /* \"#utility.yul\":8454:8463   */\n      dup4\n        /* \"#utility.yul\":8450:8467   */\n      add\n        /* \"#utility.yul\":8441:8447   */\n      dup7\n        /* \"#utility.yul\":8397:8468   */\n      tag_108\n      jump\t// in\n    tag_218:\n        /* \"#utility.yul\":8478:8550   */\n      tag_219\n        /* \"#utility.yul\":8546:8548   */\n      0x20\n        /* \"#utility.yul\":8535:8544   */\n      dup4\n        /* \"#utility.yul\":8531:8549   */\n      add\n        /* \"#utility.yul\":8522:8528   */\n      dup6\n        /* \"#utility.yul\":8478:8550   */\n      tag_108\n      jump\t// in\n    tag_219:\n        /* \"#utility.yul\":8560:8632   */\n      tag_220\n        /* \"#utility.yul\":8628:8630   */\n      0x40\n        /* \"#utility.yul\":8617:8626   */\n      dup4\n        /* \"#utility.yul\":8613:8631   */\n      add\n        /* \"#utility.yul\":8604:8610   */\n      dup5\n        /* \"#utility.yul\":8560:8632   */\n      tag_116\n      jump\t// in\n    tag_220:\n        /* \"#utility.yul\":8197:8639   */\n      swap5\n      swap4\n      pop\n      pop\n      pop\n      pop\n      jump\t// out\n        /* \"#utility.yul\":8645:8735   */\n    tag_127:\n        /* \"#utility.yul\":8679:8686   */\n      0x00\n        /* \"#utility.yul\":8722:8727   */\n      dup2\n        /* \"#utility.yul\":8715:8728   */\n      iszero\n        /* \"#utility.yul\":8708:8729   */\n      iszero\n        /* \"#utility.yul\":8697:8729   */\n      swap1\n      pop\n        /* \"#utility.yul\":8645:8735   */\n      swap2\n      swap1\n      pop\n      jump\t// out\n        /* \"#utility.yul\":8741:8857   */\n    tag_128:\n        /* \"#utility.yul\":8811:8832   */\n      tag_223\n        /* \"#utility.yul\":8826:8831   */\n      dup2\n        /* \"#utility.yul\":8811:8832   */\n      tag_127\n      jump\t// in\n    tag_223:\n        /* \"#utility.yul\":8804:8809   */\n      dup2\n        /* \"#utility.yul\":8801:8833   */\n      eq\n        /* \"#utility.yul\":8791:8851   */\n      tag_224\n      jumpi\n        /* \"#utility.yul\":8847:8848   */\n      0x00\n        /* \"#utility.yul\":8844:8845   */\n      dup1\n        /* \"#utility.yul\":8837:8849   */\n      revert\n        /* \"#utility.yul\":8791:8851   */\n    tag_224:\n        /* \"#utility.yul\":8741:8857   */\n      pop\n      jump\t// out\n        /* \"#utility.yul\":8863:9000   */\n    tag_129:\n        /* \"#utility.yul\":8917:8922   */\n      0x00\n        /* \"#utility.yul\":8948:8954   */\n      dup2\n        /* \"#utility.yul\":8942:8955   */\n      mload\n        /* \"#utility.yul\":8933:8955   */\n      swap1\n      pop\n        /* \"#utility.yul\":8964:8994   */\n      tag_226\n        /* \"#utility.yul\":8988:8993   */\n      dup2\n        /* \"#utility.yul\":8964:8994   */\n      tag_128\n      jump\t// in\n    tag_226:\n        /* \"#utility.yul\":8863:9000   */\n      swap3\n      swap2\n      pop\n      pop\n      jump\t// out\n        /* \"#utility.yul\":9006:9351   */\n    tag_73:\n        /* \"#utility.yul\":9073:9079   */\n      0x00\n        /* \"#utility.yul\":9122:9124   */\n      0x20\n        /* \"#utility.yul\":9110:9119   */\n      dup3\n        /* \"#utility.yul\":9101:9108   */\n      dup5\n        /* \"#utility.yul\":9097:9120   */\n      sub\n        /* \"#utility.yul\":9093:9125   */\n      slt\n        /* \"#utility.yul\":9090:9209   */\n      iszero\n      tag_228\n      jumpi\n        /* \"#utility.yul\":9128:9207   */\n      tag_229\n      tag_101\n      jump\t// in\n    tag_229:\n        /* \"#utility.yul\":9090:9209   */\n    tag_228:\n        /* \"#utility.yul\":9248:9249   */\n      0x00\n        /* \"#utility.yul\":9273:9334   */\n      tag_230\n        /* \"#utility.yul\":9326:9333   */\n      dup5\n        /* \"#utility.yul\":9317:9323   */\n      dup3\n        /* \"#utility.yul\":9306:9315   */\n      dup6\n        /* \"#utility.yul\":9302:9324   */\n      add\n        /* \"#utility.yul\":9273:9334   */\n      tag_129\n      jump\t// in\n    tag_230:\n        /* \"#utility.yul\":9263:9334   */\n      swap2\n      pop\n        /* \"#utility.yul\":9219:9344   */\n      pop\n        /* \"#utility.yul\":9006:9351   */\n      swap3\n      swap2\n      pop\n      pop\n      jump\t// out\n        /* \"#utility.yul\":9357:9455   */\n    tag_130:\n        /* \"#utility.yul\":9408:9414   */\n      0x00\n        /* \"#utility.yul\":9442:9447   */\n      dup2\n        /* \"#utility.yul\":9436:9448   */\n      mload\n        /* \"#utility.yul\":9426:9448   */\n      swap1\n      pop\n        /* \"#utility.yul\":9357:9455   */\n      swap2\n      swap1\n      pop\n      jump\t// out\n        /* \"#utility.yul\":9461:9608   */\n    tag_131:\n        /* \"#utility.yul\":9562:9573   */\n      0x00\n        /* \"#utility.yul\":9599:9602   */\n      dup2\n        /* \"#utility.yul\":9584:9602   */\n      swap1\n      pop\n        /* \"#utility.yul\":9461:9608   */\n      swap3\n      swap2\n      pop\n      pop\n      jump\t// out\n        /* \"#utility.yul\":9614:9753   */\n    tag_132:\n        /* \"#utility.yul\":9703:9709   */\n      dup3\n        /* \"#utility.yul\":9698:9701   */\n      dup2\n        /* \"#utility.yul\":9693:9696   */\n      dup4\n        /* \"#utility.yul\":9687:9710   */\n      mcopy\n        /* \"#utility.yul\":9744:9745   */\n      0x00\n        /* \"#utility.yul\":9735:9741   */\n      dup4\n        /* \"#utility.yul\":9730:9733   */\n      dup4\n        /* \"#utility.yul\":9726:9742   */\n      add\n        /* \"#utility.yul\":9719:9746   */\n      mstore\n        /* \"#utility.yul\":9614:9753   */\n      pop\n      pop\n      pop\n      jump\t// out\n        /* \"#utility.yul\":9759:10145   */\n    tag_133:\n        /* \"#utility.yul\":9863:9866   */\n      0x00\n        /* \"#utility.yul\":9891:9929   */\n      tag_235\n        /* \"#utility.yul\":9923:9928   */\n      dup3\n        /* \"#utility.yul\":9891:9929   */\n      tag_130\n      jump\t// in\n    tag_235:\n        /* \"#utility.yul\":9945:10033   */\n      tag_236\n        /* \"#utility.yul\":10026:10032   */\n      dup2\n        /* \"#utility.yul\":10021:10024   */\n      dup6\n        /* \"#utility.yul\":9945:10033   */\n      tag_131\n      jump\t// in\n    tag_236:\n        /* \"#utility.yul\":9938:10033   */\n      swap4\n      pop\n        /* \"#utility.yul\":10042:10107   */\n      tag_237\n        /* \"#utility.yul\":10100:10106   */\n      dup2\n        /* \"#utility.yul\":10095:10098   */\n      dup6\n        /* \"#utility.yul\":10088:10092   */\n      0x20\n        /* \"#utility.yul\":10081:10086   */\n      dup7\n        /* \"#utility.yul\":10077:10093   */\n      add\n        /* \"#utility.yul\":10042:10107   */\n      tag_132\n      jump\t// in\n    tag_237:\n        /* \"#utility.yul\":10132:10138   */\n      dup1\n        /* \"#utility.yul\":10127:10130   */\n      dup5\n        /* \"#utility.yul\":10123:10139   */\n      add\n        /* \"#utility.yul\":10116:10139   */\n      swap2\n      pop\n        /* \"#utility.yul\":9867:10145   */\n      pop\n        /* \"#utility.yul\":9759:10145   */\n      swap3\n      swap2\n      pop\n      pop\n      jump\t// out\n        /* \"#utility.yul\":10151:10422   */\n    tag_83:\n        /* \"#utility.yul\":10281:10284   */\n      0x00\n        /* \"#utility.yul\":10303:10396   */\n      tag_239\n        /* \"#utility.yul\":10392:10395   */\n      dup3\n        /* \"#utility.yul\":10383:10389   */\n      dup5\n        /* \"#utility.yul\":10303:10396   */\n      tag_133\n      jump\t// in\n    tag_239:\n        /* \"#utility.yul\":10296:10396   */\n      swap2\n      pop\n        /* \"#utility.yul\":10413:10416   */\n      dup2\n        /* \"#utility.yul\":10406:10416   */\n      swap1\n      pop\n        /* \"#utility.yul\":10151:10422   */\n      swap3\n      swap2\n      pop\n      pop\n      jump\t// out\n\n    auxdata: 0xa264697066735822122003793d856da8b2336c90e27b4ff98d4280da861a20acac37e8802369f884086d64736f6c634300081a0033\n}\n",
				"bytecode": {
					"linkReferences": {},
					"object": "608060405234801561000f575f80fd5b50604051610f5f380380610f5f83398181016040528101906100319190610161565b815f806101000a81548173ffffffffffffffffffffffffffffffffffffffff021916908373ffffffffffffffffffffffffffffffffffffffff1602179055508060015f6101000a81548173ffffffffffffffffffffffffffffffffffffffff021916908373ffffffffffffffffffffffffffffffffffffffff160217905550505061019f565b5f80fd5b5f73ffffffffffffffffffffffffffffffffffffffff82169050919050565b5f6100e4826100bb565b9050919050565b5f6100f5826100da565b9050919050565b610105816100eb565b811461010f575f80fd5b50565b5f81519050610120816100fc565b92915050565b5f610130826100da565b9050919050565b61014081610126565b811461014a575f80fd5b50565b5f8151905061015b81610137565b92915050565b5f8060408385031215610177576101766100b7565b5b5f61018485828601610112565b92505060206101958582860161014d565b9150509250929050565b610db3806101ac5f395ff3fe608060405234801561000f575f80fd5b5060043610610060575f3560e01c80631caaa4871461006457806350fd73671461009457806351ed8288146100b0578063785e9e86146100cc578063bca6ce64146100ea578063d4ddce8a14610108575b5f80fd5b61007e6004803603810190610079919061090e565b610138565b60405161008b9190610978565b60405180910390f35b6100ae60048036038101906100a99190610991565b610168565b005b6100ca60048036038101906100c5919061090e565b6102d5565b005b6100d46105b4565b6040516100e19190610a2a565b60405180910390f35b6100f26105d9565b6040516100ff9190610a63565b60405180910390f35b610122600480360381019061011d919061090e565b6105fc565b60405161012f9190610a8b565b60405180910390f35b6003602052805f5260405f205f915054906101000a900473ffffffffffffffffffffffffffffffffffffffff1681565b3373ffffffffffffffffffffffffffffffffffffffff165f8054906101000a900473ffffffffffffffffffffffffffffffffffffffff1673ffffffffffffffffffffffffffffffffffffffff16636352211e846040518263ffffffff1660e01b81526004016101d79190610a8b565b602060405180830381865afa1580156101f2573d5f803e3d5ffd5b505050506040513d601f19601f820116820180604052508101906102169190610ace565b73ffffffffffffffffffffffffffffffffffffffff161461026c576040517f08c379a000000000000000000000000000000000000000000000000000000000815260040161026390610b53565b60405180910390fd5b8060025f8481526020019081526020015f20819055503360035f8481526020019081526020015f205f6101000a81548173ffffffffffffffffffffffffffffffffffffffff021916908373ffffffffffffffffffffffffffffffffffffffff1602179055505050565b5f60025f8381526020019081526020015f205490505f60035f8481526020019081526020015f205f9054906101000a900473ffffffffffffffffffffffffffffffffffffffff1690505f8211801561035957505f73ffffffffffffffffffffffffffffffffffffffff168173ffffffffffffffffffffffffffffffffffffffff1614155b610398576040517f08c379a000000000000000000000000000000000000000000000000000000000815260040161038f90610bbb565b60405180910390fd5b8160015f9054906101000a900473ffffffffffffffffffffffffffffffffffffffff1673ffffffffffffffffffffffffffffffffffffffff166370a08231336040518263ffffffff1660e01b81526004016103f39190610978565b602060405180830381865afa15801561040e573d5f803e3d5ffd5b505050506040513d601f19601f820116820180604052508101906104329190610bed565b1015610473576040517f08c379a000000000000000000000000000000000000000000000000000000000815260040161046a90610c62565b60405180910390fd5b6104c133828460015f9054906101000a900473ffffffffffffffffffffffffffffffffffffffff1673ffffffffffffffffffffffffffffffffffffffff16610611909392919063ffffffff16565b5f8054906101000a900473ffffffffffffffffffffffffffffffffffffffff1673ffffffffffffffffffffffffffffffffffffffff166342842e0e8233866040518463ffffffff1660e01b815260040161051d93929190610c80565b5f604051808303815f87803b158015610534575f80fd5b505af1158015610546573d5f803e3d5ffd5b505050505f60025f8581526020019081526020015f20819055505f60035f8581526020019081526020015f205f6101000a81548173ffffffffffffffffffffffffffffffffffffffff021916908373ffffffffffffffffffffffffffffffffffffffff160217905550505050565b60015f9054906101000a900473ffffffffffffffffffffffffffffffffffffffff1681565b5f8054906101000a900473ffffffffffffffffffffffffffffffffffffffff1681565b6002602052805f5260405f205f915090505481565b61068d848573ffffffffffffffffffffffffffffffffffffffff166323b872dd86868660405160240161064693929190610c80565b604051602081830303815290604052915060e01b6020820180517bffffffffffffffffffffffffffffffffffffffffffffffffffffffff8381831617835250505050610693565b50505050565b5f6106bd828473ffffffffffffffffffffffffffffffffffffffff1661072890919063ffffffff16565b90505f8151141580156106e15750808060200190518101906106df9190610cea565b155b1561072357826040517f5274afe700000000000000000000000000000000000000000000000000000000815260040161071a9190610978565b60405180910390fd5b505050565b606061073583835f61073d565b905092915050565b60608147101561078457306040517fcd78605900000000000000000000000000000000000000000000000000000000815260040161077b9190610978565b60405180910390fd5b5f808573ffffffffffffffffffffffffffffffffffffffff1684866040516107ac9190610d67565b5f6040518083038185875af1925050503d805f81146107e6576040519150601f19603f3d011682016040523d82523d5f602084013e6107eb565b606091505b50915091506107fb868383610806565b925050509392505050565b60608261081b5761081682610893565b61088b565b5f825114801561084157505f8473ffffffffffffffffffffffffffffffffffffffff163b145b1561088357836040517f9996b31500000000000000000000000000000000000000000000000000000000815260040161087a9190610978565b60405180910390fd5b81905061088c565b5b9392505050565b5f815111156108a55780518082602001fd5b6040517f1425ea4200000000000000000000000000000000000000000000000000000000815260040160405180910390fd5b5f80fd5b5f819050919050565b6108ed816108db565b81146108f7575f80fd5b50565b5f81359050610908816108e4565b92915050565b5f60208284031215610923576109226108d7565b5b5f610930848285016108fa565b91505092915050565b5f73ffffffffffffffffffffffffffffffffffffffff82169050919050565b5f61096282610939565b9050919050565b61097281610958565b82525050565b5f60208201905061098b5f830184610969565b92915050565b5f80604083850312156109a7576109a66108d7565b5b5f6109b4858286016108fa565b92505060206109c5858286016108fa565b9150509250929050565b5f819050919050565b5f6109f26109ed6109e884610939565b6109cf565b610939565b9050919050565b5f610a03826109d8565b9050919050565b5f610a14826109f9565b9050919050565b610a2481610a0a565b82525050565b5f602082019050610a3d5f830184610a1b565b92915050565b5f610a4d826109f9565b9050919050565b610a5d81610a43565b82525050565b5f602082019050610a765f830184610a54565b92915050565b610a85816108db565b82525050565b5f602082019050610a9e5f830184610a7c565b92915050565b610aad81610958565b8114610ab7575f80fd5b50565b5f81519050610ac881610aa4565b92915050565b5f60208284031215610ae357610ae26108d7565b5b5f610af084828501610aba565b91505092915050565b5f82825260208201905092915050565b7f6e6f74204e4654206f776e6572000000000000000000000000000000000000005f82015250565b5f610b3d600d83610af9565b9150610b4882610b09565b602082019050919050565b5f6020820190508181035f830152610b6a81610b31565b9050919050565b7f4e4654206e6f74206c69737400000000000000000000000000000000000000005f82015250565b5f610ba5600c83610af9565b9150610bb082610b71565b602082019050919050565b5f6020820190508181035f830152610bd281610b99565b9050919050565b5f81519050610be7816108e4565b92915050565b5f60208284031215610c0257610c016108d7565b5b5f610c0f84828501610bd9565b91505092915050565b7f696e73756666696369656e742062616c616e63650000000000000000000000005f82015250565b5f610c4c601483610af9565b9150610c5782610c18565b602082019050919050565b5f6020820190508181035f830152610c7981610c40565b9050919050565b5f606082019050610c935f830186610969565b610ca06020830185610969565b610cad6040830184610a7c565b949350505050565b5f8115159050919050565b610cc981610cb5565b8114610cd3575f80fd5b50565b5f81519050610ce481610cc0565b92915050565b5f60208284031215610cff57610cfe6108d7565b5b5f610d0c84828501610cd6565b91505092915050565b5f81519050919050565b5f81905092915050565b8281835e5f83830152505050565b5f610d4182610d15565b610d4b8185610d1f565b9350610d5b818560208601610d29565b80840191505092915050565b5f610d728284610d37565b91508190509291505056fea264697066735822122003793d856da8b2336c90e27b4ff98d4280da861a20acac37e8802369f884086d64736f6c634300081a0033",
					"opcodes": "PUSH1 0x80 PUSH1 0x40 MSTORE CALLVALUE DUP1 ISZERO PUSH2 0xF JUMPI PUSH0 DUP1 REVERT JUMPDEST POP PUSH1 0x40 MLOAD PUSH2 0xF5F CODESIZE SUB DUP1 PUSH2 0xF5F DUP4 CODECOPY DUP2 DUP2 ADD PUSH1 0x40 MSTORE DUP2 ADD SWAP1 PUSH2 0x31 SWAP2 SWAP1 PUSH2 0x161 JUMP JUMPDEST DUP2 PUSH0 DUP1 PUSH2 0x100 EXP DUP2 SLOAD DUP2 PUSH20 0xFFFFFFFFFFFFFFFFFFFFFFFFFFFFFFFFFFFFFFFF MUL NOT AND SWAP1 DUP4 PUSH20 0xFFFFFFFFFFFFFFFFFFFFFFFFFFFFFFFFFFFFFFFF AND MUL OR SWAP1 SSTORE POP DUP1 PUSH1 0x1 PUSH0 PUSH2 0x100 EXP DUP2 SLOAD DUP2 PUSH20 0xFFFFFFFFFFFFFFFFFFFFFFFFFFFFFFFFFFFFFFFF MUL NOT AND SWAP1 DUP4 PUSH20 0xFFFFFFFFFFFFFFFFFFFFFFFFFFFFFFFFFFFFFFFF AND MUL OR SWAP1 SSTORE POP POP POP PUSH2 0x19F JUMP JUMPDEST PUSH0 DUP1 REVERT JUMPDEST PUSH0 PUSH20 0xFFFFFFFFFFFFFFFFFFFFFFFFFFFFFFFFFFFFFFFF DUP3 AND SWAP1 POP SWAP2 SWAP1 POP JUMP JUMPDEST PUSH0 PUSH2 0xE4 DUP3 PUSH2 0xBB JUMP JUMPDEST SWAP1 POP SWAP2 SWAP1 POP JUMP JUMPDEST PUSH0 PUSH2 0xF5 DUP3 PUSH2 0xDA JUMP JUMPDEST SWAP1 POP SWAP2 SWAP1 POP JUMP JUMPDEST PUSH2 0x105 DUP2 PUSH2 0xEB JUMP JUMPDEST DUP2 EQ PUSH2 0x10F JUMPI PUSH0 DUP1 REVERT JUMPDEST POP JUMP JUMPDEST PUSH0 DUP2 MLOAD SWAP1 POP PUSH2 0x120 DUP2 PUSH2 0xFC JUMP JUMPDEST SWAP3 SWAP2 POP POP JUMP JUMPDEST PUSH0 PUSH2 0x130 DUP3 PUSH2 0xDA JUMP JUMPDEST SWAP1 POP SWAP2 SWAP1 POP JUMP JUMPDEST PUSH2 0x140 DUP2 PUSH2 0x126 JUMP JUMPDEST DUP2 EQ PUSH2 0x14A JUMPI PUSH0 DUP1 REVERT JUMPDEST POP JUMP JUMPDEST PUSH0 DUP2 MLOAD SWAP1 POP PUSH2 0x15B DUP2 PUSH2 0x137 JUMP JUMPDEST SWAP3 SWAP2 POP POP JUMP JUMPDEST PUSH0 DUP1 PUSH1 0x40 DUP4 DUP6 SUB SLT ISZERO PUSH2 0x177 JUMPI PUSH2 0x176 PUSH2 0xB7 JUMP JUMPDEST JUMPDEST PUSH0 PUSH2 0x184 DUP6 DUP3 DUP7 ADD PUSH2 0x112 JUMP JUMPDEST SWAP3 POP POP PUSH1 0x20 PUSH2 0x195 DUP6 DUP3 DUP7 ADD PUSH2 0x14D JUMP JUMPDEST SWAP2 POP POP SWAP3 POP SWAP3 SWAP1 POP JUMP JUMPDEST PUSH2 0xDB3 DUP1 PUSH2 0x1AC PUSH0 CODECOPY PUSH0 RETURN INVALID PUSH1 0x80 PUSH1 0x40 MSTORE CALLVALUE DUP1 ISZERO PUSH2 0xF JUMPI PUSH0 DUP1 REVERT JUMPDEST POP PUSH1 0x4 CALLDATASIZE LT PUSH2 0x60 JUMPI PUSH0 CALLDATALOAD PUSH1 0xE0 SHR DUP1 PUSH4 0x1CAAA487 EQ PUSH2 0x64 JUMPI DUP1 PUSH4 0x50FD7367 EQ PUSH2 0x94 JUMPI DUP1 PUSH4 0x51ED8288 EQ PUSH2 0xB0 JUMPI DUP1 PUSH4 0x785E9E86 EQ PUSH2 0xCC JUMPI DUP1 PUSH4 0xBCA6CE64 EQ PUSH2 0xEA JUMPI DUP1 PUSH4 0xD4DDCE8A EQ PUSH2 0x108 JUMPI JUMPDEST PUSH0 DUP1 REVERT JUMPDEST PUSH2 0x7E PUSH1 0x4 DUP1 CALLDATASIZE SUB DUP2 ADD SWAP1 PUSH2 0x79 SWAP2 SWAP1 PUSH2 0x90E JUMP JUMPDEST PUSH2 0x138 JUMP JUMPDEST PUSH1 0x40 MLOAD PUSH2 0x8B SWAP2 SWAP1 PUSH2 0x978 JUMP JUMPDEST PUSH1 0x40 MLOAD DUP1 SWAP2 SUB SWAP1 RETURN JUMPDEST PUSH2 0xAE PUSH1 0x4 DUP1 CALLDATASIZE SUB DUP2 ADD SWAP1 PUSH2 0xA9 SWAP2 SWAP1 PUSH2 0x991 JUMP JUMPDEST PUSH2 0x168 JUMP JUMPDEST STOP JUMPDEST PUSH2 0xCA PUSH1 0x4 DUP1 CALLDATASIZE SUB DUP2 ADD SWAP1 PUSH2 0xC5 SWAP2 SWAP1 PUSH2 0x90E JUMP JUMPDEST PUSH2 0x2D5 JUMP JUMPDEST STOP JUMPDEST PUSH2 0xD4 PUSH2 0x5B4 JUMP JUMPDEST PUSH1 0x40 MLOAD PUSH2 0xE1 SWAP2 SWAP1 PUSH2 0xA2A JUMP JUMPDEST PUSH1 0x40 MLOAD DUP1 SWAP2 SUB SWAP1 RETURN JUMPDEST PUSH2 0xF2 PUSH2 0x5D9 JUMP JUMPDEST PUSH1 0x40 MLOAD PUSH2 0xFF SWAP2 SWAP1 PUSH2 0xA63 JUMP JUMPDEST PUSH1 0x40 MLOAD DUP1 SWAP2 SUB SWAP1 RETURN JUMPDEST PUSH2 0x122 PUSH1 0x4 DUP1 CALLDATASIZE SUB DUP2 ADD SWAP1 PUSH2 0x11D SWAP2 SWAP1 PUSH2 0x90E JUMP JUMPDEST PUSH2 0x5FC JUMP JUMPDEST PUSH1 0x40 MLOAD PUSH2 0x12F SWAP2 SWAP1 PUSH2 0xA8B JUMP JUMPDEST PUSH1 0x40 MLOAD DUP1 SWAP2 SUB SWAP1 RETURN JUMPDEST PUSH1 0x3 PUSH1 0x20 MSTORE DUP1 PUSH0 MSTORE PUSH1 0x40 PUSH0 KECCAK256 PUSH0 SWAP2 POP SLOAD SWAP1 PUSH2 0x100 EXP SWAP1 DIV PUSH20 0xFFFFFFFFFFFFFFFFFFFFFFFFFFFFFFFFFFFFFFFF AND DUP2 JUMP JUMPDEST CALLER PUSH20 0xFFFFFFFFFFFFFFFFFFFFFFFFFFFFFFFFFFFFFFFF AND PUSH0 DUP1 SLOAD SWAP1 PUSH2 0x100 EXP SWAP1 DIV PUSH20 0xFFFFFFFFFFFFFFFFFFFFFFFFFFFFFFFFFFFFFFFF AND PUSH20 0xFFFFFFFFFFFFFFFFFFFFFFFFFFFFFFFFFFFFFFFF AND PUSH4 0x6352211E DUP5 PUSH1 0x40 MLOAD DUP3 PUSH4 0xFFFFFFFF AND PUSH1 0xE0 SHL DUP2 MSTORE PUSH1 0x4 ADD PUSH2 0x1D7 SWAP2 SWAP1 PUSH2 0xA8B JUMP JUMPDEST PUSH1 0x20 PUSH1 0x40 MLOAD DUP1 DUP4 SUB DUP2 DUP7 GAS STATICCALL ISZERO DUP1 ISZERO PUSH2 0x1F2 JUMPI RETURNDATASIZE PUSH0 DUP1 RETURNDATACOPY RETURNDATASIZE PUSH0 REVERT JUMPDEST POP POP POP POP PUSH1 0x40 MLOAD RETURNDATASIZE PUSH1 0x1F NOT PUSH1 0x1F DUP3 ADD AND DUP3 ADD DUP1 PUSH1 0x40 MSTORE POP DUP2 ADD SWAP1 PUSH2 0x216 SWAP2 SWAP1 PUSH2 0xACE JUMP JUMPDEST PUSH20 0xFFFFFFFFFFFFFFFFFFFFFFFFFFFFFFFFFFFFFFFF AND EQ PUSH2 0x26C JUMPI PUSH1 0x40 MLOAD PUSH32 0x8C379A000000000000000000000000000000000000000000000000000000000 DUP2 MSTORE PUSH1 0x4 ADD PUSH2 0x263 SWAP1 PUSH2 0xB53 JUMP JUMPDEST PUSH1 0x40 MLOAD DUP1 SWAP2 SUB SWAP1 REVERT JUMPDEST DUP1 PUSH1 0x2 PUSH0 DUP5 DUP2 MSTORE PUSH1 0x20 ADD SWAP1 DUP2 MSTORE PUSH1 0x20 ADD PUSH0 KECCAK256 DUP2 SWAP1 SSTORE POP CALLER PUSH1 0x3 PUSH0 DUP5 DUP2 MSTORE PUSH1 0x20 ADD SWAP1 DUP2 MSTORE PUSH1 0x20 ADD PUSH0 KECCAK256 PUSH0 PUSH2 0x100 EXP DUP2 SLOAD DUP2 PUSH20 0xFFFFFFFFFFFFFFFFFFFFFFFFFFFFFFFFFFFFFFFF MUL NOT AND SWAP1 DUP4 PUSH20 0xFFFFFFFFFFFFFFFFFFFFFFFFFFFFFFFFFFFFFFFF AND MUL OR SWAP1 SSTORE POP POP POP JUMP JUMPDEST PUSH0 PUSH1 0x2 PUSH0 DUP4 DUP2 MSTORE PUSH1 0x20 ADD SWAP1 DUP2 MSTORE PUSH1 0x20 ADD PUSH0 KECCAK256 SLOAD SWAP1 POP PUSH0 PUSH1 0x3 PUSH0 DUP5 DUP2 MSTORE PUSH1 0x20 ADD SWAP1 DUP2 MSTORE PUSH1 0x20 ADD PUSH0 KECCAK256 PUSH0 SWAP1 SLOAD SWAP1 PUSH2 0x100 EXP SWAP1 DIV PUSH20 0xFFFFFFFFFFFFFFFFFFFFFFFFFFFFFFFFFFFFFFFF AND SWAP1 POP PUSH0 DUP3 GT DUP1 ISZERO PUSH2 0x359 JUMPI POP PUSH0 PUSH20 0xFFFFFFFFFFFFFFFFFFFFFFFFFFFFFFFFFFFFFFFF AND DUP2 PUSH20 0xFFFFFFFFFFFFFFFFFFFFFFFFFFFFFFFFFFFFFFFF AND EQ ISZERO JUMPDEST PUSH2 0x398 JUMPI PUSH1 0x40 MLOAD PUSH32 0x8C379A000000000000000000000000000000000000000000000000000000000 DUP2 MSTORE PUSH1 0x4 ADD PUSH2 0x38F SWAP1 PUSH2 0xBBB JUMP JUMPDEST PUSH1 0x40 MLOAD DUP1 SWAP2 SUB SWAP1 REVERT JUMPDEST DUP2 PUSH1 0x1 PUSH0 SWAP1 SLOAD SWAP1 PUSH2 0x100 EXP SWAP1 DIV PUSH20 0xFFFFFFFFFFFFFFFFFFFFFFFFFFFFFFFFFFFFFFFF AND PUSH20 0xFFFFFFFFFFFFFFFFFFFFFFFFFFFFFFFFFFFFFFFF AND PUSH4 0x70A08231 CALLER PUSH1 0x40 MLOAD DUP3 PUSH4 0xFFFFFFFF AND PUSH1 0xE0 SHL DUP2 MSTORE PUSH1 0x4 ADD PUSH2 0x3F3 SWAP2 SWAP1 PUSH2 0x978 JUMP JUMPDEST PUSH1 0x20 PUSH1 0x40 MLOAD DUP1 DUP4 SUB DUP2 DUP7 GAS STATICCALL ISZERO DUP1 ISZERO PUSH2 0x40E JUMPI RETURNDATASIZE PUSH0 DUP1 RETURNDATACOPY RETURNDATASIZE PUSH0 REVERT JUMPDEST POP POP POP POP PUSH1 0x40 MLOAD RETURNDATASIZE PUSH1 0x1F NOT PUSH1 0x1F DUP3 ADD AND DUP3 ADD DUP1 PUSH1 0x40 MSTORE POP DUP2 ADD SWAP1 PUSH2 0x432 SWAP2 SWAP1 PUSH2 0xBED JUMP JUMPDEST LT ISZERO PUSH2 0x473 JUMPI PUSH1 0x40 MLOAD PUSH32 0x8C379A000000000000000000000000000000000000000000000000000000000 DUP2 MSTORE PUSH1 0x4 ADD PUSH2 0x46A SWAP1 PUSH2 0xC62 JUMP JUMPDEST PUSH1 0x40 MLOAD DUP1 SWAP2 SUB SWAP1 REVERT JUMPDEST PUSH2 0x4C1 CALLER DUP3 DUP5 PUSH1 0x1 PUSH0 SWAP1 SLOAD SWAP1 PUSH2 0x100 EXP SWAP1 DIV PUSH20 0xFFFFFFFFFFFFFFFFFFFFFFFFFFFFFFFFFFFFFFFF AND PUSH20 0xFFFFFFFFFFFFFFFFFFFFFFFFFFFFFFFFFFFFFFFF AND PUSH2 0x611 SWAP1 SWAP4 SWAP3 SWAP2 SWAP1 PUSH4 0xFFFFFFFF AND JUMP JUMPDEST PUSH0 DUP1 SLOAD SWAP1 PUSH2 0x100 EXP SWAP1 DIV PUSH20 0xFFFFFFFFFFFFFFFFFFFFFFFFFFFFFFFFFFFFFFFF AND PUSH20 0xFFFFFFFFFFFFFFFFFFFFFFFFFFFFFFFFFFFFFFFF AND PUSH4 0x42842E0E DUP3 CALLER DUP7 PUSH1 0x40 MLOAD DUP5 PUSH4 0xFFFFFFFF AND PUSH1 0xE0 SHL DUP2 MSTORE PUSH1 0x4 ADD PUSH2 0x51D SWAP4 SWAP3 SWAP2 SWAP1 PUSH2 0xC80 JUMP JUMPDEST PUSH0 PUSH1 0x40 MLOAD DUP1 DUP4 SUB DUP2 PUSH0 DUP8 DUP1 EXTCODESIZE ISZERO DUP1 ISZERO PUSH2 0x534 JUMPI PUSH0 DUP1 REVERT JUMPDEST POP GAS CALL ISZERO DUP1 ISZERO PUSH2 0x546 JUMPI RETURNDATASIZE PUSH0 DUP1 RETURNDATACOPY RETURNDATASIZE PUSH0 REVERT JUMPDEST POP POP POP POP PUSH0 PUSH1 0x2 PUSH0 DUP6 DUP2 MSTORE PUSH1 0x20 ADD SWAP1 DUP2 MSTORE PUSH1 0x20 ADD PUSH0 KECCAK256 DUP2 SWAP1 SSTORE POP PUSH0 PUSH1 0x3 PUSH0 DUP6 DUP2 MSTORE PUSH1 0x20 ADD SWAP1 DUP2 MSTORE PUSH1 0x20 ADD PUSH0 KECCAK256 PUSH0 PUSH2 0x100 EXP DUP2 SLOAD DUP2 PUSH20 0xFFFFFFFFFFFFFFFFFFFFFFFFFFFFFFFFFFFFFFFF MUL NOT AND SWAP1 DUP4 PUSH20 0xFFFFFFFFFFFFFFFFFFFFFFFFFFFFFFFFFFFFFFFF AND MUL OR SWAP1 SSTORE POP POP POP POP JUMP JUMPDEST PUSH1 0x1 PUSH0 SWAP1 SLOAD SWAP1 PUSH2 0x100 EXP SWAP1 DIV PUSH20 0xFFFFFFFFFFFFFFFFFFFFFFFFFFFFFFFFFFFFFFFF AND DUP2 JUMP JUMPDEST PUSH0 DUP1 SLOAD SWAP1 PUSH2 0x100 EXP SWAP1 DIV PUSH20 0xFFFFFFFFFFFFFFFFFFFFFFFFFFFFFFFFFFFFFFFF AND DUP2 JUMP JUMPDEST PUSH1 0x2 PUSH1 0x20 MSTORE DUP1 PUSH0 MSTORE PUSH1 0x40 PUSH0 KECCAK256 PUSH0 SWAP2 POP SWAP1 POP SLOAD DUP2 JUMP JUMPDEST PUSH2 0x68D DUP5 DUP6 PUSH20 0xFFFFFFFFFFFFFFFFFFFFFFFFFFFFFFFFFFFFFFFF AND PUSH4 0x23B872DD DUP7 DUP7 DUP7 PUSH1 0x40 MLOAD PUSH1 0x24 ADD PUSH2 0x646 SWAP4 SWAP3 SWAP2 SWAP1 PUSH2 0xC80 JUMP JUMPDEST PUSH1 0x40 MLOAD PUSH1 0x20 DUP2 DUP4 SUB SUB DUP2 MSTORE SWAP1 PUSH1 0x40 MSTORE SWAP2 POP PUSH1 0xE0 SHL PUSH1 0x20 DUP3 ADD DUP1 MLOAD PUSH28 0xFFFFFFFFFFFFFFFFFFFFFFFFFFFFFFFFFFFFFFFFFFFFFFFFFFFFFFFF DUP4 DUP2 DUP4 AND OR DUP4 MSTORE POP POP POP POP PUSH2 0x693 JUMP JUMPDEST POP POP POP POP JUMP JUMPDEST PUSH0 PUSH2 0x6BD DUP3 DUP5 PUSH20 0xFFFFFFFFFFFFFFFFFFFFFFFFFFFFFFFFFFFFFFFF AND PUSH2 0x728 SWAP1 SWAP2 SWAP1 PUSH4 0xFFFFFFFF AND JUMP JUMPDEST SWAP1 POP PUSH0 DUP2 MLOAD EQ ISZERO DUP1 ISZERO PUSH2 0x6E1 JUMPI POP DUP1 DUP1 PUSH1 0x20 ADD SWAP1 MLOAD DUP2 ADD SWAP1 PUSH2 0x6DF SWAP2 SWAP1 PUSH2 0xCEA JUMP JUMPDEST ISZERO JUMPDEST ISZERO PUSH2 0x723 JUMPI DUP3 PUSH1 0x40 MLOAD PUSH32 0x5274AFE700000000000000000000000000000000000000000000000000000000 DUP2 MSTORE PUSH1 0x4 ADD PUSH2 0x71A SWAP2 SWAP1 PUSH2 0x978 JUMP JUMPDEST PUSH1 0x40 MLOAD DUP1 SWAP2 SUB SWAP1 REVERT JUMPDEST POP POP POP JUMP JUMPDEST PUSH1 0x60 PUSH2 0x735 DUP4 DUP4 PUSH0 PUSH2 0x73D JUMP JUMPDEST SWAP1 POP SWAP3 SWAP2 POP POP JUMP JUMPDEST PUSH1 0x60 DUP2 SELFBALANCE LT ISZERO PUSH2 0x784 JUMPI ADDRESS PUSH1 0x40 MLOAD PUSH32 0xCD78605900000000000000000000000000000000000000000000000000000000 DUP2 MSTORE PUSH1 0x4 ADD PUSH2 0x77B SWAP2 SWAP1 PUSH2 0x978 JUMP JUMPDEST PUSH1 0x40 MLOAD DUP1 SWAP2 SUB SWAP1 REVERT JUMPDEST PUSH0 DUP1 DUP6 PUSH20 0xFFFFFFFFFFFFFFFFFFFFFFFFFFFFFFFFFFFFFFFF AND DUP5 DUP7 PUSH1 0x40 MLOAD PUSH2 0x7AC SWAP2 SWAP1 PUSH2 0xD67 JUMP JUMPDEST PUSH0 PUSH1 0x40 MLOAD DUP1 DUP4 SUB DUP2 DUP6 DUP8 GAS CALL SWAP3 POP POP POP RETURNDATASIZE DUP1 PUSH0 DUP2 EQ PUSH2 0x7E6 JUMPI PUSH1 0x40 MLOAD SWAP2 POP PUSH1 0x1F NOT PUSH1 0x3F RETURNDATASIZE ADD AND DUP3 ADD PUSH1 0x40 MSTORE RETURNDATASIZE DUP3 MSTORE RETURNDATASIZE PUSH0 PUSH1 0x20 DUP5 ADD RETURNDATACOPY PUSH2 0x7EB JUMP JUMPDEST PUSH1 0x60 SWAP2 POP JUMPDEST POP SWAP2 POP SWAP2 POP PUSH2 0x7FB DUP7 DUP4 DUP4 PUSH2 0x806 JUMP JUMPDEST SWAP3 POP POP POP SWAP4 SWAP3 POP POP POP JUMP JUMPDEST PUSH1 0x60 DUP3 PUSH2 0x81B JUMPI PUSH2 0x816 DUP3 PUSH2 0x893 JUMP JUMPDEST PUSH2 0x88B JUMP JUMPDEST PUSH0 DUP3 MLOAD EQ DUP1 ISZERO PUSH2 0x841 JUMPI POP PUSH0 DUP5 PUSH20 0xFFFFFFFFFFFFFFFFFFFFFFFFFFFFFFFFFFFFFFFF AND EXTCODESIZE EQ JUMPDEST ISZERO PUSH2 0x883 JUMPI DUP4 PUSH1 0x40 MLOAD PUSH32 0x9996B31500000000000000000000000000000000000000000000000000000000 DUP2 MSTORE PUSH1 0x4 ADD PUSH2 0x87A SWAP2 SWAP1 PUSH2 0x978 JUMP JUMPDEST PUSH1 0x40 MLOAD DUP1 SWAP2 SUB SWAP1 REVERT JUMPDEST DUP2 SWAP1 POP PUSH2 0x88C JUMP JUMPDEST JUMPDEST SWAP4 SWAP3 POP POP POP JUMP JUMPDEST PUSH0 DUP2 MLOAD GT ISZERO PUSH2 0x8A5 JUMPI DUP1 MLOAD DUP1 DUP3 PUSH1 0x20 ADD REVERT JUMPDEST PUSH1 0x40 MLOAD PUSH32 0x1425EA4200000000000000000000000000000000000000000000000000000000 DUP2 MSTORE PUSH1 0x4 ADD PUSH1 0x40 MLOAD DUP1 SWAP2 SUB SWAP1 REVERT JUMPDEST PUSH0 DUP1 REVERT JUMPDEST PUSH0 DUP2 SWAP1 POP SWAP2 SWAP1 POP JUMP JUMPDEST PUSH2 0x8ED DUP2 PUSH2 0x8DB JUMP JUMPDEST DUP2 EQ PUSH2 0x8F7 JUMPI PUSH0 DUP1 REVERT JUMPDEST POP JUMP JUMPDEST PUSH0 DUP2 CALLDATALOAD SWAP1 POP PUSH2 0x908 DUP2 PUSH2 0x8E4 JUMP JUMPDEST SWAP3 SWAP2 POP POP JUMP JUMPDEST PUSH0 PUSH1 0x20 DUP3 DUP5 SUB SLT ISZERO PUSH2 0x923 JUMPI PUSH2 0x922 PUSH2 0x8D7 JUMP JUMPDEST JUMPDEST PUSH0 PUSH2 0x930 DUP5 DUP3 DUP6 ADD PUSH2 0x8FA JUMP JUMPDEST SWAP2 POP POP SWAP3 SWAP2 POP POP JUMP JUMPDEST PUSH0 PUSH20 0xFFFFFFFFFFFFFFFFFFFFFFFFFFFFFFFFFFFFFFFF DUP3 AND SWAP1 POP SWAP2 SWAP1 POP JUMP JUMPDEST PUSH0 PUSH2 0x962 DUP3 PUSH2 0x939 JUMP JUMPDEST SWAP1 POP SWAP2 SWAP1 POP JUMP JUMPDEST PUSH2 0x972 DUP2 PUSH2 0x958 JUMP JUMPDEST DUP3 MSTORE POP POP JUMP JUMPDEST PUSH0 PUSH1 0x20 DUP3 ADD SWAP1 POP PUSH2 0x98B PUSH0 DUP4 ADD DUP5 PUSH2 0x969 JUMP JUMPDEST SWAP3 SWAP2 POP POP JUMP JUMPDEST PUSH0 DUP1 PUSH1 0x40 DUP4 DUP6 SUB SLT ISZERO PUSH2 0x9A7 JUMPI PUSH2 0x9A6 PUSH2 0x8D7 JUMP JUMPDEST JUMPDEST PUSH0 PUSH2 0x9B4 DUP6 DUP3 DUP7 ADD PUSH2 0x8FA JUMP JUMPDEST SWAP3 POP POP PUSH1 0x20 PUSH2 0x9C5 DUP6 DUP3 DUP7 ADD PUSH2 0x8FA JUMP JUMPDEST SWAP2 POP POP SWAP3 POP SWAP3 SWAP1 POP JUMP JUMPDEST PUSH0 DUP2 SWAP1 POP SWAP2 SWAP1 POP JUMP JUMPDEST PUSH0 PUSH2 0x9F2 PUSH2 0x9ED PUSH2 0x9E8 DUP5 PUSH2 0x939 JUMP JUMPDEST PUSH2 0x9CF JUMP JUMPDEST PUSH2 0x939 JUMP JUMPDEST SWAP1 POP SWAP2 SWAP1 POP JUMP JUMPDEST PUSH0 PUSH2 0xA03 DUP3 PUSH2 0x9D8 JUMP JUMPDEST SWAP1 POP SWAP2 SWAP1 POP JUMP JUMPDEST PUSH0 PUSH2 0xA14 DUP3 PUSH2 0x9F9 JUMP JUMPDEST SWAP1 POP SWAP2 SWAP1 POP JUMP JUMPDEST PUSH2 0xA24 DUP2 PUSH2 0xA0A JUMP JUMPDEST DUP3 MSTORE POP POP JUMP JUMPDEST PUSH0 PUSH1 0x20 DUP3 ADD SWAP1 POP PUSH2 0xA3D PUSH0 DUP4 ADD DUP5 PUSH2 0xA1B JUMP JUMPDEST SWAP3 SWAP2 POP POP JUMP JUMPDEST PUSH0 PUSH2 0xA4D DUP3 PUSH2 0x9F9 JUMP JUMPDEST SWAP1 POP SWAP2 SWAP1 POP JUMP JUMPDEST PUSH2 0xA5D DUP2 PUSH2 0xA43 JUMP JUMPDEST DUP3 MSTORE POP POP JUMP JUMPDEST PUSH0 PUSH1 0x20 DUP3 ADD SWAP1 POP PUSH2 0xA76 PUSH0 DUP4 ADD DUP5 PUSH2 0xA54 JUMP JUMPDEST SWAP3 SWAP2 POP POP JUMP JUMPDEST PUSH2 0xA85 DUP2 PUSH2 0x8DB JUMP JUMPDEST DUP3 MSTORE POP POP JUMP JUMPDEST PUSH0 PUSH1 0x20 DUP3 ADD SWAP1 POP PUSH2 0xA9E PUSH0 DUP4 ADD DUP5 PUSH2 0xA7C JUMP JUMPDEST SWAP3 SWAP2 POP POP JUMP JUMPDEST PUSH2 0xAAD DUP2 PUSH2 0x958 JUMP JUMPDEST DUP2 EQ PUSH2 0xAB7 JUMPI PUSH0 DUP1 REVERT JUMPDEST POP JUMP JUMPDEST PUSH0 DUP2 MLOAD SWAP1 POP PUSH2 0xAC8 DUP2 PUSH2 0xAA4 JUMP JUMPDEST SWAP3 SWAP2 POP POP JUMP JUMPDEST PUSH0 PUSH1 0x20 DUP3 DUP5 SUB SLT ISZERO PUSH2 0xAE3 JUMPI PUSH2 0xAE2 PUSH2 0x8D7 JUMP JUMPDEST JUMPDEST PUSH0 PUSH2 0xAF0 DUP5 DUP3 DUP6 ADD PUSH2 0xABA JUMP JUMPDEST SWAP2 POP POP SWAP3 SWAP2 POP POP JUMP JUMPDEST PUSH0 DUP3 DUP3 MSTORE PUSH1 0x20 DUP3 ADD SWAP1 POP SWAP3 SWAP2 POP POP JUMP JUMPDEST PUSH32 0x6E6F74204E4654206F776E657200000000000000000000000000000000000000 PUSH0 DUP3 ADD MSTORE POP JUMP JUMPDEST PUSH0 PUSH2 0xB3D PUSH1 0xD DUP4 PUSH2 0xAF9 JUMP JUMPDEST SWAP2 POP PUSH2 0xB48 DUP3 PUSH2 0xB09 JUMP JUMPDEST PUSH1 0x20 DUP3 ADD SWAP1 POP SWAP2 SWAP1 POP JUMP JUMPDEST PUSH0 PUSH1 0x20 DUP3 ADD SWAP1 POP DUP2 DUP2 SUB PUSH0 DUP4 ADD MSTORE PUSH2 0xB6A DUP2 PUSH2 0xB31 JUMP JUMPDEST SWAP1 POP SWAP2 SWAP1 POP JUMP JUMPDEST PUSH32 0x4E4654206E6F74206C6973740000000000000000000000000000000000000000 PUSH0 DUP3 ADD MSTORE POP JUMP JUMPDEST PUSH0 PUSH2 0xBA5 PUSH1 0xC DUP4 PUSH2 0xAF9 JUMP JUMPDEST SWAP2 POP PUSH2 0xBB0 DUP3 PUSH2 0xB71 JUMP JUMPDEST PUSH1 0x20 DUP3 ADD SWAP1 POP SWAP2 SWAP1 POP JUMP JUMPDEST PUSH0 PUSH1 0x20 DUP3 ADD SWAP1 POP DUP2 DUP2 SUB PUSH0 DUP4 ADD MSTORE PUSH2 0xBD2 DUP2 PUSH2 0xB99 JUMP JUMPDEST SWAP1 POP SWAP2 SWAP1 POP JUMP JUMPDEST PUSH0 DUP2 MLOAD SWAP1 POP PUSH2 0xBE7 DUP2 PUSH2 0x8E4 JUMP JUMPDEST SWAP3 SWAP2 POP POP JUMP JUMPDEST PUSH0 PUSH1 0x20 DUP3 DUP5 SUB SLT ISZERO PUSH2 0xC02 JUMPI PUSH2 0xC01 PUSH2 0x8D7 JUMP JUMPDEST JUMPDEST PUSH0 PUSH2 0xC0F DUP5 DUP3 DUP6 ADD PUSH2 0xBD9 JUMP JUMPDEST SWAP2 POP POP SWAP3 SWAP2 POP POP JUMP JUMPDEST PUSH32 0x696E73756666696369656E742062616C616E6365000000000000000000000000 PUSH0 DUP3 ADD MSTORE POP JUMP JUMPDEST PUSH0 PUSH2 0xC4C PUSH1 0x14 DUP4 PUSH2 0xAF9 JUMP JUMPDEST SWAP2 POP PUSH2 0xC57 DUP3 PUSH2 0xC18 JUMP JUMPDEST PUSH1 0x20 DUP3 ADD SWAP1 POP SWAP2 SWAP1 POP JUMP JUMPDEST PUSH0 PUSH1 0x20 DUP3 ADD SWAP1 POP DUP2 DUP2 SUB PUSH0 DUP4 ADD MSTORE PUSH2 0xC79 DUP2 PUSH2 0xC40 JUMP JUMPDEST SWAP1 POP SWAP2 SWAP1 POP JUMP JUMPDEST PUSH0 PUSH1 0x60 DUP3 ADD SWAP1 POP PUSH2 0xC93 PUSH0 DUP4 ADD DUP7 PUSH2 0x969 JUMP JUMPDEST PUSH2 0xCA0 PUSH1 0x20 DUP4 ADD DUP6 PUSH2 0x969 JUMP JUMPDEST PUSH2 0xCAD PUSH1 0x40 DUP4 ADD DUP5 PUSH2 0xA7C JUMP JUMPDEST SWAP5 SWAP4 POP POP POP POP JUMP JUMPDEST PUSH0 DUP2 ISZERO ISZERO SWAP1 POP SWAP2 SWAP1 POP JUMP JUMPDEST PUSH2 0xCC9 DUP2 PUSH2 0xCB5 JUMP JUMPDEST DUP2 EQ PUSH2 0xCD3 JUMPI PUSH0 DUP1 REVERT JUMPDEST POP JUMP JUMPDEST PUSH0 DUP2 MLOAD SWAP1 POP PUSH2 0xCE4 DUP2 PUSH2 0xCC0 JUMP JUMPDEST SWAP3 SWAP2 POP POP JUMP JUMPDEST PUSH0 PUSH1 0x20 DUP3 DUP5 SUB SLT ISZERO PUSH2 0xCFF JUMPI PUSH2 0xCFE PUSH2 0x8D7 JUMP JUMPDEST JUMPDEST PUSH0 PUSH2 0xD0C DUP5 DUP3 DUP6 ADD PUSH2 0xCD6 JUMP JUMPDEST SWAP2 POP POP SWAP3 SWAP2 POP POP JUMP JUMPDEST PUSH0 DUP2 MLOAD SWAP1 POP SWAP2 SWAP1 POP JUMP JUMPDEST PUSH0 DUP2 SWAP1 POP SWAP3 SWAP2 POP POP JUMP JUMPDEST DUP3 DUP2 DUP4 MCOPY PUSH0 DUP4 DUP4 ADD MSTORE POP POP POP JUMP JUMPDEST PUSH0 PUSH2 0xD41 DUP3 PUSH2 0xD15 JUMP JUMPDEST PUSH2 0xD4B DUP2 DUP6 PUSH2 0xD1F JUMP JUMPDEST SWAP4 POP PUSH2 0xD5B DUP2 DUP6 PUSH1 0x20 DUP7 ADD PUSH2 0xD29 JUMP JUMPDEST DUP1 DUP5 ADD SWAP2 POP POP SWAP3 SWAP2 POP POP JUMP JUMPDEST PUSH0 PUSH2 0xD72 DUP3 DUP5 PUSH2 0xD37 JUMP JUMPDEST SWAP2 POP DUP2 SWAP1 POP SWAP3 SWAP2 POP POP JUMP INVALID LOG2 PUSH5 0x6970667358 0x22 SLT KECCAK256 SUB PUSH26 0x3D856DA8B2336C90E27B4FF98D4280DA861A20ACAC37E8802369 0xF8 DUP5 ADDMOD PUSH14 0x64736F6C634300081A0033000000 "
				},
				"gasEstimates": {
					"creation": {
						"codeDepositCost": "701400",
						"executionCost": "infinite",
						"totalCost": "infinite"
					},
					"external": {
						"buyNFT(uint256)": "infinite",
						"erc20()": "infinite",
						"erc721()": "infinite",
						"list(uint256,uint256)": "infinite",
						"tokenOwner(uint256)": "2805",
						"tokenPrice(uint256)": "infinite"
					}
				},
				"methodIdentifiers": {
					"buyNFT(uint256)": "51ed8288",
					"erc20()": "785e9e86",
					"erc721()": "bca6ce64",
					"list(uint256,uint256)": "50fd7367",
					"tokenOwner(uint256)": "1caaa487",
					"tokenPrice(uint256)": "d4ddce8a"
				}
			},
			"storageLayout": {
				"storage": [
					{
						"astId": 3617,
						"contract": "MyERC721Market.sol:MyERC721Market",
						"label": "erc721",
						"offset": 0,
						"slot": "0",
						"type": "t_contract(ERC721URIStorage)1842"
					},
					{
						"astId": 3620,
						"contract": "MyERC721Market.sol:MyERC721Market",
						"label": "erc20",
						"offset": 0,
						"slot": "1",
						"type": "t_contract(IERC20)246"
					},
					{
						"astId": 3624,
						"contract": "MyERC721Market.sol:MyERC721Market",
						"label": "tokenPrice",
						"offset": 0,
						"slot": "2",
						"type": "t_mapping(t_uint256,t_uint256)"
					},
					{
						"astId": 3628,
						"contract": "MyERC721Market.sol:MyERC721Market",
						"label": "tokenOwner",
						"offset": 0,
						"slot": "3",
						"type": "t_mapping(t_uint256,t_address)"
					}
				],
				"types": {
					"t_address": {
						"encoding": "inplace",
						"label": "address",
						"numberOfBytes": "20"
					},
					"t_contract(ERC721URIStorage)1842": {
						"encoding": "inplace",
						"label": "contract ERC721URIStorage",
						"numberOfBytes": "20"
					},
					"t_contract(IERC20)246": {
						"encoding": "inplace",
						"label": "contract IERC20",
						"numberOfBytes": "20"
					},
					"t_mapping(t_uint256,t_address)": {
						"encoding": "mapping",
						"key": "t_uint256",
						"label": "mapping(uint256 => address)",
						"numberOfBytes": "32",
						"value": "t_address"
					},
					"t_mapping(t_uint256,t_uint256)": {
						"encoding": "mapping",
						"key": "t_uint256",
						"label": "mapping(uint256 => uint256)",
						"numberOfBytes": "32",
						"value": "t_uint256"
					},
					"t_uint256": {
						"encoding": "inplace",
						"label": "uint256",
						"numberOfBytes": "32"
					}
				}
			},
			"userdoc": {
				"kind": "user",
				"methods": {},
				"version": 1
			}
		}
	}
}